:100000000C9492030C9450270C9477270C94C925D8
:100010000C94C9250C94C9250C94BA030C94BA030A
:100020000C94BA030C94BA030C94BA030C94BA035C
:100030000C94BA030C94BA030C94BA030C94BA034C
:100040000C941B190C94BA030C94E9150C941B1610
:100050000C94BA030C94BA030C94BA030C94BA032C
:100060000C94E50C0C94BA03220E280E280E280ED0
:10007000280E280E280E280E160D280E280E280EE3
:10008000280E280E280E280E160D280E280E280ED3
:10009000280E280E280E280E200D280E280E280EB9
:1000A000280E280E280E280E4C0D280E280E280E7D
:1000B000280E280E280E280E200D280E280E280E99
:1000C000280E280E280E280E520D280E280E280E57
:1000D000280E280E280E280E580D280E280E280E41
:1000E000280E280E280E280E6E0D280E280E280E1B
:1000F000280E280E280E280E9E0D280E280E280EDB
:10010000280E280E280E280E5E0D280E280E280E0A
:10011000280E280E280E280E7C0D280E280E280EDC
:10012000280E280E280E280EA10D280E280E280EA7
:10013000280E280E280E280EA10D280E280E280E97
:10014000280E280E280E280EA10D280E280E280E87
:10015000280E280E280E280EA10D280E280E280E77
:10016000280E280E280E280EAA0D280E280E280E5E
:10017000280E280E280E280EE40D280E280E280E14
:10018000280E280E280E280EAA0D280E280E280E3E
:10019000280E280E280E280EE40D280E280E280EF4
:1001A000280E280E280E280EC60D280E280E280E02
:1001B000280E280E280E280EE80D280E280E280ED0
:1001C000280E280E280E280EE80D280E280E280EC0
:1001D000280E280E280E280EFE0D280E280E280E9A
:1001E000280E280E280E280E1C0E280E280E280E6B
:1001F000280E280E280E280E1C0E280E280E280E5B
:10020000280E280E280E280E280E280E280E280E3E
:10021000280E280E280E280E280E280E280E280E2E
:10022000280E280E280E280E280E280E280E280E1E
:10023000280E280E280E280E280E280E280E280E0E
:10024000280E280E280E280E280E280E280E280EFE
:10025000280E280E280E280E270E746578742F702D
:100260006C61696E0000007765622E6D746E2E639E
:100270006900746578742F706C61696E00537461E5
:100280007274696E672E2E2E004D6F64756C65203A
:1002900023002C20546F74616C20235265616469C3
:1002A0006E67733A200052656164696E67202300AF
:1002B00047736D2D5374617475733A20002C204779
:1002C000736D2D525353493A20002C2047736D2DE6
:1002D0004572726F7220436F64653A20002C20478C
:1002E00070732D5374617475733A20002C2047701D
:1002F000732D4572726F7220436F64653A20002C33
:10030000204770732D4C61743A20002C2047707385
:100310002D4C6F6E3A20002C204770732D44617471
:10032000653A20002C204770732D48656164696E22
:10033000673A20002C204770732D53706565643A2E
:10034000200033206D696E7574657320656C617073
:10035000736564202D206C6F6767696E672E2E2E83
:10036000004D6F64756C652023002C2043757272FC
:10037000656E74202352656164696E67733A20006C
:100380000000000800020100000304070000000054
:10039000000000000102040810204080010204084F
:1003A00010200102040810200404040404040404BE
:1003B000020202020202030303030303000000001F
:1003C00023002600290000000000250028002B0043
:1003D00000000000240027002A00093C2D2D2D20BC
:1003E00000092D2D2D3E2000093C2D2D2D2000092A
:1003F0002D2D2D3E2000093C2D2D2D2000092D2DC9
:100400002D3E2000093C2D2D2D2000092D2D2D3EA7
:10041000200054494D454F55540053504143450029
:10042000093C2D2D2D200052454449520055524C77
:1004300000554100434944004C656E3A2000537416
:10044000617475733A2000434F4E54454E54004139
:10045000542B4854545053534C3D002B4854545043
:10046000524541443A0041542B485454505245415E
:1004700044002B48545450414354494F4E3A002BAA
:1004800048545450414354494F4E3A0041542B482C
:10049000545450414354494F4E3D00444F574E4CE5
:1004A0004F41440041542B48545450444154413D21
:1004B0000041542B48545450444154413D00092DAF
:1004C0002D2D3E2000222C00222C220041542B48AE
:1004D000545450504152413D220041542B485454F1
:1004E00050504152413D2200092D2D2D3E2000410A
:1004F000542B485454505445524D0041542B4854A9
:100500005450494E49540041542B43474154543DA3
:10051000300041542B53415042523D302C31004168
:10052000542B434950534855540053485554204F79
:100530004B0041542B43494943520041542B5341F2
:100540005042523D312C310041542B5341504252C4
:100550003D332C312C22505744222C0041542B5334
:10056000415042523D332C312C2255534552222CBE
:100570000041542B435354543D2200092D2D2D3E50
:10058000200041542B435354543D220041542B53DB
:10059000415042523D332C312C2241504E222C00EE
:1005A00041542B53415042523D332C312C22434F66
:1005B0004E54595045222C22475052532200415448
:1005C0002B43474154543D310041542B4349505330
:1005D0004855540053485554204F4B003E20003E90
:1005E000200041542B434D47463D310041542B439D
:1005F0005351002B4353513A200041542B43524551
:10060000473F002B435245473A200041542B434279
:1006100043002B4342433A200053494D3830304881
:1006200000093C2D2D2D2000092D2D2D3E2000539D
:10063000494D434F4D5F53494D353332304500539B
:10064000494D434F4D5F53494D353332304100538F
:10065000494D383030205231330053494D3830380D
:10066000205231330053494D383038205231340054
:10067000093C2D2D2D2000092D2D2D3E200041540B
:100680002B435648553D30004154453000415445B8
:10069000300041540041540041540054696D656F6D
:1006A00075743A204E6F20726573706F6E7365209B
:1006B000746F2041542E2E2E206C61737420646957
:1006C00074636820617474656D70742E0041540009
:1006D00041540041540053657269616C2077617325
:1006E00020617661696C61626C6500417474656D4E
:1006F0007074696E6720746F206F70656E20636F11
:100700006D6D207769746820415473004F4B00462B
:100710004F4E4100464F4E416E657400720AE01123
:100720004B167F0A11241FBECFEFD8E0DEBFCDBF2E
:1007300013E0A0E0B1E0EEEEF7E502C005900D9207
:10074000A234B107D9F728E0A2E4B3E001C01D92BA
:10075000AD34B207E1F713E0C1E9D3E004C021975B
:10076000FE010E940529CE38D107C9F70E947916EB
:100770000C94EA2B0C940000CF93DF9300D01F92CF
:10078000CDB7DEB79A8389836B8389819A8160E0D4
:100790000E94541B89819A81865E9E4F2B81FC01A9
:1007A000208300000F900F900F90DF91CF9108955C
:1007B000CF93DF9300D0CDB7DEB79A838983000053
:1007C0000F900F90DF91CF910895CF93DF9300D0DA
:1007D00000D0CDB7DEB79A8389837C836B83898110
:1007E0009A812B813C81B9010E94401200000F9038
:1007F0000F900F900F90DF91CF910895CF93DF93DB
:1008000000D000D01F92CDB7DEB79C838B836D8361
:100810008B819C81865E9E4FFC018081882311F034
:1008200081E004C08FE996E89A8389830F900F9046
:100830000F900F900F90DF91CF910895CF93DF939A
:1008400000D0CDB7DEB79A83898300000F900F9058
:10085000DF91CF910895CF93DF9300D000D0CDB733
:10086000DEB79A8389837C836B8389819A81865ED4
:100870009E4FFC018081882309F448C02B813C8174
:1008800080E090E0A0E2B1E4F901828B938BA48B2D
:10089000B58B8B819C8146962FE0E2E2F1E0DC0192
:1008A00001900D922A95E1F78B819C812EE1FC014C
:1008B00021832B813C8180E090E0A0E2B2E4F90149
:1008C00086879787A08BB18B2B813C8180E090E05D
:1008D000A8E4B2E4F90182839383A483B5832B81D6
:1008E0003C8180E090E0A0E7B2E4F9018683978341
:1008F000A087B1872B813C8180E090E0ACE8B2E436
:10090000F90182879387A487B58700000F900F9025
:100910000F900F90DF91CF910895CF93DF9300D088
:100920001F92CDB7DEB79A8389836B8389819A81C1
:100930002B81FC01248389819A81059660E00E94C5
:10094000541B00000F900F900F90DF91CF910895EE
:10095000CF93DF9300D0CDB7DEB79A8389830000B1
:100960000F900F90DF91CF910895CF93DF9300D038
:1009700000D0CDB7DEB79A8389837C836B8389816E
:100980009A8105962B813C81B9010E94401200009A
:100990000F900F900F900F90DF91CF910895CF930C
:1009A000DF9300D0CDB7DEB79A83898389819A819E
:1009B000FC011182108289819A81FC0113821282CA
:1009C00000000F900F90DF91CF9108950F931F9328
:1009D000CF93DF9300D0CDB7DEB79A838983898127
:1009E0009A81FC01948181E0992309F480E08823B5
:1009F00011F081E02DC08FE190E00E9488168C01FB
:100A000020E042E063E0C8010E94952689819A8136
:100A1000815E9E4FFC011183008389819A81815EF2
:100A20009E4FFC018081918140EC52E160E070E0DA
:100A30000E94C02689819A81815E9E4FFC0180813F
:100A400091819C0189819A810596B9010E94C21EFB
:100A50000F900F90DF91CF911F910F910895CF9339
:100A6000DF9300D000D0CDB7DEB79A8389837C8333
:100A70006B8389819A81FC01948181E0992309F437
:100A800080E0882349F08B819C8123E630E0FC01E3
:100A90003183208381E008C089819A8105962B816A
:100AA0003C81B9010E949C240F900F900F900F90F1
:100AB000DF91CF910895CF93DF93CDB7DEB76997DC
:100AC0000FB6F894DEBF0FBECDBF9F8B8E8B798F94
:100AD000688F8E899F89FC01948181E0992309F4B4
:100AE00080E0882311F081E026C02EE0E2E4F1E00E
:100AF000CE010196DC0101900D922A95E1F727E0E5
:100B0000CE010F96FC01322F11923A95E9F78E89AA
:100B10009F890596288D398DA9019E012F5F3F4F32
:100B2000B9010E947820982F81E08927882311F04D
:100B300081E001C080E069960FB6F894DEBF0FBE79
:100B4000CDBFDF91CF910895CF93DF9300D000D038
:100B5000CDB7DEB79A8389837C836B8389819A8141
:100B60000E94C805282F8B819C81FC0122838981EA
:100B70009A810E94E505282F8B819C81FC012183AD
:100B800000000F900F900F900F90DF91CF9108957C
:100B9000CF93DF9300D0CDB7DEB79A838983898165
:100BA0009A81FC01948181E0992309F480E08823F3
:100BB00011F087E005C089819A8105960E94AB24D7
:100BC0000F900F90DF91CF910895CF93DF9300D0D6
:100BD000CDB7DEB79A83898389819A81FC0194819C
:100BE00081E0992309F480E0882311F085E105C0B4
:100BF00089819A8105960E94CA240F900F90DF91F7
:100C0000CF910895CF93DF9300D01F92CDB7DEB779
:100C10009A8389836B8389819A8105966B810E946F
:100C2000D8210F900F900F90DF91CF910895CF9220
:100C3000DF92EF92FF920F931F93CF93DF93CDB785
:100C4000DEB72E970FB6F894DEBF0FBECDBF9C87E0
:100C50008B877E876D878B859C85FC01948181E0E5
:100C6000992309F480E0882319F080E090E099C08E
:100C700081E090E09A83898387E591E09D838C836E
:100C80008D859E850E94792B8C014AE552E08B85EB
:100C90009C850596DE011996FE0137962D853E85C9
:100CA0006C817D816D017F010E94D3238B839B81A9
:100CB00081E08927882311F125E632E046E652E0FB
:100CC00067E672E08B859C8505960E94861B8D8564
:100CD0009E850E94792B8C0142E752E08B859C8592
:100CE0000596DE011996FE0137962D853E856C81AD
:100CF0007D816D017F010E94D3238B839B8181E0E5
:100D00008927882329F087EE93E09A83898347C057
:100D100089859A85181619068CF58B859C8505960C
:100D20000E94181B21E0892B09F420E0222381F383
:100D30008B859C8505960E94301B8E8380EC90E00D
:100D4000FC018081882F90E08072992721E0892B17
:100D500009F020E0222309F0F1CF86EC90E02E810B
:100D6000FC01208389859A8501979A8789878985DF
:100D70009A85892B09F0D1CF0000CACF8B859C853D
:100D800005960E945C208F819885883C910519F01A
:100D90008F81988502C080E090E09A838983898161
:100DA0009A812E960FB6F894DEBF0FBECDBFDF91AD
:100DB000CF911F910F91FF90EF90DF90CF9008950A
:100DC000CF93DF93CDB7DEB768EB7BE080E090E0B8
:100DD0000E948A1983E597E00E94550E40E855E28B
:100DE00060E070E08FE597E00E94E3128DE792E00B
:100DF000BC018FE597E00E94FA1663E473E08DE58D
:100E000094E00E94E50363E473E088E795E00E94C4
:100E1000B50480914203882321F0809103010E9450
:100E20001F080E9417070000DF91CF910895CF930C
:100E3000DF93CDB7DEB788E795E00E94E604982FF0
:100E400081E08927882331F461E08DE594E00E94F8
:100E5000FE0301C00000DF91CF910895CF93DF938F
:100E600000D01F92CDB7DEB78B83809105019091A2
:100E700006019C012E5F3F4F8B81482F50E068E2B6
:100E8000649FC001659F900D1124820F931F9A8368
:100E9000898389819A810F900F900F90DF91CF9174
:100EA0000895CF93DF93CDB7DEB729970FB6F894A7
:100EB000DEBF0FBECDBF9E838D8378876F8349874A
:100EC0001982998581E02981291708F080E088231B
:100ED00009F44CC08981282F30E08D819E81820FDA
:100EE000931F9C838B8360E570E083E597E00E940D
:100EF000E30F8B819C81892F990F990BBC0183E5AE
:100F000097E00E9406138B819C819927BC0183E5A1
:100F100097E00E94061383E597E00E94201041E0CD
:100F200050E060E570E083E597E00E94880F8FEF66
:100F30008A8383E597E00E94B41021E0892B09F4AD
:100F400020E0222329F083E597E00E94CC108A83D9
:100F50008981882F90E02F813885820F931F2A8105
:100F6000FC01208389818F5F8983ABCF00002996A4
:100F70000FB6F894DEBF0FBECDBFDF91CF910895BD
:100F8000CF93DF93CDB7DEB728970FB6F894DEBFC7
:100F90000FBECDBF9D838C837F836E83488719826C
:100FA000988581E02981291708F080E08823E9F1FC
:100FB0008981282F30E08C819D81820F931F9B8334
:100FC0008A8360E570E083E597E00E94E30F8A8101
:100FD0009B81892F990F990BBC0183E597E00E94B3
:100FE00006138A819B819927BC0183E597E00E94C3
:100FF00006138981882F90E02E813F81820F931FF5
:10100000FC018081682F83E597E00E94311083E521
:1010100097E00E94201064E170E080E090E00E9480
:101020008A1989818F5F8983BBCF000028960FB60C
:10103000F894DEBF0FBECDBFDF91CF910895CF935F
:10104000DF9300D01F92CDB7DEB78B83CE01019620
:101050000E9425138B8189831A8242E080910501C9
:10106000909106019C01CE010196BC01C9010E942C
:10107000C0076AE871E08FE597E00E94ED164AE04C
:1010800050E06B818FE597E00E948D1700000F9074
:101090000F900F90DF91CF910895CF93DF93CDB74D
:1010A000DEB7AD970FB6F894DEBF0FBECDBFCE0151
:1010B00004960E94251342E080910501909106015B
:1010C0009C01CE010496BC01C9010E94510789E828
:1010D00092E0BC018FE597E00E94C9168C814AE03E
:1010E00050E0682F8FE597E00E94861782E992E032
:1010F000BC018FE597E00E94C9168D814AE050E05F
:10110000682F8FE597E00E948D1719829D81898154
:10111000891708F0C9C086EA92E0BC018FE597E024
:101120000E94C9164AE050E069818FE597E00E946D
:101130008D1789810E942E079B838A8348E28A81CA
:101140009B819E012A5F3F4FB9010E94510780EBAE
:1011500092E0BC018FE597E00E94C91688854AE0BD
:1011600050E0682F8FE597E00E9486178DEB92E0A4
:10117000BC018FE597E00E94C9168F814AE050E0DC
:10118000682F8FE597E00E9486178AEC92E0BC01F9
:101190008FE597E00E94C9168E814AE050E0682FE3
:1011A0008FE597E00E9486178DED92E0BC018FE5F8
:1011B00097E00E94C9168A85082E000C990B4AE018
:1011C00050E0BC018FE597E00E9411188CEE92E090
:1011D000BC018FE597E00E94C91689854AE050E07E
:1011E000682F8FE597E00E9486178FEF92E0BC0191
:1011F0008FE597E00E94C9168B859C85AD85BE85DD
:1012000022E030E0AC01BD018FE597E00E940719B4
:101210008BE093E0BC018FE597E00E94C9168F85B3
:101220009889A989BA8922E030E0AC01BD018FE537
:1012300097E00E94071987E193E0BC018FE597E0F2
:101240000E94C916CE0106964996BC018FE597E02B
:101250000E94ED1684E293E0BC018FE597E00E94C6
:10126000C9168F89988DA98DBA8D22E030E0AC0126
:10127000BD018FE597E00E94071984E393E0BC016C
:101280008FE597E00E94C9168B899C89AD89BE893C
:1012900022E030E0AC01BD018FE597E00E94091922
:1012A00089818F5F898332CF0000AD960FB6F894A5
:1012B000DEBF0FBECDBFDF91CF910895CF93DF93F7
:1012C000CDB7DEB7E5970FB6F894DEBF0FBECDBF42
:1012D0008DAB82E493E0BC018FE597E00E94FA16A3
:1012E00082E0898388E28A83CE0105960E942513D5
:1012F00042E080910501909106019C01CE01059686
:10130000BC01C9010E94510781E693E0BC018FE551
:1013100097E00E94C9168D814AE050E0682F8FE562
:1013200097E00E9486178AE693E0BC018FE597E07C
:101330000E94C9168E814AE050E0682F8FE597E041
:101340000E948D179DA981E089278823B9F58E8198
:101350008F5F8E8342E080910501909106019C0190
:10136000CE010596BC01C9010E94C007CE010796B7
:101370000396BC018DE594E00E942B04CE010796F4
:10138000BC0188E795E00E94A4058E810E942E078B
:101390009C838B83CE018F9666EA71E00E94031BCB
:1013A0008B819C819E01295F3F4F4A81B9010E9438
:1013B000C007CE018F960E94951A01C00000E596E5
:1013C0000FB6F894DEBF0FBECDBFDF91CF91089569
:1013D000CF93DF93CDB7DEB78091990690919A06AF
:1013E000019690939A068093990668EE73E080E0E8
:1013F00090E00E948A1980910401882369F080910D
:10140000990690919A0621E0019709F020E02223A5
:1014100031F10E944D0823C080914203882309F5D1
:1014200067EA71E08FE597E00E940C178091000158
:10143000882331F081E00E945E090E944D0812C0AD
:101440008091990690919A0621E0843B910509F0DC
:1014500020E0222339F081E00E945E0903C00000F1
:1014600001C00000DF91CF910895CF93DF9300D0AA
:1014700000D0CDB7DEB79A8389837C836B83898163
:101480009A810197B9F48B819C81019699F464E06B
:1014900083E493E00E94541B80910201682F8DE544
:1014A00094E00E94BC0380910101682F88E795E0D9
:1014B0000E948D0489819A81892B61F48B819C81A2
:1014C000019641F488E795E00E94A8048DE594E038
:1014D0000E94D80300000F900F900F900F90DF91A3
:1014E000CF910895CF93DF93CDB7DEB76FEF7FEF46
:1014F00081E090E00E94350ADF91CF910895CF936B
:10150000DF93CDB7DEB76FEF7FEF80E090E00E9412
:10151000350ADF91CF910895CF93DF93CDB7DEB732
:1015200010929B0681E080939D0610929E0682E1B8
:1015300061E00E94661A83E161E00E94661A89EB0D
:1015400090E029EB30E0F90120812E7FFC0120831F
:1015500089EB90E029EB30E0F90120812D7FFC013F
:10156000208388EB90E028E4FC0120838CEB90E062
:1015700025E4FC0120830000DF91CF910895CF93F3
:10158000DF93CDB7DEB78CEB90E02CEB30E0F901C8
:1015900020812A7BFC01208382E160E00E94661AA0
:1015A00083E160E00E94661A0000DF91CF91089508
:1015B000CF93DF931F92CDB7DEB789838AEB90E09C
:1015C0002981220FFC01208300000F90DF91CF9131
:1015D00008950F931F93CF93DF9300D000D0CDB722
:1015E000DEB769837A838B839C8308EB10E080E00D
:1015F00094E2A4EFB0E029813A814B815C81BC0187
:10160000CD010E94C428DA01C9014097A109B1099E
:10161000B695A79597958795F801808300000F9060
:101620000F900F900F90DF91CF911F910F91089520
:10163000CF93DF9300D000D000D0CDB7DEB78A8340
:101640007C836B834D832E838D81813218F080E003
:101650006BC0000080919B068823D9F781E08093BE
:101660009B068E8180939D068FEF809308071092D2
:10167000C3068D8181508093C40681E080939C06CF
:101680008A81882F90E0880F991F982F80919C065F
:10169000892B80939C0680919E068130C1F4109224
:1016A0009E068BEB90E020919C06FC0120838CEB46
:1016B00090E0FC018081882F90E088709927892B29
:1016C00081F78CEB90E025ECFC01208307C08CEBCC
:1016D00090E025EEFC01208301C0000080919B0674
:1016E0008130D9F39091C3068D81981718F48091B9
:1016F000C3068D83198213C08981882F90E02B81C6
:101700003C81820F931F2981222F30E02D55394FC4
:10171000F9012081FC01208389818F5F8983998170
:101720008D81981748F38D8126960FB6F894DEBF09
:101730000FBECDBFDF91CF9108950F93CF93DF936D
:10174000CDB7DEB727970FB6F894DEBF0FBECDBF7B
:101750008A837C836B834D832E830F838D818132BB
:1017600018F081E076C0000080919B068823D9F7AD
:1017700082E080939B068F8180939D068FEF8093FC
:1017800008071092C3068D818093C406198213C086
:101790008981882F90E02981222F30E04B815C8164
:1017A000240F351FF90120818D55994FFC012083AD
:1017B00089818F5F898399818D81981748F3109271
:1017C0009C068A81882F90E0880F991F982F80911E
:1017D0009C06892B80939C0680919E068130C1F4E3
:1017E00010929E068BEB90E020919C06FC012083DA
:1017F0008CEB90E0FC018081882F90E08870992725
:10180000892B81F78CEB90E025ECFC01208307C04D
:101810008CEB90E025EEFC01208301C000008E815E
:10182000882321F080919B068230C1F380910807C4
:101830008F3F11F480E00DC080910807803211F4D1
:1018400082E007C080910807803311F483E001C073
:1018500084E027960FB6F894DEBF0FBECDBFDF91B0
:10186000CF910F910895CF93DF9300D000D0CDB7E3
:10187000DEB79B838A836C838091E606282F30E055
:101880008C81882F90E0820F931F819714F081E064
:101890002CC080919B06843011F082E026C0198212
:1018A00019C08091E606282F30E08981882F90E0CA
:1018B000820F931F2981222F30E04A815B81240F00
:1018C000351FF90120818B53994FFC0120838981B9
:1018D0008F5F898399818C81981718F39091E60620
:1018E0008C81890F8093E60680E00F900F900F9017
:1018F0000F90DF91CF910895CF93DF9300D0CDB7B4
:10190000DEB79A83898389819A819093A206809316
:10191000A10600000F900F90DF91CF910895CF9313
:10192000DF9300D0CDB7DEB79A83898389819A810E
:101930009093A00680939F0600000F900F90DF9178
:10194000CF910895CF93DF931F92CDB7DEB78983F0
:101950008981882331F08CEB90E025ECFC01208319
:1019600005C08CEB90E025E8FC01208300000F907F
:10197000DF91CF910895CF93DF93CDB7DEB78CEB96
:1019800090E025EDFC01208301C000008CEB90E08D
:10199000FC018081882F90E080719927892BA9F71D
:1019A00010929B060000DF91CF910895CF93DF93B3
:1019B000CDB7DEB78CEB90E025ECFC0120831092D4
:1019C0009B060000DF91CF9108951F920F92009027
:1019D0005F000F9211242F933F934F935F936F9368
:1019E0007F938F939F93AF93BF93EF93FF93CF9387
:1019F000DF93CDB7DEB789EB90E0FC018081882FC3
:101A000090E0887F9927092E000CAA0BBB0B40E0C1
:101A100050E028EF30E0841B950B2817390708F4B5
:101A200017C18C5C9F4FFC010C9405298BEB90E057
:101A300020919C06FC01208381E00E94A20C08C139
:101A40009091C3068091C4069817A0F48BEB90E0A8
:101A50002091C30631E0320F3093C306222F30E0CD
:101A60002D55394FF9012081FC01208381E00E942E
:101A7000A20CEEC080919D06882319F00E94BB0C39
:101A8000E7C081E080939E068CEB90E024EAFC01A5
:101A9000208310929B06DCC080E2809308070E949E
:101AA000BB0CD6C080E3809308070E94BB0CD0C05B
:101AB00088E3809308070E94D60CCAC08091C306B1
:101AC00091E0980F9093C306882F90E02BEB30E0C5
:101AD000F90120818D55994FFC0120839091C30617
:101AE0008091C406981720F481E00E94A20CB0C037
:101AF00080E00E94A20CACC08091C30691E0980FD8
:101B00009093C306882F90E02BEB30E0F901208101
:101B10008D55994FFC01208380919D06882319F0F3
:101B20000E94BB0C95C081E080939E068CEB90E0F8
:101B300024EAFC01208310929B068AC00E94BB0C01
:101B400087C083E080939B061092070781E00E9484
:101B5000A20C7EC0809107078032A0F48091070715
:101B600091E0980F90930707882F90E02BEB30E0DF
:101B7000F90120818951994FFC01208381E00E9465
:101B8000A20C66C080E00E94A20C62C00E94D60C2B
:101B900080910707803240F480910707882F90E0FA
:101BA0008951994FFC0110822091A1063091A20623
:101BB00080910707882F90E0BC0187EE96E0F9013D
:101BC00009951092070744C080E00E94A20C40C013
:101BD00084E080939B061092E5061092E6068091C1
:101BE0009F069091A006FC0109958091E606882346
:101BF00029F481E08093E6061092C5068BEB90E015
:101C00002091E50631E0320F3093E506222F30E0D7
:101C10002B53394FF9012081FC0120839091E50677
:101C20008091E606981720F481E00E94A20C10C073
:101C300080E00E94A20C0CC081E00E94A20C1092D5
:101C40009B0606C0109208070E94BB0C01C0000052
:101C50000000DF91CF91FF91EF91BF91AF919F91E4
:101C60008F917F916F915F914F913F912F910F9045
:101C700000925F000F901F901895CF93DF9300D0D4
:101C8000CDB7DEB79A83898389819A810E946813D0
:101C900024E832E089819A81FC01318320830000AD
:101CA0000F900F90DF91CF910895CF93DF9300D0E5
:101CB000CDB7DEB79A8389831092290710922A073D
:101CC00010924C0710924D070E948C0A00000F9052
:101CD0000F90DF91CF910895CF93DF9300D01F92A3
:101CE000CDB7DEB79A8389836B838B810E94D80A34
:101CF00089E791E10E948F0C8CE291E10E947C0CBB
:101D000089819A810E94550E00000F900F900F90CC
:101D1000DF91CF910895CF93DF9300D000D0CDB75E
:101D2000DEB79A8389837C836B832B8189819A8137
:101D3000622F0E946C0E00000F900F900F900F907A
:101D4000DF91CF910895CF93DF9300D0CDB7DEB769
:101D50009A8389830E94BF0A00000F900F90DF9141
:101D6000CF910895CF93DF9300D000D000D0CDB7AE
:101D7000DEB79A8389834B835C836D837E838B81FB
:101D80009C81AD81BE81BC01CD010E94E90A0000A9
:101D900026960FB6F894DEBF0FBECDBFDF91CF9170
:101DA0000895CF92EF920F931F93CF93DF93CDB708
:101DB000DEB72B970FB6F894DEBF0FBECDBF9B8367
:101DC0008A836C834D830E831F8328873987EA8635
:101DD000CB868A858823E9F18A819B816C810E9468
:101DE000C90F8A85843010F083E08A878A859FEF47
:101DF000980F9A8791E0882309F490E0992321F1C4
:101E00008A819B81FC0180819181FC01208131814B
:101E10008A85882F90E0AC01440F551F440F551F51
:101E2000440F551F8E819F81A885B98504C0B69542
:101E3000A795979587954A95D2F7482F8A819B81D8
:101E4000642FF9010995D2CF8A819B8160E00E94BD
:101E5000FB0F8D81813210F080E28D832B854D81C7
:101E600069E077E08C810E94180B89831092290722
:101E7000898180932A0789812B960FB6F894DEBF5B
:101E80000FBECDBFDF91CF911F910F91EF90CF90FB
:101E90000895CF92EF920F931F93CF93DF9300D0CB
:101EA00000D01F92CDB7DEB79A8389836B834C83B2
:101EB0002D8389819A81CD80E12C00E010E098018A
:101EC0004C816B810E94D10E0F900F900F900F905C
:101ED0000F90DF91CF911F910F91EF90CF900895C8
:101EE000CF93DF9300D000D0CDB7DEB79A8389833C
:101EF0006B834C8389819A8121E04C816B810E94A4
:101F0000490F0F900F900F900F90DF91CF91089590
:101F1000CF93DF9300D000D000D0CDB7DEB79A8347
:101F200089837C836B835E834D834D813B81898173
:101F30009A8121E0632F0E94490F26960FB6F894EC
:101F4000DEBF0FBECDBFDF91CF910895CF93DF935A
:101F5000CDB7DEB728970FB6F894DEBF0FBECDBF62
:101F60009A8389837C836B835E834D8338872F8339
:101F70002F814D813B8189819A81632F0E94490F76
:101F800028960FB6F894DEBF0FBECDBFDF91CF917C
:101F90000895CF93DF9300D01F92CDB7DEB79A8319
:101FA00089836B8381E080934E078B8180932B071D
:101FB00010924C0710924D0700000F900F900F9059
:101FC000DF91CF910895CF93DF9300D000D0CDB7AC
:101FD000DEB79A8389837C836B832B8189819A8185
:101FE000622F0E94C90F00000F900F900F900F906A
:101FF000DF91CF9108950F93CF93DF9300D000D05E
:10200000CDB7DEB79B838A836C8390914D07809117
:102010002B070C8121E0492F6CE277E00E949D0B99
:10202000898310924C0710924D0710924E078981B8
:102030000F900F900F900F90DF91CF910F91089517
:10204000CF93DF9300D0CDB7DEB79A8389838981A0
:102050009A8161E00E94FB0F0F900F90DF91CF916A
:102060000895CF93DF9300D01F92CDB7DEB79A8348
:1020700089836B8380914E07882301F180914D07FE
:10208000803248F089819A8161E070E00E943613C5
:1020900080E090E01AC080914C07882F90E02B815F
:1020A000845D984FFC01208380914C078F5F809363
:1020B0004C0780914C0780934D0705C0CE010396D5
:1020C00061E00E94330C81E090E00F900F900F9040
:1020D000DF91CF910895CF93DF93CDB7DEB72897E7
:1020E0000FB6F894DEBF0FBECDBF9C838B837E837B
:1020F0006D8358874F8380914E07882321F11A8280
:10210000198229813A818F8198852817390708F526
:102110008B819C81FC0180819181FC012081318136
:102120004D815E8189819A81840F951FFC014081D8
:102130008B819C81642FF901099589819A8101968F
:102140009A838983DECF2F818D819E81622F0E94A9
:10215000330C8F81988528960FB6F894DEBF0FBE9A
:10216000CDBFDF91CF910895CF93DF9300D0CDB74E
:10217000DEB79A83898380912A07282F30E08091E7
:102180002907882F90E0A901481B590BCA010F901D
:102190000F90DF91CF910895CF93DF9300D000D0BF
:1021A000CDB7DEB79C838B838FEF9FEF9A838983B4
:1021B0009091290780912A07981788F48091290720
:1021C000882F90E0875F984FFC018081882F90E0F6
:1021D0009A838983809129078F5F8093290789815A
:1021E0009A810F900F900F900F90DF91CF910895EB
:1021F000CF93DF9300D000D0CDB7DEB79C838B8325
:102200008FEF9FEF9A8389839091290780912A0706
:10221000981760F480912907882F90E0875F984F86
:10222000FC018081882F90E09A83898389819A813B
:102230000F900F900F900F90DF91CF910895CF9353
:10224000DF9300D0CDB7DEB79A83898300000F906B
:102250000F90DF91CF910895CF93DF9300D000D0FE
:102260001F92CDB7DEB79B838A837D836C83809179
:10227000510790915207892B89F1909129078091FC
:102280002A07981768F119828981282F30E08C81FC
:102290009D8128173907A4F48981882F90E029812E
:1022A000222F30E04A815B81240F351FF901208104
:1022B000875F984FFC01208389818F5F8983E4CFFA
:1022C000109229078C8180932A0720915107309121
:1022D00052078C819D81F901099503C0000001C05E
:1022E00000000F900F900F900F900F90DF91CF9103
:1022F0000895CF93DF93CDB7DEB780914F079091CC
:102300005007892B59F010924C0710924D0780917D
:102310004F0790915007FC01099501C00000DF9123
:10232000CF910895CF93DF9300D000D0CDB7DEB723
:102330009A8389837C836B838B819C8190935207E2
:102340008093510700000F900F900F900F90DF9136
:10235000CF910895CF93DF9300D000D0CDB7DEB7F3
:102360009A8389837C836B838B819C8190935007B4
:1023700080934F0700000F900F900F900F90DF9108
:10238000CF910895CF93DF9300D000D0CDB7DEB7C3
:102390009A8389837C836B8389819A81019741F435
:1023A0008B819C81019621F483E597E00E943D0E8C
:1023B00000000F900F900F900F90DF91CF91089534
:1023C000CF93DF93CDB7DEB76FEF7FEF81E090E083
:1023D0000E94C211DF91CF910895CF93DF9300D077
:1023E00000D0CDB7DEB79A8389837C836B838B81E2
:1023F0009C81FC012281338189819A81FC01338394
:10240000228389819A810F900F900F900F90DF9116
:10241000CF910895CF93DF9300D000D0CDB7DEB732
:102420009A8389837C836B832B813C8189819A8108
:10243000B9010E94ED118B819C81FC018481958101
:10244000A681B78129813A81F90184839583A68386
:10245000B7838B819C81FC0180859185A285B385A2
:1024600029813A81F90180879187A287B387898181
:102470009A810F900F900F900F90DF91CF91089558
:10248000CF93DF9300D000D0CDB7DEB79A83898396
:102490007C836B832B813C8189819A81B9010E9465
:1024A0000A128B819C81FC01248589819A81FC011F
:1024B00024878B819C81FC01258589819A81FC017F
:1024C000258789819A81AC01425F5F4F8EEF90E052
:1024D0002B813C81225F3F4F8F3FFFEF9F0751F0E1
:1024E000F9016081FA0160834F5F5F4F2F5F3F4FBB
:1024F0000197F2CF8B819C81835F9E4FFC012081ED
:10250000318189819A81835F9E4FFC0131832083D1
:102510008B819C81815F9E4FFC012081318189816B
:102520009A81815F9E4FFC01318320838B819C8146
:102530008F5E9E4FFC012081318189819A818F5E5F
:102540009E4FFC01318320838B819C818D5E9E4F49
:10255000FC01208189819A818D5E9E4FFC01208340
:102560008B819C818C5E9E4FFC0120813181898111
:102570009A818C5E9E4FFC01318320838B819C81EC
:102580008A5E9E4FFC012081318189819A818A5E19
:102590009E4FFC01318320838B819C81885E9E4FFE
:1025A000FC012081318189819A81885E9E4FFC01E6
:1025B0003183208389819A810F900F900F900F9023
:1025C000DF91CF910895CF93DF9300D000D000D05A
:1025D000CDB7DEB79A8389834B835C836D837E831B
:1025E0008B819C81AD81BE81E981FA8126E0AC01BD
:1025F000BD01CF010E948415000026960FB6F89405
:10260000DEBF0FBECDBFDF91CF910895CF93DF9393
:1026100000D000D0CDB7DEB79A8389837C836B83EB
:1026200089819A81FC0180819181FC012081318125
:102630004B8189819A81642FF90109950F900F9040
:102640000F900F90DF91CF910895CF93DF9300D03B
:10265000CDB7DEB79A83898389819A81FC01118283
:1026600000000F900F90DF91CF910895CF93DF93EB
:1026700000D000D0CDB7DEB79A8389837C836B838B
:1026800089819A812B813C81FC0133832283000064
:102690000F900F900F900F90DF91CF910895CF93EF
:1026A000DF9300D0CDB7DEB79A83898325EC32E083
:1026B00089819A81FC013183208389819A81FC017F
:1026C0001382128200000F900F90DF91CF91089536
:1026D000CF93DF9300D0CDB7DEB79A83898389810A
:1026E0009A810E944F1324E932E089819A81FC018A
:1026F0003183208329813A8188EE93E0A0E0B0E025
:10270000F90184839583A683B78300000F900F900F
:10271000DF91CF9108950E9492136894B1110C94A7
:10272000211408950E94061488F09F5798F0B92F3D
:102730009927B751B0F0E1F0660F771F881F991FF6
:102740001AF0BA95C9F714C0B13091F00E94201464
:10275000B1E008950C942014672F782F8827B85F74
:1027600039F0B93FCCF3869577956795B395D9F74E
:102770003EF490958095709561957F4F8F4F9F4F58
:102780000895E89409C097FB3EF490958095709564
:1027900061957F4F8F4F9F4F9923A9F0F92F96E9AD
:1027A000BB279395F695879577956795B795F11122
:1027B000F8CFFAF4BB0F11F460FF1BC06F5F7F4FBF
:1027C0008F4F9F4F16C0882311F096E911C07723D1
:1027D00021F09EE8872F762F05C0662371F096E8DA
:1027E000862F70E060E02AF09A95660F771F881FA9
:1027F000DAF7880F9695879597F9089557FD9058C1
:10280000440F551F59F05F3F71F04795880F97FBB4
:10281000991F61F09F3F79F087950895121613066E
:102820001406551FF2CF4695F1DF08C0161617069D
:102830001806991FF1CF86957105610508940895D2
:10284000E894BB2766277727CB0197F908950E9464
:102850003A140C94AB140E949D1438F00E94A414F6
:1028600020F0952311F00C9494140C949A141124D4
:102870000C9421140E94FE1370F3959FC1F3950FE1
:1028800050E0551F629FF001729FBB27F00DB11DF4
:10289000639FAA27F00DB11DAA1F649F6627B00D84
:1028A000A11D661F829F2227B00DA11D621F739F6D
:1028B000B00DA11D621F839FA00D611D221F749F7B
:1028C0003327A00D611D231F849F600D211D822FC2
:1028D000762F6A2F11249F5750409AF0F1F08823E9
:1028E0004AF0EE0FFF1FBB1F661F771F881F915016
:1028F0005040A9F79E3F510580F00C9494140C941D
:1029000021145F3FE4F3983ED4F38695779567955D
:10291000B795F795E7959F5FC1F7FE2B880F911D3F
:102920009695879597F9089597F99F6780E870E0E5
:1029300060E008959FEF80EC089500240A94161635
:10294000170618060906089500240A94121613069D
:10295000140605060895092E0394000C11F488232B
:1029600052F0BB0F40F4BF2B11F460FF04C06F5F47
:102970007F4F8F4F9F4F08950E94062BFC01918D32
:10298000228D892F90E0805C9F4F821B91098F736D
:1029900099270895FC01918D828D981731F0828DD1
:1029A000E80FF11D858D90E008958FEF9FEF08955A
:1029B000FC01918D828D981761F0828DDF01A80F47
:1029C000B11D5D968C91928D9F5F9F73928F90E069
:1029D00008958FEF9FEF089581E496E1892B49F0E8
:1029E00080E090E0892B29F00E94411681110C941F
:1029F00000000895FC01848DDF01A80FB11DA35ACA
:102A0000BF4F2C91848D90E001968F739927848F0E
:102A1000A689B7892C93A089B1898C9180648C9305
:102A2000938D848D981306C00288F389E02D8081F0
:102A30008F7D80830895EF92FF920F931F93CF9322
:102A4000DF93EC0181E0888F9B8D8C8D981305C0FE
:102A5000E889F989808185FD24C0F62E0B8D10E070
:102A60000F5F1F4F0F731127E02E8C8DE8120CC0E3
:102A70000FB607FCFACFE889F989808185FFF5CF89
:102A8000CE010E94FA14F1CF8B8DFE01E80FF11DEB
:102A9000E35AFF4FF0820B8FEA89FB8980818062C5
:102AA00007C0EE89FF896083E889F98980818064A5
:102AB000808381E090E0DF91CF911F910F91FF9093
:102AC000EF900895CF93DF93EC01888D8823C9F0B0
:102AD000EA89FB89808185FD05C0A889B9898C9127
:102AE00086FD0FC00FB607FCF5CF808185FFF2CFC2
:102AF000A889B9898C9185FFEDCFCE010E94FA1487
:102B0000E7CFDF91CF910895CF92DF92EF92FF92BE
:102B10001F93CF93DF93EC016A017B01122FE889A9
:102B2000F98982E080834115514E61057105B1F04C
:102B300060E079E08DE390E0A70196010E94C4284F
:102B4000DA01C9010197A109B109B695A795979531
:102B500087959C01211580E13807A8F0E889F9895B
:102B6000108260E874E88EE190E0A70196010E946F
:102B7000C428DA01C9010197A109B109B695A79541
:102B8000979587959C01EC85FD853083EE85FF85C3
:102B90002083188EEC89FD891083EA89FB89808166
:102BA00080618083EA89FB89808188608083EA89EB
:102BB000FB89808180688083EA89FB8980818F7DA1
:102BC0008083DF91CF911F91FF90EF90DF90CF90A6
:102BD00008951F920F920FB60F9211242F938F9387
:102BE0009F93EF93FF93E0916F07F09170078081BF
:102BF000E0917507F091760782FD12C09081809177
:102C000078078F5F8F7320917907821751F0E091D9
:102C10007807F0E0E15AF84F958F8093780701C06C
:102C20008081FF91EF919F918F912F910F900FBE17
:102C30000F901F9018951F920F920FB60F921124AC
:102C40002F933F934F935F936F937F938F939F93B4
:102C5000AF93BF93EF93FF938FE597E00E94FA1431
:102C6000FF91EF91BF91AF919F918F917F916F9164
:102C70005F914F913F912F910F900FBE0F901F903A
:102C800018958FE597E00E94BE1421E0892B09F486
:102C900020E0822F0895EFE5F7E01382128288EE9C
:102CA00093E0A0E0B0E084839583A683B78384EAB1
:102CB00092E09183808385EC90E09587848784EC13
:102CC00090E09787868780EC90E0918B808B81ECF9
:102CD00090E0938B828B82EC90E0958B848B86ECDA
:102CE00090E0978B868B118E128E138E148E089522
:102CF00008950E94C6190E9478160E94E006CCEE44
:102D0000D4E10E94E8092097E1F30E94EC14F9CF86
:102D10000C941F29CF92DF92EF92FF920F931F9393
:102D2000CF93DF936C017A018B01C0E0D0E0CE1528
:102D3000DF0581F0D8016D918D01D601ED91FC91F7
:102D40000190F081E02DC6010995892B11F02196A3
:102D5000EECF7E01C701DF91CF911F910F91FF90C0
:102D6000EF90DF90CF9008956115710579F0FB0128
:102D700001900020E9F73197AF01461B570BDC01AA
:102D8000ED91FC910280F381E02D099480E090E0C8
:102D90000895EF92FF920F931F93CF93DF938C01CF
:102DA0007B01C0E0D0E0F701EC0FFD1F64916623CA
:102DB00061F0D801ED91FC910190F081E02DC80106
:102DC0000995892B11F02196EECFCE01DF91CF919D
:102DD0001F910F91FF90EF9008950C94B416DC01B1
:102DE000ED91FC910190F081E02D099460EB72E08F
:102DF0000C94B4160F931F93CF93DF93EC010E94B2
:102E0000C9168C01CE010E94F616800F911FDF912A
:102E1000CF911F910F9108950F931F93CF93DF933D
:102E2000EC010E94B4168C01CE010E94F616800FB0
:102E3000911FDF91CF911F910F9108950F931F93D1
:102E4000CF93DF93EC010E94EF168C01CE010E941C
:102E5000F616800F911FDF91CF911F910F9108956A
:102E60008F929F92AF92BF92EF92FF920F931F9318
:102E7000CF93DF93CDB7DEB7A1970FB6F894DEBF3F
:102E80000FBECDBF7C01FA01CB0119A2223008F49C
:102E90002AE08E010F5D1F4F822E912CA12CB12CA8
:102EA000BF01A50194010E94C428F901CA01015083
:102EB00011096A3010F4605D01C0695CD8016C933F
:102EC000232B242B252B61F7B801C7010E94B416D0
:102ED000A1960FB6F894DEBF0FBECDBFDF91CF91A4
:102EE0001F910F91FF90EF90BF90AF909F908F90A8
:102EF00008952115310541F4DC01ED91FC9101901B
:102F0000F081E02D642F09940C9430179A01462F1C
:102F100050E060E070E00C9479170F931F93CF930B
:102F2000DF93EC010E9486178C01CE010E94F616F9
:102F3000800F911FDF91CF911F910F9108959A01FA
:102F4000AB0160E070E00C9479170F931F93CF935F
:102F5000DF93EC010E949F178C01CE010E94F616B0
:102F6000800F911FDF91CF911F910F9108950F93C3
:102F70001F93CF93DF93EC010E9479178C01CE0150
:102F80000E94F616800F911FDF91CF911F910F9134
:102F90000895CF92DF92EF92FF920F931F93CF93FA
:102FA000DF932115310581F4DC01ED91FC91019055
:102FB000F081E02D642FDF91CF911F910F91FF9051
:102FC000EF90DF90CF9009942A30310501F577FF1B
:102FD0001DC06A017B01EC016DE20E94EF168C01BD
:102FE00044275527BA014C195D096E097F092AE06B
:102FF000CE010E943017800F911FDF91CF911F915A
:103000000F91FF90EF90DF90CF9008952AE0DF912D
:10301000CF911F910F91FF90EF90DF90CF900C9484
:1030200030179A01AB01770F660B770B0C94C91719
:103030000F931F93CF93DF93EC010E94C9178C016C
:10304000CE010E94F616800F911FDF91CF911F9144
:103050000F9108957F928F929F92AF92BF92CF92DD
:10306000DF92EF92FF920F931F93CF93DF938C0128
:103070006A017B01722E9A01AB01C701B6010E9461
:10308000AB28882319F063EB72E027C04601570193
:10309000E894B7F82FEF3FEF4FE75FE7C501B401C2
:1030A0000E94AB2881110DC02FEF3FEF4FE75FE784
:1030B000C501B4010E940B2818161CF467EB72E0DE
:1030C0000CC02FEF3FEF4FE75FE4C701B6010E944E
:1030D000A628181694F46BEB72E0C801DF91CF912B
:1030E0001F910F91FF90EF90DF90CF90BF90AF9026
:1030F0009F908F907F900C94B4162FEF3FEF4FE787
:103100005FECC701B6010E940B2887FDE4CF20E0E9
:1031100030E0A901C701B6010E940B2887FF0AC051
:103120006DE2C8010E94EF16EC01F7FAF094F7F88F
:10313000F09402C0C0E0D0E0B12C60E070E080E02C
:103140009FE37B1441F020E030E040E251E40E9434
:103150001028B394F6CFA70196010E949F276B0118
:103160007C010E9492134B015C012AE0AB01BC017F
:10317000C8010E943017C80FD91F7720C9F1C501B7
:10318000B4010E94C1139B01AC01C701B6010E94AA
:103190009E276B017C016FEB72E0C8010E94B416A0
:1031A000C80FD91F20E030E040E251E4C701B6016A
:1031B0000E9427144B015C010E948B136B017C0160
:1031C0004AE050E0C8010E941118C80FD91FB6018B
:1031D000DD0C880B990B0E94C3139B01AC01C50148
:1031E000B4010E949E276B017C017A947110DACFA2
:1031F000CE01DF91CF911F910F91FF90EF90DF9063
:10320000CF90BF90AF909F908F907F9008950C9437
:103210002A180F931F93CF93DF93EC010E942A1873
:103220008C01CE010E94F616800F911FDF91CF9185
:103230001F910F9108951F920F920FB60F921124B4
:103240002F933F938F939F93AF93BF938091FD07ED
:103250009091FE07A091FF07B09100083091FC0704
:1032600023E0230F2D3720F40196A11DB11D05C0C9
:1032700026E8230F0296A11DB11D2093FC07809321
:10328000FD079093FE07A093FF07B093000880917D
:10329000010890910208A0910308B09104080196DA
:1032A000A11DB11D8093010890930208A09303080B
:1032B000B0930408BF91AF919F918F913F912F914F
:1032C0000F900FBE0F901F9018953FB7F894809104
:1032D000010890910208A0910308B091040826B556
:1032E000A89B05C02F3F19F00196A11DB11D3FBF3E
:1032F000BA2FA92F982F8827820F911DA11DB11DCC
:10330000BC01CD0142E0660F771F881F991F4A95C7
:10331000D1F708958F929F92AF92BF92CF92DF9292
:10332000EF92FF926B017C010E9465194B015C01D9
:10333000C114D104E104F10401F10E944E270E945E
:103340006519DC01CB0188199909AA09BB09883ED6
:103350009340A105B10560F321E0C21AD108E1084C
:10336000F10888EE880E83E0981EA11CB11CC114E0
:10337000D104E104F10419F7DBCFFF90EF90DF9067
:10338000CF90BF90AF909F908F900895789484B520
:10339000826084BD84B5816084BD85B5826085BD51
:1033A00085B5816085BDEEE6F0E080818160808337
:1033B000E1E8F0E01082808182608083808181601A
:1033C0008083E0E8F0E0808181608083E1EBF0E0E1
:1033D000808184608083E0EBF0E080818160808385
:1033E000EAE7F0E08081846080838081826080836E
:1033F0008081816080838081806880831092C10099
:103400000895833081F028F4813099F08230A1F062
:1034100008958730A9F08830B9F08430D1F48091D4
:1034200080008F7D03C0809180008F778093800023
:10343000089584B58F7702C084B58F7D84BD0895CB
:103440008091B0008F7703C08091B0008F7D809312
:10345000B0000895CF93DF9390E0FC01EC56FC4F51
:103460002491FC01E855FC4F8491882361F190E0A0
:10347000880F991FFC01E053FC4FC591D491FC01CA
:10348000EA53FC4FA591B491611109C09FB7F8941C
:103490008881209582238883EC912E230BC0623093
:1034A00061F49FB7F8948881322F30958323888305
:1034B000EC912E2B2C939FBF06C08FB7F894E88118
:1034C0002E2B28838FBFDF91CF9108951F93CF9329
:1034D000DF93282F30E0F901E058FC4F8491F90187
:1034E000EC56FC4FD491F901E855FC4FC491CC2324
:1034F000C1F0162F81110E94011AEC2FF0E0EE0F9F
:10350000FF1FEA53FC4FA591B4919FB7F894111196
:1035100004C08C91D095D82302C0EC91DE2BDC93B3
:103520009FBFDF91CF911F910895FC018081918110
:103530000C94B729CF93DF93EC0188819981009790
:1035400011F00E94B729198218821D821C821B82E9
:103550001A82DF91CF9108950F931F93CF93DF933A
:10356000EC018B016F5F7F4F888199810E94402A17
:10357000009731F0998388831B830A8381E001C01F
:1035800080E0DF91CF911F910F910895CF93DF934A
:10359000EC0188819981892B29F08A819B8186178A
:1035A000970760F4CE010E94AC1A882341F08C8109
:1035B0009D81892B19F4E881F981108281E0DF91E6
:1035C000CF910895EF92FF920F931F93CF93DF93C4
:1035D000EC017B018A01BA010E94C61A811104C064
:1035E000CE010E949A1A07C01D830C83B7018881FF
:1035F00099810E94722BCE01DF91CF911F910F9183
:10360000FF90EF900895FC011182108213821282C4
:10361000158214826115710551F0FB0101900020A3
:10362000E9F73197AF01461B570B0C94E21A089546
:10363000885E9E4FDC018D919C91DC01ED91FC91A7
:103640000480F581E02D0994885E9E4FDC018D9108
:103650009C91DC01ED91FC910190F081E02D0994A9
:10366000885E9E4FDC018D919C91DC01ED91FC9177
:103670000680F781E02D0994885E9E4FDC018D91D4
:103680009C91DC01ED91FC910084F185E02D099481
:10369000885E9E4FDC018D919C91DC01ED91FC9147
:1036A0000284F385E02D0994FC011382128288EED6
:1036B00093E0A0E0B0E084839583A683B78386E29D
:1036C00093E0918380836487DF01A35FBE4F84E131
:1036D00097E011969C938E93129611961C921E92CF
:1036E000129611961C921E92179611961C921E927B
:1036F00015971C9211968FE097E08D939C93EA5E4C
:10370000FE4F8CE097E0918380830895FC01E35F96
:10371000FE4F7183608332965183408332963183AA
:10372000208308950F931F93CF93DF93EC0180E0E4
:1037300090E08C010F5F1F4F8897D8F4E881F981E2
:103740000480F581E02DCE010995892B51F0E881A7
:10375000F9810680F781E02DCE01099500E010E0A7
:10376000EDCF61E070E080E090E00E948A19C8012E
:10377000E0CFDF91CF911F910F910895FF920F93AA
:103780001F93CF93DF93EC018B01F42E0E94921BC9
:1037900068EE74E08FE597E00E94C9166AED74E068
:1037A0008FE597E00E94C916B8018FE597E00E9467
:1037B000C91662E28FE597E00E941E17C85EDE4FD1
:1037C0006CEC74E0888199810E94C916B8018881E7
:1037D00099810E94C91688819981FF2019F068ECAF
:1037E00074E002C065EC74E0DF91CF911F910F91FE
:1037F000FF900C94C9169F92AF92BF92CF92DF9226
:10380000EF92FF920F931F93CF93DF937C01942E3F
:103810008B01000F111F000F111FC0E0D0E05701F6
:1038200088EEA81A8EEFB80A0115110509F450C0E8
:10383000CE3FD10580F06AE174E022C0F5018081BD
:103840009181DC01ED91FC910680F781E02D0995D5
:103850006C018D3069F4D5018D919C91DC01ED9165
:10386000FC910480F581E02D0995892B39F726C05C
:103870008A3059F4209779F3911007C062E174E01F
:103880008FE597E00E94FA1623C0F701EC0FFD1FA9
:10389000C686B601772740E150E08FE597E00E94A9
:1038A000111869EC72E08FE597E00E94ED166C2D1F
:1038B0008FE597E00E941E172196CDCF0150110988
:1038C000E9F261E070E080E090E00E948A19ACCFFC
:1038D000F701EC0FFD1F16868C2FDF91CF911F9102
:1038E0000F91FF90EF90DF90CF90BF90AF909F909F
:1038F00008950F931F93CF93DF93EC018B01BA01CF
:1039000040E00E94FB1B60E274E08FE597E00E94BC
:10391000C9162E96BE018FE597E00E940C17B801DC
:10392000CE010E94292B21E0892B09F020E0822F73
:10393000DF91CF911F910F910895CF93DF93EC0109
:10394000FC01E85EFE4F662331F062E280819181E6
:103950000E941E1704C0808191810E94F616FE010C
:10396000EA5EFE4F6081718140E157E2CE01DF9156
:10397000CF910C94791C0F931F93CF93DF93EC019D
:103980008A0141E00E94BE1BFE01E85EFE4FB801C5
:10399000808191810E94ED1661E0CE01DF91CF918F
:1039A0001F910F910C949D1C0F931F93CF93DF9346
:1039B000EC018A0141E00E94BE1BFE01E85EFE4F61
:1039C000B801808191810E94C91661E0CE01DF912A
:1039D000CF911F910F910C949D1CCF92DF92EF928B
:1039E000FF92CF93DF93EC0169017A0140E00E94DE
:1039F000BE1BFE01E85EFE4F2AE030E0B701A601E3
:103A0000808191810E94C91760E0CE01DF91CF9142
:103A1000FF90EF90DF90CF900C949D1C4F925F929F
:103A20006F927F928F929F92AF92BF92EF92FF928E
:103A30000F931F93CF93DF937C012A013B01480131
:103A400059010E94921B6EEB74E08FE597E00E9493
:103A5000C91661EB74E08FE597E00E94C9162AE071
:103A600030E0B301A2018FE597E00E9479176CE284
:103A70008FE597E00E94EF162AE030E0B501A4013F
:103A80008FE597E00E94B717E701C85EDE4F64EA52
:103A900074E0888199810E94C9162AE030E0B30160
:103AA000A201888199810E94791763ED72E0888173
:103AB00099810E94ED162AE030E0B501A4018881C9
:103AC00099810E94B71740E157E26BE974E0C701A2
:103AD000DF91CF911F910F91FF90EF90BF90AF902A
:103AE0009F908F907F906F905F904F900C94791C77
:103AF000EF92FF920F931F93CF93DF93EC018B0113
:103B00007A010E94921B6BE074E08FE597E00E94BF
:103B1000C916B8018FE597E00E940C17FE01E85E18
:103B2000FE4FB801808191810E940C1740E0B701DF
:103B3000CE010E94FB1B182F64E074E08FE597E034
:103B40000E94C916BE01625F7F4F8FE597E00E9419
:103B50000C17812FDF91CF911F910F91FF90EF9064
:103B60000895EF92FF920F931F93CF93DF93EC0191
:103B70008B017A010E94921B6DEF73E08FE597E055
:103B80000E94C916B8018FE597E00E94FA16FE015F
:103B9000E85EFE4FB801808191810E94FA1640E0F4
:103BA000B701CE010E94FB1B182F66EF73E08FE573
:103BB00097E00E94C916BE01625F7F4F8FE597E0D4
:103BC0000E940C17812FDF91CF911F910F91FF90D1
:103BD000EF9008958F929F92AF92BF92CF92DF9213
:103BE000EF92FF920F931F93CF93DF93EC016B0142
:103BF00049015A010E94921B6FEE73E08FE597E036
:103C00000E94C916B6018FE597E00E94C9162AE006
:103C100030E0B501A4018FE597E00E9418187E01FD
:103C200088EEE81A8EEFF80AB601F70180819181DB
:103C30000E94C9162AE030E0B501A401F701808195
:103C400091810E94181840E0B801CE010E94FB1B30
:103C5000182F68EE73E08FE597E00E94C916BE0149
:103C6000625F7F4F8FE597E00E940C17812FDF91F5
:103C7000CF911F910F91FF90EF90DF90CF90BF9069
:103C8000AF909F908F900895AF92BF92CF92DF92A6
:103C9000EF92FF920F931F93CF93DF93EC016B0191
:103CA0007A0159010E94921B61EE73E08FE597E063
:103CB0000E94C916B6018FE597E00E94C91662E21C
:103CC0008FE597E00E94EF16B7018FE597E00E941D
:103CD000C91662E28FE597E00E941E178E01085E0A
:103CE0001E4FB601F801808191810E94C91662E2DF
:103CF000F801808191810E94EF16B701F80180815F
:103D000091810E94C91662E2F801808191810E942E
:103D10001E1740E0B501CE010E94FB1B182F6AED73
:103D200073E08FE597E00E94C916BE01625F7F4F86
:103D30008FE597E00E940C17812FDF91CF911F91A3
:103D40000F91FF90EF90DF90CF90BF90AF900895CC
:103D50000F931F93CF93DF93EC018A01A9010E9477
:103D6000B11D882341F0B801CE010E960E94292B87
:103D700021E0892B09F020E0822FDF91CF911F9164
:103D80000F910895CF92DF92EF92FF920F931F93BE
:103D9000CF93DF93EC017C0188EEE81A8EEFF80AEE
:103DA000D7016D937C9361E08C850E942A1A61E0B3
:103DB0008C850E94661A6AE070E080E090E00E94C4
:103DC0008A1960E08C850E94661A64E670E080E0E3
:103DD00090E00E948A1961E08C850E94661A6BEE61
:103DE00076E08FE597E00E94FA168EE0C82ED12C7F
:103DF0008E010A5E1E4FF70180819181DC01ED91F9
:103E0000FC910480F581E02D0995892B89F066ED00
:103E100076E08FE597E00E94FA16F70180819181A4
:103E2000DC01ED91FC910680F781E02D0995E3CF4F
:103E3000F8014081518124EF31E063ED76E0CE015D
:103E40000E94A81E811163C0D7018D919C91DC0155
:103E5000ED91FC910480F581E02D0995892B59F0B5
:103E6000F70180819181DC01ED91FC910680F78161
:103E7000E02D0995E9CF24EF31E040ED56E06DECFF
:103E800076E0CE010E94A81E811141C064EF71E06E
:103E900080E090E00E948A19B1E0CB1AD10809F0C5
:103EA000AACF6BE976E08FE597E00E94FA16D80179
:103EB0004D915C9124EF31E068E976E0CE010E94FB
:103EC000A81E64E670E080E090E00E948A19F80184
:103ED0004081518124EF31E065E976E0CE010E9416
:103EE000A81E64E670E080E090E00E948A19D80184
:103EF0004D915C9124EF31E062E976E0CE010E94C1
:103F0000A81E64E670E080E090E00E948A19F80143
:103F10004081518124EF31E06DE876E0CE010E94CE
:103F2000A81E64E670E080E090E00E948A19D80143
:103F30004D915C9124EF31E068E876E0CE010E947B
:103F4000A81ED82E882309F497C0F801408151811A
:103F500024EF31E06EE776E0CE010E94A81E64E611
:103F600070E080E090E00E948A19CE010E94921BCE
:103F700067E776E08FE597E00E94C9166DED72E085
:103F80008FE597E00E940C176DED72E0D7018D91DF
:103F90009C910E940C1741E064EF71E0CE010E94F9
:103FA000FB1B60E776E08FE597E00E94C9168E0163
:103FB000025F1F4FB8018FE597E00E940C1765E67E
:103FC00076E0C8010E943B2B892B11F083E023C0CF
:103FD0006AE576E0C8010E943B2B892B11F082E054
:103FE0001AC06FE476E0C8010E943B2B892B11F0C8
:103FF00081E011C06FE376E0C8010E943B2B892B62
:1040000011F084E008C06FE276E0C8010E943B2B0B
:10401000892B11F085E08D878D85813069F568E207
:1040200076E08FE597E00E94C91661EE72E08FE5B9
:1040300097E00E940C1761EE72E0F7018081918198
:104040000E940C1741E064EF71E0CE010E94FB1B5F
:1040500061E276E08FE597E00E94C916B8018FE52E
:1040600097E00E940C1769E176E0C8010E943B2BA3
:10407000892B11F086E08D878D2DDF91CF911F91D7
:104080000F91FF90EF90DF90CF900895FC01EA5ED2
:10409000FE4F4081518124EF31E06BEF74E00C94CE
:1040A000A81EFC01EA5EFE4F4081518124EF31E001
:1040B0006FEE74E00C94A81E0C9451200F931F9384
:1040C000CF93DF93EC018A01A9010E94781D882318
:1040D00041F0B801CE010E960E94292B21E0892BD8
:1040E00009F020E0822FDF91CF911F910F91089569
:1040F000AF92BF92CF92DF92EF92FF920F931F93F6
:10410000CF93DF93CDB7DEB76E970FB6F894DEBFCF
:104110000FBECDBF8C015B016A01FC01EA5EFE4F60
:104120004081518124EF31E062EE75E00E94A81ECB
:10413000882309F488C08AE0E0EEF1E09E012F5F59
:104140003F4F7901D90101900D928A95E1F7FE0167
:104150003B9684E1DF011D928A95E9F743E150E047
:10416000B501CE010A960E94822BF7010190002032
:10417000E9F7319782E2808324EF31E04FED55E09B
:10418000B701C8010E945E20882309F45CC06CED71
:1041900075E08FE597E00E94C916B6018FE597E0BC
:1041A0000E940C17B6017801B8EEEB1ABEEFFB0ABD
:1041B000F701808191810E940C17D7018D919C910C
:1041C0000E94F616F70180819181DC01ED91FC914E
:1041D0000190F081E02D6AE109956AEF72E08FE5C8
:1041E00097E00E940C17F80185858450823060F4B6
:1041F00040E068EC70E0C8010E94FB1B40E068EC06
:1042000070E0C8010E94FB1B40E060E177E2C8015A
:104210000E94FB1B7801FEE0EF0EF11C6DEF72E0D7
:10422000C7010E94912B892B71F040E068EE73E08A
:10423000C8010E94FB1B60ED72E0C7010E94692B60
:1042400021E0892B09F020E0822F6E960FB6F894BA
:10425000DEBF0FBECDBFDF91CF911F910F91FF90B9
:10426000EF90DF90CF90BF90AF900895CF92DF9204
:10427000EF92FF920F931F93CF93DF93EC016801AE
:1042800087010E94EA1DB601CE010E960E94292BDD
:1042900021E0892B09F020E0822FDF91CF911F913F
:1042A0000F91FF90EF90DF90CF900895EF92FF92E3
:1042B0000F931F93FC01EA5EFE4F00811181262FB0
:1042C00030E040E050E064EFE62EFF24F3946FE42A
:1042D00074E00E9436211F910F91FF90EF90089596
:1042E0000F931F93CF93DF93EC018B010E9451201A
:1042F000CE010E944620811102C080E038C021E03A
:1043000030E040E050E064E374E0CE010E94ED1C38
:10431000882399F3FE01EC5EFE4F4081518161E3F9
:1043200074E0CE010E94D41C882339F3A8016DE209
:1043300074E0CE010E94BB1C8823F9F2FE01ED5E01
:10434000FE4F9081992399F021E030E040E050E069
:1043500067E274E0CE010E94ED1C882371F261E0F7
:10436000CE01DF91CF911F910F910C945621DF91D7
:10437000CF911F910F910895EF92FF920F931F938A
:10438000CF93DF93EC01790198010E94441EB7019D
:10439000CE010E960E94292B21E0892B09F020E006
:1043A000822FDF91CF911F910F91FF90EF90089591
:1043B0008F929F92AF92BF92CF92DF92EF92FF9235
:1043C0000F931F93CF93DF93EC0120E23EE466232B
:1043D00009F40FC144ED55E069EC75E00E94A81E98
:1043E0007E018AEEE81A8EEFF80AF70140815181CA
:1043F00020E137E26EEB75E0CE010E94A81E882313
:1044000009F424C1F7014081518120E137E260EADB
:1044100075E0CE010E94A81E882309F417C14E0141
:10442000F3EF8F1AFEEF9F0AF4014081518141158D
:104430005105A9F4F7014081518120E335E76BE391
:1044400075E0CE010E94A81E882309F4FFC0F70181
:104450004081518120E137E262E375E0E8C0F70175
:104460002081318100E117E26CE875E0CE010E9405
:10447000BC21882309F4EAC0CE010E94921B8E0160
:10448000085E1E4F62E875E0F801808191810E940C
:10449000C916F40160817181F801808191810E94C7
:1044A000C9165E01F1EFAF1AFEEFBF0AF501808178
:1044B0009181892B79F06EE173E0F801808191811F
:1044C0000E94ED16F50160817181F8018081918172
:1044D0000E94C9166E01FFEECF1AFEEFDF0AF60149
:1044E00080819181892B79F06EE173E0F801808100
:1044F00091810E94ED16F60160817181F801808141
:1045000091810E94C91660E273E0F8018081918177
:104510000E940C176BE775E08FE597E00E94C916C3
:1045200061E775E08FE597E00E94C916F4016081AC
:1045300071818FE597E00E94C916F5018081918114
:10454000892B69F06EE173E08FE597E00E94ED162C
:10455000F501608171818FE597E00E94C916F6012F
:1045600080819181892B69F06EE173E08FE597E09E
:104570000E94ED16F601608171818FE597E00E943F
:10458000C91660E273E08FE597E00E940C17F7010F
:104590006081718140E157E2CE010E94791C88233D
:1045A00009F454C0F501408151814115510539F498
:1045B000F601408151814115510571F43BCFF7015E
:1045C0002081318100E117E26CE575E0CE010E94A7
:1045D000BC218111EDCF3AC0F7012081318100E18A
:1045E00017E268E475E0CE010E94BC21811122CF60
:1045F0002DC04AE255E06FE175E00E94A81E8823B5
:1046000029F18E010A5E1E4FF8014081518120E19F
:1046100037E262E175E0CE010E94A81E8823B1F066
:10462000F8014081518120E137E267E075E0CE0179
:10463000DF91CF911F910F91FF90EF90DF90CF907E
:10464000BF90AF909F908F900C94A81E80E0DF9158
:10465000CF911F910F91FF90EF90DF90CF90BF907F
:10466000AF909F908F900895AF92BF92CF92DF92BC
:10467000EF92FF920F93CF93DF935B016A01E22EDB
:104680000E960E943B2BEC01892BC1F0C5010E94C4
:10469000322B8C0F9D1FC0E0F12CC01741F0B701E9
:1046A0000E945E2B009751F00196CF5FF6CF0E94DB
:1046B0000B2BF6019183808381E001C080E0DF91C4
:1046C000CF910F91FF90EF90DF90CF90BF90AF9080
:1046D0000895EF92FF920F93CF93DF93EC017B014C
:1046E00044EF51E066E674E00E94B11D00E02CE268
:1046F000A7016BE574E0CE010E943423DF91CF91D6
:104700000F91FF90EF9008954F925F926F927F927A
:10471000AF92BF92CF92DF92EF92FF920F931F93CF
:10472000CF93DF93EC015A01690127013801FC01A5
:10473000EA5EFE4F00811181262F30E040E050E01C
:1047400084EFE82EFF24F3946CE874E0CE010E941D
:104750003621811102C080E017C040E0B201CE01D5
:104760000E94FB1B01E02CE2A5016FE774E0CE0183
:104770000E943423882379F302E02CE2A60162E749
:1047800074E0CE010E943423DF91CF911F910F91ED
:10479000FF90EF90DF90CF90BF90AF907F906F90A1
:1047A0005F904F9008954F925F926F927F928F9299
:1047B0009F92AF92BF92CF92DF92EF92FF920F93B0
:1047C0001F93CF93DF93EC012A0139014801570170
:1047D0000E947021882309F471C0A20167E474E08B
:1047E000CE010E94D41C882309F468C0A80160E0AF
:1047F00070E000E117E220E030E0CE010E940E1DE3
:10480000882309F45BC0FE01E85EFE4F8081918140
:10481000DC01ED91FC910280F381E02DA401B30154
:104820000995FE01EA5EFE4F6081718140E157E229
:10483000CE010E94791C882309F440C010E1E12ECA
:1048400017E2F12E00E010E09601A50161E0CE0133
:104850000E948423882391F16EE374E08FE597E052
:104860000E94C916F501608171814AE050E08FE530
:1048700097E00E94A51768E374E08FE597E00E9437
:10488000C916D6016D917C914AE050E08FE597E022
:104890000E94A517B601CE01DF91CF911F910F9114
:1048A000FF90EF90DF90CF90BF90AF909F908F9050
:1048B0007F906F905F904F900C94692380E0DF9120
:1048C000CF911F910F91FF90EF90DF90CF90BF900D
:1048D000AF909F908F907F906F905F904F900895D2
:1048E000AF92BF92CF92DF92EF920F931F93CF932D
:1048F000DF93EC016A015901102F0E2D44EF51E0B6
:104900000E94B11D212FA501B601CE010E943423C2
:10491000182F882331F040E064EF71E0CE010E944F
:10492000FB1B812FDF91CF911F910F91EF90DF90B3
:10493000CF90BF90AF900895EF920F939B01EE241C
:10494000E3940CE242E156E06BE076E00E947024D2
:104950000F91EF900895EF920F93CF93DF9300D0D4
:10496000CDB7DEB7EE24E3940CE29E012F5F3F4FFC
:1049700043E056E06AEF75E00E947024882311F04E
:10498000898101C080E00F900F90DF91CF910F914E
:10499000EF900895EF920F93CF93DF9300D0CDB7B0
:1049A000DEB7E12C0CE29E012F5F3F4F43EF55E055
:1049B0006CEE75E00E947024882311F0898101C09B
:1049C00080E00F900F90DF91CF910F91EF900895BD
:1049D000209147083091480828173907B9F4909179
:1049E000050880910608981789F0E0910508F0E025
:1049F000E95FF74F80812091050830E02F5F3F4F3E
:104A00002F7333272093050890E008958FEF9FEFD1
:104A100008951F93CF93DF93DC015C968D919C9159
:104A20005D97009739F421E030E013963C932E9384
:104A300012973BC05196ED91FC91529750962C9154
:104A40005097322F30951FB75E964C915E97742F1A
:104A5000727041FD6095F8944081772311F0422BEC
:104A600001C043234083EC012197F1F748E05081D6
:104A700060FF02C0522B01C053235083EC012197E9
:104A8000F1F76695415099F78081772319F08323D8
:104A9000808302C0282B20831FBF5C968D919C9140
:104AA0005D970197F1F781E090E0DF91CF911F9141
:104AB000089508952091470830914808281739072C
:104AC00071F49091050880910608981741F0E091E3
:104AD0000508F0E0E95FF74F808190E008958FEFDF
:104AE0009FEF08952091470830914808281739070B
:104AF00071F4809106082091050890E0805C9F4F3A
:104B0000821B910960E470E00E94B028089580E063
:104B100090E00895E0914708F0914808E817F907F8
:104B200069F4A389B4899C918589809589238C93A4
:104B3000109248081092470881E0089580E0089597
:104B4000CF93DF93EC018A8D9B8D892BF1F08091BF
:104B5000470890914808C817D907B9F0009711F095
:104B60000E948A258E8D8E7F8E8F1092060810925D
:104B70000508D0934808C0934708EB89FC899081C9
:104B80008D89892B808381E001C080E0DF91CF9106
:104B900008951F920F920FB60F9211242F933F93F7
:104BA0004F935F936F937F938F939F93AF93BF9335
:104BB000EF93FF93E0914708F0914808309709F48C
:104BC00051C0968DA685B785858591FF04C09C91BF
:104BD000892329F447C09C91892309F043C0A38904
:104BE000B4899C918589809589238C93868997893E
:104BF0000197F1F7608D718DA685B785558538E0F1
:104C000020E0CB010197F1F7822F90E095958795F1
:104C1000282F4C91452309F02068315091F7868D5B
:104C200081FD20958091060890E001968F73992769
:104C300030910508381749F0A0910608B0E0A95F47
:104C4000B74F2C938093060803C0868D8160868FB2
:104C5000828D938D0197F1F7A389B4899C91858901
:104C6000892B8C93FF91EF91BF91AF919F918F9181
:104C70007F916F915F914F913F912F910F900FBE58
:104C80000F901F9018951F93CF93DF93EC01162F71
:104C90006E8D6695617081E06827812F0E94661A8B
:104CA00061E0812F0E942A1A812F90E0FC01EC56CE
:104CB000FC4FE491E88BFC01E855FC4FE491F0E0F7
:104CC000EE0FFF1FEA53FC4F859194919A8B898BCD
:104CD000DF91CF911F9108951F93CF93DF93EC0144
:104CE000162F60E0812F0E942A1A8E8D81FD04C04C
:104CF00061E0812F0E94661A1C87812F90E0FC01E1
:104D0000EC56FC4FE491ED87FC01E855FC4FE49133
:104D1000F0E0EE0FFF1FE454FC4F859194919F87C4
:104D20008E87DF91CF911F9108951F93CF93DF93CB
:104D3000EC01162F1B821A8288EE93E0A0E0B0E00F
:104D40008C839D83AE83BF8386E393E099838883BE
:104D50001F8A1E8A198E188E1B8E1A8E1D8E1C8E0F
:104D60008E8D8E7F20FB81F98E8F642FCE010E9465
:104D70004326612FCE01DF91CF911F910C946C26B9
:104D8000CF93DF93EC019A01AB011B8E1A8E198E23
:104D9000188E1F8A1E8A60E079E08DE390E00E9401
:104DA000E628F9012430310518F0C901039702C043
:104DB00081E090E09D8F8C8F6C85663108F069C032
:104DC000C901969587958431910510F0439702C0EB
:104DD00081E090E09F8B8E8B369718F0C901059784
:104DE00002C081E090E0998F888FC901880F991FD8
:104DF000280F391F36952795369527952D30310583
:104E000018F02C50310902C021E030E03B8F2A8F8E
:104E100090916800683050F021E06E3008F420E096
:104E200081E001C0880F2A95EAF701C084E0892B50
:104E3000809368009C85983038F09E3040F0963121
:104E400048F020E030E008C02DE630E005C02BE659
:104E500030E002C02CE630E03C8B2B8B983030F4F5
:104E600081E001C0880F9A95EAF70EC0292F30E043
:104E70009E3018F42850310902C02E50310981E0CB
:104E800001C0880F2A95EAF78D8B8C8D9D8D019737
:104E9000F1F7CE01DF91CF910C94A02508950895EC
:104EA0001F920F920FB60F9211242F933F934F939F
:104EB0005F936F937F938F939F93AF93BF93EF9382
:104EC000FF93E0910D01F0910E010995FF91EF9193
:104ED000BF91AF919F918F917F916F915F914F9112
:104EE0003F912F910F900FBE0F901F9018951F921A
:104EF0000F920FB60F9211242F933F934F935F930E
:104F00006F937F938F939F93AF93BF93EF93FF9391
:104F1000E0910F01F09110010995FF91EF91BF9180
:104F2000AF919F918F917F916F915F914F913F9141
:104F30002F910F900FBE0F901F9018955058BB27C0
:104F4000AA270E94B6270C94AB140E949D1438F037
:104F50000E94A41420F039F49F3F19F426F40C9415
:104F60009A140EF4E095E7FB0C949414E92F0E9438
:104F7000FE1358F3BA17620773078407950720F0EA
:104F800079F4A6F50C9420140EF4E0950B2EBA2FAC
:104F9000A02D0B01B90190010C01CA01A00111243F
:104FA000FF27591B99F0593F50F4503E68F11A16EB
:104FB000F040A22F232F342F4427585FF3CF46957C
:104FC00037952795A795F0405395C9F77EF41F169E
:104FD000BA0B620B730B840BBAF09150A1F0FF0F68
:104FE000BB1F661F771F881FC2F70EC0BA0F621F54
:104FF000731F841F48F4879577956795B795F79544
:105000009E3F08F0B0CF9395880F08F09927EE0FD8
:105010009795879508950E94822808F481E0089565
:105020000E9424280C94AB140E94A41458F00E94EF
:105030009D1440F029F45F3F29F00C949414511111
:105040000C9421140C949A140E94FE1368F3992373
:10505000B1F3552391F3951B550BBB27AA27621774
:105060007307840738F09F5F5F4F220F331F441F81
:10507000AA1FA9F335D00E2E3AF0E0E832D09150B5
:105080005040E695001CCAF72BD0FE2F29D0660FA2
:10509000771F881FBB1F261737074807AB07B0E8E5
:1050A00009F0BB0B802DBF01FF2793585F4F3AF0EB
:1050B0009E3F510578F00C9494140C9421145F3F9A
:1050C000E4F3983ED4F3869577956795B795F79571
:1050D0009F5FC9F7880F911D9695879597F9089559
:1050E000E1E0660F771F881FBB1F621773078407F5
:1050F000BA0720F0621B730B840BBA0BEE1F88F704
:10510000E0950895990F0008550FAA0BE0E8FEEF0F
:1051100016161706E807F907C0F012161306E4077B
:10512000F50798F0621B730B840B950B39F40A2674
:1051300061F0232B242B252B21F408950A2609F452
:10514000A140A6958FEF811D811D08950E948228A0
:1051500008F48FEF08950E948228880B990B089518
:1051600097FB072E16F4009407D077FD09D00E9414
:105170000B2907FC05D03EF4909581959F4F08952B
:10518000709561957F4F0895A1E21A2EAA1BBB1B53
:10519000FD010DC0AA1FBB1FEE1FFF1FA217B30703
:1051A000E407F50720F0A21BB30BE40BF50B661F19
:1051B000771F881F991F1A9469F7609570958095DD
:1051C00090959B01AC01BD01CF010895052E97FB81
:1051D0001EF400940E94FD2857FD07D00E94C428A9
:1051E00007FC03D04EF40C94FD2850954095309563
:1051F00021953F4F4F4F5F4F089590958095709543
:1052000061957F4F8F4F9F4F0895EE0FFF1F0590C1
:10521000F491E02D0994AA1BBB1B51E107C0AA1F02
:10522000BB1FA617B70710F0A61BB70B881F991F47
:105230005A95A9F780959095BC01CD0108950F93DB
:105240001F93CF93DF938230910510F482E090E0BA
:10525000E0914B08F0914C0820E030E0A0E0B0E095
:10526000309719F140815181028113814817590704
:10527000C8F08417950769F4109731F012960C93D3
:10528000129713961C9327C000934B0810934C0859
:1052900022C02115310519F04217530718F49A015D
:1052A000BD01EF01DF01F801DBCF21153105F9F078
:1052B000281B390B2430310580F48A819B816115CC
:1052C000710521F0FB019383828304C090934C0805
:1052D00080934B08FE01329644C0FE01E20FF31F9B
:1052E0008193919322503109398328833AC02091C8
:1052F000490830914A08232B41F42091090130914B
:105300000A0130934A0820934908209107013091FF
:1053100008012115310541F42DB73EB740910B012D
:1053200050910C01241B350BE0914908F0914A087B
:10533000E217F307A0F42E1B3F0B2817390778F06C
:10534000AC014E5F5F4F2417350748F04E0F5F1FCB
:1053500050934A08409349088193919302C0E0E03A
:10536000F0E0CF01DF91CF911F910F910895CF937E
:10537000DF93009709F481C0FC01329713821282F7
:10538000A0914B08B0914C08109781F42081318195
:10539000820F931F2091490830914A082817390736
:1053A00051F5F0934A08E093490867C0ED0120E009
:1053B00030E0CE17DF0740F44A815B819E01411542
:1053C0005105F1F0EA01F5CFD383C28340815181C9
:1053D000840F951FC817D90759F488819981840FC4
:1053E000951F0296918380838A819B819383828318
:1053F0002115310529F4F0934C08E0934B083DC08A
:10540000E901FB83EA8349915991C40FD51FEC1739
:10541000FD0761F480819181840F951F0296E90157
:1054200099838883828193819B838A83E0E0F0E083
:1054300012968D919C911397009719F0FD01DC0154
:10544000F7CF8D919C9111979D012E5F3F4F820F59
:10545000931F2091490830914A082817390769F4A9
:10546000309729F410924C0810924B0802C0138216
:105470001282B0934A08A0934908DF91CF91089512
:10548000A0E0B0E0E6E4FAE20C94B72BEC01009760
:1054900021F4CB010E941F29B4C0FC01E60FF71FC5
:1054A0009C0122503109E217F30708F4A8C0D90182
:1054B0000D911C91119706171707B0F005301105D3
:1054C00008F49BC0C80104978617970708F495C095
:1054D00002501109061B170B019311936D937C93D6
:1054E000CF010E94B72989C05B01A01AB10A4C0103
:1054F000800E911EA0914B08B0914C08612C712C2C
:10550000E12CF12C109709F446C08D919C911197D4
:10551000A815B905B1F56C0142E0C40ED11CCA143E
:10552000DB0478F14C018A189B08640142E0C40E48
:10553000D11C1296BC9012971396AC91B5E0CB1685
:10554000D10440F0B282A38391828082D9016D930D
:105550007C9309C00E5F1F4F800F911FF90191834B
:105560008083EB2DFA2FE114F10431F0D70113966B
:10557000FC93EE93129741C0F0934C08E0934B08D4
:105580003CC06816790608F43C017D0112960D9026
:10559000BC91A02DB7CF8091490890914A088816F8
:1055A0009906E1F466167706C8F480910701909198
:1055B0000801009741F48DB79EB740910B015091BF
:1055C0000C01841B950BE817F907C8F4F0934A08FF
:1055D000E0934908F901718360830FC0CB010E94F9
:1055E0001F297C01009759F0A801BE010E94552B8C
:1055F000CE010E94B729C70104C0CE0102C080E0DD
:1056000090E0CDB7DEB7EEE00C94D32B81E090E0D4
:10561000F8940C94EA2BFC0188279927E8942191AF
:105620002032E9F3293010F02E30C8F32B3241F04C
:105630002D3239F4689404C00E94AB2B820F911D67
:10564000219120532A30C0F31EF4909581959F4FED
:105650000895FB01DC018D91059080190110D9F3AB
:10566000990B0895FC0105900020E9F7809590952D
:105670008E0F9F1F0895FB0155915523A9F0BF017F
:10568000DC014D9145174111E1F759F4CD01059029
:10569000002049F04D9140154111C9F3FB01411122
:1056A000EFCF81E090E001970895FB01DC0102C09B
:1056B00001900D9241505040D8F70895FC0181911E
:1056C000861721F08823D9F7992708953197CF01BC
:1056D0000895FB01DC018D91019080190110D9F32F
:1056E000990B0895FB01DC0101900D920020E1F778
:1056F0000895FC0101900020E9F7809590958E0FA8
:105700009F1F0895FB01DC014150504048F001907B
:105710000D920020C9F701C01D9241505040E0F7A2
:105720000895FB0151915523A9F0BF01DC014D9172
:1057300045174111E1F759F4CD010190002049F0DE
:105740004D9140154111C9F3FB014111EFCF81E0AB
:1057500090E0019708957AE0979F902D879F802D84
:10576000910D112408952F923F924F925F926F9264
:105770007F928F929F92AF92BF92CF92DF92EF92E1
:10578000FF920F931F93CF93DF93CDB7DEB7CA1B62
:10579000DB0B0FB6F894DEBF0FBECDBF09942A888D
:1057A000398848885F846E847D848C849B84AA8435
:1057B000B984C884DF80EE80FD800C811B81AA81C2
:1057C000B981CE0FD11D0FB6F894DEBF0FBECDBF8D
:1057D000ED01089513E0C1E9D3E004C0FE010E9489
:0E57E00005292196C239D107C9F7F894FFCFE9
:1057EE000101010501AA0000004D0820004F274FBE
:1057FE00270A0B0C0D12130E0F1011121314150A8B
:10580E000B0C3230313830333031313831373136AC
:10581E00000A0B0C0D12130E0F1011121314150A91
:10582E000B0C2B343437393638393838313439009B
:10583E0000000000000000687474703A2F2F63613E
:10584E0072732E6B68756464616D2E6F72672E7540
:10585E006B2F646F2E706870000A0B0C0D12130EF6
:10586E000F1011121314150A0B0C4D6F64756C6525
:10587E0020696E697469616C6973656420776974F7
:10588E00682069642000004C6F6F70696E6700417C
:10589E00542B4350494E3D0000000000004154443B
:1058AE0000000000000000000000000000000000EA
:1058BE0000000000000000000000000000000000DA
:1058CE0041542B434D47533D220000000000000081
:1058DE000000000000000000000000000000415425
:1058EE002B435553443D312C220000000000000094
:1058FE0000000000000000000000000041542B4397
:10590E0047415554483D312C312C220000000000F7
:10591E000000000000000000000000000000000079
:10592E000000000000000000000000000000000069
:10593E000000000000000000000000000000000059
:10594E000000000000000000000000000000000049
:10595E000000000000000000000000000000000039
:10596E000000000031106B10B410CC10F8101F1195
:10597E0000000000BC148A16BC14BC14BC14BC1469
:10598E00000000001B158A16BE14D814CA14621526
:10599E000D0A006E616E00696E66006F7666002EEF
:1059AE000000000000BC148A16230053454E44200C
:1059BE004F4B002C002B43434C4B3A200041544993
:1059CE000041542B474D4D0053544154453A20430A
:1059DE004F4E4E454354204F4B005E5A002B434DC5
:1059EE0047530041542B434D47443D303030004126
:1059FE00542B434750534F55543D30303000222CDA
:105A0E00220000000000241B8A16181B301B3C1BB2
:105A1E00481B0000000009258A167225E8245A2525
:025A2E005925F8
:00000001FF
