:100000000C9429040C9451040C9451040C94221F58
:100010000C94221F0C94221F0C9451040C94510434
:100020000C9451040C9451040C9451040C945104FC
:100030000C9451040C9451040C9451040C945104EC
:100040000C94C51B0C9451040C94A8190C94DA1947
:100050000C9451040C9451040C9451040C945104CC
:100060000C94BB100C945104093C2D2D2D2000093B
:100070002D2D2D3E2000093C2D2D2D2000092D2D4C
:100080002D3E2000535041434500093C2D2D2D208D
:100090000041542B43474154543D300041542B53AD
:1000A000415042523D302C310041542B4349505372
:1000B0004855540053485554204F4B0041542B434E
:1000C000494943520041542B53415042523D312C37
:1000D000310041542B53415042523D332C312C229C
:1000E000505744222C0041542B53415042523D332F
:1000F0002C312C2255534552222C0041542B435372
:1001000054543D2200092D2D2D3E200041542B43F7
:100110005354543D220041542B53415042523D33DD
:100120002C312C2241504E222C0041542B53415053
:1001300042523D332C312C22434F4E5459504522CC
:100140002C2247505253220041542B4347415454D0
:100150003D310041542B43495053485554005348B6
:100160005554204F4B0041542B435245473F002BE1
:10017000435245473A200041542B435245473F00E4
:100180002B435245473A200041542B435351002BF7
:100190004353513A200041542B435351002B4353B6
:1001A000513A200053494D3830382052313400093B
:1001B0003C2D2D2D2000092D2D2D3E200041544594
:1001C000300041544530004154204661696C2E2E68
:1001D0002E206C6173742064697463682061747488
:1001E000656D70742E00415400415400415400412B
:1001F0005400415400415400417474656D70746939
:100200006E6720746F206F70656E20636F6D6D2058
:100210007769746820415473004F4B00464F4E413C
:100220006E6574004572726F723D00207C20005430
:10023000656D703D00207C200043757272656E74A0
:100240003D00207C200050562D563D00207C200093
:10025000426174742D563D005253534920457272C9
:100260006F723F3D00207C20002C204572726F721F
:100270003D002C205374617475733D004E65747796
:100280006F726B2D52656720526573436F64653DD5
:1002900000207C20004245523D00207C200052532B
:1002A00053493D004142434445464748494A4B4C27
:1002B0004D4E4F505152535455565758595A6162EA
:1002C000636465666768696A6B6C6D6E6F70717286
:1002D000737475767778797A3031323334353637CE
:1002E00038392B2F004265686176696F7572004E50
:1002F0006F772077616974696E6720666F7220611D
:10030000207768696C65206265666F726520636836
:1003100065636B696E67207369676E616C00496E17
:10032000697469616C6973696E67206D6F64756C5F
:100330006520746F2073656E64206461746100547D
:10034000616B696E672072656164696E67732E2EDA
:100350002E004572726F7220696E697469616C69F2
:1003600073696E6720677072732E2E2E00496E6956
:100370007469616C6973696E6720677072732E2E81
:100380002E004572726F7220696E697469616C69C2
:1003900073696E6720666F6E612E2E2E00496E693E
:1003A0007469616C6973696E6720666F6E612E2E69
:1003B0002E005374617274696E672E2E2E007E7E3D
:1003C0007E7E7E7E7E7E7E7E7E7E7E7E7E204578EA
:1003D00074656E6465642054797065732054657328
:1003E0007420436F6D706C6574657E7E7E7E7E7E4C
:1003F0007E7E7E7E7E7E7E7E7E7E002A2A2A20541F
:10040000454D50204641494C202A2A2A002A2A2AB2
:10041000205056204641494C202A2A2A002A2A2ABE
:1004200020455252204641494C202A2A2A002A2A95
:100430002A204454204641494C202A2A2A002A2AAC
:100440002A2043555252204641494C202A2A2A004C
:100450002A2A2A2042415454204641494C202A2A23
:100460002A00466972737420506172736564205269
:10047000656164696E673A002A2A2A205245414420
:10048000204E554D204641494C202A2A2A004753E8
:100490004D205061796C6F616420546F204265205B
:1004A00053656E74204F766572205765623A00542A
:1004B00065737420466F72205072696E74204F7598
:1004C000747075743A002A2A2A204E4554524547C2
:1004D000204641494C20403130202A2A2A002A2A2D
:1004E0002A204E4554524547204641494C20403928
:1004F000202A2A2A002A2A2A204E455452454720DB
:100500004641494C204038202A2A2A002A2A2A20FB
:100510004E4554524547204641494C204037202AF9
:100520002A2A002A2A2A204E45545245472046416D
:10053000494C204036202A2A2A002A2A2A204E45C1
:1005400054524547204641494C204035202A2A2A0A
:10055000002A2A2A204E4554524547204641494CFC
:10056000204034202A2A2A002A2A2A204E45545282
:100570004547204641494C204033202A2A2A002A58
:100580002A2A204E4554524547204641494C204096
:1005900032202A2A2A002A2A2A204E455452454728
:1005A000204641494C204031202A2A2A00436173C9
:1005B00074206261636B20616674657220696E7479
:1005C0002073746F726167652076616C3A004E65C6
:1005D00074737461742035202B20526573756C74AC
:1005E000436F64652031202B204572726F72203179
:1005F0003D002A2A2A20434D50205445535420467A
:1006000041494C204036202A2A2A002A2A2A2043FF
:100610004D502054455354204641494C20403520EC
:100620002A2A2A002A2A2A20434D5020544553546E
:10063000204641494C204034202A2A2A002A2A2ACE
:1006400020434D502054455354204641494C2040AE
:1006500033202A2A2A002A2A2A20434D5020544592
:100660005354204641494C204032202A2A2A002A4D
:100670002A2A20434D502054455354204641494C8A
:10068000204031202A2A2A002A2A2A2044454320B1
:100690004C454E204641494C204032202A2A2A000F
:1006A0002A2A2A20444543204C454E204641494CA5
:1006B000204031202A2A2A002A2A2A20454E432077
:1006C0004C454E204641494C204032202A2A2A00DF
:1006D0002A2A2A20454E43204C454E204641494C6B
:1006E000204031202A2A2A002A2A2A205354522024
:1006F000444543204641494C204034202A2A2A00C0
:100700002A2A2A2053545220444543204641494C2A
:10071000204033202A2A2A002A2A2A2053545220F1
:10072000444543204641494C204032202A2A2A0091
:100730002A2A2A2053545220444543204641494CFA
:10074000204031202A2A2A002A2A2A2053545220C3
:10075000454E43204641494C204035202A2A2A0054
:100760002A2A2A2053545220454E43204641494CC0
:10077000204034202A2A2A002A2A2A205354522090
:10078000454E43204641494C204033202A2A2A0026
:100790002A2A2A2053545220454E43204641494C90
:1007A000204032202A2A2A002A2A2A205354522062
:1007B000454E43204641494C204031202A2A2A00F8
:1007C0002A2A2A20494E5420454E43204641494C6E
:1007D000204032202A2A2A002A2A2A20494E542040
:1007E000454E43204641494C204031202A2A2A00C8
:1007F00000000008000201000003040700000000E0
:1008000000000000010204081020408001020408DA
:100810001020010204081020040404040404040449
:1008200002020202020203030303030300000000AA
:1008300023002600290000000000250028002B00CE
:1008400000000000240027002A00C30E51130A1ADA
:10085000D30E11241FBECFEFD8E0DEBFCDBF12E014
:10086000A0E0B1E0E6E7F7E402C005900D92AE38F3
:10087000B107D9F725E0AEE8B2E001C01D92AF366E
:10088000B207E1F714E0C8E2D4E004C02197FE010A
:100890000E941D21C532D107C9F70E94381A0C9455
:1008A000AE230C940000835E9E4FDC018D919C91E1
:1008B000DC01ED91FC910480F581E02D0994835ECB
:1008C0009E4FDC018D919C91DC01ED91FC9101909A
:1008D000F081E02D0994835E9E4FDC018D919C9107
:1008E000DC01ED91FC910680F781E02D0994835E97
:1008F0009E4FDC018D919C91DC01ED91FC91008477
:10090000F185E02D0994835E9E4FDC018D919C91D1
:10091000DC01ED91FC910284F385E02D0994CF92E6
:10092000DF92EF92FF920F931F93CF93DF9300D04C
:1009300000D000D0CDB7DEB78C01C62ED42EFC017E
:100940001382128288EE93E0A0E0B0E08483958366
:10095000A683B7838AE391E09183808383E08687CF
:100960007801FBEEEF1AFEEFFF0A60E772E0C701C5
:100970000E94CA1DF801C486D586E25FFE4F8CE155
:1009800092E0918380833296118210823296118296
:1009900010823B9611821082399781E0808367E054
:1009A00071E0CE0101960E94CA1DBE016F5F7F4FAC
:1009B000C7010E94351ECE0101960E945C1DF80100
:1009C000E55EFE4F89E192E09183808326960FB623
:1009D000F894DEBF0FBECDBFDF91CF911F910F9175
:1009E000FF90EF90DF90CF9008958B5E9E4F0C9418
:1009F000151E0F931F93CF93DF93EC0180E090E0DF
:100A00008C010F5F1F4F8897D8F4E881F98104802B
:100A1000F581E02DCE010995892B51F0E881F9810E
:100A20000680F781E02DCE01099500E010E0EDCFC2
:100A300061E070E080E090E00E94341CC801E0CFEB
:100A4000DF91CF911F910F910895BF92CF92DF92C6
:100A5000EF92FF920F931F93CF93DF937C01B42EFD
:100A60008B01000F111F000F111FC0E0D0E06701C4
:100A700083EEC81A8EEFD80A01151105C9F1CE3FD1
:100A8000D10598F064E870E081E894E00E94B91A1A
:100A90002FC0F60180819181DC01ED91FC910680EF
:100AA000F781E02D09958D3069F4D6018D919C91E7
:100AB000DC01ED91FC910480F581E02D0995892BF5
:100AC00041F70CC08A3021F4209779F3BB2081F0E4
:100AD000F701EC0FFD1F87872196E7CF0150110921
:100AE00039F061E070E080E090E00E94341CC4CFF7
:100AF000F701EC0FFD1F17868C2FDF91CF911F910F
:100B00000F91FF90EF90DF90CF90BF9008950F93DB
:100B10001F93CF93DF93EC018B01BA0140E00E9459
:100B200025056AE870E081E894E00E94881A2F9613
:100B3000BE0181E894E00E94CB1AB801CE010E9468
:100B4000282321E0892B09F020E0822FDF91CF912B
:100B50001F910F910895EF92FF920F931F93CF93E0
:100B6000DF93EC018B017A010E94F9046DE770E0DC
:100B700081E894E00E94881AB80181E894E00E941C
:100B8000B91AFE01E35EFE4FB801808191810E9497
:100B9000B91A40E0B701CE010E942505182F66E77B
:100BA00070E081E894E00E94881ABE01615F7F4F87
:100BB00081E894E00E94CB1A812FDF91CF911F91A1
:100BC0000F91FF90EF900895AF92BF92CF92DF9276
:100BD000EF92FF920F931F93CF93DF93EC016B0182
:100BE0007A0159010E94F9046FE670E081E894E00F
:100BF0000E94881AB60181E894E00E94881A62E295
:100C000081E894E00E94AE1AB70181E894E00E9466
:100C1000881A62E281E894E00E94DD1A8E01035E88
:100C20001E4FB601F801808191810E94881A62E20C
:100C3000F801808191810E94AE1AB701F80180818C
:100C400091810E94881A62E2F801808191810E945C
:100C5000DD1A40E0B501CE010E942505182F68E697
:100C600070E081E894E00E94881ABE01615F7F4FC6
:100C700081E894E00E94CB1A812FDF91CF911F91E0
:100C80000F91FF90EF90DF90CF90BF90AF900895BD
:100C90000F931F93CF93DF93EC018A01A9010E9468
:100CA000AB05882341F0B801CE010F960E9428239E
:100CB00021E0892B09F020E0822FDF91CF911F9155
:100CC0000F910895CF92DF92EF92FF920F931F93AF
:100CD000CF93DF93EC01F62EE42E8FE190E00E949B
:100CE000471A8C0120E04E2D6F2D0E94EE1F7E01D1
:100CF00083EEE81A8EEFF80AD7010D931C9340ECAF
:100D000052E160E070E0C8010E94192061E08C852A
:100D10000E94F11C61E08C850E942D1D6AE070E04C
:100D200080E090E00E94341C60E08C850E942D1DC4
:100D300064E670E080E090E00E94341C61E08C8505
:100D40000E942D1D68EF71E081E894E00E94B91ABD
:100D50008EE0C82ED12C8E01055E1E4FF7018081DA
:100D60009181DC01ED91FC910480F581E02D0995E4
:100D7000892B59F0F70180819181DC01ED91FC9183
:100D80000680F781E02D0995E9CFF8014081518176
:100D900024EF31E065EF71E0CE010E944806811139
:100DA00034C0D7018D919C91DC01ED91FC910480C0
:100DB000F581E02D0995892B59F0F701808191810A
:100DC000DC01ED91FC910680F781E02D0995E9CFDA
:100DD00024EF31E042EF51E06FEE71E0CE010E946E
:100DE0004806811112C064EF71E080E090E00E943B
:100DF000341CB1E0CB1AD10809F0B0CF5EC064E674
:100E000070E080E090E00E94341CF8014081518144
:100E100024EF31E062EC71E0CE010E94480664E606
:100E200070E080E090E00E94341CD8014D915C910C
:100E300024EF31E06DEB71E0CE010E944806811194
:100E400002C012E001C011E064E670E080E090E0D2
:100E50000E94341CCE010E94F90466EB71E081E827
:100E600094E00E94881A66E171E081E894E00E94B3
:100E7000CB1A66E171E0F701808191810E94CB1A63
:100E800041E064EF71E0CE010E9425056FEA71E058
:100E900081E894E00E94881A2F96BE0181E894E0D0
:100EA0000E94CB1A64EA71E0CE010E943A23892B9A
:100EB00011F0812F35C084E033C0D8014D915C9191
:100EC00024EF31E06CEE71E0CE010E94480664E64A
:100ED00070E080E090E00E94341CF8014081518174
:100EE00024EF31E069EE71E0CE010E94480664E62D
:100EF00070E080E090E00E94341CD8014D915C913C
:100F000024EF31E066EE71E0CE010E9448068111C7
:100F100076CF67EC71E081E894E00E94B91A83E033
:100F2000DF91CF911F910F91FF90EF90DF90CF90C5
:100F30000895EF92FF920F931F93CF93DF93EC01ED
:100F4000790198010E94E405B701CE010F960E9435
:100F5000282321E0892B09F020E0822FDF91CF9117
:100F60001F910F91FF90EF9008957F928F929F9223
:100F7000AF92BF92CF92DF92EF92FF920F931F93A7
:100F8000CF93DF93EC0128EE3DEF662309F41FC1F8
:100F90004EE551E063E571E00E944806811103C00F
:100FA00082E0782E02C0772473947E0185EEE81AE1
:100FB0008EEFF80AF7014081518120E137E268E4C1
:100FC00071E0CE010E944806882309F425C1F7018B
:100FD0004081518120E137E26AE271E0CE010E9456
:100FE0004806882309F41AC14E01F2EF8F1AFEEF6A
:100FF0009F0AF401408151814115510571F4F701B7
:10100000408151812FEF3FEF65EC70E0CE010E94EF
:1010100048068111CEC089E00EC1F70120813181DF
:1010200000E117E266E171E0CE010E949907882392
:1010300009F4F6C0CE010E94F9048E01035E1E4F32
:101040006CE071E0F801808191810E94881AF401BE
:1010500060817181F801808191810E94881A5E010E
:10106000F0EFAF1AFEEFBF0AF50180819181892B65
:1010700079F062E371E0F801808191810E94AC1AFD
:10108000F50160817181F801808191810E94881A47
:101090006E01FEEECF1AFEEFDF0AF601808191812C
:1010A000892B79F062E371E0F801808191810E94DF
:1010B000AC1AF60160817181F801808191810E94F2
:1010C000881A64E371E0F801808191810E94CB1A53
:1010D00065E071E081E894E00E94881A6BEF70E0AF
:1010E00081E894E00E94881AF4016081718181E8AE
:1010F00094E00E94881AF50180819181892B69F022
:1011000062E371E081E894E00E94AC1AF50160812D
:10111000718181E894E00E94881AF60180819181B2
:10112000892B69F062E371E081E894E00E94AC1AD7
:10113000F6016081718181E894E00E94881A64E37D
:1011400071E081E894E00E94CB1AF701608171811F
:1011500040E157E2CE010E948705882309F462C06E
:10116000F501408151814115510539F4F601408165
:1011700051814115510579F442CFF7012081318128
:1011800000E117E266EE70E0CE010E94990781113E
:10119000EDCF87E050C0F7012081318100E117E2F7
:1011A00062ED70E0CE010E949907811128CF88E09E
:1011B00042C0F701408151812FEF3FEF6CEB70E0AF
:1011C000CE010E944806882379F1872D34C044EB74
:1011D00050E069EA70E00E944806882339F18E01E8
:1011E000055E1E4FF8014081518120E137E26CE934
:1011F00070E0CE010E9448068823D1F0F8014081BA
:10120000518120E137E261E970E0CE010E94480699
:10121000882381F081E00FC083E00DC084E00BC023
:1012200085E009C086E007C08AE005C08BE003C006
:101230008CE001C08DE0DF91CF911F910F91FF9065
:10124000EF90DF90CF90BF90AF909F908F907F9066
:101250000895AF92BF92CF92DF92EF92FF920F93D9
:10126000CF93DF935B016A01E22E0F960E943A232F
:10127000EC01892BC1F0C5010E9431238C0F9D1F09
:10128000C0E0F12CC01741F0B7010E945D23009728
:1012900051F00196CF5FF6CF0E940A23F6019183A9
:1012A000808381E001C080E0DF91CF910F91FF90BA
:1012B000EF90DF90CF90BF90AF900895AF92BF9224
:1012C000CF92DF92EF920F931F93CF93DF93EC01B6
:1012D0006A015901102F0E2D44EF51E00E94AB0519
:1012E000212FA501B601CE010E942909182F8823BC
:1012F00031F040E064EF71E0CE010E942505812FBE
:10130000DF91CF911F910F91EF90DF90CF90BF9021
:10131000AF900895CF92DF92EF92FF920F931F93B9
:10132000CF93DF93CDB7DEB728970FB6F894DEBF23
:101330000FBECDBF6C0118861F821E821D821C82CB
:101340001B821A821982E12C0CE29E01295F3F4F19
:101350004DE951E066E971E00E945E09F82EEE2445
:10136000E3949E012B5F3F4F4FE851E068E871E046
:10137000C6010E945E09882319F081E0F82602C0A8
:10138000FF24F394E12C0CE29E012D5F3F4F40E8D7
:1013900051E067E771E0C6010E945E09882311F001
:1013A0001B8101C010E2EE24E3940CE29E012F5F4A
:1013B0003F4F4FE651E066E671E0C6010E945E09CC
:1013C000811103C0912F906202C09981912B7D8180
:1013D0006F818F2D28960FB6F894DEBF0FBECDBF5C
:1013E000DF91CF911F910F91FF90EF90DF90CF9001
:1013F0000895FC01108212821182138214821582D8
:1014000016821782128611861486138608952AE0A2
:10141000829FC001112409960C945D0B0E94740BED
:1014200009976AE070E00E94B420862F0895CF9358
:10143000DF93EC01CB0129E0FE01DB0101900D926D
:101440002A95E1F74B812AE0429FA00111246B8588
:101450007C850996DF91CF910C945423AF92BF9273
:10146000CF92DF92EF92FF920F931F93CF93DF9370
:10147000CDB7DEB76B01EDB6FEB6FC010381FAE035
:101480000F9F80011124075F1F4F2DB73EB7201B10
:10149000310B0FB6F8943EBF0FBE2DBFEDB7FEB7B0
:1014A00031965F01BF010E94170AA801B501C6016C
:1014B0000E94B50B0FB6F894FEBE0FBEEDBEDF91D5
:1014C000CF911F910F91FF90EF90DF90CF90BF9041
:1014D000AF900895FC017487638743830895FC01EE
:1014E000838594850895FC0160830895FC017283CF
:1014F00061830895FC01458356836783708708954F
:10150000CF93DF93EC016EE972E081E894E00E94F2
:10151000881A4AE050E0688181E894E00E94451B07
:101520006AE972E081E894E00E94881A65E972E055
:1015300081E894E00E94881A4AE050E0698181E8DD
:1015400094E00E94451B61E972E081E894E00E940A
:10155000881A6CE772E081E894E00E94881A6B8137
:10156000637070E04AE050E081E894E00E94AC1BB8
:1015700062E772E081E894E00E94881A6B816C71E6
:1015800070E075956795759567954AE050E081E83C
:1015900094E00E94AC1B69E672E081E894E00E944E
:1015A000881A6B8165FB662760F94AE050E070E0BD
:1015B00081E894E00E94AC1B65E672E081E894E06B
:1015C0000E94881A68E572E081E894E00E94881A17
:1015D0004AE050E06A8181E894E0DF91CF910C9479
:1015E0004C1BCF93DF93EC0160E572E081E894E05F
:1015F0000E94881A69817A814AE050E081E894E08B
:101600000E945E1B6CE472E081E894E00E94881AFC
:1016100066E472E081E894E00E94881A6D817E8120
:101620004AE050E081E894E00E945E1B62E472E0D0
:1016300081E894E00E94881A69E372E081E894E00E
:101640000E94881A6B817C814AE050E081E894E036
:101650000E945E1B65E372E081E894E00E94881AB4
:101660006FE272E081E894E00E94881A6F817885C9
:101670004AE050E081E894E00E945E1B6BE272E079
:1016800081E894E00E94881A64E272E081E894E0C4
:101690000E94881A4AE050E0698581E894E0DF9171
:1016A000CF910C944C1B680F791F8617970721F078
:1016B000FC014193CF01F9CF08959C012E5F3F4F6C
:1016C000E3E0F0E0C901BF010E94C820A901481B66
:1016D000590BCA01BF010E94C820CB01880F991F76
:1016E000880F991F0196089561507109FC01E60F5A
:1016F000F71F20E030E082918D3319F42F5F3F4FC8
:10170000FACF46E0469FC001479F900D112497FDF8
:10171000079643E0959587954A95E1F7821B930BD1
:101720000895DC01FB018081869586958C938081EC
:101730008370918192959F7020E1829F900D11247A
:1017400011969C93119791819F70990F990F228107
:101750002295269526952370920F12969C931297A8
:1017600082818F7313968C9308956F927F928F92DC
:101770009F92AF92BF92CF92DF92EF92FF920F9320
:101780001F93CF93DF93CDB7DEB727970FB6F894AB
:10179000DEBF0FBECDBF6C015B013B01640E751E49
:1017A000E12CF12C00E010E04E0185E0880E911C48
:1017B0006A147B0449F1C8010196F50121915F018A
:1017C000F401E00FF11F20838330910511F08C01AB
:1017D000EFCFB401CE0101960E94910BDE0111966C
:1017E000C6018E0D9F1DED91F0E0EC55FD4F24914B
:1017F000FC012193CF01A815B905A9F7F4E0EF0E7C
:10180000F11C80E090E0E3CF0115110509F43CC024
:10181000BE016B5F7F4FFB01E00FF11FCF01861B05
:10182000970B039714F41192F9CFCE0101965C0146
:101830000E94910BC6018E0D9F1DD501ED91F0E028
:10184000EC55FD4F2491FC012193CF019D012A19F4
:101850003B090217130794F7FFEFEF1AFF0AE00E98
:10186000F11EF601EE0DFF1D0C191D090E191F09C1
:101870008DE37F01EC18FD0898012E0F3F1F2330E8
:10188000310514F48193F5CFF601EE0DFF1D1082A2
:10189000C701019627960FB6F894DEBF0FBECDBFE5
:1018A000DF91CF911F910F91FF90EF90DF90CF903C
:1018B000BF90AF909F908F907F906F900895DC01C4
:1018C000FB019181907392959F702081220F220FCE
:1018D000920F9C9392819C7396959695818120E1BD
:1018E000829F900D112411969C9311979281838170
:1018F00020E4929F800D112412968C9308959FEB03
:10190000980F9A3190F09FE9980F9A3110F487540C
:10191000089590ED980F9A3010F48C5F08958B32F3
:1019200031F08F3231F08FEF0895892F08958EE3D3
:1019300008958FE308954F925F926F927F928F92F6
:101940009F92AF92BF92CF92DF92EF92FF920F934E
:101950001F93CF93DF93CDB7DEB727970FB6F894D9
:10196000DEBF0FBECDBF3C017B012B01440E551ED7
:10197000C12CD12C00E010E05E0185E0A80EB11C66
:101980004E0198E0890E911CE414F504A9F1F701C9
:1019900021917F012D3381F1C8010196E1E0F0E052
:1019A000EC0FFD1FE00FF11F20838430910511F033
:1019B0008C01EACF8E010F5F1F4FF80180810E94DA
:1019C0007F0CF80181938F01EA15FB05B1F7BE0189
:1019D0006F5F7F4FC5010E945F0CF501D301AC0D15
:1019E000BD1D81918D93E815F905D9F7F3E0CF0E70
:1019F000D11C80E090E0DCCF0115110599F1CE01FA
:101A000001965C01FC01E00FF11F7501CF018A19FD
:101A10009B09049714F41192F8CF4E0195E0890EBA
:101A2000911CF70180810E947F0CF70181937F0157
:101A3000E815F905B1F7B501CF010E945F0CF70178
:101A40009601D301AC0DBD1D80E090E0015011095D
:101A50006C01C20ED31E8017910724F441914D935F
:101A60000196F6CFC60127960FB6F894DEBF0FBEDB
:101A7000CDBFDF91CF911F910F91FF90EF90DF903D
:101A8000CF90BF90AF909F908F907F906F905F901E
:101A90004F9008950F931F93CF93DF93CDB7DEB789
:101AA0002C970FB6F894DEBF0FBECDBF082F6DE99F
:101AB00073E081E894E00E94B91A42E063E08EE9A5
:101AC00092E00E946206182F8DEF810F8230B8F4E9
:101AD00062E873E081E894E00E94881A66E471E0AD
:101AE00081E894E00E94AC1A612F70E04AE050E077
:101AF00081E894E00E94B31B00E010E04DC086E94D
:101B000092E00E94490F682F70E0685B7E4FCE0123
:101B100007960E94CA1DBE01695F7F4FCE010196E4
:101B20000E942C1EBE016F5F7F4F8EE992E00E94E3
:101B3000F504CE0101960E945C1D011103C00EE95F
:101B400012E026C06DE673E081E894E00E94B91AC5
:101B500061E08EE992E00E94B507182F8FEF810FA8
:101B6000823068F362E573E081E894E00E94881AAD
:101B700066E471E081E894E00E94AC1A612F70E0A5
:101B80004AE050E081E894E00E94B31B00E010E0DE
:101B9000CE0107960E945C1DC8012C960FB6F894E2
:101BA000DEBF0FBECDBFDF91CF911F910F91089582
:101BB00066E571E081E894E00E94CB1A60E085E080
:101BC0000E942D1D68EB7BE080E090E00C94341CBB
:101BD00061E085E00E94F11C61E085E00E942D1D1E
:101BE00068EB7BE080E090E00E94341C61E08DE0D7
:101BF0000E94F11C26E040E855E260E070E081E8D8
:101C000094E00E94431962EB73E081E894E00E9443
:101C1000B91A0E949C160C94D80DCF93DF93CDB7C0
:101C2000DEB72A970FB6F894DEBF0FBECDBF6FE3C5
:101C300073E081E894E00E94B91A81E089831B82F5
:101C40001A821D821C821F821E82198618861A869D
:101C5000BE016F5F7F4F84E992E00E94810F81E0B7
:101C60002A960FB6F894DEBF0FBECDBFDF91CF919D
:101C70000895CF93DF9300D000D0CDB7DEB7809129
:101C8000900291E0980F90939002811115C06EE13F
:101C900073E081E894E00E94B91A81E00E944A0D45
:101CA0009093920280939102892BF9F06FEE72E08B
:101CB00081E894E00E94B91A809190028C33B9F4C3
:101CC00080919102909192020E948A0969837A839D
:101CD0008B839C83CE0101960E94800A1092900211
:101CE000109292021092910202C081E001C080E045
:101CF0000F900F900F900F90DF91CF91089568EEA5
:101D000073E080E090E00E94341C80918E029091FC
:101D10008F02019690938F0280938E0265EE72E09F
:101D200081E894E00E94881A66E471E081E894E01A
:101D30000E94AC1A4AE050E06091930281E894E07E
:101D40000E944C1B8091930280FF09C00E940D0EDF
:101D5000882329F0809193028E7F80939302809153
:101D6000930281FF09C00E94390E882329F08091D7
:101D700093028D7F8093930280919302811102C020
:101D80000C94D80D089541E064E08EE992E00E9441
:101D90008F0460E086E992E00E94E40E61E084E94D
:101DA00092E00C944D0F8AE391E090939F02809310
:101DB0009E0283EB93E00C945C1DDC01ED91FC91A1
:101DC0000190F081E02D0994FC01118212821382AE
:101DD000148280E88583868317826083611104C042
:101DE0008BE294E00C94B6120895EF92FF920F9359
:101DF0001F93CF93DF93EB017B01E40EF11C8C0169
:101E0000CE15DF0571F160E570E08BE294E00E9491
:101E1000D212612F70E08BE294E00E94DD0EB801D7
:101E200077278BE294E00E94DD0E8BE294E00E9423
:101E30004E1341E050E060E570E08BE294E00E94D8
:101E40004B138BE294E00E94E811892B29F08BE27E
:101E500094E00E94F01101C08FEF89930F5F1F4F34
:101E6000CFCFDF91CF911F910F91FF90EF90089509
:101E7000CF93DF931F92CDB7DEB7CB0141E0BE0118
:101E80006F5F7F4F0E94F50E89810F90DF91CF9198
:101E9000089560E070E00C94380FFC0160830895B1
:101EA000FC018081811103C0862F0C94AB1C85E05E
:101EB00090E00895FC01DB0181818F5F818390E0D8
:101EC00012969C938E93119781812AE0829FC00184
:101ED000112416969C938E931597818167E00E943A
:101EE000A820892F90E014969C938E93139781815C
:101EF00024E6829FC001112418969C938E93179715
:101F00000895AF92BF92CF92DF92EF92FF920F931C
:101F10001F93CF93DF938C01EB01FC018081882319
:101F200021F0C8010E945A0F1BC06EE0C8010E9438
:101F3000500F6C016FE0C8010E94500F5C0161E11D
:101F4000C8010E94500F7C0160E1C8010E94500F3F
:101F5000BA82A982DE82CD82FC82EB8298878F834F
:101F6000CE01DF91CF911F910F91FF90EF90DF9005
:101F7000CF90BF90AF900C94F10A10922A0481E0A8
:101F8000809328041092270461E082E10E942D1DB5
:101F900061E083E10E942D1DE9EBF0E080818E7FFE
:101FA000808380818D7F808388E48093B80085E47E
:101FB0008093BC000895413208F043C090912A04F8
:101FC0009111FCCF91E090932A04209328042FEFE5
:101FD0002093BD0310920204240F209301049093D8
:101FE000290490912904880F892B809329048091DA
:101FF0002704813061F41092270480912904809392
:10200000BB008091BC0083FDF8CF85EC01C085EE5C
:102010008093BC0080912A048130E1F38091020416
:10202000841710F440910204A3E0B4E0962FFB0162
:102030008E2F891B841718F48D918193F9CF842FEB
:10204000089580E008950F93413208F04AC09091BE
:102050002A049111FCCF32E030932A040093280423
:102060003FEF3093BD031092020440930104562FBA
:10207000A3E0B4E0FB013E2F351B341718F4319177
:102080003D93F9CF1092290430912904880F832BB6
:102090008093290480912704813061F410922704F1
:1020A000809129048093BB008091BC0083FDF8CF10
:1020B00085EC01C085EE8093BC00222321F0809145
:1020C0002A048230D1F38091BD038F3F79F0809153
:1020D000BD03803241F08091BD03803331F094E044
:1020E00005C091E003C092E001C093E0892F0F91F9
:1020F00008954091DF03262F30E0240F311D213257
:102100003105DCF420912A042430C9F4FC0180E07C
:1021100090E0861758F43091DF032191DC01AF5134
:10212000BC4FA30FB11D2C930196F3CF8091DF0319
:10213000680F6093DF0380E0089581E0089582E0F6
:102140000895909324048093230408959093260483
:1021500080932504089585ED8093BC008091BC0098
:1021600084FDFCCF10922A04089585EC8093BC0076
:1021700010922A0408951F920F920FB60F92112405
:102180002F933F934F935F936F937F938F939F937F
:10219000AF93BF93EF93FF938091B900887F803610
:1021A00009F49EC078F5883209F45DC090F480315E
:1021B00009F456C038F4882309F4F5C0883009F4CE
:1021C0004FC0F5C0883109F44EC0803209F45FC0B9
:1021D000EEC0803409F46AC058F4803309F457C063
:1021E000883309F0E4C08093BD030E94B510DFC0BE
:1021F000803509F44FC0883509F45DC0883409F092
:10220000D6C0D3C0883909F4C4C0A8F4883709F40B
:1022100067C038F4883609F463C0803709F460C0B9
:10222000C6C0883809F4B5C0803909F45FC0803869
:1022300009F0BDC05BC0803B09F483C038F4803A2C
:1022400009F466C0883A09F47CC0B1C0803C09F446
:10225000A4C0883C09F4A1C0883B09F487C0A7C08A
:102260008091290410C09091020480910104981774
:1022700070F5E091020481E08E0F80930204F0E09B
:10228000ED5FFB4F80818093BB0085EC83C0809322
:10229000BD038BC0E091020481E08E0F80930204A5
:1022A0008091BB00F0E0ED5FFB4F808390910204D2
:1022B000809101046BC0E091020481E08E0F809355
:1022C00002048091BB00F0E0ED5FFB4F80838091C2
:1022D000280481116AC081E08093270484EA5EC0EB
:1022E00083E080932A041092BE03CFCF8091BE0377
:1022F000803208F04EC0E091BE0381E08E0F8093E3
:10230000BE038091BB00F0E0E154FC4F8083BDCF61
:102310000E94B5108091BE03803230F4E091BE037C
:10232000F0E0E154FC4F10826091BE0370E0E09158
:102330002304F09124048FEB93E009951092BE03DF
:1023400036C084E080932A041092E0031092DF03E9
:10235000E0912504F091260409958091DF03811115
:1023600005C081E08093DF031092E103E091E00378
:1023700081E08E0F8093E003F0E0EF51FC4F80810D
:102380008093BB009091E0038091DF03981708F4DD
:102390007CCF85E88093BC000AC085EC8093BC00AC
:1023A00010922A0404C01092BD030E94AB10FF914A
:1023B000EF91BF91AF919F918F917F916F915F91BD
:1023C0004F913F912F910F900FBE0F901F90189536
:1023D00080915F0490E020916004821B9109089530
:1023E0009091600480915F04981750F4E92FF0E019
:1023F000EF59FB4F208130E09F5F9093600402C053
:102400002FEF3FEFC9010895E091600480915F04D0
:10241000E81730F4F0E0EF59FB4F808190E0089529
:102420008FEF9FEF08950895CF93DF93EC01E09134
:102430003704F09138043097F1F090916004809166
:102440005F049817C0F090E0292F30E02617370777
:1024500054F4DE01A20FB31F4C91D901AF59BB4F09
:102460004C939F5FF1CF1092600460935F04CB01A7
:10247000DF91CF910994DF91CF910895E0913904D4
:10248000F0913A04309729F010923D0410923C04E8
:1024900009940895CF92DF92EF92FF920F931F93CA
:1024A000CF93DF937C01CB018A0120913B0422234F
:1024B00089F0EB016B01C40ED51ECC15DD0569F06A
:1024C0006991D701ED91FC910190F081E02DC70158
:1024D0000995F3CF642F0E947910C801DF91CF9145
:1024E0001F910F91FF90EF90DF90CF900895CF93C1
:1024F000DF931F92CDB7DEB7698320913B0422237F
:10250000D1F020913C04203240F021E030E0FC0189
:102510003383228380E090E015C080913D04E82F52
:10252000F0E0E25CFB4F998190838F5F80933D04E4
:1025300080933C0405C061E0CE0101960E947910B1
:1025400081E090E00F90DF91CF910895FC0113821C
:10255000128288EE93E0A0E0B0E084839583A683A6
:10256000B7838BE691E09183808308951092600495
:1025700010925F0410923D0410923C040E94BD0F23
:102580008EE392E10E94A61084E192E10C94A110E6
:1025900081E080933B0460935E0410923D041092AE
:1025A0003C0408950C94C8120F93062F21E040912B
:1025B0003C046EE374E080915E040E94231010924C
:1025C0003D0410923C0410923B040F9108954F92E9
:1025D0005F926F927F92AF92BF92CF92EF92FF92F3
:1025E0000F931F93CF93DF935C01F62ED42F280116
:1025F0003901EE2021F10E94C812CE2DC43008F01E
:10260000C3E0C150C0F028E0C29FC0011124A30163
:10261000920104C056954795379527958A95D2F72C
:10262000CA01B901D501ED91FC910190F081E02D35
:10263000C5010995E6CF60E0C5010E94D4124D2F77
:10264000D13208F040E22C2D61E674E08F2D0E941B
:10265000DB0F1092600480935F04DF91CF911F9194
:102660000F91FF90EF90CF90BF90AF907F906F90C1
:102670005F904F900895CF92EF920F931F93C22EC9
:10268000E12C00E010E098010E94E7121F910F91E9
:10269000EF90CF90089521E00C943B1361E00C94EF
:1026A000D4128BE294E00C94A612EF92FF920F9357
:1026B0001F93CF93DF93CDB7DEB765970FB6F8942E
:1026C000DEBF0FBECDBFF82E8D8B8AE0E82E8E01C7
:1026D000055F1F4FF8018E2D11928A95E9F741E0B1
:1026E00050E0BE016B5E7F4FC8010E94B50BCE016A
:1026F0000196FC011192EA94E9F74AE050E0B80132
:102700000E949B0C8981F81631F068ED77E081E832
:1027100094E00E94B91A8A81882331F060EC77E056
:1027200081E894E00E94B91A65960FB6F894DEBF6E
:102730000FBECDBFDF91CF911F910F91FF90EF9012
:102740000895AF92BF92CF92DF92EF92FF920F93D4
:102750001F93CF93DF93CDB7DEB7A8970FB6F8944A
:10276000DEBF0FBECDBF8C015B01FC0101900020DC
:10277000E9F731976F01C81AD90AFB0101900020CF
:10278000E9F731977F01E61AF70A67E771E081E818
:1027900094E00E94AC1A66E471E081E894E00E9443
:1027A000AC1AB80181E894E00E94CB1AC6010E94DD
:1027B0005D0BF50101900020E9F79F012A193B0903
:1027C0002817390731F068EA77E081E894E00E9441
:1027D000B91A41E064E170E0CE0145960E94530BC6
:1027E000A601B801CE0145960E94B50BF5010190F6
:1027F0000020E9F79F012A193B092817390731F012
:1028000060E977E081E894E00E94B91AF501EE0DE5
:10281000FF1D31979081FE01EE0DFF1D84899817F1
:1028200031F068E777E081E894E00E94B91AE5E1C9
:10283000F0E0EC0FFD1FEE0DFF1D8081882331F0CD
:1028400060E677E081E894E00E94B91A8FEFE81A19
:10285000F80AE5E1F0E0EC0FFD1FEE0DFF1D8081B1
:10286000813031F068E477E081E894E00E94B91AA1
:10287000B701C5010E94740BF80101900020E9F72F
:102880003197E01BF10BE817F90731F060E377E0CF
:1028900081E894E00E94B91A41E064E170E0CE0161
:1028A00001960E94530BA701B501CE0101960E942B
:1028B0009B0CF80101900020E9F73197E01BF10B28
:1028C000E817F90731F068E177E081E894E00E94C9
:1028D000B91A0C0D1D1DF8013197DE01AC0DBD1D9F
:1028E00090818C91981731F060E077E081E894E076
:1028F0000E94B91AE1E0F0E0EC0FFD1FEC0DFD1DA8
:102900008081813031F068EE76E081E894E00E94C9
:10291000B91AA8960FB6F894DEBF0FBECDBFDF91EF
:10292000CF911F910F91FF90EF90DF90CF90BF90CC
:10293000AF900895CF92DF92EF92FF920F931F9383
:10294000CF93DF93CDB7DEB7C857D1090FB6F89450
:10295000DEBF0FBECDBF81E0E0968FAFE097E89677
:102960001FAE1EAEE89785E19FE4E2969FAF8EAF63
:10297000E2978FEF9FEFE4969FAF8EAFE49783E0EF
:10298000E9968FAFE99781E99DEFE6969FAF8EAF0D
:10299000E697CE0181599F4F0E94F10A69E871E0E4
:1029A00081E894E00E94AC1A66E471E081E894E06A
:1029B0000E94AC1A4AE050E066E181E894E00E948F
:1029C0004C1B4AE050E0BE0161597F4F8E010F5F02
:1029D0001F4FC8010E94B50B7C018AE090E00E9465
:1029E0005D0B6C0167EA71E081E894E00E94AC1A2B
:1029F000B80181E894E00E94CB1A6EEC71E081E8A6
:102A000094E00E94AC1AF80101900020E9F7BF01A0
:102A1000601B710B4AE050E081E894E00E945E1B6D
:102A20006EED71E081E894E00E94CB1AF80101900C
:102A30000020E9F7CF01801B910B8E159F0531F027
:102A400060ED76E081E894E00E94B91AF801019007
:102A50000020E9F7CF01801B910B8C159D0531F00B
:102A600068EB76E081E894E00E94B91A81E0A696CE
:102A70008FAFA697A8961FAE1EAEA897AA961FAEB8
:102A80001EAEAA97AC961FAE1EAEAC97AE961FAE0A
:102A90001EAEAE97AF961FAEAF97B701C8010E94AA
:102AA000740B6C01A701B801CE018B599F4F0E9496
:102AB0009B0C8C016BEF71E081E894E00E94AC1AF2
:102AC00066E471E081E894E00E94AC1A4AE050E0CC
:102AD000B80181E894E00E94B31BCE018B599F4F4F
:102AE0000E94F10A0A30110531F060EA76E081E8CF
:102AF00094E00E94B91A8AE0C816D10431F068E85F
:102B000076E081E894E00E94B91AA8962EAD3FAD18
:102B1000A897E2968EAD9FADE2972817390731F05E
:102B20006FE676E081E894E00E94B91AAA962EAD8D
:102B30003FADAA97E4968EAD9FADE497281739076D
:102B400031F066E576E081E894E00E94B91AAF962C
:102B50009FADAF97E9968FADE997981731F06DE388
:102B600076E081E894E00E94B91AAC962EAD3FADB4
:102B7000AC97E6968EAD9FADE6972817390731F0F2
:102B800064E276E081E894E00E94B91AAE962EAD38
:102B90003FADAE97E8968EAD9FADE8972817390701
:102BA00031F06BE076E081E894E00E94B91AA696D5
:102BB0009FADA697E0968FADE097981731F062EF42
:102BC00075E081E894E00E94B91AC858DF4F0FB64B
:102BD000F894DEBF0FBECDBFDF91CF911F910F9153
:102BE000FF90EF90DF90CF900895FC01862F262F65
:102BF00030E0A9014F5F5F4F528341839AE0949F79
:102C0000B001959F700D11247483638394E6949FA3
:102C1000B001959F700D1124768365832D5C3F4F25
:102C20003087278365E00E94A820992311F080E077
:102C300001C083E0818708958F929F92AF92BF92E7
:102C4000CF92DF92EF92FF920F931F93CF93DF9378
:102C5000CDB7DEB72D970FB6F894DEBF0FBECDBF50
:102C60005C01062FCDB6DEB62DB73EB78AE0689F71
:102C70002019310911240FB6F8943EBF0FBE2DBFA5
:102C80002F5F3F4F7901862F90E0F90121E00197F6
:102C900060F02083128211821482138216821582C0
:102CA0001086178211863A96F2CF470110E010176E
:102CB00049F0612FC4010E94F5151F5F8AE0880E5C
:102CC000911CF5CFCE0101960E94F90961E2CE0177
:102CD00001960E94730A62E074E0CE0101960E94A0
:102CE000760A4FE053E060E071E1CE0101960E9468
:102CF0007A0A412FB701CE0101960E946A0AB501F6
:102D0000CE0101960E942E0A0FB6F894DEBE0FBEC9
:102D1000CDBE2D960FB6F894DEBF0FBECDBFDF91AE
:102D2000CF911F910F91FF90EF90DF90CF90BF90C8
:102D3000AF909F908F900895BF92CF92DF92EF92C5
:102D4000FF920F931F93CF93DF93CDB7DEB76B97AF
:102D50000FB6F894DEBF0FBECDBFCDB6DEB6188E6F
:102D6000198E1A8E85E38B8F6EEC75E081E894E006
:102D70000E94881A6B8D70E042E050E081E894E098
:102D80000E94B31B1B8D6DEA75E081E894E00E9400
:102D9000881A612F70E042E050E081E894E00E94E0
:102DA000B31B812F8C7119F466E975E013C0843070
:102DB00019F46FE775E00EC0883019F468E675E025
:102DC00009C08C3019F461E575E004C0803139F434
:102DD0006AE375E081E894E00E94B91A02C0843188
:102DE00031F063E275E081E894E00E94B91A012FA6
:102DF000037039F46CE075E081E894E00E94B91A40
:102E000002C0013071F065EF74E081E894E00E9447
:102E1000B91A023031F46EED74E081E894E00E945A
:102E2000B91A15FD06C066EC74E081E894E00E94D2
:102E3000B91A6FEA74E081E894E00E94881ACE0122
:102E400048960E94800A10E0812F0E9455131F3F70
:102E500011F01F5FF9CF69E272E08EE292E00E940A
:102E6000A11360E372E085E392E00E94A11368E39E
:102E700072E08DE392E00E94A11361E472E08AE4C3
:102E800092E00E94A1136FE472E088E592E00E9454
:102E9000A1130E949A1489E10E94070A7C012DB7B0
:102EA0003EB7281B390B0FB6F8943EBF0FBE2DBF9F
:102EB0000DB71EB70F5F1F4F69E1C8010E941C16B6
:102EC0006EE874E081E894E00E94B91AB80181E8E4
:102ED00094E00E94CB1AB701C8010E940E0AE82EA6
:102EE00039E1831731F068E774E081E894E00E94EB
:102EF000B91ACE0101960E94F9098DB79EB7EAE092
:102F0000EE9E8019910911240FB6F8949EBF0FBE52
:102F10008DBFEDB7FEB731968E2D90E021E0019781
:102F200060F020831282118214821382168215822D
:102F30001086178211863A96F2CF62E674E081E835
:102F400094E00E94B91ACE0101960E946F0AB82E31
:102F5000F92E0E94F10A0B2D1F2DF12CBB24B394E6
:102F6000FE1409F4AFC0BE86188A1F861A8A198A11
:102F70001C8A1B8A1E8A1D8A1F8A6F2DCE010E96FF
:102F80000E94F5152F853889F801818192812817D3
:102F9000390799F060E574E081E894E00E94881AAE
:102FA00066E471E081E894E00E94AC1A4AE050E0E7
:102FB0006F2D81E894E00E944C1B29893A89F80121
:102FC000838194812817390799F06EE374E081E8D2
:102FD00094E00E94881A66E471E081E894E00E941F
:102FE000AC1A4AE050E06F2D81E894E00E944C1B3F
:102FF0009E85F8018081981799F06EE274E081E86F
:1030000094E00E94881A66E471E081E894E00E94EE
:10301000AC1A4AE050E06F2D81E894E00E944C1B0E
:103020009F89F8018185981799F06DE174E081E836
:1030300094E00E94881A66E471E081E894E00E94BE
:10304000AC1A4AE050E06F2D81E894E00E944C1BDE
:103050002B893C89F801858196812817390799F0D9
:103060006DE074E081E894E00E94881A66E471E003
:1030700081E894E00E94AC1A4AE050E06F2D81E8AC
:1030800094E00E944C1B2D893E89F8018781908530
:103090002817390799F06BEF73E081E894E00E94FC
:1030A000881A66E471E081E894E00E94AC1A4AE074
:1030B00050E06F2D81E894E00E944C1BF394065F72
:1030C0001F4F4ECF6EEB73E081E894E00E94B91A77
:1030D0000FB6F894DEBE0FBECDBE6B960FB6F89459
:1030E000DEBF0FBECDBFDF91CF911F910F91FF903B
:1030F000EF90DF90CF90BF900895FC01918D228DCD
:10310000892F90E0805C9F4F821B91098F739927D4
:103110000895FC01918D828D981731F0828DE80F12
:10312000F11D858D90E008958FEF9FEF0895FC01CC
:10313000918D828D981761F0828DDF01A80FB11DEE
:103140005D968C91928D9F5F9F73928F90E0089512
:103150008FEF9FEF089580E09AE1892B49F080E09E
:1031600090E0892B29F00E94001A81110C94000034
:103170000895FC01848DDF01A80FB11DA35ABF4F34
:103180002C91848D90E001968F739927848FA68966
:10319000B7892C93A089B1898C9180648C93938D8D
:1031A000848D981306C00288F389E02D80818F7D7D
:1031B00080830895EF92FF920F931F93CF93DF9335
:1031C000EC0181E0888F9B8D8C8D981305C0E88978
:1031D000F989808185FD24C0F62E0B8D10E00F5FEC
:1031E0001F4F0F731127E02E8C8DE8120CC00FB605
:1031F00007FCFACFE889F989808185FFF5CFCE01F8
:103200000E94B918F1CF8B8DFE01E80FF11DE35A32
:10321000FF4FF0820B8FEA89FB898081806207C0B3
:10322000EE89FF896083E889F989808180648083E1
:1032300081E090E0DF91CF911F910F91FF90EF908F
:103240000895CF93DF93EC01888D8823C9F0EA8934
:10325000FB89808185FD05C0A889B9898C9186FD8F
:103260000FC00FB607FCF5CF808185FFF2CFA8898C
:10327000B9898C9185FFEDCFCE010E94B918E7CFB7
:10328000DF91CF910895CF92DF92EF92FF921F933B
:10329000CF93DF93EC016A017B01122FE889F98952
:1032A00082E080834115514E61057105B1F060E007
:1032B00079E08DE390E0A70196010E94DC20DA011D
:1032C000C9010197A109B109B695A7959795879569
:1032D0009C01211580E13807A8F0E889F98910825E
:1032E00060E874E88EE190E0A70196010E94DC207E
:1032F000DA01C9010197A109B109B695A79597957A
:1033000087959C01EC85FD853083EE85FF852083C4
:10331000188EEC89FD891083EA89FB8980818061A0
:103320008083EA89FB89808188608083EA89FB89C0
:10333000808180688083EA89FB8980818F7D80839A
:10334000DF91CF911F91FF90EF90DF90CF90089584
:103350001F920F920FB60F9211242F938F939F936A
:10336000EF93FF93E0919104F09192048081E091BA
:103370009704F091980482FD12C0908180919A0484
:103380008F5F8F7320919B04821751F0E0919A0414
:10339000F0E0EF57FB4F958F80939A0401C0808136
:1033A000FF91EF919F918F912F910F900FBE0F90F2
:1033B0001F9018951F920F920FB60F9211242F9302
:1033C0003F934F935F936F937F938F939F93AF93AD
:1033D000BF93EF93FF9381E894E00E94B918FF91A7
:1033E000EF91BF91AF919F918F917F916F915F917D
:1033F0004F913F912F910F900FBE0F901F901895F6
:1034000081E894E00E947D1821E0892B09F420E0F6
:10341000822F0895E1E8F4E01382128288EE93E0AF
:10342000A0E0B0E084839583A683B78382E692E030
:103430009183808385EC90E09587848784EC90E08D
:103440009787868780EC90E0918B808B81EC90E071
:10345000938B828B82EC90E0958B848B86EC90E052
:10346000978B868B118E128E138E148E089508956D
:103470000E94701C0E94371A0E94E80DCBEAD8E126
:103480000E947F0E2097E1F30E94AB18F9CF0C94B5
:103490002321CF92DF92EF92FF920F931F93CF934E
:1034A000DF936C017A018B01C0E0D0E0CE15DF051F
:1034B00081F0D8016D918D01D601ED91FC910190C3
:1034C000F081E02DC6010995892B11F02196EECFF0
:1034D0007E01C701DF91CF911F910F91FF90EF9077
:1034E000DF90CF9008956115710579F0FB0101908F
:1034F0000020E9F73197AF01461B570BDC01ED9136
:10350000FC910280F381E02D099480E090E0089521
:10351000EF92FF920F931F93CF93DF938C017B0168
:10352000C0E0D0E0F701EC0FFD1F6491662361F06D
:10353000D801ED91FC910190F081E02DC801099531
:10354000892B11F02196EECFCE01DF91CF911F9103
:103550000F91FF90EF9008950C94731ADC01ED9198
:10356000FC910190F081E02D09946EE672E00C94DC
:10357000731A0F931F93CF93DF93EC010E94881A65
:103580008C01CE010E94B51A800F911FDF91CF915F
:103590001F910F9108950F931F93CF93DF93EC0129
:1035A0000E94731A8C01CE010E94B51A800F911FE0
:1035B000DF91CF911F910F9108950F931F93CF9398
:1035C000DF93EC010E94AE1A8C01CE010E94B51A65
:1035D000800F911FDF91CF911F910F9108958F92CE
:1035E0009F92AF92BF92EF92FF920F931F93CF9350
:1035F000DF93CDB7DEB7A1970FB6F894DEBF0FBE4D
:10360000CDBF7C01FA01CB0119A2223008F42AE0D7
:103610008E010F5D1F4F822E912CA12CB12CBF016A
:10362000A50194010E94DC20F901CA010150110991
:103630006A3010F4605D01C0695CD8016C93232B83
:10364000242B252B61F7B801C7010E94731AA1969C
:103650000FB6F894DEBF0FBECDBFDF91CF911F91A3
:103660000F91FF90EF90BF90AF909F908F90089533
:103670002115310541F4DC01ED91FC910190F081BF
:10368000E02D642F09940C94EF1A9A01462F50E014
:1036900060E070E00C94381B0F931F93CF93DF937F
:1036A000EC010E94451B8C01CE010E94B51A800FCF
:1036B000911FDF91CF911F910F9108959A01AB0156
:1036C00060E070E00C94381BCF92DF92EF92FF9293
:1036D0000F931F93CF93DF932115310581F4DC0104
:1036E000ED91FC910190F081E02D642FDF91CF915D
:1036F0001F910F91FF90EF90DF90CF9009942A30A7
:10370000310501F577FF1DC06A017B01EC016DE217
:103710000E94AE1A8C0144275527BA014C195D0945
:103720006E097F092AE0CE010E94EF1A800F911FD7
:10373000DF91CF911F910F91FF90EF90DF90CF908D
:1037400008952AE0DF91CF911F910F91FF90EF90A4
:10375000DF90CF900C94EF1A9A01AB01770F660BB4
:10376000770B0C94641B0F931F93CF93DF93EC01A3
:103770000E94AC1B8C01CE010E94B51A800F911FD4
:10378000DF91CF911F910F9108951F920F920FB665
:103790000F9211242F933F938F939F93AF93BF93D7
:1037A00080911F0590912005A0912105B0912205DF
:1037B00030911E0523E0230F2D3720F40196A11D23
:1037C000B11D05C026E8230F0296A11DB11D20934F
:1037D0001E0580931F0590932005A0932105B093AB
:1037E00022058091230590912405A0912505B09193
:1037F00026050196A11DB11D8093230590932405F4
:10380000A0932505B0932605BF91AF919F918F910D
:103810003F912F910F900FBE0F901F9018953FB7BB
:10382000F8948091230590912405A0912505B091ED
:10383000260526B5A89B05C02F3F19F00196A11DAE
:10384000B11D3FBFBA2FA92F982F8827820F911D36
:10385000A11DB11DBC01CD0142E0660F771F881F7D
:10386000991F4A95D1F708958F929F92AF92BF9278
:10387000CF92DF92EF92FF926B017C010E940F1CAE
:103880004B015C01C114D104E104F10401F10E9477
:10389000A7200E940F1CDC01CB0188199909AA09F5
:1038A000BB09883E9340A105B10560F321E0C21A2F
:1038B000D108E108F10888EE880E83E0981EA11C6B
:1038C000B11CC114D104E104F10419F7DBCFFF905E
:1038D000EF90DF90CF90BF90AF909F908F90089522
:1038E000789484B5826084BD84B5816084BD85B5DB
:1038F000826085BD85B5816085BDEEE6F0E08081A2
:1039000081608083E1E8F0E01082808182608083C2
:10391000808181608083E0E8F0E080818160808345
:10392000E1EBF0E0808184608083E0EBF0E0808177
:1039300081608083EAE7F0E0808184608083808119
:1039400082608083808181608083808180688083C1
:103950001092C10008958E3008F08E50209106011B
:1039600090E4299F900111248770822B80937C0022
:1039700080917A00806480937A0080917A0086FD3D
:10398000FCCF809178002091790090E0922B0895EF
:10399000833081F028F4813099F08230A1F00895CD
:1039A0008730A9F08830B9F08430D1F4809180005C
:1039B0008F7D03C0809180008F7780938000089571
:1039C00084B58F7702C084B58F7D84BD08958091C2
:1039D000B0008F7703C08091B0008F7D8093B000DE
:1039E0000895CF93DF9390E0FC01EC5FF74F2491B3
:1039F000FC01E85EF74F8491882361F190E0880F25
:103A0000991FFC01E05CF74FC591D491FC01EA5C81
:103A1000F74FA591B491611109C09FB7F8948881BF
:103A2000209582238883EC912E230BC0623061F4B1
:103A30009FB7F8948881322F309583238883EC9147
:103A40002E2B2C939FBF06C08FB7F894E8812E2BA6
:103A500028838FBFDF91CF9108951F93CF93DF937A
:103A6000282F30E0F901E051F84F8491F901EC5F23
:103A7000F74FD491F901E85EF74FC491CC23C1F020
:103A8000162F81110E94C81CEC2FF0E0EE0FFF1FD3
:103A9000EA5CF74FA591B4919FB7F894111104C057
:103AA0008C91D095D82302C0EC91DE2BDC939FBF84
:103AB000DF91CF911F910895FC01808191810C9439
:103AC000BB21CF93DF93EC0188819981009711F09E
:103AD0000E94BB21198218821D821C821B821A82BD
:103AE000DF91CF9108950F931F93CF93DF93EC0154
:103AF0008B016F5F7F4F888199810E9444220097DC
:103B000031F0998388831B830A8381E001C080E0C0
:103B1000DF91CF911F910F910895CF93DF93EC0127
:103B200088819981892B29F08A819B818617970743
:103B300060F4CE010E94731D882341F08C819D8129
:103B4000892B19F4E881F981108281E0DF91CF910E
:103B50000895EF92FF920F931F93CF93DF93EC01A1
:103B60007B018A01BA010E948D1D811104C0CE0122
:103B70000E94611D07C01D830C83B7018881998154
:103B80000E946823CE01DF91CF911F910F91FF908A
:103B9000EF900895FC011182108213821282158227
:103BA00014826115710551F0FB0101900020E9F7C5
:103BB0003197AF01461B570B0C94A91D08950F9325
:103BC0001F93CF93DF938C01EB01FC0180819181E6
:103BD000009799F0428153812C813D814217530710
:103BE00050F0688179810E9468238C819D81F80161
:103BF0009583848313C00E94BB2188819981F80139
:103C0000918380838A819B81938382838C819D8130
:103C100095838483198218821B821A821D821C82DA
:103C2000DF91CF911F910F910895CF93DF93EC0116
:103C3000FB018617970761F060817181611571053D
:103C400029F0448155810E94A91D02C00E94611D76
:103C5000CE01DF91CF910895FC0111821082138271
:103C60001282158214820C94151ECF93DF93EC01FF
:103C70008617970711F00E94DF1DCE01DF91CF91CB
:103C800008952091690530916A0528173907B9F41C
:103C90009091270580912805981789F0E0912705D4
:103CA000F0E0E75DFA4F80812091270530E02F5F3B
:103CB0003F4F2F7333272093270590E008958FEF10
:103CC0009FEF08951F93CF93DF93DC015C968D9156
:103CD0009C915D97009739F421E030E013963C9376
:103CE0002E9312973BC05196ED91FC9152975096AE
:103CF0002C915097322F30951FB75E964C915E975E
:103D0000742F727041FD6095F8944081772311F013
:103D1000422B01C043234083EC012197F1F748E097
:103D2000508160FF02C0522B01C053235083EC012D
:103D30002197F1F76695415099F78081772319F023
:103D40008323808302C0282B20831FBF5C968D9124
:103D50009C915D970197F1F781E090E0DF91CF9121
:103D60001F91089508952091690530916A052817DB
:103D7000390771F49091270580912805981741F033
:103D8000E0912705F0E0E75DFA4F808190E008952B
:103D90008FEF9FEF08952091690530916A052817EC
:103DA000390771F4809128052091270590E0805C07
:103DB0009F4F821B910960E470E00E94C820089523
:103DC00080E090E00895E0916905F0916A05E817B8
:103DD000F90769F4A389B4899C9185898095892321
:103DE0008C9310926A051092690581E0089580E035
:103DF0000895CF93DF93EC018A8D9B8D892BF1F091
:103E00008091690590916A05C817D907B9F00097A4
:103E100011F00E94E31E8E8D8E7F8E8F10922805EA
:103E200010922705D0936A05C0936905EB89FC8938
:103E300090818D89892B808381E001C080E0DF91B2
:103E4000CF9108951F920F920FB60F9211242F93C6
:103E50003F934F935F936F937F938F939F93AF9312
:103E6000BF93EF93FF93E0916905F0916A05309756
:103E700009F451C0968DA685B785858591FF04C04C
:103E80009C91892329F447C09C91892309F043C060
:103E9000A389B4899C918589809589238C9386898F
:103EA00097890197F1F7608D718DA685B785558546
:103EB00038E020E0CB010197F1F7822F90E0959553
:103EC0008795282F4C91452309F02068315091F7B0
:103ED000868D81FD20958091280590E001968F7355
:103EE000992730912705381749F0A0912805B0E0AF
:103EF000A75DBA4F2C938093280503C0868D8160FF
:103F0000868F828D938D0197F1F7A389B4899C9157
:103F10008589892B8C93FF91EF91BF91AF919F91F0
:103F20008F917F916F915F914F913F912F910F9062
:103F30000FBE0F901F9018951F93CF93DF93EC0146
:103F4000162F6E8D6695617081E06827812F0E9423
:103F50002D1D61E0812F0E94F11C812F90E0FC015A
:103F6000EC5FF74FE491E88BFC01E85EF74FE491DA
:103F7000F0E0EE0FFF1FEA5CF74F859194919A8B6A
:103F8000898BDF91CF911F9108951F93CF93DF937A
:103F9000EC01162F60E0812F0E94F11C8E8D81FDB7
:103FA00004C061E0812F0E942D1D1C87812F90E0AD
:103FB000FC01EC5FF74FE491ED87FC01E85EF74F01
:103FC000E491F0E0EE0FFF1FE45DF74F85919491CF
:103FD0009F878E87DF91CF911F9108951F93CF9375
:103FE000DF93EC01162F1B821A8288EE93E0A0E08B
:103FF000B0E08C839D83AE83BF8381E892E0998398
:1040000088831F8A1E8A198E188E1B8E1A8E1D8E0B
:104010001C8E8E8D8E7F20FB81F98E8F642FCE01BA
:104020000E949C1F612FCE01DF91CF911F910C94B4
:10403000C51FCF93DF93EC019A01AB011B8E1A8E43
:10404000198E188E1F8A1E8A60E079E08DE390E059
:104050000E94FE20F9012430310518F0C9010397B0
:1040600002C081E090E09D8F8C8F6C85663108F0F6
:1040700069C0C901969587958431910510F04397E1
:1040800002C081E090E09F8B8E8B369718F0C901BB
:10409000059702C081E090E0998F888FC901880F51
:1040A000991F280F391F36952795369527952D305E
:1040B000310518F02C50310902C021E030E03B8F6F
:1040C0002A8F90916800683050F021E06E3008F43B
:1040D00020E081E001C0880F2A95EAF701C084E062
:1040E000892B809368009C85983038F09E3040F092
:1040F000963148F020E030E008C02DE630E005C001
:104100002BE630E002C02CE630E03C8B2B8B983065
:1041100030F481E001C0880F9A95EAF70EC0292F8C
:1041200030E09E3018F42850310902C02E50310979
:1041300081E001C0880F2A95EAF78D8B8C8D9D8DCB
:104140000197F1F7CE01DF91CF910C94F91E0895FC
:10415000991B79E004C0991F961708F0961B881FD9
:104160007A95C9F780950895AA1BBB1B51E107C03A
:10417000AA1FBB1FA617B70710F0A61BB70B881FF7
:10418000991F5A95A9F780959095BC01CD01089586
:1041900097FB072E16F4009407D077FD09D00E94F4
:1041A000B42007FC05D03EF4909581959F4F08956B
:1041B000709561957F4F0895A1E21A2EAA1BBB1B33
:1041C000FD010DC0AA1FBB1FEE1FFF1FA217B307E3
:1041D000E407F50720F0A21BB30BE40BF50B661FF9
:1041E000771F881F991F1A9469F7609570958095BD
:1041F00090959B01AC01BD01CF010895052E97FB61
:104200001EF400940E94152157FD07D00E94DC2067
:1042100007FC03D04EF40C94152150954095309531
:1042200021953F4F4F4F5F4F089590958095709522
:1042300061957F4F8F4F9F4F0895EE0FFF1F0590A1
:10424000F491E02D09940F931F93CF93DF93823065
:10425000910510F482E090E0E0916D05F0916E051B
:1042600020E030E0A0E0B0E0309719F140815181CA
:104270000281138148175907C8F08417950769F41C
:10428000109731F012960C93129713961C9327C037
:1042900000936D0510936E0522C02115310519F0AC
:1042A0004217530718F49A01BD01EF01DF01F8012D
:1042B000DBCF21153105F9F0281B390B24303105EE
:1042C00080F48A819B816115710521F0FB01938344
:1042D000828304C090936E0580936D05FE01329633
:1042E00044C0FE01E20FF31F8193919322503109E4
:1042F000398328833AC020916B0530916C05232BBC
:1043000041F4209102013091030130936C05209318
:104310006B0520910001309101012115310541F417
:104320002DB73EB74091040150910501241B350B78
:10433000E0916B05F0916C05E217F307A0F42E1BDA
:104340003F0B2817390778F0AC014E5F5F4F2417F9
:10435000350748F04E0F5F1F50936C0540936B0577
:104360008193919302C0E0E0F0E0CF01DF91CF9123
:104370001F910F910895CF93DF93009709F481C0A7
:10438000FC01329713821282A0916D05B0916E05E7
:10439000109781F420813181820F931F20916B054A
:1043A00030916C052817390751F5F0936C05E093AF
:1043B0006B0567C0ED0120E030E0CE17DF0740F469
:1043C0004A815B819E0141155105F1F0EA01F5CF6B
:1043D000D383C28340815181840F951FC817D907A9
:1043E00059F488819981840F951F02969183808367
:1043F0008A819B81938382832115310529F4F0936F
:104400006E05E0936D053DC0E901FB83EA834991A8
:104410005991C40FD51FEC17FD0761F4808191817C
:10442000840F951F0296E901998388838281938185
:104430009B838A83E0E0F0E012968D919C91139724
:10444000009719F0FD01DC01F7CF8D919C91119738
:104450009D012E5F3F4F820F931F20916B0530917E
:104460006C052817390769F4309729F410926E0506
:1044700010926D0502C013821282B0936C05A09356
:104480006B05DF91CF910895A0E0B0E0EAE4F2E29D
:104490000C947B23EC01009721F4CB010E94232193
:1044A000B4C0FC01E60FF71F9C0122503109E2174E
:1044B000F30708F4A8C0D9010D911C9111970617B4
:1044C0001707B0F00530110508F49BC0C801049728
:1044D0008617970708F495C002501109061B170BA1
:1044E000019311936D937C93CF010E94BB2189C0EE
:1044F0005B01A01AB10A4C01800E911EA0916D05BE
:10450000B0916E05612C712CE12CF12C109709F4FF
:1045100046C08D919C911197A815B905B1F56C0114
:1045200042E0C40ED11CCA14DB0478F14C018A1895
:104530009B08640142E0C40ED11C1296BC901297F5
:104540001396AC91B5E0CB16D10440F0B282A383B0
:1045500091828082D9016D937C9309C00E5F1F4FB9
:10456000800F911FF90191838083EB2DFA2FE114C5
:10457000F10431F0D7011396FC93EE93129741C0EA
:10458000F0936E05E0936D053CC06816790608F45B
:104590003C017D0112960D90BC91A02DB7CF80916A
:1045A0006B0590916C0588169906E1F466167706FE
:1045B000C8F48091000190910101009741F48DB7FA
:1045C0009EB74091040150910501841B950BE8179B
:1045D000F907C8F4F0936C05E0936B05F90171835A
:1045E00060830FC0CB010E9423217C01009759F00A
:1045F000A801BE010E945423CE010E94BB21C70125
:1046000004C0CE0102C080E090E0CDB7DEB7EEE09E
:104610000C949723FC0188279927E8942191203254
:10462000E9F3293010F02E30C8F32B3241F02D324F
:1046300039F4689404C00E946F23820F911D219168
:1046400020532A30C0F31EF4909581959F4F089512
:10465000FB01DC018D91059080190110D9F3990BB4
:104660000895FC0105900020E9F7809590958E0F44
:104670009F1F0895FB0155915523A9F0BF01DC014F
:104680004D9145174111E1F759F4CD0105900020F6
:1046900049F04D9140154111C9F3FB014111EFCF94
:1046A00081E090E001970895FB01DC0102C00190D8
:1046B0000D9241505040D8F70895FC018191861722
:1046C00021F08823D9F7992708953197CF010895CC
:1046D000FB01DC0101900D920020E1F708957AE0E2
:1046E000979F902D879F802D910D112408952F92D3
:1046F0003F924F925F926F927F928F929F92AF9272
:10470000BF92CF92DF92EF92FF920F931F93CF93BE
:10471000DF93CDB7DEB7CA1BDB0B0FB6F894DEBF55
:104720000FBECDBF09942A88398848885F846E847B
:104730007D848C849B84AA84B984C884DF80EE80C5
:10474000FD800C811B81AA81B981CE0FD11D0FB6CE
:10475000F894DEBF0FBECDBFED01089514E0C8E2AE
:10476000D4E004C0FE010E941D212196C932D10768
:06477000C9F7F894FFCF29
:1047760000006F0520000149414141455F524D6FE0
:104786006E5633002C00415449005E5A002B434DAF
:104796004753004F4B0041542B434D47443D303067
:1047A6003000222C2200000000005F04491A530446
:1047B6006B04770483043A0049414141455F524DF9
:1047C6006F6E56335F00537769746368696E67204E
:1047D6006F66662E2E2E000000000077124A12E841
:1047E60011F0110412131252756E6E696E67205421
:1047F60065737420466F7220004261736963206995
:104806006E742D3E73747220757361676520776FC1
:10481600756C6420626500456E636F646564207222
:104826006573756C7420746F2062652073656E7491
:10483600206F766572205765622069732000092013
:10484600776974682073697A65206F66200020286E
:10485600696E636C7564696E67207465726D696EE6
:104866006174696E672027302729004465636F6489
:10487600656420726573756C74207265636569760C
:104886006564206F766572205765622068617320C3
:1048960073697A65206F66200061413D3D006800BE
:1048A6006147553D00686500614756730068656C51
:1048B600006147567362413D3D0068656C6C00615E
:1048C6004756736247383D0068656C6C6F000000A0
:1048D6000000DA18491A7D189718891821190D0A47
:1048E600006E616E00696E66006F766600000000FD
:0E48F60000621E491ACB1E411EB31EB21E00E8
:00000001FF
