S010000049414141455F524D2E73726563C5
S11300000C9415020C943D020C943D020C949F1523
S11300100C949F150C949F150C943D020C943D0276
S11300200C943D020C943D020C943D020C943D0250
S11300300C943D020C943D020C943D020C943D0240
S11300400C9442120C943D020C9425100C945710FD
S11300500C943D020C943D020C943D020C943D0220
S11300600C94600C0C943D02093C2D2D2D200009AC
S11300702D2D2D3E2000093C2D2D2D2000092D2D48
S11300802D3E2000535041434500093C2D2D2D2089
S11300900041542B43474154543D300041542B53A9
S11300A0415042523D302C310041542B434950536E
S11300B04855540053485554204F4B0041542B434A
S11300C0494943520041542B53415042523D312C33
S11300D0310041542B53415042523D332C312C2298
S11300E0505744222C0041542B53415042523D332B
S11300F02C312C2255534552222C0041542B43536E
S113010054543D2200092D2D2D3E200041542B43F3
S11301105354543D220041542B53415042523D33D9
S11301202C312C2241504E222C0041542B5341504F
S113013042523D332C312C22434F4E5459504522C8
S11301402C2247505253220041542B4347415454CC
S11301503D310041542B43495053485554005348B2
S11301605554204F4B0041542B435245473F002BDD
S1130170435245473A200041542B435245473F00E0
S11301802B435245473A200041542B435351002BF3
S11301904353513A200041542B435351002B4353B2
S11301A0513A200053494D38303820523134000937
S11301B03C2D2D2D2000092D2D2D3E200041544590
S11301C0300041544530004154204661696C2E2E64
S11301D02E206C6173742064697463682061747484
S11301E0656D70742E004154004154004154004127
S11301F05400415400415400417474656D70746935
S11302006E6720746F206F70656E20636F6D6D2054
S11302107769746820415473004F4B00464F4E4138
S11302206E6574004572726F723D00207C2000542C
S1130230656D703D00207C200043757272656E749C
S11302403D00207C200050562D563D00207C20008F
S1130250426174742D563D005253534920457272C5
S11302606F723F3D00207C20002C204572726F721B
S11302703D002C205374617475733D004E65747792
S11302806F726B2D52656720526573436F64653DD1
S113029000207C20004245523D00207C2000525327
S11302A053493D004265686176696F7572004E6F0F
S11302B0772077616974696E6720666F72206120A8
S11302C07768696C65206265666F7265206368652E
S11302D0636B696E67207369676E616C00496E6950
S11302E07469616C6973696E67206D6F64756C65A0
S11302F020746F2073656E642064617461005461BE
S11303006B696E672072656164696E67732E2E2E49
S1130310004750525320696E697469616C69736552
S113032064207375636365737366756C6C792021DF
S113033000416C6C20617474656D70747320746F0B
S113034020656E61626C6520475052532066616976
S11303506C6564004572726F7220696E69746961BC
S11303606C6973696E6720475052532E2E2E0041DC
S11303707474656D7074696E6720746F20656E6146
S1130380626C6520475052532E2E2E004572726FB8
S11303907220696E697469616C6973696E6720663D
S11303A06F6E612E2E2E00496E697469616C6973DB
S11303B0696E6720666F6E612E2E2E005374617213
S11303C074696E672E2E2E000000000800020100E2
S11303D000030407000000000000000001020408FC
S11303E0102040800102040810200102040810209B
S11303F004040404040404040202020202020303C7
S1130400030303030000000023002600290000006A
S11304100000250028002B00000000002400270015
S11304202A00680AF60E8710780A11241FBECFEF3F
S1130430D8E0DEBFCDBF11E0A0E0B1E0E0E7F4E337
S113044002C005900D92A63AB107D9F724E0A6EAB6
S1130450B1E001C01D92AA38B207E1F712E0C4E18D
S1130460D2E004C02197FE010E949A17C131D1073E
S1130470C9F70E94B5100C942B1A0C940000835EEB
S11304809E4FDC018D919C91DC01ED91FC910480E7
S1130490F581E02D0994835E9E4FDC018D919C9142
S11304A0DC01ED91FC910190F081E02D0994835ED3
S11304B09E4FDC018D919C91DC01ED91FC910680B5
S11304C0F781E02D0994835E9E4FDC018D919C9110
S11304D0DC01ED91FC910084F185E02D0994835EAB
S11304E09E4FDC018D919C91DC01ED91FC91028485
S11304F0F385E02D0994CF92DF92EF92FF920F9350
S11305001F93CF93DF9300D000D000D0CDB7DEB7D8
S11305108C01C62ED42EFC011382128288EE93E045
S1130520A0E0B0E084839583A683B7838AE391E057
S11305309183808383E086877801FBEEEF1AFEEFD8
S1130540FF0A69E871E0C7010E944714F801C486F4
S1130550D586E25FFE4F8CE192E0918380833296F0
S1130560118210823296118210823B96118210827F
S1130570399781E0808367E071E0CE0101960E94A3
S11305804714BE016F5F7F4FC7010E94B214CE01B2
S113059001960E94D913F801E55EFE4F89E192E0CD
S11305A09183808326960FB6F894DEBF0FBECDBF2D
S11305B0DF91CF911F910F91FF90EF90DF90CF903B
S11305C008958B5E9E4F0C9492140F931F93CF93B8
S11305D0DF93EC0180E090E08C010F5F1F4F889760
S11305E0D8F4E881F9810480F581E02DCE010995E4
S11305F0892B51F0E881F9810680F781E02DCE0145
S1130600099500E010E0EDCF61E070E080E090E05B
S11306100E94B112C801E0CFDF91CF911F910F91D9
S11306200895BF92CF92DF92EF92FF920F931F93A0
S1130630CF93DF937C01B42E8B01000F111F000FA9
S1130640111FC0E0D0E0670183EEC81A8EEFD80A0C
S113065001151105C9F1CE3FD10598F064E870E0A9
S11306608CE993E00E9436112FC0F60180819181BC
S1130670DC01ED91FC910680F781E02D09958D3028
S113068069F4D6018D919C91DC01ED91FC9104807B
S1130690F581E02D0995892B41F70CC08A3021F4AE
S11306A0209779F3BB2081F0F701EC0FFD1F8787BA
S11306B02196E7CF0150110939F061E070E080E044
S11306C090E00E94B112C4CFF701EC0FFD1F178612
S11306D08C2FDF91CF911F910F91FF90EF90DF90BE
S11306E0CF90BF9008950F931F93CF93DF93EC01A6
S11306F08B01BA0140E00E9411036AE870E08CE9C2
S113070093E00E9405112F96BE018CE993E00E94AC
S11307104811B801CE010E94A51921E0892B09F0E6
S113072020E0822FDF91CF911F910F910895EF92D6
S1130730FF920F931F93CF93DF93EC018B017A0108
S11307400E94E5026DE770E08CE993E00E940511D8
S1130750B8018CE993E00E943611FE01E35EFE4F7E
S1130760B801808191810E94361140E0B701CE0129
S11307700E941103182F66E770E08CE993E00E9451
S11307800511BE01615F7F4F8CE993E00E9448111F
S1130790812FDF91CF911F910F91FF90EF900895DA
S11307A0AF92BF92CF92DF92EF92FF920F931F937B
S11307B0CF93DF93EC016B017A0159010E94E502AA
S11307C06FE670E08CE993E00E940511B6018CE9B4
S11307D093E00E94051162E28CE993E00E942B11E0
S11307E0B7018CE993E00E94051162E28CE993E081
S11307F00E945A118E01035E1E4FB601F8018081DA
S113080091810E94051162E2F801808191810E9428
S11308102B11B701F801808191810E94051162E2D8
S1130820F801808191810E945A1140E0B501CE0106
S11308300E941103182F68E670E08CE993E00E948F
S11308400511BE01615F7F4F8CE993E00E9448115E
S1130850812FDF91CF911F910F91FF90EF90DF9047
S1130860CF90BF90AF9008950F931F93CF93DF93D2
S1130870EC018A01A9010E949703882341F0B80181
S1130880CE010F960E94A51921E0892B09F020E0E2
S1130890822FDF91CF911F910F910895CF92DF9214
S11308A0EF92FF920F931F93CF93DF93EC01F62EF9
S11308B0E42E8FE190E00E94C4108C0120E04E2DC4
S11308C06F2D0E946B167E0183EEE81A8EEFF80AF4
S11308D0D7010D931C9340EC52E160E070E0C80135
S11308E00E94961661E08C850E946E1361E08C85EF
S11308F00E94AA136AE070E080E090E00E94B112C6
S113090060E08C850E94AA1364E670E080E090E0C9
S11309100E94B11261E08C850E94AA1368EF71E015
S11309208CE993E00E9436118EE0C82ED12C8E0102
S1130930055E1E4FF70180819181DC01ED91FC91F0
S11309400480F581E02D0995892B59F0F701808108
S11309509181DC01ED91FC910680F781E02D0995F0
S1130960E9CFF8014081518124EF31E065EF71E076
S1130970CE010E943404811134C0D7018D919C9121
S1130980DC01ED91FC910480F581E02D0995892B22
S113099059F0F70180819181DC01ED91FC91068091
S11309A0F781E02D0995E9CF24EF31E042EF51E0E2
S11309B06FEE71E0CE010E943404811112C064EF25
S11309C071E080E090E00E94B112B1E0CB1AD1084E
S11309D009F0B0CF5EC064E670E080E090E00E9471
S11309E0B112F8014081518124EF31E062EC71E0F1
S11309F0CE010E94340464E670E080E090E00E943E
S1130A00B112D8014D915C9124EF31E06DEB71E0AE
S1130A10CE010E943404811102C012E001C011E031
S1130A2064E670E080E090E00E94B112CE010E9482
S1130A30E50266EB71E08CE993E00E94051166E142
S1130A4071E08CE993E00E94481166E171E0F701DE
S1130A50808191810E94481141E064EF71E0CE01F0
S1130A600E9411036FEA71E08CE993E00E94051182
S1130A702F96BE018CE993E00E94481164EA71E06C
S1130A80CE010E94B719892B11F0812F35C084E063
S1130A9033C0D8014D915C9124EF31E06CEE71E0EC
S1130AA0CE010E94340464E670E080E090E00E948D
S1130AB0B112F8014081518124EF31E069EE71E017
S1130AC0CE010E94340464E670E080E090E00E946D
S1130AD0B112D8014D915C9124EF31E066EE71E0E2
S1130AE0CE010E943404811176CF67EC71E08CE969
S1130AF093E00E94361183E0DF91CF911F910F9113
S1130B00FF90EF90DF90CF900895EF92FF920F93B4
S1130B101F93CF93DF93EC01790198010E94D003D6
S1130B20B701CE010F960E94A51921E0892B09F087
S1130B3020E0822FDF91CF911F910F91FF90EF90D2
S1130B4008957F928F929F92AF92BF92CF92DF923D
S1130B50EF92FF920F931F93CF93DF93EC0128EE54
S1130B603DEF662309F41FC14EE551E063E571E0F2
S1130B700E943404811103C082E0782E02C07724DD
S1130B8073947E0185EEE81A8EEFF80AF70140812E
S1130B90518120E137E268E471E0CE010E9434041F
S1130BA0882309F425C1F7014081518120E137E20E
S1130BB06AE271E0CE010E943404882309F41AC168
S1130BC04E01F2EF8F1AFEEF9F0AF401408151812A
S1130BD04115510571F4F701408151812FEF3FEF29
S1130BE065EC70E0CE010E9434048111CEC089E02E
S1130BF00EC1F7012081318100E117E266E171E065
S1130C00CE010E948505882309F4F6C0CE010E9416
S1130C10E5028E01035E1E4F6CE071E0F8018081F5
S1130C2091810E940511F40160817181F801808134
S1130C3091810E9405115E01F0EFAF1AFEEFBF0A29
S1130C40F50180819181892B79F062E371E0F801EB
S1130C50808191810E942911F50160817181F801DF
S1130C60808191810E9405116E01FEEECF1AFEEF84
S1130C70DF0AF60180819181892B79F062E371E0CA
S1130C80F801808191810E942911F60160817181AE
S1130C90F801808191810E94051164E371E0F801FB
S1130CA0808191810E94481165E071E08CE993E0B4
S1130CB00E9405116BEF70E08CE993E00E9405112E
S1130CC0F401608171818CE993E00E940511F501C2
S1130CD080819181892B69F062E371E08CE993E072
S1130CE00E942911F501608171818CE993E00E94D1
S1130CF00511F60180819181892B69F062E371E02D
S1130D008CE993E00E942911F601608171818CE9DC
S1130D1093E00E94051164E371E08CE993E00E9482
S1130D204811F7016081718140E157E2CE010E94D0
S1130D307303882309F462C0F50140815181411590
S1130D40510539F4F601408151814115510579F479
S1130D5042CFF7012081318100E117E266EE70E0B5
S1130D60CE010E9485058111EDCF87E050C0F701C7
S1130D702081318100E117E262ED70E0CE010E9432
S1130D808505811128CF88E042C0F7014081518157
S1130D902FEF3FEF6CEB70E0CE010E943404882308
S1130DA079F1872D34C044EB50E069EA70E00E9489
S1130DB03404882339F18E01055E1E4FF801408109
S1130DC0518120E137E26CE970E0CE010E943404E5
S1130DD08823D1F0F8014081518120E137E261E9B3
S1130DE070E0CE010E943404882381F081E00FC0BA
S1130DF083E00DC084E00BC085E009C086E007C035
S1130E008AE005C08BE003C08CE001C08DE0DF9177
S1130E10CF911F910F91FF90EF90DF90CF90BF90F3
S1130E20AF909F908F907F900895AF92BF92CF9292
S1130E30DF92EF92FF920F93CF93DF935B016A01EE
S1130E40E22E0F960E94B719EC01892BC1F0C5015F
S1130E500E94AE198C0F9D1FC0E0F12CC01741F009
S1130E60B7010E94DA19009751F00196CF5FF6CFCF
S1130E700E948719F6019183808381E001C080E09C
S1130E80DF91CF910F91FF90EF90DF90CF90BF90C3
S1130E90AF900895AF92BF92CF92DF92EF920F93EB
S1130EA01F93CF93DF93EC016A015901102F0E2D8C
S1130EB044EF51E00E949703212FA501B601CE0112
S1130EC00E941507182F882331F040E064EF71E089
S1130ED0CE010E941103812FDF91CF911F910F91B9
S1130EE0EF90DF90CF90BF90AF900895CF92DF92B4
S1130EF0EF92FF920F931F93CF93DF93CDB7DEB79B
S1130F0028970FB6F894DEBF0FBECDBF6C011886CC
S1130F101F821E821D821C821B821A821982E12C6E
S1130F200CE29E01295F3F4F4DE951E066E971E013
S1130F300E944A07F82EEE24E3949E012B5F3F4F54
S1130F404FE851E068E871E0C6010E944A0788232F
S1130F5019F081E0F82602C0FF24F394E12C0CE29E
S1130F609E012D5F3F4F40E851E067E771E0C60105
S1130F700E944A07882311F01B8101C010E2EE246D
S1130F80E3940CE29E012F5F3F4F4FE651E066E68B
S1130F9071E0C6010E944A07811103C0912F90623B
S1130FA002C09981912B7D816F818F2D28960FB678
S1130FB0F894DEBF0FBECDBFDF91CF911F910F918B
S1130FC0FF90EF90DF90CF900895CF93DF93EC01E3
S1130FD06EE972E08CE993E00E9405114AE050E06A
S1130FE068818CE993E00E94C2116AE972E08CE99D
S1130FF093E00E94051165E972E08CE993E00E9498
S113100005114AE050E069818CE993E00E94C21125
S113101061E972E08CE993E00E9405116CE772E0EB
S11310208CE993E00E9405116B81637070E04AE0E3
S113103050E08CE993E00E94291262E772E08CE9A7
S113104093E00E9405116B816C7170E07595679552
S1131050759567954AE050E08CE993E00E94291267
S113106069E672E08CE993E00E9405116B8165FBEF
S1131070662760F94AE050E070E08CE993E00E9452
S1131080291265E672E08CE993E00E94051168E597
S113109072E08CE993E00E9405114AE050E06A8115
S11310A08CE993E0DF91CF910C94C911CF93DF9336
S11310B0EC0160E572E08CE993E00E94051169811E
S11310C07A814AE050E08CE993E00E94DB116CE401
S11310D072E08CE993E00E94051166E472E08CE909
S11310E093E00E9405116D817E814AE050E08CE915
S11310F093E00E94DB1162E472E08CE993E00E94C9
S1131100051169E372E08CE993E00E9405116B819B
S11311107C814AE050E08CE993E00E94DB1165E3B6
S113112072E08CE993E00E9405116FE272E08CE9B1
S113113093E00E9405116F8178854AE050E08CE9C4
S113114093E00E94DB116BE272E08CE993E00E9471
S1131150051164E272E08CE993E00E9405114AE013
S113116050E069858CE993E0DF91CF910C94C9112B
S113117061E085E00E946E1361E085E00E94AA139D
S113118068EB7BE080E090E00E94B11261E08DE0CA
S11311900E946E1326E040E855E260E070E08CE9BE
S11311A093E00E94C00F6CEB73E08CE993E00C9425
S11311B03611EF92FF921F93CF93DF93CDB7DEB733
S11311C02C970FB6F894DEBF0FBECDBF182F7B014E
S11311D08091AB018F5F8093AB0181E0FB01808341
S11311E08091AD01811130C067EA73E08CE993E02E
S11311F00E94361142E063E089EB91E00E944E04C4
S11312008093AD0181EB91E00E94EE0A682F70E0BB
S11312106A5B7E4FCE0107960E944714BE01695F48
S11312207F4FCE0101960E94A914BE016F5F7F4FCC
S113123089EB91E00E94E102CE0101960E94D9134C
S1131240CE0107960E94D9138091AD01835082305C
S1131250A8F46CE873E08CE993E00E94051164E55E
S113126071E08CE993E00E9429114AE050E060911A
S1131270AD018CE993E00E94C91150C0112309F417
S11312804AC08091AC01811141C08091AB018D3382
S1131290E8F564E10E942517992319F0F7011082FB
S11312A035C06FE673E08CE993E00E94361161E08B
S11312B089EB91E00E94A105182F8FEF810F8230F6
S11312C0E8F064E573E08CE993E00E94051164E5BD
S11312D071E08CE993E00E942911612F70E04AE0EB
S11312E050E08CE993E00E9430128091AB018C3382
S11312F0A8F21093AC0161E373E004C01093AC0155
S113130061E173E08CE993E00E9436118091AC01B5
S11313108150823018F489EB91E002C080E090E0C3
S11313202C960FB6F894DEBF0FBECDBFDF91CF91E0
S11313301F91FF90EF90089566E571E08CE993E0CA
S11313400E94481160E085E00E94AA1368EB7BE0EC
S113135080E090E00C94B112CF93DF93CDB7DEB769
S11313602A970FB6F894DEBF0FBECDBF6EEF72E0C2
S11313708CE993E00E94361181E089831B821A82F2
S11313801D821C821F821E82198618861A86BE013F
S11313906F5F7F4F8FEA91E00E94260B81E02A96CF
S11313A00FB6F894DEBF0FBECDBFDF91CF91089585
S11313B0CF93DF9300D000D01F92CDB7DEB78091DA
S11313C0A80191E0980F9093A801811106C06DEDDA
S11313D072E08CE993E00E943611BE016B5F7F4F8F
S11313E081E00E94D9089C019093AA018093A901ED
S11313F08D81882301F1232BF9F06EEA72E08CE9E8
S113140093E00E9436118091A8018C33A0F0809162
S1131410A9019091AA010E94760769837A838B833C
S11314209C83CE0101960E94E5071092A8011092B8
S1131430AA011092A90180E00F900F900F900F90D5
S11314400F90DF91CF91089568EE73E080E090E013
S11314500E94B1128091A6019091A70101969093E8
S1131460A7018093A60164EA72E08CE993E00E94EC
S1131470051164E571E08CE993E00E9429114AE0CA
S113148050E06091AE018CE993E00E94C911809113
S1131490AE0180FF09C00E94AC09882329F0809125
S11314A0AE018E7F8093AE018091AE0181FF09C0B1
S11314B00E94D809882329F08091AE018D7F809302
S11314C0AE018091AE01811102C00C949C09089573
S11314D041E064E089EB91E00E947B0260E081EBF3
S11314E091E00E94890A61E08FEA91E00C94F20A8B
S11314F08AE391E09093BA018093B9018EEC92E073
S11315000C94D913DC01ED91FC910190F081E02D54
S11315100994FC01118212821382148280E885836B
S1131520868317826083611104C086E493E00C947F
S11315305B0E0895EF92FF920F931F93CF93DF9367
S1131540EB017B01E40EF11C8C01CE15DF0571F17A
S113155060E570E086E493E00E94770E612F70E00E
S113156086E493E00E94820AB801772786E493E038
S11315700E94820A86E493E00E94F30E41E050E068
S113158060E570E086E493E00E94F00E86E493E068
S11315900E948D0D892B29F086E493E00E94950D1D
S11315A001C08FEF89930F5F1F4FCFCFDF91CF9192
S11315B01F910F91FF90EF900895CF93DF931F92A7
S11315C0CDB7DEB7CB0141E0BE016F5F7F4F0E9414
S11315D09A0A89810F90DF91CF91089560E070E0BD
S11315E00C94DD0AFC0160830895FC018081811163
S11315F003C0862F0C94281385E090E00895FC0125
S1131600DB0181818F5F818390E012969C938E939E
S1131610119781812AE0829FC001112416969C9320
S11316208E931597818167E00E942517892F90E09A
S113163014969C938E931397818124E6829FC00114
S1131640112418969C938E9317970895AF92BF9286
S1131650CF92DF92EF92FF920F931F93CF93DF937A
S11316608C01EB01FC018081882321F0C8010E94D8
S1131670FF0A1BC06EE0C8010E94F50A6C016FE00E
S1131680C8010E94F50A5C0161E1C8010E94F50AE3
S11316907C0160E1C8010E94F50ABA82A982DE8257
S11316A0CD82FC82EB8298878F83CE01DF91CF912C
S11316B01F910F91FF90EF90DF90CF90BF90AF906C
S11316C00C9456081092450381E0809343031092D2
S11316D0420361E082E10E94AA1361E083E10E9477
S11316E0AA13E9EBF0E080818E7F808380818D7F77
S11316F0808388E48093B80085E48093BC000895D7
S1131700413208F043C0909145039111FCCF91E020
S113171090934503209343032FEF2093D802109214
S11317201D03240F20931C039093440390914403BE
S1131730880F892B8093440380914203813061F4A4
S113174010924203809144038093BB008091BC00BB
S113175083FDF8CF85EC01C085EE8093BC008091B9
S113176045038130E1F380911D03841710F4409107
S11317701D03AEE1B3E0962FFB018E2F891B841766
S113178018F48D918193F9CF842F089580E0089502
S11317900F93413208F04AC0909145039111FCCF58
S11317A032E030934503009343033FEF3093D80274
S11317B010921D0340931C03562FAEE1B3E0FB01CE
S11317C03E2F351B341718F431913D93F9CF109205
S11317D0440330914403880F832B80934403809106
S11317E04203813061F41092420380914403809358
S11317F0BB008091BC0083FDF8CF85EC01C085EE71
S11318008093BC00222321F0809145038230D1F3E0
S11318108091D8028F3F79F08091D802803241F0D4
S11318208091D802803331F094E005C091E003C088
S113183092E001C093E0892F0F9108954091FA023C
S1131840262F30E0240F311D21323105DCF42091A4
S113185045032430C9F4FC0180E090E0861758F475
S11318603091FA022191DC01A450BD4FA30FB11DA8
S11318702C930196F3CF8091FA02680F6093FA02D9
S113188080E0089581E0089582E0089590933F03F5
S113189080933E03089590934103809340030895F9
S11318A085ED8093BC008091BC0084FDFCCF109238
S11318B04503089585EC8093BC0010924503089578
S11318C01F920F920FB60F9211242F933F934F93B1
S11318D05F936F937F938F939F93AF93BF93EF9394
S11318E0FF938091B900887F803609F49EC078F513
S11318F0883209F45DC090F4803109F456C038F49C
S1131900882309F4F5C0883009F44FC0F5C0883144
S113191009F44EC0803209F45FC0EEC0803409F48B
S11319206AC058F4803309F457C0883309F0E4C01E
S11319308093D8020E945A0CDFC0803509F44FC04E
S1131940883509F45DC0883409F0D6C0D3C088391D
S113195009F4C4C0A8F4883709F467C038F4883699
S113196009F463C0803709F460C0C6C0883809F43C
S1131970B5C0803909F45FC0803809F0BDC05BC0D0
S1131980803B09F483C038F4803A09F466C0883A8D
S113199009F47CC0B1C0803C09F4A4C0883C09F4BB
S11319A0A1C0883B09F487C0A7C08091440310C03C
S11319B090911D0380911C03981770F5E0911D030D
S11319C081E08E0F80931D03F0E0E25EFC4F808186
S11319D08093BB0085EC83C08093D8028BC0E091D8
S11319E01D0381E08E0F80931D038091BB00F0E006
S11319F0E25EFC4F808390911D0380911C036BC0B9
S1131A00E0911D0381E08E0F80931D038091BB0044
S1131A10F0E0E25EFC4F80838091430381116AC051
S1131A2081E08093420384EA5EC083E080934503AF
S1131A301092D902CFCF8091D902803208F04EC0E3
S1131A40E091D90281E08E0F8093D9028091BB008E
S1131A50F0E0E652FD4F8083BDCF0E945A0C809186
S1131A60D902803230F4E091D902F0E0E652FD4F21
S1131A7010826091D90270E0E0913E03F0913F033F
S1131A808AED92E009951092D90236C084E08093E1
S1131A9045031092FB021092FA02E0914003F09188
S1131AA0410309958091FA02811105C081E0809378
S1131AB0FA021092FC02E091FB0281E08E0F809307
S1131AC0FB02F0E0E450FD4F80818093BB009091D5
S1131AD0FB028091FA02981708F47CCF85E8809382
S1131AE0BC000AC085EC8093BC001092450304C07E
S1131AF01092D8020E94500CFF91EF91BF91AF91C8
S1131B009F918F917F916F915F914F913F912F9111
S1131B100F900FBE0F901F90189580917A0390E05C
S1131B2020917B03821B9109089590917B038091FE
S1131B307A03981750F4E92FF0E0E458FC4F208121
S1131B4030E09F5F90937B0302C02FEF3FEFC9010A
S1131B500895E0917B0380917A03E81730F4F0E074
S1131B60E458FC4F808190E008958FEF9FEF089533
S1131B700895CF93DF93EC01E0915203F091530366
S1131B803097F1F090917B0380917A039817C0F01D
S1131B9090E0292F30E02617370754F4DE01A20F16
S1131BA0B31F4C91D901A458BC4F4C939F5FF1CF04
S1131BB010927B0360937A03CB01DF91CF91099458
S1131BC0DF91CF910895E0915403F091550330973C
S1131BD029F0109258031092570309940895CF9254
S1131BE0DF92EF92FF920F931F93CF93DF937C01C9
S1131BF0CB018A0120915603222389F0EB016B016A
S1131C00C40ED51ECC15DD0569F06991D701ED919F
S1131C10FC910190F081E02DC7010995F3CF642F69
S1131C200E941E0CC801DF91CF911F910F91FF906C
S1131C30EF90DF90CF900895CF93DF931F92CDB7AD
S1131C40DEB76983209156032223D1F020915703F4
S1131C50203240F021E030E0FC013383228380E035
S1131C6090E015C080915803E82FF0E0E75AFC4F4C
S1131C70998190838F5F809358038093570305C0A5
S1131C8061E0CE0101960E941E0C81E090E00F906D
S1131C90DF91CF910895FC011382128288EE93E0C4
S1131CA0A0E0B0E084839583A683B7838BE691E0BC
S1131CB091838083089510927B0310927A0310928B
S1131CC05803109257030E94620B83EE9DE00E941A
S1131CD04B0C89EB9DE00C94460C81E080935603F9
S1131CE060937903109258031092570308950C944B
S1131CF06D0E0F93062F21E04091570369E573E0C1
S1131D00809179030E94C80B1092580310925703D4
S1131D10109256030F9108954F925F926F927F92A3
S1131D20AF92BF92CF92EF92FF920F931F93CF93F4
S1131D30DF935C01F62ED42F28013901EE2021F126
S1131D400E946D0ECE2DC43008F0C3E0C150C0F027
S1131D5028E0C29FC0011124A301920104C056953A
S1131D604795379527958A95D2F7CA01B901D501C8
S1131D70ED91FC910190F081E02DC5010995E6CF2C
S1131D8060E0C5010E94790E4D2FD13208F040E287
S1131D902C2D6CE773E08F2D0E94800B10927B0337
S1131DA080937A03DF91CF911F910F91FF90EF9071
S1131DB0CF90BF90AF907F906F905F904F900895B9
S1131DC0CF92EF920F931F93C22EE12C00E010E00C
S1131DD098010E948C0E1F910F91EF90CF9008955F
S1131DE021E00C94E00E61E00C94790E86E493E01B
S1131DF00C944B0EFC01918D228D892F90E0805C18
S1131E009F4F821B91098F7399270895FC01918D2F
S1131E10828D981731F0828DE80FF11D858D90E049
S1131E2008958FEF9FEF0895FC01918D828D98178F
S1131E3061F0828DDF01A80FB11D5D968C91928DAA
S1131E409F5F9F73928F90E008958FEF9FEF0895A7
S1131E508DE790E1892B49F080E090E0892B29F00F
S1131E600E947D1081110C9400000895FC01848D62
S1131E70DF01A80FB11DA35ABF4F2C91848D90E0B0
S1131E8001968F739927848FA689B7892C93A0898B
S1131E90B1898C9180648C93938D848D981306C042
S1131EA00288F389E02D80818F7D80830895EF92ED
S1131EB0FF920F931F93CF93DF93EC0181E0888F00
S1131EC09B8D8C8D981305C0E889F989808185FDE7
S1131ED024C0F62E0B8D10E00F5F1F4F0F731127D8
S1131EE0E02E8C8DE8120CC00FB607FCFACFE889FF
S1131EF0F989808185FFF5CFCE010E94360FF1CF9D
S1131F008B8DFE01E80FF11DE35AFF4FF0820B8F1A
S1131F10EA89FB898081806207C0EE89FF8960833A
S1131F20E889F98980818064808381E090E0DF9191
S1131F30CF911F910F91FF90EF900895CF93DF936E
S1131F40EC01888D8823C9F0EA89FB89808185FDAD
S1131F5005C0A889B9898C9186FD0FC00FB607FC0E
S1131F60F5CF808185FFF2CFA889B9898C9185FF4F
S1131F70EDCFCE010E94360FE7CFDF91CF910895C8
S1131F80CF92DF92EF92FF921F93CF93DF93EC01F6
S1131F906A017B01122FE889F98982E08083411567
S1131FA0514E61057105B1F060E079E08DE390E098
S1131FB0A70196010E945917DA01C9010197A109E5
S1131FC0B109B695A795979587959C01211580E150
S1131FD03807A8F0E889F989108260E874E88EE18E
S1131FE090E0A70196010E945917DA01C9010197EF
S1131FF0A109B109B695A795979587959C01EC859C
S1132000FD853083EE85FF852083188EEC89FD895C
S11320101083EA89FB89808180618083EA89FB8956
S1132020808188608083EA89FB89808180688083DD
S1132030EA89FB8980818F7D8083DF91CF911F9115
S1132040FF90EF90DF90CF9008951F920F920FB6FC
S11320500F9211242F938F939F93EF93FF93E0910B
S1132060AC03F091AD038081E091B203F091B3032E
S113207082FD12C090818091B5038F5F8F73209190
S1132080B603821751F0E091B503F0E0E456FC4F3B
S1132090958F8093B50301C08081FF91EF919F914B
S11320A08F912F910F900FBE0F901F9018951F9234
S11320B00F920FB60F9211242F933F934F935F9378
S11320C06F937F938F939F93AF93BF93EF93FF93FC
S11320D08CE993E00E94360FFF91EF91BF91AF918D
S11320E09F918F917F916F915F914F913F912F912C
S11320F00F900FBE0F901F9018958CE993E00E94EB
S1132100FA0E21E0892B09F420E0822F0895ECE9EE
S1132110F3E01382128288EE93E0A0E0B0E08483BF
S11321209583A683B7838BE791E09183808385ECC5
S113213090E09587848784EC90E09787868780EC8D
S113214090E0918B808B81EC90E0938B828B82EC7E
S113215090E0958B848B86EC90E0978B868B118E28
S1132160128E138E148E089508950E94ED120E940B
S1132170B4100E94B808C8E2DFE00E94240A209745
S1132180E1F30E94280FF9CF0C94A017CF92DF92AD
S1132190EF92FF920F931F93CF93DF936C017A0119
S11321A08B01C0E0D0E0CE15DF0581F0D8016D9140
S11321B08D01D601ED91FC910190F081E02DC601D5
S11321C00995892B11F02196EECF7E01C701DF918D
S11321D0CF911F910F91FF90EF90DF90CF900895D2
S11321E06115710579F0FB0101900020E9F7319741
S11321F0AF01461B570BDC01ED91FC910280F3818A
S1132200E02D099480E090E00895EF92FF920F93FF
S11322101F93CF93DF938C017B01C0E0D0E0F701E3
S1132220EC0FFD1F6491662361F0D801ED91FC91E0
S11322300190F081E02DC8010995892B11F02196B8
S1132240EECFCE01DF91CF911F910F91FF90EF90D0
S113225008950C94F010DC01ED91FC910190F08153
S1132260E02D099467E871E00C94F0100F931F932C
S1132270CF93DF93EC010E9405118C01CE010E94E3
S11322803211800F911FDF91CF911F910F9108950B
S11322900F931F93CF93DF93EC010E94F0108C01F6
S11322A0CE010E943211800F911FDF91CF911F91B7
S11322B00F9108950F931F93CF93DF93EC010E9426
S11322C02B118C01CE010E943211800F911FDF91DE
S11322D0CF911F910F9108958F929F92AF92BF92C9
S11322E0EF92FF920F931F93CF93DF93CDB7DEB797
S11322F0A1970FB6F894DEBF0FBECDBF7C01FA01E3
S1132300CB0119A2223008F42AE08E010F5D1F4F81
S1132310822E912CA12CB12CBF01A50194010E9405
S11323205917F901CA01015011096A3010F4605DAE
S113233001C0695CD8016C93232B242B252B61F7F6
S1132340B801C7010E94F010A1960FB6F894DEBF41
S11323500FBECDBFDF91CF911F910F91FF90EF90F2
S1132360BF90AF909F908F9008952115310541F44F
S1132370DC01ED91FC910190F081E02D642F099432
S11323800C946C119A01462F50E060E070E00C94BC
S1132390B5110F931F93CF93DF93EC010E94C211E9
S11323A08C01CE010E943211800F911FDF91CF91D9
S11323B01F910F9108959A01AB0160E070E00C94B5
S11323C0B511CF92DF92EF92FF920F931F93CF93A9
S11323D0DF932115310581F4DC01ED91FC9101902D
S11323E0F081E02D642FDF91CF911F910F91FF9029
S11323F0EF90DF90CF9009942A30310501F577FFF3
S11324001DC06A017B01EC016DE20E942B118C015D
S113241044275527BA014C195D096E097F092AE042
S1132420CE010E946C11800F911FDF91CF911F91FB
S11324300F91FF90EF90DF90CF9008952AE0DF9105
S1132440CF911F910F91FF90EF90DF90CF900C945C
S11324506C119A01AB01770F660B770B0C94E111A9
S11324600F931F93CF93DF93EC010E9429128C01E9
S1132470CE010E943211800F911FDF91CF911F91E5
S11324800F9108951F920F920FB60F9211242F935C
S11324903F938F939F93AF93BF9380913A0490910E
S11324A03B04A0913C04B0913D043091390423E0F5
S11324B0230F2D3720F40196A11DB11D05C026E878
S11324C0230F0296A11DB11D2093390480933A0471
S11324D090933B04A0933C04B0933D0480913E044C
S11324E090913F04A0914004B09141040196A11D34
S11324F0B11D80933E0490933F04A0934004B09395
S11325004104BF91AF919F918F913F912F910F9073
S11325100FBE0F901F9018953FB7F89480913E041A
S113252090913F04A0914004B091410426B5A89B2A
S113253005C02F3F19F00196A11DB11D3FBFBA2F51
S1132540A92F982F8827820F911DA11DB11DBC01B1
S1132550CD0142E0660F771F881F991F4A95D1F776
S113256008958F929F92AF92BF92CF92DF92EF9293
S1132570FF926B017C010E948C124B015C01C1141F
S1132580D104E104F10401F10E9424170E948C1289
S1132590DC01CB0188199909AA09BB09883E93403B
S11325A0A105B10560F321E0C21AD108E108F108E0
S11325B088EE880E83E0981EA11CB11CC114D104BE
S11325C0E104F10419F7DBCFFF90EF90DF90CF9097
S11325D0BF90AF909F908F900895789484B5826057
S11325E084BD84B5816084BD85B5826085BD85B5B3
S11325F0816085BDEEE6F0E0808181608083E1E862
S1132600F0E0108280818260808380818160808399
S1132610E0E8F0E0808181608083E1EBF0E080819C
S113262084608083E0EBF0E0808181608083EAE76E
S1132630F0E08081846080838081826080838081F7
S1132640816080838081806880831092C1000895B6
S11326508E3008F08E502091060190E4299F90015D
S113266011248770822B80937C0080917A0080648F
S113267080937A0080917A0086FDFCCF8091780067
S11326802091790090E0922B0895833081F028F412
S1132690813099F08230A1F008958730A9F0883014
S11326A0B9F08430D1F4809180008F7D03C0809193
S11326B080008F7780938000089584B58F7702C05F
S11326C084B58F7D84BD08958091B0008F7703C059
S11326D08091B0008F7D8093B0000895CF93DF93F5
S11326E090E0FC01E452FC4F2491FC01E051FC4FCA
S11326F08491882361F190E0880F991FFC01E85EC2
S1132700FB4FC591D491FC01E25FFB4FA591B491BD
S1132710611109C09FB7F89488812095822388832A
S1132720EC912E230BC0623061F49FB7F89488813A
S1132730322F309583238883EC912E2B2C939FBFCB
S113274006C08FB7F894E8812E2B28838FBFDF91C2
S1132750CF9108951F93CF93DF93282F30E0F90191
S1132760E853FC4F8491F901E452FC4FD491F901F0
S1132770E051FC4FC491CC23C1F0162F81110E946B
S11327804513EC2FF0E0EE0FFF1FE25FFB4FA59126
S1132790B4919FB7F894111104C08C91D095D823AB
S11327A002C0EC91DE2BDC939FBFDF91CF911F9190
S11327B00895FC01808191810C943818CF93DF93A4
S11327C0EC0188819981009711F00E9438181982D0
S11327D018821D821C821B821A82DF91CF91089578
S11327E00F931F93CF93DF93EC018B016F5F7F4FA8
S11327F0888199810E94C118009731F09983888358
S11328001B830A8381E001C080E0DF91CF911F9197
S11328100F910895CF93DF93EC0188819981892BDF
S113282029F08A819B818617970760F4CE010E9464
S1132830F013882341F08C819D81892B19F4E88160
S1132840F981108281E0DF91CF910895EF92FF9298
S11328500F931F93CF93DF93EC017B018A01BA019D
S11328600E940A14811104C0CE010E94DE1307C025
S11328701D830C83B701888199810E94E519CE01DB
S1132880DF91CF911F910F91FF90EF900895FC017C
S113289011821082138212821582148261157105CD
S11328A051F0FB0101900020E9F73197AF01461B7D
S11328B0570B0C94261408950F931F93CF93DF9313
S11328C08C01EB01FC0180819181009799F0428198
S11328D053812C813D814217530750F068817981DF
S11328E00E94E5198C819D81F8019583848313C02E
S11328F00E94381888819981F801918380838A81A4
S11329009B81938382838C819D81958384831982A7
S113291018821B821A821D821C82DF91CF911F9123
S11329200F910895CF93DF93EC01FB01861797076E
S113293061F0608171816115710529F044815581CF
S11329400E94261402C00E94DE13CE01DF91CF91B3
S11329500895FC011182108213821282158214825E
S11329600C949214CF93DF93EC018617970711F020
S11329700E945C14CE01DF91CF91089520918404CC
S11329803091850428173907B9F490914204809155
S11329904304981789F0E0914204F0E0EC5BFB4FAC
S11329A080812091420430E02F5F3F4F2F73332703
S11329B02093420490E008958FEF9FEF08951F93B2
S11329C0CF93DF93DC015C968D919C915D9700978A
S11329D039F421E030E013963C932E9312973BC0D8
S11329E05196ED91FC91529750962C915097322F1D
S11329F030951FB75E964C915E97742F727041FDAF
S1132A006095F8944081772311F0422B01C0432351
S1132A104083EC012197F1F748E0508160FF02C048
S1132A20522B01C053235083EC012197F1F7669593
S1132A30415099F78081772319F08323808302C062
S1132A40282B20831FBF5C968D919C915D970197E5
S1132A50F1F781E090E0DF91CF911F9108950895FF
S1132A6020918404309185042817390771F49091DA
S1132A70420480914304981741F0E0914204F0E04D
S1132A80EC5BFB4F808190E008958FEF9FEF0895FA
S1132A9020918404309185042817390771F48091BA
S1132AA043042091420490E0805C9F4F821B910973
S1132AB060E470E00E944517089580E090E0089576
S1132AC0E0918404F0918504E817F90769F4A38977
S1132AD0B4899C918589809589238C93109285046F
S1132AE01092840481E0089580E00895CF93DF93E9
S1132AF0EC018A8D9B8D892BF1F080918404909157
S1132B008504C817D907B9F0009711F00E94601521
S1132B108E8D8E7F8E8F1092430410924204D09338
S1132B208504C0938404EB89FC8990818D89892B69
S1132B30808381E001C080E0DF91CF9108951F92EE
S1132B400F920FB60F9211242F933F934F935F93DD
S1132B506F937F938F939F93AF93BF93EF93FF9361
S1132B60E0918404F0918504309709F451C0968D66
S1132B70A685B785858591FF04C09C91892329F496
S1132B8047C09C91892309F043C0A389B4899C91CF
S1132B908589809589238C93868997890197F1F794
S1132BA0608D718DA685B785558538E020E0CB0111
S1132BB00197F1F7822F90E095958795282F4C91F6
S1132BC0452309F02068315091F7868D81FD2095C9
S1132BD08091430490E001968F73992730914204C9
S1132BE0381749F0A0914304B0E0AC5BBB4F2C9381
S1132BF08093430403C0868D8160868F828D938D7C
S1132C000197F1F7A389B4899C918589892B8C93C9
S1132C10FF91EF91BF91AF919F918F917F916F91B0
S1132C205F914F913F912F910F900FBE0F901F9086
S1132C3018951F93CF93DF93EC01162F6E8D669535
S1132C40617081E06827812F0E94AA1361E0812FBF
S1132C500E946E13812F90E0FC01E452FC4FE4913A
S1132C60E88BFC01E051FC4FE491F0E0EE0FFF1F14
S1132C70E25FFB4F859194919A8B898BDF91CF9181
S1132C801F9108951F93CF93DF93EC01162F60E0FB
S1132C90812F0E946E138E8D81FD04C061E0812F0F
S1132CA00E94AA131C87812F90E0FC01E452FC4F80
S1132CB0E491ED87FC01E051FC4FE491F0E0EE0F6C
S1132CC0FF1FEC5FFB4F859194919F878E87DF9167
S1132CD0CF911F9108951F93CF93DF93EC01162F8B
S1132CE01B821A8288EE93E0A0E0B0E08C839D837F
S1132CF0AE83BF838AE991E0998388831F8A1E8A01
S1132D00198E188E1B8E1A8E1D8E1C8E8E8D8E7FA4
S1132D1020FB81F98E8F642FCE010E941916612F3A
S1132D20CE01DF91CF911F910C944216CF93DF9384
S1132D30EC019A01AB011B8E1A8E198E188E1F8A14
S1132D401E8A60E079E08DE390E00E947B17F90130
S1132D502430310518F0C901039702C081E090E0E6
S1132D609D8F8C8F6C85663108F069C0C90196957A
S1132D7087958431910510F0439702C081E090E07B
S1132D809F8B8E8B369718F0C901059702C081E09E
S1132D9090E0998F888FC901880F991F280F391FD8
S1132DA036952795369527952D30310518F02C50FA
S1132DB0310902C021E030E03B8F2A8F90916800F6
S1132DC0683050F021E06E3008F420E081E001C06A
S1132DD0880F2A95EAF701C084E0892B8093680064
S1132DE09C85983038F09E3040F0963148F020E0D1
S1132DF030E008C02DE630E005C02BE630E002C02C
S1132E002CE630E03C8B2B8B983030F481E001C011
S1132E10880F9A95EAF70EC0292F30E09E3018F4F7
S1132E202850310902C02E50310981E001C0880FB9
S1132E302A95EAF78D8B8C8D9D8D0197F1F7CE0144
S1132E40DF91CF910C9476150895991B79E004C015
S1132E50991F961708F0961B881F7A95C9F78095D5
S1132E600895AA1BBB1B51E107C0AA1FBB1FA617CD
S1132E70B70710F0A61BB70B881F991F5A95A9F71F
S1132E8080959095BC01CD01089597FB072E16F40B
S1132E90009407D077FD09D00E94311707FC05D0B4
S1132EA03EF4909581959F4F0895709561957F4F5D
S1132EB00895A1E21A2EAA1BBB1BFD010DC0AA1F77
S1132EC0BB1FEE1FFF1FA217B307E407F50720F08F
S1132ED0A21BB30BE40BF50B661F771F881F991F0A
S1132EE01A9469F760957095809590959B01AC0153
S1132EF0BD01CF010895052E97FB1EF400940E9496
S1132F00921757FD07D00E94591707FC03D04EF4BF
S1132F100C94921750954095309521953F4F4F4F03
S1132F205F4F089590958095709561957F4F8F4F71
S1132F309F4F0895EE0FFF1F0590F491E02D099423
S1132F400F931F93CF93DF938230910510F482E0A7
S1132F5090E0E0918804F091890420E030E0A0E062
S1132F60B0E0309719F140815181028113814817F3
S1132F705907C8F08417950769F4109731F0129631
S1132F800C93129713961C9327C0009388041093F4
S1132F90890422C02115310519F04217530718F48A
S1132FA09A01BD01EF01DF01F801DBCF21153105E5
S1132FB0F9F0281B390B2430310580F48A819B8178
S1132FC06115710521F0FB019383828304C0909302
S1132FD0890480938804FE01329644C0FE01E20F06
S1132FE0F31F8193919322503109398328833AC086
S1132FF02091860430918704232B41F4209102010F
S113300030910301309387042093860420910001BA
S1133010309101012115310541F42DB73EB740919E
S1133020040150910501241B350BE0918604F091B5
S11330308704E217F307A0F42E1B3F0B2817390768
S113304078F0AC014E5F5F4F2417350748F04E0F00
S11330505F1F50938704409386048193919302C029
S1133060E0E0F0E0CF01DF91CF911F910F9108953F
S1133070CF93DF93009709F481C0FC013297138248
S11330801282A0918804B0918904109781F4208160
S11330903181820F931F2091860430918704281771
S11330A0390751F5F0938704E093860467C0ED0176
S11330B020E030E0CE17DF0740F44A815B819E01B7
S11330C041155105F1F0EA01F5CFD383C283408164
S11330D05181840F951FC817D90759F488819981A4
S11330E0840F951F0296918380838A819B819383A9
S11330F082832115310529F4F0938904E09388042F
S11331003DC0E901FB83EA8349915991C40FD51F5E
S1133110EC17FD0761F480819181840F951F02965D
S1133120E90199838883828193819B838A83E0E088
S1133130F0E012968D919C911397009719F0FD0180
S1133140DC01F7CF8D919C9111979D012E5F3F4F2C
S1133150820F931F20918604309187042817390722
S113316069F4309729F4109289041092880402C0FB
S113317013821282B0938704A0938604DF91CF91C7
S11331800895A0E0B0E0E7ECF8E10C94F819EC0144
S1133190009721F4CB010E94A017B4C0FC01E60FF4
S11331A0F71F9C0122503109E217F30708F4A8C065
S11331B0D9010D911C91119706171707B0F005302E
S11331C0110508F49BC0C80104978617970708F4F3
S11331D095C002501109061B170B019311936D93AF
S11331E07C93CF010E94381889C05B01A01AB10AF0
S11331F04C01800E911EA0918804B0918904612C29
S1133200712CE12CF12C109709F446C08D919C91FE
S11332101197A815B905B1F56C0142E0C40ED11C93
S1133220CA14DB0478F14C018A189B08640142E05B
S1133230C40ED11C1296BC9012971396AC91B5E0B3
S1133240CB16D10440F0B282A38391828082D9014B
S11332506D937C9309C00E5F1F4F800F911FF9017E
S113326091838083EB2DFA2FE114F10431F0D7011F
S11332701396FC93EE93129741C0F0938904E09364
S113328088043CC06816790608F43C017D01129656
S11332900D90BC91A02DB7CF8091860490918704A6
S11332A088169906E1F466167706C8F48091000141
S11332B090910101009741F48DB79EB740910401AC
S11332C050910501841B950BE817F907C8F4F09396
S11332D08704E0938604F901718360830FC0CB01F6
S11332E00E94A0177C01009759F0A801BE010E941A
S11332F0D119CE010E943818C70104C0CE0102C002
S113330080E090E0CDB7DEB7EEE00C94141AFC0137
S113331088279927E89421912032E9F3293010F085
S11333202E30C8F32B3241F02D3239F4689404C0A6
S11333300E94EC19820F911D219120532A30C0F371
S11333401EF4909581959F4F0895FB01DC018D91AA
S1133350059080190110D9F3990B0895FC0105908B
S11333600020E9F7809590958E0F9F1F0895FB012B
S113337055915523A9F0BF01DC014D914517411129
S1133380E1F759F4CD010590002049F04D91401525
S11333904111C9F3FB014111EFCF81E090E00197A6
S11333A00895FB01DC0102C001900D924150504090
S11333B0D8F70895FC018191861721F08823D9F765
S11333C0992708953197CF010895FB01DC010190FD
S11333D00D920020E1F708957AE0979F902D879F42
S11333E0802D910D112408952F923F924F925F9258
S11333F06F927F928F929F92AF92BF92CF92DF9201
S1133400EF92FF920F931F93CF93DF93CDB7DEB765
S1133410CA1BDB0B0FB6F894DEBF0FBECDBF0994F9
S11334202A88398848885F846E847D848C849B8450
S1133430AA84B984C884DF80EE80FD800C811B815E
S1133440AA81B981CE0FD11D0FB6F894DEBF0FBE8D
S1133450CDBFED01089512E0C4E1D2E004C0FE0145
S11334600E949A172196C531D107C9F7F894FFCF66
S113347000008A0420000149414141455F524D6FDB
S11334806E5633002C00415449005E5A002B434DC4
S11334904753004F4B0041542B434D47443D30307C
S11334A03000222C2200000000004B02C6103F0214
S11334B0570263026F0249414141455F524D6F6EAD
S11334C056335F003A00537769746368696E672006
S11334D06F66662E2E2E00000000001C0EEF0D8D70
S11334E00D950DA90DB80D00000000570FC610FA78
S11334F00E140F060F9E0F0D0A006E616E00696EAA
S113350066006F76660000000000DF14C6104815E0
S1093510BE1430152F1556
S9030000FC
