:100000000C94F7030C94102D0C94372D0C94892B21
:100010000C94892B0C94892B0C941F040C941F04B2
:100020000C941F040C941F040C941F040C941F04C4
:100030000C941F040C941F040C941F040C941F04B4
:100040000C94001E0C941F040C94BF1B0C94F11B09
:100050000C941F040C941F040C941F040C941F0494
:100060000C9477130C941F04B414BA14BA14BA1471
:10007000BA14BA14BA14BA14A813BA14BA14BA1423
:10008000BA14BA14BA14BA14A813BA14BA14BA1413
:10009000BA14BA14BA14BA14B213BA14BA14BA14F9
:1000A000BA14BA14BA14BA14DE13BA14BA14BA14BD
:1000B000BA14BA14BA14BA14B213BA14BA14BA14D9
:1000C000BA14BA14BA14BA14E413BA14BA14BA1497
:1000D000BA14BA14BA14BA14EA13BA14BA14BA1481
:1000E000BA14BA14BA14BA140014BA14BA14BA145A
:1000F000BA14BA14BA14BA143014BA14BA14BA141A
:10010000BA14BA14BA14BA14F013BA14BA14BA144A
:10011000BA14BA14BA14BA140E14BA14BA14BA141B
:10012000BA14BA14BA14BA143314BA14BA14BA14E6
:10013000BA14BA14BA14BA143314BA14BA14BA14D6
:10014000BA14BA14BA14BA143314BA14BA14BA14C6
:10015000BA14BA14BA14BA143314BA14BA14BA14B6
:10016000BA14BA14BA14BA143C14BA14BA14BA149D
:10017000BA14BA14BA14BA147614BA14BA14BA1453
:10018000BA14BA14BA14BA143C14BA14BA14BA147D
:10019000BA14BA14BA14BA147614BA14BA14BA1433
:1001A000BA14BA14BA14BA145814BA14BA14BA1441
:1001B000BA14BA14BA14BA147A14BA14BA14BA140F
:1001C000BA14BA14BA14BA147A14BA14BA14BA14FF
:1001D000BA14BA14BA14BA149014BA14BA14BA14D9
:1001E000BA14BA14BA14BA14AE14BA14BA14BA14AB
:1001F000BA14BA14BA14BA14AE14BA14BA14BA149B
:10020000BA14BA14BA14BA14BA14BA14BA14BA147E
:10021000BA14BA14BA14BA14BA14BA14BA14BA146E
:10022000BA14BA14BA14BA14BA14BA14BA14BA145E
:10023000BA14BA14BA14BA14BA14BA14BA14BA144E
:10024000BA14BA14BA14BA14BA14BA14BA14BA143E
:10025000BA14BA14BA14BA14B9144E414E494E49DC
:100260005459494E46CDCCCC3D0AD7233C17B7D183
:100270003877CC2B329595E6241FB14F0A00002029
:10028000410000C84200401C4620BCBE4CCA1B0EA8
:100290005AAEC59D744D6F636B696E6720475052AF
:1002A000532D53656E640053656E64696E6720411B
:1002B000637475616C2064617461207669612047A4
:1002C00050525300746578742F706C61696E000031
:1002D000007765622E6D746E2E63690074657874A4
:1002E0002F706C61696E00475052532053746174D3
:1002F00075733A00426174742D563D00207C2000D5
:1003000050562D563D00207C200043757272656E5C
:10031000743D00207C200054656D703D0053746175
:100320007274696E672E2E2E00426F6F7420436FB9
:10033000756E740053656E64696E672064617461E4
:100340002E2E2E004265686176696F757200496EC7
:100350006974204D6F64756C650042617369632038
:10036000454550524F4D2054657374004641494CE9
:100370004544204C4F4E47004641494C4544204996
:100380004E54004641494C45442053484F52540076
:100390004641494C4544204348415200454550524E
:1003A0004F4D20546573743A204C6F6E673D002C9E
:1003B00020496E743D002C2053686F72743D002CF0
:1003C00020436861723D002A2A2A204641494C2078
:1003D00053484F5720313030202A2A2A002A2A2A0F
:1003E000204641494C205052494E54202A2A2A0086
:1003F00057726974696E6720546F2041646472009B
:10040000467265652041646472204E6F772049739F
:100410000052656164696E672073656E736F7273F5
:100420002E2E2E0000000008000201000003040729
:1004300000000000000000000102040810204080BD
:10044000010204081020010204081020040404041E
:10045000040404040202020202020303030303036E
:1004600000000000230026002900000000002500F5
:1004700028002B0000000000240027002A00093C6F
:100480002D2D2D2000092D2D2D3E2000093C2D2D38
:100490002D2000092D2D2D3E2000093C2D2D2D2035
:1004A00000092D2D2D3E2000093C2D2D2D20000969
:1004B0002D2D2D3E200054494D454F55540053508D
:1004C00041434500093C2D2D2D2000524544495201
:1004D0000055524C00554100434944004C656E3A6A
:1004E00020005374617475733A2000434F4E544595
:1004F0004E540041542B4854545053534C3D002B00
:1005000048545450524541443A0041542B485454A5
:100510005052454144002B48545450414354494F94
:100520004E3A002B48545450414354494F4E3A00E0
:1005300041542B48545450414354494F4E3D00447C
:100540004F574E4C4F41440041542B485454504453
:100550004154413D0041542B48545450444154416E
:100560003D00092D2D2D3E2000222C00222C2200A2
:1005700041542B48545450504152413D2200415463
:100580002B48545450504152413D2200092D2D2DED
:100590003E200041542B485454505445524D004184
:1005A000542B48545450494E49540041542B43470E
:1005B0004154543D300041542B53415042523D3040
:1005C0002C310041542B4349505348555400534853
:1005D0005554204F4B0041542B434949435200414D
:1005E000542B53415042523D312C310041542B5336
:1005F000415042523D332C312C22505744222C0082
:1006000041542B53415042523D332C312C225553EF
:100610004552222C0041542B435354543D2200098F
:100620002D2D2D3E200041542B435354543D220088
:1006300041542B53415042523D332C312C224150D6
:100640004E222C0041542B53415042523D332C3109
:100650002C22434F4E54595045222C22475052537E
:10066000220041542B43474154543D310041542B07
:10067000434950534855540053485554204F4B005C
:1006800053494E460041542B43474E53494E460072
:100690002B43474E53494E463A200041542B434783
:1006A0004E53494E46003E20003E200041542B430D
:1006B0004D47463D310041542B435351002B43538A
:1006C000513A200041542B435245473F002B43529F
:1006D00045473A200041542B434243002B434243B9
:1006E0003A200053494D3830304800093C2D2D2D1B
:1006F0002000092D2D2D3E200053494D434F4D5FC5
:1007000053494D35333230450053494D434F4D5FCA
:1007100053494D35333230410053494D3830302044
:100720005231330053494D38303820523133005361
:10073000494D3830382052313400093C2D2D2D20C0
:1007400000092D2D2D3E200041542B435648553D88
:10075000300041544530004154453000415400417F
:10076000540041540054696D656F75743A204E6FA2
:1007700020726573706F6E736520746F2041542E04
:100780002E2E206C61737420646974636820617418
:1007900074656D70742E0041540041540041540042
:1007A00053657269616C2077617320617661696C51
:1007B00061626C6500417474656D7074696E672068
:1007C000746F206F70656E20636F6D6D2077697434
:1007D0006820415473004F4B00464F4E4100464F36
:1007E0004E416E65740081097218211C8E09112416
:1007F0001FBECFEFD8E0DEBFCDBF13E0A0E0B1E079
:10080000EEE2F5E602C005900D92A433B107D9F7E8
:1008100028E0A4E3B3E001C01D92AB34B207E1F7D6
:1008200013E0C6EFD3E004C02197FE010E949A2E88
:10083000C33FD107C9F70E944F1C0C948A320C9415
:100840000000CF93DF9300D01F92CDB7DEB79A831D
:1008500089836B8389819A8160E00E94D31F89819B
:100860009A81865E9E4F2B81FC01208300000F90B1
:100870000F900F90DF91CF910895CF93DF9300D029
:10088000CDB7DEB79A83898300000F900F90DF9178
:10089000CF910895CF93DF9300D000D0CDB7DEB7CE
:1008A0009A8389837C836B8389819A812B813C81A4
:1008B000B9010E94091900000F900F900F900F903E
:1008C000DF91CF910895CF93DF9300D000D01F9296
:1008D000CDB7DEB79C838B836D838B819C81865ED5
:1008E0009E4FFC018081882311F081E004C08FE9D4
:1008F00096E89A8389830F900F900F900F900F9036
:10090000DF91CF910895CF93DF9300D0CDB7DEB7BD
:100910009A83898300000F900F90DF91CF91089503
:10092000CF92DF92EF92FF920F931F93CF93DF93BB
:1009300000D000D000D0CDB7DEB79C838B837E8300
:100940006D838B819C81865E9E4FFC018081882314
:1009500009F448C02D813E8180E090E0A0E2B1E43E
:10096000F901828B938BA48BB58B8D819E814696EA
:100970002FE0EBE1F1E0DC0101900D922A95E1F727
:100980008D819E812EE1FC0121832D813E8180E0BD
:1009900090E0A0E2B2E4F90186879787A08BB18B43
:1009A0002D813E8180E090E0A8E4B2E4F9018283E9
:1009B0009383A483B5832D813E8180E090E0A0E7FE
:1009C000B2E4F90186839783A087B1872D813E81A8
:1009D00080E090E0ACE8B2E4F90182879387A487D5
:1009E000B58742C08B819C810E94692289838D8159
:1009F0009E812981FC0121838981823034F48D819B
:100A00009E812AE0FC0120832FC08D819E818C0174
:100A10000A5E1F4F8D819E81DC0152968D819E81E1
:100A2000FC013E968D819E819C01265F3F4F8D810A
:100A30009E81AC014A5F5F4F8D819E81BC016E5FDC
:100A40007F4F8B819C8168017D018F010E94DD2297
:100A50008A839A8181E08927882331F08D819E8164
:100A60002CE0FC012083000026960FB6F894DEBF30
:100A70000FBECDBFDF91CF911F910F91FF90EF90EF
:100A8000DF90CF900895CF93DF9300D01F92CDB722
:100A9000DEB79A8389836B8389819A812B81FC01DC
:100AA000248389819A81059660E00E94D31F00000B
:100AB0000F900F900F90DF91CF910895CF93DF9318
:100AC00000D0CDB7DEB79A83898300000F900F90D6
:100AD000DF91CF910895CF93DF9300D000D0CDB7B1
:100AE000DEB79A8389837C836B8389819A8105969B
:100AF0002B813C81B9010E94091900000F900F90D1
:100B00000F900F90DF91CF910895CF93DF9300D096
:100B1000CDB7DEB79A83898389819A81FC011182DE
:100B2000108289819A81FC011382128200000F9049
:100B30000F90DF91CF9108950F931F93CF93DF9381
:100B400000D0CDB7DEB79A83898389819A81FC0171
:100B5000948181E0992309F480E0882311F081E0F9
:100B60002DC08FE190E00E945E1C8C0120E042E0ED
:100B700063E0C8010E94552C89819A81815E9E4F55
:100B8000FC011183008389819A81815E9E4FFC0163
:100B90008081918140EC52E160E070E00E94802C05
:100BA00089819A81815E9E4FFC01808191819C01A7
:100BB00089819A810596B9010E9482240F900F9035
:100BC000DF91CF911F910F910895CF93DF9300D0C4
:100BD00000D0CDB7DEB79A8389837C836B8389810C
:100BE0009A81FC01948181E0992309F480E08823B3
:100BF00049F08B819C8123E630E0FC013183208326
:100C000081E008C089819A8105962B813C81B901D8
:100C10000E945C2A0F900F900F900F90DF91CF9160
:100C20000895CF93DF93CDB7DEB769970FB6F894E9
:100C3000DEBF0FBECDBF9F8B8E8B798F688F8E8965
:100C40009F89FC01948181E0992309F480E0882345
:100C500011F081E026C02EE0E8E3F1E0CE0101963C
:100C6000DC0101900D922A95E1F727E0CE010F9665
:100C7000FC01322F11923A95E9F78E899F890596EA
:100C8000288D398DA9019E012F5F3F4FB9010E9428
:100C90003826982F81E08927882311F081E001C050
:100CA00080E069960FB6F894DEBF0FBECDBFDF912E
:100CB000CF910895CF93DF9300D000D0CDB7DEB7AA
:100CC0009A8389837C836B8389819A810E947E06C3
:100CD000282F8B819C81FC01228389819A810E942B
:100CE0009B06282F8B819C81FC01218300000F90A3
:100CF0000F900F900F90DF91CF910895CF93DF93D6
:100D000000D0CDB7DEB79A83898389819A81FC01AF
:100D1000948181E0992309F480E0882311F087E031
:100D200005C089819A8105960E946B2A0F900F90C9
:100D3000DF91CF910895CF93DF9300D0CDB7DEB789
:100D40009A83898389819A81FC01948181E0992326
:100D500009F480E0882311F085E105C089819A813A
:100D600005960E948A2A0F900F90DF91CF910895E7
:100D7000CF93DF9300D01F92CDB7DEB79A838983DC
:100D80006B8389819A8105966B810E9498270F90C9
:100D90000F900F90DF91CF910895CF92DF92EF9255
:100DA000FF920F931F93CF93DF93CDB7DEB72E97AC
:100DB0000FB6F894DEBF0FBECDBF9C878B877E87B2
:100DC0006D878B859C85FC01948181E0992309F4D2
:100DD00080E08823B9F085E992E0BC018BE597E0DB
:100DE0000E949F1C6DE471E08BE597E00E94C31C9C
:100DF0008D859E85BC018BE597E00E94E21C80E01A
:100E000090E0C3C087EA92E0BC018BE597E00E94C6
:100E10009F1C6DE471E08BE597E00E94C31C8D85FB
:100E20009E85BC018BE597E00E94E21C81E090E08A
:100E30009A8389838FE491E09D838C838D859E8541
:100E40000E9466308C0144EC52E08B859C850596AF
:100E5000DE011996FE0137962D853E856C817D81D8
:100E60006D017F010E9493298B839B8181E08927FB
:100E7000882311F12FEC32E040ED52E061ED72E099
:100E80008B859C8505960E9405208D859E850E94F8
:100E900066308C014CED52E08B859C850596DE0119
:100EA0001996FE0137962D853E856C817D816D01F9
:100EB0007F010E9493298B839B8181E0892788236E
:100EC00029F087EE93E09A8389835DC087EE92E0F4
:100ED000BC018BE597E00E949F1C6DE471E08BE5FF
:100EE00097E00E94C31C8F8198854AE050E0BC01C6
:100EF0008BE597E00E947B1D89859A851816190657
:100F00008CF58B859C8505960E94971F21E0892B87
:100F100009F420E0222381F38B859C8505960E94AD
:100F2000AF1F8E8380EC90E0FC018081882F90E0E1
:100F30008072992721E0892B09F020E0222309F013
:100F4000F1CF86EC90E02E81FC01208389859A8583
:100F500001979A87898789859A85892B09F0D1CF4E
:100F60000000CACF8B859C8505960E941C268F8128
:100F70009885883C910519F08F81988502C080E0A2
:100F800090E09A83898389819A812E960FB6F8948E
:100F9000DEBF0FBECDBFDF91CF911F910F91FF90AC
:100FA000EF90DF90CF900895CF93DF9300D0CDB72F
:100FB000DEB79A83898384EF92E0BC018BE597E0EA
:100FC0000E949F1C89819A81FC01818192814AE063
:100FD00050E0BC018BE597E00E94751D8CEF92E01C
:100FE000BC018BE597E00E949F1C80E093E0BC0170
:100FF0008BE597E00E949F1C89819A81FC01858185
:1010000096814AE050E0BC018BE597E00E94751D97
:1010100086E093E0BC018BE597E00E949F1C8AE08C
:1010200093E0BC018BE597E00E949F1C89819A8127
:10103000FC01838194814AE050E0BC018BE597E09C
:101040000E94751D83E193E0BC018BE597E00E944F
:101050009F1C87E193E0BC018BE597E00E949F1CF9
:1010600089819A81FC01878190854AE050E0BC012A
:101070008BE597E00E947B1D00000F900F90DF91A1
:10108000CF910895CF93DF93CDB7DEB761E085E0D0
:101090000E942C1F61E085E00E94681F68EB7BE0E6
:1010A00080E090E00E946F1E61E08DE00E942C1FA6
:1010B00040E855E260E070E08BE597E00E94AC19F3
:1010C0008DE193E0BC018BE597E00E94D01C0E946B
:1010D000750860918B0680914E040E948C180E94C6
:1010E00098080000DF91CF910895CF93DF93CDB79B
:1010F000DEB764E373E08FE494E00E944A0464E3A3
:1011000073E08AE695E00E946B058AE695E00E940E
:101110009C05982F81E08927882331F461E08FE4D2
:1011200094E00E94630401C00000DF91CF91089514
:10113000CF93DF93CDB7DEB76EE771E08BE597E035
:101140000E94E21C60E085E00E94681F68EB7BE083
:1011500080E090E00E946F1E0000DF91CF91089523
:10116000CF93DF931F92CDB7DEB7898300000F9036
:10117000DF91CF910895CF93DF93CDB7DEB72A9754
:101180000FB6F894DEBF0FBECDBFCE0101960E9410
:10119000CF19CE010196BC018BE896E00E94B810F1
:1011A00081E02A960FB6F894DEBF0FBECDBFDF9167
:1011B000CF910895CF93DF93CDB7DEB784E393E06B
:1011C000BC018BE597E00E94D01C80E0DF91CF91BD
:1011D0000895CF93DF93CDB7DEB768EE73E080E07C
:1011E00090E00E946F1E80918D0690918E06019670
:1011F00090938E0680938D0684E493E0BC018BE58A
:1012000097E00E949F1C6FE871E08BE597E00E94D9
:10121000C31C80918C064AE050E0682F8BE597E074
:101220000E94631D80918C06882F90E08170992721
:10123000892B49F00E94BB08882329F080918C06F5
:101240008E7F80938C0680918C06882F90E0827030
:101250009927892B49F00E94DA08882329F0809188
:101260008C068D7F80938C0680918C06882311F4E8
:101270000E9498080000DF91CF910895CF93DF93EB
:1012800000D000D0CDB7DEB79A8389837C836B838F
:1012900089819A810197E9F48B819C810196C9F437
:1012A00064E084E393E00E94D31F60E08EE494E066
:1012B0000E949B0961E08FE494E00E94210461E0B8
:1012C0008AE695E00E94430561E08BE896E00E9483
:1012D000A80F89819A81892B61F48B819C81019669
:1012E00041F48AE695E00E945E058FE494E00E9456
:1012F0003D0400000F900F900F900F90DF91CF9161
:101300000895CF93DF93CDB7DEB76FEF7FEF81E026
:1013100090E00E943E09DF91CF910895CF93DF9333
:10132000CDB7DEB76FEF7FEF80E090E00E943E091F
:10133000DF91CF910895CF93DF9300D01F92CDB767
:10134000DEB79A8389836B8389819A812B81FC0123
:10135000208389819A81FC01908181E089278823FB
:1013600021F08DE497E00E94E71400000F900F90A9
:101370000F90DF91CF910895CF93DF93CDB7DEB774
:1013800028970FB6F894DEBF0FBECDBF9D838C8328
:101390007F836E8348871982998188859817E0F545
:1013A0008981282F30E08C819D81820F931F9B8340
:1013B0008A8360E570E08DE497E00E9475168A816B
:1013C0009B81892F9927BC018DE497E00E94E11948
:1013D0008A819B819927BC018DE497E00E94E119E5
:1013E0008981882F90E02E813F81820F931FFC011D
:1013F0008081682F8DE497E00E94C3168DE497E00A
:101400000E94B2166FE070E080E090E00E946F1ED4
:1014100089818F5F8983C0CF000028960FB6F8942A
:10142000DEBF0FBECDBFDF91CF910895CF93DF9385
:10143000CDB7DEB729970FB6F894DEBF0FBECDBF8C
:101440009E838D8378876F834987198299818985E7
:10145000981708F04BC08981282F30E08D819E813C
:10146000820F931F9C838B8360E570E08DE497E08F
:101470000E9475168B819C81892F9927BC018DE470
:1014800097E00E94E1198B819C819927BC018DE432
:1014900097E00E94E1198DE497E00E94B21641E0C6
:1014A00050E060E570E08DE497E00E941A168FEF3F
:1014B0008A838DE497E00E94461721E0892B09F486
:1014C00020E0222329F08DE497E00E945E178A83B2
:1014D0008981882F90E02F813885820F931F2A8180
:1014E000FC01208389818F5F8983B0CF000029961A
:1014F0000FB6F894DEBF0FBECDBFDF91CF91089538
:10150000CF93DF9300D000D01F92CDB7DEB79B837F
:101510008A837D836C8321E08C819D81422F9E0193
:101520002F5F3F4FB9010E94160A89810F900F90DB
:101530000F900F900F90DF91CF910895CF93DF938D
:1015400000D000D000D0CDB7DEB79C838B837E83E4
:101550006D8322E08D819E81422F9E012F5F3F4F40
:10156000B9010E94160A89819A8126960FB6F894CD
:10157000DEBF0FBECDBFDF91CF910895CF93DF9334
:10158000CDB7DEB728970FB6F894DEBF0FBECDBF3C
:101590009E838D8378876F8324E08F819885422F87
:1015A0009E012F5F3F4FB9010E94160A89819A81DF
:1015B000AB81BC81BC01CD0128960FB6F894DEBF8B
:1015C0000FBECDBFDF91CF910895AF92BF92CF9262
:1015D000DF92EF92FF920F931F93CF93DF93CDB7DC
:1015E000DEB72C970FB6F894DEBF0FBECDBF9A873B
:1015F00089877C876B8728E08B859C85422F9E019D
:101600002F5F3F4FB9010E94160A29813A814B8111
:101610005C816D817E818F819885A22EB32EC42E30
:10162000D52EE62EF72E082F192F2A2D3B2D4C2DC7
:101630005D2D6E2D7F2D802F912F2C960FB6F89457
:10164000DEBF0FBECDBFDF91CF911F910F91FF90F5
:10165000EF90DF90CF90BF90AF900895CF93DF933E
:1016600000D000D01F92CDB7DEB79A8389837C83E8
:101670006B834D8341E09E012B5F3F4F8B819C81AB
:10168000B9010E94BC0900000F900F900F900F90BD
:101690000F90DF91CF910895CF93DF9300D000D0CA
:1016A00000D0CDB7DEB79A8389837C836B835E835A
:1016B0004D8342E09E012B5F3F4F8B819C81B9019E
:1016C0000E94BC09000026960FB6F894DEBF0FBE3C
:1016D000CDBFDF91CF910895CF93DF93CDB7DEB724
:1016E00028970FB6F894DEBF0FBECDBF9A838983CB
:1016F0007C836B832D833E834F83588744E09E0118
:101700002B5F3F4F8B819C81B9010E94BC09000077
:1017100028960FB6F894DEBF0FBECDBFDF91CF91F4
:101720000895EF92FF920F931F93CF93DF93CDB75E
:10173000DEB72C970FB6F894DEBF0FBECDBF9A83ED
:1017400089837C836B83ED82FE820F8318872987D0
:101750003A874B875C8748E09E012B5F3F4F8B8128
:101760009C81B9010E94BC0900002C960FB6F89428
:10177000DEBF0FBECDBFDF91CF911F910F91FF90C4
:10178000EF900895CF93DF93CDB7DEB7A0970FB654
:10179000F894DEBF0FBECDBF9F8F8E8F68A38EE4FF
:1017A00093E0BC018BE597E00E949F1C6FE971E01C
:1017B0008BE597E00E94C31C4AE050E068A18BE5EE
:1017C00097E00E94631D88A189831B821A821E8272
:1017D0001F82188619861A861B861C861D868DE137
:1017E00090E09D838C83CE010E9640E150E060E056
:1017F00070E00E944B308DE1482FCE010196BC0174
:1018000080E090E00E94BC090000A0960FB6F8941A
:10181000DEBF0FBECDBFDF91CF910895CF93DF9391
:1018200000D000D000D0CDB7DEB79E838D8381E09D
:1018300090E09A83898329813A818D819E81B901C3
:101840000E949E0A9C838B838B819C8101969C8342
:101850008B834B815C8129813A818D819E81B90185
:101860000E944C0B8B819C8126960FB6F894DEBFAC
:101870000FBECDBFDF91CF910895AF92BF92CF92AF
:10188000DF92EF92FF920F931F93CF93DF93CDB729
:10189000DEB76E970FB6F894DEBF0FBECDBF9E8F3A
:1018A0008D8F8AE593E0BC018BE597E00E949F1C39
:1018B00085E090E09D838C831B828B818E3108F0C4
:1018C0002DC16C817D818D8D9E8D0F2EF8EAEF2EBE
:1018D000F02D0F2EF9EFFF2EF02D01E419EC28ED7D
:1018E00037EF46E459EA0E94910B2C813D818D8DA2
:1018F0009E8DB9010E94E50AA22EB32EC42ED52ECC
:10190000E62EF72E082F192FAE82BF82C886D98601
:10191000EA86FB860C871D87AE80BF80C884D98489
:10192000EA84FB840C851D852A2D3B2D4C2D5D2DD5
:101930006E2D7F2D802F912F283A394F4144594CDD
:10194000684D774F8644994A61F08CE693E0BC017C
:101950008BE597E00E94D01C89819A8101969A8339
:1019600089836C817D818D8D9E8D28E439EF41E1E5
:1019700059EC0E946C0B2C813D818D8D9E8DB9019F
:101980000E94BE0ADC01CB018E879F87A88BB98B92
:101990008E859F85A889B9898834994FA141B94C12
:1019A00061F088E793E0BC018BE597E00E94D01CD2
:1019B00089819A8101969A8389832C813D818D8DBD
:1019C0009E8D4AE35CE5B9010E944C0B2C813D8160
:1019D0008D8D9E8DB9010E949E0A9B8B8A8B8A8970
:1019E0009B898A339C4561F083E893E0BC018BE5D9
:1019F00097E00E94D01C89819A8101969A838983FD
:101A00002C813D818D8D9E8D41EEB9010E942E0B62
:101A10002C813D818D8D9E8DB9010E94800A8C8B19
:101A20008C89813E61F080E993E0BC018BE597E011
:101A30000E94D01C89819A8101969A8389838CE9BE
:101A400093E0BC018BE597E00E949F1C2E813F81B3
:101A5000488559856A857B858C859D8500E20E9435
:101A6000A22EA22EB32EC42ED52EE62EF72E082F90
:101A7000192FAD8ABE8ACF8AD88EE98EFA8E0B8F47
:101A80001C8F8D899E89AF89B88D20E130E0AC0133
:101A9000BD018BE597E00E944F1D8E819F81A88537
:101AA000B98520E130E0AC01BD018BE597E00E94F3
:101AB0004F1D8FEA93E0BC018BE597E00E949F1CCD
:101AC0008E859F85A889B98920E130E0AC01BD01F0
:101AD0008BE597E00E944F1D86EB93E0BC018BE500
:101AE00097E00E949F1C8A899B8940E150E0BC01DD
:101AF0008BE597E00E94751D8FEB93E0BC018BE5B1
:101B000097E00E949F1C40E150E06C898BE597E0D4
:101B10000E94631D8B818F5F8B83CFCE89819A81D9
:101B20006E960FB6F894DEBF0FBECDBFDF91CF919A
:101B30001F910F91FF90EF90DF90CF90BF90AF90EB
:101B40000895CF93DF9300D0CDB7DEB79A83898312
:101B500087EC93E0BC018BE597E00E949F1C00009E
:101B60000F900F90DF91CF910895CF93DF9300D026
:101B7000CDB7DEB79A8389838DED93E0BC018BE509
:101B800097E00E949F1C00000F900F90DF91CF9173
:101B90000895CF93DF93CDB7DEB728970FB6F894AB
:101BA000DEBF0FBECDBF9A8389837C836B835E8348
:101BB0004D8338872F8381E090E0A0E0B0E0BC0146
:101BC000CD0128960FB6F894DEBF0FBECDBFDF91D2
:101BD000CF9108950F931F93CF93DF93CDB7DEB7C7
:101BE0002A970FB6F894DEBF0FBECDBF9A838983C4
:101BF0000B831C832D833E834F83588769877A87A5
:101C000000002A960FB6F894DEBF0FBECDBFDF915D
:101C1000CF911F910F910895CF93DF9300D000D003
:101C2000CDB7DEB79A8389837C836B8300000F90E6
:101C30000F900F900F90DF91CF910895CF93DF9386
:101C400000D000D000D0CDB7DEB79A8389834B8314
:101C50005C836D837E83000026960FB6F894DEBF0A
:101C60000FBECDBFDF91CF910895CF93DF9300D00A
:101C700000D0CDB7DEB79A8389837C836B83000065
:101C80000F900F900F900F90DF91CF910895CF9309
:101C9000DF93CDB7DEB72A970FB6F894DEBF0FBE3D
:101CA000CDBF98878F837A87698783E090E09A8396
:101CB000898329813A818F819885B9010E949E0A82
:101CC0009C838B8380EF93E0BC018BE597E00E94BF
:101CD0009F1C6FE971E08BE597E00E94C31C8B812C
:101CE0009C814AE050E0BC018BE597E00E947B1D9F
:101CF0004AE029853A858B819C81B9010E94BC0903
:101D00008B819C810A969E838D8380E094E0BC0148
:101D10008BE597E00E949F1C6FE971E08BE597E0EF
:101D20000E94C31C8D819E814AE050E0BC018BE57E
:101D300097E00E947B1D4D815E8129813A818F81D0
:101D40009885B9010E944C0B00002A960FB6F894B2
:101D5000DEBF0FBECDBFDF91CF910895CF93DF934C
:101D600000D0CDB7DEB79A8389831092930689811C
:101D70009A8140E861E00E94890F89819A8140E858
:101D800060E00E94890F00000F900F90DF91CF91CB
:101D90000895CF93DF9300D000D000D0CDB7DEB749
:101DA0009A8389837C836B834D832E838D818032DC
:101DB00061F489819A81FC01908181E0292F282793
:101DC00089819A81FC01208319C08D81803431F48E
:101DD00089819A812E81FC01208310C08D81803100
:101DE00031F489819A8121E0FC01208307C08D8133
:101DF000803821F489819A81FC0110828D818230A2
:101E000061F48B819C81FC01908181E0292F28273E
:101E10008B819C81FC01208319C08D81843031F439
:101E20008B819C812E81FC01208310C08D818130AB
:101E300031F48B819C8121E0FC01208307C08D81DE
:101E4000803821F48B819C81FC0110820000269651
:101E50000FB6F894DEBF0FBECDBFDF91CF910895CE
:101E6000CF93DF9300D0CDB7DEB79A83898380917B
:101E700093068F5F80939306209193068BEA289FA9
:101E8000812D1124982F9695892F880F890F922FD5
:101E9000981B909393069091930681E0992309F003
:101EA00080E090910001282F492F60E976E08FE8CB
:101EB00096E00E94C90E80919006682F89E00E94EA
:101EC000681F80918F06682F88E00E94681F90919C
:101ED000930681E0992309F080E090910101282F79
:101EE000492F61E976E082E996E00E94C90E80916F
:101EF0009206682F8BE00E94681F80919106682FE0
:101F00008AE00E94681F00000F900F90DF91CF9130
:101F10000895CF93DF9300D000D0CDB7DEB79A837A
:101F200089836B834C838B81813021F48C818093F6
:101F3000000106C08B81882319F48C8180930101F4
:101F400000000F900F900F900F90DF91CF910895A8
:101F5000CF93DF9300D01F92CDB7DEB79A838983EA
:101F60006B8389819A812B81FC01208300000F9073
:101F70000F900F90DF91CF910895CF93DF9300D012
:101F800000D000D0CDB7DEB79E838D838CE790E084
:101F90002EE4FC01208362E070E080E090E00E948B
:101FA0006F1E8AE790E02AE730E0F9012081206483
:101FB000FC0120838AE790E0FC018081882F90E07B
:101FC0008074992721E0892B09F420E0222309F06D
:101FD000F1CF88E790E0FC018081882F90E0A0E0BD
:101FE000B0E089839A83AB83BC8389E790E0FC01EE
:101FF0008081882F90E0982F8827092E000CAA0B4B
:10200000BB0B29813A814B815C81822B932BA42BC2
:10201000B52B89839A83AB83BC8384EB9BE2A1E1DC
:10202000B0E029813A814B815C81BC01CD010E94E5
:102030007B2EDA01C90189839A83AB83BC838981B2
:102040009A81AB81BC8128EE33E040E050E0BC01D6
:10205000CD010E947B2EDA01C901BC01CD010E9495
:10206000571ADC01CB01BC01CD0126960FB6F894BE
:10207000DEBF0FBECDBFDF91CF910895CF93DF9329
:1020800000D000D01F92CDB7DEB79C838B836D83C9
:102090008B819C81FC018081882319F085E090E090
:1020A00007C08D810E94E61E9A83898389819A8167
:1020B0000F900F900F900F900F90DF91CF91089598
:1020C000CF93DF9300D0CDB7DEB79A838983809119
:1020D00094068F5F8093940680919406282F30E0B9
:1020E00089819A81FC013283218380919406882F13
:1020F00090E0880F991F9C01220F331F220F331F7E
:10210000820F931F9C0189819A81FC01368325836C
:102110002091940685E2289F812D1124922F981BEF
:102120009695890F982F96959695892F880F880FE9
:10213000880F891B922F981B292F30E089819A8163
:10214000FC013483238380919406882F90E044E639
:10215000489F9001499F300D112489819A81FC018B
:102160003087278300000F900F90DF91CF91089563
:10217000CF93DF93CDB7DEB72C970FB6F894DEBFC1
:102180000FBECDBF9A8789877C876B8781E194E0FA
:10219000BC018BE597E00E94D01C89859A85FC01E3
:1021A0008081882329F08B859C850E94601038C02F
:1021B00089859A856EE00E943E109A83898389857D
:1021C0009A856FE00E943E109C838B8389859A8557
:1021D00061E10E943E109E838D8389859A8560E12E
:1021E0000E943E1098878F838B859C852B813C8134
:1021F000FC01328321838B859C8529813A81FC01F6
:10220000368325838B859C852D813E81FC0134831B
:1022100023838B859C852F813885FC01308727831C
:102220008B859C850E94D40700002C960FB6F894ED
:10223000DEBF0FBECDBFDF91CF910895CF93DF9367
:10224000CDB7DEB71092950681E080939706109285
:10225000980682E161E00E94681F83E161E00E94CC
:10226000681F89EB90E029EB30E0F90120812E7F97
:10227000FC01208389EB90E029EB30E0F90120811B
:102280002D7FFC01208388EB90E028E4FC01208373
:102290008CEB90E025E4FC0120830000DF91CF91DE
:1022A0000895CF93DF93CDB7DEB78CEB90E02CEBA6
:1022B00030E0F90120812A7BFC01208382E160E08B
:1022C0000E94681F83E160E00E94681F0000DF91A8
:1022D000CF910895CF93DF931F92CDB7DEB7898357
:1022E0008AEB90E02981220FFC01208300000F90EF
:1022F000DF91CF9108950F931F93CF93DF9300D079
:1023000000D0CDB7DEB769837A838B839C8308EBDB
:1023100010E080E094E2A4EFB0E029813A814B81A3
:102320005C81BC01CD010E94592EDA01C9014097A0
:10233000A109B109B695A79597958795F80180836E
:1023400000000F900F900F900F90DF91CF911F9191
:102350000F910895CF93DF9300D000D000D0CDB778
:10236000DEB78A837C836B834D832E838D8181329C
:1023700018F080E06BC00000809195068823D9F7A3
:1023800081E0809395068E81809397068FEF8093EE
:1023900002071092BD068D8181508093BE0681E0B8
:1023A000809396068A81882F90E0880F991F982F36
:1023B00080919606892B80939606809198068130AD
:1023C000C1F4109298068BEB90E020919606FC01E8
:1023D00020838CEB90E0FC018081882F90E0887056
:1023E0009927892B81F78CEB90E025ECFC01208369
:1023F00007C08CEB90E025EEFC01208301C00000BB
:10240000809195068130D9F39091BD068D81981702
:1024100018F48091BD068D83198213C08981882F9D
:1024200090E02B813C81820F931F2981222F30E085
:102430002356394FF9012081FC01208389818F5F68
:10244000898399818D81981748F38D8126960FB6DF
:10245000F894DEBF0FBECDBFDF91CF9108950F93EB
:10246000CF93DF93CDB7DEB727970FB6F894DEBFD3
:102470000FBECDBF8A837C836B834D832E830F83F6
:102480008D81813218F081E076C000008091950640
:102490008823D9F782E0809395068F8180939706F1
:1024A0008FEF809302071092BD068D818093BE0648
:1024B000198213C08981882F90E02981222F30E072
:1024C0004B815C81240F351FF90120818356994F80
:1024D000FC01208389818F5F898399818D81981781
:1024E00048F3109296068A81882F90E0880F991FF2
:1024F000982F80919606892B809396068091980656
:102500008130C1F4109298068BEB90E020919606F2
:10251000FC0120838CEB90E0FC018081882F90E00F
:1025200088709927892B81F78CEB90E025ECFC01D2
:10253000208307C08CEB90E025EEFC01208301C0D6
:1025400000008E81882321F0809195068230C1F3AE
:10255000809102078F3F11F480E00DC08091020747
:10256000803211F482E007C080910207803311F4B9
:1025700083E001C084E027960FB6F894DEBF0FBE5B
:10258000CDBFDF91CF910F910895CF93DF9300D00E
:1025900000D0CDB7DEB79B838A836C838091E00641
:1025A000282F30E08C81882F90E0820F931F819735
:1025B00014F081E02CC080919506843011F082E007
:1025C00026C0198219C08091E006282F30E0898149
:1025D000882F90E0820F931F2981222F30E04A81BB
:1025E0005B81240F351FF90120818154994FFC0133
:1025F000208389818F5F898399818C81981718F353
:102600009091E0068C81890F8093E00680E00F9026
:102610000F900F900F90DF91CF910895CF93DF939C
:1026200000D0CDB7DEB79A83898389819A81909350
:102630009C0680939B0600000F900F90DF91CF9136
:102640000895CF93DF9300D0CDB7DEB79A83898307
:1026500089819A8190939A068093990600000F9041
:102660000F90DF91CF910895CF93DF931F92CDB755
:10267000DEB789838981882331F08CEB90E025ECEB
:10268000FC01208305C08CEB90E025E8FC01208351
:1026900000000F90DF91CF910895CF93DF93CDB7D6
:1026A000DEB78CEB90E025EDFC01208301C000003B
:1026B0008CEB90E0FC018081882F90E0807199275D
:1026C000892BA9F7109295060000DF91CF9108950C
:1026D000CF93DF93CDB7DEB78CEB90E025ECFC0118
:1026E0002083109295060000DF91CF9108951F92EC
:1026F0000F9200905F000F9211242F933F934F93FE
:102700005F936F937F938F939F93AF93BF93EF9359
:10271000FF93CF93DF93CDB7DEB789EB90E0FC0159
:102720008081882F90E0887F9927092E000CAA0BC2
:10273000BB0B40E050E028EF30E0841B950B2817DE
:10274000390708F417C18C5C9F4FFC010C949A2E3A
:102750008BEB90E020919606FC01208381E00E94A3
:10276000341308C19091BD068091BE069817A0F45D
:102770008BEB90E02091BD0631E0320F3093BD0627
:10278000222F30E02356394FF9012081FC012083AC
:1027900081E00E943413EEC080919706882319F0DF
:1027A0000E944D13E7C081E0809398068CEB90E087
:1027B00024EAFC01208310929506DCC080E280931D
:1027C00002070E944D13D6C080E3809302070E9447
:1027D0004D13D0C088E3809302070E946813CAC0DB
:1027E0008091BD0691E0980F9093BD06882F90E0F0
:1027F0002BEB30E0F90120818356994FFC012083B7
:102800009091BD068091BE06981720F481E00E9449
:102810003413B0C080E00E943413ACC08091BD0678
:1028200091E0980F9093BD06882F90E02BEB30E05D
:10283000F90120818356994FFC01208380919706EE
:10284000882319F00E944D1395C081E0809398066B
:102850008CEB90E024EAFC012083109295068AC05C
:102860000E944D1387C083E0809395061092010764
:1028700081E00E9434137EC0809101078032A0F471
:102880008091010791E0980F90930107882F90E0C5
:102890002BEB30E0F90120818F51994FFC0120830F
:1028A00081E00E94341366C080E00E94341362C04D
:1028B0000E94681380910107803240F480910107E3
:1028C000882F90E08F51994FFC01108220919B0638
:1028D00030919C0680910107882F90E0BC0181EE29
:1028E00096E0F90109951092010744C080E00E942A
:1028F000341340C084E0809395061092DF06109256
:10290000E0068091990690919A06FC0109958091C4
:10291000E006882329F481E08093E0061092BF0648
:102920008BEB90E02091DF0631E0320F3093DF0631
:10293000222F30E02154394FF9012081FC012083FE
:102940009091DF068091E006981720F481E00E94C4
:10295000341310C080E00E9434130CC081E00E9448
:1029600034131092950606C0109202070E944D1370
:1029700001C000000000DF91CF91FF91EF91BF9166
:10298000AF919F918F917F916F915F914F913F9107
:102990002F910F9000925F000F901F901895CF938A
:1029A000DF9300D0CDB7DEB79A83898389819A817E
:1029B0000E94321A26E732E089819A81FC01318334
:1029C000208300000F900F90DF91CF910895CF9357
:1029D000DF9300D0CDB7DEB79A83898310922307A7
:1029E0001092240710924607109247070E941E116A
:1029F0008BE098E10E9421138EEB97E10E940E1369
:102A000000000F900F90DF91CF910895CF93DF9347
:102A100000D01F92CDB7DEB79A8389836B838981FB
:102A20009A810E94E7148B810E946A1100000F9026
:102A30000F900F90DF91CF910895CF93DF9300D047
:102A400000D0CDB7DEB79A8389837C836B832B81DB
:102A500089819A81622F0E94061500000F900F90C5
:102A60000F900F90DF91CF910895CF93DF9300D017
:102A7000CDB7DEB79A8389830E94511100000F9071
:102A80000F90DF91CF910895CF93DF9300D000D0C6
:102A900000D0CDB7DEB79A8389834B835C836D8387
:102AA0007E838B819C81AD81BE81BC01CD010E9462
:102AB0007B11000026960FB6F894DEBF0FBECDBF87
:102AC000DF91CF910895CF92EF920F931F93CF9301
:102AD000DF93CDB7DEB72B970FB6F894DEBF0FBEEE
:102AE000CDBF9B838A836C834D830E831F8328878E
:102AF0003987EA86CB868A858823E9F18A819B819A
:102B00006C810E945B168A85843010F083E08A878E
:102B10008A859FEF980F9A8791E0882309F490E0C7
:102B2000992321F18A819B81FC0180819181FC01A3
:102B3000208131818A85882F90E0AC01440F551F98
:102B4000440F551F440F551F8E819F81A885B9855D
:102B500004C0B695A795979587954A95D2F7482FC3
:102B60008A819B81642FF9010995D2CF8A819B814B
:102B700060E00E948D168D81813210F080E28D839D
:102B80002B854D8163E077E08C810E94AA118983B7
:102B90001092230789818093240789812B960FB691
:102BA000F894DEBF0FBECDBFDF91CF911F910F9183
:102BB000EF90CF900895CF92EF920F931F93CF9302
:102BC000DF9300D000D01F92CDB7DEB79A83898300
:102BD0006B834C832D8389819A81CD80E12C00E029
:102BE00010E098014C816B810E9463150F900F904B
:102BF0000F900F900F90DF91CF911F910F91EF9059
:102C0000CF900895CF93DF9300D000D0CDB7DEB73B
:102C10009A8389836B834C8389819A8121E04C81DB
:102C20006B810E94DB150F900F900F900F90DF913A
:102C3000CF910895CF93DF9300D000D000D0CDB7CF
:102C4000DEB79A8389837C836B835E834D834D815A
:102C50003B8189819A8121E0632F0E94DB152696B2
:102C60000FB6F894DEBF0FBECDBFDF91CF910895B0
:102C7000CF93DF93CDB7DEB728970FB6F894DEBFBA
:102C80000FBECDBF9A8389837C836B835E834D8324
:102C900038872F832F814D813B8189819A81632FD2
:102CA0000E94DB1528960FB6F894DEBF0FBECDBF8D
:102CB000DF91CF910895CF93DF9300D01F92CDB7CE
:102CC000DEB79A8389836B8381E0809348078B8189
:102CD00080932507109246071092470700000F9037
:102CE0000F900F90DF91CF910895CF93DF9300D095
:102CF00000D0CDB7DEB79A8389837C836B832B8129
:102D000089819A81622F0E945B1600000F900F90BC
:102D10000F900F90DF91CF9108950F93CF93DF9392
:102D200000D000D0CDB7DEB79B838A836C839091AF
:102D30004707809125070C8121E0492F66E277E063
:102D40000E942F1289831092460710924707109213
:102D5000480789810F900F900F900F90DF91CF91CE
:102D60000F910895CF93DF9300D0CDB7DEB79A834C
:102D7000898389819A8161E00E948D160F900F905E
:102D8000DF91CF910895CF93DF9300D01F92CDB7FD
:102D9000DEB79A8389836B8380914807882301F18A
:102DA00080914707803248F089819A8161E070E024
:102DB0000E94001A80E090E01AC080914607882F98
:102DC00090E02B818A5D984FFC012083809146071B
:102DD0008F5F80934607809146078093470705C021
:102DE000CE01039661E00E94C51281E090E00F9051
:102DF0000F900F90DF91CF910895CF93DF93CDB7D0
:102E0000DEB728970FB6F894DEBF0FBECDBF9C8308
:102E10008B837E836D8358874F83809148078823F7
:102E200021F11A82198229813A818F819885281788
:102E3000390708F58B819C81FC0180819181FC011F
:102E4000208131814D815E8189819A81840F951F16
:102E5000FC0140818B819C81642FF9010995898156
:102E60009A8101969A838983DECF2F818D819E81FD
:102E7000622F0E94C5128F81988528960FB6F8940C
:102E8000DEBF0FBECDBFDF91CF910895CF93DF930B
:102E900000D0CDB7DEB79A83898380912407282F8D
:102EA00030E080912307882F90E0A901481B590B3F
:102EB000CA010F900F90DF91CF910895CF93DF93C8
:102EC00000D000D0CDB7DEB79C838B838FEF9FEF10
:102ED0009A8389839091230780912407981788F417
:102EE00080912307882F90E08D5F984FFC018081AF
:102EF000882F90E09A838983809123078F5F809346
:102F0000230789819A810F900F900F900F90DF9186
:102F1000CF910895CF93DF9300D000D0CDB7DEB727
:102F20009C838B838FEF9FEF9A83898390912307F4
:102F300080912407981760F480912307882F90E0F0
:102F40008D5F984FFC018081882F90E09A83898360
:102F500089819A810F900F900F900F90DF91CF9100
:102F60000895CF93DF9300D0CDB7DEB79A838983DE
:102F700000000F900F90DF91CF910895CF93DF93D2
:102F800000D000D01F92CDB7DEB79B838A837D83AC
:102F90006C8380914B0790914C07892B89F190911C
:102FA000230780912407981768F119828981282FB7
:102FB00030E08C819D8128173907A4F48981882FFE
:102FC00090E02981222F30E04A815B81240F351F58
:102FD000F90120818D5F984FFC01208389818F5FEB
:102FE0008983E4CF109223078C818093240720915A
:102FF0004B0730914C078C819D81F901099503C0E5
:10300000000001C000000F900F900F900F900F90E4
:10301000DF91CF910895CF93DF93CDB7DEB7809145
:10302000490790914A07892B59F010924607109250
:1030300047078091490790914A07FC01099501C013
:103040000000DF91CF910895CF93DF9300D000D09F
:10305000CDB7DEB79A8389837C836B838B819C8118
:1030600090934C0780934B0700000F900F900F90A8
:103070000F90DF91CF910895CF93DF9300D000D0D0
:10308000CDB7DEB79A8389837C836B838B819C81E8
:1030900090934A078093490700000F900F900F907C
:1030A0000F90DF91CF910895CF93DF9300D000D0A0
:1030B000CDB7DEB79A8389837C836B8389819A81BC
:1030C000019741F48B819C81019621F48DE497E076
:1030D0000E94CF1400000F900F900F900F90DF917F
:1030E000CF910895CF93DF93CDB7DEB76FEF7FEF2A
:1030F00081E090E00E945418DF91CF910895CF9322
:10310000DF9300D0CDB7DEB79A83898300000F909C
:103110000F90DF91CF910895CF93DF93CDB7DEB7B6
:103120002C970FB6F894DEBF0FBECDBF8B876C8790
:10313000CE0101960E94CF19CE010C969E012F5F01
:103140003F4FB9010E94B810CE010B969E012F5F30
:103150003F4FB9010E94470E00002C960FB6F8941D
:10316000DEBF0FBECDBFDF91CF910895CF93DF9328
:1031700000D000D0CDB7DEB79A8389837C836B8380
:103180008B819C81FC012281338189819A81FC01A0
:103190003383228389819A810F900F900F900F9033
:1031A000DF91CF910895CF93DF9300D000D0CDB7BA
:1031B000DEB79A8389837C836B832B813C818981F1
:1031C0009A81B9010E94B6188B819C81FC0184818F
:1031D0009581A681B78129813A81F90184839583FC
:1031E000A683B7838B819C81FC0180859185A28514
:1031F000B38529813A81F90180879187A287B387B6
:1032000089819A810F900F900F900F90DF91CF914D
:103210000895CF93DF9300D000D0CDB7DEB79A8367
:1032200089837C836B832B813C8189819A81B9015D
:103230000E94D3188B819C81FC01248589819A810D
:10324000FC0124878B819C81FC01258589819A81E1
:10325000FC01258789819A81AC01425F5F4F8EEF27
:1032600090E02B813C81225F3F4F8F3FFFEF9F0714
:1032700051F0F9016081FA0160834F5F5F4F2F5F6A
:103280003F4F0197F2CF8B819C81835F9E4FFC0162
:103290002081318189819A81835F9E4FFC01318336
:1032A00020838B819C81815F9E4FFC012081318135
:1032B00089819A81815F9E4FFC01318320838B81BC
:1032C0009C818F5E9E4FFC012081318189819A8192
:1032D0008F5E9E4FFC01318320838B819C818D5EAC
:1032E0009E4FFC01208189819A818D5E9E4FFC0159
:1032F00020838B819C818C5E9E4FFC0120813181DB
:1033000089819A818C5E9E4FFC01318320838B8161
:103310009C818A5E9E4FFC012081318189819A8146
:103320008A5E9E4FFC01318320838B819C81885E65
:103330009E4FFC012081318189819A81885E9E4F58
:10334000FC013183208389819A810F900F900F9027
:103350000F90DF91CF910895CF93DF9300D000D0ED
:1033600000D0CDB7DEB79A8389834B835C836D83AE
:103370007E838B819C81AD81BE81E981FA8126E0CB
:10338000AC01BD01CF010E945A1B000026960FB66A
:10339000F894DEBF0FBECDBFDF91CF910895CF93DC
:1033A000DF9300D0CDB7DEB79A83898389819A8174
:1033B00021E0FC01208300000F900F90DF91CF915E
:1033C0000895CF93DF9300D000D0CDB7DEB79A83B6
:1033D00089837C836B8389819A81FC0180819181BF
:1033E000FC01208131814B8189819A81642FF9010F
:1033F00009950F900F900F900F90DF91CF91089546
:10340000CF93DF9300D000D0CDB7DEB79A83898306
:103410007C836B8389819A812B813C81FC0133837E
:10342000228300000F900F900F900F90DF91CF91AB
:103430000895CF93DF9300D0CDB7DEB79A83898309
:1034400027EB32E089819A81FC01318320838981D5
:103450009A81FC011382128200000F900F90DF917D
:10346000CF910895CF93DF9300D0CDB7DEB79A8385
:10347000898389819A810E94191A26E832E089811C
:103480009A81FC013183208329813A8188EE93E07F
:10349000A0E0B0E0F90184839583A683B7830000A0
:1034A0000F900F90DF91CF910895E89409C097FB9A
:1034B0003EF490958095709561957F4F8F4F9F4F0B
:1034C0009923A9F0F92F96E9BB279395F69587954F
:1034D00077956795B795F111F8CFFAF4BB0F11F412
:1034E00060FF1BC06F5F7F4F8F4F9F4F16C08823B9
:1034F00011F096E911C0772321F09EE8872F762FEF
:1035000005C0662371F096E8862F70E060E02AF02F
:103510009A95660F771F881FDAF7880F969587951B
:1035200097F908950E94F32FFC01918D228D892F28
:1035300090E0805C9F4F821B91098F7399270895BB
:10354000FC01918D828D981731F0828DE80FF11D6D
:10355000858D90E008958FEF9FEF0895FC01918D88
:10356000828D981761F0828DDF01A80FB11D5D96E5
:103570008C91928D9F5F9F73928F90E008958FEF53
:103580009FEF089587E19CE1892B49F080E090E06E
:10359000892B29F00E94171C81110C9400000895BA
:1035A000FC01848DDF01A80FB11DA35ABF4F2C91E0
:1035B000848D90E001968F739927848FA689B789AF
:1035C0002C93A089B1898C9180648C93938D848D88
:1035D000981306C00288F389E02D80818F7D808357
:1035E0000895EF92FF920F931F93CF93DF93EC0117
:1035F00081E0888F9B8D8C8D981305C0E889F989AF
:10360000808185FD24C0F62E0B8D10E00F5F1F4FCB
:103610000F731127E02E8C8DE8120CC00FB607FC3B
:10362000FACFE889F989808185FFF5CFCE010E9424
:10363000D01AF1CF8B8DFE01E80FF11DE35AFF4F39
:10364000F0820B8FEA89FB898081806207C0EE8956
:10365000FF896083E889F98980818064808381E0C3
:1036600090E0DF91CF911F910F91FF90EF9008951F
:10367000CF93DF93EC01888D8823C9F0EA89FB8919
:10368000808185FD05C0A889B9898C9186FD0FC010
:103690000FB607FCF5CF808185FFF2CFA889B989E5
:1036A0008C9185FFEDCFCE010E94D01AE7CFDF913C
:1036B000CF910895CF92DF92EF92FF921F93CF9315
:1036C000DF93EC016A017B01122FE889F98982E01E
:1036D00080834115514E61057105B1F060E079E0DC
:1036E0008DE390E0A70196010E94592EDA01C901ED
:1036F0000197A109B109B695A795979587959C0162
:10370000211580E13807A8F0E889F989108260E87E
:1037100074E88EE190E0A70196010E94592EDA012B
:10372000C9010197A109B109B695A7959795879504
:103730009C01EC85FD853083EE85FF852083188E06
:10374000EC89FD891083EA89FB898081806180830F
:10375000EA89FB89808188608083EA89FB8980818E
:1037600080688083EA89FB8980818F7D8083DF91F7
:10377000CF911F91FF90EF90DF90CF9008951F920F
:103780000F920FB60F9211242F938F939F93EF9365
:10379000FF93E0916B07F0916C078081E0917107D6
:1037A000F091720782FD12C09081809174078F5F43
:1037B0008F7320917507821751F0E0917407F0E044
:1037C000E55AF84F958F8093740701C08081FF916F
:1037D000EF919F918F912F910F900FBE0F901F909F
:1037E00018951F920F920FB60F9211242F933F93AB
:1037F0004F935F936F937F938F939F93AF93BF93F9
:10380000EF93FF938BE597E00E94D01AFF91EF9121
:10381000BF91AF919F918F917F916F915F914F91E8
:103820003F912F910F900FBE0F901F9018958BE531
:1038300097E00E94941A21E0892B09F420E0822F5E
:103840000895EBE5F7E01382128288EE93E0A0E0A2
:10385000B0E084839583A683B78386E992E0918361
:10386000808385EC90E09587848784EC90E097874F
:10387000868780EC90E0918B808B81EC90E0938B3D
:10388000828B82EC90E0958B848B86EC90E0978B1A
:10389000868B118E128E138E148E089508950E94B9
:1038A000AB1E0E944E1C0E944208C2ECDAE10E944C
:1038B000E9082097E1F30E94C21AF9CF0C94D22EA6
:1038C000CF92DF92EF92FF920F931F93CF93DF93EC
:1038D0006C017A018B01C0E0D0E0CE15DF0581F0EC
:1038E000D8016D918D01D601ED91FC910190F0818F
:1038F000E02DC6010995892B11F02196EECF7E01AE
:10390000C701DF91CF911F910F91FF90EF90DF9052
:10391000CF9008956115710579F0FB0101900020A9
:10392000E9F73197AF01461B570BDC01ED91FC9194
:103930000280F381E02D099480E090E00895EF92F9
:10394000FF920F931F93CF93DF938C017B01C0E015
:10395000D0E0F701EC0FFD1F6491662361F0D80100
:10396000ED91FC910190F081E02DC8010995892B22
:1039700011F02196EECFCE01DF91CF911F910F91E3
:10398000FF90EF9008950C948A1CDC01ED91FC915E
:103990000190F081E02D099462EA72E00C948A1C97
:1039A0000F931F93CF93DF93EC010E949F1C8C0118
:1039B000CE010E94CC1C800F911FDF91CF911F91EF
:1039C0000F9108950F931F93CF93DF93EC010E9403
:1039D0008A1C8C01CE010E94CC1C800F911FDF91AC
:1039E000CF911F910F9108950F931F93CF93DF9362
:1039F000EC010E94C51C8C01CE010E94CC1C800FE2
:103A0000911FDF91CF911F910F9108958F929F92F7
:103A1000AF92BF92EF92FF920F931F93CF93DF93DA
:103A2000CDB7DEB7A1970FB6F894DEBF0FBECDBFFE
:103A30007C01FA01CB0119A2223008F42AE08E01A0
:103A40000F5D1F4F822E912CA12CB12CBF01A5011F
:103A500094010E94592EF901CA01015011096A30DE
:103A600010F4605D01C0695CD8016C93232B242B9A
:103A7000252B61F7B801C7010E948A1CA1960FB6D9
:103A8000F894DEBF0FBECDBFDF91CF911F910F9194
:103A9000FF90EF90BF90AF909F908F900895211569
:103AA000310541F4DC01ED91FC910190F081E02DB4
:103AB000642F09940C94061D9A01462F50E060E093
:103AC00070E00C944F1D0F931F93CF93DF93EC0185
:103AD0000E945C1D8C01CE010E94CC1C800F911FA6
:103AE000DF91CF911F910F9108959A01AB0160E092
:103AF00070E00C944F1D0F931F93CF93DF93EC0155
:103B00000E94751D8C01CE010E94CC1C800F911F5C
:103B1000DF91CF911F910F9108950F931F93CF9332
:103B2000DF93EC010E944F1D8C01CE010E94CC1C42
:103B3000800F911FDF91CF911F910F910895CF9228
:103B4000DF92EF92FF920F931F93CF93DF93211594
:103B5000310581F4DC01ED91FC910190F081E02DC3
:103B6000642FDF91CF911F910F91FF90EF90DF9025
:103B7000CF9009942A30310501F577FF1DC06A0105
:103B80007B01EC016DE20E94C51C8C014427552786
:103B9000BA014C195D096E097F092AE0CE010E9425
:103BA000061D800F911FDF91CF911F910F91FF9004
:103BB000EF90DF90CF9008952AE0DF91CF911F9191
:103BC0000F91FF90EF90DF90CF900C94061D9A011B
:103BD000AB01770F660B770B0C949F1D0F931F9310
:103BE000CF93DF93EC010E949F1D8C01CE010E94B8
:103BF000CC1C800F911FDF91CF911F910F910895E1
:103C00001F920F920FB60F9211242F933F938F9311
:103C10009F93AF93BF938091F9079091FA07A0917A
:103C2000FB07B091FC073091F80723E0230F2D37F5
:103C300020F40196A11DB11D05C026E8230F0296B0
:103C4000A11DB11D2093F8078093F9079093FA07FF
:103C5000A093FB07B093FC078091FD079091FE07AE
:103C6000A091FF07B09100080196A11DB11D80939E
:103C7000FD079093FE07A093FF07B0930008BF9144
:103C8000AF919F918F913F912F910F900FBE0F9009
:103C90001F9018953FB7F8948091FD079091FE070B
:103CA000A091FF07B091000826B5A89B05C02F3F43
:103CB00019F00196A11DB11D3FBFBA2FA92F982F52
:103CC0008827820F911DA11DB11DBC01CD0142E0CD
:103CD000660F771F881F991F4A95D1F708958F9215
:103CE0009F92AF92BF92CF92DF92EF92FF926B01C1
:103CF0007C010E944A1E4B015C01C114D104E10405
:103D0000F10401F10E940E2D0E944A1EDC01CB013C
:103D100088199909AA09BB09883E9340A105B105F4
:103D200060F321E0C21AD108E108F10888EE880E9C
:103D300083E0981EA11CB11CC114D104E104F1045C
:103D400019F7DBCFFF90EF90DF90CF90BF90AF904F
:103D50009F908F900895789484B5826084BD84B5D7
:103D6000816084BD85B5826085BD85B5816085BD76
:103D7000EEE6F0E0808181608083E1E8F0E010828F
:103D8000808182608083808181608083E0E8F0E0D0
:103D9000808181608083E1EBF0E0808184608083BA
:103DA000E0EBF0E0808181608083EAE7F0E08081F1
:103DB0008460808380818260808380818160808351
:103DC0008081806880831092C10008958E3008F051
:103DD0008E502091080190E4299F90011124877052
:103DE000822B80937C0080917A00806480937A009B
:103DF00080917A0086FDFCCF809178002091790037
:103E000090E0922B0895833081F028F4813099F06E
:103E10008230A1F008958730A9F08830B9F084305D
:103E2000D1F4809180008F7D03C0809180008F77D6
:103E300080938000089584B58F7702C084B58F7D0C
:103E400084BD08958091B0008F7703C08091B00049
:103E50008F7D8093B0000895CF93DF9390E0FC01B5
:103E6000E85CFB4F2491FC01E45BFB4F84918823C9
:103E700061F190E0880F991FFC01EC58FB4FC59150
:103E8000D491FC01E659FB4FA591B491611109C091
:103E90009FB7F8948881209582238883EC912E2304
:103EA0000BC0623061F49FB7F8948881322F30954F
:103EB00083238883EC912E2B2C939FBF06C08FB752
:103EC000F894E8812E2B28838FBFDF91CF9108953E
:103ED0001F93CF93DF93282F30E0F901EC5DFB4F68
:103EE0008491F901E85CFB4FD491F901E45BFB4F4D
:103EF000C491CC23C1F0162F81110E94031FEC2F17
:103F0000F0E0EE0FFF1FE659FB4FA591B4919FB76C
:103F1000F894111104C08C91D095D82302C0EC9173
:103F2000DE2BDC939FBFDF91CF911F910895885EB8
:103F30009E4FDC018D919C91DC01ED91FC91048000
:103F4000F581E02D0994885E9E4FDC018D919C9156
:103F5000DC01ED91FC910190F081E02D0994885EE7
:103F60009E4FDC018D919C91DC01ED91FC910680CE
:103F7000F781E02D0994885E9E4FDC018D919C9124
:103F8000DC01ED91FC910084F185E02D0994885EBF
:103F90009E4FDC018D919C91DC01ED91FC9102849E
:103FA000F385E02D0994FC011382128288EE93E0E0
:103FB000A0E0B0E084839583A683B78388E193E093
:103FC000918380836487DF01A35FBE4F8EED97E00E
:103FD00011969C938E93129611961C921E92129695
:103FE00011961C921E92179611961C921E9215976E
:103FF0001C92119689ED97E08D939C93EA5EFE4F9B
:1040000086ED97E0918380830895FC01E35FFE4F86
:10401000718360833296518340833296318320834B
:1040200008950F931F93CF93DF93EC0180E090E00E
:104030008C010F5F1F4F8897D8F4E881F9810480C5
:10404000F581E02DCE010995892B51F0E881F981A8
:104050000680F781E02DCE01099500E010E0EDCF5C
:1040600061E070E080E090E00E946F1EC801E0CF48
:10407000DF91CF911F910F910895FF920F931F939E
:10408000CF93DF93EC018B01F42E0E9411206CE89A
:1040900075E08BE597E00E949F1C6EE775E08BE56D
:1040A00097E00E949F1CB8018BE597E00E949F1C3F
:1040B00062E28BE597E00E94F41CC85EDE4F60E789
:1040C00075E0888199810E949F1CB801888199813F
:1040D0000E949F1C88819981FF2019F06CE675E091
:1040E00002C069E675E0DF91CF911F910F91FF90BB
:1040F0000C949F1C9F92AF92BF92CF92DF92EF924F
:10410000FF920F931F93CF93DF937C01942E8B012B
:10411000000F111F000F111FC0E0D0E0570188EE03
:10412000A81A8EEFB80A0115110509F450C0CE3F48
:10413000D10580F06EEB74E022C0F50180819181A1
:10414000DC01ED91FC910680F781E02D09956C0171
:104150008D3069F4D5018D919C91DC01ED91FC913C
:104160000480F581E02D0995892B39F726C08A3026
:1041700059F4209779F3911007C066EB74E08BE552
:1041800097E00E94D01C23C0F701EC0FFD1FC686EC
:10419000B601772740E150E08BE597E00E94E71DEC
:1041A0006BEB72E08BE597E00E94C31C6C2D8BE5F6
:1041B00097E00E94F41C2196CDCF01501109E9F23D
:1041C00061E070E080E090E00E946F1EACCFF701EC
:1041D000EC0FFD1F16868C2FDF91CF911F910F9151
:1041E000FF90EF90DF90CF90BF90AF909F90089599
:1041F0000F931F93CF93DF93EC018B01BA0140E043
:104200000E947A2064EC74E08BE597E00E949F1C8A
:104210002E96BE018BE597E00E94E21CB801CE010C
:104220000E941A3021E0892B09F020E0822FDF91D3
:10423000CF911F910F910895CF93DF93EC01FC0173
:10424000E85EFE4F662331F062E2808191810E9438
:10425000F41C04C0808191810E94CC1CFE01EA5EA6
:10426000FE4F6081718140E157E2CE01DF91CF9135
:104270000C94F8200F931F93CF93DF93EC018A01E6
:1042800041E00E943D20FE01E85EFE4FB8018081C2
:1042900091810E94C31C61E0CE01DF91CF911F91FB
:1042A0000F910C941C210F931F93CF93DF93EC017C
:1042B0008A0141E00E943D20FE01E85EFE4FB80108
:1042C000808191810E949F1C61E0CE01DF91CF919E
:1042D0001F910F910C941C21CF92DF92EF92FF92CD
:1042E000CF93DF93EC0169017A0140E00E943D2009
:1042F000FE01E85EFE4F2AE030E0B701A6018081B2
:1043000091810E949F1D60E0CE01DF91CF91FF90CF
:10431000EF90DF90CF900C941C214F925F926F92A0
:104320007F928F929F92AF92BF92EF92FF920F93E4
:104330001F93CF93DF937C012A013B014801590170
:104340000E94112062E675E08BE597E00E949F1CB9
:1043500065E575E08BE597E00E949F1C2AE030E060
:10436000B301A2018BE597E00E944F1D6CE28BE543
:1043700097E00E94C51C2AE030E0B501A4018BE55E
:1043800097E00E948D1DE701C85EDE4F68E475E08E
:10439000888199810E949F1C2AE030E0B301A2012C
:1043A000888199810E944F1D65EC72E08881998116
:1043B0000E94C31C2AE030E0B501A40188819981E4
:1043C0000E948D1D40E157E26FE375E0C701DF9168
:1043D000CF911F910F91FF90EF90BF90AF909F9062
:1043E0008F907F906F905F904F900C94F820EF9299
:1043F000FF920F931F93CF93DF93EC018B017A0110
:104400000E9411206FEA74E08BE597E00E949F1CE8
:10441000B8018BE597E00E94E21CFE01E85EFE4FCA
:10442000B801808191810E94E21C40E0B701CE0179
:104430000E947A20182F68EA74E08BE597E00E94CA
:104440009F1CBE01625F7F4F8BE597E00E94E21CDC
:10445000812FDF91CF911F910F91FF90EF900895E1
:10446000EF92FF920F931F93CF93DF93EC018B0199
:104470007A010E94112061EA74E08BE597E00E94C6
:104480009F1CB8018BE597E00E94D01CFE01E85EFE
:10449000FE4FB801808191810E94D01C40E0B7019D
:1044A000CE010E947A20182F6AE974E08BE597E02C
:1044B0000E949F1CBE01625F7F4F8BE597E00E94C8
:1044C000E21C812FDF91CF911F910F91FF90EF9010
:1044D00008950F931F93CF93DF938C0144EF51E026
:1044E0006BE976E00E94302260E976E0C8010E9622
:1044F0000E942C30EC01892B71F040E064EF71E0F8
:10450000C8010E947A208A85803339F08C858133F6
:1045100031F081E005C08FEF03C080E001C083E08F
:10452000DF91CF911F910F910895CF92DF92EF927B
:10453000FF920F931F93CF938C017A01C22F44EF08
:1045400051E065E876E00E94302260E876E0C8013C
:104550000E960E942C30009721F4F701108280E023
:1045600024C0BC016A5F7F4FFB0101900020E9F786
:104570003197E61BF70B8C2F90E00197E817F907AE
:1045800010F4C15001C0CE2FCC2ED12CA601C701F2
:104590000E946F30F701EC0DFD1D108240E064EFCA
:1045A00071E0C8010E947A208C2FCF911F910F914A
:1045B000FF90EF90DF90CF9008952F923F924F920F
:1045C0005F926F927F928F929F92AF92BF92CF92A3
:1045D000DF92EF92FF920F931F93CF93DF93CDB7AC
:1045E000DEB7CA57D1090FB6F894DEBF0FBECDBFF4
:1045F0005C011B01EB965FAF4EAFEB9739012801D1
:104600000E946922823014F480E08AC028E7AE015B
:104610004F5F5F4F60E2C5010E9495228823A1F39E
:1046200065EC72E0CE0101960E944630892B61F361
:1046300065EC72E080E090E00E944630892B21F327
:1046400065EC72E080E090E00E9446304C01892BDE
:10465000D9F265EC72E080E090E00E9446305C01A7
:10466000892B91F265EC72E080E090E00E94463088
:104670008C01892B49F24EE050E0B401C6010E9442
:104680006F30F6011686C5010E94F82FF101608394
:10469000718382839383C8010E94F82FEB96EEAD5D
:1046A000FFADEB976083718382839383E114F10400
:1046B00081F065EC72E080E090E00E944630009767
:1046C00009F4A2CF0E94F82FF701608371838283DF
:1046D00093836114710481F065EC72E080E090E0F6
:1046E0000E944630009709F48FCF0E94F82FF30103
:1046F00060837183828393834114510481F065EC5C
:1047000072E080E090E00E944630009709F47CCF90
:104710000E94F82FF201608371838283938381E08A
:10472000C658DF4F0FB6F894DEBF0FBECDBFDF9186
:10473000CF911F910F91FF90EF90DF90CF90BF909E
:10474000AF909F908F907F906F905F904F903F9031
:104750002F9008958F929F92AF92BF92CF92DF9247
:10476000EF92FF920F931F93CF93DF93EC016B01B6
:1047700049015A010E94112063E974E08BE597E03A
:104780000E949F1CB6018BE597E00E949F1C2AE0C7
:1047900030E0B501A4018BE597E00E94EE1D7E019B
:1047A00088EEE81A8EEFF80AB601F7018081918150
:1047B0000E949F1C2AE030E0B501A401F70180812E
:1047C00091810E94EE1D40E0B801CE010E947A2046
:1047D000182F6CE874E08BE597E00E949F1CBE01E7
:1047E000625F7F4F8BE597E00E94E21C812FDF9193
:1047F000CF911F910F91FF90EF90DF90CF90BF90DE
:10480000AF909F908F900895AF92BF92CF92DF921A
:10481000EF92FF920F931F93CF93DF93EC016B0105
:104820007A0159010E94112065E874E08BE597E058
:104830000E949F1CB6018BE597E00E949F1C62E2DC
:104840008BE597E00E94C51CB7018BE597E00E94BD
:104850009F1C62E28BE597E00E94F41C8E01085ECB
:104860001E4FB601F801808191810E949F1C62E277
:10487000F801808191810E94C51CB701F8018081F7
:1048800091810E949F1C62E2F801808191810E94C7
:10489000F41C40E0B501CE010E947A20182F6EE78B
:1048A00074E08BE597E00E949F1CBE01625F7F4F22
:1048B0008BE597E00E94E21C812FDF91CF911F9141
:1048C0000F91FF90EF90DF90CF90BF90AF90089541
:1048D0000F931F93CF93DF93EC018A01A9010E94EC
:1048E0003022882341F0B801CE010E960E941A3082
:1048F00021E0892B09F020E0822FDF91CF911F91D9
:104900000F910895CF92DF92EF92FF920F931F9332
:10491000CF93DF93EC017C0188EEE81A8EEFF80A62
:10492000D7016D937C9361E08C850E942C1F61E020
:104930008C850E94681F6AE070E080E090E00E9431
:104940006F1E60E08C850E94681F64E670E080E066
:1049500090E00E946F1E61E08C850E94681F65EBED
:1049600077E08BE597E00E94D01C8EE0C82ED12C1A
:104970008E010A5E1E4FF70180819181DC01ED916D
:10498000FC910480F581E02D0995892B89F060EA7E
:1049900077E08BE597E00E94D01CF7018081918140
:1049A000DC01ED91FC910680F781E02D0995E3CFC4
:1049B000F8014081518124EF31E06DE977E0CE01CB
:1049C0000E946824811163C0D7018D919C91DC0104
:1049D000ED91FC910480F581E02D0995892B59F02A
:1049E000F70180819181DC01ED91FC910680F781D6
:1049F000E02D0995E9CF24EF31E04AE957E067E976
:104A000077E0CE010E946824811141C064EF71E01B
:104A100080E090E00E946F1EB1E0CB1AD10809F04F
:104A2000AACF65E677E08BE597E00E94D01CD8011D
:104A30004D915C9124EF31E062E677E0CE010E9477
:104A4000682464E670E080E090E00E946F1EF80148
:104A50004081518124EF31E06FE577E0CE010E9483
:104A6000682464E670E080E090E00E946F1ED80148
:104A70004D915C9124EF31E06CE577E0CE010E942E
:104A8000682464E670E080E090E00E946F1EF80108
:104A90004081518124EF31E067E577E0CE010E944B
:104AA000682464E670E080E090E00E946F1ED80108
:104AB0004D915C9124EF31E062E577E0CE010E94F8
:104AC0006824D82E882309F497C0F80140815181C9
:104AD00024EF31E068E477E0CE010E94682464E6C8
:104AE00070E080E090E00E946F1ECE010E941120D5
:104AF00061E477E08BE597E00E949F1C6FEC72E029
:104B00008BE597E00E94E21C6FEC72E0D7018D917B
:104B10009C910E94E21C41E064EF71E0CE010E9492
:104B20007A206AE377E08BE597E00E949F1C8E0174
:104B3000025F1F4FB8018BE597E00E94E21C6FE215
:104B400077E0C8010E942C30892B11F083E023C04C
:104B500064E277E0C8010E942C30892B11F082E0DA
:104B60001AC069E177E0C8010E942C30892B11F04E
:104B700081E011C069E077E0C8010E942C30892BE8
:104B800011F084E008C069EF76E0C8010E942C3083
:104B9000892B11F085E08D878D85813069F562EF75
:104BA00076E08BE597E00E949F1C63ED72E08BE559
:104BB00097E00E94E21C63ED72E0F7018081918131
:104BC0000E94E21C41E064EF71E0CE010E947A2075
:104BD0006BEE76E08BE597E00E949F1CB8018BE5B9
:104BE00097E00E94E21C63EE76E0C8010E942C3040
:104BF000892B11F086E08D878D2DDF91CF911F914C
:104C00000F91FF90EF90DF90CF900895FC01EA5E46
:104C1000FE4F4081518124EF31E06FE975E00C9443
:104C20006824FC01EA5EFE4F4081518124EF31E0AF
:104C300063E975E00C9468240C9411260F931F937C
:104C4000CF93DF93EC018A01A9010E94F721882309
:104C500041F0B801CE010E960E941A3021E0892B56
:104C600009F020E0822FDF91CF911F910F910895DD
:104C7000AF92BF92CF92DF92EF92FF920F931F936A
:104C8000CF93DF93CDB7DEB76E970FB6F894DEBF44
:104C90000FBECDBF8C015B016A01FC01EA5EFE4FD5
:104CA0004081518124EF31E06CEA76E00E94682473
:104CB000882309F488C08AE0E2EDF1E09E012F5FCD
:104CC0003F4F7901D90101900D928A95E1F7FE01DC
:104CD0003B9684E1DF011D928A95E9F743E150E0BC
:104CE000B501CE010A960E946F30F70101900020B5
:104CF000E9F7319782E2808324EF31E049EA56E018
:104D0000B701C8010E941E26882309F45CC066EA28
:104D100076E08BE597E00E949F1CB6018BE597E05B
:104D20000E94E21CB6017801B8EEEB1ABEEFFB0A56
:104D3000F701808191810E94E21CD7018D919C91A5
:104D40000E94CC1CF70180819181DC01ED91FC91E6
:104D50000190F081E02D6AE109956CEE72E08BE53F
:104D600097E00E94E21CF80185858450823060F44F
:104D700040E068EC70E0C8010E947A2040E068ECF6
:104D800070E0C8010E947A2040E060E177E2C8014B
:104D90000E947A207801FEE0EF0EF11C6FEE72E0C7
:104DA000C7010E947E30892B71F040E068EE73E00D
:104DB000C8010E947A2062EC72E0C7010E945D3057
:104DC00021E0892B09F020E0822F6E960FB6F8942F
:104DD000DEBF0FBECDBFDF91CF911F910F91FF902E
:104DE000EF90DF90CF90BF90AF900895CF92DF9279
:104DF000EF92FF920F931F93CF93DF93EC01680123
:104E000087010E94AA23B601CE010E960E941A3095
:104E100021E0892B09F020E0822FDF91CF911F91B3
:104E20000F91FF90EF90DF90CF900895EF92FF9257
:104E30000F931F93FC01EA5EFE4F00811181262F24
:104E400030E040E050E064EFE62EFF24F39463EF9F
:104E500074E00E94F6261F910F91FF90EF90089545
:104E60000F931F93CF93DF93EC018B010E941126C8
:104E7000CE010E940626811102C080E038C021E0E8
:104E800030E040E050E068ED74E0CE010E946C211B
:104E9000882399F3FE01EC5EFE4F4081518165ED60
:104EA00074E0CE010E945321882339F3A80161EDFB
:104EB00074E0CE010E943A218823F9F2FE01ED5EF2
:104EC000FE4F9081992399F021E030E040E050E0DE
:104ED0006BEC74E0CE010E946C21882371F261E0DA
:104EE000CE01DF91CF911F910F910C941627DF9186
:104EF000CF911F910F910895EF92FF920F931F93FF
:104F0000CF93DF93EC01790198010E940424B7014B
:104F1000CE010E960E941A3021E0892B09F020E084
:104F2000822FDF91CF911F910F91FF90EF90089505
:104F30008F929F92AF92BF92CF92DF92EF92FF92A9
:104F40000F931F93CF93DF93EC0120E23EE466239F
:104F500009F40FC148E756E06DE676E00E94682448
:104F60007E018AEEE81A8EEFF80AF701408151813E
:104F700020E137E262E676E0CE010E9468248823D1
:104F800009F424C1F7014081518120E137E264E452
:104F900076E0CE010E946824882309F417C14E01EF
:104FA000F3EF8F1AFEEF9F0AF40140815181411502
:104FB0005105A9F4F7014081518120E335E76FEDF8
:104FC00075E0CE010E946824882309F4FFC0F70130
:104FD0004081518120E137E266ED75E0E8C0F701DC
:104FE0002081318100E117E260E376E0CE010E948A
:104FF0007C27882309F4EAC0CE010E9411208E018B
:10500000085E1E4F66E276E0F801808191810E9481
:105010009F1CF40160817181F801808191810E945F
:105020009F1C5E01F1EFAF1AFEEFBF0AF501808110
:105030009181892B79F060E173E0F80180819181A1
:105040000E94C31CF50160817181F801808191810A
:105050000E949F1C6E01FFEECF1AFEEFDF0AF601E1
:1050600080819181892B79F060E173E0F801808182
:1050700091810E94C31CF60160817181F8018081D9
:1050800091810E949F1C62E173E0F801808191810F
:105090000E94E21C6FE176E08BE597E00E949F1C86
:1050A00065E176E08BE597E00E949F1CF40160814A
:1050B00071818BE597E00E949F1CF50180819181B1
:1050C000892B69F060E173E08BE597E00E94C31CD7
:1050D000F501608171818BE597E00E949F1CF601CC
:1050E00080819181892B69F060E173E08BE597E025
:1050F0000E94C31CF601608171818BE597E00E94DC
:105100009F1C62E173E08BE597E00E94E21CF701CF
:105110006081718140E157E2CE010E94F82088232E
:1051200009F454C0F501408151814115510539F40C
:10513000F601408151814115510571F43BCFF701D2
:105140002081318100E117E260E076E0CE010E942B
:105150007C278111EDCF3AC0F7012081318100E138
:1051600017E26CEE75E0CE010E947C27811122CF00
:105170002DC04EEC55E063EC75E00E946824882356
:1051800029F18E010A5E1E4FF8014081518120E114
:1051900037E266EB75E0CE010E9468248823B1F007
:1051A000F8014081518120E137E26BEA75E0CE01E0
:1051B000DF91CF911F910F91FF90EF90DF90CF90F3
:1051C000BF90AF909F908F900C94682480E0DF9107
:1051D000CF911F910F91FF90EF90DF90CF90BF90F4
:1051E000AF909F908F900895AF92BF92CF92DF9231
:1051F000EF92FF920F93CF93DF935B016A01E22E50
:105200000E960E942C30EC01892BC1F0C5010E9442
:1052100023308C0F9D1FC0E0F12CC01741F0B70167
:105220000E945230009751F00196CF5FF6CF0E9456
:10523000FC2FF6019183808381E001C080E0DF9143
:10524000CF910F91FF90EF90DF90CF90BF90AF90F4
:105250000895EF92FF920F93CF93DF93EC017B01C0
:1052600044EF51E06AE075E00E94302200E02CE259
:10527000A7016FEF74E0CE010E94F428DF91CF9177
:105280000F91FF90EF9008954F925F926F927F92EF
:10529000AF92BF92CF92DF92EF92FF920F931F9344
:1052A000CF93DF93EC015A01690127013801FC011A
:1052B000EA5EFE4F00811181262F30E040E050E091
:1052C00084EFE82EFF24F39460E375E0CE010E94A2
:1052D000F626811102C080E017C040E0B201CE0185
:1052E0000E947A2001E02CE2A50163E275E0CE0184
:1052F0000E94F428882379F302E02CE2A60166E1FB
:1053000075E0CE010E94F428DF91CF911F910F919B
:10531000FF90EF90DF90CF90BF90AF907F906F9015
:105320005F904F9008954F925F926F927F928F920D
:105330009F92AF92BF92CF92DF92EF92FF920F9324
:105340001F93CF93DF93EC012A01390148015701E4
:105350000E943027882309F471C0A2016BEE74E02B
:10536000CE010E945321882309F468C0A80160E09F
:1053700070E000E117E220E030E0CE010E948D21D4
:10538000882309F45BC0FE01E85EFE4F80819181B5
:10539000DC01ED91FC910280F381E02DA401B301C9
:1053A0000995FE01EA5EFE4F6081718140E157E29E
:1053B000CE010E94F820882309F440C010E1E12EBC
:1053C00017E2F12E00E010E09601A50161E0CE01A8
:1053D0000E944429882391F162EE74E08BE597E006
:1053E0000E949F1CF501608171814AE050E08BE5CD
:1053F00097E00E947B1D6CED74E08BE597E00E94C6
:105400009F1CD6016D917C914AE050E08BE597E0BE
:105410000E947B1DB601CE01DF91CF911F910F91AC
:10542000FF90EF90DF90CF90BF90AF909F908F90C4
:105430007F906F905F904F900C94292980E0DF91CE
:10544000CF911F910F91FF90EF90DF90CF90BF9081
:10545000AF909F908F907F906F905F904F90089546
:10546000AF92BF92CF92DF92EF920F931F93CF93A1
:10547000DF93EC016A015901102F0E2D44EF51E02A
:105480000E943022212FA501B601CE010E94F428EE
:10549000182F882331F040E064EF71E0CE010E94C4
:1054A0007A20812FDF91CF911F910F91EF90DF90A4
:1054B000CF90BF90AF900895EF920F939B01EE2491
:1054C000E3940CE24CED56E065ED76E00E94302A64
:1054D0000F91EF900895EF920F93CF93DF9300D049
:1054E000CDB7DEB7EE24E3940CE29E012F5F3F4F71
:1054F0004DEC56E064EC76E00E94302A882311F0EF
:10550000898101C080E00F900F90DF91CF910F91C2
:10551000EF900895EF920F93CF93DF9300D0CDB724
:10552000DEB7E12C0CE29E012F5F3F4F4DEB56E0C2
:1055300066EB76E00E94302A882311F0898101C051
:1055400080E00F900F90DF91CF910F91EF90089531
:10555000209143083091440828173907B9F49091F5
:10556000010880910208981789F0E0910108F0E0A5
:10557000ED5FF74F80812091010830E02F5F3F4FB2
:105580002F7333272093010890E008958FEF9FEF4A
:1055900008951F93CF93DF93DC015C968D919C91CE
:1055A0005D97009739F421E030E013963C932E93F9
:1055B00012973BC05196ED91FC91529750962C91C9
:1055C0005097322F30951FB75E964C915E97742F8F
:1055D000727041FD6095F8944081772311F0422B61
:1055E00001C043234083EC012197F1F748E050814B
:1055F00060FF02C0522B01C053235083EC0121975E
:10560000F1F76695415099F78081772319F083234C
:10561000808302C0282B20831FBF5C968D919C91B4
:105620005D970197F1F781E090E0DF91CF911F91B5
:1056300008950895209143083091440828173907A8
:1056400071F49091010880910208981741F0E0915F
:105650000108F0E0ED5FF74F808190E008958FEF53
:105660009FEF089520914308309144082817390787
:1056700071F4809102082091010890E0805C9F4FB6
:10568000821B910960E470E00E94452E089580E03D
:1056900090E00895E0914308F0914408E817F90775
:1056A00069F4A389B4899C918589809589238C9319
:1056B000109244081092430881E0089580E0089514
:1056C000CF93DF93EC018A8D9B8D892BF1F0809134
:1056D000430890914408C817D907B9F0009711F012
:1056E0000E944A2B8E8D8E7F8E8F10920208109210
:1056F0000108D0934408C0934308EB89FC8990814A
:105700008D89892B808381E001C080E0DF91CF917A
:1057100008951F920F920FB60F9211242F933F936B
:105720004F935F936F937F938F939F93AF93BF93A9
:10573000EF93FF93E0914308F0914408309709F408
:1057400051C0968DA685B785858591FF04C09C9133
:10575000892329F447C09C91892309F043C0A38978
:10576000B4899C918589809589238C9386899789B2
:105770000197F1F7608D718DA685B785558538E065
:1057800020E0CB010197F1F7822F90E09595879566
:10579000282F4C91452309F02068315091F7868DD0
:1057A00081FD20958091020890E001968F739927E2
:1057B00030910108381749F0A0910208B0E0AD5FC0
:1057C000B74F2C938093020803C0868D8160868F2B
:1057D000828D938D0197F1F7A389B4899C91858976
:1057E000892B8C93FF91EF91BF91AF919F918F91F6
:1057F0007F916F915F914F913F912F910F900FBECD
:105800000F901F9018951F93CF93DF93EC01162FE5
:105810006E8D6695617081E06827812F0E94681FF8
:1058200061E0812F0E942C1F812F90E0FC01E85C39
:10583000FB4FE491E88BFC01E45BFB4FE491F0E06B
:10584000EE0FFF1FE659FB4F859194919A8B898B40
:10585000DF91CF911F9108951F93CF93DF93EC01B8
:10586000162F60E0812F0E942C1F8E8D81FD04C0B9
:1058700061E0812F0E94681F1C87812F90E0FC014E
:10588000E85CFB4FE491ED87FC01E45BFB4FE491A6
:10589000F0E0EE0FFF1FE05AFB4F859194919F8738
:1058A0008E87DF91CF911F9108951F93CF93DF9340
:1058B000EC01162F1B821A8288EE93E0A0E0B0E084
:1058C0008C839D83AE83BF8388E293E09983888332
:1058D0001F8A1E8A198E188E1B8E1A8E1D8E1C8E84
:1058E0008E8D8E7F20FB81F98E8F642FCE010E94DA
:1058F000032C612FCE01DF91CF911F910C942C2CA2
:10590000CF93DF93EC019A01AB011B8E1A8E198E97
:10591000188E1F8A1E8A60E079E08DE390E00E9475
:105920007B2EF9012430310518F0C901039702C01C
:1059300081E090E09D8F8C8F6C85663108F069C0A6
:10594000C901969587958431910510F0439702C05F
:1059500081E090E09F8B8E8B369718F0C9010597F8
:1059600002C081E090E0998F888FC901880F991F4C
:10597000280F391F36952795369527952D303105F7
:1059800018F02C50310902C021E030E03B8F2A8F03
:1059900090916800683050F021E06E3008F420E00B
:1059A00081E001C0880F2A95EAF701C084E0892BC5
:1059B000809368009C85983038F09E3040F0963196
:1059C00048F020E030E008C02DE630E005C02BE6CE
:1059D00030E002C02CE630E03C8B2B8B983030F46A
:1059E00081E001C0880F9A95EAF70EC0292F30E0B8
:1059F0009E3018F42850310902C02E50310981E040
:105A000001C0880F2A95EAF78D8B8C8D9D8D0197AB
:105A1000F1F7CE01DF91CF910C94602B089508959A
:105A20001F920F920FB60F9211242F933F934F9313
:105A30005F936F937F938F939F93AF93BF93EF93F6
:105A4000FF93E0910901F0910A010995FF91EF910F
:105A5000BF91AF919F918F917F916F915F914F9186
:105A60003F912F910F900FBE0F901F9018951F928E
:105A70000F920FB60F9211242F933F934F935F9382
:105A80006F937F938F939F93AF93BF93EF93FF9306
:105A9000E0910B01F0910C010995FF91EF91BF91FD
:105AA000AF919F918F917F916F915F914F913F91B6
:105AB0002F910F900FBE0F901F9018950E94632D8D
:105AC00008F481E00895990F0008550FAA0BE0E84B
:105AD000FEEF16161706E807F907C0F012161306B0
