S010000049414141455F524D2E73726563C5
S11300000C94EF000C9417010C9417010C94510FED
S11300100C94510F0C94510F0C9417010C9417016C
S11300200C9417010C9417010C9417010C941701EC
S11300300C9417010C9417010C9417010C941701DC
S11300400C94D90C0C9417010C94BC0A0C94EE0A71
S11300500C9417010C9417010C9417010C941701BC
S11300600C94F7060C941701093C2D2D2D20000942
S11300702D2D2D3E200054494D454F5554005350CD
S11300804143450053494D38303820523134004102
S11300905445300041544530004154204661696C58
S11300A02E2E2E206C617374206469746368206141
S11300B07474656D70742E004154004154004154B1
S11300C00041540041540041540053657269616C0D
S11300D02077617320617661696C61626C650041AF
S11300E07474656D7074696E6720746F206F7065C9
S11300F06E20636F6D6D20776974682041547300BE
S11301004F4B00464F4E4100464F4E416E657400C2
S113011054656D703D00207C200043757272656EDD
S1130120743D00207C200050562D563D00207C203C
S113013000426174742D563D004265686176696FB2
S113014075720053656E64696E6720646174612E14
S11301502E2E00426F6F7420436F756E74005374BB
S1130160617274696E672E2E2E0052656164696E29
S1130170672073656E736F72732E2E2E000000005D
S11301800800020100000304070000000000000052
S1130190000102040810204080010204081020011C
S11301A002040810200404040404040404020202E7
S11301B002020203030303030300000000230026DA
S11301C000290000000000250028002B000000008A
S11301D000240027002A0000BB048D091E0B1124F3
S11301E01FBECFEFD8E0DEBFCDBF11E0A0E0B1E08D
S11301F0E0E3F5E202C005900D92A03AB107D9F709
S113020024E0A0EAB1E001C01D92A337B207E1F7F0
S113021010E0CFEED0E004C02197FE010E944C1103
S1130220CC3ED107C9F70E944C0B0C9496120C9447
S11302300000875E9E4FDC018D919C91DC01ED9165
S1130240FC910480F581E02D0994875E9E4FDC01CA
S11302508D919C91DC01ED91FC910190F081E02D58
S11302600994875E9E4FDC018D919C91DC01ED9198
S1130270FC910680F781E02D0994875E9E4FDC0196
S11302808D919C91DC01ED91FC910084F185E02D30
S11302900994875E9E4FDC018D919C91DC01ED9168
S11302A0FC910284F385E02D0994FC0113821282EF
S11302B088EE93E0A0E0B0E084839583A683B783BF
S11302C082E491E09183808383E086876487458715
S11302D0DF01A25FBE4F88E091E011969C938E935C
S11302E0129611961C921E92129611961C921E92B0
S11302F0179611961C921E9215971C92119683E0E4
S113030091E08D939C93E95EFE4F80E091E09183B0
S1130310808308950F931F93CF93DF93EC0180E0C4
S113032090E08C010F5F1F4F8897D8F4E881F98122
S11303300480F581E02DCE010995892B51F0E881E7
S1130340F9810680F781E02DCE01099500E010E0E7
S1130350EDCF61E070E080E090E00E94480DC801BC
S1130360E0CFDF91CF911F910F9108959F92AF92AB
S1130370BF92CF92DF92EF92FF920F931F93CF938E
S1130380DF937C01942E8B01000F111F000F111FAE
S1130390C0E0D0E0570187EEA81A8EEFB80A011525
S11303A0110509F450C0CE3FD10580F06EE770E02E
S11303B022C0F50180819181DC01ED91FC910680E0
S11303C0F781E02D09956C018D3069F4D5018D918B
S11303D09C91DC01ED91FC910480F581E02D09955F
S11303E0892B39F726C08A3059F4209779F3911074
S11303F007C066E770E085E893E00E94CD0B23C058
S1130400F701EC0FFD1FC786B601772740E150E0E6
S113041085E893E00E94D20C67E071E085E893E000
S11304200E94C00B6C2D85E893E00E94F10B21968D
S1130430CDCF01501109E9F261E070E080E090E075
S11304400E94480DACCFF701EC0FFD1F17868C2FCF
S1130450DF91CF911F910F91FF90EF90DF90CF909C
S1130460BF90AF909F900895EF92FF920F931F93C8
S1130470CF93DF93EC018B017A010E948A016FE62E
S113048070E085E893E00E949C0BB80185E893E056
S11304900E94CD0BFE01E75EFE4FB8018081918181
S11304A00E94CD0B40E0B701CE010E94B601182F87
S11304B068E670E085E893E00E949C0BBE01615FF2
S11304C07F4F85E893E00E94DF0B812FDF91CF916E
S11304D01F910F91FF90EF9008950F931F93CF9367
S11304E0DF93EC018A01A9010E943402882341F0C0
S11304F0B801CE010F960E94731221E0892B09F0F6
S113050020E0822FDF91CF911F910F910895CF9218
S1130510DF92EF92FF920F931F93CF93DF93EC013F
S1130520F62EE42E8FE190E00E945B0B8C0120E01C
S11305304E2D6F2D0E941D1040EC52E160E070E0E2
S1130540C8010E9448107E0187EEE81A8EEFF80A6F
S1130550D7010D931C9361E08C850E94050E61E028
S11305608C850E94410E6AE070E080E090E00E9479
S1130570480D60E08C850E94410E64E670E080E0E6
S113058090E00E94480D61E08C850E94410E6FED61
S113059070E085E893E00E94CD0B8EE0C82ED12C4C
S11305A08E01095E1E4FF70180819181DC01ED917E
S11305B0FC910480F581E02D0995892B89F06AEC82
S11305C070E085E893E00E94CD0BF7018081918172
S11305D0DC01ED91FC910680F781E02D0995E3CFD4
S11305E0F8014081518124EF31E067EC70E0CE01E5
S11305F00E946D02811134C0D7018D919C91DC0160
S1130600ED91FC910480F581E02D0995892B59F039
S1130610F70180819181DC01ED91FC910680F781E5
S1130620E02D0995E9CF24EF31E044EC50E061EC92
S113063070E0CE010E946D02811112C064EF71E07E
S113064080E090E00E94480DB1E0CB1AD10809F097
S1130650AACF3AC064E670E080E090E00E94480DC2
S1130660F8014081518124EF31E064E970E0CE016A
S11306700E946D0264E670E080E090E00E94480D04
S1130680D8014D915C9124EF31E06FE870E0CE0128
S11306900E946D02811102C013E001C011E064E602
S11306A070E080E090E00E94480DCE010E948A0133
S11306B064E870E0CE010F960E947C12892B11F041
S11306C0812F35C084E033C0F8014081518124EF8B
S11306D031E06EEB70E0CE010E946D0264E670E0E2
S11306E080E090E00E94480DD8014D915C9124EF88
S11306F031E06BEB70E0CE010E946D0264E670E0C5
S113070080E090E00E94480DF8014081518124EF7F
S113071031E068EB70E0CE010E946D0281119ACF46
S113072069E970E085E893E00E94CD0B82E0DF91F7
S1130730CF911F910F91FF90EF90DF90CF9008958C
S1130740CF93DF93EC0161E371E085E893E00E94CD
S11307509C0B69817A814AE050E085E893E00E942D
S1130760720C6DE271E085E893E00E949C0B67E2F5
S113077071E085E893E00E949C0B6D817E814AE0E4
S113078050E085E893E00E94720C63E271E085E832
S113079093E00E949C0B6AE171E085E893E00E947B
S11307A09C0B6B817C814AE050E085E893E00E94D9
S11307B0720C66E171E085E893E00E949C0B60E1B5
S11307C071E085E893E00E949C0B6F8178854AE094
S11307D050E085E893E0DF91CF910C94780C42E0EF
S11307E063E085EA91E00C948702CF93DF9361E0A4
S11307F085E00E94050E61E085E00E94410E68EBF1
S11308007BE080E090E00E94480D61E08DE00E9472
S1130810050E26E040E855E260E070E085E893E0EC
S11308200E94570A6EE571E085E893E00E94CD0BC3
S11308300E94EF0384EA91E00E946A05EC0163E5FB
S113084071E085E893E00E949C0B6EE471E085E81A
S113085093E00E94C00B4AE050E0BE0185E893E0BB
S11308600E94780C9091A201209711F4916005C028
S1130870C370DD27CD2BD1F793609093A201DF9154
S1130880CF91089560E571E085E893E00E94DF0B65
S113089060E085E00E94410E68EB7BE080E090E040
S11308A00C94480DCF93DF93CDB7DEB72A970FB6DC
S11308B0F894DEBF0FBECDBF81E08983BE016F5FB8
S11308C07F4F83EA91E00E94B70581E02A960FB634
S11308D0F894DEBF0FBECDBFDF91CF91089563E4DE
S11308E071E085E893E00E94CD0B80E0089568EE06
S11308F073E080E090E00E94480D8091A001909107
S1130900A10101969093A1018093A00169E371E094
S113091085E893E00E949C0B6EE471E085E893E027
S11309200E94C00B4AE050E06091A20185E893E088
S11309300E94600C8091A20180FF09C00E945204B1
S1130940882329F08091A2018E7F8093A201809157
S1130950A20181FF09C00E946F04882329F08091BD
S1130960A2018D7F8093A2018091A201811102C016
S11309700C944204089541E064E085EA91E00E9409
S1130980550160E084EA91E00E94D20461E083EAC8
S113099091E00C948A05DC01ED91FC910190F081C9
S11309A0E02D0994FC016083611104C08FE293E09F
S11309B00C94F2080895EF92FF920F931F93CF9334
S11309C0DF93EB017B01E40EF11C8C01CE15DF05F6
S11309D021F160E570E08FE293E00E940E09612F3F
S11309E070E08FE293E00E94CB04B80177278FE296
S11309F093E00E94CB0469918FE293E00E94B308D4
S1130A008FE293E00E948A096FE070E080E090E05A
S1130A100E94480D0F5F1F4FD9CFDF91CF911F91D7
S1130A200F91FF90EF900895EF92FF920F931F9311
S1130A30CF93DF93EB017B01E40EF11C8C01CE1507
S1130A40DF0571F160E570E08FE293E00E940E092A
S1130A50612F70E08FE293E00E94CB04B801772706
S1130A608FE293E00E94CB048FE293E00E948A0914
S1130A7041E050E060E570E08FE293E00E94870976
S1130A808FE293E00E942408892B29F08FE293E0FF
S1130A900E942C0801C08FEF89930F5F1F4FCFCFA7
S1130AA0DF91CF911F910F91FF90EF900895CF9315
S1130AB0DF9300D0CDB7DEB7CB0142E0BE016F5F5C
S1130AC07F4F0E94140589819A810F900F90DF91C6
S1130AD0CF9108950F931F93CF93DF9300D0CDB799
S1130AE0DEB761E070E00E9457058C010F5F1F4F75
S1130AF01A83098342E0BE016F5F7F4F81E090E07B
S1130B000E94DB04C8010F900F90DF91CF911F91D9
S1130B100F910895FC0160830895FC018081811187
S1130B2003C0862F0C94BF0D85E090E00895FC016E
S1130B308091C00221E0280F2093C002822F90E010
S1130B40928381833AE0239FC00111249683858395
S1130B50822F67E00E94D710892F90E094838383CB
S1130B6034E6239FC0011124908787830895AF92B0
S1130B70BF92CF92DF92EF92FF920F931F93CF9386
S1130B80DF938C01EB016AE671E085E893E00E9453
S1130B90CD0BF8018081882321F0CE010E949705B6
S1130BA01BC06EE0C8010E948D056C016FE0C80196
S1130BB00E948D055C0161E1C8010E948D057C01E4
S1130BC060E1C8010E948D05BA82A982DE82CD82CD
S1130BD0FC82EB8298878F83CE01DF91CF911F91A6
S1130BE00F91FF90EF90DF90CF90BF90AF900C9457
S1130BF0A00310922E0381E080932C0310922B0308
S1130C0061E082E10E94410E61E083E10E94410EB5
S1130C10E9EBF0E080818E7F808380818D7F80830B
S1130C2088E48093B80085E48093BC000895413241
S1130C3008F043C090912E039111FCCF91E0909362
S1130C402E0320932C032FEF2093C102109206034E
S1130C50240F2093050390932D0390912D03880F67
S1130C60892B80932D0380912B03813061F41092A2
S1130C702B0380912D038093BB008091BC0083FDE6
S1130C80F8CF85EC01C085EE8093BC0080912E03E3
S1130C908130E1F380910603841710F44091060338
S1130CA0A7E0B3E0962FFB018E2F891B841718F45D
S1130CB08D918193F9CF842F089580E008950F9347
S1130CC0413208F04AC090912E039111FCCF32E0DA
S1130CD030932E0300932C033FEF3093C102109204
S1130CE0060340930503562FA7E0B3E0FB013E2F14
S1130CF0351B341718F431913D93F9CF10922D031D
S1130D0030912D03880F832B80932D0380912B0327
S1130D10813061F410922B0380912D038093BB00EA
S1130D208091BC0083FDF8CF85EC01C085EE8093F3
S1130D30BC00222321F080912E038230D1F38091D4
S1130D40C1028F3F79F08091C102803241F08091DD
S1130D50C102803331F094E005C091E003C092E019
S1130D6001C093E0892F0F9108954091E302262F4B
S1130D7030E0240F311D21323105DCF420912E03A3
S1130D802430C9F4FC0180E090E0861758F43091D7
S1130D90E3022191DC01AB51BD4FA30FB11D2C9394
S1130DA00196F3CF8091E302680F6093E30280E041
S1130DB0089581E0089582E0089590932803809334
S1130DC02703089590932A0380932903089585EDBA
S1130DD08093BC008091BC0084FDFCCF10922E0354
S1130DE0089585EC8093BC0010922E0308951F9201
S1130DF00F920FB60F9211242F933F934F935F934B
S1130E006F937F938F939F93AF93BF93EF93FF93CE
S1130E108091B900887F803609F49EC078F58832C5
S1130E2009F45DC090F4803109F456C038F4882385
S1130E3009F4F5C0883009F44FC0F5C0883109F4CD
S1130E404EC0803209F45FC0EEC0803409F46AC039
S1130E5058F4803309F457C0883309F0E4C0809310
S1130E60C1020E94F106DFC0803509F44FC0883505
S1130E7009F45DC0883409F0D6C0D3C0883909F4B8
S1130E80C4C0A8F4883709F467C038F4883609F474
S1130E9063C0803709F460C0C6C0883809F4B5C09F
S1130EA0803909F45FC0803809F0BDC05BC0803B65
S1130EB009F483C038F4803A09F466C0883A09F426
S1130EC07CC0B1C0803C09F4A4C0883C09F4A1C032
S1130ED0883B09F487C0A7C080912D0310C090916E
S1130EE0060380910503981770F5E091060381E0ED
S1130EF08E0F80930603F0E0E95FFC4F80818093BE
S1130F00BB0085EC83C08093C1028BC0E0910603D3
S1130F1081E08E0F809306038091BB00F0E0E95FCF
S1130F20FC4F808390910603809105036BC0E09190
S1130F30060381E08E0F809306038091BB00F0E0EE
S1130F40E95FFC4F808380912C0381116AC081E0AA
S1130F5080932B0384EA5EC083E080932E03109277
S1130F60C202CFCF8091C202803208F04EC0E0911D
S1130F70C20281E08E0F8093C2028091BB00F0E038
S1130F80ED53FD4F8083BDCF0E94F1068091C202D4
S1130F90803230F4E091C202F0E0ED53FD4F108254
S1130FA06091C20270E0E0912703F091280383EC82
S1130FB092E009951092C20236C084E080932E0319
S1130FC01092E4021092E302E0912903F0912A03C3
S1130FD009958091E302811105C081E08093E302C9
S1130FE01092E502E091E40281E08E0F8093E40226
S1130FF0F0E0EB51FD4F80818093BB009091E402BF
S11310008091E302981708F47CCF85E88093BC00B4
S11310100AC085EC8093BC0010922E0304C0109289
S1131020C1020E94E706FF91EF91BF91AF919F919A
S11310308F917F916F915F914F913F912F910F907D
S11310400FBE0F901F9018958091630390E020913C
S11310506403821B91090895909164038091630352
S1131060981750F4E92FF0E0EB59FC4F208130E061
S11310709F5F9093640302C02FEF3FEFC90108956F
S1131080E091640380916303E81730F4F0E0EB59D6
S1131090FC4F808190E008958FEF9FEF08950895AD
S11310A0CF93DF93EC01E0913B03F0913C03309745
S11310B0F1F090916403809163039817C0F090E07D
S11310C0292F30E02617370754F4DE01A20FB31F8F
S11310D04C91D901AB59BC4F4C939F5FF1CF109207
S11310E0640360936303CB01DF91CF910994DF9193
S11310F0CF910895E0913D03F0913E03309729F09C
S1131100109241031092400309940895CF92DF9204
S1131110EF92FF920F931F93CF93DF937C01CB0148
S11311208A0120913F03222389F0EB016B01C40E55
S1131130D51ECC15DD0569F06991D701ED91FC91BF
S11311400190F081E02DC7010995F3CF642F0E942F
S1131150B506C801DF91CF911F910F91FF90EF90D9
S1131160DF90CF900895CF93DF931F92CDB7DEB772
S1131170698320913F032223D1F020914003203240
S113118040F021E030E0FC013383228380E090E0F2
S113119015C080914103E82FF0E0EE5BFC4F99818C
S11311A090838F5F809341038093400305C061E087
S11311B0CE0101960E94B50681E090E00F90DF9188
S11311C0CF910895FC011382128288EE93E0A0E08F
S11311D0B0E084839583A683B78385E691E0918309
S11311E08083089510926403109263031092410364
S11311F0109240030E94F9058AE798E00E94E206F3
S113120080E598E00C94DD0681E080933F036093D1
S11312106203109241031092400308950C94040950
S11312200F93062F21E04091400362E473E0809124
S113123062030E945F0610924103109240031092D1
S11312403F030F9108954F925F926F927F92AF92F6
S1131250BF92CF92EF92FF920F931F93CF93DF939E
S11312605C01F62ED42F28013901EE2021F10E94D1
S11312700409CE2DC43008F0C3E0C150C0F028E00A
S1131280C29FC0011124A301920104C05695479541
S1131290379527958A95D2F7CA01B901D501ED9101
S11312A0FC910190F081E02DC5010995E6CF60E045
S11312B0C5010E9410094D2FD13208F040E22C2DB7
S11312C065E673E08F2D0E941706109264038093E5
S11312D06303DF91CF911F910F91FF90EF90CF9017
S11312E0BF90AF907F906F905F904F900895CF9292
S11312F0EF920F931F93C22EE12C00E010E09801AF
S11313000E9423091F910F91EF90CF90089521E03F
S11313100C94770961E00C9410098FE293E00C942B
S1131320E208FC01918D228D892F90E0805C9F4F13
S1131330821B91098F7399270895FC01918D828DE9
S1131340981731F0828DE80FF11D858D90E0089596
S11313508FEF9FEF0895FC01918D828D981761F0B6
S1131360828DDF01A80FB11D5D968C91928D9F5FD8
S11313709F73928F90E008958FEF9FEF089584E11B
S11313809BE0892B49F080E090E0892B29F00E94B2
S1131390140B81110C9400000895FC01848DDF016D
S11313A0A80FB11DA35ABF4F2C91848D90E00196D4
S11313B08F739927848FA689B7892C93A089B189C3
S11313C08C9180648C93938D848D981306C00288CD
S11313D0F389E02D80818F7D80830895EF92FF92C1
S11313E00F931F93CF93DF93EC0181E0888F9B8D44
S11313F08C8D981305C0E889F989808185FD24C006
S1131400F62E0B8D10E00F5F1F4F0F731127E02E88
S11314108C8DE8120CC00FB607FCFACFE889F98965
S1131420808185FFF5CFCE010E94CD09F1CF8B8D50
S1131430FE01E80FF11DE35AFF4FF0820B8FEA899A
S1131440FB898081806207C0EE89FF896083E88917
S1131450F98980818064808381E090E0DF91CF917D
S11314601F910F91FF90EF900895CF93DF93EC01BC
S1131470888D8823C9F0EA89FB89808185FD05C0B0
S1131480A889B9898C9186FD0FC00FB607FCF5CFEA
S1131490808185FFF2CFA889B9898C9185FFEDCF32
S11314A0CE010E94CD09E7CFDF91CF910895CF926D
S11314B0DF92EF92FF921F93CF93DF93EC016A01C7
S11314C07B01122FE889F98982E080834115514E0E
S11314D061057105B1F060E079E08DE390E0A7016A
S11314E096010E94F710DA01C9010197A109B10917
S11314F0B695A795979587959C01211580E13807A6
S1131500A8F0E889F989108260E874E88EE190E037
S1131510A70196010E94F710DA01C9010197A109F8
S1131520B109B695A795979587959C01EC85FD859E
S11315303083EE85FF852083188EEC89FD89108326
S1131540EA89FB89808180618083EA89FB898081C3
S113155088608083EA89FB89808180688083EA8946
S1131560FB8980818F7D8083DF91CF911F91FF90D4
S1131570EF90DF90CF9008951F920F920FB60F92C5
S113158011242F938F939F93EF93FF93E0919503EF
S1131590F09196038081E0919B03F0919C0382FD7E
S11315A012C0908180919E038F5F8F7320919F035F
S11315B0821751F0E0919E03F0E0EB57FC4F958FBA
S11315C080939E0301C08081FF91EF919F918F9141
S11315D02F910F900FBE0F901F9018951F920F928E
S11315E00FB60F9211242F933F934F935F936F93F2
S11315F07F938F939F93AF93BF93EF93FF9385E86C
S113160093E00E94CD09FF91EF91BF91AF919F911B
S11316108F917F916F915F914F913F912F910F9097
S11316200FBE0F901F90189585E893E00E949109D2
S113163021E0892B09F420E0822F0895E5E8F3E006
S11316401382128288EE93E0A0E0B0E08483958355
S1131650A683B78385E791E09183808385EC90E04E
S11316609587848784EC90E09787868780EC90E068
S1131670918B808B81EC90E0938B828B82EC90E059
S1131680958B848B86EC90E0978B868B118E128ED3
S1131690138E148E089508950E94840D0E944B0B9E
S11316A00E94F503CFEBD9E00E9477042097E1F381
S11316B00E94BF09F9CF0C945211CF92DF92EF929E
S11316C0FF920F931F93CF93DF936C017A018B01E9
S11316D0C0E0D0E0CE15DF0581F0D8016D918D0119
S11316E0D601ED91FC910190F081E02DC6010995A0
S11316F0892B11F02196EECF7E01C701DF91CF91A6
S11317001F910F91FF90EF90DF90CF900895611596
S1131710710579F0FB0101900020E9F73197AF01E1
S1131720461B570BDC01ED91FC910280F381E02D07
S1131730099480E090E00895EF92FF920F931F9335
S1131740CF93DF938C017B01C0E0D0E0F701EC0F75
S1131750FD1F6491662361F0D801ED91FC91019025
S1131760F081E02DC8010995892B11F02196EECF67
S1131770CE01DF91CF911F910F91FF90EF900895CB
S11317800C94870BDC01ED91FC910190F081E02D2C
S1131790099461E871E00C94870B0F931F93CF9326
S11317A0DF93EC010E949C0B8C01CE010E94C90BBB
S11317B0800F911FDF91CF911F910F9108950F9387
S11317C01F93CF93DF93EC010E94870B8C01CE0112
S11317D00E94C90B800F911FDF91CF911F910F9130
S11317E008950F931F93CF93DF93EC010E94C20BD4
S11317F08C01CE010E94C90B800F911FDF91CF9104
S11318001F910F9108958F929F92AF92BF92EF9282
S1131810FF920F931F93CF93DF93CDB7DEB7A197BA
S11318200FB6F894DEBF0FBECDBF7C01FA01CB0129
S113183019A2223008F42AE08E010F5D1F4F822E78
S1131840912CA12CB12CBF01A50194010E94F71089
S1131850F901CA01015011096A3010F4605D01C038
S1131860695CD8016C93232B242B252B61F7B801D9
S1131870C7010E94870BA1960FB6F894DEBF0FBE76
S1131880CDBFDF91CF911F910F91FF90EF90BF904B
S1131890AF909F908F9008952115310541F4DC019C
S11318A0ED91FC910190F081E02D642F09940C944A
S11318B0030C9A01462F50E060E070E00C944C0C4D
S11318C00F931F93CF93DF93EC010E94590C8C016B
S11318D0CE010E94C90B800F911FDF91CF911F9100
S11318E00F9108959A01AB0160E070E00C944C0CE8
S11318F00F931F93CF93DF93EC010E94720C8C0122
S1131900CE010E94C90B800F911FDF91CF911F91CF
S11319100F910895CF92DF92EF92FF920F931F934E
S1131920CF93DF932115310581F4DC01ED91FC9116
S11319300190F081E02D642FDF91CF911F910F91E1
S1131940FF90EF90DF90CF9009942A30310501F594
S113195077FF1DC06A017B01EC016DE20E94C20B9E
S11319608C0144275527BA014C195D096E097F097A
S11319702AE0CE010E94030C800F911FDF91CF91CA
S11319801F910F91FF90EF90DF90CF9008952AE080
S1131990DF91CF911F910F91FF90EF90DF90CF9047
S11319A00C94030C9A01AB01770F660B770B0C9424
S11319B08A0C1F920F920FB60F9211242F933F930C
S11319C08F939F93AF93BF938091230490912404AA
S11319D0A0912504B09126043091220423E0230F22
S11319E02D3720F40196A11DB11D05C026E8230F53
S11319F00296A11DB11D2093220480932304909389
S1131A002404A0932504B093260480912704909184
S1131A102804A0912904B0912A040196A11DB11DA6
S1131A208093270490932804A0932904B0932A0454
S1131A30BF91AF919F918F913F912F910F900FBEC6
S1131A400F901F9018953FB7F894809127049091B8
S1131A502804A0912904B0912A0426B5A89B05C0A6
S1131A602F3F19F00196A11DB11D3FBFBA2FA92F19
S1131A70982F8827820F911DA11DB11DBC01CD0196
S1131A8042E0660F771F881F991F4A95D1F7089582
S1131A908F929F92AF92BF92CF92DF92EF92FF927A
S1131AA06B017C010E94230D4B015C01C114D10424
S1131AB0E104F10401F10E94D6100E94230DDC011F
S1131AC0CB0188199909AA09BB09883E9340A1054D
S1131AD0B10560F321E0C21AD108E108F10888EEEB
S1131AE0880E83E0981EA11CB11CC114D104E1042A
S1131AF0F10419F7DBCFFF90EF90DF90CF90BF9008
S1131B00AF909F908F900895789484B5826084BD3F
S1131B1084B5816084BD85B5826085BD85B58160ED
S1131B2085BDEEE6F0E0808181608083E1E8F0E04D
S1131B301082808182608083808181608083E0E87C
S1131B40F0E0808181608083E1EBF0E0808184605B
S1131B508083E0EBF0E0808181608083EAE7F0E05D
S1131B6080818460808380818260808380818160C1
S1131B7080838081806880831092C10008958E30B4
S1131B8008F08E502091060190E4299F90011124C1
S1131B908770822B80937C0080917A00806480938C
S1131BA07A0080917A0086FDFCCF809178002091A4
S1131BB0790090E0922B0895833081F028F48130ED
S1131BC099F08230A1F008958730A9F08830B9F0F7
S1131BD08430D1F4809180008F7D03C08091800097
S1131BE08F7780938000089584B58F7702C084B581
S1131BF08F7D84BD08958091B0008F7703C080915C
S1131C00B0008F7D8093B0000895CF93DF9390E070
S1131C10FC01EF56FE4F2491FC01EB55FE4F8491DD
S1131C20882361F190E0880F991FFC01E353FE4F74
S1131C30C591D491FC01ED53FE4FA591B49161116E
S1131C4009C09FB7F8948881209582238883EC91FA
S1131C502E230BC0623061F49FB7F8948881322F31
S1131C60309583238883EC912E2B2C939FBF06C041
S1131C708FB7F894E8812E2B28838FBFDF91CF9103
S1131C8008951F93CF93DF93282F30E0F901E35891
S1131C90FE4F8491F901EF56FE4FD491F901EB55B3
S1131CA0FE4FC491CC23C1F0162F81110E94DC0D8C
S1131CB0EC2FF0E0EE0FFF1FED53FE4FA591B49112
S1131CC09FB7F894111104C08C91D095D82302C009
S1131CD0EC91DE2BDC939FBFDF91CF911F91089590
S1131CE020916D0430916E0428173907B9F490914E
S1131CF02B0480912C04981789F0E0912B04F0E0D8
S1131D00E35DFB4F808120912B0430E02F5F3F4F38
S1131D102F73332720932B0490E008958FEF9FEFC8
S1131D2008951F93CF93DF93DC015C968D919C9172
S1131D305D97009739F421E030E013963C932E939D
S1131D4012973BC05196ED91FC91529750962C916D
S1131D505097322F30951FB75E964C915E97742F33
S1131D60727041FD6095F8944081772311F0422B05
S1131D7001C043234083EC012197F1F748E05081EF
S1131D8060FF02C0522B01C053235083EC01219702
S1131D90F1F76695415099F78081772319F08323F1
S1131DA0808302C0282B20831FBF5C968D919C9159
S1131DB05D970197F1F781E090E0DF91CF911F915A
S1131DC00895089520916D0430916E042817390701
S1131DD071F490912B0480912C04981741F0E091B8
S1131DE02B04F0E0E35DFB4F808190E008958FEFDA
S1131DF09FEF089520916D0430916E0428173907E0
S1131E0071F480912C0420912B0490E0805C9F4F0E
S1131E10821B910960E470E00E94E310089580E061
S1131E2090E00895E0916D04F0916E04E817F907CD
S1131E3069F4A389B4899C918589809589238C93BD
S1131E4010926E0410926D0481E0089580E008956C
S1131E50CF93DF93EC018A8D9B8D892BF1F08091D8
S1131E606D0490916E04C817D907B9F0009711F06A
S1131E700E94120F8E8D8E7F8E8F10922C041092E2
S1131E802B04D0936E04C0936D04EB89FC8990817C
S1131E908D89892B808381E001C080E0DF91CF911F
S1131EA008951F920F920FB60F9211242F933F9310
S1131EB04F935F936F937F938F939F93AF93BF934E
S1131EC0EF93FF93E0916D04F0916E04309709F461
S1131ED051C0968DA685B785858591FF04C09C91D8
S1131EE0892329F447C09C91892309F043C0A3891D
S1131EF0B4899C918589809589238C938689978957
S1131F000197F1F7608D718DA685B785558538E009
S1131F1020E0CB010197F1F7822F90E0959587950A
S1131F20282F4C91452309F02068315091F7868D74
S1131F3081FD209580912C0490E001968F73992760
S1131F4030912B04381749F0A0912C04B0E0A35D24
S1131F50BB4F2C9380932C0403C0868D8160868FA5
S1131F60828D938D0197F1F7A389B4899C9185891A
S1131F70892B8C93FF91EF91BF91AF919F918F919A
S1131F807F916F915F914F913F912F910F900FBE71
S1131F900F901F9018951F93CF93DF93EC01162F8A
S1131FA06E8D6695617081E06827812F0E94410ED5
S1131FB061E0812F0E94050E812F90E0FC01EF5615
S1131FC0FE4FE491E88BFC01EB55FE4FE491F0E009
S1131FD0EE0FFF1FED53FE4F859194919A8B898BE1
S1131FE0DF91CF911F9108951F93CF93DF93EC015D
S1131FF0162F60E0812F0E94050E8E8D81FD04C096
S113200061E0812F0E94410E1C87812F90E0FC012A
S1132010EF56FE4FE491ED87FC01EB55FE4FE49142
S1132020F0E0EE0FFF1FE754FE4F859194919F87D8
S11320308E87DF91CF911F9108951F93CF93DF93E4
S1132040EC01162F1B821A8288EE93E0A0E0B0E028
S11320508C839D83AE83BF8384E991E099838883D5
S11320601F8A1E8A198E188E1B8E1A8E1D8E1C8E28
S11320708E8D8E7F20FB81F98E8F642FCE010E947E
S1132080CB0F612FCE01DF91CF911F910C94F40FF0
S1132090CF93DF93EC019A01AB011B8E1A8E198E3C
S11320A0188E1F8A1E8A60E079E08DE390E00E941A
S11320B01911F9012430310518F0C901039702C040
S11320C081E090E09D8F8C8F6C85663108F069C04B
S11320D0C901969587958431910510F0439702C004
S11320E081E090E09F8B8E8B369718F0C90105979D
S11320F002C081E090E0998F888FC901880F991FF1
S1132100280F391F36952795369527952D3031059B
S113211018F02C50310902C021E030E03B8F2A8FA7
S113212090916800683050F021E06E3008F420E0AF
S113213081E001C0880F2A95EAF701C084E0892B69
S1132140809368009C85983038F09E3040F096313A
S113215048F020E030E008C02DE630E005C02BE672
S113216030E002C02CE630E03C8B2B8B983030F40E
S113217081E001C0880F9A95EAF70EC0292F30E05C
S11321809E3018F42850310902C02E50310981E0E4
S113219001C0880F2A95EAF78D8B8C8D9D8D019750
S11321A0F1F7CE01DF91CF910C94280F0895991B7C
S11321B079E004C0991F961708F0961B881F7A953A
S11321C0C9F78095089597FB072E16F4009407D05D
S11321D077FD09D00E94381107FC05D03EF4909594
S11321E081959F4F0895709561957F4F0895A1E261
S11321F01A2EAA1BBB1BFD010DC0AA1FBB1FEE1F7D
S1132200FF1FA217B307E407F50720F0A21BB30BC7
S1132210E40BF50B661F771F881F991F1A9469F743
S113222060957095809590959B01AC01BD01CF019F
S11322300895052E97FB1EF400940E94301157FD5B
S113224007D00E94F71007FC03D04EF40C94301111
S113225050954095309521953F4F4F4F5F4F0895CE
S113226090958095709561957F4F8F4F9F4F0895FE
S1132270AA1BBB1B51E107C0AA1FBB1FA617B707A8
S113228010F0A61BB70B881F991F5A95A9F78095C4
S11322909095BC01CD010895EE0FFF1F0590F491B8
S11322A0E02D09940F931F93CF93DF938230910510
S11322B010F482E090E0E0917104F091720420E067
S11322C030E0A0E0B0E0309719F140815181028103
S11322D0138148175907C8F08417950769F41097B4
S11322E031F012960C93129713961C9327C0009307
S11322F071041093720422C02115310519F042179C
S1132300530718F49A01BD01EF01DF01F801DBCF97
S113231021153105F9F0281B390B2430310580F4DF
S11323208A819B816115710521F0FB01938382836E
S113233004C09093720480937104FE01329644C0E9
S1132340FE01E20FF31F81939193225031093983E7
S113235028833AC020916F0430917004232B41F4F8
S113236020910201309103013093700420936F0493
S113237020910001309101012115310541F42DB75F
S11323803EB74091040150910501241B350BE091A7
S11323906F04F0917004E217F307A0F42E1B3F0BB7
S11323A02817390778F0AC014E5F5F4F24173507C3
S11323B048F04E0F5F1F5093700440936F04819355
S11323C0919302C0E0E0F0E0CF01DF91CF911F9143
S11323D00F910895CF93DF93009709F481C0FC0116
S11323E0329713821282A0917104B09172041097F3
S11323F081F420813181820F931F20916F043091E9
S113240070042817390751F5F0937004E0936F04B2
S113241067C0ED0120E030E0CE17DF0740F44A81C9
S11324205B819E0141155105F1F0EA01F5CFD3839B
S1132430C28340815181840F951FC817D90759F46D
S113244088819981840F951F0296918380838A8164
S11324509B81938382832115310529F4F0937204BF
S1132460E09371043DC0E901FB83EA8349915991EA
S1132470C40FD51FEC17FD0761F480819181840F8F
S1132480951F0296E90199838883828193819B83B6
S11324908A83E0E0F0E012968D919C911397009767
S11324A019F0FD01DC01F7CF8D919C9111979D01ED
S11324B02E5F3F4F820F931F20916F043091700461
S11324C02817390769F4309729F41092720410928E
S11324D0710402C013821282B0937004A0936F043B
S11324E0DF91CF910895FB01DC018D910590801956
S11324F00110D9F3990B0895FB0155915523A9F0C7
S1132500BF01DC014D9145174111E1F759F4CD01AB
S11325100590002049F04D9140154111C9F3FB018C
S11325204111EFCF81E090E001970895F894FFCF37
S113253000007304200001230053454E44204F4BF8
S1132540002C0053544154453A20434F4E4E4543CA
S113255054204F4B005E5A002B434D4753004154C7
S11325602B434D47443D30303000222C22000000E4
S1132570000025015D0B190131013D0149013A00BB
S1132580537769746368696E67206F66662E2E2EB2
S11325900000000000B308860824082C0840084FF7
S11325A00800000000EE095D0B9109AB099D093597
S11325B00A0D0A006E616E00696E66006F76660031
S11325C000000000910E5D0BFA0E700EE20EE10E9B
S9030000FC
