S010000049414141455F524D2E73726563C5
S11300000C9404040C942C040C942C040C94712172
S11300100C9471210C9471210C942C040C942C04D8
S11300200C942C040C942C040C942C040C942C048C
S11300300C942C040C942C040C942C040C942C047C
S11300400C94FD1D0C942C040C949C1B0C94CE1B42
S11300500C942C040C942C040C942C040C942C045C
S11300600C9478170C942C04093C2D2D2D20000998
S11300702D2D2D3E2000093C2D2D2D2000092D2D48
S11300802D3E2000093C2D2D2D2000092D2D2D3E27
S11300902000535041434500093C2D2D2D2000558F
S11300A0410055524C0043494400434F4E54454E81
S11300B054002B48545450524541443A2000415472
S11300C02B48545450524541443D302C002B485445
S11300D05450414354494F4E3A002B4854545041D4
S11300E04354494F4E3A0041542B485454504143D1
S11300F054494F4E3D00444F574E4C4F41440041EC
S1130100542B48545450444154413D0041542B48CD
S1130110545450444154413D00092D2D2D3E20009E
S1130120222C00222C220041542B4854545050417C
S113013052413D220041542B4854545050415241A5
S11301403D2200092D2D2D3E200041542B485454AE
S1130150505445524D0041542B48545450494E4933
S113016054002C2077652776652072656164200031
S11301702C2077697468206F7572206D6178206F08
S113018066200052656365697665642072657370E4
S11301906F6E7365206F66206C656E6774682000EF
S11301A04661696C656420746F2073656E642064B5
S11301B06174612C2073746174757320636F64655A
S11301C03A2000746578742F706C61696E006874ED
S11301D074703A2F2F726D6F6E2E6B687564646144
S11301E06D2E6F72672E756B2F3F613D61646400E5
S11301F041542B43474154543D300041542B534107
S11302005042523D302C310041542B434950534805
S113021055540053485554204F4B0041542B4349E7
S11302204943520041542B53415042523D312C31E9
S11302300041542B53415042523D332C312C225017
S11302405744222C0041542B53415042523D332CED
S1130250312C2255534552222C0041542B435354E4
S1130260543D2200092D2D2D3E200041542B435393
S113027054543D220041542B53415042523D332C9F
S1130280312C2241504E222C0041542B53415042D8
S1130290523D332C312C22434F4E54595045222C7D
S11302A02247505253220041542B43474154543D5A
S11302B0310041542B434950534855540053485539
S11302C054204F4B0041542B435245473F002B438E
S11302D05245473A200041542B435245473F002B97
S11302E0435245473A200041542B435351002B437A
S11302F053513A200041542B435351002B43535143
S11303003A200041542B434243002B4342433A20BA
S11303100053494D3830382052313400093C2D2DDA
S11303202D2000092D2D2D3E200041544530004143
S1130330544530004154204661696C2E2E2E206CA9
S113034061737420646974636820617474656D708A
S1130350742E004154004154004154004154004162
S11303605400415400417474656D7074696E672063
S1130370746F206F70656E20636F6D6D2077697484
S11303806820415473004F4B00464F4E416E6574D4
S113039000207C2000526573706F6E736520436F7C
S11303A064653D00207C2000526573706F6E736538
S11303B0204C656E3D00207C200009526573706FEF
S11303C06E73652049643D00207C200053656E6493
S11303D0205374617475733D00207C200047505293
S11303E053205374617475733D00207C20000949C7
S11303F06E6974205374617475733D000900207C28
S1130400200042617474253D00207C200023526545
S11304106164696E67733D00207C200009426F6F40
S113042074233D004572726F723D00207C2000549D
S1130430656D703D00207C200043757272656E749A
S11304403D00207C200050562D563D00207C20008D
S1130450426174742D563D005253534920457272C3
S11304606F723F3D00207C20002C204572726F7219
S11304703D002C205374617475733D004E65747790
S11304806F726B2D52656720526573436F64653DCF
S113049000207C20004245523D00207C2000525325
S11304A053493D004142434445464748494A4B4C21
S11304B04D4E4F505152535455565758595A6162E4
S11304C0636465666768696A6B6C6D6E6F70717280
S11304D0737475767778797A3031323334353637C8
S11304E038392B2F004265686176696F7572005345
S11304F0656E642D44617461205374617475732056
S1130500536C6F743A00456E636F64656420646174
S11305107461206372656174656420616E64207225
S11305206561647920666F722073656E643A0009B0
S113053028466F6E6120496E6974204552524F52AD
S113054029000928466F6E6120496E697420506540
S11305506E64696E672E2E2E2900496E6974696176
S11305606C6973696E6720466F6E6120746F2073C7
S1130570656E642064617461002A2A2A2A20546FFB
S11305806F206C6974746C652052414D20626566FD
S11305906F7265207061796C6F616420637265614C
S11305A074696F6E202A2A2A0054616B696E672071
S11305B072656164696E67732E2E2E0009202847C8
S11305C06F6F642D52535349202D207375636365F7
S11305D0737366756C6C2C20616C6C20646F6E6533
S11305E0290009202857616974696E6720466F7273
S11305F020476F6F642D525353492054696D6564CD
S1130600204F7574202D2077696C6C20636F6E7495
S1130610696E7565206E6F77290009202842616430
S11306202D52535349202D2077696C6C20636865E3
S1130630636B20616761696E20616674657220690D
S11306406E74657276616C2900436865636B696ECC
S1130650672052535349202D2063757272656E745E
S11306606C793A004750525320696E697469616C21
S113067069736564207375636365737366756C6C05
S113068079202100416C6C20617474656D70747301
S113069020746F20656E61626C6520475052532050
S11306A06661696C65640057696C6C2074727920AA
S11306B0746F20656E61626C6520475052532061EF
S11306C06761696E2073686F72746C790045727229
S11306D06F7220696E697469616C6973696E6720F1
S11306E04750525300417474656D7074696E67208D
S11306F0746F20656E61626C6520475052532E2ED4
S11307002E004572726F7220696E697469616C693A
S113071073696E6720666F6E612E2E2E00496E69B6
S11307207469616C6973696E6720666F6E612E2EE1
S11307302E005374617274696E672E2E2E0032205F
S113074053656E736F722D446174617320676F69B2
S11307506E6720666F72207472616E736D69737355
S1130760696F6E3A002A2A2A2A007E7E7E7E7E7E69
S11307707E7E7E7E7E7E7E7E7E20457874656E647F
S113078065642047534D205465737420436F6D7026
S11307906C6574657E7E7E7E7E7E7E7E7E7E7E7EC3
S11307A07E7E7E7E0000000008000201000003043B
S11307B007000000000000000001020408102040AF
S11307C0800102040810200102040810200404041B
S11307D004040404040202020202020303030303E6
S11307E0030000000023002600290000000000256B
S11307F00028002B0000000000240027002A00002D
S11308008B140E1AFE1BA61411241FBECFEFD8E0C2
S1130810DEBFCDBF11E0A0E0B1E0EEE7FCE402C032
S113082005900D92AA39B107D9F724E0AAE9B1E0FD
S113083001C01D92AC38B207E1F714E0C3E0D4E084
S113084004C02197FE010E946C23C030D107C9F770
S11308500E942C1C0C9432260C940000835E9E4F44
S1130860DC018D919C91DC01ED91FC910480F5817A
S1130870E02D0994835E9E4FDC018D919C91DC01F7
S1130880ED91FC910190F081E02D0994835E9E4FDF
S1130890DC018D919C91DC01ED91FC910680F78146
S11308A0E02D0994835E9E4FDC018D919C91DC01C7
S11308B0ED91FC910084F185E02D0994835E9E4FB7
S11308C0DC018D919C91DC01ED91FC910284F38516
S11308D0E02D09940F931F93CF93DF93EC01062F20
S11308E0142F1B821A8288EE93E0A0E0B0E08C8380
S11308F09D83AE83BF838DE291E09983888383E0F7
S11309008E876CE771E0CE018B5E9E4F0E940220C1
S11309100C871D87FE01E25FFE4F89E893E0918317
S113092080833296118210823296118210823B9615
S11309301182108239971082C55EDE4F86E893E0FB
S113094099838883DF91CF911F910F910895AF927E
S1130950BF92CF92DF92EF92FF920F931F93CF93A8
S1130960DF938C015B017A01C12CD12CE501CC0D04
S1130970DD1DE114F10409F1D801ED91FC9104802D
S1130980F581E02DC8010995892B81F3D801ED91FA
S1130990FC910680F781E02DC80109958993909117
S11309A0C00095FFFCCF8093C600BFEFCB1ADB0AD3
S11309B081E0E81AF10801F7D9CF1882DF91CF91CD
S11309C01F910F91FF90EF90DF90CF90BF90AF9069
S11309D008958B5E9E4F0C9417200F931F93CF9313
S11309E0DF93EC0180E090E08C010F5F1F4F88974C
S11309F0D8F4E881F9810480F581E02DCE010995D0
S1130A00892B51F0E881F9810680F781E02DCE0130
S1130A10099500E010E0EDCF61E070E080E090E047
S1130A200E946C1EC801E0CFDF91CF911F910F91FE
S1130A300895FF920F931F93CF93DF93EC018B01E3
S1130A40F42E0E94ED0463E471E08EE993E00E94C9
S1130A507C1C65E371E08EE993E00E947C1CB80184
S1130A608EE993E00E947C1C62E28EE993E00E948E
S1130A70DF1CC35EDE4F67E271E0888199810E94CA
S1130A807C1CB801888199810E947C1C8881998191
S1130A90FF2019F063E271E002C060E271E0DF91CF
S1130AA0CF911F910F91FF900C947C1CBF92CF9219
S1130AB0DF92EF92FF920F931F93CF93DF937C010A
S1130AC0B42E8B01000F111F000F111FC0E0D0E0E6
S1130AD0670183EEC81A8EEFD80A01151105C9F112
S1130AE0CE3FD10598F062E970E08EE993E00E9470
S1130AF0BB1C2FC0F60180819181DC01ED91FC913A
S1130B000680F781E02D09958D3069F4D6018D9129
S1130B109C91DC01ED91FC910480F581E02D099517
S1130B20892B41F70CC08A3021F4209779F3BB203C
S1130B3081F0F701EC0FFD1F87872196E7CF015065
S1130B40110939F061E070E080E090E00E946C1ED1
S1130B50C4CFF701EC0FFD1F17868C2FDF91CF91C7
S1130B601F910F91FF90EF90DF90CF90BF90089569
S1130B700F931F93CF93DF93EC018B01BA0140E0F5
S1130B800E94560568E970E08EE993E00E947C1C9F
S1130B902F96BE018EE993E00E94CD1CB801CE01D0
S1130BA00E94772521E0892B09F020E0822FDF9134
S1130BB0CF911F910F910895CF93DF93EC01FC0126
S1130BC0E35EFE4F662331F062E2808191810E94F0
S1130BD0DF1C04C0808191810E94B71CFE01E55E88
S1130BE0FE4F6081718140E157E2CE01DF91CF91E8
S1130BF00C94B8050F931F93CF93DF93EC018A01F4
S1130C0041E00E941905FE01E35EFE4FB8018081B8
S1130C1091810E94A01C61E0CE01DF91CF911F91D0
S1130C200F910C94DC050F931F93CF93DF93EC018A
S1130C308A0141E00E941905FE01E35EFE4FB801FE
S1130C40808191810E947C1C61E0CE01DF91CF9173
S1130C501F910F910C94DC05CF92DF92EF92FF92DB
S1130C60CF93DF93EC0169017A0140E00E941905FA
S1130C70FE01E35EFE4F2AE030E0B701A601808169
S1130C8091810E948A1D60E0CE01DF91CF91FF9097
S1130C90EF90DF90CF900C94DC054F925F926F92AF
S1130CA07F928F929F92AF92BF92EF92FF920F9397
S1130CB01F93CF93DF937C012A013B014801590123
S1130CC00E94ED0469E171E08EE993E00E947C1CCE
S1130CD06CE071E08EE993E00E947C1C2AE030E035
S1130CE0B301A2018EE993E00E943A1D6CE28EE901
S1130CF093E00E94B01C2AE030E0B501A4018EE923
S1130D0093E00E94781DE701C35EDE4F6FEF70E051
S1130D10888199810E947C1C2AE030E0B301A20101
S1130D20888199810E943A1D67E071E088819981E8
S1130D300E94AE1C2AE030E0B501A40188819981AB
S1130D400E94781D40E157E266EF70E0C701DF9131
S1130D50CF911F910F91FF90EF90BF90AF909F9014
S1130D608F907F906F905F904F900C94B805EF92A6
S1130D70FF920F931F93CF93DF93EC018B017A01C2
S1130D800E94ED046BE870E08EE993E00E947C1C05
S1130D90B8018EE993E00E94BB1CFE01E35EFE4FA6
S1130DA0B801808191810E94BB1C40E0B701CE0153
S1130DB00E945605182F64E870E08EE993E00E94C3
S1130DC07C1CBE01615F7F4F8EE993E00E94CD1CC5
S1130DD0812FDF91CF911F910F91FF90EF90089594
S1130DE08F929F92AF92BF92CF92DF92EF92FF9237
S1130DF00F931F93CF93DF93EC016B0149015A01C9
S1130E000E94ED046DE770E08EE993E00E947C1C83
S1130E10B6018EE993E00E947C1C2AE030E0B50123
S1130E20A4018EE993E00E94EB1D7E0183EEE81A93
S1130E308EEFF80AB601F701808191810E947C1C33
S1130E402AE030E0B501A401F701808191810E947C
S1130E50EB1D40E0B801CE010E945605182F66E74D
S1130E6070E08EE993E00E947C1CBE01615F7F4FBD
S1130E708EE993E00E94CD1C812FDF91CF911F91C9
S1130E800F91FF90EF90DF90CF90BF90AF909F9025
S1130E908F900895AF92BF92CF92DF92EF92FF921C
S1130EA00F931F93CF93DF93EC016B017A015901E8
S1130EB00E94ED046FE670E08EE993E00E947C1CD2
S1130EC0B6018EE993E00E947C1C62E28EE993E015
S1130ED00E94B01CB7018EE993E00E947C1C62E280
S1130EE08EE993E00E94DF1C8E01035E1E4FB60163
S1130EF0F801808191810E947C1C62E2F80180816A
S1130F0091810E94B01CB701F801808191810E94F7
S1130F107C1C62E2F801808191810E94DF1C40E028
S1130F20B501CE010E945605182F68E670E08EE9DF
S1130F3093E00E947C1CBE01615F7F4F8EE993E0C9
S1130F400E94CD1C812FDF91CF911F910F91FF90B3
S1130F50EF90DF90CF90BF90AF9008950F931F93C1
S1130F60CF93DF93EC018A01A9010E94B70688237D
S1130F7041F0B801CE010F960E94772521E0892B1C
S1130F8009F020E0822FDF91CF911F910F910895F6
S1130F90CF92DF92EF92FF920F931F93CF93DF9341
S1130FA0EC01F62EE42E8FE190E00E943B1C8C01B4
S1130FB020E04E2D6F2D0E943D227E0183EEE81A23
S1130FC08EEFF80AD7010D931C9340EC52E160E0D8
S1130FD070E0C8010E94682261E08C850E94291F8C
S1130FE061E08C850E94651F6AE070E080E090E01B
S1130FF00E946C1E60E08C850E94651F64E670E0B0
S113100080E090E00E946C1E61E08C850E94651F68
S113101065E673E08EE993E00E94BB1C8EE0C82E67
S1131020D12C8E01055E1E4FF70180819181DC0178
S1131030ED91FC910480F581E02D0995892B59F0FF
S1131040F70180819181DC01ED91FC910680F781AB
S1131050E02D0995E9CFF8014081518124EF31E079
S113106062E673E0CE010E94AE07811134C0D7015D
S11310708D919C91DC01ED91FC910480F581E02D32
S11310800995892B59F0F70180819181DC01ED915B
S1131090FC910680F781E02D0995E9CF24EF31E03A
S11310A04FE553E06CE573E0CE010E94AE07811179
S11310B012C064EF71E080E090E00E946C1EB1E029
S11310C0CB1AD10809F0B0CF5EC064E670E080E0CE
S11310D090E00E946C1EF8014081518124EF31E0C0
S11310E06FE273E0CE010E94AE0764E670E080E038
S11310F090E00E946C1ED8014D915C9124EF31E088
S11311006AE273E0CE010E94AE07811102C012E0D0
S113111001C011E064E670E080E090E00E946C1E83
S1131120CE010E94ED0463E273E08EE993E00E9435
S11311307C1C69E071E08EE993E00E94CD1C69E0BB
S113114071E0F701808191810E94CD1C41E064EF40
S113115071E0CE010E9456056CE173E08EE993E0E4
S11311600E947C1C2F96BE018EE993E00E94CD1C48
S113117061E173E0CE010E948925892B11F484E09A
S113118035C0812F33C0D8014D915C9124EF31E0FB
S113119069E573E0CE010E94AE0764E670E080E08A
S11311A090E00E946C1EF8014081518124EF31E0EF
S11311B066E573E0CE010E94AE0764E670E080E06D
S11311C090E00E946C1ED8014D915C9124EF31E0B7
S11311D063E573E0CE010E94AE07811176CF64E32C
S11311E073E08EE993E00E94BB1C83E0DF91CF9112
S11311F01F910F91FF90EF90DF90CF900895FC0125
S1131200E55EFE4F4081518124EF31E066E571E0F7
S11312100C94AE07FC01E55EFE4F4081518124EF42
S113122031E06AE471E00C94AE07EF92FF920F9301
S11312301F93CF93DF9300D000D000D0CDB7DEB79B
S11312408C017B010E940A09C8010E94FF088823BF
S113125059F121E030E040E050E066EA70E0C80176
S11312600E942C06882311F1A70162EA70E0C801EC
S11312700E9413068823E1F0B8016B5E7E4FCE0115
S113128001960E942E20AE014F5F5F4F6FE970E020
S1131290C8010E94FA05182FCE0101960E94941FDE
S11312A0112341F080E007C082E005C083E003C061
S11312B084E001C080E426960FB6F894DEBF0FBE2A
S11312C0CDBFDF91CF911F910F91FF90EF900895C3
S11312D0CF92DF92EF92FF920F931F93CF93DF93FE
S11312E0EC01680187010E94F006B601CE010F9659
S11312F00E94772521E0892B09F020E0822FDF91DD
S1131300CF911F910F91FF90EF90DF90CF900895B0
S1131310EF92FF920F931F93CF93DF93EC01790128
S113132098010E944A07B701CE010F960E947725C3
S113133021E0892B09F020E0822FDF91CF911F91CA
S11313400F91FF90EF9008957F928F929F92AF92AA
S1131350BF92CF92DF92EF92FF920F931F93CF939E
S1131360DF93EC0128EE3DEF662309F41FC14DEB3A
S113137052E062EB72E00E94AE07811103C082E08A
S1131380782E02C0772473947E0185EEE81A8EEFDE
S1131390F80AF7014081518120E137E267EA72E0FF
S11313A0CE010E94AE07882309F425C1F7014081CC
S11313B0518120E137E269E872E0CE010E94AE0774
S11313C0882309F41AC14E01F2EF8F1AFEEF9F0A27
S11313D0F401408151814115510571F4F7014081B7
S11313E051812FEF3FEF64E272E0CE010E94AE071D
S11313F08111CEC089E00EC1F7012081318100E165
S113140017E265E772E0CE010E948809882309F497
S1131410F6C0CE010E94ED048E01035E1E4F6BE602
S113142072E0F801808191810E947C1CF40160814A
S11314307181F801808191810E947C1C5E01F0EF32
S1131440AF1AFEEFBF0AF50180819181892B79F0F3
S113145065E271E0F801808191810E94AE1CF50182
S113146060817181F801808191810E947C1C6E01F0
S1131470FEEECF1AFEEFDF0AF60180819181892BFF
S113148079F065E271E0F801808191810E94AE1CDF
S1131490F60160817181F801808191810E947C1C38
S11314A067E271E0F801808191810E94CD1C64E6BD
S11314B072E08EE993E00E947C1C6AE572E08EE99A
S11314C093E00E947C1CF401608171818EE993E0B9
S11314D00E947C1CF50180819181892B69F065E271
S11314E071E08EE993E00E94AE1CF5016081718188
S11314F08EE993E00E947C1CF60180819181892B06
S113150069F065E271E08EE993E00E94AE1CF60199
S1131510608171818EE993E00E947C1C67E271E036
S11315208EE993E00E94CD1CF7016081718140E156
S113153057E2CE010E94B805882309F462C0F50180
S1131540408151814115510539F4F60140815181A1
S11315504115510579F442CFF7012081318100E131
S113156017E265E472E0CE010E9488098111EDCF93
S113157087E050C0F7012081318100E117E261E387
S113158072E0CE010E948809811128CF88E042C010
S1131590F701408151812FEF3FEF6BE172E0CE0103
S11315A00E94AE07882379F1872D34C043E152E0CD
S11315B068E072E00E94AE07882339F18E01055E6F
S11315C01E4FF8014081518120E137E26BEF71E059
S11315D0CE010E94AE078823D1F0F80140815181E9
S11315E020E137E260EF71E0CE010E94AE0788236C
S11315F081F081E00FC083E00DC084E00BC085E082
S113160009C086E007C08AE005C08BE003C08CE017
S113161001C08DE0DF91CF911F910F91FF90EF906A
S1131620DF90CF90BF90AF909F908F907F90089560
S1131630AF92BF92CF92DF92EF92FF920F93CF932C
S1131640DF935B016A01E22E0F960E948925EC016B
S1131650892BC1F0C5010E9480258C0F9D1FC0E01D
S1131660F12CC01741F0B7010E94AC25009751F04E
S11316700196CF5FF6CF0E945925F60191838083AE
S113168081E001C080E0DF91CF910F91FF90EF9056
S1131690DF90CF90BF90AF900895CF92DF92EF92FA
S11316A0FF920F931F93CF93DF9300D0CDB7DEB794
S11316B07C016A019B012150310940E050E004EFB4
S11316C011E06EEB70E00E94F00600E02CE2AE0147
S11316D04F5F5F4F62EB70E0C7010E94180B8823D5
S11316E061F049815A81B601C7010E94A70440E014
S11316F064EF71E0C7010E9456050F900F90DF91CF
S1131700CF911F910F91FF90EF90DF90CF900895AC
S11317104F925F926F927F92AF92BF92CF92DF927D
S1131720EF92FF920F931F93CF93DF93EC016A0123
S1131730590127013801FC01E55EFE4F008111814A
S1131740262F30E040E050E084EFE82EFF24F394AD
S113175067EE70E0CE010E946809882309F140E039
S1131760B201CE010E94560501E02CE2A6016AED09
S113177070E0CE010E94180B8823A1F002E02CE255
S1131780A5016DEC70E0CE010E94180B882361F076
S1131790F60180819181883C910541F480E007C085
S11317A087E005C088E003C089E001C080E8DF91DC
S11317B0CF911F910F91FF90EF90DF90CF90BF904A
S11317C0AF907F906F905F904F9008952F923F92CB
S11317D04F925F926F927F928F929F92AF92BF923D
S11317E0CF92DF92EF92FF920F931F93CF93DF93E9
S11317F000D000D01F92CDB7DEB73C015B834A8393
S113180019012801FD82EC820E94150989838F70D9
S1131810823008F059C04A815B816AEA70E0C301F2
S11318200E941306811103C0898180618983A2010A
S113183060E070E000EC14ED21E030E0C3010E94B0
S11318404D06811103C0898185603FC0F301E35EC9
S1131850FE4F80819181DC01ED91FC910280F38146
S1131860E02DA201B1010995F301E55EFE4F60810F
S1131870718140E157E2C3010E94B805811103C0A0
S11318808981866022C010E1E12E17E2F12E00E08A
S113189010E095014C815D8161E0C3010E94880BD9
S11318A0982F9F70923018F0B9818B2B0EC0A40131
S11318B0B601C3010E944D0B811103C0898180626E
S11318C089838981816001C089810F900F900F9075
S11318D00F900F90DF91CF911F910F91FF90EF9098
S11318E0DF90CF90BF90AF909F908F907F906F903C
S11318F05F904F903F902F9008952F923F924F9278
S11319005F926F927F928F929F92AF92BF92CF928B
S1131910DF92EF92FF920F931F93CF93DF933C01DB
S1131920E9012801170176014901510168018A0181
S11319309B0143EC51E06EEC71E00E94E60B182F22
S11319408F70823078F060EA71E08EE993E00E9453
S11319507C1C612F70E04AE050E08EE993E00E9425
S1131960D91D33C063E871E08EE993E00E947C1CCA
S1131970F101608171814AE050E08EE993E00E94B8
S1131980601D60E771E08EE993E00E947C1C4AE0F0
S113199050E0B2018EE993E00E94601D62E671E0BE
S11319A08EE993E00E947C1CFE0101900020E9F77F
S11319B03197BF016C1B7D0B4AE050E08EE993E048
S11319C00E94661DC3010E940A09812FDF91CF91F5
S11319D01F910F91FF90EF90DF90CF90BF90AF9049
S11319E09F908F907F906F905F904F903F902F903B
S11319F00895AF92BF92CF92DF92EF920F931F930D
S1131A00CF93DF93EC016A015901102F0E2D44EF9F
S1131A1051E00E94B706212FA501B601CE010E9414
S1131A20180B182F882331F040E064EF71E0CE01E9
S1131A300E945605812FDF91CF911F910F91EF9056
S1131A40DF90CF90BF90AF900895EF920F939B01DA
S1131A50EE24E3940CE24AE053E063E073E00E9476
S1131A60F90C0F91EF900895CF92DF92EF92FF92CD
S1131A700F931F93CF93DF93CDB7DEB728970FB69D
S1131A80F894DEBF0FBECDBF6C0118861F821E8284
S1131A901D821C821B821A821982E12C0CE29E0197
S1131AA0295F3F4F4CEF52E065EF72E00E94F90C62
S1131AB0F82EEE24E3949E012B5F3F4F4EEE52E04E
S1131AC067EE72E0C6010E94F90C882319F081E0E8
S1131AD0F82602C0FF24F394E12C0CE29E012D5F52
S1131AE03F4F4FED52E066ED72E0C6010E94F90CE3
S1131AF0882311F01B8101C010E2EE24E3940CE270
S1131B009E012F5F3F4F4EEC52E065EC72E0C60140
S1131B100E94F90C811103C0912F906202C0998137
S1131B20912B7D816F818F2D28960FB6F894DEBF9F
S1131B300FBECDBFDF91CF911F910F91FF90EF901A
S1131B40DF90CF900895FC011082128211821382DB
S1131B5014821582168217821286118614861386C1
S1131B6008952AE0829FC001112409960C94FA0F6B
S1131B70CF93DF93EC01CB0129E0FE01DB0101905F
S1131B800D922A95E1F74B812AE0429FA00111248E
S1131B906B857C850996DF91CF910C94A325AF9238
S1131BA0BF92CF92DF92EF92FF920F931F93CF9346
S1131BB0DF93CDB7DEB76B01EDB6FEB6FC01038152
S1131BC0FAE00F9F80011124075F1F4F2DB73EB726
S1131BD0201B310B0FB6F8943EBF0FBE2DBFEDB7DF
S1131BE0FEB731965F01BF010E94B80DA801B5018F
S1131BF0C6010E9435100FB6F894FEBE0FBEEDBEAE
S1131C00DF91CF911F910F91FF90EF90DF90CF90D4
S1131C10BF90AF900895FC01748763874383089550
S1131C20FC0160830895FC01728361830895FC01C3
S1131C3045835683678370870895CF93DF93EC01C0
S1131C406EE974E08EE993E00E947C1C4AE050E067
S1131C5068818EE993E00E94471D6AE974E08EE989
S1131C6093E00E947C1C65E974E08EE993E00E9495
S1131C707C1C4AE050E069818EE993E00E94471D94
S1131C8061E974E08EE993E00E947C1C6CE774E0E7
S1131C908EE993E00E947C1C6B81637070E04AE0E3
S1131CA050E08EE993E00E94D21D62E774E08EE971
S1131CB093E00E947C1C6B816C7170E07595679554
S1131CC0759567954AE050E08EE993E00E94D21D35
S1131CD069E674E08EE993E00E947C1C6B8165FBED
S1131CE0662760F94AE050E070E08EE993E00E94D4
S1131CF0D21D65E674E08EE993E00E947C1C68E5E1
S1131D0074E08EE993E00E947C1C4AE050E06A8112
S1131D108EE993E0DF91CF910C944E1DFC0122815A
S1131D20211106C09081933619F081E0973008F4B0
S1131D3080E00895CF93DF93EC0160E574E08EE9D1
S1131D4093E00E947C1C688179814AE050E08EE92E
S1131D5093E00E94601D6CE474E08EE993E00E94BD
S1131D607C1C66E474E08EE993E00E947C1C6A812A
S1131D707B814AE050E08EE993E00E94601D62E4BA
S1131D8074E08EE993E00E947C1C69E374E08EE9C0
S1131D9093E00E947C1C6C817D814AE050E08EE9D6
S1131DA093E00E94601D65E374E08EE993E00E9475
S1131DB07C1C6FE274E08EE993E00E947C1C6E81CF
S1131DC07F814AE050E08EE993E00E94601D6BE25F
S1131DD074E08EE993E00E947C1C64E274E08EE976
S1131DE093E00E947C1C4AE050E068858EE993E011
S1131DF0DF91CF910C944E1DCF93DF93EC016CE1F6
S1131E0074E08EE993E00E947C1C69817A814AE047
S1131E1050E08EE993E00E94601D68E174E08EE971
S1131E2093E00E947C1C6DE074E08EE993E00E94D4
S1131E307C1C4AE050E06B818EE993E00E94471DD0
S1131E4069E074E08EE993E00E947C1C62E074E037
S1131E508EE993E00E947C1C6881062E000C770BAF
S1131E604AE050E08EE993E00E94D21D6EEF73E0E9
S1131E708EE993E00E94BB1C6CEF73E08EE993E063
S1131E800E947C1CCE0104960E941D0E6EEE73E02F
S1131E908EE993E00E947C1C688570E042E050E08B
S1131EA08EE993E00E94D21D6AEE73E08EE993E01E
S1131EB00E947C1C6DED73E08EE993E00E947C1C13
S1131EC0698570E042E050E08EE993E00E94D21D03
S1131ED069ED73E08EE993E00E947C1C6CEC73E086
S1131EE08EE993E00E947C1C6A8570E042E050E039
S1131EF08EE993E00E94D21D68EC73E08EE993E0D2
S1131F000E94BB1C6AEB73E08EE993E00E947C1C88
S1131F106F8578894AE050E08EE993E00E94601D65
S1131F2066EB73E08EE993E00E947C1C68EA73E040
S1131F308EE993E00E947C1C6D857E854AE050E02A
S1131F408EE993E00E94601D64EA73E08EE993E0F9
S1131F500E947C1C65E973E08EE993E00E947C1C7E
S1131F606B857C854AE050E08EE993E00E94601D19
S1131F7061E973E08EE993E0DF91CF910C94BB1C8F
S1131F80E0918A04F0918B0480E090E0309749F06E
S1131F90029620813181820F931F0280F381E02D0C
S1131FA0F5CF08950F931F93CF93DF9300D0CDB750
S1131FB0DEB780918804909189048E010F5F1F4FD2
S1131FC0009729F40C5814401A8309830AC0081B8B
S1131FD0190B1A8309830E94C00F800F911F9A83E3
S1131FE0898389819A810F900F90DF91CF911F91FE
S1131FF00F9108959C012E5F3F4FE3E0F0E0C9018B
S1132000BF010E941723A901481B590BCA01BF0134
S11320100E941723CB01880F991F880F991F0196DF
S11320200895DC01FB018081869586958C938081DF
S11320308370918192959F7020E1829F900D11246D
S113204011969C93119791819F70990F990F2281FA
S11320502295269526952370920F12969C9312979B
S113206082818F7313968C9308956F927F928F92CF
S11320709F92AF92BF92CF92DF92EF92FF920F9313
S11320801F93CF93DF93CDB7DEB727970FB6F8949E
S1132090DEBF0FBECDBF6C015B013B01640E751E3C
S11320A0E12CF12C00E010E04E0185E0880E911C3B
S11320B06A147B0449F1C8010196F50121915F017D
S11320C0F401E00FF11F20838330910511F08C019E
S11320D0EFCFB401CE0101960E941110DE011196DA
S11320E0C6018E0D9F1DED91F0E0EC55FB4F249140
S11320F0FC012193CF01A815B905A9F7F4E0EF0E6F
S1132100F11C80E090E0E3CF0115110509F43CC017
S1132110BE016B5F7F4FFB01E00FF11FCF01861BF8
S1132120970B039714F41192F9CFCE0101965C0139
S11321300E941110C6018E0D9F1DD501ED91F0E096
S1132140EC55FB4F2491FC012193CF019D012A19E9
S11321503B090217130794F7FFEFEF1AFF0AE00E8B
S1132160F11EF601EE0DFF1D0C191D090E191F09B4
S11321708DE37F01EC18FD0898012E0F3F1F2330DB
S1132180310514F48193F5CFF601EE0DFF1D108295
S1132190C701019627960FB6F894DEBF0FBECDBFD8
S11321A0DF91CF911F910F91FF90EF90DF90CF902F
S11321B0BF90AF909F908F907F906F90089561E053
S11321C085E00E94291F61E085E00E94651F68EB9D
S11321D07BE080E090E00E946C1E61E08DE00E9454
S11321E0291F26E040E855E260E070E08EE993E0C4
S11321F00E94371B62E377E08EE993E00E94BB1CE8
S11322008091AB0184608093AB0108950F931F9379
S1132210CF93DF93CDB7DEB72C970FB6F894DEBF1C
S11322200FBECDBF182F8091A7019091A8010196F0
S11322309093A8018093A70181E08093A00189EB8A
S113224091E090939F0180939E018091A10181115F
S113225034C06DE177E08EE993E00E94BB1C42E05C
S113226063E089EB91E00E94C8078093A1018EEAA4
S113227091E00E946C15082F69E371E0CE01079686
S11322800E940220602FCE0107960E946520BE01A5
S1132290695F7F4FCE0101960E942E20BE016F5FC1
S11322A07F4F89EB91E00E94E904CE0101960E94E0
S11322B0941FCE0107960E94941F8091A101835020
S11322C08230B0F462E077E08EE993E00E947C1CF7
S11322D067E471E08EE993E00E94AE1C6091A10175
S11322E070E04AE050E08EE993E00E94D91D65C099
S11322F0112309F4B1C08091A201811149C08091D8
S1132300A7019091A8016AE070E00E940323892B41
S113231019F01092A0013CC065EE76E08EE993E0DE
S11323200E94BB1C61E089EB91E00E94A409182F74
S11323308FEF810F823020F16DEC76E08EE993E02F
S11323400E947C1C67E471E08EE993E00E94AE1C5D
S1132350612F70E04AE050E08EE993E00E94D91DBD
S11323608091A7019091A801CC9728F41092A00124
S113237067EA76E009C01093A20164E876E004C03D
S11323801093A20164E676E08EE993E00E94BB1C00
S11323908091A2018150823080F48091A9019091B2
S11323A0AA0101969093AA018093A90183EA91E07E
S11323B00E948E0E882331F04FC010929F0110921C
S11323C09E014AC08091A9019091AA016AE070E03F
S11323D00E940323892B19F01092A0013DC069E4E7
S11323E076E08EE993E00E947C1C89EB91E00E94E8
S11323F0340D69837A838B839C83CE0101960E947A
S11324001D0ECE0101960E948E0E811113C0809183
S1132410A9019091AA018C32914048F41092A00134
S11324206AE176E08EE993E00E94BB1C15C062EE7F
S113243075E002C06CEB75E08EE993E00E94BB1C72
S113244089819A81AB81BC818093A3019093A4017B
S1132450A093A501B093A6018EE991E02C960FB646
S1132460F894DEBF0FBECDBFDF91CF911F910F91C6
S1132470089569E471E08EE993E00E94CD1C60E068
S113248085E00E94651F68EB7BE080E090E00C949F
S11324906C1ECF93DF93CDB7DEB72A970FB6F894AF
S11324A0DEBF0FBECDBF69EA75E08EE993E00E94FE
S11324B0BB1C1A8219821C821B821E821D821886F2
S11324C01F82198681E08A87BE016F5F7F4F8CEA85
S11324D091E00E943E1681E02A960FB6F894DEBF82
S11324E00FBECDBFDF91CF9108952F923F924F92AF
S11324F05F926F927F928F929F92AF92BF92DF9280
S1132500EF92FF920F931F93CF93DF93CDB7DEB774
S11325102D970FB6F894DEBF0FBECDBF4C015B0103
S1132520D42E280139012DB63EB60E94D20F7C016B
S11325300D2D10E02AE0D29EC00111248F589F4F28
S1132540E816F90634F469E775E08EE993E00E9431
S11325507C1C67E471E08EE993E00E94AE1C4AE0C3
S113256050E0B7018EE993E00E94D91D2AE0209F34
S1132570C001219F900D1124EDB7FEB7E81BF90BA4
S11325800FB6F894FEBF0FBEEDBF2DB73EB72F5F59
S11325903F4F7901F90181E00150110960F0118286
S11325A01082138212821582148217821682108678
S11325B081873A96F1CF4D2DB7018EEA91E00E94C2
S11325C0BE15F5018083CE0101960E94A30D8EEA0B
S11325D091E00E946C15682FCE0101960E94100EA6
S11325E08EEA91E00E948315BC01CE0101960E94FF
S11325F0130EF5014081B701CE0101960E940B0E26
S1132600B301A201CE0101960E94170EB401CE01BE
S113261001960E94CF0D0FB6F8943EBE0FBE2DBE9C
S11326202D960FB6F894DEBF0FBECDBFDF91CF91CC
S11326301F910F91FF90EF90DF90BF90AF909F900C
S11326408F907F906F905F904F903F902F90089560
S11326503F924F925F926F927F928F929F92AF922E
S1132660BF92CF92DF92EF92FF920F931F93CF937B
S1132670DF93CDB7DEB7A3970FB6F894DEBF0FBED6
S1132680CDBF4DB65EB680919C0190919D0101969F
S113269090939D0180939C01019731F46AE575E064
S11326A08EE993E00E94BB1C81E00E9406115C014C
S11326B0FC013280311007C062E475E08EE993E0DA
S11326C00E94BB1CABC019821B821A821C821D8211
S11326D01E821F8219861A861B861D861C861F86EB
S11326E01E86198A188A82E08A8B8EEA91E00E94FB
S11326F083159B838A83F5018381898784818A87F3
S113270085819681A781B0858D839E83AF83B887A9
S1132710A080B180A114B10439F46FE275E08EE9B0
S113272093E00E94BB1C73C084E10E94B10D2DB7DD
S11327303EB7281B390B0FB6F8943EBF0FBE2DBF12
S11327408DB79EB701964C010D811E812F8138856E
S113275044E1BE016D5D7F4F0E9475128BA18C8395
S11327600E94B10D3C0166E075E08EE993E00E94A1
S1132770BB1CB4018EE993E00E94CD1C1B8A1C8A09
S11327801D8A1E8A1F8A188E198E1A8E1B8E1C8E05
S11327901AA219A218A21F8EFE01B1966F019E0102
S11327A0215E3F4F79010AE010E02C503109A3016A
S11327B0B401C5010E947D0C782E60E0C5010E9421
S11327C0A409CE0143960E9459254C01BE01635EC3
S11327D07F4FC5010E94250D811102C08FEF01C0FA
S11327E08D8D89837B8689A19AA19D878C878F8D06
S11327F098A19F878E87998A888A6FEE74E08EE904
S113280093E00E94BB1CCE0101960E94FC0EBE0107
S11328106F5F7F4F8EEA91E00E948715832D0FB67C
S1132820F8945EBE0FBE4DBEA3960FB6F894DEBFFD
S11328300FBECDBFDF91CF911F910F91FF90EF900D
S1132840DF90CF90BF90AF909F908F907F906F90CC
S11328505F904F903F90089568EE73E080E090E0C1
S11328600E946C1E80919A0190919B010196909315
S11328709B0180939A0165EE74E08EE993E00E94D7
S11328807C1C67E471E08EE993E00E94AE1C4AE090
S113289050E06091AB018EE993E00E944E1D80915F
S11328A0AB0180FF09C00E944912882329F080915E
S11328B0AB018E7F8093AB018091AB0181FF09C096
S11328C00E942813882329F08091AB018D7F809387
S11328D0AB018091AB0182FF17C080919A01909166
S11328E09B01019731F46EEA71E089EB91E00E945B
S11328F01E1A0E942813882339F08091AB018B7F24
S11329008093AB010E94121A8091AB01811102C025
S11329100C943912089541E064E089EB91E00E943F
S11329206A0460E08EEA91E00E94B71461E08CEAE8
S113293091E00E940B16EEE9F1E0128215821682F4
S11329401782128611861486138608958DE291E00B
S11329509093BA018093B9018EEC92E00C94941F89
S1132960DC01ED91FC910190F081E02D0994FC01D2
S1132970148215821682178280E8808781871286E6
S11329806383611104C086E493E00C947319089581
S1132990EF92FF920F931F93CF93DF93EB017B0191
S11329A0E40EF11C8C01CE15DF0521F160E570E029
S11329B086E493E00E948F19612F70E086E493E02F
S11329C00E94B014B801772786E493E00E94B01403
S11329D0699186E493E00E94341986E493E00E94AE
S11329E00B1A6FE070E080E090E00E946C1E0F5FB5
S11329F01F4FD9CFDF91CF911F910F91FF90EF908F
S1132A000895EF92FF920F931F93CF93DF93EB01FF
S1132A107B01E40EF11C8C01CE15DF0571F160E53C
S1132A2070E086E493E00E948F19612F70E086E4E1
S1132A3093E00E94B014B801772786E493E00E94E3
S1132A40B01486E493E00E940B1A41E050E060E584
S1132A5070E086E493E00E94081A86E493E00E9402
S1132A60A518892B29F086E493E00E94AD1801C0D3
S1132A708FEF89930F5F1F4FCFCFDF91CF911F91BE
S1132A800F91FF90EF900895CF93DF931F92CDB7EE
S1132A90DEB7CB0141E0BE016F5F7F4F0E9401159D
S1132AA089810F90DF91CF910895CF93DF931F9287
S1132AB0CDB7DEB763E070E00E9444158F5F898371
S1132AC041E0BE016F5F7F4F83E090E00E94C81435
S1132AD00F90DF91CF91089560E070E00C9444155D
S1132AE0CF93DF9300D0CDB7DEB7CB0142E0BE0178
S1132AF06F5F7F4F0E94011589819A810F900F901B
S1132B00DF91CF91089561E070E00C947015CF923D
S1132B10DF92EF92FF920F931F93CF93DF9300D036
S1132B20CDB7DEB77C016B0164E070E00E947015E4
S1132B308C0142968F3F9F4728F0C7010E9455158C
S1132B400EE110E042E1B601C8010E94C8140E5E15
S1132B501F4F1A83098342E0BE016F5F7F4F84E0F9
S1132B6090E00E94C8140F900F90DF91CF911F91B5
S1132B700F91FF90EF90DF90CF900895AF92BF92A6
S1132B80CF92DF92EF92FF920F931F93CF93DF9335
S1132B907C016B01D42FFC01608171816115710589
S1132BA059F04281FAE04F9FA0011124C6010E940E
S1132BB0A325F701828124C064E070E00E947015AF
S1132BC08C0101501109C0E0CD17C9F00132110583
S1132BD0B0F0B801C7010E9444155801FAE0AF1AD9
S1132BE0B108813061F44AE0B601C80109970E9436
S1132BF0011584E6C80ED11CCF5F8501E5CF8C2F6B
S1132C00DF91CF911F910F91FF90EF90DF90CF90C4
S1132C10BF90AF900895FC0160830895FC0180810A
S1132C20811103C0862F0C94E31E85E090E0089583
S1132C30FC01DB0181818F5F818390E011969C937D
S1132C408E9381812AE0829FC001112413969C9364
S1132C508E931297818167E00E94F722892F90E07A
S1132C6015969C938E931497818124E6829FC001CC
S1132C70112417969C938E9316970895AF92BF9242
S1132C80CF92DF92EF92FF920F931F93CF93DF9334
S1132C908C01EB01FC018081882321F0C8010E9492
S1132CA018161BC06EE0C8010E940E166C016FE07E
S1132CB0C8010E940E165C0161E1C8010E940E1653
S1132CC07C0160E1C8010E940E16B982A882DB82F1
S1132CD0CA82FD82EC829F838E83CE01DF91CF91E5
S1132CE01F910F91FF90EF90DF90CF90BF90AF9026
S1132CF00C949A0E1092450381E080934303109242
S1132D00420361E082E10E94651F61E083E10E9469
S1132D10651FE9EBF0E080818E7F808380818D7F69
S1132D20808388E48093B80085E48093BC00089590
S1132D30413208F043C0909145039111FCCF91E0DA
S1132D4090934503209343032FEF2093D8021092CE
S1132D501D03240F20931C03909344039091440378
S1132D60880F892B8093440380914203813061F45E
S1132D7010924203809144038093BB008091BC0075
S1132D8083FDF8CF85EC01C085EE8093BC00809173
S1132D9045038130E1F380911D03841710F44091C1
S1132DA01D03AEE1B3E0962FFB018E2F891B841720
S1132DB018F48D918193F9CF842F089580E00895BC
S1132DC00F93413208F04AC0909145039111FCCF12
S1132DD032E030934503009343033FEF3093D8022E
S1132DE010921D0340931C03562FAEE1B3E0FB0188
S1132DF03E2F351B341718F431913D93F9CF1092BF
S1132E00440330914403880F832B809344038091BF
S1132E104203813061F41092420380914403809311
S1132E20BB008091BC0083FDF8CF85EC01C085EE2A
S1132E308093BC00222321F0809145038230D1F39A
S1132E408091D8028F3F79F08091D802803241F08E
S1132E508091D802803331F094E005C091E003C042
S1132E6092E001C093E0892F0F9108954091FA02F6
S1132E70262F30E0240F311D21323105DCF420915E
S1132E8045032430C9F4FC0180E090E0861758F42F
S1132E903091FA022191DC01A450BD4FA30FB11D62
S1132EA02C930196F3CF8091FA02680F6093FA0293
S1132EB080E0089581E0089582E0089590933F03AF
S1132EC080933E03089590934103809340030895B3
S1132ED085ED8093BC008091BC0084FDFCCF1092F2
S1132EE04503089585EC8093BC0010924503089532
S1132EF01F920F920FB60F9211242F933F934F936B
S1132F005F936F937F938F939F93AF93BF93EF934D
S1132F10FF938091B900887F803609F49EC078F5CC
S1132F20883209F45DC090F4803109F456C038F455
S1132F30882309F4F5C0883009F44FC0F5C08831FE
S1132F4009F44EC0803209F45FC0EEC0803409F445
S1132F506AC058F4803309F457C0883309F0E4C0D8
S1132F608093D8020E947217DFC0803509F44FC0E5
S1132F70883509F45DC0883409F0D6C0D3C08839D7
S1132F8009F4C4C0A8F4883709F467C038F4883653
S1132F9009F463C0803709F460C0C6C0883809F4F6
S1132FA0B5C0803909F45FC0803809F0BDC05BC08A
S1132FB0803B09F483C038F4803A09F466C0883A47
S1132FC009F47CC0B1C0803C09F4A4C0883C09F475
S1132FD0A1C0883B09F487C0A7C08091440310C0F6
S1132FE090911D0380911C03981770F5E0911D03C7
S1132FF081E08E0F80931D03F0E0E25EFC4F808140
S11330008093BB0085EC83C08093D8028BC0E09191
S11330101D0381E08E0F80931D038091BB00F0E0BF
S1133020E25EFC4F808390911D0380911C036BC072
S1133030E0911D0381E08E0F80931D038091BB00FE
S1133040F0E0E25EFC4F80838091430381116AC00B
S113305081E08093420384EA5EC083E08093450369
S11330601092D902CFCF8091D902803208F04EC09D
S1133070E091D90281E08E0F8093D9028091BB0048
S1133080F0E0E652FD4F8083BDCF0E94721780911D
S1133090D902803230F4E091D902F0E0E652FD4FDB
S11330A010826091D90270E0E0913E03F0913F03F9
S11330B08AED92E009951092D90236C084E080939B
S11330C045031092FB021092FA02E0914003F09142
S11330D0410309958091FA02811105C081E0809332
S11330E0FA021092FC02E091FB0281E08E0F8093C1
S11330F0FB02F0E0E450FD4F80818093BB0090918F
S1133100FB028091FA02981708F47CCF85E880933B
S1133110BC000AC085EC8093BC001092450304C037
S11331201092D8020E946817FF91EF91BF91AF915E
S11331309F918F917F916F915F914F913F912F91CB
S11331400F900FBE0F901F90189580917A0390E016
S113315020917B03821B9109089590917B038091B8
S11331607A03981750F4E92FF0E0E458FC4F2081DB
S113317030E09F5F90937B0302C02FEF3FEFC901C4
S11331800895E0917B0380917A03E81730F4F0E02E
S1133190E458FC4F808190E008958FEF9FEF0895ED
S11331A00895CF93DF93EC01E0915203F091530320
S11331B03097F1F090917B0380917A039817C0F0D7
S11331C090E0292F30E02617370754F4DE01A20FD0
S11331D0B31F4C91D901A458BC4F4C939F5FF1CFBE
S11331E010927B0360937A03CB01DF91CF91099412
S11331F0DF91CF910895E0915403F09155033097F6
S113320029F0109258031092570309940895CF920D
S1133210DF92EF92FF920F931F93CF93DF937C0182
S1133220CB018A0120915603222389F0EB016B0123
S1133230C40ED51ECC15DD0569F06991D701ED9159
S1133240FC910190F081E02DC7010995F3CF642F23
S11332500E943617C801DF91CF911F910F91FF9003
S1133260EF90DF90CF900895CF93DF931F92CDB767
S1133270DEB76983209156032223D1F020915703AE
S1133280203240F021E030E0FC013383228380E0EF
S113329090E015C080915803E82FF0E0E75AFC4F06
S11332A0998190838F5F809358038093570305C05F
S11332B061E0CE0101960E94361781E090E00F9004
S11332C0DF91CF910895FC011382128288EE93E07E
S11332D0A0E0B0E084839583A683B7838EE591E074
S11332E091838083089510927B0310927A03109245
S11332F05803109257030E947A168BEF98E10E94AC
S1133300631781ED98E10C945E1781E08093560376
S113331060937903109258031092570308950C9404
S113332085190F93062F21E04091570369E573E057
S1133330809179030E94E01610925803109257036B
S1133340109256030F9108954F925F926F927F925D
S1133350AF92BF92CF92EF92FF920F931F93CF93AE
S1133360DF935C01F62ED42F28013901EE2021F1E0
S11333700E948519CE2DC43008F0C3E0C150C0F0BE
S113338028E0C29FC0011124A301920104C05695F4
S11333904795379527958A95D2F7CA01B901D50182
S11333A0ED91FC910190F081E02DC5010995E6CFE6
S11333B060E0C5010E9491194D2FD13208F040E21E
S11333C02C2D6CE773E08F2D0E94981610927B03CE
S11333D080937A03DF91CF911F910F91FF90EF902B
S11333E0CF90BF90AF907F906F905F904F90089573
S11333F0CF92EF920F931F93C22EE12C00E010E0C6
S113340098010E94A4191F910F91EF90CF900895F5
S113341021E00C94F81961E00C94911986E493E08E
S11334200C94631980919C0390919D030E940A243B
S11334306AE677E08EE993E00C94BB1CCF93DF93AC
S1133440EB0165E677E08EE993E00E94BB1C84E122
S113345090E00E947223FC0190939D0380939C034F
S113346081E090E0918380838AE090E09583848377
S113347084E690E09383828383E390E0978386835A
S113348083E0808782E090E09387828784E190E004
S11334909787868788EC90E09587848784E390E01B
S11334A0918B808B128A6EE377E08EE993E00E9421
S11334B0BB1C80919C0390919D030E949A0E809165
S11334C09C0390919D030A960E949A0E80919C03FE
S11334D090919D039983888382E08A83DF91CF91C1
S11334E00895FC01918D228D892F90E0805C9F4F7F
S11334F0821B91098F7399270895FC01918D828D08
S1133500981731F0828DE80FF11D858D90E00895B4
S11335108FEF9FEF0895FC01918D828D981761F0D4
S1133520828DDF01A80FB11D5D968C91928D9F5FF6
S11335309F73928F90E008958FEF9FEF089584EF2B
S11335409BE1892B49F080E090E0892B29F00E94CF
S1133550F41B81110C9400000895FC01848DDF019B
S1133560A80FB11DA35ABF4F2C91848D90E00196F2
S11335708F739927848FA689B7892C93A089B189E1
S11335808C9180648C93938D848D981306C00288EB
S1133590F389E02D80818F7D80830895EF92FF92DF
S11335A00F931F93CF93DF93EC0181E0888F9B8D62
S11335B08C8D981305C0E889F989808185FD24C024
S11335C0F62E0B8D10E00F5F1F4F0F731127E02EA7
S11335D08C8DE8120CC00FB607FCFACFE889F98984
S11335E0808185FFF5CFCE010E94AD1AF1CF8B8D7E
S11335F0FE01E80FF11DE35AFF4FF0820B8FEA89B9
S1133600FB898081806207C0EE89FF896083E88935
S1133610F98980818064808381E090E0DF91CF919B
S11336201F910F91FF90EF900895CF93DF93EC01DA
S1133630888D8823C9F0EA89FB89808185FD05C0CE
S1133640A889B9898C9186FD0FC00FB607FCF5CF08
S1133650808185FFF2CFA889B9898C9185FFEDCF50
S1133660CE010E94AD1AE7CFDF91CF910895CF929A
S1133670DF92EF92FF921F93CF93DF93EC016A01E5
S11336807B01122FE889F98982E080834115514E2C
S113369061057105B1F060E079E08DE390E0A70188
S11336A096010E942B23DA01C9010197A109B109EE
S11336B0B695A795979587959C01211580E13807C4
S11336C0A8F0E889F989108260E874E88EE190E056
S11336D0A70196010E942B23DA01C9010197A109D0
S11336E0B109B695A795979587959C01EC85FD85BD
S11336F03083EE85FF852083188EEC89FD89108345
S1133700EA89FB89808180618083EA89FB898081E1
S113371088608083EA89FB89808180688083EA8964
S1133720FB8980818F7D8083DF91CF911F91FF90F2
S1133730EF90DF90CF9008951F920F920FB60F92E3
S113374011242F938F939F93EF93FF93E091AE03F4
S1133750F091AF038081E091B403F091B50382FD51
S113376012C090818091B7038F5F8F732091B8034B
S1133770821751F0E091B703F0E0E256FC4F958FC9
S11337808093B70301C08081FF91EF919F918F9146
S11337902F910F900FBE0F901F9018951F920F92AC
S11337A00FB60F9211242F933F934F935F936F9310
S11337B07F938F939F93AF93BF93EF93FF938EE980
S11337C093E00E94AD1AFF91EF91BF91AF919F9149
S11337D08F917F916F915F914F913F912F910F90B6
S11337E00FBE0F901F9018958EE993E00E94711AF6
S11337F021E0892B09F420E0822F0895EEE9F3E01B
S11338001382128288EE93E0A0E0B0E08483958373
S1133810A683B7838EE691E09183808385EC90E064
S11338209587848784EC90E09787868780EC90E086
S1133830918B808B81EC90E0938B828B82EC90E077
S1133840958B848B86EC90E0978B868B118E128EF1
S1133850138E148E089508950E94A81E0E942B1C96
S11338600E94DF10CFE9DAE10E942C142097E1F3E3
S11338700E949F1AF9CF0C947223CF92DF92EF9299
S1133880FF920F931F93CF93DF936C017A018B0107
S1133890C0E0D0E0CE15DF0581F0D8016D918D0137
S11338A0D601ED91FC910190F081E02DC6010995BE
S11338B0892B11F02196EECF7E01C701DF91CF91C4
S11338C01F910F91FF90EF90DF90CF9008956115B5
S11338D0710579F0FB0101900020E9F73197AF0100
S11338E0461B570BDC01ED91FC910280F381E02D26
S11338F0099480E090E00895EF92FF920F931F9354
S1133900CF93DF938C017B01C0E0D0E0F701EC0F93
S1133910FD1F6491662361F0D801ED91FC91019043
S1133920F081E02DC8010995892B11F02196EECF85
S1133930CE01DF91CF911F910F91FF90EF900895E9
S1133940DB0114964D915C9115976D917C91DC018E
S1133950ED91FC910280F381E02D09940C94671C95
S1133960DC01ED91FC910190F081E02D09946AE76E
S113397071E00C94671C0F931F93CF93DF93EC01BA
S11339800E947C1C8C01CE010E94B71C800F911FE9
S1133990DF91CF911F910F9108950F931F93CF93B0
S11339A0DF93EC010E94671C8C01CE010E94B71CBE
S11339B0800F911FDF91CF911F910F9108950F9365
S11339C01F93CF93DF93EC010E94B01C8C01CE01B6
S11339D00E94B71C800F911FDF91CF911F910F910F
S11339E008958F929F92AF92BF92EF92FF920F939E
S11339F01F93CF93DF93CDB7DEB7A1970FB6F8949B
S1133A00DEBF0FBECDBF7C01FA01CB0119A222306B
S1133A1008F42AE08E010F5D1F4F822E912CA12CF9
S1133A20B12CBF01A50194010E942B23F901CA0105
S1133A30015011096A3010F4605D01C0695CD8015D
S1133A406C93232B242B252B61F7B801C7010E940B
S1133A50671CA1960FB6F894DEBF0FBECDBFDF91F1
S1133A60CF911F910F91FF90EF90BF90AF909F90D7
S1133A708F9008952115310541F4DC01ED91FC91FD
S1133A800190F081E02D642F09940C94F11C9A01AB
S1133A90462F50E060E070E00C943A1D0F931F93A2
S1133AA0CF93DF93EC010E94471D8C01CE010E944D
S1133AB0B71C800F911FDF91CF911F910F91089533
S1133AC09A01AB0160E070E00C943A1D0F931F93D0
S1133AD0CF93DF93EC010E94601D8C01CE010E9404
S1133AE0B71C800F911FDF91CF911F910F91089503
S1133AF00F931F93CF93DF93EC010E943A1D8C0127
S1133B00CE010E94B71C800F911FDF91CF911F91AE
S1133B100F910895CF92DF92EF92FF920F931F932C
S1133B20CF93DF932115310581F4DC01ED91FC91F4
S1133B300190F081E02D642FDF91CF911F910F91BF
S1133B40FF90EF90DF90CF9009942A30310501F572
S1133B5077FF1DC06A017B01EC016DE20E94B01C7D
S1133B608C0144275527BA014C195D096E097F0958
S1133B702AE0CE010E94F11C800F911FDF91CF91AA
S1133B801F910F91FF90EF90DF90CF9008952AE05E
S1133B90DF91CF911F910F91FF90EF90DF90CF9025
S1133BA00C94F11C9A01AB01770F660B770B0C9404
S1133BB08A1D0F931F93CF93DF93EC010E94D21DB4
S1133BC08C01CE010E94B71C800F911FDF91CF9111
S1133BD01F910F9108950F931F93CF93DF93EC01DF
S1133BE00E948A1D8C01CE010E94B71C800F911F78
S1133BF0DF91CF911F910F9108951F920F920FB6ED
S1133C000F9211242F933F938F939F93AF93BF935E
S1133C1080913C0490913D04A0913E04B0913F04F6
S1133C2030913B0423E0230F2D3720F40196A11D8E
S1133C30B11D05C026E8230F0296A11DB11D2093D6
S1133C403B0480933C0490933D04A0933E04B093C2
S1133C503F048091400490914104A0914204B091AA
S1133C6043040196A11DB11D809340049093410427
S1133C70A0934204B0934304BF91AF919F918F915D
S1133C803F912F910F900FBE0F901F9018953FB743
S1133C90F8948091400490914104A0914204B09121
S1133CA0430426B5A89B05C02F3F19F00196A11D1A
S1133CB0B11D3FBFBA2FA92F982F8827820F911DBE
S1133CC0A11DB11DBC01CD0142E0660F771F881F05
S1133CD0991F4A95D1F708958F929F92AF92BF9200
S1133CE0CF92DF92EF92FF926B017C010E94471EFC
S1133CF04B015C01C114D104E104F10401F10E94FF
S1133D00F6220E94471EDC01CB0188199909AA09F1
S1133D10BB09883E9340A105B10560F321E0C21AB6
S1133D20D108E108F10888EE880E83E0981EA11CF2
S1133D30B11CC114D104E104F10419F7DBCFFF90E5
S1133D40EF90DF90CF90BF90AF909F908F900895A9
S1133D50789484B5826084BD84B5816084BD85B562
S1133D60826085BD85B5816085BDEEE6F0E0808129
S1133D7081608083E1E8F0E010828081826080834A
S1133D80808181608083E0E8F0E0808181608083CD
S1133D90E1EBF0E0808184608083E0EBF0E08081FF
S1133DA081608083EAE7F0E08081846080838081A1
S1133DB08260808380818160808380818068808349
S1133DC01092C10008958E3008F08E5020910601A3
S1133DD090E4299F900111248770822B80937C00AA
S1133DE080917A00806480937A0080917A0086FDC5
S1133DF0FCCF809178002091790090E0922B089577
S1133E00833081F028F4813099F08230A1F0089554
S1133E108730A9F08830B9F08430D1F480918000E3
S1133E208F7D03C0809180008F77809380000895F8
S1133E3084B58F7702C084B58F7D84BD0895809149
S1133E40B0008F7703C08091B0008F7D8093B00065
S1133E500895CF93DF9390E0FC01E754F84F249149
S1133E60FC01E353F84F8491882361F190E0880FBB
S1133E70991FFC01EB50F84FC591D491FC01E55119
S1133E80F84FA591B491611109C09FB7F894888146
S1133E90209582238883EC912E230BC0623061F439
S1133EA09FB7F8948881322F309583238883EC91CF
S1133EB02E2B2C939FBF06C08FB7F894E8812E2B2E
S1133EC028838FBFDF91CF9108951F93CF93DF9302
S1133ED0282F30E0F901EB55F84F8491F901E754AC
S1133EE0F84FD491F901E353F84FC491CC23C1F0B6
S1133EF0162F81110E94001FEC2FF0E0EE0FFF1F20
S1133F00E551F84FA591B4919FB7F894111104C0ED
S1133F108C91D095D82302C0EC91DE2BDC939FBF0B
S1133F20DF91CF911F910895FC01808191810C94C0
S1133F300A24CF93DF93EC0188819981009711F0D3
S1133F400E940A24198218821D821C821B821A82F2
S1133F50DF91CF9108950F931F93CF93DF93EC01DB
S1133F608B016F5F7F4F888199810E949324009712
S1133F7031F0998388831B830A8381E001C080E048
S1133F80DF91CF911F910F910895CF93DF93EC01AF
S1133F9088819981892B29F08A819B8186179707CB
S1133FA060F4CE010E94AB1F882341F08C819D8177
S1133FB0892B19F4E881F981108281E0DF91CF9196
S1133FC00895EF92FF920F931F93CF93DF93EC0129
S1133FD07B018A01BA010E94C51F811104C0CE0170
S1133FE00E94991F07C01D830C83B70188819981A2
S1133FF00E94B725CE01DF91CF911F910F91FF90C1
S1134000EF900895FC0111821082138212821582AE
S113401014826115710551F0FB0101900020E9F74C
S11340203197AF01461B570B0C94E11F0895CF93B2
S1134030DF93EC01FB018617970761F060817181C2
S11340406115710529F0448155810E94E11F02C068
S11340500E94991FCE01DF91CF910895FC01118236
S1134060108213821282158214820C941720EF920C
S1134070FF920F931F93CF93DF936115710511F492
S113408080E01CC041155105C1F07B01EC018C811D
S11340909D818A01080F191FB801CE010E94C51F16
S11340A0882371F3288139818C819D81B701820F26
S11340B0931F0E94B7251D830C8381E0DF91CF916C
S11340C01F910F91FF90EF900895EF92FF920F933D
S11340D01F93CF93DF9300D000D0CDB7DEB77C0120
S11340E0862F4AE08E010F5F1F4FB80190E00E94B7
S11340F0BE25F80101900020E9F73197AF01401B7C
S1134100510BB801C7010E9437200F900F900F90F8
S11341100F90DF91CF911F910F91FF90EF90089531
S1134120209186043091870428173907B9F49091B7
S1134130440480914504981789F0E0914404F0E028
S1134140EA5BFB4F80812091440430E02F5F3F4FB6
S11341502F7333272093440490E008958FEF9FEF4B
S113416008951F93CF93DF93DC015C968D919C910E
S11341705D97009739F421E030E013963C932E9339
S113418012973BC05196ED91FC91529750962C9109
S11341905097322F30951FB75E964C915E97742FCF
S11341A0727041FD6095F8944081772311F0422BA1
S11341B001C043234083EC012197F1F748E050818B
S11341C060FF02C0522B01C053235083EC0121979E
S11341D0F1F76695415099F78081772319F083238D
S11341E0808302C0282B20831FBF5C968D919C91F5
S11341F05D970197F1F781E090E0DF91CF911F91F6
S1134200089508952091860430918704281739076A
S113421071F49091440480914504981741F0E09121
S11342204404F0E0EA5BFB4F808190E008958FEF57
S11342309FEF089520918604309187042817390749
S113424071F4809145042091440490E0805C9F4F78
S1134250821B910960E470E00E941723089580E0B6
S113426090E00895E0918604F0918704E817F90737
S113427069F4A389B4899C918589809589238C9359
S1134280109287041092860481E0089580E00895D6
S1134290CF93DF93EC018A8D9B8D892BF1F0809174
S11342A0860490918704C817D907B9F0009711F0D4
S11342B00E9432218E8D8E7F8E8F10924504109233
S11342C04404D0938704C0938604EB89FC899081CD
S11342D08D89892B808381E001C080E0DF91CF91BB
S11342E008951F920F920FB60F9211242F933F93AC
S11342F04F935F936F937F938F939F93AF93BF93EA
S1134300EF93FF93E0918604F0918704309709F4CA
S113431051C0968DA685B785858591FF04C09C9173
S1134320892329F447C09C91892309F043C0A389B8
S1134330B4899C918589809589238C9386899789F2
S11343400197F1F7608D718DA685B785558538E0A5
S113435020E0CB010197F1F7822F90E095958795A6
S1134360282F4C91452309F02068315091F7868D10
S113437081FD20958091450490E001968F739927E3
S113438030914404381749F0A0914504B0E0AA5B89
S1134390BB4F2C938093450403C0868D8160868F28
S11343A0828D938D0197F1F7A389B4899C918589B6
S11343B0892B8C93FF91EF91BF91AF919F918F9136
S11343C07F916F915F914F913F912F910F900FBE0D
S11343D00F901F9018951F93CF93DF93EC01162F26
S11343E06E8D6695617081E06827812F0E94651F3C
S11343F061E0812F0E94291F812F90E0FC01E75486
S1134400F84FE491E88BFC01E353F84FE491F0E0BA
S1134410EE0FFF1FE551F84F859194919A8B898B8C
S1134420DF91CF911F9108951F93CF93DF93EC01F8
S1134430162F60E0812F0E94291F8E8D81FD04C0FC
S113444061E0812F0E94651F1C87812F90E0FC0191
S1134450E754F84FE491ED87FC01E353F84FE491FE
S1134460F0E0EE0FFF1FEF51F84F859194919F8775
S11344708E87DF91CF911F9108951F93CF93DF9380
S1134480EC01162F1B821A8288EE93E0A0E0B0E0C4
S11344908C839D83AE83BF838DE891E09983888369
S11344A01F8A1E8A198E188E1B8E1A8E1D8E1C8EC4
S11344B08E8D8E7F20FB81F98E8F642FCE010E941A
S11344C0EB21612FCE01DF91CF911F910C94142227
S11344D0CF93DF93EC019A01AB011B8E1A8E198ED8
S11344E0188E1F8A1E8A60E079E08DE390E00E94B6
S11344F04D23F9012430310518F0C901039702C096
S113450081E090E09D8F8C8F6C85663108F069C0E6
S1134510C901969587958431910510F0439702C09F
S113452081E090E09F8B8E8B369718F0C901059738
S113453002C081E090E0998F888FC901880F991F8C
S1134540280F391F36952795369527952D30310537
S113455018F02C50310902C021E030E03B8F2A8F43
S113456090916800683050F021E06E3008F420E04B
S113457081E001C0880F2A95EAF701C084E0892B05
S1134580809368009C85983038F09E3040F09631D6
S113459048F020E030E008C02DE630E005C02BE60E
S11345A030E002C02CE630E03C8B2B8B983030F4AA
S11345B081E001C0880F9A95EAF70EC0292F30E0F8
S11345C09E3018F42850310902C02E50310981E080
S11345D001C0880F2A95EAF78D8B8C8D9D8D0197EC
S11345E0F1F7CE01DF91CF910C9448210895991BE6
S11345F079E004C0991F961708F0961B881F7A95D6
S1134600C9F780950895AA1BBB1B51E107C0AA1FD7
S1134610BB1FA617B70710F0A61BB70B881F991F5F
S11346205A95A9F780959095BC01CD01089597FB03
S1134630072E16F4009407D077FD09D00E940323B7
S113464007FC05D03EF4909581959F4F0895709591
S113465061957F4F0895A1E21A2EAA1BBB1BFD0191
S11346600DC0AA1FBB1FEE1FFF1FA217B307E4074D
S1134670F50720F0A21BB30BE40BF50B661F771FA5
S1134680881F991F1A9469F7609570958095909585
S11346909B01AC01BD01CF010895052E97FB1EF4CB
S11346A000940E94642357FD07D00E942B2307FC2B
S11346B003D04EF40C946423509540953095219585
S11346C03F4F4F4F5F4F089590958095709561953A
S11346D07F4F8F4F9F4F0895EE0FFF1F0590F4916A
S11346E0E02D09940F931F93CF93DF9382309105AC
S11346F010F482E090E0E0918A04F0918B0420E0D1
S113470030E0A0E0B0E0309719F14081518102819E
S1134710138148175907C8F08417950769F410974F
S113472031F012960C93129713961C9327C00093A2
S11347308A0410938B0422C02115310519F0421705
S1134740530718F49A01BD01EF01DF01F801DBCF33
S113475021153105F9F0281B390B2430310580F47B
S11347608A819B816115710521F0FB01938382830A
S113477004C090938B0480938A04FE01329644C053
S1134780FE01E20FF31F8193919322503109398383
S113479028833AC02091880430918904232B41F462
S11347A020910201309103013093890420938804FD
S11347B020910001309101012115310541F42DB7FB
S11347C03EB74091040150910501241B350BE09143
S11347D08804F0918904E217F307A0F42E1B3F0B21
S11347E02817390778F0AC014E5F5F4F241735075F
S11347F048F04E0F5F1F50938904409388048193BF
S1134800919302C0E0E0F0E0CF01DF91CF911F91DE
S11348100F910895CF93DF93009709F481C0FC01B1
S1134820329713821282A0918A04B0918B0410975C
S113483081F420813181820F931F2091880430916B
S113484089042817390751F5F0938904E093880403
S113485067C0ED0120E030E0CE17DF0740F44A8165
S11348605B819E0141155105F1F0EA01F5CFD38337
S1134870C28340815181840F951FC817D90759F409
S113488088819981840F951F0296918380838A8100
S11348909B81938382832115310529F4F0938B0442
S11348A0E0938A043DC0E901FB83EA83499159916D
S11348B0C40FD51FEC17FD0761F480819181840F2B
S11348C0951F0296E90199838883828193819B8352
S11348D08A83E0E0F0E012968D919C911397009703
S11348E019F0FD01DC01F7CF8D919C9111979D0189
S11348F02E5F3F4F820F931F2091880430918904CB
S11349002817390769F4309729F410928B04109210
S11349108A0402C013821282B0938904A09388048B
S1134920DF91CF910895A0E0B0E0E9E9F4E20C94BE
S1134930FF25EC01009721F4CB010E947223B4C03F
S1134940FC01E60FF71F9C0122503109E217F3071F
S113495008F4A8C0D9010D911C91119706171707E7
S1134960B0F00530110508F49BC0C8010497861700
S1134970970708F495C002501109061B170B019301
S113498011936D937C93CF010E940A2489C05B012B
S1134990A01AB10A4C01800E911EA0918A04B09114
S11349A08B04612C712CE12CF12C109709F446C076
S11349B08D919C911197A815B905B1F56C0142E050
S11349C0C40ED11CCA14DB0478F14C018A189B086C
S11349D0640142E0C40ED11C1296BC901297139647
S11349E0AC91B5E0CB16D10440F0B282A38391829E
S11349F08082D9016D937C9309C00E5F1F4F800F95
S1134A00911FF90191838083EB2DFA2FE114F104B6
S1134A1031F0D7011396FC93EE93129741C0F093B3
S1134A208B04E0938A043CC06816790608F43C01C0
S1134A307D0112960D90BC91A02DB7CF8091880472
S1134A409091890488169906E1F466167706C8F4ED
S1134A508091000190910101009741F48DB79EB7B8
S1134A604091040150910501841B950BE817F90747
S1134A70C8F4F0938904E0938804F9017183608396
S1134A800FC0CB010E9472237C01009759F0A8014A
S1134A90BE010E94A325CE010E940A24C70104C0BE
S1134AA0CE0102C080E090E0CDB7DEB7EEE00C941A
S1134AB01B26FC0188279927E89421912032E9F3E9
S1134AC0293010F02E30C8F32B3241F02D3239F456
S1134AD0689404C00E94C925820F911D219120531E
S1134AE02A30C0F31EF4909581959F4F0895FB01E1
S1134AF0DC018D91059080190110D9F3990B08956B
S1134B00FC0105900020E9F7809590958E0F9F1F7A
S1134B100895FB0155915523A9F0BF01DC014D9186
S1134B2045174111E1F759F4CD010590002049F0F2
S1134B304D9140154111C9F3FB014111EFCF81E0C3
S1134B4090E001970895FB01DC0102C001900D92F1
S1134B5041505040D8F70895FC018191861721F007
S1134B608823D9F7992708953197CF010895FB0138
S1134B70DC0101900D920020E1F70895BB274A3033
S1134B8031F4992322F4BDE2909581959F4F0C94C2
S1134B90D2257AE0979F902D879F802D910D112427
S1134BA00895BB27FB015527AA27880F991FAA1F21
S1134BB0A41710F0A41B83955051B9F7A05DAA3334
S1134BC008F0A95DA193009779F7B111B1931192FF
S1134BD0CB010C94EB25DC01FC01672F7191772349
S1134BE0E1F7329704C07C916D9370836291AE17A4
S1134BF0BF07C8F308952F923F924F925F926F922E
S1134C007F928F929F92AF92BF92CF92DF92EF9258
S1134C10FF920F931F93CF93DF93CDB7DEB7CA1BD9
S1134C20DB0B0FB6F894DEBF0FBECDBF09942A8804
S1134C30398848885F846E847D848C849B84AA84AC
S1134C40B984C884DF80EE80FD800C811B81AA8139
S1134C50B981CE0FD11D0FB6F894DEBF0FBECDBF04
S1134C60ED01089514E0C3E0D4E004C0FE010E9405
S1114C706C232196C430D107C9F7F894FFCF06
S1134C7E00008C042000012C00415449005E5A00AF
S1134C8E2B434D4753004F4B0041542B434D474448
S1134C9E3D30303000222C2200000000003A043D4A
S1134CAE1C2E04460452045E0449414141455F52A0
S1134CBE4D6F6E56335F003A0053776974636869BB
S1134CCE6E67206F66662E2E2E00000000003419CB
S1134CDE0719A518AD18C118D01800000000CE1A77
S1134CEE3D1C711A8B1A7D1A151B0D0A006E616E0E
S1134CFE00696E66006F76660000000000B1203D0C
S10D4D0E1C1A21902002210121004B
S9030000FC
