:100000000C945D030C9485030C9485030C94B31D30
:100010000C94B31D0C94B31D0C9485030C948503B0
:100020000C9485030C9485030C9485030C94850330
:100030000C9485030C9485030C9485030C94850320
:100040000C943F1A0C9485030C94DE170C94101832
:100050000C9485030C9485030C9485030C94850300
:100060000C94BA130C948503093C2D2D2D20000906
:100070002D2D2D3E2000093C2D2D2D2000092D2D4C
:100080002D3E2000093C2D2D2D2000092D2D2D3E2B
:100090002000535041434500093C2D2D2D20005296
:1000A000454449520055524C0055410043494400D3
:1000B0004C656E3A20005374617475733A200043A6
:1000C0004F4E54454E540041542B485454505353B2
:1000D0004C3D002B48545450524541443A00415441
:1000E0002B4854545052454144002B4854545041DD
:1000F0004354494F4E3A002B4854545041435449BD
:100100004F4E3A0041542B48545450414354494FA8
:100110004E3D00444F574E4C4F41440041542B48F4
:10012000545450444154413D0041542B4854545080
:10013000444154413D00092D2D2D3E2000222C002C
:10014000222C220041542B48545450504152413DDE
:10015000220041542B48545450504152413D2200FA
:10016000092D2D2D3E200041542B48545450544508
:10017000524D0041542B48545450494E4954007438
:100180006578742F706C61696E0041542B43474150
:1001900054543D300041542B53415042523D302C79
:1001A000310041542B43495053485554005348554E
:1001B00054204F4B0041542B434949435200415472
:1001C0002B53415042523D312C310041542B53416D
:1001D0005042523D332C312C22505744222C0041A6
:1001E000542B53415042523D332C312C2255534510
:1001F00052222C0041542B435354543D2200092DCC
:100200002D2D3E200041542B435354543D22004198
:10021000542B53415042523D332C312C2241504EED
:10022000222C0041542B53415042523D332C312C4F
:1002300022434F4E54595045222C224750525322AC
:100240000041542B43474154543D310041542B430A
:100250004950534855540053485554204F4B004182
:10026000542B435245473F002B435245473A200009
:1002700041542B435245473F002B435245473A20B8
:100280000041542B435351002B4353513A2000411A
:10029000542B435351002B4353513A200053494DA3
:1002A0003830382052313400093C2D2D2D200009E2
:1002B0002D2D2D3E20004154453000415445300045
:1002C0004154204661696C2E2E2E206C617374207F
:1002D000646974636820617474656D70742E004184
:1002E00054004154004154004154004154004154D1
:1002F00000417474656D7074696E6720746F206F4F
:1003000070656E20636F6D6D20776974682041544D
:1003100073004F4B00464F4E416E6574004572723C
:100320006F723D00207C200054656D703D00207C84
:10033000200043757272656E743D00207C20005071
:10034000562D563D00207C2000426174742D563D90
:100350000052535349204572726F723F3D00207C1A
:1003600020002C204572726F723D002C2053746166
:100370007475733D004E6574776F726B2D526567AF
:1003800020526573436F64653D00207C2000424528
:10039000523D00207C2000525353493D00414243CE
:1003A0004445464748494A4B4C4D4E4F5051525395
:1003B0005455565758595A6162636465666768694F
:1003C0006A6B6C6D6E6F7071727374757677787915
:1003D0007A303132333435363738392B2F00426595
:1003E000686176696F757200456E636F646564203D
:1003F00064617461206372656174656420616E6418
:1004000020726561647920666F722073656E643A4C
:10041000000928466F6E6120496E6974204552526A
:100420004F5229000928466F6E6120496E69742079
:1004300050656E64696E672E2E2E2900496E6974B0
:1004400069616C6973696E6720466F6E6120746FB5
:100450002073656E6420646174610054616B696E21
:10046000672072656164696E67732E2E2E00092005
:1004700028476F6F642D52535349202D20737563A5
:100480006365737366756C6C2C20616C6C20646F93
:100490006E65290009202857616974696E672046D6
:1004A0006F7220476F6F642D525353492054696D0A
:1004B0006564204F7574202D2077696C6C20636F04
:1004C0006E74696E7565206E6F7729000920284269
:1004D00061642D52535349202D2077696C6C206341
:1004E0006865636B20616761696E2061667465721F
:1004F00020696E74657276616C2900436865636B70
:10050000696E672052535349202D206375727265BE
:100510006E746C793A004750525320696E69746961
:10052000616C697365642073756363657373667565
:100530006C6C79202100416C6C20617474656D7065
:10054000747320746F20656E61626C652047505231
:1005500053206661696C65640057696C6C20747225
:100560007920746F20656E61626C6520475052532C
:1005700020616761696E2073686F72746C790045E1
:1005800072726F7220696E697469616C6973696EE9
:1005900067204750525300417474656D7074696EE2
:1005A0006720746F20656E61626C652047505253FE
:1005B0002E2E2E004572726F7220696E6974696109
:1005C0006C6973696E6720666F6E612E2E2E00490E
:1005D0006E697469616C6973696E6720666F6E61BC
:1005E0002E2E2E005374617274696E672E2E2E00AB
:1005F000322053656E736F722D446174617320678E
:100600006F696E6720666F72207472616E736D69B8
:100610007373696F6E3A002A2A2A2A007E7E7E7ED4
:100620007E7E7E7E7E7E7E7E7E7E7E2045787465AA
:100630006E6465642047534D205465737420436F86
:100640006D706C6574657E7E7E7E7E7E7E7E7E7E37
:100650007E7E7E7E7E7E000000000800020100009B
:10066000030407000000000000000001020408105D
:100670002040800102040810200102040810200418
:100680000404040404040402020202020203030339
:1006900003030300000000230026002900000000DF
:1006A00000250028002B0000000000240027002A5D
:1006B0000000A91150164018BF1111241FBECFEF22
:1006C000D8E0DEBFCDBF11E0A0E0B1E0E2E0F5E4AC
:1006D00002C005900D92A23CB107D9F724E0A2EC2C
:1006E000B1E001C01D92A13BB207E1F713E0CCE5F8
:1006F000D3E004C02197FE010E94AE1FC935D10787
:10070000C9F70E946E180C9474220C940000835E4A
:100710009E4FDC018D919C91DC01ED91FC91048058
:10072000F581E02D0994835E9E4FDC018D919C91B3
:10073000DC01ED91FC910190F081E02D0994835E44
:100740009E4FDC018D919C91DC01ED91FC91068026
:10075000F781E02D0994835E9E4FDC018D919C9181
:10076000DC01ED91FC910084F185E02D0994835E1C
:100770009E4FDC018D919C91DC01ED91FC910284F6
:10078000F385E02D09940F931F93CF93DF93EC0132
:10079000062F142F1B821A8288EE93E0A0E0B0E0AF
:1007A0008C839D83AE83BF8385E591E099838883A5
:1007B00083E08E8764EA71E0CE018B5E9E4F0E94DB
:1007C000441C0C871D87FE01E25FFE4F85E193E02C
:1007D0009183808332961182108232961182108228
:1007E0003B961182108239971082C55EDE4F82E1FE
:1007F00093E099838883DF91CF911F910F910895A2
:100800008B5E9E4F0C94591C0F931F93CF93DF93D5
:10081000EC0180E090E08C010F5F1F4F8897D8F4C7
:10082000E881F9810480F581E02DCE010995892BBD
:1008300051F0E881F9810680F781E02DCE0109951C
:1008400000E010E0EDCF61E070E080E090E00E9419
:10085000AE1AC801E0CFDF91CF911F910F9108959B
:10086000FF920F931F93CF93DF93EC018B01F42E34
:100870000E94040460E671E083EC93E00E94BE18DD
:1008800062E571E083EC93E00E94BE18B80183EC4E
:1008900093E00E94BE1862E283EC93E00E9421196B
:1008A000C35EDE4F64E471E0888199810E94BE18C6
:1008B000B801888199810E94BE1888819981FF20A2
:1008C00019F060E471E002C06DE371E0DF91CF9157
:1008D0001F910F91FF900C94BE18BF92CF92DF92A0
:1008E000EF92FF920F931F93CF93DF937C01B42E6F
:1008F0008B01000F111F000F111FC0E0D0E0670136
:1009000083EEC81A8EEFD80A01151105C9F1CE3F42
:10091000D10598F062E970E083EC93E00E94FD1845
:100920002FC0F60180819181DC01ED91FC91068060
:10093000F781E02D09958D3069F4D6018D919C9158
:10094000DC01ED91FC910480F581E02D0995892B66
:1009500041F70CC08A3021F4209779F3BB2081F055
:10096000F701EC0FFD1F87872196E7CF0150110992
:1009700039F061E070E080E090E00E94AE1AC4CFF0
:10098000F701EC0FFD1F17868C2FDF91CF911F9180
:100990000F91FF90EF90DF90CF90BF9008950F934D
:1009A0001F93CF93DF93EC018B01BA0140E00E94CB
:1009B0006D0468E970E083EC93E00E94BE182F9606
:1009C000BE0183EC93E00E940F19B801CE010E9492
:1009D000B92121E0892B09F020E0822FDF91CF910E
:1009E0001F910F910895CF93DF93EC01FC01E35E1B
:1009F000FE4F662331F062E2808191810E942119CD
:100A000004C0808191810E94F918FE01E55EFE4FCD
:100A10006081718140E157E2CE01DF91CF910C946A
:100A2000CF040F931F93CF93DF93EC018A0141E032
:100A30000E943004FE01E35EFE4FB8018081918187
:100A40000E94F01861E0CE01DF91CF911F910F91CC
:100A50000C94F3040F931F93CF93DF93EC018A015F
:100A600041E00E943004FE01E35EFE4FB801808148
:100A700091810E94E21861E0CE01DF91CF911F9138
:100A80000F910C94F3040F931F93CF93DF93EC011A
:100A90008A0141E00E943004FE01E35EFE4FB8018E
:100AA000808191810E94BE1861E0CE01DF91CF91DB
:100AB0001F910F910C94F304CF92DF92EF92FF926B
:100AC000CF93DF93EC0169017A0140E00E9430048A
:100AD000FE01E35EFE4F2AE030E0B701A60180810F
:100AE00091810E94CC1960E0CE01DF91CF91FF90FF
:100AF000EF90DF90CF900C94F3044F925F926F923F
:100B00007F928F929F92AF92BF92EF92FF920F933C
:100B10001F93CF93DF937C012A013B0148015901C8
:100B20000E94040466E371E083EC93E00E94BE1827
:100B300069E271E083EC93E00E94BE182AE030E0A5
:100B4000B301A20183EC93E00E947C196CE283EC78
:100B500093E00E94F2182AE030E0B501A40183EC92
:100B600093E00E94BA19E701C35EDE4F6CE171E0C9
:100B7000888199810E94BE182AE030E0B301A20169
:100B8000888199810E947C1967E071E08881998150
:100B90000E94F0182AE030E0B501A4018881998113
:100BA0000E94BA1940E157E263E171E0C701DF91A9
:100BB000CF911F910F91FF90EF90BF90AF909F90BA
:100BC0008F907F906F905F904F900C94CF04EF9236
:100BD000FF920F931F93CF93DF93EC018B017A0168
:100BE0000E9404046BE870E083EC93E00E94BE185E
:100BF000B80183EC93E00E94FD18FE01E35EFE4F16
:100C0000B801808191810E94FD1840E0B701CE01BA
:100C10000E946D04182F64E870E083EC93E00E945A
:100C2000BE18BE01615F7F4F83EC93E00E940F19F5
:100C3000812FDF91CF911F910F91FF90EF90089539
:100C40008F929F92AF92BF92CF92DF92EF92FF92DC
:100C50000F931F93CF93DF93EC016B0149015A016E
:100C60000E9404046DE770E083EC93E00E94BE18DC
:100C7000B60183EC93E00E94BE182AE030E0B50193
:100C8000A40183EC93E00E942D1A7E0183EEE81A02
:100C90008EEFF80AB601F701808191810E94BE189B
:100CA0002AE030E0B501A401F701808191810E9422
:100CB0002D1A40E0B801CE010E946D04182F66E79E
:100CC00070E083EC93E00E94BE18BE01615F7F4F2D
:100CD00083EC93E00E940F19812FDF91CF911F9138
:100CE0000F91FF90EF90DF90CF90BF90AF909F90CB
:100CF0008F900895AF92BF92CF92DF92EF92FF92C2
:100D00000F931F93CF93DF93EC016B017A0159018D
:100D10000E9404046FE670E083EC93E00E94BE182A
:100D2000B60183EC93E00E94BE1862E283EC93E08C
:100D30000E94F218B70183EC93E00E94BE1862E2B1
:100D400083EC93E00E9421198E01035E1E4FB601D1
:100D5000F801808191810E94BE1862E2F8018081D1
:100D600091810E94F218B701F801808191810E945F
:100D7000BE1862E2F801808191810E94211940E051
:100D8000B501CE010E946D04182F68E670E083EC77
:100D900093E00E94BE18BE01615F7F4F83EC93E039
:100DA0000E940F19812FDF91CF911F910F91FF901A
:100DB000EF90DF90CF90BF90AF9008950F931F9367
:100DC000CF93DF93EC018A01A9010E94E7058823F4
:100DD00041F0B801CE010F960E94B92121E0892B84
:100DE00009F020E0822FDF91CF911F910F9108959C
:100DF000CF92DF92EF92FF920F931F93CF93DF93E7
:100E0000EC01F62EE42E8FE190E00E947D188C011B
:100E100020E04E2D6F2D0E947F1E7E0183EEE81A8A
:100E20008EEFF80AD7010D931C9340EC52E160E07D
:100E300070E0C8010E94AA1E61E08C850E946B1BB5
:100E400061E08C850E94A71B6AE070E080E090E082
:100E50000E94AE1A60E08C850E94A71B64E670E0D9
:100E600080E090E00E94AE1A61E08C850E94A71B92
:100E700061EF72E083EC93E00E94FD188EE0C82ED3
:100E8000D12C8E01055E1E4FF70180819181DC011E
:100E9000ED91FC910480F581E02D0995892B59F0A5
:100EA000F70180819181DC01ED91FC910680F78151
:100EB000E02D0995E9CFF8014081518124EF31E01F
:100EC0006EEE72E0CE010E94DE06811134C0D701C1
:100ED0008D919C91DC01ED91FC910480F581E02DD8
:100EE0000995892B59F0F70180819181DC01ED9101
:100EF000FC910680F781E02D0995E9CF24EF31E0E0
:100F00004BEE52E068EE72E0CE010E94DE068111E7
:100F100012C064EF71E080E090E00E94AE1AB1E090
:100F2000CB1AD10809F0B0CF5EC064E670E080E073
:100F300090E00E94AE1AF8014081518124EF31E027
:100F40006BEB72E0CE010E94DE0664E670E080E0AA
:100F500090E00E94AE1AD8014D915C9124EF31E0EF
:100F600066EB72E0CE010E94DE06811102C012E043
:100F700001C011E064E670E080E090E00E94AE1AEB
:100F8000CE010E9404046FEA72E083EC93E00E94B9
:100F9000BE1869E071E083EC93E00E940F1969E0EC
:100FA00071E0F701808191810E940F1941E064EFA7
:100FB00071E0CE010E946D0468EA72E083EC93E078
:100FC0000E94BE182F96BE0183EC93E00E940F1979
:100FD0006DE972E0CE010E94CB21892B11F0812FA7
:100FE00035C084E033C0D8014D915C9124EF31E0ED
:100FF00065EE72E0CE010E94DE0664E670E080E0FD
:1010000090E00E94AE1AF8014081518124EF31E056
:1010100062EE72E0CE010E94DE0664E670E080E0DF
:1010200090E00E94AE1AD8014D915C9124EF31E01E
:101030006FED72E0CE010E94DE06811176CF60EC8A
:1010400072E083EC93E00E94FD1883E0DF91CF9182
:101050001F910F91FF90EF90DF90CF900895FC01CA
:10106000E55EFE4F4081518124EF31E063E771E09E
:101070000C94DE06FC01E55EFE4F4081518124EFB9
:1010800031E067E671E00C94DE06CF92DF92EF92DA
:10109000FF920F931F93CF93DF93EC0168018701B9
:1010A0000E942006B601CE010F960E94B92121E0D0
:1010B000892B09F020E0822FDF91CF911F910F91B2
:1010C000FF90EF90DF90CF900895EF92FF920F93F3
:1010D0001F93FC01E55EFE4F00811181262F30E059
:1010E00040E050E064EFE62EFF24F39467EC70E0FC
:1010F0000E9445081F910F91FF90EF900895DF9295
:10110000EF92FF920F931F93CF93DF9300D000D005
:1011100000D0CDB7DEB78C017B010E943A08C80130
:101120000E942F08811102C080E03EC021E030E023
:1011300040E050E06CEA70E0C8010E945C05882342
:1011400099F3B8016B5E7E4FCE0101960E94701C30
:10115000AE014F5F5F4F69EA70E0C8010E942A0547
:10116000D82ECE0101960E94D61BDD20E9F2A70100
:1011700065EA70E0C8010E9411058823A9F2F80110
:10118000EC5EFE4F9081992379F021E030E040E061
:1011900050E06FE970E0C8010E945C05882321F2ED
:1011A00061E0C8010E94650826960FB6F894DEBF7C
:1011B0000FBECDBFDF91CF911F910F91FF90EF90A8
:1011C000DF900895EF92FF920F931F93CF93DF93D9
:1011D000EC01790198010E947A06B701CE010F96C1
:1011E0000E94B92121E0892B09F020E0822FDF91B4
:1011F000CF911F910F91FF90EF9008957F928F9262
:101200009F92AF92BF92CF92DF92EF92FF920F9395
:101210001F93CF93DF93EC0128EE3DEF662309F493
:101220001FC147E552E06CE472E00E94DE068111C6
:1012300003C082E0782E02C0772473947E0185EE8D
:10124000E81A8EEFF80AF7014081518120E137E278
:1012500061E472E0CE010E94DE06882309F425C114
:10126000F7014081518120E137E263E272E0CE0173
:101270000E94DE06882309F41AC14E01F2EF8F1A8C
:10128000FEEF9F0AF401408151814115510571F42F
:10129000F701408151812FEF3FEF6EEB71E0CE01FE
:1012A0000E94DE068111CEC089E00EC1F7012081C7
:1012B000318100E117E26FE072E0CE010E94E208A6
:1012C000882309F4F6C0CE010E9404048E01035E57
:1012D0001E4F65E072E0F801808191810E94BE1886
:1012E000F40160817181F801808191810E94BE18B2
:1012F0005E01F0EFAF1AFEEFBF0AF5018081918128
:10130000892B79F065E271E0F801808191810E947A
:10131000F018F50160817181F801808191810E944E
:10132000BE186E01FEEECF1AFEEFDF0AF6018081D5
:101330009181892B79F065E271E0F80180819181DA
:101340000E94F018F60160817181F801808191811D
:101350000E94BE1867E271E0F801808191810E94CD
:101360000F196EEF71E083EC93E00E94BE1864EFFA
:1013700071E083EC93E00E94BE18F40160817181FA
:1013800083EC93E00E94BE18F50180819181892B46
:1013900069F065E271E083EC93E00E94F018F501DA
:1013A0006081718183EC93E00E94BE18F601808118
:1013B0009181892B69F065E271E083EC93E00E94F2
:1013C000F018F6016081718183EC93E00E94BE18F1
:1013D00067E271E083EC93E00E940F19F7016081EE
:1013E000718140E157E2CE010E94CF04882309F4C5
:1013F00062C0F501408151814115510539F4F60172
:10140000408151814115510579F442CFF701208186
:10141000318100E117E26FED71E0CE010E94E20838
:101420008111EDCF87E050C0F7012081318100E1CB
:1014300017E26BEC71E0CE010E94E208811128CF27
:1014400088E042C0F701408151812FEF3FEF65EB0B
:1014500071E0CE010E94DE06882379F1872D34C029
:101460004DEA51E062EA71E00E94DE06882339F11C
:101470008E01055E1E4FF8014081518120E137E267
:1014800065E971E0CE010E94DE068823D1F0F80103
:101490004081518120E137E26AE871E0CE010E948B
:1014A000DE06882381F081E00FC083E00DC084E078
:1014B0000BC085E009C086E007C08AE005C08BE06C
:1014C00003C08CE001C08DE0DF91CF911F910F919F
:1014D000FF90EF90DF90CF90BF90AF909F908F9054
:1014E0007F900895AF92BF92CF92DF92EF92FF92DA
:1014F0000F93CF93DF935B016A01E22E0F960E9458
:10150000CB21EC01892BC1F0C5010E94C2218C0FB7
:101510009D1FC0E0F12CC01741F0B7010E94EE21E1
:10152000009751F00196CF5FF6CF0E949B21F60104
:101530009183808381E001C080E0DF91CF910F91A2
:10154000FF90EF90DF90CF90BF90AF900895EF9213
:10155000FF920F93CF93DF93EC017B0144EF51E0B7
:101560006EED70E00E94E70500E02CE2A70163ED5C
:1015700070E0CE010E94720ADF91CF910F91FF902F
:10158000EF9008954F925F926F927F92AF92BF92C9
:10159000CF92DF92EF92FF920F931F93CF93DF933F
:1015A000EC015A01690127013801FC01E55EFE4F9B
:1015B00000811181262F30E040E050E084EFE82EDA
:1015C000FF24F39464E071E0CE010E94450881118C
:1015D00002C080E017C040E0B201CE010E946D045D
:1015E00001E02CE2A50167EF70E0CE010E94720AD3
:1015F000882379F302E02CE2A6016AEE70E0CE01C6
:101600000E94720ADF91CF911F910F91FF90EF908E
:10161000DF90CF90BF90AF907F906F905F904F9092
:1016200008954F925F926F927F928F929F92AF92A6
:10163000BF92CF92DF92EF92FF920F931F93CF93BF
:10164000DF93EC012A013901480157010E947F080C
:10165000882309F471C0A2016FEB70E0CE010E94F3
:101660004305882309F468C0A80160E070E000E148
:1016700017E220E030E0CE010E947D05882309F4C6
:101680005BC0FE01E35EFE4F80819181DC01ED9144
:10169000FC910280F381E02DA401B3010995FE01C4
:1016A000E55EFE4F6081718140E157E2CE010E940C
:1016B000CF04882309F440C010E1E12E17E2F12E97
:1016C00000E010E09601A50161E0CE010E94C20A8F
:1016D000882391F166EB70E083EC93E00E94BE18E2
:1016E000F501608171814AE050E083EC93E00E9453
:1016F000A81960EB70E083EC93E00E94BE18D6015D
:101700006D917C914AE050E083EC93E00E94A8192F
:10171000B601CE01DF91CF911F910F91FF90EF9015
:10172000DF90CF90BF90AF909F908F907F906F9001
:101730005F904F900C94A70A80E0DF91CF911F91AA
:101740000F91FF90EF90DF90CF90BF90AF909F9060
:101750008F907F906F905F904F9008958F929F929F
:10176000AF92BF92CF92DF92EF92FF920F931F93AF
:10177000CF93DF93CDB7DEB7A2970FB6F894DEBF55
:101780000FBECDBF5C014A0180E2E1E3F1E0DE0182
:10179000119601900D928A95E1F7CE0181966C0128
:1017A00079018A019B014FE751E0BE016F5F7F4FD6
:1017B000C5010E94110B811123C069E271E083EC25
:1017C00093E00E940F1922C0D501ED91FC91048095
:1017D000F581E02DC5010995892B91F0D501ED9199
:1017E000FC910680F781E02DC50109959091C0001C
:1017F00095FFFCCF8093C600B1E08B1A910821F7CA
:101800008114910409F7C5010E943A08A2960FB607
:10181000F894DEBF0FBECDBFDF91CF911F910F9126
:10182000FF90EF90DF90CF90BF90AF909F908F9000
:101830000895AF92BF92CF92DF92EF920F931F93D2
:10184000CF93DF93EC016A015901102F0E2D44EF65
:1018500051E00E94E705212FA501B601CE010E94AB
:10186000720A182F882331F040E064EF71E0CE0156
:101870000E946D04812FDF91CF911F910F91EF9006
:10188000DF90CF90BF90AF900895CF92DF92EF920C
:10189000FF920F931F93CF93DF93CDB7DEB72897B7
:1018A0000FB6F894DEBF0FBECDBF6C0118861F8245
:1018B0001E821D821C821B821A821982E12C0CE27C
:1018C0009E01295F3F4F46E952E06FE872E00E94B7
:1018D000190CF82EEE24E3949E012B5F3F4F48E84D
:1018E00052E061E872E0C6010E94190C882319F0E9
:1018F00081E0F82602C0FF24F394E12C0CE29E0163
:101900002D5F3F4F49E752E060E772E0C6010E9459
:10191000190C882311F01B8101C010E2EE24E3941E
:101920000CE29E012F5F3F4F48E652E06FE572E008
:10193000C6010E94190C811103C0912F906202C050
:101940009981912B7D816F818F2D28960FB6F89408
:10195000DEBF0FBECDBFDF91CF911F910F91FF90E2
:10196000EF90DF90CF900895FC01108212821182D7
:1019700013821482158216821782128611861486AB
:10198000138608952AE0829FC001112409960C94C1
:101990000D0ECF93DF93EC01CB0129E0FE01DB01BB
:1019A00001900D922A95E1F74B812AE0429FA00118
:1019B00011246B857C850996DF91CF910C94E521EC
:1019C000AF92BF92CF92DF92EF92FF920F931F934D
:1019D000CF93DF93CDB7DEB76B01EDB6FEB6FC015A
:1019E0000381FAE00F9F80011124075F1F4F2DB77D
:1019F0003EB7201B310B0FB6F8943EBF0FBE2DBF74
:101A0000EDB7FEB731965F01BF010E94C90CA80176
:101A1000B501C6010E94480E0FB6F894FEBE0FBE77
:101A2000EDBEDF91CF911F910F91FF90EF90DF906E
:101A3000CF90BF90AF900895FC0174876387438374
:101A40000895FC0160830895FC0172836183089509
:101A5000FC0145835683678370870895CF93DF9396
:101A6000EC0167E973E083EC93E00E94BE184AE062
:101A700050E0688183EC93E00E94891963E973E088
:101A800083EC93E00E94BE186EE873E083EC93E071
:101A90000E94BE184AE050E0698183EC93E00E9406
:101AA00089196AE873E083EC93E00E94BE1865E749
:101AB00073E083EC93E00E94BE186B81637070E06A
:101AC0004AE050E083EC93E00E94141A6BE673E066
:101AD00083EC93E00E94BE186B816C7170E0759589
:101AE0006795759567954AE050E083EC93E00E9416
:101AF000141A62E673E083EC93E00E94BE186B81D7
:101B000065FB662760F94AE050E070E083EC93E003
:101B10000E94141A6EE573E083EC93E00E94BE18F5
:101B200061E573E083EC93E00E94BE184AE050E068
:101B30006A8183EC93E0DF91CF910C949019FC01C2
:101B40002281211106C09081933619F081E09730EF
:101B500008F480E00895CF93DF93EC0169E473E02B
:101B600083EC93E00E94BE1869817A814AE050E0DC
:101B700083EC93E00E94A21965E473E083EC93E0A8
:101B80000E94BE186FE373E083EC93E00E94BE18DE
:101B90006B817C814AE050E083EC93E00E94A219C3
:101BA0006BE373E083EC93E00E94BE1862E373E0A2
:101BB00083EC93E00E94BE186D817E814AE050E084
:101BC00083EC93E00E94A2196EE273E083EC93E051
:101BD0000E94BE1868E273E083EC93E00E94BE1896
:101BE0006F8178854AE050E083EC93E00E94A2196F
:101BF00064E273E083EC93E00E94BE186DE173E051
:101C000083EC93E00E94BE184AE050E0698583ECC3
:101C100093E0DF91CF910C9490199C012E5F3F4F80
:101C2000E3E0F0E0C901BF010E94591FA901481B70
:101C3000590BCA01BF010E94591FCB01880F991F80
:101C4000880F991F01960895DC01FB01808186951C
:101C500086958C9380818370918192959F7020E10D
:101C6000829F900D112411969C93119791819F70E2
:101C7000990F990F22812295269526952370920F10
:101C800012969C93129782818F7313968C9308956A
:101C90006F927F928F929F92AF92BF92CF92DF927C
:101CA000EF92FF920F931F93CF93DF93CDB7DEB7E1
:101CB00027970FB6F894DEBF0FBECDBF6C015B0156
:101CC0003B01640E751EE12CF12C00E010E04E018A
:101CD00085E0880E911C6A147B0449F1C8010196C5
:101CE000F50121915F01F401E00FF11F20838330A2
:101CF000910511F08C01EFCFB401CE0101960E9445
:101D0000240EDE011196C6018E0D9F1DED91F0E0AF
:101D1000E356FC4F2491FC012193CF01A815B9058E
:101D2000A9F7F4E0EF0EF11C80E090E0E3CF01159D
:101D3000110509F43CC0BE016B5F7F4FFB01E00F52
:101D4000F11FCF01861B970B039714F41192F9CF63
:101D5000CE0101965C010E94240EC6018E0D9F1DCE
:101D6000D501ED91F0E0E356FC4F2491FC01219365
:101D7000CF019D012A193B090217130794F7FFEFC2
:101D8000EF1AFF0AE00EF11EF601EE0DFF1D0C1911
:101D90001D090E191F098DE37F01EC18FD0898013C
:101DA0002E0F3F1F2330310514F48193F5CFF60138
:101DB000EE0DFF1D1082C701019627960FB6F8940D
:101DC000DEBF0FBECDBFDF91CF911F910F91FF906E
:101DD000EF90DF90CF90BF90AF909F908F907F90CB
:101DE0006F90089561E085E00E946B1B61E085E0E3
:101DF0000E94A71B68EB7BE080E090E00E94AE1A97
:101E000061E08DE00E946B1B26E040E855E260E057
:101E100070E083EC93E00E94791764EE75E083EC48
:101E200093E00E94FD188091D00184608093D001DE
:101E30000895EF92FF920F931F93CF93DF93CDB747
:101E4000DEB72C970FB6F894DEBF0FBECDBFF82ECD
:101E50008B018091CC019091CD0101969093CD01A1
:101E60008093CC0181E0FB0180838091CF018111BF
:101E700034C06FEC75E083EC93E00E94FD1842E003
:101E800063E08EED91E00E94F8068093CF0183ED30
:101E900091E00E944812E82E61E671E0CE010796BB
:101EA0000E94441C6E2DCE0107960E94A71CBE0105
:101EB000695F7F4FCE0101960E94701CBE016F5F6B
:101EC0007F4F8EED91E00E940004CE0101960E94AA
:101ED000D61BCE0107960E94D61B8091CF0183505E
:101EE0008230A8F464EB75E083EC93E00E94BE18A6
:101EF0006FE671E083EC93E00E94F0184AE050E056
:101F00006091CF0183EC93E00E949019B2C0FF2052
:101F100009F4ACC08091CE01811149C08091CC01FF
:101F20009091CD016AE070E00E94451F892B19F065
:101F3000F80110823CC067E975E083EC93E00E94F1
:101F4000FD1861E08EED91E00E94FE08F82E8FEF03
:101F50008F0D823020F16FE775E083EC93E00E94F3
:101F6000BE186FE671E083EC93E00E94F0186F2DCD
:101F700070E04AE050E083EC93E00E941B1A8091ED
:101F8000CC019091CD01CC9728F4F801108269E53D
:101F900075E009C0F092CE0166E375E004C0F092EE
:101FA000CE0166E175E083EC93E00E94FD1880911C
:101FB000CE018150823008F05CC08091CA019091BE
:101FC000CB0101969093CB018093CA0186EC91E0FE
:101FD0000E949F0D81114AC08091CA019091CB014E
:101FE0006AE070E00E94451F892B19F0F801108209
:101FF0003DC06BEF74E083EC93E00E94BE188EED61
:1020000091E00E94450C69837A838B839C83CE0187
:1020100001960E942E0DCE0101960E949F0D811106
:1020200013C08091CA019091CB018C32914048F449
:10203000F80110826CEC74E083EC93E00E94FD18D0
:1020400015C064E974E002C06EE674E083EC93E0CE
:102050000E94FD1889819A81AB81BC818093C60161
:102060009093C701A093C801B093C9018EED91E090
:1020700002C080E090E02C960FB6F894DEBF0FBE51
:10208000CDBFDF91CF911F910F91FF90EF900895F9
:1020900061E771E083EC93E00E940F1960E085E056
:1020A0000E94A71B68EB7BE080E090E00C94AE1AE6
:1020B000CF93DF93CDB7DEB72A970FB6F894DEBF84
:1020C0000FBECDBF6BE574E083EC93E00E94FD187A
:1020D00081E089831B821A821D821C821F821E82DC
:1020E000198618861A86BE016F5F7F4F81ED91E0D9
:1020F0000E94801281E02A960FB6F894DEBF0FBED0
:10210000CDBFDF91CF9108954F925F926F927F92F2
:102110008F929F92AF92BF92DF92EF92FF920F93B6
:102120001F93CF93DF93CDB7DEB7A8970FB6F89480
:10213000DEBF0FBECDBFADB6BEB68091C4019091DB
:10214000C5019C012F5F3F4F3093C5012093C4010F
:10215000892B31F46CE374E083EC93E00E94FD186A
:10216000BE01685D7F4F81E00E94190F8C01D8A4E9
:10217000D11003C064E274E004C0009739F461E157
:1021800074E083EC93E00E94FD1868C08DB69EB6A3
:102190000E94450C2B013C01CE0101967C0184E19B
:1021A000F70111928A95E9F781E089838B879E0177
:1021B0002E5D3F4F42E050E0B70183ED91E00E9479
:1021C000E111CE0145960E94B40C67EECE01459612
:1021D0000E94210D61E270E0CE0145960E94240D1F
:1021E00042E0B701CE0145960E941C0DB301A20149
:1021F000CE0145960E94280D82E00E94C20C3C014F
:102200008DB79EB7861997090FB6F8949EBF0FBE7B
:102210008DBFEDB7FEB731967F01BF01CE01459668
:102220000E94E00C68EE73E083EC93E00E94FD18DE
:10223000B70183EC93E00E940F199E012A5D3F4F86
:10224000A301B701C8010E94AE0B1092C501109204
:10225000C4010FB6F8949EBE0FBE8DBE8D2D0FB675
:10226000F894BEBE0FBEADBEA8960FB6F894DEBF02
:102270000FBECDBFDF91CF911F910F91FF90EF90D7
:10228000DF90BF90AF909F908F907F906F905F9006
:102290004F90089568EE73E080E090E00E94AE1ADF
:1022A0008091C2019091C30101969093C3018093E4
:1022B000C2016EED73E083EC93E00E94BE186FE6FE
:1022C00071E083EC93E00E94F0184AE050E06091E6
:1022D000D00183EC93E00E9490198091D00180FF9F
:1022E00009C00E945810882329F08091D0018E7F68
:1022F0008093D0018091D00181FF09C00E94841099
:10230000882329F08091D0018D7F8093D001809126
:10231000D00182FF17C08091C2019091C301019743
:1023200031F463ED71E08EED91E00E9460160E9441
:102330008410882339F08091D0018B7F8093D00165
:102340000E9454168091D001811102C00C94481053
:10235000089541E064E08EED91E00E94C30360E0E7
:1023600083ED91E00E94D01161E081ED91E00E9447
:102370004C12E6ECF1E0108211821282089585E59C
:1023800091E09093DF018093DE0183EF92E00C9463
:10239000D61BDC01ED91FC910190F081E02D0994B8
:1023A000FC01148215821682178280E8808781875B
:1023B00012866383611104C08BE693E00C94B5151B
:1023C0000895FC01CB01608171816115710539F0BF
:1023D00042812AE0429FA00111240E94E52161E090
:1023E00070E080E090E00895EF92FF920F931F93CA
:1023F000CF93DF93EB017B01E40EF11C8C01CE1532
:10240000DF0571F160E570E08BE693E00E94D11585
:10241000612F70E08BE693E00E94C911B801772725
:102420008BE693E00E94C9118BE693E00E944D1663
:1024300041E050E060E570E08BE693E00E944A16D0
:102440008BE693E00E94E714892B29F08BE693E05A
:102450000E94EF1401C08FEF89930F5F1F4FCFCF02
:10246000DF91CF911F910F91FF90EF900895CF933F
:10247000DF931F92CDB7DEB7CB0141E0BE016F5FA6
:102480007F4F0E94F41189810F90DF91CF910895C1
:1024900060E070E00C943712FC0160830895FC0149
:1024A0008081811103C0862F0C94251B85E090E06C
:1024B0000895FC01DB0181818F5F818390E012969A
:1024C0009C938E93119781812AE0829FC0011124F1
:1024D00014969C938E931397818167E00E94391F15
:1024E000892F90E016969C938E931597818124E610
:1024F000829FC001112418969C938E93179708957C
:10250000AF92BF92CF92DF92EF92FF920F931F9301
:10251000CF93DF938C01EB01FC018081882321F0B4
:10252000C8010E9459121BC06EE0C8010E944F12E0
:102530006C016FE0C8010E944F125C0161E1C801AB
:102540000E944F127C0160E1C8010E944F12BA82C2
:10255000A982DC82CB82FE82ED8298878F83CE01B6
:10256000DF91CF911F910F91FF90EF90DF90CF906F
:10257000BF90AF900C94AB0D10926A0381E08093F2
:1025800068031092670361E082E10E94A71B61E08B
:1025900083E10E94A71BE9EBF0E080818E7F8083BE
:1025A00080818D7F808388E48093B80085E4809368
:1025B000BC000895413208F043C090916A03911124
:1025C000FCCF91E090936A03209368032FEF209350
:1025D000FD0210924203240F20934103909369035C
:1025E00090916903880F892B809369038091670319
:1025F000813061F410926703809169038093BB007E
:102600008091BC0083FDF8CF85EC01C085EE8093FE
:10261000BC0080916A038130E1F38091420384170A
:1026200010F440914203A3E4B3E0962FFB018E2FF8
:10263000891B841718F48D918193F9CF842F089505
:1026400080E008950F93413208F04AC090916A03E8
:102650009111FCCF32E030936A03009368033FEF9F
:102660003093FD021092420340934103562FA3E49E
:10267000B3E0FB013E2F351B341718F431913D9325
:10268000F9CF1092690330916903880F832B8093EF
:10269000690380916703813061F410926703809130
:1026A00069038093BB008091BC0083FDF8CF85EC6B
:1026B00001C085EE8093BC00222321F080916A0343
:1026C0008230D1F38091FD028F3F79F08091FD023D
:1026D000803241F08091FD02803331F094E005C0FA
:1026E00091E003C092E001C093E0892F0F9108951B
:1026F00040911F03262F30E0240F311D2132310578
:10270000DCF420916A032430C9F4FC0180E090E0FD
:10271000861758F430911F032191DC01AF5DBC4F47
:10272000A30FB11D2C930196F3CF80911F03680F67
:1027300060931F0380E0089581E0089582E008958A
:10274000909364038093630308959093660380934A
:102750006503089585ED8093BC008091BC0084FDE5
:10276000FCCF10926A03089585EC8093BC00109210
:102770006A0308951F920F920FB60F9211242F93A0
:102780003F934F935F936F937F938F939F93AF93F9
:10279000BF93EF93FF938091B900887F803609F44F
:1027A0009EC078F5883209F45DC090F4803109F458
:1027B00056C038F4882309F4F5C0883009F44FC0B6
:1027C000F5C0883109F44EC0803209F45FC0EEC014
:1027D000803409F46AC058F4803309F457C0883350
:1027E00009F0E4C08093FD020E94B413DFC080357D
:1027F00009F44FC0883509F45DC0883409F0D6C0AB
:10280000D3C0883909F4C4C0A8F4883709F467C074
:1028100038F4883609F463C0803709F460C0C6C054
:10282000883809F4B5C0803909F45FC0803809F0F0
:10283000BDC05BC0803B09F483C038F4803A09F422
:1028400066C0883A09F47CC0B1C0803C09F4A4C0D9
:10285000883C09F4A1C0883B09F487C0A7C08091D7
:10286000690310C09091420380914103981770F55D
:10287000E091420381E08E0F80934203F0E0ED5B34
:10288000FC4F80818093BB0085EC83C08093FD0268
:102890008BC0E091420381E08E0F809342038091D0
:1028A000BB00F0E0ED5BFC4F808390914203809190
:1028B00041036BC0E091420381E08E0F809342039D
:1028C0008091BB00F0E0ED5BFC4F8083809168035A
:1028D00081116AC081E08093670384EA5EC083E06F
:1028E00080936A031092FE02CFCF8091FE02803265
:1028F00008F04EC0E091FE0281E08E0F8093FE0250
:102900008091BB00F0E0E150FD4F8083BDCF0E947D
:10291000B4138091FE02803230F4E091FE02F0E0C8
:10292000E150FD4F10826091FE0270E0E091630380
:10293000F09164038FEF92E009951092FE0236C089
:1029400084E080936A031092200310921F03E091A9
:102950006503F0916603099580911F03811105C0FD
:1029600081E080931F0310922103E091200381E016
:102970008E0F80932003F0E0EF5DFC4F8081809309
:10298000BB009091200380911F03981708F47CCF1F
:1029900085E88093BC000AC085EC8093BC0010924F
:1029A0006A0304C01092FD020E94AA13FF91EF91E6
:1029B000BF91AF919F918F917F916F915F914F9157
:1029C0003F912F910F900FBE0F901F9018958091FF
:1029D0009F0390E02091A003821B9109089590919C
:1029E000A00380919F03981750F4E92FF0E0EF5572
:1029F000FC4F208130E09F5F9093A00302C02FEF37
:102A00003FEFC9010895E091A00380919F03E8176B
:102A100030F4F0E0EF55FC4F808190E008958FEFA7
:102A20009FEF08950895CF93DF93EC01E091770332
:102A3000F09178033097F1F09091A00380919F037B
:102A40009817C0F090E0292F30E02617370754F48C
:102A5000DE01A20FB31F4C91D901AF55BC4F4C936F
:102A60009F5FF1CF1092A00360939F03CB01DF9192
:102A7000CF910994DF91CF910895E0917903F0917E
:102A80007A03309729F010927D0310927C03099409
:102A90000895CF92DF92EF92FF920F931F93CF93FF
:102AA000DF937C01CB018A0120917B03222389F0F3
:102AB000EB016B01C40ED51ECC15DD0569F06991E3
:102AC000D701ED91FC910190F081E02DC7010995AE
:102AD000F3CF642F0E947813C801DF91CF911F912B
:102AE0000F91FF90EF90DF90CF900895CF93DF93F9
:102AF0001F92CDB7DEB7698320917B032223D1F0EB
:102B000020917C03203240F021E030E0FC0133834F
:102B1000228380E090E015C080917D03E82FF0E0F3
:102B2000E258FC4F998190838F5F80937D0380935F
:102B30007C0305C061E0CE0101960E94781381E01C
:102B400090E00F90DF91CF910895FC0113821282E3
:102B500088EE93E0A0E0B0E084839583A683B783FA
:102B600086E891E09183808308951092A0031092EB
:102B70009F0310927D0310927C030E94BC128DE390
:102B800095E10E94A51383E195E10C94A01381E0E7
:102B900080937B0360939E0310927D0310927C03CD
:102BA00008950C94C7150F93062F21E040917C03E4
:102BB0006EE773E080919E030E94221310927D03C2
:102BC00010927C0310927B030F9108954F925F92B5
:102BD0006F927F92AF92BF92CF92EF92FF920F933C
:102BE0001F93CF93DF935C01F62ED42F2801390178
:102BF000EE2021F10E94C715CE2DC43008F0C3E0AD
:102C0000C150C0F028E0C29FC0011124A30192016D
:102C100004C056954795379527958A95D2F7CA01EE
:102C2000B901D501ED91FC910190F081E02DC50134
:102C30000995E6CF60E0C5010E94D3154D2FD13232
:102C400008F040E22C2D61EA73E08F2D0E94DA1229
:102C50001092A00380939F03DF91CF911F910F915A
:102C6000FF90EF90CF90BF90AF907F906F905F906C
:102C70004F900895CF92EF920F931F93C22EE12CA5
:102C800000E010E098010E94E6151F910F91EF906F
:102C9000CF90089521E00C943A1661E00C94D3157E
:102CA0008BE693E00C94A5158091C1039091C2032B
:102CB0000E944C206CE176E083EC93E00C94FD18CC
:102CC000CF93DF93EB0167E176E083EC93E00E9422
:102CD000FD1884E190E00E94B41FFC019093C203B0
:102CE0008093C10381E090E0928381838AE090E049
:102CF0009683858384E690E09483838383E390E0E6
:102D00009087878383E0818782E090E09487838740
:102D100084E190E0908B878788EC90E096878587A8
:102D200084E390E0928B818B138A60EF75E083ECF3
:102D300093E00E94FD188091C1039091C2030E940C
:102D4000AB0D8091C1039091C2030A960E94AB0D16
:102D50008091C1039091C2039983888382E08A8322
:102D6000DF91CF910895FC01918D228D892F90E004
:102D7000805C9F4F821B91098F7399270895FC01F6
:102D8000918D828D981731F0828DE80FF11D858D20
:102D900090E008958FEF9FEF0895FC01918D828D53
:102DA000981761F0828DDF01A80FB11D5D968C919F
:102DB000928D9F5F9F73928F90E008958FEF9FEFAA
:102DC000089586E398E1892B49F080E090E0892B13
:102DD00029F00E94361881110C9400000895FC011E
:102DE000848DDF01A80FB11DA35ABF4F2C91848D94
:102DF00090E001968F739927848FA689B7892C93C9
:102E0000A089B1898C9180648C93938D848D981363
:102E100006C00288F389E02D80818F7D808308952C
:102E2000EF92FF920F931F93CF93DF93EC0181E01A
:102E3000888F9B8D8C8D981305C0E889F9898081D6
:102E400085FD24C0F62E0B8D10E00F5F1F4F0F7312
:102E50001127E02E8C8DE8120CC00FB607FCFACFBC
:102E6000E889F989808185FFF5CFCE010E94EF16B0
:102E7000F1CF8B8DFE01E80FF11DE35AFF4FF08279
:102E80000B8FEA89FB898081806207C0EE89FF8908
:102E90006083E889F98980818064808381E090E0A3
:102EA000DF91CF911F910F91FF90EF900895CF93F5
:102EB000DF93EC01888D8823C9F0EA89FB89808142
:102EC00085FD05C0A889B9898C9186FD0FC00FB614
:102ED00007FCF5CF808185FFF2CFA889B9898C9155
:102EE00085FFEDCFCE010E94EF16E7CFDF91CF91A6
:102EF0000895CF92DF92EF92FF921F93CF93DF93CB
:102F0000EC016A017B01122FE889F98982E0808354
:102F10004115514E61057105B1F060E079E08DE336
:102F200090E0A70196010E946D1FDA01C901019787
:102F3000A109B109B695A795979587959C0121158B
:102F400080E13807A8F0E889F989108260E874E820
:102F50008EE190E0A70196010E946D1FDA01C90180
:102F60000197A109B109B695A795979587959C01F9
:102F7000EC85FD853083EE85FF852083188EEC89F6
:102F8000FD891083EA89FB89808180618083EA89D9
:102F9000FB89808188608083EA89FB8980818068E1
:102FA0008083EA89FB8980818F7D8083DF91CF9147
:102FB0001F91FF90EF90DF90CF9008951F920F9296
:102FC0000FB60F9211242F938F939F93EF93FF933C
:102FD000E091D303F091D4038081E091D903F09183
:102FE000DA0382FD12C090818091DC038F5F8F73C2
:102FF0002091DD03821751F0E091DC03F0E0ED5306
:10300000FC4F958F8093DC0301C08081FF91EF918D
:103010009F918F912F910F900FBE0F901F90189539
:103020001F920F920FB60F9211242F933F934F933D
:103030005F936F937F938F939F93AF93BF93EF9320
:10304000FF9383EC93E00E94EF16FF91EF91BF9105
:10305000AF919F918F917F916F915F914F913F9130
:103060002F910F900FBE0F901F90189583EC93E057
:103070000E94B31621E0892B09F420E0822F0895E5
:10308000E3ECF3E01382128288EE93E0A0E0B0E07C
:1030900084839583A683B78386E991E091838083B7
:1030A00085EC90E09587848784EC90E0978786870D
:1030B00080EC90E0918B808B81EC90E0938B828B05
:1030C00082EC90E0958B848B86EC90E0978B868BDE
:1030D000118E128E138E148E089508950E94EA1A8E
:1030E0000E946D180E94F20EC1EED6E10E944A11B4
:1030F0002097E1F30E94E116F9CF0C94B41FCF9210
:10310000DF92EF92FF920F931F93CF93DF936C01A7
:103110007A018B01C0E0D0E0CE15DF0581F0D80147
:103120006D918D01D601ED91FC910190F081E02D22
:10313000C6010995892B11F02196EECF7E01C701BA
:10314000DF91CF911F910F91FF90EF90DF90CF9083
:1031500008956115710579F0FB0101900020E9F7F0
:103160003197AF01461B570BDC01ED91FC910280BA
:10317000F381E02D099480E090E00895EF92FF92B2
:103180000F931F93CF93DF938C017B01C0E0D0E0BE
:10319000F701EC0FFD1F6491662361F0D801ED91FA
:1031A000FC910190F081E02DC8010995892B11F067
:1031B0002196EECFCE01DF91CF911F910F91FF901D
:1031C000EF900895DB0114964D915C9115976D91E8
:1031D0007C91DC01ED91FC910280F381E02D09945A
:1031E0000C94A918DC01ED91FC910190F081E02D87
:1031F000099462EA71E00C94A9180F931F93CF937E
:10320000DF93EC010E94BE188C01CE010E94F918D8
:10321000800F911FDF91CF911F910F9108950F9310
:103220001F93CF93DF93EC010E94A9188C01CE016C
:103230000E94F918800F911FDF91CF911F910F917C
:1032400008950F931F93CF93DF93EC010E94F21820
:103250008C01CE010E94F918800F911FDF91CF9150
:103260001F910F9108958F929F92AF92BF92EF920C
:10327000FF920F931F93CF93DF93CDB7DEB7A19744
:103280000FB6F894DEBF0FBECDBF7C01FA01CB01B3
:1032900019A2223008F42AE08E010F5D1F4F822E02
:1032A000912CA12CB12CBF01A50194010E946D1F8E
:1032B000F901CA01015011096A3010F4605D01C0C2
:1032C000695CD8016C93232B242B252B61F7B80163
:1032D000C7010E94A918A1960FB6F894DEBF0FBED1
:1032E000CDBFDF91CF911F910F91FF90EF90BF90D5
:1032F000AF909F908F9008952115310541F4DC0126
:10330000ED91FC910190F081E02D642F09940C94D3
:1033100033199A01462F50E060E070E00C947C195C
:103320000F931F93CF93DF93EC010E9489198C01B7
:10333000CE010E94F918800F911FDF91CF911F914C
:103340000F9108959A01AB0160E070E00C947C1934
:103350000F931F93CF93DF93EC010E94A2198C016E
:10336000CE010E94F918800F911FDF91CF911F911C
:103370000F9108950F931F93CF93DF93EC010E9459
:103380007C198C01CE010E94F918800F911FDF91EA
:10339000CF911F910F910895CF92DF92EF92FF92FC
:1033A0000F931F93CF93DF932115310581F4DC0137
:1033B000ED91FC910190F081E02D642FDF91CF9190
:1033C0001F910F91FF90EF90DF90CF9009942A30DA
:1033D000310501F577FF1DC06A017B01EC016DE24B
:1033E0000E94F2188C0144275527BA014C195D0937
:1033F0006E097F092AE0CE010E943319800F911FC8
:10340000DF91CF911F910F91FF90EF90DF90CF90C0
:1034100008952AE0DF91CF911F910F91FF90EF90D7
:10342000DF90CF900C9433199A01AB01770F660BA4
:10343000770B0C94CC190F931F93CF93DF93EC0170
:103440000E94141A8C01CE010E94F918800F911F5E
:10345000DF91CF911F910F9108950F931F93CF93F9
:10346000DF93EC010E94CC198C01CE010E94F91867
:10347000800F911FDF91CF911F910F9108951F929F
:103480000F920FB60F9211242F933F938F939F9318
:10349000AF93BF938091610490916204A091630403
:1034A000B09164043091600423E0230F2D3720F4A1
:1034B0000196A11DB11D05C026E8230F0296A11D8E
:1034C000B11D209360048093610490936204A093E3
:1034D0006304B09364048091650490916604A091A4
:1034E0006704B09168040196A11DB11D8093650425
:1034F00090936604A0936704B0936804BF91AF9162
:103500009F918F913F912F910F900FBE0F901F9021
:1035100018953FB7F8948091650490916604A09146
:103520006704B091680426B5A89B05C02F3F19F029
:103530000196A11DB11D3FBFBA2FA92F982F882733
:10354000820F911DA11DB11DBC01CD0142E0660F8E
:10355000771F881F991F4A95D1F708958F929F92E0
:10356000AF92BF92CF92DF92EF92FF926B017C01FC
:103570000E94891A4B015C01C114D104E104F104D9
:1035800001F10E94381F0E94891ADC01CB018819C1
:103590009909AA09BB09883E9340A105B10560F3CA
:1035A00021E0C21AD108E108F10888EE880E83E014
:1035B000981EA11CB11CC114D104E104F10419F737
:1035C000DBCFFF90EF90DF90CF90BF90AF909F90B8
:1035D0008F900895789484B5826084BD84B58160AD
:1035E00084BD85B5826085BD85B5816085BDEEE60B
:1035F000F0E0808181608083E1E8F0E010828081EA
:1036000082608083808181608083E0E8F0E0808157
:1036100081608083E1EBF0E0808184608083E0EB77
:10362000F0E0808181608083EAE7F0E0808184605F
:1036300080838081826080838081816080838081BB
:10364000806880831092C10008958E3008F08E50FB
:103650002091060190E4299F900111248770822B0C
:1036600080937C0080917A00806480937A008091BE
:103670007A0086FDFCCF809178002091790090E05F
:10368000922B0895833081F028F4813099F08230B4
:10369000A1F008958730A9F08830B9F08430D1F4D2
:1036A000809180008F7D03C0809180008F77809310
:1036B0008000089584B58F7702C084B58F7D84BD66
:1036C00008958091B0008F7703C08091B0008F7D06
:1036D0008093B0000895CF93DF9390E0FC01E5590B
:1036E000F94F2491FC01E158F94F8491882361F14D
:1036F00090E0880F991FFC01E955F94FC591D491CD
:10370000FC01E356F94FA591B491611109C09FB72F
:10371000F8948881209582238883EC912E230BC016
:10372000623061F49FB7F8948881322F30958323FB
:103730008883EC912E2B2C939FBF06C08FB7F894F3
:10374000E8812E2B28838FBFDF91CF9108951F939F
:10375000CF93DF93282F30E0F901E95AF94F849194
:10376000F901E559F94FD491F901E158F94FC491A4
:10377000CC23C1F0162F81110E94421BEC2FF0E0E8
:10378000EE0FFF1FE356F94FA591B4919FB7F89440
:10379000111104C08C91D095D82302C0EC91DE2B7E
:1037A000DC939FBFDF91CF911F910895FC01808131
:1037B00091810C944C20CF93DF93EC018881998107
:1037C000009711F00E944C20198218821D821C82E1
:1037D0001B821A82DF91CF9108950F931F93CF938D
:1037E000DF93EC018B016F5F7F4F888199810E948D
:1037F000D520009731F0998388831B830A8381E069
:1038000001C080E0DF91CF911F910F910895CF9378
:10381000DF93EC0188819981892B29F08A819B8132
:103820008617970760F4CE010E94ED1B882341F0B4
:103830008C819D81892B19F4E881F981108281E0C6
:10384000DF91CF910895EF92FF920F931F93CF9343
:10385000DF93EC017B018A01BA010E94071C8111F0
:1038600004C0CE010E94DB1B07C01D830C83B7017F
:10387000888199810E94F921CE01DF91CF911F911A
:103880000F91FF90EF900895FC0111821082138236
:103890001282158214826115710551F0FB010190AD
:1038A0000020E9F73197AF01461B570B0C94231CFE
:1038B0000895CF93DF93EC01FB018617970761F022
:1038C000608171816115710529F0448155810E94E3
:1038D000231C02C00E94DB1BCE01DF91CF91089513
:1038E000FC011182108213821282158214820C94C0
:1038F000591CEF92FF920F931F93CF93DF936115A3
:10390000710511F480E01CC041155105C1F07B0127
:10391000EC018C819D818A01080F191FB801CE012D
:103920000E94071C882371F3288139818C819D8135
:10393000B701820F931F0E94F9211D830C8381E040
:10394000DF91CF911F910F91FF90EF900895EF922B
:10395000FF920F931F93CF93DF9300D000D0CDB78A
:10396000DEB77C01862F4AE08E010F5F1F4FB80142
:1039700090E00E940022F80101900020E9F73197C1
:10398000AF01401B510BB801C7010E94791C0F9079
:103990000F900F900F90DF91CF911F910F91FF909B
:1039A000EF9008952091AB043091AC0428173907AB
:1039B000B9F49091690480916A04981789F0E091B4
:1039C0006904F0E0E559FB4F80812091690430E003
:1039D0002F5F3F4F2F7333272093690490E00895A2
:1039E0008FEF9FEF08951F93CF93DF93DC015C96D9
:1039F0008D919C915D97009739F421E030E013960A
:103A00003C932E9312973BC05196ED91FC915297A7
:103A100050962C915097322F30951FB75E964C914F
:103A20005E97742F727041FD6095F8944081772302
:103A300011F0422B01C043234083EC012197F1F7A1
:103A400048E0508160FF02C0522B01C053235083D5
:103A5000EC012197F1F76695415099F78081772322
:103A600019F08323808302C0282B20831FBF5C961C
:103A70008D919C915D970197F1F781E090E0DF9146
:103A8000CF911F91089508952091AB043091AC041B
:103A90002817390771F49091690480916A04981786
:103AA00041F0E0916904F0E0E559FB4F808190E03E
:103AB00008958FEF9FEF08952091AB043091AC04EF
:103AC0002817390771F480916A042091690490E005
:103AD000805C9F4F821B910960E470E00E94591F37
:103AE000089580E090E00895E091AB04F091AC047B
:103AF000E817F90769F4A389B4899C9185898095B1
:103B000089238C931092AC041092AB0481E0089549
:103B100080E00895CF93DF93EC018A8D9B8D892BF4
:103B2000F1F08091AB049091AC04C817D907B9F0BB
:103B3000009711F00E94741D8E8D8E7F8E8F1092D3
:103B40006A0410926904D093AC04C093AB04EB896F
:103B5000FC8990818D89892B808381E001C080E080
:103B6000DF91CF9108951F920F920FB60F921124FB
:103B70002F933F934F935F936F937F938F939F9375
:103B8000AF93BF93EF93FF93E091AB04F091AC043C
:103B9000309709F451C0968DA685B785858591FF2C
:103BA00004C09C91892329F447C09C91892309F082
:103BB00043C0A389B4899C918589809589238C937E
:103BC000868997890197F1F7608D718DA685B785F4
:103BD000558538E020E0CB010197F1F7822F90E086
:103BE00095958795282F4C91452309F020683150F1
:103BF00091F7868D81FD209580916A0490E0019671
:103C00008F73992730916904381749F0A0916A049D
:103C1000B0E0A559BB4F2C9380936A0403C0868DF6
:103C20008160868F828D938D0197F1F7A389B48986
:103C30009C918589892B8C93FF91EF91BF91AF91D6
:103C40009F918F917F916F915F914F913F912F91B4
:103C50000F900FBE0F901F9018951F93CF93DF9377
:103C6000EC01162F6E8D6695617081E06827812FBB
:103C70000E94A71B61E0812F0E946B1B812F90E0A7
:103C8000FC01E559F94FE491E88BFC01E158F94F4B
:103C9000E491F0E0EE0FFF1FE356F94F8591949108
:103CA0009A8B898BDF91CF911F9108951F93CF93AA
:103CB000DF93EC01162F60E0812F0E946B1B8E8D2D
:103CC00081FD04C061E0812F0E94A71B1C87812F0A
:103CD00090E0FC01E559F94FE491ED87FC01E158D2
:103CE000F94FE491F0E0EE0FFF1FED56F94F85918B
:103CF00094919F878E87DF91CF911F9108951F9395
:103D0000CF93DF93EC01162F1B821A8288EE93E08B
:103D1000A0E0B0E08C839D83AE83BF8385EB91E010
:103D2000998388831F8A1E8A198E188E1B8E1A8E7D
:103D30001D8E1C8E8E8D8E7F20FB81F98E8F642FC1
:103D4000CE010E942D1E612FCE01DF91CF911F91D8
:103D50000C94561ECF93DF93EC019A01AB011B8E9E
:103D60001A8E198E188E1F8A1E8A60E079E08DE304
:103D700090E00E948F1FF9012430310518F0C9012D
:103D8000039702C081E090E09D8F8C8F6C85663137
:103D900008F069C0C901969587958431910510F0A6
:103DA000439702C081E090E09F8B8E8B369718F08E
:103DB000C901059702C081E090E0998F888FC90101
:103DC000880F991F280F391F369527953695279507
:103DD0002D30310518F02C50310902C021E030E0BF
:103DE0003B8F2A8F90916800683050F021E06E3050
:103DF00008F420E081E001C0880F2A95EAF701C0AD
:103E000084E0892B809368009C85983038F09E3040
:103E100040F0963148F020E030E008C02DE630E078
:103E200005C02BE630E002C02CE630E03C8B2B8B4B
:103E3000983030F481E001C0880F9A95EAF70EC0FF
:103E4000292F30E09E3018F42850310902C02E503E
:103E5000310981E001C0880F2A95EAF78D8B8C8D9E
:103E60009D8D0197F1F7CE01DF91CF910C948A1DC2
:103E70000895991B79E004C0991F961708F0961BC6
:103E8000881F7A95C9F780950895AA1BBB1B51E13D
:103E900007C0AA1FBB1FA617B70710F0A61BB70BBA
:103EA000881F991F5A95A9F780959095BC01CD015F
:103EB000089597FB072E16F4009407D077FD09D0DC
:103EC0000E94451F07FC05D03EF4909581959F4FB9
:103ED0000895709561957F4F0895A1E21A2EAA1B4F
:103EE000BB1BFD010DC0AA1FBB1FEE1FFF1FA217AA
:103EF000B307E407F50720F0A21BB30BE40BF50BA7
:103F0000661F771F881F991F1A9469F7609570952F
:103F1000809590959B01AC01BD01CF010895052EC0
:103F200097FB1EF400940E94A61F57FD07D00E9425
:103F30006D1F07FC03D04EF40C94A61F50954095BE
:103F4000309521953F4F4F4F5F4F08959095809545
:103F5000709561957F4F8F4F9F4F0895EE0FFF1F14
:103F60000590F491E02D09940F931F93CF93DF9365
:103F70008230910510F482E090E0E091AF04F0917E
:103F8000B00420E030E0A0E0B0E0309719F14081CB
:103F900051810281138148175907C8F0841795078A
:103FA00069F4109731F012960C93129713961C93A4
:103FB00027C00093AF041093B00422C0211531052F
:103FC00019F04217530718F49A01BD01EF01DF0100
:103FD000F801DBCF21153105F9F0281B390B24300E
:103FE000310580F48A819B816115710521F0FB0107
:103FF0009383828304C09093B0048093AF04FE0146
:10400000329644C0FE01E20FF31F81939193225038
:104010003109398328833AC02091AD043091AE0430
:10402000232B41F420910201309103013093AE041F
:104030002093AD042091000130910101211531053B
:1040400041F42DB73EB74091040150910501241B66
:10405000350BE091AD04F091AE04E217F307A0F444
:104060002E1B3F0B2817390778F0AC014E5F5F4FCE
:104070002417350748F04E0F5F1F5093AE0440934E
:10408000AD048193919302C0E0E0F0E0CF01DF91B5
:10409000CF911F910F910895CF93DF93009709F46B
:1040A00081C0FC01329713821282A091AF04B091BB
:1040B000B004109781F420813181820F931F2091E9
:1040C000AD043091AE042817390751F5F093AE04D2
:1040D000E093AD0467C0ED0120E030E0CE17DF07CC
:1040E00040F44A815B819E0141155105F1F0EA01DE
:1040F000F5CFD383C28340815181840F951FC817A8
:10410000D90759F488819981840F951F029691836C
:1041100080838A819B81938382832115310529F4D1
:10412000F093B004E093AF043DC0E901FB83EA8360
:1041300049915991C40FD51FEC17FD0761F4808197
:104140009181840F951F0296E9019983888382816A
:1041500093819B838A83E0E0F0E012968D919C919D
:104160001397009719F0FD01DC01F7CF8D919C9119
:1041700011979D012E5F3F4F820F931F2091AD0439
:104180003091AE042817390769F4309729F410925A
:10419000B0041092AF0402C013821282B093AE0436
:1041A000A093AD04DF91CF910895A0E0B0E0EBEDD6
:1041B000F0E20C944122EC01009721F4CB010E9423
:1041C000B41FB4C0FC01E60FF71F9C012250310957
:1041D000E217F30708F4A8C0D9010D911C911197BB
:1041E00006171707B0F00530110508F49BC0C80189
:1041F00004978617970708F495C002501109061B0B
:10420000170B019311936D937C93CF010E944C2067
:1042100089C05B01A01AB10A4C01800E911EA091C9
:10422000AF04B091B004612C712CE12CF12C1097EB
:1042300009F446C08D919C911197A815B905B1F567
:104240006C0142E0C40ED11CCA14DB0478F14C01AD
:104250008A189B08640142E0C40ED11C1296BC90DF
:1042600012971396AC91B5E0CB16D10440F0B28210
:10427000A38391828082D9016D937C9309C00E5FE4
:104280001F4F800F911FF90191838083EB2DFA2F2F
:10429000E114F10431F0D7011396FC93EE931297D9
:1042A00041C0F093B004E093AF043CC068167906B7
:1042B00008F43C017D0112960D90BC91A02DB7CF62
:1042C0008091AD049091AE0488169906E1F46616CB
:1042D0007706C8F48091000190910101009741F4A4
:1042E0008DB79EB74091040150910501841B950B39
:1042F000E817F907C8F4F093AE04E093AD04F901B0
:10430000718360830FC0CB010E94B41F7C010097B2
:1043100059F0A801BE010E94E521CE010E944C2067
:10432000C70104C0CE0102C080E090E0CDB7DEB787
:10433000EEE00C945D22FC0188279927E8942191F6
:104340002032E9F3293010F02E30C8F32B3241F03F
:104350002D3239F4689404C00E940B22820F911D03
:10436000219120532A30C0F31EF4909581959F4FE0
:104370000895FB01DC018D91059080190110D9F39E
:10438000990B0895FC0105900020E9F78095909520
:104390008E0F9F1F0895FB0155915523A9F0BF0172
:1043A000DC014D9145174111E1F759F4CD0105901C
:1043B000002049F04D9140154111C9F3FB01411115
:1043C000EFCF81E090E001970895FB01DC0102C08E
:1043D00001900D9241505040D8F70895FC01819111
:1043E000861721F08823D9F7992708953197CF01AF
:1043F0000895FB01DC0101900D920020E1F7089582
:10440000BB274A3031F4992322F4BDE2909581957F
:104410009F4F0C9414227AE0979F902D879F802DB8
:10442000910D11240895BB27FB015527AA27880F5A
:10443000991FAA1FA41710F0A41B83955051B9F718
:10444000A05DAA3308F0A95DA193009779F7B11197
:10445000B1931192CB010C942D22DC01FC01672F4A
:1044600071917723E1F7329704C07C916D9370834B
:104470006291AE17BF07C8F308952F923F924F92F3
:104480005F926F927F928F929F92AF92BF92CF92E4
:10449000DF92EF92FF920F931F93CF93DF93CDB7ED
:1044A000DEB7CA1BDB0B0FB6F894DEBF0FBECDBF65
:1044B00009942A88398848885F846E847D848C8436
:1044C0009B84AA84B984C884DF80EE80FD800C813F
:1044D0001B81AA81B981CE0FD11D0FB6F894DEBF22
:1044E0000FBECDBFED01089513E0CCE5D3E004C0CD
:1044F000FE010E94AE1F2196CD35D107C9F7F89471
:02450000FFCFEB
:104502000000B1042000012C00415449005E5A0011
:104512002B434D4753004F4B0041542B434D4744CF
:104522003D30303000222C22004661696C656421E6
:1045320000687474703A2F2F69616161652E6B682F
:10454200756464616D2E6F72672E756B2F61646482
:10455200000000000093037F1887039F03AB03B79B
:104562000349414141455F524D6F6E56335F003AF8
:1045720000537769746368696E67206F66662E2ED2
:104582002E000000000076154915E714EF140315FC
:1045920012150000000010177F18B316CD16BF16B3
:1045A20057170D0A006E616E00696E66006F7666BF
:1045B2000000000000F31C7F185C1DD21C441D4348
:0245C2001D00DA
:00000001FF
