S010000049414141455F524D2E73726563C5
S11300000C94C5030C94ED030C94ED030C94721F33
S11300100C94721F0C94721F0C94ED030C94ED035A
S11300200C94ED030C94ED030C94ED030C94ED038C
S11300300C94ED030C94ED030C94ED030C94ED037C
S11300400C94FE1B0C94ED030C949D190C94CF1985
S11300500C94ED030C94ED030C94ED030C94ED035C
S11300600C9479150C94ED03093C2D2D2D200009D9
S11300702D2D2D3E2000093C2D2D2D2000092D2D48
S11300802D3E2000093C2D2D2D2000092D2D2D3E27
S11300902000535041434500093C2D2D2D2000558F
S11300A0410055524C0043494400434F4E54454E81
S11300B054002B48545450524541443A0041542B67
S11300C048545450524541443D002B4854545041E7
S11300D04354494F4E3A002B4854545041435449D9
S11300E04F4E3A0041542B48545450414354494FC5
S11300F04E3D00444F574E4C4F41440041542B4811
S1130100545450444154413D0041542B485454509C
S1130110444154413D00092D2D2D3E2000222C0048
S1130120222C220041542B48545450504152413DFA
S1130130220041542B48545450504152413D220016
S1130140092D2D2D3E200041542B48545450544524
S1130150524D0041542B48545450494E4954005771
S1130160524954494E4720002C2066696E616C2028
S11301706C656E677468207765276C6C20726561A6
S1130180643A2020002C20776974206D6178206CFB
S1130190656E677468206F662000526563656976D2
S11301A0656420726573706F6E7365206F66206C72
S11301B0656E67746820004661696C656420746FBD
S11301C02073656E6420646174612C20737461749F
S11301D0757320636F64653A2000746578742F70BA
S11301E06C61696E00687474703A2F2F726D6F6E53
S11301F02E6B68756464616D2E6F72672E756B2F3C
S11302003F613D766965770041542B43474154541F
S11302103D300041542B53415042523D302C31006B
S113022041542B4349505348555400534855542086
S11302304F4B0041542B43494943520041542B53E3
S1130240415042523D312C310041542B53415042D4
S1130250523D332C312C22505744222C0041542B34
S113026053415042523D332C312C22555345522296
S11302702C0041542B435354543D2200092D2D2D61
S11302803E200041542B435354543D220041542BEF
S113029053415042523D332C312C2241504E222C9A
S11302A00041542B53415042523D332C312C2243B4
S11302B04F4E54595045222C22475052532200414C
S11302C0542B43474154543D310041542B4349502E
S11302D0534855540053485554204F4B0041542B18
S11302E0435245473F002B435245473A200041546F
S11302F02B435245473F002B435245473A20004188
S1130300542B435351002B4353513A200041542B57
S1130310435351002B4353513A200041542B434241
S113032043002B4342433A200053494D3830382090
S113033052313400093C2D2D2D2000092D2D2D3E48
S1130340200041544530004154453000415420467A
S113035061696C2E2E2E206C617374206469746341
S11303606820617474656D70742E004154004154AA
S113037000415400415400415400415400417474FC
S1130380656D7074696E6720746F206F70656E2080
S1130390636F6D6D207769746820415473004F4B0F
S11303A000464F4E416E6574004572726F723D0097
S11303B0207C200054656D703D00207C2000437536
S11303C07272656E743D00207C200050562D563D9F
S11303D000207C2000426174742D563D005253531A
S11303E049204572726F723F3D00207C20002C2012
S11303F04572726F723D002C205374617475733DA5
S1130400004E6574776F726B2D5265672052657369
S1130410436F64653D00207C20004245523D00202E
S11304207C2000525353493D0041424344454647D2
S113043048494A4B4C4D4E4F5051525354555657C0
S113044058595A6162636465666768696A6B6C6D62
S11304506E6F707172737475767778797A30313221
S1130460333435363738392B2F0042656861766965
S11304706F757200526573706F6E73652066726F6C
S11304806D2073656E643A00456E636F6465642025
S113049064617461206372656174656420616E6473
S11304A020726561647920666F722073656E643AA8
S11304B0000928466F6E6120496E697420455252C6
S11304C04F5229000928466F6E6120496E697420D5
S11304D050656E64696E672E2E2E2900496E69740C
S11304E069616C6973696E6720466F6E6120746F11
S11304F02073656E642064617461002A2A2A2A20AC
S1130500546F6F206C6974746C652052414D206285
S113051065666F7265207061796C6F6164206372C7
S1130520656174696F6E202A2A2A0054616B696EB2
S1130530672072656164696E67732E2E2E00092030
S113054028476F6F642D52535349202D20737563D0
S11305506365737366756C6C2C20616C6C20646FBE
S11305606E65290009202857616974696E67204601
S11305706F7220476F6F642D525353492054696D35
S11305806564204F7574202D2077696C6C20636F2F
S11305906E74696E7565206E6F7729000920284294
S11305A061642D52535349202D2077696C6C20636C
S11305B06865636B20616761696E2061667465724A
S11305C020696E74657276616C2900436865636B9B
S11305D0696E672052535349202D206375727265EA
S11305E06E746C793A004750525320696E6974698D
S11305F0616C697365642073756363657373667591
S11306006C6C79202100416C6C20617474656D7090
S1130610747320746F20656E61626C65204750525C
S113062053206661696C65640057696C6C20747250
S11306307920746F20656E61626C65204750525357
S113064020616761696E2073686F72746C7900450C
S113065072726F7220696E697469616C6973696E14
S113066067204750525300417474656D7074696E0D
S11306706720746F20656E61626C65204750525329
S11306802E2E2E004572726F7220696E6974696134
S11306906C6973696E6720666F6E612E2E2E004939
S11306A06E697469616C6973696E6720666F6E61E7
S11306B02E2E2E005374617274696E672E2E2E00D6
S11306C0322053656E736F722D44617461732067B9
S11306D06F696E6720666F72207472616E736D69E4
S11306E07373696F6E3A002A2A2A2A007E7E7E7E00
S11306F07E7E7E7E7E7E7E7E7E7E7E2045787465D6
S11307006E6465642047534D205465737420436FB1
S11307106D706C6574657E7E7E7E7E7E7E7E7E7E62
S11307207E7E7E7E7E7E00000000080002010000C6
S11307300304070000000000000000010204081088
S11307402040800102040810200102040810200443
S11307500404040404040402020202020203030364
S1130760030303000000002300260029000000000A
S113077000250028002B0000000000240027002A88
S1130780000065130F18FF19801311241FBECFEF4B
S1130790D8E0DEBFCDBF11E0A0E0B1E0E0E8F8E4CE
S11307A002C005900D92AA39B107D9F724E0AAE94D
S11307B0B1E001C01D92AC38B207E1F713E0C4EC1C
S11307C0D3E004C02197FE010E946D21C13CD107F2
S11307D0C9F70E942D1A0C9433240C940000835EF4
S11307E09E4FDC018D919C91DC01ED91FC91048084
S11307F0F581E02D0994835E9E4FDC018D919C91DF
S1130800DC01ED91FC910190F081E02D0994835E6F
S11308109E4FDC018D919C91DC01ED91FC91068051
S1130820F781E02D0994835E9E4FDC018D919C91AC
S1130830DC01ED91FC910084F185E02D0994835E47
S11308409E4FDC018D919C91DC01ED91FC91028421
S1130850F385E02D09940F931F93CF93DF93EC015D
S1130860062F142F1B821A8288EE93E0A0E0B0E0DA
S11308708C839D83AE83BF838FE291E099838883C9
S113088083E08E876CE771E0CE018B5E9E4F0E9401
S1130890031E0C871D87FE01E25FFE4F81EA93E091
S11308A09183808332961182108232961182108253
S11308B03B961182108239971082C55EDE4F8EE915
S11308C093E099838883DF91CF911F910F910895CD
S11308D08B5E9E4F0C94181E0F931F93CF93DF9340
S11308E0EC0180E090E08C010F5F1F4F8897D8F4F3
S11308F0E881F9810480F581E02DCE010995892BE9
S113090051F0E881F9810680F781E02DCE01099547
S113091000E010E0EDCF61E070E080E090E00E9444
S11309206D1CC801E0CFDF91CF911F910F91089505
S1130930FF920F931F93CF93DF93EC018B01F42E5F
S11309400E946C0460E471E08EE993E00E947D1AD9
S113095062E371E08EE993E00E947D1AB8018EE9AA
S113096093E00E947D1A62E28EE993E00E94E01A0D
S1130970C35EDE4F64E271E0888199810E947D1A32
S1130980B801888199810E947D1A88819981FF200C
S113099019F060E271E002C06DE171E0DF91CF9186
S11309A01F910F91FF900C947D1ABF92CF92DF920A
S11309B0EF92FF920F931F93CF93DF937C01B42E9A
S11309C08B01000F111F000F111FC0E0D0E0670161
S11309D083EEC81A8EEFD80A01151105C9F1CE3F6E
S11309E0D10598F062E970E08EE993E00E94BC1AA8
S11309F02FC0F60180819181DC01ED91FC9106808C
S1130A00F781E02D09958D3069F4D6018D919C9183
S1130A10DC01ED91FC910480F581E02D0995892B91
S1130A2041F70CC08A3021F4209779F3BB2081F080
S1130A30F701EC0FFD1F87872196E7CF01501109BD
S1130A4039F061E070E080E090E00E946D1CC4CF5A
S1130A50F701EC0FFD1F17868C2FDF91CF911F91AB
S1130A600F91FF90EF90DF90CF90BF9008950F9378
S1130A701F93CF93DF93EC018B01BA0140E00E94F6
S1130A80D50468E970E08EE993E00E947D1A2F9600
S1130A90BE018EE993E00E94CE1AB801CE010E94F5
S1130AA0782321E0892B09F020E0822FDF91CF9178
S1130AB01F910F910895CF93DF93EC01FC01E35E46
S1130AC0FE4F662331F062E2808191810E94E01A38
S1130AD004C0808191810E94B81AFE01E55EFE4F38
S1130AE06081718140E157E2CE01DF91CF910C9496
S1130AF037050F931F93CF93DF93EC018A0141E0F5
S1130B000E949804FE01E35EFE4FB801808191814A
S1130B100E94A11A61E0CE01DF91CF911F910F9144
S1130B200C945B050F931F93CF93DF93EC018A0121
S1130B3041E00E949804FE01E35EFE4FB80180810B
S1130B4091810E947D1A61E0CE01DF91CF911F91C6
S1130B500F910C945B05CF92DF92EF92FF92CF93AB
S1130B60DF93EC0169017A0140E00E949804FE01E0
S1130B70E35EFE4F2AE030E0B701A6018081918157
S1130B800E948B1B60E0CE01DF91CF91FF90EF902C
S1130B90DF90CF900C945B054F925F926F927F929F
S1130BA08F929F92AF92BF92EF92FF920F931F93F7
S1130BB0CF93DF937C012A013B01480159010E9434
S1130BC06C0466E171E08EE993E00E947D1A69E0AD
S1130BD071E08EE993E00E947D1A2AE030E0B301CF
S1130BE0A2018EE993E00E943B1B6CE28EE993E044
S1130BF00E94B11A2AE030E0B501A4018EE993E025
S1130C000E94791BE701C35EDE4F6CEF70E08881C0
S1130C1099810E947D1A2AE030E0B301A201888103
S1130C2099810E943B1B67E071E0888199810E9451
S1130C30AF1A2AE030E0B501A401888199810E94AD
S1130C40791B40E157E263EF70E0C701DF91CF9178
S1130C501F910F91FF90EF90BF90AF909F908F9056
S1130C607F906F905F904F900C943705EF92FF92B6
S1130C700F931F93CF93DF93EC018B017A010E94B2
S1130C806C046BE870E08EE993E00E947D1AB80171
S1130C908EE993E00E94BC1AFE01E35EFE4FB801A8
S1130CA0808191810E94BC1A40E0B701CE010E946C
S1130CB0D504182F64E870E08EE993E00E947D1A51
S1130CC0BE01615F7F4F8EE993E00E94CE1A812FAF
S1130CD0DF91CF911F910F91FF90EF9008958F9224
S1130CE09F92AF92BF92CF92DF92EF92FF920F93B7
S1130CF01F93CF93DF93EC016B0149015A010E94CA
S1130D006C046DE770E08EE993E00E947D1AB601F1
S1130D108EE993E00E947D1A2AE030E0B501A40137
S1130D208EE993E00E94EC1B7E0183EEE81A8EEFBD
S1130D30F80AB601F701808191810E947D1A2AE0A8
S1130D4030E0B501A401F701808191810E94EC1B80
S1130D5040E0B801CE010E94D504182F66E770E088
S1130D608EE993E00E947D1ABE01615F7F4F8EE998
S1130D7093E00E94CE1A812FDF91CF911F910F91A2
S1130D80FF90EF90DF90CF90BF90AF909F908F90A7
S1130D900895AF92BF92CF92DF92EF92FF920F939A
S1130DA01F93CF93DF93EC016B017A0159010E94E9
S1130DB06C046FE670E08EE993E00E947D1AB60140
S1130DC08EE993E00E947D1A62E28EE993E00E942C
S1130DD0B11AB7018EE993E00E947D1A62E28EE9AE
S1130DE093E00E94E01A8E01035E1E4FB601F801E3
S1130DF0808191810E947D1A62E2F8018081918153
S1130E000E94B11AB701F801808191810E947D1A74
S1130E1062E2F801808191810E94E01A40E0B5010C
S1130E20CE010E94D504182F68E670E08EE993E0A5
S1130E300E947D1ABE01615F7F4F8EE993E00E949C
S1130E40CE1A812FDF91CF911F910F91FF90EF90D8
S1130E50DF90CF90BF90AF9008950F931F93CF93DF
S1130E60DF93EC018A01A9010E943606882341F030
S1130E70B801CE010F960E94782321E0892B09F056
S1130E8020E0822FDF91CF911F910F910895CF928F
S1130E90DF92EF92FF920F931F93CF93DF93EC01B6
S1130EA0F62EE42E8FE190E00E943C1A8C0120E0A3
S1130EB04E2D6F2D0E943E207E0183EEE81A8EEFA8
S1130EC0F80AD7010D931C9340EC52E160E070E006
S1130ED0C8010E94692061E08C850E942A1D61E09E
S1130EE08C850E94661D6AE070E080E090E00E94BC
S1130EF06D1C60E08C850E94661D64E670E080E0F5
S1130F0090E00E946D1C61E08C850E94661D6DE777
S1130F1073E08EE993E00E94BC1A8EE0C82ED12CB7
S1130F208E01055E1E4FF70180819181DC01ED91F8
S1130F30FC910480F581E02D0995892B59F0F70186
S1130F4080819181DC01ED91FC910680F781E02D97
S1130F500995E9CFF8014081518124EF31E06AE736
S1130F6073E0CE010E942D07811134C0D7018D9109
S1130F709C91DC01ED91FC910480F581E02D0995B3
S1130F80892B59F0F70180819181DC01ED91FC916D
S1130F900680F781E02D0995E9CF24EF31E047E79A
S1130FA053E064E773E0CE010E942D07811112C063
S1130FB064EF71E080E090E00E946D1CB1E0CB1A18
S1130FC0D10809F0B0CF5EC064E670E080E090E044
S1130FD00E946D1CF8014081518124EF31E067E4E7
S1130FE073E0CE010E942D0764E670E080E090E09B
S1130FF00E946D1CD8014D915C9124EF31E062E4B4
S113100073E0CE010E942D07811102C012E001C0DD
S113101011E064E670E080E090E00E946D1CCE0177
S11310200E946C046BE373E08EE993E00E947D1AE6
S113103069E071E08EE993E00E94CE1A69E071E004
S1131040F701808191810E94CE1A41E064EF71E042
S1131050CE010E94D50464E373E08EE993E00E941C
S11310607D1A2F96BE018EE993E00E94CE1A69E2A2
S113107073E0CE010E948A23892B11F484E035C0E9
S1131080812F33C0D8014D915C9124EF31E061E7A9
S113109073E0CE010E942D0764E670E080E090E0EA
S11310A00E946D1CF8014081518124EF31E06EE60D
S11310B073E0CE010E942D0764E670E080E090E0CA
S11310C00E946D1CD8014D915C9124EF31E06BE6D8
S11310D073E0CE010E942D07811176CF6CE473E09A
S11310E08EE993E00E94BC1A83E0DF91CF911F91B7
S11310F00F91FF90EF90DF90CF900895FC01E55E93
S1131100FE4F4081518124EF31E063E571E00C949E
S11311102D07FC01E55EFE4F4081518124EF31E053
S113112067E471E00C942D07EF92FF920F931F93E5
S1131130CF93DF9300D000D000D0CDB7DEB78C01C1
S11311407B010E948908C8010E947E08882359F106
S113115021E030E040E050E066EA70E0C8010E941F
S1131160AB05882311F1A70162EA70E0C8010E946F
S113117092058823E1F0B8016B5E7E4FCE010196A3
S11311800E942F1EAE014F5F5F4F6FE970E0C801F0
S11311900E947905182FCE0101960E94951D1123F6
S11311A041F080E007C082E005C083E003C084E032
S11311B001C080E426960FB6F894DEBF0FBECDBF03
S11311C0DF91CF911F910F91FF90EF900895CF92EF
S11311D0DF92EF92FF920F931F93CF93DF93EC0173
S11311E0680187010E946F06B601CE010F960E9426
S11311F0782321E0892B09F020E0822FDF91CF9121
S11312001F910F91FF90EF90DF90CF900895EF9290
S1131210FF920F931F93CF93DF93EC017901980111
S11312200E94C906B701CE010F960E94782321E0DF
S1131230892B09F020E0822FDF91CF911F910F912C
S1131240FF90EF9008957F928F929F92AF92BF92FA
S1131250CF92DF92EF92FF920F931F93CF93DF937E
S1131260EC0128EE3DEF662309F41FC145ED52E081
S11312706AEC72E00E942D07811103C082E0782E8F
S113128002C0772473947E0185EEE81A8EEFF80A83
S1131290F7014081518120E137E26FEB72E0CE012A
S11312A00E942D07882309F425C1F701408151814B
S11312B020E137E261EA72E0CE010E942D07882323
S11312C009F41AC14E01F2EF8F1AFEEF9F0AF401DE
S11312D0408151814115510571F4F70140815181DB
S11312E02FEF3FEF6CE372E0CE010E942D078111D6
S11312F0CEC089E00EC1F7012081318100E117E2FF
S11313006DE872E0CE010E940709882309F4F6C053
S1131310CE010E946C048E01035E1E4F63E872E0EE
S1131320F801808191810E947D1AF40160817181AC
S1131330F801808191810E947D1A5E01F0EFAF1A5D
S1131340FEEFBF0AF50180819181892B79F065E276
S113135071E0F801808191810E94AF1AF5016081EA
S11313607181F801808191810E947D1A6E01FEEEE7
S1131370CF1AFEEFDF0AF60180819181892B79F083
S113138065E271E0F801808191810E94AF1AF60153
S113139060817181F801808191810E947D1A67E2E8
S11313A071E0F801808191810E94CE1A6CE772E0AD
S11313B08EE993E00E947D1A62E772E08EE993E081
S11313C00E947D1AF401608171818EE993E00E948C
S11313D07D1AF50180819181892B69F065E271E0C4
S11313E08EE993E00E94AF1AF501608171818EE964
S11313F093E00E947D1AF60180819181892B69F026
S113140065E271E08EE993E00E94AF1AF601608113
S113141071818EE993E00E947D1A67E271E08EE9A2
S113142093E00E94CE1AF7016081718140E157E296
S1131430CE010E943705882309F462C0F50140817A
S113144051814115510539F4F6014081518141150D
S1131450510579F442CFF7012081318100E117E28F
S11314606DE572E0CE010E9407098111EDCF87E09E
S113147050C0F7012081318100E117E269E472E094
S1131480CE010E940709811128CF88E042C0F701EC
S1131490408151812FEF3FEF63E372E0CE010E9460
S11314A02D07882379F1872D34C04BE252E060E2A6
S11314B072E00E942D07882339F18E01055E1E4FCC
S11314C0F8014081518120E137E263E172E0CE010D
S11314D00E942D078823D1F0F8014081518120E139
S11314E037E268E072E0CE010E942D07882381F084
S11314F081E00FC083E00DC084E00BC085E009C02B
S113150086E007C08AE005C08BE003C08CE001C020
S11315108DE0DF91CF911F910F91FF90EF90DF90BD
S1131520CF90BF90AF909F908F907F900895AF928F
S1131530BF92CF92DF92EF92FF920F93CF93DF93FC
S11315405B016A01E22E0F960E948A23EC01892B2B
S1131550C1F0C5010E9481238C0F9D1FC0E0F12CB6
S1131560C01741F0B7010E94AD23009751F00196D6
S1131570CF5FF6CF0E945A23F6019183808381E0E6
S113158001C080E0DF91CF910F91FF90EF90DF9049
S1131590CF90BF90AF900895EF92FF920F93CF93A7
S11315A0DF93EC019B017A0140E050E06DEB70E0C9
S11315B00E942D07882351F000E02CE2A70162EB82
S11315C070E0CE010E94970A811101C080E0DF9192
S11315D0CF910F91FF90EF9008954F925F926F9289
S11315E07F92AF92BF92CF92DF92EF92FF920F93CE
S11315F01F93CF93DF93EC016A015901270138014E
S1131600FC01E55EFE4F00811181262F30E040E0B1
S113161050E084EFE82EFF24F39464EE70E0CE01F2
S11316200E94E708882309F140E0B201CE010E943C
S1131630D50401E02CE2A60167ED70E0CE010E9422
S1131640970A8823A1F002E02CE2A5016AEC70E07D
S1131650CE010E94970A882361F0F601808191816E
S1131660883C910541F480E007C087E005C088E02C
S113167003C089E001C080E8DF91CF911F910F91F1
S1131680FF90EF90DF90CF90BF90AF907F906F90DE
S11316905F904F9008952F923F924F925F926F9276
S11316A07F928F929F92AF92BF92CF92DF92EF92EE
S11316B0FF920F931F93CF93DF9300D000D01F921C
S11316C0CDB7DEB73C015B834A8319012801FD8253
S11316D0EC820E94940889838F70823008F059C08C
S11316E04A815B816AEA70E0C3010E94920581111C
S11316F003C0898180618983A20160E070E000EC0D
S113170014ED21E030E0C3010E94CC05811103C037
S1131710898185603FC0F301E35EFE4F8081918142
S1131720DC01ED91FC910280F381E02DA201B10175
S11317300995F301E55EFE4F6081718140E157E256
S1131740C3010E943705811103C08981866022C0CC
S113175010E1E12E17E2F12E00E010E095014C813A
S11317605D8161E0C3010E94ED0A982F9F70923061
S113177018F0B9818B2B0EC0A401B601C3010E94DD
S1131780CC0A811103C08981806289838981816047
S113179001C089810F900F900F900F900F90DF91EF
S11317A0CF911F910F91FF90EF90DF90CF90BF905A
S11317B0AF909F908F907F906F905F904F903F90ED
S11317C02F9008952F923F924F925F926F927F9243
S11317D08F929F92AF92BF92CF92DF92EF92FF923D
S11317E00F931F93CF93DF9300D000D0CDB7DEB714
S11317F09C838B8319012801FA82E98236017501E1
S11318004601A980BA8068018A019B014AED51E032
S113181065EE71E00E944B0BF82E8F70823078F0E9
S113182067EB71E08EE993E00E947D1A6F2D70E002
S11318304AE050E08EE993E00E94DA1B7BC06AE93B
S113184071E08EE993E00E947D1AA981BA816D91BD
S11318507C914AE050E08EE993E00E94611B65E8C8
S113186071E08EE993E00E947D1A4AE050E0B201F3
S11318708EE993E00E94611B68E671E08EE993E0D3
S11318800E947D1AF301608171814AE050E08EE983
S113189093E00E94671B00E010E061147104E1F121
S11318A0AB81BC81ED91FC9111970480F581E02D11
S11318B0CD010995892B89F3AB81BC81ED91FC9114
S11318C011970680F781E02DCD010995E82E0415C6
S11318D01505A8F46FE571E08EE993E00E947D1A86
S11318E069E271E08EE993E00E94AF1A6E2D8EE9F1
S11318F093E00E94E01AF101E00FF11FE082809171
S1131900C00085FFFCCFE092C6000F5F1F4FB2E01E
S11319106B1A710829F6C1CFF101E00FF11F108293
S11319206CE771E08EE993E00E94CE1A8B819C8172
S11319300E9489088F2D0F900F900F900F90DF91C8
S1131940CF911F910F91FF90EF90DF90CF90BF90B8
S1131950AF909F908F907F906F905F904F903F904B
S11319602F900895AF92BF92CF92DF92EF920F9390
S11319701F93CF93DF93EC016A015901102F0E2DB1
S113198044EF51E00E943606212FA501B601CE0195
S11319900E94970A182F882331F040E064EF71E029
S11319A0CE010E94D504812FDF91CF911F910F9119
S11319B0EF90DF90CF90BF90AF900895EF920F9388
S11319C09B01EE24E3940CE242E253E06BE173E00A
S11319D00E94B20C0F91EF900895CF92DF92EF9294
S11319E0FF920F931F93CF93DF93CDB7DEB7289762
S11319F00FB6F894DEBF0FBECDBF6C0118861F82F0
S1131A001E821D821C821B821A821982E12C0CE226
S1131A109E01295F3F4F44E153E06DE073E00E9473
S1131A20B20CF82EEE24E3949E012B5F3F4F46E068
S1131A3053E06FEF72E0C6010E94B20C882319F0E4
S1131A4081E0F82602C0FF24F394E12C0CE29E010D
S1131A502D5F3F4F47EF52E06EEE72E0C6010E94E9
S1131A60B20C882311F01B8101C010E2EE24E39430
S1131A700CE29E012F5F3F4F46EE52E06DED72E0A7
S1131A80C6010E94B20C811103C0912F906202C062
S1131A909981912B7D816F818F2D28960FB6F894B3
S1131AA0DEBF0FBECDBFDF91CF911F910F91FF908D
S1131AB0EF90DF90CF900895FC0110821282118282
S1131AC01382148215821682178212861186148656
S1131AD0138608952AE0829FC001112409960C946C
S1131AE0F30ECF93DF93EC01CB0129E0FE01DB0180
S1131AF001900D922A95E1F74B812AE0429FA001C3
S1131B0011246B857C850996DF91CF910C94A423D5
S1131B10AF92BF92CF92DF92EF92FF920F931F93F7
S1131B20CF93DF93CDB7DEB76B01EDB6FEB6FC0104
S1131B300381FAE00F9F80011124075F1F4F2DB727
S1131B403EB7201B310B0FB6F8943EBF0FBE2DBF1E
S1131B50EDB7FEB731965F01BF010E94710DA80178
S1131B60B501C6010E942E0F0FB6F894FEBE0FBE3B
S1131B70EDBEDF91CF911F910F91FF90EF90DF9019
S1131B80CF90BF90AF900895FC017487638743831F
S1131B900895FC0160830895FC0181819281089578
S1131BA0FC01728361830895FC0145835683678336
S1131BB070870895CF93DF93EC0163E274E08EE9BC
S1131BC093E00E947D1A4AE050E068818EE993E038
S1131BD00E94481B6FE174E08EE993E00E947D1A35
S1131BE06AE174E08EE993E00E947D1A4AE050E0D5
S1131BF069818EE993E00E94481B66E174E08EE9F6
S1131C0093E00E947D1A61E074E08EE993E00E9403
S1131C107D1A6B81637070E04AE050E08EE993E0D6
S1131C200E94D31B67EF73E08EE993E00E947D1A54
S1131C306B816C7170E075956795759567954AE051
S1131C4050E08EE993E00E94D31B6EEE73E08EE9C0
S1131C5093E00E947D1A6B8165FB662760F94AE078
S1131C6050E070E08EE993E00E94D31B6AEE73E0CB
S1131C708EE993E00E947D1A6DED73E08EE993E0A6
S1131C800E947D1A4AE050E06A818EE993E0DF9178
S1131C90CF910C944F1BFC012281211106C090812D
S1131CA0933619F081E0973008F480E00895CF93DB
S1131CB0DF93EC0165ED73E08EE993E00E947D1AF9
S1131CC069817A814AE050E08EE993E00E94611BC9
S1131CD061ED73E08EE993E00E947D1A6BEC73E092
S1131CE08EE993E00E947D1A6B817C814AE050E08A
S1131CF08EE993E00E94611B67EC73E08EE993E048
S1131D000E947D1A6EEB73E08EE993E00E947D1AC7
S1131D106D817E814AE050E08EE993E00E94611B70
S1131D206AEB73E08EE993E00E947D1A64EB73E042
S1131D308EE993E00E947D1A6F8178854AE050E035
S1131D408EE993E00E94611B60EB73E08EE993E0FF
S1131D500E947D1A69EA73E08EE993E00E947D1A7D
S1131D604AE050E069858EE993E0DF91CF910C94CD
S1131D704F1BE0918A04F0918B0480E090E030974F
S1131D8049F0029620813181820F931F0280F381F2
S1131D90E02DF5CF08950F931F93CF93DF9300D0D9
S1131DA0CDB7DEB780918804909189048E010F5FCE
S1131DB01F4F009729F40C5814401A8309830AC052
S1131DC0081B190B1A8309830E94B90E800F911FF7
S1131DD09A83898389819A810F900F90DF91CF91A3
S1131DE01F910F9108959C012E5F3F4FE3E0F0E0B7
S1131DF0C901BF010E941821A901481B590BCA013E
S1131E00BF010E941821CB01880F991F880F991FC9
S1131E1001960895DC01FB018081869586958C935B
S1131E2080818370918192959F7020E1829F900DB3
S1131E30112411969C93119791819F70990F990F7A
S1131E4022812295269526952370920F12969C93B3
S1131E50129782818F7313968C9308956F927F9259
S1131E608F929F92AF92BF92CF92DF92EF92FF92A6
S1131E700F931F93CF93DF93CDB7DEB727970FB69A
S1131E80F894DEBF0FBECDBF6C015B013B01640E55
S1131E90751EE12CF12C00E010E04E0185E0880E67
S1131EA0911C6A147B0449F1C8010196F501219142
S1131EB05F01F401E00FF11F20838330910511F0DD
S1131EC08C01EFCFB401CE0101960E940A0FDE010E
S1131ED01196C6018E0D9F1DED91F0E0E75DFB4F5D
S1131EE02491FC012193CF01A815B905A9F7F4E0C9
S1131EF0EF0EF11C80E090E0E3CF0115110509F429
S1131F003CC0BE016B5F7F4FFB01E00FF11FCF01AF
S1131F10861B970B039714F41192F9CFCE01019607
S1131F205C010E940A0FC6018E0D9F1DD501ED9123
S1131F30F0E0E75DFB4F2491FC012193CF019D016B
S1131F402A193B090217130794F7FFEFEF1AFF0A48
S1131F50E00EF11EF601EE0DFF1D0C191D090E1900
S1131F601F098DE37F01EC18FD0898012E0F3F1F18
S1131F702330310514F48193F5CFF601EE0DFF1DE6
S1131F801082C701019627960FB6F894DEBF0FBEE4
S1131F90CDBFDF91CF911F910F91FF90EF90DF9014
S1131FA0CF90BF90AF909F908F907F906F90089547
S1131FB061E085E00E942A1D61E085E00E94661DC3
S1131FC068EB7BE080E090E00E946D1C61E08DE0B6
S1131FD00E942A1D26E040E855E260E070E08EE9A8
S1131FE093E00E94381964EB76E08EE993E00E9456
S1131FF0BC1A8091AB0184608093AB0108950F9368
S11320001F93CF93DF93CDB7DEB72C970FB6F89419
S1132010DEBF0FBECDBF182F8091A7019091A801FC
S113202001969093A8018093A70181E08093A00179
S113203089EB91E090939F0180939E018091A1018F
S1132040811134C06FE976E08EE993E00E94BC1AF6
S113205042E063E089EB91E00E9447078093A1018D
S11320608EEA91E00E940714082F6BE371E0CE0121
S113207007960E94031E602FCE0107960E94661EDB
S1132080BE01695F7F4FCE0101960E942F1EBE01E3
S11320906F5F7F4F89EB91E00E946804CE01019647
S11320A00E94951DCE0107960E94951D8091A10165
S11320B083508230B0F464E876E08EE993E00E94C5
S11320C07D1A69E271E08EE993E00E94AF1A609193
S11320D0A10170E04AE050E08EE993E00E94DA1B2F
S11320E065C0112309F4B1C08091A201811149C0D6
S11320F08091A7019091A8016AE070E00E940421F8
S1132100892B19F01092A0013CC067E676E08EE9B5
S113211093E00E94BC1A61E089EB91E00E942309DC
S1132120182F8FEF810F823020F16FE476E08EE973
S113213093E00E947D1A69E271E08EE993E00E94C7
S1132140AF1A612F70E04AE050E08EE993E00E94FC
S1132150DA1B8091A7019091A801CC9728F41092E2
S1132160A00169E276E009C01093A20166E076E07E
S113217004C01093A20166EE75E08EE993E00E941C
S1132180BC1A8091A2018150823080F48091A9010F
S11321909091AA0101969093AA018093A90183EAE0
S11321A091E00E944B0E882331F04FC010929F01A2
S11321B010929E014AC08091A9019091AA016AE0FF
S11321C070E00E940421892B19F01092A0013DC0F7
S11321D06BEC75E08EE993E00E947D1A89EB91E047
S11321E00E94ED0C69837A838B839C83CE010196D4
S11321F00E94DA0DCE0101960E944B0E811113C08C
S11322008091A9019091AA018C32914048F41092D6
S1132210A0016CE975E08EE993E00E94BC1A15C038
S113222064E675E002C06EE375E08EE993E00E9417
S1132230BC1A89819A81AB81BC818093A30190935C
S1132240A401A093A501B093A6018EE991E02C9678
S11322500FB6F894DEBF0FBECDBFDF91CF911F91B3
S11322600F91089569E471E08EE993E00E94CE1A1B
S113227060E085E00E94661D68EB7BE080E090E012
S11322800C946D1CCF93DF93CDB7DEB72A970FB6AE
S1132290F894DEBF0FBECDBF6BE275E08EE993E02C
S11322A00E94BC1A81E089831B821A821D821C82CF
S11322B01F821E82198618861A86BE016F5F7F4FA1
S11322C08CEA91E00E943F1481E02A960FB6F894BC
S11322D0DEBF0FBECDBFDF91CF9108955F926F92A5
S11322E07F928F929F92AF92BF92CF92DF92EF92A2
S11322F0FF920F931F93CF93DF93CDB7DEB72D9744
S11323000FB6F894DEBF0FBECDBF4C015B01542E57
S113231069016DB67EB60E94CB0E7C01052D10E0DE
S11323202AE0529EC00111248F589F4FE816F906E7
S113233034F46BEF74E08EE993E00E947D1A69E255
S113234071E08EE993E00E94AF1A4AE050E0B701D1
S11323508EE993E00E94DA1B2AE0209FC001219FAE
S1132360900D1124EDB7FEB7E81BF90B0FB6F894E6
S1132370FEBF0FBEEDBF2DB73EB72F5F3F4F7901B4
S1132380F90181E00150110960F080831282118209
S113239014821382168215821086178211863A9649
S11323A0F1CF452DB7018EEA91E00E94A213F50109
S11323B08083CE0101960E945C0D67EECE010196EA
S11323C00E94C90D61E270E0CE0101960E94D00D19
S11323D0F5014081B701CE0101960E94C40DF601BA
S11323E04285538564857585CE0101960E94D40D7E
S11323F0B401CE0101960E94880DCE0101960E947F
S1132400CC0DF601938382830FB6F8947EBE0FBE83
S11324106DBE2D960FB6F894DEBF0FBECDBFDF9113
S1132420CF911F910F91FF90EF90DF90CF90BF90CD
S1132430AF909F908F907F906F905F9008952F92B0
S11324403F924F925F926F927F928F929F92AF9240
S1132450BF92CF92DF92EF92FF920F931F93CF938D
S1132460DF93CDB7DEB7A2970FB6F894DEBF0FBEE9
S1132470CDBF2DB63EB680919C0190919D010196F1
S113248090939D0180939C01019731F46CED74E06D
S11324908EE993E00E94BC1A81E00E94FF0FFC01C8
S11324A022812AA3211107C064EC74E08EE993E031
S11324B00E94BC1A8CC082E089831A821C821B820F
S11324C01D8218861A8619861B861C861D868381A2
S11324D08E8384818F8385819681A781B0858B8744
S11324E09C87AD87BE87808091808114910439F4E4
S11324F061EB74E08EE993E00E94BC1A61C084E150
S11325000E946A0D2DB73EB7281B390B0FB6F894FD
S11325103EBF0FBE2DBF8DB79EB701963C019E01F5
S11325202F5F3F4F44E1BE016F5D7F4F0E946E11EC
S113253089A18D830E946A0D2C0168E874E08EE9FC
S113254093E00E94BC1AB3018EE993E00E94CE1A74
S113255018A21F8E1E8E1D8E1C8E1B8E9E01215E48
S11325603F4F5901CE014B966C012250310979013C
S11325700AE010E02E503109A201B301C4010E9407
S1132580E20B782E64E774E08EE993E00E94BC1AB3
S1132590BE01615F7F4F8EE993E00E94CE1ABE01B7
S11325A0675E7F4FC4010E94DE0C811102C08FEF71
S11325B001C0898D8A8378868F8D98A19A878987AF
S11325C0BE016F5F7F4F8EEA91E00E94B2138AA131
S11325D00FB6F8943EBE0FBE2DBEA2960FB6F89469
S11325E0DEBF0FBECDBFDF91CF911F910F91FF9042
S11325F0EF90DF90CF90BF90AF909F908F907F909F
S11326006F905F904F903F902F90089568EE73E025
S113261080E090E00E946D1C80919A0190919B0152
S1132620019690939B0180939A016AE674E08EE987
S113263093E00E947D1A69E271E08EE993E00E94C2
S1132640AF1A4AE050E06091AB018EE993E00E943A
S11326504F1B8091AB0180FF09C00E944211882367
S113266029F08091AB018E7F8093AB018091AB0107
S113267081FF09C00E941F12882329F08091AB01B9
S11326808D7F8093AB018091AB0182FF17C0809155
S11326909A0190919B01019731F46EEA71E089EB04
S11326A091E00E941F180E941F12882339F0809124
S11326B0AB018B7F8093AB010E9413188091AB0117
S11326C0811102C00C943211089541E064E089EB59
S11326D091E00E942B0460E08EEA91E00E94911345
S11326E061E08CEA91E00E940B14EEE9F1E01282C1
S11326F0158216821782128611861486138608950F
S11327008FE291E09093BA018093B9018EEC92E04C
S11327100C94951DDC01ED91FC910190F081E02D6C
S11327200994FC01148215821682178280E880873E
S1132730818712866383611104C086E493E00C945C
S113274074170895FC01CB016081718161157105D5
S113275039F042812AE0429FA00111240E94A4235F
S113276081E008950895EF92FF920F931F93CF9302
S1132770DF93EB017B01E40EF11C8C01CE15DF0528
S113278071F160E570E086E493E00E949017612F98
S113279070E086E493E00E948A13B801772786E408
S11327A093E00E948A1386E493E00E940C1841E0AF
S11327B050E060E570E086E493E00E94091886E446
S11327C093E00E94A616892B29F086E493E00E94E8
S11327D0AE1601C08FEF89930F5F1F4FCFCFDF91EC
S11327E0CF911F910F91FF90EF900895CF93DF93B6
S11327F01F92CDB7DEB7CB0141E0BE016F5F7F4FC3
S11328000E94B31389810F90DF91CF91089560E006
S113281070E00C94F613FC0160830895FC01808140
S1132820811103C0862F0C94E41C85E090E0089588
S1132830FC01DB0181818F5F818390E012969C9380
S11328408E93119781812AE0829FC00111241496EE
S11328509C938E931397818167E00E94F820892FBF
S113286090E016969C938E931597818124E6829F1F
S1132870C001112418969C938E9317970895AF92D4
S1132880BF92CF92DF92EF92FF920F931F93CF9359
S1132890DF938C01EB01FC018081882321F0C801C6
S11328A00E9418141BC06EE0C8010E940E146C0133
S11328B06FE0C8010E940E145C0161E1C8010E942E
S11328C00E147C0160E1C8010E940E14BA82A98230
S11328D0DC82CB82FE82ED8298878F83CE01DF91EA
S11328E0CF911F910F91FF90EF90DF90CF90BF9009
S11328F0AF900C94570E1092450381E080934303EC
S11329001092420361E082E10E94661D61E083E16E
S11329100E94661DE9EBF0E080818E7F80838081D8
S11329208D7F808388E48093B80085E48093BC0025
S11329300895413208F043C0909145039111FCCFB2
S113294091E090934503209343032FEF2093D80203
S113295010921D03240F20931C0390934403909121
S11329604403880F892B8093440380914203813070
S113297061F410924203809144038093BB008091E0
S1132980BC0083FDF8CF85EC01C085EE8093BC00CC
S1132990809145038130E1F380911D03841710F485
S11329A040911D03AEE1B3E0962FFB018E2F891BEE
S11329B0841718F48D918193F9CF842F089580E0C2
S11329C008950F93413208F04AC090914503911144
S11329D0FCCF32E030934503009343033FEF309341
S11329E0D80210921D0340931C03562FAEE1B3E0AE
S11329F0FB013E2F351B341718F431913D93F9CF69
S1132A001092440330914403880F832B8093440332
S1132A1080914203813061F4109242038091440317
S1132A208093BB008091BC0083FDF8CF85EC01C08E
S1132A3085EE8093BC00222321F0809145038230EF
S1132A40D1F38091D8028F3F79F08091D8028032FF
S1132A5041F08091D802803331F094E005C091E0D8
S1132A6003C092E001C093E0892F0F910895409133
S1132A70FA02262F30E0240F311D21323105DCF417
S1132A80209145032430C9F4FC0180E090E08617CE
S1132A9058F43091FA022191DC01A450BD4FA30FE8
S1132AA0B11D2C930196F3CF8091FA02680F6093C5
S1132AB0FA0280E0089581E0089582E008959093F9
S1132AC03F0380933E030895909341038093400312
S1132AD0089585ED8093BC008091BC0084FDFCCFFB
S1132AE010924503089585EC8093BC001092450331
S1132AF008951F920F920FB60F9211242F933F93B4
S1132B004F935F936F937F938F939F93AF93BF93F1
S1132B10EF93FF938091B900887F803609F49EC0BB
S1132B2078F5883209F45DC090F4803109F456C018
S1132B3038F4882309F4F5C0883009F44FC0F5C08F
S1132B40883109F44EC0803209F45FC0EEC080348D
S1132B5009F46AC058F4803309F457C0883309F083
S1132B60E4C08093D8020E947315DFC0803509F455
S1132B704FC0883509F45DC0883409F0D6C0D3C08D
S1132B80883909F4C4C0A8F4883709F467C038F454
S1132B90883609F463C0803709F460C0C6C0883839
S1132BA009F4B5C0803909F45FC0803809F0BDC0AC
S1132BB05BC0803B09F483C038F4803A09F466C0F2
S1132BC0883A09F47CC0B1C0803C09F4A4C0883CB4
S1132BD009F4A1C0883B09F487C0A7C080914403CD
S1132BE010C090911D0380911C03981770F5E0911B
S1132BF01D0381E08E0F80931D03F0E0E25EFC4F25
S1132C0080818093BB0085EC83C08093D8028BC005
S1132C10E0911D0381E08E0F80931D038091BB0022
S1132C20F0E0E25EFC4F808390911D0380911C03D1
S1132C306BC0E0911D0381E08E0F80931D03809192
S1132C40BB00F0E0E25EFC4F80838091430381117E
S1132C506AC081E08093420384EA5EC083E080938B
S1132C6045031092D902CFCF8091D902803208F067
S1132C704EC0E091D90281E08E0F8093D9028091F9
S1132C80BB00F0E0E652FD4F8083BDCF0E94731578
S1132C908091D902803230F4E091D902F0E0E6521A
S1132CA0FD4F10826091D90270E0E0913E03F091F3
S1132CB03F038AED92E009951092D90236C084E070
S1132CC0809345031092FB021092FA02E0914003B4
S1132CD0F091410309958091FA02811105C081E0C8
S1132CE08093FA021092FC02E091FB0281E08E0FC5
S1132CF08093FB02F0E0E450FD4F80818093BB00A1
S1132D009091FB028091FA02981708F47CCF85E831
S1132D108093BC000AC085EC8093BC0010924503EC
S1132D2004C01092D8020E946915FF91EF91BF91DF
S1132D30AF919F918F917F916F915F914F913F914F
S1132D402F910F900FBE0F901F90189580917A03CA
S1132D5090E020917B03821B9109089590917B035D
S1132D6080917A03981750F4E92FF0E0E458FC4F6F
S1132D70208130E09F5F90937B0302C02FEF3FEFF1
S1132D80C9010895E0917B0380917A03E81730F438
S1132D90F0E0E458FC4F808190E008958FEF9FEFBE
S1132DA008950895CF93DF93EC01E0915203F091DD
S1132DB053033097F1F090917B0380917A03981735
S1132DC0C0F090E0292F30E02617370754F4DE01D5
S1132DD0A20FB31F4C91D901A458BC4F4C939F5FD1
S1132DE0F1CF10927B0360937A03CB01DF91CF91F3
S1132DF00994DF91CF910895E0915403F091550324
S1132E00309729F0109258031092570309940895AB
S1132E10CF92DF92EF92FF920F931F93CF93DF93A2
S1132E207C01CB018A0120915603222389F0EB0116
S1132E306B01C40ED51ECC15DD0569F06991D7016F
S1132E40ED91FC910190F081E02DC7010995F3CF3C
S1132E50642F0E943715C801DF91CF911F910F9104
S1132E60FF90EF90DF90CF900895CF93DF931F9260
S1132E70CDB7DEB76983209156032223D1F0209188
S1132E805703203240F021E030E0FC0133832283F9
S1132E9080E090E015C080915803E82FF0E0E75AF5
S1132EA0FC4F998190838F5F8093580380935703DD
S1132EB005C061E0CE0101960E94371581E090E0E3
S1132EC00F90DF91CF910895FC011382128288EE56
S1132ED093E0A0E0B0E084839583A683B7838EE576
S1132EE091E091838083089510927B0310927A037A
S1132EF010925803109257030E947B148CEF96E1B2
S1132F000E94641582ED96E10C945F1581E0809334
S1132F10560360937903109258031092570308954F
S1132F200C9486170F93062F21E04091570369E50F
S1132F3073E0809179030E94E11410925803109277
S1132F405703109256030F9108954F925F926F9218
S1132F507F92AF92BF92CF92EF92FF920F931F9303
S1132F60CF93DF935C01F62ED42F28013901EE2094
S1132F7021F10E948617CE2DC43008F0C3E0C15061
S1132F80C0F028E0C29FC0011124A301920104C033
S1132F9056954795379527958A95D2F7CA01B90171
S1132FA0D501ED91FC910190F081E02DC5010995C9
S1132FB0E6CF60E0C5010E9492174D2FD13208F090
S1132FC040E22C2D6CE773E08F2D0E94991410922F
S1132FD07B0380937A03DF91CF911F910F91FF9030
S1132FE0EF90CF90BF90AF907F906F905F904F9095
S1132FF00895CF92EF920F931F93C22EE12C00E01D
S113300010E098010E94A5171F910F91EF90CF90A7
S1133010089521E00C94F91761E00C94921786E46A
S113302093E00C94641780919C0390919D030E94FB
S11330300B226CEE76E08EE993E00C94BC1ACF93ED
S1133040DF93EB0167EE76E08EE993E00E94BC1A11
S113305084E190E00E947321FC0190939D0380938E
S11330609C0381E090E0928381838AE090E09683E0
S1133070858384E690E09483838383E390E0908760
S1133080878383E0818782E090E09487838784E16B
S113309090E0908B878788EC90E09687858784E31F
S11330A090E0928B818B138A60EC76E08EE993E05A
S11330B00E94BC1A80919C0390919D030E94570E1C
S11330C080919C0390919D030A960E94570E8091D3
S11330D09C0390919D039983888382E08A83DF9186
S11330E0CF910895FC01918D228D892F90E0805C11
S11330F09F4F821B91098F7399270895FC01918D2D
S1133100828D981731F0828DE80FF11D858D90E046
S113311008958FEF9FEF0895FC01918D828D98178C
S113312061F0828DDF01A80FB11D5D968C91928DA7
S11331309F5F9F73928F90E008958FEF9FEF0895A4
S113314085EF99E1892B49F080E090E0892B29F003
S11331500E94F51981110C9400000895FC01848DDE
S1133160DF01A80FB11DA35ABF4F2C91848D90E0AD
S113317001968F739927848FA689B7892C93A08988
S1133180B1898C9180648C93938D848D981306C03F
S11331900288F389E02D80818F7D80830895EF92EA
S11331A0FF920F931F93CF93DF93EC0181E0888FFD
S11331B09B8D8C8D981305C0E889F989808185FDE4
S11331C024C0F62E0B8D10E00F5F1F4F0F731127D5
S11331D0E02E8C8DE8120CC00FB607FCFACFE889FC
S11331E0F989808185FFF5CFCE010E94AE18F1CF19
S11331F08B8DFE01E80FF11DE35AFF4FF0820B8F18
S1133200EA89FB898081806207C0EE89FF89608337
S1133210E889F98980818064808381E090E0DF918E
S1133220CF911F910F91FF90EF900895CF93DF936B
S1133230EC01888D8823C9F0EA89FB89808185FDAA
S113324005C0A889B9898C9186FD0FC00FB607FC0B
S1133250F5CF808185FFF2CFA889B9898C9185FF4C
S1133260EDCFCE010E94AE18E7CFDF91CF91089544
S1133270CF92DF92EF92FF921F93CF93DF93EC01F3
S11332806A017B01122FE889F98982E08083411564
S1133290514E61057105B1F060E079E08DE390E095
S11332A0A70196010E942C21DA01C9010197A10905
S11332B0B109B695A795979587959C01211580E14D
S11332C03807A8F0E889F989108260E874E88EE18B
S11332D090E0A70196010E942C21DA01C90101970F
S11332E0A109B109B695A795979587959C01EC8599
S11332F0FD853083EE85FF852083188EEC89FD895A
S11333001083EA89FB89808180618083EA89FB8953
S1133310808188608083EA89FB89808180688083DA
S1133320EA89FB8980818F7D8083DF91CF911F9112
S1133330FF90EF90DF90CF9008951F920F920FB6F9
S11333400F9211242F938F939F93EF93FF93E09108
S1133350AE03F091AF038081E091B403F091B50323
S113336082FD12C090818091B7038F5F8F7320918B
S1133370B803821751F0E091B703F0E0E256FC4F36
S1133380958F8093B70301C08081FF91EF919F9146
S11333908F912F910F900FBE0F901F9018951F9231
S11333A00F920FB60F9211242F933F934F935F9375
S11333B06F937F938F939F93AF93BF93EF93FF93F9
S11333C08EE993E00E94AE18FF91EF91BF91AF9107
S11333D09F918F917F916F915F914F913F912F9129
S11333E00F900FBE0F901F9018958EE993E00E94E6
S11333F0721821E0892B09F420E0822F0895EEE968
S1133400F3E01382128288EE93E0A0E0B0E08483BC
S11334109583A683B7838EE691E09183808385ECC0
S113342090E09587848784EC90E09787868780EC8A
S113343090E0918B808B81EC90E0938B828B82EC7B
S113344090E0958B848B86EC90E0978B868B118E25
S1133450128E138E148E089508950E94A91C0E9442
S11334602C1A0E94D80FC0EAD8E10E9406132097B4
S1133470E1F30E94A018F9CF0C947321CF92DF924C
S1133480EF92FF920F931F93CF93DF936C017A0116
S11334908B01C0E0D0E0CE15DF0581F0D8016D913D
S11334A08D01D601ED91FC910190F081E02DC601D2
S11334B00995892B11F02196EECF7E01C701DF918A
S11334C0CF911F910F91FF90EF90DF90CF900895CF
S11334D06115710579F0FB0101900020E9F731973E
S11334E0AF01461B570BDC01ED91FC910280F38187
S11334F0E02D099480E090E00895EF92FF920F93FD
S11335001F93CF93DF938C017B01C0E0D0E0F701E0
S1133510EC0FFD1F6491662361F0D801ED91FC91DD
S11335200190F081E02DC8010995892B11F02196B5
S1133530EECFCE01DF91CF911F910F91FF90EF90CD
S11335400895DB0114964D915C9115976D917C91D2
S1133550DC01ED91FC910280F381E02D09940C943F
S1133560681ADC01ED91FC910190F081E02D099441
S11335706AE771E00C94681A0F931F93CF93DF935B
S1133580EC010E947D1A8C01CE010E94B81A800FB2
S1133590911FDF91CF911F910F9108950F931F9366
S11335A0CF93DF93EC010E94681A8C01CE010E9434
S11335B0B81A800F911FDF91CF911F910F91089539
S11335C00F931F93CF93DF93EC010E94B11A8C01E8
S11335D0CE010E94B81A800F911FDF91CF911F91E5
S11335E00F9108958F929F92AF92BF92EF92FF92A4
S11335F00F931F93CF93DF93CDB7DEB7A1970FB689
S1133600F894DEBF0FBECDBF7C01FA01CB0119A235
S1133610223008F42AE08E010F5D1F4F822E912C78
S1133620A12CB12CBF01A50194010E942C21F90108
S1133630CA01015011096A3010F4605D01C0695C6F
S1133640D8016C93232B242B252B61F7B801C701D8
S11336500E94681AA1960FB6F894DEBF0FBECDBFC4
S1133660DF91CF911F910F91FF90EF90BF90AF909A
S11336709F908F9008952115310541F4DC01ED915F
S1133680FC910190F081E02D642F09940C94F21ABE
S11336909A01462F50E060E070E00C943B1B0F93BE
S11336A01F93CF93DF93EC010E94481B8C01CE0142
S11336B00E94B81A800F911FDF91CF911F910F9133
S11336C008959A01AB0160E070E00C943B1B0F93EA
S11336D01F93CF93DF93EC010E94611B8C01CE01F9
S11336E00E94B81A800F911FDF91CF911F910F9103
S11336F008950F931F93CF93DF93EC010E943B1B1C
S11337008C01CE010E94B81A800F911FDF91CF91D6
S11337101F910F910895CF92DF92EF92FF920F9332
S11337201F93CF93DF932115310581F4DC01ED91D3
S1133730FC910190F081E02D642FDF91CF911F91D6
S11337400F91FF90EF90DF90CF9009942A303105CC
S113375001F577FF1DC06A017B01EC016DE20E9457
S1133760B11A8C0144275527BA014C195D096E0919
S11337707F092AE0CE010E94F21A800F911FDF9187
S1133780CF911F910F91FF90EF90DF90CF9008950C
S11337902AE0DF91CF911F910F91FF90EF90DF907E
S11337A0CF900C94F21A9A01AB01770F660B770B4A
S11337B00C948B1B0F931F93CF93DF93EC010E9408
S11337C0D31B8C01CE010E94B81A800F911FDF9188
S11337D0CF911F910F9108950F931F93CF93DF9370
S11337E0EC010E948B1B8C01CE010E94B81A800F41
S11337F0911FDF91CF911F910F9108951F920F9206
S11338000FB60F9211242F933F938F939F93AF93EF
S1133810BF9380913C0490913D04A0913E04B091EB
S11338203F0430913B0423E0230F2D3720F401960D
S1133830A11DB11D05C026E8230F0296A11DB11DCF
S113384020933B0480933C0490933D04A0933E0456
S1133850B0933F048091400490914104A0914204AC
S1133860B09143040196A11DB11D8093400490932F
S11338704104A0934204B0934304BF91AF919F913C
S11338808F913F912F910F900FBE0F901F9018951D
S11338903FB7F8948091400490914104A091420470
S11338A0B091430426B5A89B05C02F3F19F001969B
S11338B0A11DB11D3FBFBA2FA92F982F8827820FB2
S11338C0911DA11DB11DBC01CD0142E0660F771F02
S11338D0881F991F4A95D1F708958F929F92AF92AE
S11338E0BF92CF92DF92EF92FF926B017C010E9414
S11338F0481C4B015C01C114D104E104F10401F141
S11339000E94F7200E94481CDC01CB018819990908
S1133910AA09BB09883E9340A105B10560F321E0E3
S1133920C21AD108E108F10888EE880E83E0981ED7
S1133930A11CB11CC114D104E104F10419F7DBCFBB
S1133940FF90EF90DF90CF90BF90AF909F908F90BB
S11339500895789484B5826084BD84B5816084BD03
S113396085B5826085BD85B5816085BDEEE6F0E0F4
S1133970808181608083E1E8F0E010828081826050
S11339808083808181608083E0E8F0E080818160D1
S11339908083E1EBF0E0808184608083E0EBF0E001
S11339A0808181608083EAE7F0E0808184608083A5
S11339B0808182608083808181608083808180684F
S11339C080831092C10008958E3008F08E502091AB
S11339D0060190E4299F900111248770822B809323
S11339E07C0080917A00806480937A0080917A00D0
S11339F086FDFCCF809178002091790090E0922B95
S1133A000895833081F028F4813099F08230A1F058
S1133A1008958730A9F08830B9F08430D1F48091CA
S1133A2080008F7D03C0809180008F778093800019
S1133A30089584B58F7702C084B58F7D84BD0895C1
S1133A408091B0008F7703C08091B0008F7D809308
S1133A50B0000895CF93DF9390E0FC01E55CF84F4C
S1133A602491FC01E15BF84F8491882361F190E09B
S1133A70880F991FFC01E958F84FC591D491FC01B6
S1133A80E359F84FA591B491611109C09FB7F89417
S1133A908881209582238883EC912E230BC0623089
S1133AA061F49FB7F8948881322F309583238883FB
S1133AB0EC912E2B2C939FBF06C08FB7F894E8810E
S1133AC02E2B28838FBFDF91CF9108951F93CF931F
S1133AD0DF93282F30E0F901E95DF84F8491F90173
S1133AE0E55CF84FD491F901E15BF84FC491CC2324
S1133AF0C1F0162F81110E94011DEC2FF0E0EE0F92
S1133B00FF1FE359F84FA591B4919FB7F894111191
S1133B1004C08C91D095D82302C0EC91DE2BDC93A9
S1133B209FBFDF91CF911F910895FC018081918106
S1133B300C940B22CF93DF93EC0188819981009739
S1133B4011F00E940B22198218821D821C821B8292
S1133B501A82DF91CF9108950F931F93CF93DF9330
S1133B60EC018B016F5F7F4F888199810E949422C1
S1133B70009731F0998388831B830A8381E001C015
S1133B8080E0DF91CF911F910F910895CF93DF9340
S1133B90EC0188819981892B29F08A819B81861780
S1133BA0970760F4CE010E94AC1D882341F08C81FC
S1133BB09D81892B19F4E881F981108281E0DF91DC
S1133BC0CF910895EF92FF920F931F93CF93DF93BA
S1133BD0EC017B018A01BA010E94C61D811104C057
S1133BE0CE010E949A1D07C01D830C83B7018881F2
S1133BF099810E94B823CE01DF91CF911F910F913B
S1133C00FF90EF900895FC011182108213821282BA
S1133C10158214826115710551F0FB010190002099
S1133C20E9F73197AF01461B570B0C94E21D089539
S1133C30CF93DF93EC01FB018617970761F0608156
S1133C4071816115710529F0448155810E94E21D3D
S1133C5002C00E949A1DCE01DF91CF910895FC010C
S1133C601182108213821282158214820C94181EFF
S1133C70EF92FF920F931F93CF93DF93611571051A
S1133C8011F480E01CC041155105C1F07B01EC0129
S1133C908C819D818A01080F191FB801CE010E94F1
S1133CA0C61D882371F3288139818C819D81B701D8
S1133CB0820F931F0E94B8231D830C8381E0DF9140
S1133CC0CF911F910F91FF90EF900895EF92FF9283
S1133CD00F931F93CF93DF9300D000D0CDB7DEB7FF
S1133CE07C01862F4AE08E010F5F1F4FB80190E0E0
S1133CF00E94BF23F80101900020E9F73197AF013A
S1133D00401B510BB801C7010E94381E0F900F9041
S1133D100F900F90DF91CF911F910F91FF90EF9033
S1133D200895209186043091870428173907B9F43F
S1133D309091440480914504981789F0E0914404DB
S1133D40F0E0EA5BFB4F80812091440430E02F5F78
S1133D503F4F2F7333272093440490E008958FEF4F
S1133D609FEF08951F93CF93DF93DC015C968D91B1
S1133D709C915D97009739F421E030E013963C93D1
S1133D802E9312973BC05196ED91FC915297509609
S1133D902C915097322F30951FB75E964C915E97B9
S1133DA0742F727041FD6095F8944081772311F06F
S1133DB0422B01C043234083EC012197F1F748E0F3
S1133DC0508160FF02C0522B01C053235083EC0189
S1133DD02197F1F76695415099F78081772319F07F
S1133DE08323808302C0282B20831FBF5C968D9180
S1133DF09C915D970197F1F781E090E0DF91CF917D
S1133E001F910895089520918604309187042817FE
S1133E10390771F49091440480914504981741F056
S1133E20E0914404F0E0EA5BFB4F808190E0089568
S1133E308FEF9FEF0895209186043091870428170F
S1133E40390771F4809145042091440490E0805C2A
S1133E509F4F821B910960E470E00E94182108952D
S1133E6080E090E00895E0918604F0918704E817DB
S1133E70F90769F4A389B4899C918589809589237C
S1133E808C93109287041092860481E0089580E058
S1133E900895CF93DF93EC018A8D9B8D892BF1F0EC
S1133EA08091860490918704C817D907B9F00097C8
S1133EB011F00E94331F8E8D8E7F8E8F10924504D9
S1133EC010924404D0938704C0938604EB89FC8940
S1133ED090818D89892B808381E001C080E0DF910E
S1133EE0CF9108951F920F920FB60F9211242F9322
S1133EF03F934F935F936F937F938F939F93AF936E
S1133F00BF93EF93FF93E0918604F0918704309779
S1133F1009F451C0968DA685B785858591FF04C0A7
S1133F209C91892329F447C09C91892309F043C0BB
S1133F30A389B4899C918589809589238C938689EA
S1133F4097890197F1F7608D718DA685B7855585A1
S1133F5038E020E0CB010197F1F7822F90E09595AE
S1133F608795282F4C91452309F02068315091F70B
S1133F70868D81FD20958091450490E001968F7394
S1133F80992730914404381749F0A0914504B0E0D2
S1133F90AA5BBB4F2C938093450403C0868D81603C
S1133FA0868F828D938D0197F1F7A389B4899C91B3
S1133FB08589892B8C93FF91EF91BF91AF919F914C
S1133FC08F917F916F915F914F913F912F910F90BE
S1133FD00FBE0F901F9018951F93CF93DF93EC01A2
S1133FE0162F6E8D6695617081E06827812F0E947F
S1133FF0661D61E0812F0E942A1D812F90E0FC0143
S1134000E55CF84FE491E88BFC01E15BF84FE49147
S1134010F0E0EE0FFF1FE359F84F859194919A8BCE
S1134020898BDF91CF911F9108951F93CF93DF93D5
S1134030EC01162F60E0812F0E942A1D8E8D81FDD8
S113404004C061E0812F0E94661D1C87812F90E0CF
S1134050FC01E55CF84FE491ED87FC01E15BF84F6E
S1134060E491F0E0EE0FFF1FED59F84F8591949124
S11340709F878E87DF91CF911F9108951F93CF93D0
S1134080DF93EC01162F1B821A8288EE93E0A0E0E6
S1134090B0E08C839D83AE83BF838DE891E09983E8
S11340A088831F8A1E8A198E188E1B8E1A8E1D8E67
S11340B01C8E8E8D8E7F20FB81F98E8F642FCE0116
S11340C00E94EC1F612FCE01DF91CF911F910C94C0
S11340D01520CF93DF93EC019A01AB011B8E1A8E4E
S11340E0198E188E1F8A1E8A60E079E08DE390E0B5
S11340F00E944E21F9012430310518F0C9010397BB
S113410002C081E090E09D8F8C8F6C85663108F051
S113411069C0C901969587958431910510F043973C
S113412002C081E090E09F8B8E8B369718F0C90116
S1134130059702C081E090E0998F888FC901880FAC
S1134140991F280F391F36952795369527952D30B9
S1134150310518F02C50310902C021E030E03B8FCA
S11341602A8F90916800683050F021E06E3008F496
S113417020E081E001C0880F2A95EAF701C084E0BD
S1134180892B809368009C85983038F09E3040F0ED
S1134190963148F020E030E008C02DE630E005C05C
S11341A02BE630E002C02CE630E03C8B2B8B9830C1
S11341B030F481E001C0880F9A95EAF70EC0292FE8
S11341C030E09E3018F42850310902C02E503109D5
S11341D081E001C0880F2A95EAF78D8B8C8D9D8D27
S11341E00197F1F7CE01DF91CF910C94491F089507
S11341F0991B79E004C0991F961708F0961B881F35
S11342007A95C9F780950895AA1BBB1B51E107C095
S1134210AA1FBB1FA617B70710F0A61BB70B881F52
S1134220991F5A95A9F780959095BC01CD010895E1
S113423097FB072E16F4009407D077FD09D00E944F
S1134240042107FC05D03EF4909581959F4F089575
S1134250709561957F4F0895A1E21A2EAA1BBB1B8E
S1134260FD010DC0AA1FBB1FEE1FFF1FA217B3073E
S1134270E407F50720F0A21BB30BE40BF50B661F54
S1134280771F881F991F1A9469F760957095809518
S113429090959B01AC01BD01CF010895052E97FBBC
S11342A01EF400940E94652157FD07D00E942C2122
S11342B007FC03D04EF40C9465215095409530953D
S11342C021953F4F4F4F5F4F08959095809570957E
S11342D061957F4F8F4F9F4F0895EE0FFF1F0590FD
S11342E0F491E02D09940F931F93CF93DF938230C1
S11342F0910510F482E090E0E0918A04F0918B043F
S113430020E030E0A0E0B0E0309719F14081518125
S11343100281138148175907C8F08417950769F477
S1134320109731F012960C93129713961C9327C092
S113433000938A0410938B0422C02115310519F0CF
S11343404217530718F49A01BD01EF01DF01F80188
S1134350DBCF21153105F9F0281B390B2430310549
S113436080F48A819B816115710521F0FB0193839F
S1134370828304C090938B0480938A04FE01329656
S113438044C0FE01E20FF31F81939193225031093F
S1134390398328833AC02091880430918904232BDF
S11343A041F4209102013091030130938904209358
S11343B0880420910001309101012115310541F457
S11343C02DB73EB74091040150910501241B350BD4
S11343D0E0918804F0918904E217F307A0F42E1BFE
S11343E03F0B2817390778F0AC014E5F5F4F241755
S11343F0350748F04E0F5F1F50938904409388049B
S11344008193919302C0E0E0F0E0CF01DF91CF917E
S11344101F910F910895CF93DF93009709F481C002
S1134420FC01329713821282A0918A04B0918B040A
S1134430109781F420813181820F931F2091880489
S1134440309189042817390751F5F0938904E093D2
S1134450880467C0ED0120E030E0CE17DF0740F4A8
S11344604A815B819E0141155105F1F0EA01F5CFC6
S1134470D383C28340815181840F951FC817D90704
S113448059F488819981840F951F029691838083C2
S11344908A819B81938382832115310529F4F093CA
S11344A08B04E0938A043DC0E901FB83EA834991CC
S11344B05991C40FD51FEC17FD0761F480819181D8
S11344C0840F951F0296E9019983888382819381E1
S11344D09B838A83E0E0F0E012968D919C91139780
S11344E0009719F0FD01DC01F7CF8D919C91119794
S11344F09D012E5F3F4F820F931F209188043091BE
S113450089042817390769F4309729F410928B0429
S113451010928A0402C013821282B0938904A09379
S11345208804DF91CF910895A0E0B0E0EAE9F2E2D7
S11345300C940024EC01009721F4CB010E94732118
S1134540B4C0FC01E60FF71F9C0122503109E217A9
S1134550F30708F4A8C0D9010D911C91119706170F
S11345601707B0F00530110508F49BC0C801049783
S11345708617970708F495C002501109061B170BFC
S1134580019311936D937C93CF010E940B2289C0F8
S11345905B01A01AB10A4C01800E911EA0918A04FD
S11345A0B0918B04612C712CE12CF12C109709F43F
S11345B046C08D919C911197A815B905B1F56C0170
S11345C042E0C40ED11CCA14DB0478F14C018A18F1
S11345D09B08640142E0C40ED11C1296BC90129751
S11345E01396AC91B5E0CB16D10440F0B282A3830C
S11345F091828082D9016D937C9309C00E5F1F4F15
S1134600800F911FF90191838083EB2DFA2FE11420
S1134610F10431F0D7011396FC93EE93129741C045
S1134620F0938B04E0938A043CC06816790608F47E
S11346303C017D0112960D90BC91A02DB7CF8091C5
S113464088049091890488169906E1F46616770621
S1134650C8F48091000190910101009741F48DB755
S11346609EB74091040150910501841B950BE817F6
S1134670F907C8F4F0938904E0938804F90171837D
S113468060830FC0CB010E9473217C01009759F015
S1134690A801BE010E94A423CE010E940B22C701DF
S11346A004C0CE0102C080E090E0CDB7DEB7EEE0FA
S11346B00C941C24FC0188279927E894219120322A
S11346C0E9F3293010F02E30C8F32B3241F02D32AB
S11346D039F4689404C00E94CA23820F911D219169
S11346E020532A30C0F31EF4909581959F4F08956E
S11346F0FB01DC018D91059080190110D9F3990B10
S11347000895FC0105900020E9F7809590958E0F9F
S11347109F1F0895FB0155915523A9F0BF01DC01AA
S11347204D9145174111E1F759F4CD010590002051
S113473049F04D9140154111C9F3FB014111EFCFEF
S113474081E090E001970895FB01DC0102C0019033
S11347500D9241505040D8F70895FC01819186177D
S113476021F08823D9F7992708953197CF01089527
S1134770FB01DC0101900D920020E1F70895BB27B5
S11347804A3031F4992322F4BDE2909581959F4FEC
S11347900C94D3237AE0979F902D879F802D910DC1
S11347A011240895BB27FB015527AA27880F991FB9
S11347B0AA1FA41710F0A41B83955051B9F7A05D4C
S11347C0AA3308F0A95DA193009779F7B111B193C9
S11347D01192CB010C94EC23DC01FC01672F719145
S11347E07723E1F7329704C07C916D9370836291D3
S11347F0AE17BF07C8F308952F923F924F925F926E
S11348006F927F928F929F92AF92BF92CF92DF92DC
S1134810EF92FF920F931F93CF93DF93CDB7DEB741
S1134820CA1BDB0B0FB6F894DEBF0FBECDBF0994D5
S11348302A88398848885F846E847D848C849B842C
S1134840AA84B984C884DF80EE80FD800C811B813A
S1134850AA81B981CE0FD11D0FB6F894DEBF0FBE69
S1134860CDBFED01089513E0C4ECD3E004C0FE0114
S11348700E946D212196C53CD107C9F7F894FFCF5A
S113488000008C042000012C00415449005E5A00B1
S11348902B434D4753004F4B0041542B434D47444A
S11348A03D30303000222C22003A0000000000FB92
S11348B0033E1AEF03070413041F04494141414511
S11348C05F524D6F6E56335F005377697463686946
S11348D06E67206F66662E2E2E00000000003517CE
S11348E00817A616AE16C216D11600000000CF187F
S11348F03E1A72188C187E1816190D0A006E616E15
S113490000696E66006F76660000000000B21E3E0D
S10D49101A1B1F911E031F021F0053
S9030000FC
