:100000000C945A030C9482030C9482030C94431CAA
:100010000C94431C0C94431C0C9482030C94820398
:100020000C9482030C9482030C9482030C9482033C
:100030000C9482030C9482030C9482030C9482032C
:100040000C94E6180C9482030C94B7160C94E916E1
:100050000C9482030C9482030C9482030C9482030C
:100060000C9463100C948203093C2D2D2D20000963
:100070002D2D2D3E2000093C2D2D2D2000092D2D4C
:100080002D3E2000535041434500093C2D2D2D208D
:100090000041542B43474154543D300041542B53AD
:1000A000415042523D302C310041542B4349505372
:1000B0004855540053485554204F4B0041542B434E
:1000C000494943520041542B53415042523D312C37
:1000D000310041542B53415042523D332C312C229C
:1000E000505744222C0041542B53415042523D332F
:1000F0002C312C2255534552222C0041542B435372
:1001000054543D2200092D2D2D3E200041542B43F7
:100110005354543D220041542B53415042523D33DD
:100120002C312C2241504E222C0041542B53415053
:1001300042523D332C312C22434F4E5459504522CC
:100140002C2247505253220041542B4347415454D0
:100150003D310041542B43495053485554005348B6
:100160005554204F4B0041542B435245473F002BE1
:10017000435245473A200041542B435245473F00E4
:100180002B435245473A200041542B435351002BF7
:100190004353513A200041542B435351002B4353B6
:1001A000513A200053494D3830382052313400093B
:1001B0003C2D2D2D2000092D2D2D3E200041544594
:1001C000300041544530004154204661696C2E2E68
:1001D0002E206C6173742064697463682061747488
:1001E000656D70742E00415400415400415400412B
:1001F0005400415400415400417474656D70746939
:100200006E6720746F206F70656E20636F6D6D2058
:100210007769746820415473004F4B00464F4E413C
:100220006E657400446174612041727220537A20BB
:100230007761732000426F6F7420232077617320F1
:10024000004D6F64756C6520494420776173200010
:1002500054656D70657261747572652057415320E5
:1002600000505620574153200043757272656E74DA
:10027000205741532000426174742057415320009D
:100280004572726F723D00207C200054656D703D98
:1002900000207C200043757272656E743D00207CE6
:1002A000200050562D563D00207C20004261747481
:1002B0002D563D0052535349204572726F723F3D97
:1002C00000207C20002C204572726F723D002C2093
:1002D0005374617475733D004E6574776F726B2D46
:1002E00052656720526573436F64653D00207C2032
:1002F000004245523D00207C2000525353493D00AE
:100300004142434445464748494A4B4C4D4E4F5065
:100310005152535455565758595A61626364656631
:100320006768696A6B6C6D6E6F70717273747576E5
:100330007778797A303132333435363738392B2F74
:10034000004265686176696F7572004E6F7720773D
:10035000616974696E6720666F72206120776869D1
:100360006C65206265666F726520636865636B69A2
:100370006E67207369676E616C00496E69746961AC
:100380006C6973696E67206D6F64756C6520746F3E
:100390002073656E6420646174610054616B696EE2
:1003A000672072656164696E67732E2E2E00457238
:1003B000726F7220696E697469616C6973696E67C6
:1003C00020677072732E2E2E00496E697469616CFD
:1003D0006973696E6720677072732E2E2E004572E6
:1003E000726F7220696E697469616C6973696E6796
:1003F00020666F6E612E2E2E00496E697469616CE5
:100400006973696E6720666F6E612E2E2E005374BD
:10041000617274696E672E2E2E002D2D2D2D2D2DBF
:100420002D2D2D2D2D2D2D2D2D2D2D2D2D2D2D2DFC
:100430002D2D0047534D205061796C6F616420541D
:100440006F2042652053656E74204F766572205789
:1004500065623A002D2D2D2D2D2D2D2D2D2D2D2D7F
:100460002D2D2D2D2D2D2D2D2D2D2D2D2D2D002AEC
:100470002A2A20454E432054455354204641494C96
:10048000204035202A2A2A002A2A2A20454E4320A5
:1004900054455354204641494C204034202A2A2AAE
:1004A000002A2A2A20454E432054455354204641D1
:1004B000494C204033202A2A2A002A2A2A20454E45
:1004C000432054455354204641494C204032202A71
:1004D0002A2A002A2A2A20454E43205445535420D4
:1004E0004641494C204031202A2A2A002A2A2A2023
:1004F00054455354204641494C2040454E434F44B7
:10050000494E47202A2A2A002D2D2D2D2D2D2D2D07
:100510002D2D2D2D2D2D2D2D2D2D2D2D2D2D2D2D0B
:100520002D2D005465737420466F72205072696ED1
:1005300074204F75747075743A002A2A2A20544525
:100540005354204641494C20403130202A2A2A0069
:100550002A2A2A2054455354204641494C204039E8
:10056000202A2A2A002A2A2A205445535420464168
:10057000494C204038202A2A2A002A2A2A20544579
:100580005354204641494C204037202A2A2A002A29
:100590002A2A2054455354204641494C20403620B5
:1005A0002A2A2A002A2A2A205445535420464149FF
:1005B0004C204035202A2A2A002A2A2A2054455332
:1005C00054204641494C204034202A2A2A002A2A15
:1005D0002A2054455354204641494C204033202A78
:1005E0002A2A002A2A2A2054455354204641494C9D
:1005F000204032202A2A2A002A2A2A2054455354ED
:10060000204641494C204031202A2A2A0043617368
:1006100074206261636B20616674657220696E7418
:100620002073746F726167652076616C3A004E6565
:1006300074737461742035202B20526573756C744B
:10064000436F64652031202B204572726F72203118
:100650003D00000000080002010000030407000044
:100660000000000000000102040810204080010288
:1006700004081020010204081020040404040404E7
:100680000404020202020202030303030303000044
:10069000000023002600290000000000250028009B
:1006A0002B0000000000240027002A006B0EF91226
:1006B00019177B0E11241FBECFEFD8E0DEBFCDBFD0
:1006C00012E0A0E0B1E0E8EBF1E402C005900D9289
:1006D000A439B107D9F725E0A4E9B2E001C01D9221
:1006E000A537B207E1F713E0C9E5D3E004C02197CD
:1006F000FE010E943E1EC635D107C9F70E9447176A
:100700000C94CF200C940000835E9E4FDC018D91F1
:100710009C91DC01ED91FC910480F581E02D099420
:10072000835E9E4FDC018D919C91DC01ED91FC91EB
:100730000190F081E02D0994835E9E4FDC018D9144
:100740009C91DC01ED91FC910680F781E02D0994EC
:10075000835E9E4FDC018D919C91DC01ED91FC91BB
:100760000084F185E02D0994835E9E4FDC018D911C
:100770009C91DC01ED91FC910284F385E02D0994BC
:10078000CF92DF92EF92FF920F931F93CF93DF935D
:1007900000D000D000D0CDB7DEB78C01C62ED42E4D
:1007A000FC011382128288EE93E0A0E0B0E0848323
:1007B0009583A683B7838AE391E09183808383E066
:1007C00086877801FBEEEF1AFEEFFF0A66E772E01C
:1007D000C7010E94EB1AF801C486D586E25FFE4F7E
:1007E0008CE192E09183808332961182108232965E
:1007F000118210823B9611821082399781E08083AA
:1008000067E071E0CE0101960E94EB1ABE016F5FB6
:100810007F4FC7010E94561BCE0101960E947D1A90
:10082000F801E55EFE4F89E192E091838083269690
:100830000FB6F894DEBF0FBECDBFDF91CF911F91F1
:100840000F91FF90EF90DF90CF9008958B5E9E4FB9
:100850000C94361B0F931F93CF93DF93EC0180E032
:1008600090E08C010F5F1F4F8897D8F4E881F981E1
:100870000480F581E02DCE010995892B51F0E881A6
:10088000F9810680F781E02DCE01099500E010E0A6
:10089000EDCF61E070E080E090E00E945519C80162
:1008A000E0CFDF91CF911F910F910895BF92CF922A
:1008B000DF92EF92FF920F931F93CF93DF937C0110
:1008C000B42E8B01000F111F000F111FC0E0D0E0EC
:1008D000670183EEC81A8EEFD80A01151105C9F118
:1008E000CE3FD10598F064E870E087E894E00E947C
:1008F000C8172FC0F60180819181DC01ED91FC9138
:100900000680F781E02D09958D3069F4D6018D912F
:100910009C91DC01ED91FC910480F581E02D09951D
:10092000892B41F70CC08A3021F4209779F3BB2042
:1009300081F0F701EC0FFD1F87872196E7CF01506B
:10094000110939F061E070E080E090E00E945519F3
:10095000C4CFF701EC0FFD1F17868C2FDF91CF91CD
:100960001F910F91FF90EF90DF90CF90BF9008956F
:100970000F931F93CF93DF93EC018B01BA0140E0FB
:100980000E9456046AE870E087E894E00E94971796
:100990002F96BE0187E894E00E94DA17B801CE01D5
:1009A0000E94492021E0892B09F020E0822FDF916D
:1009B000CF911F910F910895EF92FF920F931F9384
:1009C000CF93DF93EC018B017A010E942A046DE73B
:1009D00070E087E894E00E949717B80187E894E0F8
:1009E0000E94C817FE01E35EFE4FB801808191812D
:1009F0000E94C81740E0B701CE010E945604182F8C
:100A000066E770E087E894E00E949717BE01615F97
:100A10007F4F87E894E00E94DA17812FDF91CF9112
:100A20001F910F91FF90EF900895AF92BF92CF92D8
:100A3000DF92EF92FF920F931F93CF93DF93EC011E
:100A40006B017A0159010E942A046FE670E087E881
:100A500094E00E949717B60187E894E00E949717E8
:100A600062E287E894E00E94BD17B70187E894E04E
:100A70000E94971762E287E894E00E94EC178E01CB
:100A8000035E1E4FB601F801808191810E94971785
:100A900062E2F801808191810E94BD17B701F801DF
:100AA000808191810E94971762E2F8018081918193
:100AB0000E94EC1740E0B501CE010E945604182FA9
:100AC00068E670E087E894E00E949717BE01615FD6
:100AD0007F4F87E894E00E94DA17812FDF91CF9152
:100AE0001F910F91FF90EF90DF90CF90BF90AF904C
:100AF00008950F931F93CF93DF93EC018A01A9010F
:100B00000E94DC04882341F0B801CE010F960E94B8
:100B1000492021E0892B09F020E0822FDF91CF913D
:100B20001F910F910895CF92DF92EF92FF920F9352
:100B30001F93CF93DF93EC01F62EE42E8FE190E02C
:100B40000E9456178C0120E04E2D6F2D0E940F1D24
:100B50007E0183EEE81A8EEFF80AD7010D931C93FD
:100B600040EC52E160E070E0C8010E943A1D61E093
:100B70008C850E94121A61E08C850E944E1A6AE0F0
:100B800070E080E090E00E94551960E08C850E9442
:100B90004E1A64E670E080E090E00E94551961E032
:100BA0008C850E944E1A68EF71E087E894E00E94FD
:100BB000C8178EE0C82ED12C8E01055E1E4FF7019E
:100BC00080819181DC01ED91FC910480F581E02D23
:100BD0000995892B59F0F70180819181DC01ED9114
:100BE000FC910680F781E02D0995E9CFF80140815D
:100BF000518124EF31E065EF71E0CE010E9479056B
:100C0000811134C0D7018D919C91DC01ED91FC9153
:100C10000480F581E02D0995892B59F0F701808139
:100C20009181DC01ED91FC910680F781E02D099521
:100C3000E9CF24EF31E042EF51E06FEE71E0CE01F9
:100C40000E947905811112C064EF71E080E090E0AC
:100C50000E945519B1E0CB1AD10809F0B0CF5EC09F
:100C600064E670E080E090E00E945519F801408150
:100C7000518124EF31E062EC71E0CE010E947905F0
:100C800064E670E080E090E00E945519D8014D9133
:100C90005C9124EF31E06DEB71E0CE010E947905AB
:100CA000811102C012E001C011E064E670E080E052
:100CB00090E00E945519CE010E942A0466EB71E073
:100CC00087E894E00E94971766E171E087E894E076
:100CD0000E94DA1766E171E0F701808191810E943C
:100CE000DA1741E064EF71E0CE010E9456046FEA2A
:100CF00071E087E894E00E9497172F96BE0187E87D
:100D000094E00E94DA1764EA71E0CE010E945B2051
:100D1000892B11F0812F35C084E033C0D8014D916B
:100D20005C9124EF31E06CEE71E0CE010E94790518
:100D300064E670E080E090E00E945519F80140817F
:100D4000518124EF31E069EE71E0CE010E94790516
:100D500064E670E080E090E00E945519D8014D9162
:100D60005C9124EF31E066EE71E0CE010E947905DE
:100D7000811176CF67EC71E087E894E00E94C81794
:100D800083E0DF91CF911F910F91FF90EF90DF9063
:100D9000CF900895EF92FF920F931F93CF93DF931D
:100DA000EC01790198010E941505B701CE010F965B
:100DB0000E94492021E0892B09F020E0822FDF9159
:100DC000CF911F910F91FF90EF9008957F928F9296
:100DD0009F92AF92BF92CF92DF92EF92FF920F93CA
:100DE0001F93CF93DF93EC0128EE3DEF662309F4C8
:100DF0001FC14EE551E063E571E00E947905811164
:100E000003C082E0782E02C0772473947E0185EEC1
:100E1000E81A8EEFF80AF7014081518120E137E2AC
:100E200068E471E0CE010E947905882309F425C1A8
:100E3000F7014081518120E137E26AE271E0CE01A1
:100E40000E947905882309F41AC14E01F2EF8F1A26
:100E5000FEEF9F0AF401408151814115510571F463
:100E6000F701408151812FEF3FEF65EC70E0CE013B
:100E70000E9479058111CEC089E00EC1F701208161
:100E8000318100E117E266E171E0CE010E94CA06FD
:100E9000882309F4F6C0CE010E942A048E01035E65
:100EA0001E4F6CE071E0F801808191810E949717DC
:100EB000F40160817181F801808191810E9497170E
:100EC0005E01F0EFAF1AFEEFBF0AF501808191815C
:100ED000892B79F062E371E0F801808191810E94B1
:100EE000BB17F50160817181F801808191810E94B9
:100EF00097176E01FEEECF1AFEEFDF0AF601808132
:100F00009181892B79F062E371E0F8018081918110
:100F10000E94BB17F60160817181F8018081918187
:100F20000E94971764E371E0F801808191810E942B
:100F3000DA1765E071E087E894E00E9497176BEF9D
:100F400070E087E894E00E949717F4016081718156
:100F500087E894E00E949717F50180819181892BA1
:100F600069F062E371E087E894E00E94BB17F50145
:100F70006081718187E894E00E949717F601808173
:100F80009181892B69F062E371E087E894E00E9427
:100F9000BB17F6016081718187E894E00E94971782
:100FA00064E371E087E894E00E94DA17F70160815A
:100FB000718140E157E2CE010E94B804882309F410
:100FC00062C0F501408151814115510539F4F601A6
:100FD000408151814115510579F442CFF7012081BB
:100FE000318100E117E266EE70E0CE010E94CA0690
:100FF0008111EDCF87E050C0F7012081318100E100
:1010000017E262ED70E0CE010E94CA06811128CF7E
:1010100088E042C0F701408151812FEF3FEF6CEB38
:1010200070E0CE010E947905882379F1872D34C0C4
:1010300044EB50E069EA70E00E947905882339F1B9
:101040008E01055E1E4FF8014081518120E137E29B
:101050006CE970E0CE010E9479058823D1F0F80197
:101060004081518120E137E261E970E0CE010E94C8
:101070007905882381F081E00FC083E00DC084E012
:101080000BC085E009C086E007C08AE005C08BE0A0
:1010900003C08CE001C08DE0DF91CF911F910F91D3
:1010A000FF90EF90DF90CF90BF90AF909F908F9088
:1010B0007F900895AF92BF92CF92DF92EF92FF920E
:1010C0000F93CF93DF935B016A01E22E0F960E948C
:1010D0005B20EC01892BC1F0C5010E9452208C0FCE
:1010E0009D1FC0E0F12CC01741F0B7010E947E2087
:1010F000009751F00196CF5FF6CF0E942B20F601AA
:101100009183808381E001C080E0DF91CF910F91D6
:10111000FF90EF90DF90CF90BF90AF900895AF9287
:10112000BF92CF92DF92EF920F931F93CF93DF93F3
:10113000EC016A015901102F0E2D44EF51E00E947D
:10114000DC04212FA501B601CE010E945A08182FF8
:10115000882331F040E064EF71E0CE010E94560434
:10116000812FDF91CF911F910F91EF90DF90CF9062
:10117000BF90AF900895CF92DF92EF92FF920F93BE
:101180001F93CF93DF93CDB7DEB728970FB6F894B0
:10119000DEBF0FBECDBF6C0118861F821E821D826E
:1011A0001C821B821A821982E12C0CE29E01295FAB
:1011B0003F4F4DE951E066E971E00E948F08F82E3B
:1011C000EE24E3949E012B5F3F4F4FE851E068E827
:1011D00071E0C6010E948F08882319F081E0F8268B
:1011E00002C0FF24F394E12C0CE29E012D5F3F4FDF
:1011F00040E851E067E771E0C6010E948F0888234C
:1012000011F01B8101C010E2EE24E3940CE29E0178
:101210002F5F3F4F4FE651E066E671E0C6010E9446
:101220008F08811103C0912F906202C09981912B88
:101230007D816F818F2D28960FB6F894DEBF0FBE8B
:10124000CDBFDF91CF911F910F91FF90EF90DF9075
:10125000CF900895FC0110821282118213821482B1
:1012600015821782118610861386128614860895B9
:10127000CF93DF93EC01FB018881808389819A8180
:10128000928381838C8583834C858AE0489FA0016B
:1012900011246A857B85CF0104960E94752066E73C
:1012A00072E087E894E00E94971766E471E087E8AF
:1012B00094E00E94BB17EA85FB85628573854AE04E
:1012C00050E087E894E00E94731869E672E087E8CE
:1012D00094E00E94971766E471E087E894E00E942A
:1012E000BB17EA85FB85668D778D4AE050E087E87D
:1012F00094E00E94731861E672E087E894E00E942F
:10130000971766E471E087E894E00E94BB17EA85CE
:10131000FB8562A973A94AE050E087E894E00E9447
:10132000731860E572E087E894E00E94971766E41E
:1013300071E087E894E00E94BB17EA85FB85EA5BD1
:10134000FF4F608171814AE050E087E894E0DF91CF
:10135000CF910C9473180F931F93CF93DF93EC01ED
:101360008B01FB018081888361E472E087E894E06F
:101370000E94971766E471E087E894E00E94BB172B
:101380004AE050E0688187E894E00E945B18F80129
:10139000818192819A83898365E372E087E894E092
:1013A0000E94971766E471E087E894E00E94BB17FB
:1013B00069817A814AE050E087E894E00E947318DE
:1013C000F80183818C8764E272E087E894E00E94F0
:1013D000971766E471E087E894E00E94BB174AE043
:1013E00050E06C8587E894E00E945B184C85FAE039
:1013F0004F9FA0011124B8016C5F7F4F8A859B85A8
:101400000E9475208A859B85DF91CF911F910F9156
:101410000C94BE0AFC017387628744870895CF93BA
:10142000DF93EC016AEF72E087E894E00E9497177F
:101430004AE050E0688187E894E00E94541866EF23
:1014400072E087E894E00E94971761EF72E087E806
:1014500094E00E9497174AE050E0698187E894E0A1
:101460000E9454186DEE72E087E894E00E9497178E
:1014700068ED72E087E894E00E9497176B816370D3
:1014800070E04AE050E087E894E00E94CD186EECEE
:1014900072E087E894E00E9497176B816C7170E0AE
:1014A00075956795759567954AE050E087E894E0F3
:1014B0000E94CD1865EC72E087E894E00E949717CF
:1014C0006B8165FB662760F94AE050E070E087E8D1
:1014D00094E00E94CD1861EC72E087E894E00E94ED
:1014E000971764EB72E087E894E00E9497174AE050
:1014F00050E06A8187E894E0DF91CF910C945B180B
:10150000CF92DF92EF92FF920F931F93CF93DF93CF
:101510007B018C01C0E0D0E085E0C82ED12CCE1537
:10152000DF0519F1209779F0CE01B6010E94D51D93
:10153000892B49F44AE050E0F801608187E894E0A3
:101540000E945B1808C04AE050E0F801608187E81B
:1015500094E00E94541865EF71E087E894E00E94DF
:10156000BB1721960F5F1F4FDACFDF91CF911F91ED
:101570000F91FF90EF90DF90CF900895CF93DF937E
:10158000EC016CEA72E087E894E00E9497176981A9
:101590007A814AE050E087E894E00E946D1868EA9A
:1015A00072E087E894E00E94971762EA72E087E8A9
:1015B00094E00E9497176D817E814AE050E087E8B1
:1015C00094E00E946D186EE972E087E894E00E9452
:1015D000971765E972E087E894E00E9497176B819E
:1015E0007C814AE050E087E894E00E946D1861E950
:1015F00072E087E894E00E9497176BE872E087E852
:1016000094E00E9497176F8178854AE050E087E860
:1016100094E00E94731867E872E087E894E00E9403
:10162000971760E872E087E894E00E9497174AE015
:1016300050E0698587E894E0DF91CF910C945B18C6
:101640009C012E5F3F4FE3E0F0E0C901BF010E9423
:10165000E91DA901481B590BCA01BF010E94E91DE0
:10166000CB01880F991F880F991F0895DC01FB019A
:101670008081869586958C938081837091819295E7
:101680009F7020E1829F900D112411969C931197D9
:1016900091819F70990F990F228122952695269509
:1016A0002370920F12969C93129782818F731396D8
:1016B0008C9308956F927F928F929F92AF92BF9278
:1016C000CF92DF92EF92FF920F931F93CF93DF930E
:1016D000CDB7DEB727970FB6F894DEBF0FBECDBFEC
:1016E0006C015B013B01640E751EE12CF12C00E0E6
:1016F00010E04E0185E0880E911C6A147B0449F1CC
:10170000C8010196F50121915F01F401E00FF11F7D
:1017100020838330910511F08C01EFCFB401CE010D
:1017200001960E94360BDE011196C6018E0D9F1D9B
:10173000ED91F0E0E050FD4F2491FC012193CF01A9
:10174000A815B905A9F7F4E0EF0EF11C80E090E0D0
:10175000E3CF0115110509F43CC0BE016B5F7F4F5B
:10176000FB01E00FF11FCF01861B970B039714F4C9
:101770001192F9CFCE0101965C010E94360BC60191
:101780008E0D9F1DD501ED91F0E0E050FD4F2491AD
:10179000FC012193CF019D012A193B090217130770
:1017A00094F7FFEFEF1AFF0AE00EF11EF601EE0DBF
:1017B000FF1D0C191D090E191F098DE37F01EC187F
:1017C000FD0898012E0F3F1F2330310514F481933B
:1017D000F5CFF601EE0DFF1D1082C70127960FB65B
:1017E000F894DEBF0FBECDBFDF91CF911F910F9157
:1017F000FF90EF90DF90CF90BF90AF909F908F9031
:101800007F906F900895DC01FB0191819073929518
:101810009F702081220F220F920F9C9392819C73C4
:1018200096959695818120E1829F900D11241196C5
:101830009C9311979281838120E4929F800D1124C3
:1018400012968C9308959FEB980F9A3190F09FE930
:10185000980F9A3110F48754089590ED980F9A30AC
:1018600010F48C5F08958B3231F08F3231F08FEFAE
:101870000895892F08958EE308958FE308954F9278
:101880005F926F927F928F929F92AF92BF92CF9210
:10189000DF92EF92FF920F931F93CF93DF93CDB719
:1018A000DEB727970FB6F894DEBF0FBECDBF3C0161
:1018B0007B012B01440E551EC12CD12C00E010E001
:1018C0005E0185E0A80EB11C4E0198E0890E911CC6
:1018D000E414F504A9F1F70121917F012D3381F181
:1018E000C8010196E1E0F0E0EC0FFD1FE00FF11FF1
:1018F00020838430910511F08C01EACF8E010F5FB7
:101900001F4FF80180810E94230CF80181938F0101
:10191000AE16BF06B1F7BE016F5F7F4FC5010E94D3
:10192000030CF501D301AC0DBD1D81918D93E8151C
:10193000F905D9F7F3E0CF0ED11C80E090E0DCCFC1
:101940000115110599F1CE0101965C01FC01E00F32
:10195000F11F7501CF018A199B09049714F41192A4
:10196000F8CF4E0195E0890E911CF70180810E940D
:10197000230CF70181937F01E815F905B1F7B50153
:10198000CF010E94030CF7019601D301AC0DBD1DE0
:1019900080E090E0015011096C01C20ED31E801747
:1019A000910724F441914D930196F6CFF301EC0D8C
:1019B000FD1D1082C60127960FB6F894DEBF0FBE3C
:1019C000CDBFDF91CF911F910F91FF90EF90DF90EE
:1019D000CF90BF90AF909F908F907F906F905F90CF
:1019E0004F9008950F931F93CF93DF93CDB7DEB73A
:1019F0002C970FB6F894DEBF0FBECDBF082F69EF4E
:101A000073E087E894E00E94C81742E063E084EA4C
:101A100092E00E949305182F8DEF810F8230B8F469
:101A20006EED73E087E894E00E94971766E471E03A
:101A300087E894E00E94BB17612F70E04AE050E015
:101A400087E894E00E94D41800E010E04DC08CE9D3
:101A500092E00E94F10E682F70E0685B7E4FCE012D
:101A600007960E94EB1ABE01695F7F4FCE01019677
:101A70000E944D1BBE016F5F7F4F84EA92E00E947F
:101A80002604CE0101960E947D1A011103C004EACA
:101A900012E026C069EC73E087E894E00E94C81762
:101AA00061E084EA92E00E94E606182F8FEF810F32
:101AB000823068F36EEA73E087E894E00E9497173B
:101AC00066E471E087E894E00E94BB17612F70E044
:101AD0004AE050E087E894E00E94D41800E010E06B
:101AE000CE0107960E947D1AC8012C960FB6F89475
:101AF000DEBF0FBECDBFDF91CF911F910F91089533
:101B000066E571E087E894E00E94DA1760E085E01E
:101B10000E944E1A68EB7BE080E090E00C9455192F
:101B200061E085E00E94121A61E085E00E944E1A91
:101B300068EB7BE080E090E00E94551961E08DE069
:101B40000E94121A26E040E855E260E070E087E863
:101B500094E00E9452166EE074E087E894E00E94E0
:101B6000C8170E94FD120C94800DCF93DF93CDB760
:101B7000DEB72A970FB6F894DEBF0FBECDBF6BE974
:101B800073E087E894E00E94C81781E089831B8294
:101B90001A821D821C821F821E82198618861A864E
:101BA000BE016F5F7F4F8AE992E00E94290F81E0BA
:101BB0002A960FB6F894DEBF0FBECDBFDF91CF914E
:101BC0000895CF93DF9300D000D0CDB7DEB78091DA
:101BD000960291E0980F90939602811115C06AE7E2
:101BE00073E087E894E00E94C81781E00E94F20C3D
:101BF0009093980280939702892BF9F06BE473E03D
:101C000087E894E00E94C817809196028C33B9F45B
:101C100080919702909198020E94BB0869837A8311
:101C20008B839C83CE0101960E940F0A109296022C
:101C3000109298021092970202C081E001C080E0E9
:101C40000F900F900F900F90DF91CF91089568EE55
:101C500073E080E090E00E94551980919402909189
:101C600095020196909395028093940261E473E04B
:101C700087E894E00E94971766E471E087E894E0B3
:101C80000E94BB174AE050E06091990287E894E017
:101C90000E945B188091990280FF09C00E94B50DD7
:101CA000882329F0809199028E7F809399028091F8
:101CB000990281FF09C00E94E10D882329F08091DB
:101CC00099028D7F8093990280919902811102C0BF
:101CD0000C94800D089541E064E084EA92E00E9453
:101CE000C00360E08CE992E00E948C0E61E08AE91A
:101CF00092E00C94F50E8AE391E09093A502809314
:101D0000A40289EB93E00C947D1ADC01ED91FC9127
:101D10000190F081E02D0994FC011182128213825E
:101D2000148280E88583868317826083611104C0F2
:101D300081E394E00C945E120895EF92FF920F936A
:101D40001F93CF93DF93EB017B01E40EF11C8C0119
:101D5000CE15DF0571F160E570E081E394E00E944B
:101D60007A12612F70E081E394E00E94850EB80141
:101D7000772781E394E00E94850E81E394E00E943E
:101D8000F61241E050E060E570E081E394E00E94EB
:101D9000F31281E394E00E949011892B29F081E3F2
:101DA00094E00E94981101C08FEF89930F5F1F4F3D
:101DB000CFCFDF91CF911F910F91FF90EF900895BA
:101DC000CF93DF931F92CDB7DEB7CB0141E0BE01C9
:101DD0006F5F7F4F0E949D0E89810F90DF91CF91A1
:101DE000089560E070E00C94E00EFC0160830895BB
:101DF000FC018081811103C0862F0C94CC1985E0F1
:101E000090E00895FC01DB0181818F5F818390E088
:101E100012969C938E93119781812AE0829FC00134
:101E2000112416969C938E931597818167E00E94EA
:101E3000C91D892F90E014969C938E9313978181EE
:101E400024E6829FC001112418969C938E931797C5
:101E50000895AF92BF92CF92DF92EF92FF920F93CD
:101E60001F93CF93DF938C01EB01FC0180818823CA
:101E700021F0C8010E94020F1BC06EE0C8010E9441
:101E8000F80E6C016FE0C8010E94F80E5C0161E180
:101E9000C8010E94F80E7C0160E1C8010E94F80EA2
:101EA000BA82A982DE82CD82FC82EB8298878F8300
:101EB000CE01DF91CF911F910F91FF90EF90DF90B6
:101EC000CF90BF90AF900C94BE0A1092300481E086
:101ED00080932E0410922D0461E082E10E944E1A3C
:101EE00061E083E10E944E1AE9EBF0E080818E7F91
:101EF000808380818D7F808388E48093B80085E42F
:101F00008093BC000895413208F043C090913004A2
:101F10009111FCCF91E09093300420932E042FEF89
:101F20002093C30310920804240F20930704909376
:101F30002F0490912F04880F892B80932F04809178
:101F40002D04813061F410922D0480912F04809330
:101F5000BB008091BC0083FDF8CF85EC01C085EE0D
:101F60008093BC00809130048130E1F380910804BB
:101F7000841710F440910804A9E0B4E0962FFB0107
:101F80008E2F891B841718F48D918193F9CF842F9C
:101F9000089580E008950F93413208F04AC090916F
:101FA00030049111FCCF32E03093300400932E04C2
:101FB0003FEF3093C3031092080440930704562F59
:101FC000A9E0B4E0FB013E2F351B341718F4319122
:101FD0003D93F9CF10922F0430912F04880F832B5B
:101FE00080932F0480912D04813061F410922D0490
:101FF00080912F048093BB008091BC0083FDF8CFBB
:1020000085EC01C085EE8093BC00222321F08091F5
:1020100030048230D1F38091C3038F3F79F08091F7
:10202000C303803241F08091C303803331F094E0E8
:1020300005C091E003C092E001C093E0892F0F91A9
:1020400008954091E503262F30E0240F311D213201
:102050003105DCF4209130042430C9F4FC0180E027
:1020600090E0861758F43091E5032191DC01A951E5
:10207000BC4FA30FB11D2C930196F3CF8091E503C4
:10208000680F6093E50380E0089581E0089582E0A1
:10209000089590932A0480932904089590932C0422
:1020A00080932B04089585ED8093BC008091BC0043
:1020B00084FDFCCF10923004089585EC8093BC0021
:1020C0001092300408951F920F920FB60F921124B0
:1020D0002F933F934F935F936F937F938F939F9330
:1020E000AF93BF93EF93FF938091B900887F8036C1
:1020F00009F49EC078F5883209F45DC090F480310F
:1021000009F456C038F4882309F4F5C0883009F47E
:102110004FC0F5C0883109F44EC0803209F45FC069
:10212000EEC0803409F46AC058F4803309F457C013
:10213000883309F0E4C08093C3030E945D10DFC0C0
:10214000803509F44FC0883509F45DC0883409F042
:10215000D6C0D3C0883909F4C4C0A8F4883709F4BC
:1021600067C038F4883609F463C0803709F460C06A
:10217000C6C0883809F4B5C0803909F45FC080381A
:1021800009F0BDC05BC0803B09F483C038F4803ADD
:1021900009F466C0883A09F47CC0B1C0803C09F4F7
:1021A000A4C0883C09F4A1C0883B09F487C0A7C03B
:1021B00080912F0410C09091080480910704981713
:1021C00070F5E091080481E08E0F80930804F0E040
:1021D000E75FFB4F80818093BB0085EC83C08093D9
:1021E000C3038BC0E091080481E08E0F8093080444
:1021F0008091BB00F0E0E75FFB4F80839091080483
:10220000809107046BC0E091080481E08E0F8093F9
:1022100008048091BB00F0E0E75FFB4F8083809172
:102220002E0481116AC081E080932D0484EA5EC08F
:1022300083E0809330041092C403CFCF8091C40315
:10224000803208F04EC0E091C40381E08E0F80938D
:10225000C4038091BB00F0E0EB53FC4F8083BDCF03
:102260000E945D108091C403803230F4E091C40379
:10227000F0E0EB53FC4F10826091C40370E0E091FA
:102280002904F0912A0485EC93E009951092C40387
:1022900036C084E0809330041092E6031092E50388
:1022A000E0912B04F0912C0409958091E5038111B4
:1022B00005C081E08093E5031092E703E091E60317
:1022C00081E08E0F8093E603F0E0E951FC4F8081BE
:1022D0008093BB009091E6038091E503981708F482
:1022E0007CCF85E88093BC000AC085EC8093BC005D
:1022F0001092300404C01092C3030E945310FF9147
:10230000EF91BF91AF919F918F917F916F915F916D
:102310004F913F912F910F900FBE0F901F901895E6
:102320008091650490E020916604821B91090895D4
:102330009091660480916504981750F4E92FF0E0BD
:10234000E959FB4F208130E09F5F9093660402C003
:102350002FEF3FEFC9010895E09166048091650475
:10236000E81730F4F0E0E959FB4F808190E00895E0
:102370008FEF9FEF08950895CF93DF93EC01E091E5
:102380003D04F0913E043097F1F090916604809105
:1023900065049817C0F090E0292F30E02617370722
:1023A00054F4DE01A20FB31F4C91D901A959BB4FC0
:1023B0004C939F5FF1CF1092660460936504CB014C
:1023C000DF91CF910994DF91CF910895E0913F047F
:1023D000F0914004309729F0109243041092420487
:1023E00009940895CF92DF92EF92FF920F931F937B
:1023F000CF93DF937C01CB018A01209141042223FA
:1024000089F0EB016B01C40ED51ECC15DD0569F01A
:102410006991D701ED91FC910190F081E02DC70108
:102420000995F3CF642F0E942110C801DF91CF914D
:102430001F910F91FF90EF90DF90CF900895CF9371
:10244000DF931F92CDB7DEB7698320914104222329
:10245000D1F020914204203240F021E030E0FC0134
:102460003383228380E090E015C080914304E82FFD
:10247000F0E0EC5BFB4F998190838F5F8093430486
:102480008093420405C061E0CE0101960E942110B4
:1024900081E090E00F90DF91CF910895FC011382CD
:1024A000128288EE93E0A0E0B0E084839583A68357
:1024B000B7838BE691E09183808308951092660440
:1024C0001092650410924304109242040E94650F1A
:1024D00086EE91E10E944E108CEB91E10C94491034
:1024E00081E080934104609364041092430410924D
:1024F000420408950C9470120F93062F21E040912E
:10250000420464E474E0809164040E94CB0F109252
:10251000430410924204109241040F9108954F9287
:102520005F926F927F92AF92BF92CF92EF92FF92A3
:102530000F931F93CF93DF935C01F62ED42F2801C6
:102540003901EE2021F10E947012CE2DC43008F026
:10255000C3E0C150C0F028E0C29FC0011124A30114
:10256000920104C056954795379527958A95D2F7DD
:10257000CA01B901D501ED91FC910190F081E02DE6
:10258000C5010995E6CF60E0C5010E947C124D2F80
:10259000D13208F040E22C2D67E674E08F2D0E94C6
:1025A000830F1092660480936504DF91CF911F9191
:1025B0000F91FF90EF90CF90BF90AF907F906F9072
:1025C0005F904F900895CF92EF920F931F93C22E7A
:1025D000E12C00E010E098010E948F121F910F91F2
:1025E000EF90CF90089521E00C94E31261E00C94F9
:1025F0007C1281E394E00C944E12BF92CF92DF9252
:10260000EF92FF920F931F93CF93DF93CDB7DEB777
:10261000CE55D1400FB6F894DEBF0FBECDBFC55A20
:10262000DE4F1882CB55D140C45ADE4F1882CC55AC
:10263000D140C35ADE4F1882CD55D14085E3C25AEE
:10264000DE4F8883CE55D1406EE276E087E894E095
:102650000E949717C25ADE4F6881CE55D14070E074
:1026600042E050E087E894E00E94D418C25ADE4F5E
:102670001881CE55D1406DE076E087E894E00E9465
:102680009717612F70E042E050E087E894E00E94E5
:10269000D418812F8C7119F468EF75E013C0843061
:1026A00019F463EE75E00EC0883019F46EEC75E035
:1026B00009C08C3019F469EB75E004C0803139F43D
:1026C00064EA75E087E894E00E94C81702C084318C
:1026D00031F06FE875E087E894E00E94C817012F99
:1026E000037039F46AE775E087E894E00E94C81740
:1026F00002C0013071F065E675E087E894E00E9461
:10270000C817023031F460E575E087E894E00E9474
:10271000C81715FD06C06AE375E087E894E00E94DB
:10272000C81763E275E087E894E00E949717CE012E
:10273000855A9E4F0E940F0A68E075E087E894E092
:102740000E94C817F12C8E010B591F4F8AE0E82E0A
:10275000CE0101966C01C753DF4FF882C95CD040AF
:10276000F8018E2D11928A95E9F741E050E0BE0103
:1027700067537F4FC8010E945A0BF6018E2D1192AC
:102780008A95E9F74AE050E0B801C6010E943F0C83
:102790008981F81631F06CEE74E087E894E00E94CD
:1027A000C8179FEFF91611F0F394D5CFBB24B3945B
:1027B000CF5ADE4FB882C155D140C85ADE4F198278
:1027C0001882C855D14085E19FE4CE5ADE4F9983E7
:1027D0008883C255D1408FEF9FEFCC5ADE4F99834B
:1027E0008883C455D14083E0C65ADE4F8883CA55DA
:1027F000D14081E99DEFCA5ADE4F99838883C6553F
:10280000D140CE018F5A9E4F0E94BE0A67E771E009
:1028100087E894E00E94BB1766E471E087E894E0E3
:102820000E94BB174AE050E066E187E894E00E940E
:102830005B184AE050E0BE016F5A7E4FCE018753CD
:102840009F4F0E945A0B7C0165E971E087E894E094
:102850000E94BB17BE0167537F4F87E894E00E9438
:10286000DA176CEB71E087E894E00E94BB1766E42E
:1028700071E087E894E00E94BB178AE090E00E9434
:10288000200B4AE050E0BC0187E894E00E94D41895
:1028900065ED71E087E894E00E94BB1766E471E0A3
:1028A00087E894E00E94BB174AE050E0B70187E850
:1028B00094E00E94D41867EF71E087E894E00E94EA
:1028C000DA17C95BDE4FB882C754D140C85BDE4F10
:1028D00019821882C854D140C65BDE4F1982188213
:1028E000CA54D140C45BDE4F19821882CC54D14007
:1028F000C25BDE4F19821882CE54D140C05BDE4FDE
:102900001882C055D140A701BE0167537F4FCE0149
:10291000895B9E4F0E943F0C7C0166E372E087E872
:1029200094E00E94BB1766E471E087E894E00E949F
:10293000BB174AE050E0B70187E894E00E94D41842
:10294000CE01895B9E4F0E94BE0AC85BDE4F288184
:102950003981C854D140CE5ADE4F88819981C25501
:10296000D1402817390731F063ED74E087E894E02F
:102970000E94C817C65BDE4F28813981CA54D140F6
:10298000CC5ADE4F88819981C455D1402817390728
:1029900031F06AEB74E087E894E00E94C817C05BEE
:1029A000DE4F9881C055D140C65ADE4F8881CA5546
:1029B000D140981731F061EA74E087E894E00E9412
:1029C000C817C45BDE4F28813981CC54D140CA5A24
:1029D000DE4F88819981C655D1402817390731F0DB
:1029E00068E874E087E894E00E94C817C25BDE4F95
:1029F00028813981CE54D140C85ADE4F88819981CF
:102A0000C855D1402817390731F06FE674E087E8E0
:102A100094E00E94C81764E574E087E894E00E949F
:102A2000C817F60181E0808312821182148213821A
:102A3000168215821086178211863A960E171F0786
:102A400091F7CE01865C9E4F0E942A0981E2C65C06
:102A5000DE4F8883CA53D14082E094E0C55CDE4FEC
:102A600099838883CB53D1408FE0C35CDE4F88834A
:102A7000CD53D14083E0C25CDE4F8883CE53D1403A
:102A8000C15CDE4F1882CF53D14081E1C05CDE4F84
:102A90008883C054D1404AE0B601CE01865C9E4F87
:102AA0000E940A0A84E6F80111928A95E9F744E641
:102AB00050E0B801CE01865C9E4F0E94380963E366
:102AC00074E087E894E00E94C81764E170E0C801F0
:102AD0000E94800ACE01835D9E4F0E942A09B801A0
:102AE000CE01835D9E4F0E94AB096AE174E087E8E6
:102AF00094E00E94C817C25ADE4F0FB6F894DEBFAA
:102B00000FBECDBFDF91CF911F910F91FF90EF903E
:102B1000DF90CF90BF900895FC01918D228D892F79
:102B200090E0805C9F4F821B91098F7399270895D5
:102B3000FC01918D828D981731F0828DE80FF11D87
:102B4000858D90E008958FEF9FEF0895FC01918DA2
:102B5000828D981761F0828DDF01A80FB11D5D96FF
:102B60008C91928D9F5F9F73928F90E008958FEF6D
:102B70009FEF08958FE097E1892B49F080E090E086
:102B8000892B29F00E940F1781110C9400000895E1
:102B9000FC01848DDF01A80FB11DA35ABF4F2C91FA
:102BA000848D90E001968F739927848FA689B789C9
:102BB0002C93A089B1898C9180648C93938D848DA2
:102BC000981306C00288F389E02D80818F7D808371
:102BD0000895EF92FF920F931F93CF93DF93EC0131
:102BE00081E0888F9B8D8C8D981305C0E889F989C9
:102BF000808185FD24C0F62E0B8D10E00F5F1F4FE6
:102C00000F731127E02E8C8DE8120CC00FB607FC55
:102C1000FACFE889F989808185FFF5CFCE010E943E
:102C2000C815F1CF8B8DFE01E80FF11DE35AFF4F60
:102C3000F0820B8FEA89FB898081806207C0EE8970
:102C4000FF896083E889F98980818064808381E0DD
:102C500090E0DF91CF911F910F91FF90EF90089539
:102C6000CF93DF93EC01888D8823C9F0EA89FB8933
:102C7000808185FD05C0A889B9898C9186FD0FC02A
:102C80000FB607FCF5CF808185FFF2CFA889B989FF
:102C90008C9185FFEDCFCE010E94C815E7CFDF9163
:102CA000CF910895CF92DF92EF92FF921F93CF932F
:102CB000DF93EC016A017B01122FE889F98982E038
:102CC00080834115514E61057105B1F060E079E0F6
:102CD0008DE390E0A70196010E94FD1DDA01C90174
:102CE0000197A109B109B695A795979587959C017C
:102CF000211580E13807A8F0E889F989108260E899
:102D000074E88EE190E0A70196010E94FD1DDA01B2
:102D1000C9010197A109B109B695A795979587951E
:102D20009C01EC85FD853083EE85FF852083188E20
:102D3000EC89FD891083EA89FB8980818061808329
:102D4000EA89FB89808188608083EA89FB898081A8
:102D500080688083EA89FB8980818F7D8083DF9111
:102D6000CF911F91FF90EF90DF90CF9008951F9229
:102D70000F920FB60F9211242F938F939F93EF937F
:102D8000FF93E0919704F09198048081E0919D0475
:102D9000F0919E0482FD12C090818091A0048F5F0B
:102DA0008F732091A104821751F0E091A004F0E00C
:102DB000E957FB4F958F8093A00401C08081FF915C
:102DC000EF919F918F912F910F900FBE0F901F90B9
:102DD00018951F920F920FB60F9211242F933F93C5
:102DE0004F935F936F937F938F939F93AF93BF9313
:102DF000EF93FF9387E894E00E94C815FF91EF914D
:102E0000BF91AF919F918F917F916F915F914F9102
:102E10003F912F910F900FBE0F901F90189587E84C
:102E200094E00E948C1521E0892B09F420E0822F88
:102E30000895E7E8F4E01382128288EE93E0A0E0C0
:102E4000B0E084839583A683B78388E692E091837C
:102E5000808385EC90E09587848784EC90E0978769
:102E6000868780EC90E0918B808B81EC90E0938B57
:102E7000828B82EC90E0958B848B86EC90E0978B34
:102E8000868B118E128E138E148E089508950E94D3
:102E900091190E9446170E94900DCAEBD5E10E943D
:102EA000270E2097E1F30E94BA15F9CF0C94441E27
:102EB000CF92DF92EF92FF920F931F93CF93DF9306
:102EC0006C017A018B01C0E0D0E0CE15DF0581F006
:102ED000D8016D918D01D601ED91FC910190F081A9
:102EE000E02DC6010995892B11F02196EECF7E01C8
:102EF000C701DF91CF911F910F91FF90EF90DF906D
:102F0000CF9008956115710579F0FB0101900020C3
:102F1000E9F73197AF01461B570BDC01ED91FC91AE
:102F20000280F381E02D099480E090E00895EF9213
:102F3000FF920F931F93CF93DF938C017B01C0E02F
:102F4000D0E0F701EC0FFD1F6491662361F0D8011A
:102F5000ED91FC910190F081E02DC8010995892B3C
:102F600011F02196EECFCE01DF91CF911F910F91FD
:102F7000FF90EF9008950C948217DC01ED91FC9185
:102F80000190F081E02D099464E772E00C948217BF
:102F90000F931F93CF93DF93EC010E9497178C013F
:102FA000CE010E94C417800F911FDF91CF911F9116
:102FB0000F9108950F931F93CF93DF93EC010E941D
:102FC00082178C01CE010E94C417800F911FDF91E0
:102FD000CF911F910F9108950F931F93CF93DF937C
:102FE000EC010E94BD178C01CE010E94C417800F16
:102FF000911FDF91CF911F910F9108958F929F9212
:10300000AF92BF92EF92FF920F931F93CF93DF93F4
:10301000CDB7DEB7A1970FB6F894DEBF0FBECDBF18
:103020007C01FA01CB0119A2223008F42AE08E01BA
:103030000F5D1F4F822E912CA12CB12CBF01A50139
:1030400094010E94FD1DF901CA01015011096A3065
:1030500010F4605D01C0695CD8016C93232B242BB4
:10306000252B61F7B801C7010E948217A1960FB600
:10307000F894DEBF0FBECDBFDF91CF911F910F91AE
:10308000FF90EF90BF90AF909F908F900895211583
:10309000310541F4DC01ED91FC910190F081E02DCE
:1030A000642F09940C94FE179A01462F50E060E0BB
:1030B00070E00C9447180F931F93CF93DF93EC01AC
:1030C0000E9454188C01CE010E94C417800F911FDA
:1030D000DF91CF911F910F9108959A01AB0160E0AC
:1030E00070E00C9447180F931F93CF93DF93EC017C
:1030F0000E946D188C01CE010E94C417800F911F91
:10310000DF91CF911F910F910895CF92DF92EF92AF
:10311000FF920F931F93CF93DF932115310581F415
:10312000DC01ED91FC910190F081E02D642FDF91A5
:10313000CF911F910F91FF90EF90DF90CF90099466
:103140002A30310501F577FF1DC06A017B01EC01D2
:103150006DE20E94BD178C0144275527BA014C1916
:103160005D096E097F092AE0CE010E94FE17800FDB
:10317000911FDF91CF911F910F91FF90EF90DF9002
:10318000CF9008952AE0DF91CF911F910F91FF908A
:10319000EF90DF90CF900C94FE179A01AB01770F60
:1031A000660B770B0C9485180F931F93CF93DF93C7
:1031B000EC010E94CD188C01CE010E94C417800F33
:1031C000911FDF91CF911F910F9108951F920F9240
:1031D0000FB60F9211242F933F938F939F93AF932A
:1031E000BF938091250590912605A0912705B09168
:1031F00028053091240523E0230F2D3720F4019674
:10320000A11DB11D05C026E8230F0296A11DB11D09
:10321000209324058093250590932605A0932705E8
:10322000B09328058091290590912A05A0912B053E
:10323000B0912C050196A11DB11D80932905909395
:103240002A05A0932B05B0932C05BF91AF919F91B8
:103250008F913F912F910F900FBE0F901F90189557
:103260003FB7F8948091290590912A05A0912B05EC
:10327000B0912C0526B5A89B05C02F3F19F00196EB
:10328000A11DB11D3FBFBA2FA92F982F8827820FEC
:10329000911DA11DB11DBC01CD0142E0660F771F3C
:1032A000881F991F4A95D1F708958F929F92AF92E8
:1032B000BF92CF92DF92EF92FF926B017C010E944E
:1032C00030194B015C01C114D104E104F10401F196
:1032D0000E94C81D0E943019DC01CB018819990990
:1032E000AA09BB09883E9340A105B10560F321E01E
:1032F000C21AD108E108F10888EE880E83E0981E12
:10330000A11CB11CC114D104E104F10419F7DBCFF5
:10331000FF90EF90DF90CF90BF90AF909F908F90F5
:103320000895789484B5826084BD84B5816084BD3D
:1033300085B5826085BD85B5816085BDEEE6F0E02E
:10334000808181608083E1E8F0E01082808182608A
:103350008083808181608083E0E8F0E0808181600B
:103360008083E1EBF0E0808184608083E0EBF0E03B
:10337000808181608083EAE7F0E0808184608083DF
:103380008081826080838081816080838081806889
:1033900080831092C10008958E3008F08E502091E5
:1033A000060190E4299F900111248770822B80935D
:1033B0007C0080917A00806480937A0080917A000A
:1033C00086FDFCCF809178002091790090E0922BCF
:1033D0000895833081F028F4813099F08230A1F093
:1033E00008958730A9F08830B9F08430D1F4809105
:1033F00080008F7D03C0809180008F778093800054
:10340000089584B58F7702C084B58F7D84BD0895FB
:103410008091B0008F7703C08091B0008F7D809342
:10342000B0000895CF93DF9390E0FC01EA59F94F83
:103430002491FC01E658F94F8491882361F190E0D2
:10344000880F991FFC01EE55F94FC591D491FC01ED
:10345000E856F94FA591B491611109C09FB7F8944E
:103460008881209582238883EC912E230BC06230C3
:1034700061F49FB7F8948881322F30958323888335
:10348000EC912E2B2C939FBF06C08FB7F894E88148
:103490002E2B28838FBFDF91CF9108951F93CF9359
:1034A000DF93282F30E0F901EE5AF94F8491F901AA
:1034B000EA59F94FD491F901E658F94FC491CC2358
:1034C000C1F0162F81110E94E919EC2FF0E0EE0FE8
:1034D000FF1FE856F94FA591B4919FB7F8941111C9
:1034E00004C08C91D095D82302C0EC91DE2BDC93E4
:1034F0009FBFDF91CF911F910895FC018081918141
:103500000C94DC1ECF93DF93EC01888199810097A6
:1035100011F00E94DC1E198218821D821C821B82FF
:103520001A82DF91CF9108950F931F93CF93DF936A
:10353000EC018B016F5F7F4F888199810E94651F2D
:10354000009731F0998388831B830A8381E001C04F
:1035500080E0DF91CF911F910F910895CF93DF937A
:10356000EC0188819981892B29F08A819B818617BA
:10357000970760F4CE010E94941A882341F08C8151
:103580009D81892B19F4E881F981108281E0DF9116
:10359000CF910895EF92FF920F931F93CF93DF93F4
:1035A000EC017B018A01BA010E94AE1A811104C0AC
:1035B000CE010E94821A07C01D830C83B701888147
:1035C00099810E948920CE01DF91CF911F910F91A7
:1035D000FF90EF900895FC011182108213821282F5
:1035E000158214826115710551F0FB0101900020D4
:1035F000E9F73197AF01461B570B0C94CA1A08958F
:103600000F931F93CF93DF938C01EB01FC0180811B
:103610009181009799F0428153812C813D8142171D
:10362000530750F0688179810E9489208C819D81A7
:10363000F8019583848313C00E94DC1E88819981E0
:10364000F801918380838A819B81938382838C811B
:103650009D8195838483198218821B821A821D8220
:103660001C82DF91CF911F910F910895CF93DF932B
:10367000EC01FB018617970761F06081718161158C
:10368000710529F0448155810E94CA1A02C00E9426
:10369000821ACE01DF91CF910895FC011182108230
:1036A00013821282158214820C94361BCF93DF93FF
:1036B000EC018617970711F00E94001BCE01DF91E5
:1036C000CF91089520916F05309170052817390723
:1036D000B9F490912D0580912E05981789F0E0910D
:1036E0002D05F0E0E15DFA4F808120912D0530E05D
:1036F0002F5F3F4F2F73332720932D0590E00895C0
:103700008FEF9FEF08951F93CF93DF93DC015C96BB
:103710008D919C915D97009739F421E030E01396EC
:103720003C932E9312973BC05196ED91FC9152978A
:1037300050962C915097322F30951FB75E964C9132
:103740005E97742F727041FD6095F89440817723E5
:1037500011F0422B01C043234083EC012197F1F784
:1037600048E0508160FF02C0522B01C053235083B8
:10377000EC012197F1F76695415099F78081772305
:1037800019F08323808302C0282B20831FBF5C96FF
:103790008D919C915D970197F1F781E090E0DF9129
:1037A000CF911F910895089520916F053091700574
:1037B0002817390771F490912D0580912E059817DF
:1037C00041F0E0912D05F0E0E15DFA4F808190E05D
:1037D00008958FEF9FEF089520916F053091700548
:1037E0002817390771F480912E0520912D0590E05E
:1037F000805C9F4F821B910960E470E00E94E91D8C
:10380000089580E090E00895E0916F05F0917005D3
:10381000E817F90769F4A389B4899C918589809593
:1038200089238C931092700510926F0581E00895A2
:1038300080E00895CF93DF93EC018A8D9B8D892BD7
:10384000F1F080916F0590917005C817D907B9F014
:10385000009711F00E94041C8E8D8E7F8E8F109227
:103860002E0510922D05D0937005C0936F05EB893E
:10387000FC8990818D89892B808381E001C080E063
:10388000DF91CF9108951F920F920FB60F921124DE
:103890002F933F934F935F936F937F938F939F9358
:1038A000AF93BF93EF93FF93E0916F05F091700595
:1038B000309709F451C0968DA685B785858591FF0F
:1038C00004C09C91892329F447C09C91892309F065
:1038D00043C0A389B4899C918589809589238C9361
:1038E000868997890197F1F7608D718DA685B785D7
:1038F000558538E020E0CB010197F1F7822F90E069
:1039000095958795282F4C91452309F020683150D3
:1039100091F7868D81FD209580912E0590E001968E
:103920008F73992730912D05381749F0A0912E05F6
:10393000B0E0A15DBA4F2C9380932E0503C0868D15
:103940008160868F828D938D0197F1F7A389B48969
:103950009C918589892B8C93FF91EF91BF91AF91B9
:103960009F918F917F916F915F914F913F912F9197
:103970000F900FBE0F901F9018951F93CF93DF935A
:10398000EC01162F6E8D6695617081E06827812F9E
:103990000E944E1A61E0812F0E94121A812F90E03E
:1039A000FC01EA59F94FE491E88BFC01E658F94F24
:1039B000E491F0E0EE0FFF1FE856F94F85919491E6
:1039C0009A8B898BDF91CF911F9108951F93CF938D
:1039D000DF93EC01162F60E0812F0E94121A8E8D6A
:1039E00081FD04C061E0812F0E944E1A1C87812F47
:1039F00090E0FC01EA59F94FE491ED87FC01E658AB
:103A0000F94FE491F0E0EE0FFF1FE257F94F859177
:103A100094919F878E87DF91CF911F9108951F9377
:103A2000CF93DF93EC01162F1B821A8288EE93E06E
:103A3000A0E0B0E08C839D83AE83BF8387E892E0F3
:103A4000998388831F8A1E8A198E188E1B8E1A8E60
:103A50001D8E1C8E8E8D8E7F20FB81F98E8F642FA4
:103A6000CE010E94BD1C612FCE01DF91CF911F912D
:103A70000C94E61CCF93DF93EC019A01AB011B8EF3
:103A80001A8E198E188E1F8A1E8A60E079E08DE3E7
:103A900090E00E941F1EF9012430310518F0C90181
:103AA000039702C081E090E09D8F8C8F6C8566311A
:103AB00008F069C0C901969587958431910510F089
:103AC000439702C081E090E09F8B8E8B369718F071
:103AD000C901059702C081E090E0998F888FC901E4
:103AE000880F991F280F391F3695279536952795EA
:103AF0002D30310518F02C50310902C021E030E0A2
:103B00003B8F2A8F90916800683050F021E06E3032
:103B100008F420E081E001C0880F2A95EAF701C08F
:103B200084E0892B809368009C85983038F09E3023
:103B300040F0963148F020E030E008C02DE630E05B
:103B400005C02BE630E002C02CE630E03C8B2B8B2E
:103B5000983030F481E001C0880F9A95EAF70EC0E2
:103B6000292F30E09E3018F42850310902C02E5021
:103B7000310981E001C0880F2A95EAF78D8B8C8D81
:103B80009D8D0197F1F7CE01DF91CF910C941A1C16
:103B90000895991B79E004C0991F961708F0961BA9
:103BA000881F7A95C9F780950895AA1BBB1B51E120
:103BB00007C0AA1FBB1FA617B70710F0A61BB70B9D
:103BC000881F991F5A95A9F780959095BC01CD0142
:103BD000089597FB072E16F4009407D077FD09D0BF
:103BE0000E94D51D07FC05D03EF4909581959F4F0E
:103BF0000895709561957F4F0895A1E21A2EAA1B32
:103C0000BB1BFD010DC0AA1FBB1FEE1FFF1FA2178C
:103C1000B307E407F50720F0A21BB30BE40BF50B89
:103C2000661F771F881F991F1A9469F76095709512
:103C3000809590959B01AC01BD01CF010895052EA3
:103C400097FB1EF400940E94361E57FD07D00E9479
:103C5000FD1D07FC03D04EF40C94361E5095409584
:103C6000309521953F4F4F4F5F4F08959095809528
:103C7000709561957F4F8F4F9F4F0895EE0FFF1FF7
:103C80000590F491E02D09940F931F93CF93DF9348
:103C90008230910510F482E090E0E0917305F0919C
:103CA000740520E030E0A0E0B0E0309719F14081E9
:103CB00051810281138148175907C8F0841795076D
:103CC00069F4109731F012960C93129713961C9387
:103CD00027C0009373051093740522C02115310588
:103CE00019F04217530718F49A01BD01EF01DF01E3
:103CF000F801DBCF21153105F9F0281B390B2430F1
:103D0000310580F48A819B816115710521F0FB01E9
:103D10009383828304C09093740580937305FE019E
:103D2000329644C0FE01E20FF31F8193919322501B
:103D30003109398328833AC0209171053091720589
:103D4000232B41F42091020130910301309372053D
:103D50002093710520910001309101012115310559
:103D600041F42DB73EB74091040150910501241B49
:103D7000350BE0917105F0917205E217F307A0F49D
:103D80002E1B3F0B2817390778F0AC014E5F5F4FB1
:103D90002417350748F04E0F5F1F5093720540936C
:103DA00071058193919302C0E0E0F0E0CF01DF91D3
:103DB000CF911F910F910895CF93DF93009709F44E
:103DC00081C0FC01329713821282A0917305B091D9
:103DD0007405109781F420813181820F931F209107
:103DE0007105309172052817390751F5F093720566
:103DF000E093710567C0ED0120E030E0CE17DF07EA
:103E000040F44A815B819E0141155105F1F0EA01C0
:103E1000F5CFD383C28340815181840F951FC8178A
:103E2000D90759F488819981840F951F029691834F
:103E300080838A819B81938382832115310529F4B4
:103E4000F0937405E09373053DC0E901FB83EA83B9
:103E500049915991C40FD51FEC17FD0761F480817A
:103E60009181840F951F0296E9019983888382814D
:103E700093819B838A83E0E0F0E012968D919C9180
:103E80001397009719F0FD01DC01F7CF8D919C91FC
:103E900011979D012E5F3F4F820F931F2091710557
:103EA000309172052817390769F4309729F4109278
:103EB00074051092730502C013821282B0937205CA
:103EC000A0937105DF91CF910895A0E0B0E0EBE6FB
:103ED000FFE10C949C20EC01009721F4CB010E949F
:103EE000441EB4C0FC01E60FF71F9C0122503109AB
:103EF000E217F30708F4A8C0D9010D911C9111979E
:103F000006171707B0F00530110508F49BC0C8016B
:103F100004978617970708F495C002501109061BED
:103F2000170B019311936D937C93CF010E94DC1EBC
:103F300089C05B01A01AB10A4C01800E911EA091AC
:103F40007305B0917405612C712CE12CF12C109744
:103F500009F446C08D919C911197A815B905B1F54A
:103F60006C0142E0C40ED11CCA14DB0478F14C0190
:103F70008A189B08640142E0C40ED11C1296BC90C2
:103F800012971396AC91B5E0CB16D10440F0B282F3
:103F9000A38391828082D9016D937C9309C00E5FC7
:103FA0001F4F800F911FF90191838083EB2DFA2F12
:103FB000E114F10431F0D7011396FC93EE931297BC
:103FC00041C0F0937405E09373053CC06816790610
:103FD00008F43C017D0112960D90BC91A02DB7CF45
:103FE000809171059091720588169906E1F4661624
:103FF0007706C8F48091000190910101009741F487
:104000008DB79EB74091040150910501841B950B1B
:10401000E817F907C8F4F0937205E0937105F90108
:10402000718360830FC0CB010E94441E7C01009706
:1040300059F0A801BE010E947520CE010E94DC1E2D
:10404000C70104C0CE0102C080E090E0CDB7DEB76A
:10405000EEE00C94B820FC0188279927E894219180
:104060002032E9F3293010F02E30C8F32B3241F022
:104070002D3239F4689404C00E949020820F911D63
:10408000219120532A30C0F31EF4909581959F4FC3
:104090000895FB01DC018D91059080190110D9F381
:1040A000990B0895FC0105900020E9F78095909503
:1040B0008E0F9F1F0895FB0155915523A9F0BF0155
:1040C000DC014D9145174111E1F759F4CD010590FF
:1040D000002049F04D9140154111C9F3FB014111F8
:1040E000EFCF81E090E001970895FB01DC0102C071
:1040F00001900D9241505040D8F70895FC018191F4
:10410000861721F08823D9F7992708953197CF0191
:104110000895FB01DC0101900D920020E1F7089564
:104120007AE0979F902D879F802D910D11240895FF
:104130002F923F924F925F926F927F928F929F92B7
:10414000AF92BF92CF92DF92EF92FF920F931F93A5
:10415000CF93DF93CDB7DEB7CA1BDB0B0FB6F89456
:10416000DEBF0FBECDBF09942A88398848885F8496
:104170006E847D848C849B84AA84B984C884DF8007
:10418000EE80FD800C811B81AA81B981CE0FD11DEB
:104190000FB6F894DEBF0FBECDBFED01089513E05A
:1041A000C9E5D3E004C0FE010E943E1E2196CA3537
:0841B000D107C9F7F894FFCF15
:1041B8000000750520000149414141455F524D6F9E
:1041C8006E5633002C00415449005E5A002B434D73
:1041D8004753004F4B0041542B434D47443D30302B
:1041E8003000222C2200000000009003581784039E
:1041F8009C03A803B4033A0049414141455F524D2D
:104208006F6E56335F00537769746368696E672011
:104218006F66662E2E2E00000000001F12F211900D
:10422800119811AC11BB11426173696320696E74F6
:104238002D3E73747220757361676520776F756C96
:104248006420626500456E636F64656420726573FF
:10425800756C7420746F2062652073656E74206FAE
:104268007665722057656220697320002D45787045
:1042780065637465642073697A6520676976656E1D
:10428800206F6620002D41637475616C2061637432
:1042980075616C20726573756C74696E67207369DB
:1042A8007A65206F66200009286578636C756469F3
:1042B8006E67207468652027302720617420746831
:1042C8006520656E6420696E6361736520746F2074
:1042D800626520747265617465642061732073740B
:1042E80072696E6729004465636F6465642072654E
:1042F80073756C74207265636569766564206F7682
:10430800657220576562206861732073697A652039
:104318006F66200000000000E91558178C15A615D7
:10432800981530160D0A006E616E00696E66006F92
:1043380076660000000000831B5817EC1B621BD434
:044348001BD31B0068
:00000001FF
