:100000000C946A030C94772B0C949E2B0C94F0297F
:100010000C94F0290C94F0290C9492030C94920304
:100020000C9492030C9492030C9492030C949203FC
:100030000C9492030C9492030C9492030C949203EC
:100040000C94671C0C9492030C94261A0C94581A66
:100050000C9492030C9492030C9492030C949203CC
:100060000C9433110C94920370127612761276125D
:100070007612761276127612641176127612761253
:100080007612761276127612641176127612761243
:1000900076127612761276126E1176127612761229
:1000A00076127612761276129A11761276127612ED
:1000B00076127612761276126E1176127612761209
:1000C0007612761276127612A011761276127612C7
:1000D0007612761276127612A611761276127612B1
:1000E0007612761276127612BC117612761276128B
:1000F0007612761276127612EC117612761276124B
:100100007612761276127612AC117612761276127A
:100110007612761276127612CA117612761276124C
:100120007612761276127612EF1176127612761217
:100130007612761276127612EF1176127612761207
:100140007612761276127612EF11761276127612F7
:100150007612761276127612EF11761276127612E7
:100160007612761276127612F811761276127612CE
:100170007612761276127612321276127612761283
:100180007612761276127612F811761276127612AE
:100190007612761276127612321276127612761263
:1001A0007612761276127612141276127612761271
:1001B000761276127612761236127612761276123F
:1001C000761276127612761236127612761276122F
:1001D00076127612761276124C1276127612761209
:1001E00076127612761276126A12761276127612DB
:1001F00076127612761276126A12761276127612CB
:1002000076127612761276127612761276127612AE
:10021000761276127612761276127612761276129E
:10022000761276127612761276127612761276128E
:10023000761276127612761276127612761276127E
:10024000761276127612761276127612761276126E
:10025000761276127612761275124E414E494E493A
:100260005459494E46CDCCCC3D0AD7233C17B7D183
:100270003877CC2B329595E6241FB14F0A00002029
:10028000410000C84200401C4620BCBE4CCA1B0EA8
:100290005AAEC59D74746578742F706C61696E0078
:1002A00000007765622E6D746E2E63690074657848
:1002B000742F706C61696E005374617274696E673B
:1002C0002E2E2E00454550524F4D20546573743AE2
:1002D000204C6F6E673D002C20496E743D002C2031
:1002E00053686F72743D002C20436861723D004D6D
:1002F0006F64756C652023002320426F6F74730058
:100300004E657874204164647200000000080002A9
:1003100001000003040700000000000000000102CB
:100320000408102040800102040810200102040883
:100330001020040404040404040402020202020261
:100340000303030303030000000023002600290029
:1003500000000000250028002B0000000000240001
:1003600027002A00093C2D2D2D2000092D2D2D3E82
:100370002000093C2D2D2D2000092D2D2D3E200083
:10038000093C2D2D2D2000092D2D2D3E2000093C4E
:100390002D2D2D2000092D2D2D3E200054494D4599
:1003A0004F555400535041434500093C2D2D2D20FD
:1003B0000052454449520055524C005541004349B2
:1003C00044004C656E3A20005374617475733A2092
:1003D00000434F4E54454E540041542B4854545002
:1003E00053534C3D002B48545450524541443A001D
:1003F00041542B4854545052454144002B485454C6
:1004000050414354494F4E3A002B485454504143B5
:1004100054494F4E3A0041542B4854545041435490
:10042000494F4E3D00444F574E4C4F4144004154BC
:100430002B48545450444154413D0041542B48549E
:100440005450444154413D00092D2D2D3E200022A1
:100450002C00222C220041542B485454505041521D
:10046000413D220041542B48545450504152413D8B
:100470002200092D2D2D3E200041542B485454506C
:100480005445524D0041542B48545450494E495400
:100490000041542B43474154543D300041542B53A9
:1004A000415042523D302C310041542B434950536E
:1004B0004855540053485554204F4B0041542B434A
:1004C000494943520041542B53415042523D312C33
:1004D000310041542B53415042523D332C312C2298
:1004E000505744222C0041542B53415042523D332B
:1004F0002C312C2255534552222C0041542B43536E
:1005000054543D2200092D2D2D3E200041542B43F3
:100510005354543D220041542B53415042523D33D9
:100520002C312C2241504E222C0041542B5341504F
:1005300042523D332C312C22434F4E5459504522C8
:100540002C2247505253220041542B4347415454CC
:100550003D310041542B43495053485554005348B2
:100560005554204F4B0053494E460041542B4347AE
:100570004E53494E46002B43474E53494E463A2070
:100580000041542B43474E53494E46003E20003E07
:10059000200041542B434D47463D310041542B43ED
:1005A0005351002B4353513A200041542B435245A1
:1005B000473F002B435245473A200041542B4342CA
:1005C00043002B4342433A200053494D38303048D2
:1005D00000093C2D2D2D2000092D2D2D3E200053EE
:1005E000494D434F4D5F53494D35333230450053EC
:1005F000494D434F4D5F53494D35333230410053E0
:10060000494D383030205231330053494D3830385D
:10061000205231330053494D3830382052313400A4
:10062000093C2D2D2D2000092D2D2D3E200041545B
:100630002B435648553D3000415445300041544508
:10064000300041540041540041540054696D656FBD
:1006500075743A204E6F20726573706F6E736520EB
:10066000746F2041542E2E2E206C617374206469A7
:1006700074636820617474656D70742E0041540059
:1006800041540041540053657269616C2077617375
:1006900020617661696C61626C6500417474656D9E
:1006A0007074696E6720746F206F70656E20636F61
:1006B0006D6D207769746820415473004F4B00467C
:1006C0004F4E4100464F4E416E65740012082E1683
:1006D000881A1F0811241FBECFEFD8E0DEBFCDBFA0
:1006E00013E0A0E0B1E0E0E8F0E602C005900D9272
:1006F000A237B107D9F728E0A2E7B3E001C01D9205
:10070000A838B207E1F713E0C9E6D3E004C02197A7
:10071000FE010E94432CC636D107C9F70E94B61AC3
:100720000C9433300C940000CF93DF9300D01F92D1
:10073000CDB7DEB79A8389836B8389819A8160E024
:100740000E943A1E89819A81865E9E4F2B81FC0110
:10075000208300000F900F900F90DF91CF910895AC
:10076000CF93DF9300D0CDB7DEB79A8389830000A3
:100770000F900F90DF91CF910895CF93DF9300D02A
:1007800000D0CDB7DEB79A8389837C836B83898160
:100790009A812B813C81B9010E948E1600000F9036
:1007A0000F900F900F90DF91CF910895CF93DF932B
:1007B00000D000D01F92CDB7DEB79C838B836D83B2
:1007C0008B819C81865E9E4FFC018081882311F085
:1007D00081E004C08FE996E89A8389830F900F9097
:1007E0000F900F900F90DF91CF910895CF93DF93EB
:1007F00000D0CDB7DEB79A83898300000F900F90A9
:10080000DF91CF910895CF92DF92EF92FF920F93F5
:100810001F93CF93DF9300D000D000D0CDB7DEB7C9
:100820009C838B837E836D838B819C81865E9E4FB0
:10083000FC018081882309F448C02D813E8180E03D
:1008400090E0A0E2B1E4F901828B938BA48BB58B8D
:100850008D819E8146962FE0EFE1F1E0DC01019071
:100860000D922A95E1F78D819E812EE1FC01218375
:100870002D813E8180E090E0A0E2B2E4F90186871C
:100880009787A08BB18B2D813E8180E090E0A8E41A
:10089000B2E4F90182839383A483B5832D813E81E1
:1008A00080E090E0A0E7B2E4F90186839783A08717
:1008B000B1872D813E8180E090E0ACE8B2E4F9019F
:1008C00082879387A487B58742C08B819C810E94D1
:1008D000D02089838D819E812981FC01218389819A
:1008E000823034F48D819E812AE0FC0120832FC068
:1008F0008D819E818C010A5E1F4F8D819E81DC015E
:1009000052968D819E81FC013E968D819E819C0137
:10091000265F3F4F8D819E81AC014A5F5F4F8D8185
:100920009E81BC016E5F7F4F8B819C8168017D0140
:100930008F010E9444218A839A8181E0892788233C
:1009400031F08D819E812CE0FC01208300002696F1
:100950000FB6F894DEBF0FBECDBFDF91CF911F91D0
:100960000F91FF90EF90DF90CF900895CF93DF939A
:1009700000D01F92CDB7DEB79A8389836B838981BC
:100980009A812B81FC01248389819A81059660E0FC
:100990000E943A1E00000F900F900F90DF91CF91B0
:1009A0000895CF93DF9300D0CDB7DEB79A838983C4
:1009B00000000F900F90DF91CF910895CF93DF93B8
:1009C00000D000D0CDB7DEB79A8389837C836B8358
:1009D00089819A8105962B813C81B9010E948E16EE
:1009E00000000F900F900F900F90DF91CF9108951E
:1009F000CF93DF9300D0CDB7DEB79A838983898107
:100A00009A81FC011182108289819A81FC011382F2
:100A1000128200000F900F90DF91CF9108950F93F5
:100A20001F93CF93DF9300D0CDB7DEB79A8389832E
:100A300089819A81FC01948181E0992309F480E005
:100A4000882311F081E02DC08FE190E00E94C51A4B
:100A50008C0120E042E063E0C8010E94BC2A898149
:100A60009A81815E9E4FFC011183008389819A8166
:100A7000815E9E4FFC018081918140EC52E160E0FB
:100A800070E00E94E72A89819A81815E9E4FFC0175
:100A9000808191819C0189819A810596B9010E948A
:100AA000E9220F900F90DF91CF911F910F91089540
:100AB000CF93DF9300D000D0CDB7DEB79A83898380
:100AC0007C836B8389819A81FC01948181E09923E5
:100AD00009F480E0882349F08B819C8123E630E093
:100AE000FC013183208381E008C089819A810596C9
:100AF0002B813C81B9010E94C3280F900F900F9069
:100B00000F90DF91CF910895CF93DF93CDB7DEB7EC
:100B100069970FB6F894DEBF0FBECDBF9F8B8E8B4B
:100B2000798F688F8E899F89FC01948181E0992358
:100B300009F480E0882311F081E026C02EE0ECE388
:100B4000F1E0CE010196DC0101900D922A95E1F7CA
:100B500027E0CE010F96FC01322F11923A95E9F76A
:100B60008E899F890596288D398DA9019E012F5F59
:100B70003F4FB9010E949F24982F81E08927882345
:100B800011F081E001C080E069960FB6F894DEBFF5
:100B90000FBECDBFDF91CF910895CF93DF9300D0EB
:100BA00000D0CDB7DEB79A8389837C836B8389813C
:100BB0009A810E94F105282F8B819C81FC01228360
:100BC00089819A810E940E06282F8B819C81FC01CD
:100BD000218300000F900F900F900F90DF91CF9125
:100BE0000895CF93DF9300D0CDB7DEB79A83898382
:100BF00089819A81FC01948181E0992309F480E044
:100C0000882311F087E005C089819A8105960E94AA
:100C1000D2280F900F90DF91CF910895CF93DF935B
:100C200000D0CDB7DEB79A83898389819A81FC0190
:100C3000948181E0992309F480E0882311F085E113
:100C400005C089819A8105960E94F1280F900F9026
:100C5000DF91CF910895CF93DF9300D01F92CDB74E
:100C6000DEB79A8389836B8389819A8105966B812C
:100C70000E94FF250F900F900F90DF91CF91089564
:100C8000CF92DF92EF92FF920F931F93CF93DF9358
:100C9000CDB7DEB72E970FB6F894DEBF0FBECDBF2F
:100CA0009C878B877E876D878B859C85FC019481D3
:100CB00081E0992309F480E0882319F080E090E036
:100CC00099C081E090E09A83898381E591E09D83DA
:100CD0008C838D859E850E94292E8C0145E952E0EA
:100CE0008B859C850596DE011996FE0137962D852C
:100CF0003E856C817D816D017F010E94FA278B8387
:100D00009B8181E08927882311F120EA32E041EAC2
:100D100052E062EA72E08B859C8505960E946C1E0B
:100D20008D859E850E94292E8C014DEA52E08B858F
:100D30009C850596DE011996FE0137962D853E8528
:100D40006C817D816D017F010E94FA278B839B81DD
:100D500081E08927882329F087EE93E09A838983AD
:100D600047C089859A85181619068CF58B859C8550
:100D700005960E94FE1D21E0892B09F420E0222324
:100D800081F38B859C8505960E94161E8E8380ECD0
:100D900090E0FC018081882F90E08072992721E00B
:100DA000892B09F020E0222309F0F1CF86EC90E0B6
:100DB0002E81FC01208389859A8501979A878987EE
:100DC00089859A85892B09F0D1CF0000CACF8B8500
:100DD0009C8505960E9483248F819885883C910587
:100DE00019F08F81988502C080E090E09A83898312
:100DF00089819A812E960FB6F894DEBF0FBECDBFC3
:100E0000DF91CF911F910F91FF90EF90DF90CF90E6
:100E10000895CF93DF93CDB7DEB768EB7BE080E03A
:100E200090E00E94D61C61E08DE00E94931D40E896
:100E300055E260E070E088E997E00E94311788EBA6
:100E400092E0BC0188E997E00E94371B0E944907A5
:100E500080917203882329F0809102010E946C071F
:100E600004C08EE894E00E948B0A8091730388236B
:100E700021F08EE894E00E94B90A80910301882352
:100E800021F08EE894E00E94120C0000DF91CF91D7
:100E90000895CF93DF93CDB7DEB764E773E08FE8B3
:100EA00094E00E94BD0364E773E08AEA95E00E9443
:100EB000DE048AEA95E00E940F05982F81E08927D9
:100EC000882331F461E08FE894E00E94D60301C0EA
:100ED0000000DF91CF910895CF93DF931F92CDB79C
:100EE000DEB7898369818EE894E00E94530A60E846
:100EF00071E088E997E00E942A1B65E971E088E9C2
:100F000097E00E942A1B4AE050E0698188E997E057
:100F10000E94CA1B00000F90DF91CF910895CF93DC
:100F2000DF931F92CDB7DEB7898300000F90DF916A
:100F3000CF910895CF93DF93CDB7DEB78091CB06E5
:100F40009091CC0601969093CC068093CB0668EEE8
:100F500073E080E090E00E94D61C8091030188231A
:100F6000C9F4809172038823B9F467E971E088E9D4
:100F700097E00E94491B8091CB069091CC0621E01E
:100F8000843B910509F020E0222339F081E00E94A2
:100F90008F0703C0000001C00000DF91CF910895CA
:100FA000CF93DF9300D000D0CDB7DEB79A8389838B
:100FB0007C836B8389819A810197E1F48B819C8189
:100FC0000196C1F464E084E793E00E943A1E60E079
:100FD0008EE894E00E942C0880910101682F8FE830
:100FE00094E00E94940380910001682F8AEA95E0C2
:100FF0000E94B60489819A81892B61F48B819C813E
:10100000019641F48AEA95E00E94D1048FE894E0C9
:101010000E94B00300000F900F900F900F90DF918F
:10102000CF910895CF93DF93CDB7DEB76FEF7FEF0A
:1010300081E090E00E94D007DF91CF910895CF9397
:10104000DF93CDB7DEB76FEF7FEF80E090E00E94D7
:10105000D007DF91CF910895CF93DF9300D01F92F7
:10106000CDB7DEB79A8389836B8389819A812B817F
:10107000FC01208389819A81FC01908181E089278C
:10108000882321F08AE897E00E94A31200000F90C5
:101090000F900F90DF91CF910895CF93DF93CDB74D
:1010A000DEB728970FB6F894DEBF0FBECDBF9D8385
:1010B0008C837F836E8348871982998188859817EE
:1010C000E0F58981282F30E08C819D81820F931F6C
:1010D0009B838A8360E570E08AE897E00E94311480
:1010E0008A819B81892F9927BC018AE897E00E9419
:1010F00054178A819B819927BC018AE897E00E9456
:1011000054178981882F90E02E813F81820F931F91
:10111000FC018081682F8AE897E00E947F148AE8AA
:1011200097E00E946E146FE070E080E090E00E9413
:10113000D61C89818F5F8983C0CF000028960FB6A7
:10114000F894DEBF0FBECDBFDF91CF910895CF934E
:10115000DF93CDB7DEB729970FB6F894DEBF0FBE89
:10116000CDBF9E838D8378876F834987198299814C
:101170008985981708F04BC08981282F30E08D8130
:101180009E81820F931F9C838B8360E570E08AE8C9
:1011900097E00E9431148B819C81892F9927BC0193
:1011A0008AE897E00E9454178B819C819927BC01A3
:1011B0008AE897E00E9454178AE897E00E946E142C
:1011C00041E050E060E570E08AE897E00E94D613C5
:1011D0008FEF8A838AE897E00E94021521E0892B2D
:1011E00009F420E0222329F08AE897E00E941A15EA
:1011F0008A838981882F90E02F813885820F931F01
:101200002A81FC01208389818F5F8983B0CF000010
:1012100029960FB6F894DEBF0FBECDBFDF91CF91F8
:101220000895CF93DF9300D000D01F92CDB7DEB7E3
:101230009B838A837D836C8321E08C819D81422FF7
:101240009E012F5F3F4FB9010E94A70889810F902F
:101250000F900F900F900F90DF91CF910895CF9343
:10126000DF9300D000D000D0CDB7DEB79C838B8356
:101270007E836D8322E08D819E81422F9E012F5FB0
:101280003F4FB9010E94A70889819A8126960FB61F
:10129000F894DEBF0FBECDBFDF91CF910895CF93FD
:1012A000DF93CDB7DEB728970FB6F894DEBF0FBE39
:1012B000CDBF9E838D8378876F8324E08F8198854F
:1012C000422F9E012F5F3F4FB9010E94A7088981DD
:1012D0009A81AB81BC81BC01CD0128960FB6F894F0
:1012E000DEBF0FBECDBFDF91CF910895AF92BF9209
:1012F000CF92DF92EF92FF920F931F93CF93DF93E2
:10130000CDB7DEB72C970FB6F894DEBF0FBECDBFBA
:101310009A8789877C876B8728E08B859C85422FFD
:101320009E012F5F3F4FB9010E94A70829813A8192
:101330004B815C816D817E818F819885A22EB32E39
:10134000C42ED52EE62EF72E082F192F2A2D3B2D31
:101350004C2D5D2D6E2D7F2D802F912F2C960FB64D
:10136000F894DEBF0FBECDBFDF91CF911F910F91DB
:10137000FF90EF90DF90CF90BF90AF900895CF9304
:10138000DF9300D000D01F92CDB7DEB79A83898358
:101390007C836B834D8341E08B819C819E012B5F1D
:1013A0003F4FB9010E944D0800000F900F900F9021
:1013B0000F900F90DF91CF910895CF93DF9300D0DE
:1013C00000D000D0CDB7DEB79A8389837C836B834E
:1013D0005E834D8342E08B819C819E012B5F3F4F5A
:1013E000B9010E944D08000026960FB6F894DEBFA2
:1013F0000FBECDBFDF91CF910895CF93DF93CDB7CF
:10140000DEB728970FB6F894DEBF0FBECDBF9A8324
:1014100089837C836B832D833E834F83588744E08D
:101420008B819C819E012B5F3F4FB9010E944D082B
:10143000000028960FB6F894DEBF0FBECDBFDF9137
:10144000CF910895EF92FF920F931F93CF93DF9365
:10145000CDB7DEB72C970FB6F894DEBF0FBECDBF69
:101460009A8389837C836B83ED82FE820F83188746
:1014700029873A874B875C8748E08B819C819E0156
:101480002B5F3F4FB9010E944D0800002C960FB60C
:10149000F894DEBF0FBECDBFDF91CF911F910F91AA
:1014A000FF90EF900895CF93DF93CDB7DEB7A0976D
:1014B0000FB6F894DEBF0FBECDBF9F8F8E8F68A38F
:1014C00088A189831B821A821E821F821886198630
:1014D0001A861B861C861D868DE190E09D838C8379
:1014E000CE010E9640E150E060E070E00E940E2ECA
:1014F0008DE1482FCE010196BC0180E090E00E9472
:101500004D080000A0960FB6F894DEBF0FBECDBF09
:10151000DF91CF910895CF93DF9300D000D000D01A
:10152000CDB7DEB79E838D8381E090E09A83898377
:1015300029813A818D819E81B9010E942F099C8366
:101540008B838B819C8101969C838B834B815C81F7
:1015500029813A818D819E81B9010E94DD090000B7
:1015600026960FB6F894DEBF0FBECDBFDF91CF91A8
:101570000895AF92BF92CF92DF92EF92FF920F93B6
:101580001F93CF93DF93CDB7DEB76E970FB6F89466
:10159000DEBF0FBECDBF9E8F8D8F85E090E09D8317
:1015A0008C831B828B818E3108F029C16C817D81F7
:1015B0008D8D9E8D0F2EF8EAEF2EF02D0F2EF9EF68
:1015C000FF2EF02D01E419EC28ED37EF46E459EA3F
:1015D0000E94220A2C813D818D8D9E8DB9010E9431
:1015E0007609A22EB32EC42ED52EE62EF72E082F66
:1015F000192FAE82BF82C886D986EA86FB860C8701
:101600001D87AE80BF80C884D984EA84FB840C85A2
:101610001D852A2D3B2D4C2D5D2D6E2D7F2D802F70
:10162000912F283A394F4144594C684D774F8644A1
:10163000994A59F06DEA71E088E997E00E94491BE8
:1016400089819A8101969A8389836C817D818D8DB0
:101650009E8D28E439EF41E159EC0E94FD092C816F
:101660003D818D8D9E8DB9010E944F09DC01CB011A
:101670008E879F87A88BB98B8E859F85A889B9890E
:101680008834994FA141B94C59F069EB71E088E970
:1016900097E00E94491B89819A8101969A838983E8
:1016A0002C813D818D8D9E8D4AE35CE5B9010E94C0
:1016B000DD092C813D818D8D9E8DB9010E942F0900
:1016C0009B8B8A8B8A899B898A339C4559F064EC71
:1016D00071E088E997E00E94491B89819A8101960F
:1016E0009A8389832C813D818D8D9E8D41EEB90138
:1016F0000E94BF092C813D818D8D9E8DB9010E9474
:1017000011098C8B8C89813E59F061ED71E088E97B
:1017100097E00E94491B89819A8101969A83898367
:1017200084EC92E0BC0188E997E00E94061B2E81C0
:101730003F81488559856A857B858C859D8500E23A
:101740000E94562CA22EB32EC42ED52EE62EF72E96
:10175000082F192FAD8ABE8ACF8AD88EE98EFA8ECD
:101760000B8F1C8F8D899E89AF89B88D20E130E069
:10177000AC01BD0188E997E00E94B61B8E819F8174
:10178000A885B98520E130E0AC01BD0188E997E08A
:101790000E94B61B87ED92E0BC0188E997E00E94A9
:1017A000061B8E859F85A889B98920E130E0AC01B0
:1017B000BD0188E997E00E94B61B8EED92E0BC0166
:1017C00088E997E00E94061B8A899B8940E150E0E6
:1017D000BC0188E997E00E94DC1B87EE92E0BC0127
:1017E00088E997E00E94061B40E150E06C8988E997
:1017F00097E00E94CA1B8B818F5F8B83D3CE898138
:101800009A816E960FB6F894DEBF0FBECDBFDF9102
:10181000CF911F910F91FF90EF90DF90CF90BF90ED
:10182000AF900895CF93DF93CDB7DEB76F970FB624
:10183000F894DEBF0FBECDBF9F8F8E8F8DE1482FF6
:10184000CE010196BC0180E090E00E94A7088FEED7
:1018500092E0BC0188E997E00E94061B6DED71E003
:1018600088E997E00E942A1B89814AE050E0682FAE
:1018700088E997E00E94CA1B88EF92E0BC0188E9E2
:1018800097E00E94061B6DED71E088E997E00E94E9
:101890002A1B8A819B814AE050E0BC0188E997E0DD
:1018A0000E94E21B80E093E0BC0188E997E00E947F
:1018B000061B6DED71E088E997E00E942A1B8C8180
:1018C0009D814AE050E0BC0188E997E00E94E21B5C
:1018D00000006F960FB6F894DEBF0FBECDBFDF914C
:1018E000CF910895CF93DF93CDB7DEB728970FB68A
:1018F000F894DEBF0FBECDBF9A8389837C836B8350
:101900005E834D8338872F8381E090E0A0E0B0E0D4
:10191000BC01CD0128960FB6F894DEBF0FBECDBF37
:10192000DF91CF9108950F931F93CF93DF93CDB79E
:10193000DEB72A970FB6F894DEBF0FBECDBF9A83ED
:1019400089830B831C832D833E834F83588769874C
:101950007A8700002A960FB6F894DEBF0FBECDBF7F
:10196000DF91CF911F910F910895CF93DF9300D016
:1019700000D0CDB7DEB79A8389837C836B83000068
:101980000F900F900F900F90DF91CF910895CF930C
:10199000DF9300D000D000D0CDB7DEB79A83898323
:1019A0004B835C836D837E83000026960FB6F8948C
:1019B000DEBF0FBECDBFDF91CF910895CF93DF93F0
:1019C00000D000D0CDB7DEB79A8389837C836B8348
:1019D00000000F900F900F900F90DF91CF9108951E
:1019E000CF93DF9300D000D0CDB7DEB79A83898341
:1019F0007C836B8300000F900F900F900F90DF910E
:101A0000CF910895CF93DF9300D0CDB7DEB79A83FF
:101A100089831092D10689819A8140E861E00E9411
:101A2000DD0D89819A8140E860E00E94DD0D0000B3
:101A30000F900F90DF91CF910895CF93DF9300D057
:101A400000D000D0CDB7DEB79A8389837C836B83C7
:101A50004D832E838D81803261F489819A81FC01CE
:101A6000908181E0292F282789819A81FC01208398
:101A700019C08D81803431F489819A812E81FC01D5
:101A8000208310C08D81803131F489819A8121E0D9
:101A9000FC01208307C08D81803821F489819A81DF
:101AA000FC0110828D81823061F48B819C81FC016C
:101AB000908181E0292F28278B819C81FC01208344
:101AC00019C08D81843031F48B819C812E81FC0181
:101AD000208310C08D81813031F48B819C8121E085
:101AE000FC01208307C08D81803821F48B819C818B
:101AF000FC011082000026960FB6F894DEBF0FBEE0
:101B0000CDBFDF91CF910895CF93DF9300D0CDB7B4
:101B1000DEB79A8389838091D1068F5F8093D10647
:101B20002091D1068BEA289F812D1124982F96951C
:101B3000892F880F890F922F981B9093D10690912F
:101B4000D10681E0992309F080E090910401282FCB
:101B5000492F6EEC76E08DEC96E00E941D0D809191
:101B6000CE06682F89E00E94CF1D8091CD06682F98
:101B700088E00E94CF1D9091D10681E0992309F061
:101B800080E090910501282F492F6FEC76E080EDE1
:101B900096E00E941D0D8091D006682F8BE00E9478
:101BA000CF1D8091CF06682F8AE00E94CF1D0000D4
:101BB0000F900F90DF91CF910895CF93DF9300D0D6
:101BC00000D0CDB7DEB79A8389836B834C838B813A
:101BD000813021F48C818093040106C08B8188239D
:101BE00019F48C818093050100000F900F900F90E5
:101BF0000F90DF91CF910895CF93DF93CDB7DEB7EC
:101C00002A970FB6F894DEBF0FBECDBF98878F839B
:101C10007A8769878F819885FC018081882329F0E4
:101C200080E090E0A0EAB0E439C089850E944D1DB3
:101C30009A8389838F8198850E94590EDC01CB019C
:101C40008B839C83AD83BE8389819A81092E000C8E
:101C5000AA0BBB0BBC01CD010E940018DC01CB011B
:101C60002B813C814D815E81BC01CD010E946418B5
:101C7000DC01CB01BC01CD010E94C817DC01CB0106
:101C80009A83898389819A81092E000CAA0BBB0B48
:101C9000BC01CD010E940018DC01CB01BC01CD01CB
:101CA0002A960FB6F894DEBF0FBECDBFDF91CF915D
:101CB0000895CF93DF9300D000D000D0CDB7DEB72A
:101CC0009E838D838CE790E02EE4FC01208362E00C
:101CD00070E080E090E00E94D61C8AE790E02AE75E
:101CE00030E0F90120812064FC0120838AE790E044
:101CF000FC018081882F90E08074992721E0892B56
:101D000009F420E0222309F0F1CF88E790E0FC01FC
:101D10008081882F90E0A0E0B0E089839A83AB8334
:101D2000BC8389E790E0FC018081882F90E0982FA8
:101D30008827092E000CAA0BBB0B29813A814B8105
:101D40005C81822B932BA42BB52B89839A83AB8345
:101D5000BC8384EB9BE2A1E1B0E029813A814B8115
:101D60005C81BC01CD010E94242CDA01C901898368
:101D70009A83AB83BC8389819A81AB81BC8128EE35
:101D800033E040E050E0BC01CD010E94242CDA0198
:101D9000C901BC01CD010E940018DC01CB01BC01CE
:101DA000CD0126960FB6F894DEBF0FBECDBFDF91F2
:101DB000CF910895CF93DF93CDB7DEB71092D206BF
:101DC00081E08093D4061092D50682E161E00E9402
:101DD000CF1D83E161E00E94CF1D89EB90E029EBEC
:101DE00030E0F90120812E7FFC01208389EB90E017
:101DF00029EB30E0F90120812D7FFC01208388EB65
:101E000090E028E4FC0120838CEB90E025E4FC01C9
:101E100020830000DF91CF910895CF93DF93CDB75A
:101E2000DEB78CEB90E02CEB30E0F90120812A7BCF
:101E3000FC01208382E160E00E94CF1D83E160E02D
:101E40000E94CF1D0000DF91CF910895CF93DF93C3
:101E50001F92CDB7DEB789838AEB90E02981220FEC
:101E6000FC01208300000F90DF91CF9108950F9324
:101E70001F93CF93DF9300D000D0CDB7DEB7698337
:101E80007A838B839C8308EB10E080E094E2A4EFDC
:101E9000B0E029813A814B815C81BC01CD010E9477
:101EA000022CDA01C9014097A109B109B695A7959D
:101EB00097958795F801808300000F900F900F9001
:101EC0000F90DF91CF911F910F910895CF93DF93E2
:101ED00000D000D000D0CDB7DEB78A837C836B837F
:101EE0004D832E838D81813218F080E06BC000001D
:101EF0008091D2068823D9F781E08093D2068E8123
:101F00008093D4068FEF80933F071092FA068D815D
:101F100081508093FB0681E08093D3068A81882FCD
:101F200090E0880F991F982F8091D306892B80937A
:101F3000D3068091D5068130C1F41092D5068BEB83
:101F400090E02091D306FC0120838CEB90E0FC0113
:101F50008081882F90E088709927892B81F78CEBFE
:101F600090E025ECFC01208307C08CEB90E025EE8F
:101F7000FC01208301C000008091D2068130D9F39A
:101F80009091FA068D81981718F48091FA068D8346
:101F9000198213C08981882F90E02B813C81820FA8
:101FA000931F2981222F30E02652394FF9012081D9
:101FB000FC01208389818F5F898399818D819817A6
:101FC00048F38D8126960FB6F894DEBF0FBECDBFC5
:101FD000DF91CF9108950F93CF93DF93CDB7DEB705
:101FE00027970FB6F894DEBF0FBECDBF8A837C83E0
:101FF0006B834D832E830F838D81813218F081E0B6
:1020000076C000008091D2068823D9F782E08093C1
:10201000D2068F818093D4068FEF80933F07109272
:10202000FA068D818093FB06198213C08981882F5F
:1020300090E02981222F30E04B815C81240F351FF5
:10204000F90120818652994FFC01208389818F5F9D
:10205000898399818D81981748F31092D3068A81DC
:10206000882F90E0880F991F982F8091D306892B95
:102070008093D3068091D5068130C1F41092D506A5
:102080008BEB90E02091D306FC0120838CEB90E059
:10209000FC018081882F90E088709927892B81F737
:1020A0008CEB90E025ECFC01208307C08CEB90E0EA
:1020B00025EEFC01208301C000008E81882321F0E1
:1020C0008091D2068230C1F380913F078F3F11F497
:1020D00080E00DC080913F07803211F482E007C09C
:1020E00080913F07803311F483E001C084E027969C
:1020F0000FB6F894DEBF0FBECDBFDF91CF910F9129
:102100000895CF93DF9300D000D0CDB7DEB79B8387
:102110008A836C8380911D07282F30E08C81882F63
:1021200090E0820F931F819714F081E02CC0809182
:10213000D206843011F082E026C0198219C0809145
:102140001D07282F30E08981882F90E0820F931F90
:102150002981222F30E04A815B81240F351FF9014C
:1021600020818450994FFC01208389818F5F89836E
:1021700099818C81981718F390911D078C81890F94
:1021800080931D0780E00F900F900F900F90DF91CC
:10219000CF910895CF93DF9300D0CDB7DEB79A8368
:1021A000898389819A819093D9068093D80600000B
:1021B0000F900F90DF91CF910895CF93DF9300D0D0
:1021C000CDB7DEB79A83898389819A819093D706A8
:1021D0008093D60600000F900F90DF91CF91089565
:1021E000CF93DF931F92CDB7DEB789838981882390
:1021F00031F08CEB90E025ECFC01208305C08CEBEA
:1022000090E025E8FC01208300000F90DF91CF9142
:102210000895CF93DF93CDB7DEB78CEB90E025ED3B
:10222000FC01208301C000008CEB90E0FC01808168
:10223000882F90E080719927892BA9F71092D206F8
:102240000000DF91CF910895CF93DF93CDB7DEB734
:102250008CEB90E025ECFC0120831092D20600006C
:10226000DF91CF9108951F920F9200905F000F921F
:1022700011242F933F934F935F936F937F938F938B
:102280009F93AF93BF93EF93FF93CF93DF93CDB71C
:10229000DEB789EB90E0FC018081882F90E0887F99
:1022A0009927092E000CAA0BBB0B40E050E028EF49
:1022B00030E0841B950B2817390708F417C18C5C94
:1022C0009F4FFC010C94432C8BEB90E02091D306A4
:1022D000FC01208381E00E94F01008C19091FA0671
:1022E0008091FB069817A0F48BEB90E02091FA0602
:1022F00031E0320F3093FA06222F30E02652394F68
:10230000F9012081FC01208381E00E94F010EEC0E1
:102310008091D406882319F00E940911E7C081E05A
:102320008093D5068CEB90E024EAFC012083109288
:10233000D206DCC080E280933F070E940911D6C01C
:1023400080E380933F070E940911D0C088E3809307
:102350003F070E942411CAC08091FA0691E0980FAD
:102360009093FA06882F90E02BEB30E0F901208162
:102370008652994FFC0120839091FA068091FB06CA
:10238000981720F481E00E94F010B0C080E00E9415
:10239000F010ACC08091FA0691E0980F9093FA0685
:1023A000882F90E02BEB30E0F90120818652994F85
:1023B000FC0120838091D406882319F00E94091122
:1023C00095C081E08093D5068CEB90E024EAFC0177
:1023D00020831092D2068AC00E94091187C083E030
:1023E0008093D20610923E0781E00E94F0107EC0DA
:1023F00080913E078032A0F480913E0791E0980FD3
:1024000090933E07882F90E02BEB30E0F90120817C
:10241000825E984FFC01208381E00E94F01066C02C
:1024200080E00E94F01062C00E94241180913E075B
:10243000803240F480913E07882F90E0825E984F72
:10244000FC0110822091D8063091D90680913E0778
:10245000882F90E0BC018EE197E0F9010995109278
:102460003E0744C080E00E94F01040C084E08093AA
:10247000D20610921C0710921D078091D6069091EB
:10248000D706FC01099580911D07882329F481E076
:1024900080931D071092FC068BEB90E020911C07A7
:1024A00031E0320F30931C07222F30E02450394F97
:1024B000F9012081FC01208390911C0780911D0768
:1024C000981720F481E00E94F01010C080E00E9474
:1024D000F0100CC081E00E94F0101092D20606C0ED
:1024E00010923F070E94091101C000000000DF9117
:1024F000CF91FF91EF91BF91AF919F918F917F917C
:102500006F915F914F913F912F910F9000925F00DB
:102510000F901F901895CF93DF9300D0CDB7DEB703
:102520009A83898389819A810E94A51724EB32E0DE
:1025300089819A81FC013183208300000F900F90E4
:10254000DF91CF910895CF93DF9300D0CDB7DEB761
:102550009A83898310926007109261071092830713
:10256000109284070E94DA0E87EC95E10E94DD103C
:102570008AE795E10E94CA1000000F900F90DF914A
:10258000CF910895CF93DF9300D01F92CDB7DEB7E0
:102590009A8389836B8389819A810E94A3128B819C
:1025A0000E94260F00000F900F900F90DF91CF91A7
:1025B0000895CF93DF9300D000D0CDB7DEB79A83D4
:1025C00089837C836B832B8189819A81622F0E940E
:1025D000C21200000F900F900F900F90DF91CF91DB
:1025E0000895CF93DF9300D0CDB7DEB79A83898368
:1025F0000E940D0F00000F900F90DF91CF91089572
:10260000CF93DF9300D000D000D0CDB7DEB79A8350
:1026100089834B835C836D837E838B819C81AD81B9
:10262000BE81BC01CD010E94370F000026960FB677
:10263000F894DEBF0FBECDBFDF91CF910895CF924A
:10264000EF920F931F93CF93DF93CDB7DEB72B9706
:102650000FB6F894DEBF0FBECDBF9B838A836C8319
:102660004D830E831F8328873987EA86CB868A8528
:102670008823E9F18A819B816C810E9417148A85E5
:10268000843010F083E08A878A859FEF980F9A87BD
:1026900091E0882309F490E0992321F18A819B81BC
:1026A000FC0180819181FC01208131818A85882F04
:1026B00090E0AC01440F551F440F551F440F551FA8
:1026C0008E819F81A885B98504C0B695A7959795F9
:1026D00087954A95D2F7482F8A819B81642FF9010B
:1026E0000995D2CF8A819B8160E00E9449148D8137
:1026F000813210F080E28D832B854D8160E477E09C
:102700008C810E94660F8983109260078981809373
:10271000610789812B960FB6F894DEBF0FBECDBF3F
:10272000DF91CF911F910F91EF90CF900895CF92AD
:10273000EF920F931F93CF93DF9300D000D01F929F
:10274000CDB7DEB79A8389836B834C832D838981D0
:102750009A81CD80E12C00E010E098014C816B81E2
:102760000E941F130F900F900F900F900F90DF910A
:10277000CF911F910F91EF90CF900895CF93DF935A
:1027800000D000D0CDB7DEB79A8389836B834C83AA
:1027900089819A8121E04C816B810E9497130F906F
:1027A0000F900F900F90DF91CF910895CF93DF930B
:1027B00000D000D000D0CDB7DEB79A8389837C8368
:1027C0006B835E834D834D813B8189819A8121E0BA
:1027D000632F0E94971326960FB6F894DEBF0FBEA4
:1027E000CDBFDF91CF910895CF93DF93CDB7DEB703
:1027F00028970FB6F894DEBF0FBECDBF9A838983AA
:102800007C836B835E834D8338872F832F814D813B
:102810003B8189819A81632F0E94971328960FB676
:10282000F894DEBF0FBECDBFDF91CF910895CF9357
:10283000DF9300D01F92CDB7DEB79A8389836B8375
:1028400081E0809385078B818093620710928307D4
:102850001092840700000F900F900F90DF91CF919E
:102860000895CF93DF9300D000D0CDB7DEB79A8321
:1028700089837C836B832B8189819A81622F0E945B
:10288000171400000F900F900F900F90DF91CF91D1
:1028900008950F93CF93DF9300D000D0CDB7DEB76C
:1028A0009B838A836C8390918407809162070C815B
:1028B00021E0492F63E677E00E94EB0F89831092B5
:1028C0008307109284071092850789810F900F90DB
:1028D0000F900F90DF91CF910F910895CF93DF93D9
:1028E00000D0CDB7DEB79A83898389819A8161E070
:1028F0000E9449140F900F90DF91CF910895CF93CC
:10290000DF9300D01F92CDB7DEB79A8389836B83A4
:1029100080918507882301F180918407803248F0F7
:1029200089819A8161E070E00E94731780E090E0F5
:102930001AC080918307882F90E02B818D59984F82
:10294000FC012083809183078F5F809383078091B0
:1029500083078093840705C0CE01039661E00E943F
:10296000811081E090E00F900F900F90DF91CF9158
:102970000895CF93DF93CDB7DEB728970FB6F894BD
:10298000DEBF0FBECDBF9C838B837E836D83588754
:102990004F8380918507882321F11A82198229812A
:1029A0003A818F8198852817390708F58B819C819A
:1029B000FC0180819181FC01208131814D815E810A
:1029C00089819A81840F951FFC0140818B819C81B4
:1029D000642FF901099589819A8101969A838983E7
:1029E000DECF2F818D819E81622F0E9481108F8189
:1029F000988528960FB6F894DEBF0FBECDBFDF9145
:102A0000CF910895CF93DF9300D0CDB7DEB79A83EF
:102A1000898380916107282F30E080916007882F9B
:102A200090E0A901481B590BCA010F900F90DF914C
:102A3000CF910895CF93DF9300D000D0CDB7DEB70C
:102A40009C838B838FEF9FEF9A838983909160079C
:102A500080916107981788F480916007882F90E033
:102A6000805C984FFC018081882F90E09A83898355
:102A7000809160078F5F8093600789819A810F90B2
:102A80000F900F900F90DF91CF910895CF93DF9328
:102A900000D000D0CDB7DEB79C838B838FEF9FEF44
:102AA0009A8389839091600780916107981760F4F9
:102AB00080916007882F90E0805C984FFC018081B6
:102AC000882F90E09A83898389819A810F900F9053
:102AD0000F900F90DF91CF910895CF93DF9300D0A7
:102AE000CDB7DEB79A83898300000F900F90DF91F6
:102AF000CF910895CF93DF9300D000D01F92CDB730
:102B0000DEB79B838A837D836C8380918807909155
:102B10008907892B89F19091600780916107981747
:102B200068F119828981282F30E08C819D812817D6
:102B30003907A4F48981882F90E02981222F30E081
:102B40004A815B81240F351FF9012081805C984FF9
:102B5000FC01208389818F5F8983E4CF1092600715
:102B60008C818093610720918807309189078C813F
:102B70009D81F901099503C0000001C000000F907C
:102B80000F900F900F900F90DF91CF910895CF93FA
:102B9000DF93CDB7DEB78091860790918707892BA9
:102BA00059F01092830710928407809186079091C4
:102BB0008707FC01099501C00000DF91CF910895BE
:102BC000CF93DF9300D000D0CDB7DEB79A8389834F
:102BD0007C836B838B819C8190938907809388078A
:102BE00000000F900F900F900F90DF91CF910895FC
:102BF000CF93DF9300D000D0CDB7DEB79A8389831F
:102C00007C836B838B819C8190938707809386075D
:102C100000000F900F900F900F90DF91CF910895CB
:102C2000CF93DF9300D000D0CDB7DEB79A838983EE
:102C30007C836B8389819A81019741F48B819C818C
:102C4000019621F48AE897E00E948B1200000F9011
:102C50000F900F900F90DF91CF910895CF93DF9356
:102C6000CDB7DEB76FEF7FEF81E090E00E941016E6
:102C7000DF91CF910895CF93DF9300D000D0CDB7EF
:102C8000DEB79A8389837C836B838B819C81FC0173
:102C90002281338189819A81FC0133832283898156
:102CA0009A810F900F900F900F90DF91CF91089520
:102CB000CF93DF9300D000D0CDB7DEB79A8389835E
:102CC0007C836B832B813C8189819A81B9010E942D
:102CD0003B168B819C81FC0184819581A681B78103
:102CE00029813A81F90184839583A683B7838B81F7
:102CF0009C81FC0180859185A285B38529813A81DB
:102D0000F90180879187A287B38789819A810F9083
:102D10000F900F900F90DF91CF910895CF93DF9395
:102D200000D000D0CDB7DEB79A8389837C836B83D4
:102D30002B813C8189819A81B9010E9458168B812F
:102D40009C81FC01248589819A81FC0124878B81E7
:102D50009C81FC01258589819A81FC0125878981D7
:102D60009A81AC01425F5F4F8EEF90E02B813C81F6
:102D7000225F3F4F8F3FFFEF9F0751F0F9016081C6
:102D8000FA0160834F5F5F4F2F5F3F4F0197F2CF94
:102D90008B819C81835F9E4FFC01208131818981E1
:102DA0009A81835F9E4FFC01318320838B819C81BC
:102DB000815F9E4FFC012081318189819A81815FF1
:102DC0009E4FFC01318320838B819C818F5E9E4FBF
:102DD000FC012081318189819A818F5E9E4FFC01A7
:102DE000318320838B819C818D5E9E4FFC012081ED
:102DF00089819A818D5E9E4FFC0120838B819C810D
:102E00008C5E9E4FFC012081318189819A818C5E8C
:102E10009E4FFC01318320838B819C818A5E9E4F73
:102E2000FC012081318189819A818A5E9E4FFC015B
:102E3000318320838B819C81885E9E4FFC012081A1
:102E4000318189819A81885E9E4FFC013183208384
:102E500089819A810F900F900F900F90DF91CF9101
:102E60000895CF93DF9300D000D000D0CDB7DEB768
:102E70009A8389834B835C836D837E838B819C8162
:102E8000AD81BE81E981FA8126E0AC01BD01CF01AF
:102E90000E94C119000026960FB6F894DEBF0FBE3F
:102EA000CDBFDF91CF910895CF93DF9300D000D0B5
:102EB000CDB7DEB79A8389837C836B8389819A81BE
:102EC000FC0180819181FC01208131814B818981CC
:102ED0009A81642FF90109950F900F900F900F9030
:102EE000DF91CF910895CF93DF9300D000D0CDB77D
:102EF000DEB79A8389837C836B8389819A812B8156
:102F00003C81FC013383228300000F900F900F90CF
:102F10000F90DF91CF910895CF93DF9300D0CDB77D
:102F2000DEB79A83898325EF32E089819A81FC019B
:102F30003183208389819A81FC01138212820000EF
:102F40000F900F90DF91CF910895CF93DF9300D032
:102F5000CDB7DEB79A83898389819A810E948C17C5
:102F600024EC32E089819A81FC013183208329811C
:102F70003A8188EE93E0A0E0B0E0F9018483958384
:102F8000A683B78300000F900F90DF91CF91089533
:102F90000E94CF176894B1110C945E1808950E9496
:102FA000431888F09F5798F0B92F9927B751B0F080
:102FB000E1F0660F771F881F991F1AF0BA95C9F7BD
:102FC00014C0B13091F00E945D18B1E008950C94E6
:102FD0005D18672F782F8827B85F39F0B93FCCF399
:102FE000869577956795B395D9F73EF4909580953A
:102FF000709561957F4F8F4F9F4F0895E89409C05A
:1030000097FB3EF490958095709561957F4F8F4F1B
:103010009F4F9923A9F0F92F96E9BB279395F69531
:10302000879577956795B795F111F8CFFAF4BB0FAF
:1030300011F460FF1BC06F5F7F4F8F4F9F4F16C013
:10304000882311F096E911C0772321F09EE8872F9D
:10305000762F05C0662371F096E8862F70E060E059
:103060002AF09A95660F771F881FDAF7880F9695D2
:10307000879597F9089557FD9058440F551F59F0BB
:103080005F3F71F04795880F97FB991F61F09F3F55
:1030900079F087950895121613061406551FF2CF7E
:1030A0004695F1DF08C0161617061806991FF1CFCE
:1030B00086957105610508940895E894BB276627F5
:1030C0007727CB0197F908950E9477180C94E81898
:1030D0000E94DA1838F00E94E11820F0952311F0D0
:1030E0000C94D1180C94D71811240C945E180E94DB
:1030F0003B1870F3959FC1F3950F50E0551F629FE9
:10310000F001729FBB27F00DB11D639FAA27F00D40
:10311000B11DAA1F649F6627B00DA11D661F829F67
:103120002227B00DA11D621F739FB00DA11D621F4C
:10313000839FA00D611D221F749F3327A00D611D69
:10314000231F849F600D211D822F762F6A2F11244B
:103150009F5750409AF0F1F088234AF0EE0FFF1F7E
:10316000BB1F661F771F881F91505040A9F79E3FD5
:10317000510580F00C94D1180C945E185F3FE4F375
:10318000983ED4F3869577956795B795F795E7952B
:103190009F5FC1F7FE2B880F911D9695879597F934
:1031A000089597F99F6780E870E060E008959FEFC9
:1031B00080EC089500240A941616170618060906CE
:1031C000089500240A94121613061406050608959D
:1031D000092E0394000C11F4882352F0BB0F40F425
:1031E000BF2B11F460FF04C06F5F7F4F8F4F9F4F65
:1031F00008950E94B62DFC01918D228D892F90E0BB
:10320000805C9F4F821B91098F7399270895FC0161
:10321000918D828D981731F0828DE80FF11D858D8B
:1032200090E008958FEF9FEF0895FC01918D828DBE
:10323000981761F0828DDF01A80FB11D5D968C910A
:10324000928D9F5F9F73928F90E008958FEF9FEF15
:1032500008958EE79AE1892B49F080E090E0892B70
:1032600029F00E947E1A81110C9400000895FC013F
:10327000848DDF01A80FB11DA35ABF4F2C91848DFF
:1032800090E001968F739927848FA689B7892C9334
:10329000A089B1898C9180648C93938D848D9813CF
:1032A00006C00288F389E02D80818F7D8083089598
:1032B000EF92FF920F931F93CF93DF93EC0181E086
:1032C000888F9B8D8C8D981305C0E889F989808142
:1032D00085FD24C0F62E0B8D10E00F5F1F4F0F737E
:1032E0001127E02E8C8DE8120CC00FB607FCFACF28
:1032F000E889F989808185FFF5CFCE010E943719D1
:10330000F1CF8B8DFE01E80FF11DE35AFF4FF082E4
:103310000B8FEA89FB898081806207C0EE89FF8973
:103320006083E889F98980818064808381E090E00E
:10333000DF91CF911F910F91FF90EF900895CF9360
:10334000DF93EC01888D8823C9F0EA89FB898081AD
:1033500085FD05C0A889B9898C9186FD0FC00FB67F
:1033600007FCF5CF808185FFF2CFA889B9898C91C0
:1033700085FFEDCFCE010E943719E7CFDF91CF91C6
:103380000895CF92DF92EF92FF921F93CF93DF9336
:10339000EC016A017B01122FE889F98982E08083C0
:1033A0004115514E61057105B1F060E079E08DE3A2
:1033B00090E0A70196010E94022CDA01C901019751
:1033C000A109B109B695A795979587959C012115F7
:1033D00080E13807A8F0E889F989108260E874E88C
:1033E0008EE190E0A70196010E94022CDA01C9014A
:1033F0000197A109B109B695A795979587959C0165
:10340000EC85FD853083EE85FF852083188EEC8961
:10341000FD891083EA89FB89808180618083EA8944
:10342000FB89808188608083EA89FB89808180684C
:103430008083EA89FB8980818F7D8083DF91CF91B2
:103440001F91FF90EF90DF90CF9008951F920F9201
:103450000FB60F9211242F938F939F93EF93FF93A7
:10346000E091A807F091A9078081E091AE07F09163
:10347000AF0782FD12C090818091B1078F5F8F737B
:103480002091B207821751F0E091B107F0E0E856C1
:10349000F84F958F8093B10701C08081FF91EF9124
:1034A0009F918F912F910F900FBE0F901F901895A5
:1034B0001F920F920FB60F9211242F933F934F93A9
:1034C0005F936F937F938F939F93AF93BF93EF938C
:1034D000FF9388E997E00E943719FF91EF91BF9120
:1034E000AF919F918F917F916F915F914F913F919C
:1034F0002F910F900FBE0F901F90189588E997E0BD
:103500000E94FB1821E0892B09F420E0822F089506
:10351000E8E9F7E01382128288EE93E0A0E0B0E0E1
:1035200084839583A683B78384ED92E0918380831F
:1035300085EC90E09587848784EC90E09787868778
:1035400080EC90E0918B808B81EC90E0938B828B70
:1035500082EC90E0958B848B86EC90E0978B868B49
:10356000118E128E138E148E089508950E94121DCE
:103570000E94B51A0E940907C9E2D9E10E949A0780
:103580002097E1F30E942919F9CF0C94952CCF9242
:10359000DF92EF92FF920F931F93CF93DF936C0113
:1035A0007A018B01C0E0D0E0CE15DF0581F0D801B3
:1035B0006D918D01D601ED91FC910190F081E02D8E
:1035C000C6010995892B11F02196EECF7E01C70126
:1035D000DF91CF911F910F91FF90EF90DF90CF90EF
:1035E00008956115710579F0FB0101900020E9F75C
:1035F0003197AF01461B570BDC01ED91FC91028026
:10360000F381E02D099480E090E00895EF92FF921D
:103610000F931F93CF93DF938C017B01C0E0D0E029
:10362000F701EC0FFD1F6491662361F0D801ED9165
:10363000FC910190F081E02DC8010995892B11F0D2
:103640002196EECFCE01DF91CF911F910F91FF9088
:10365000EF9008950C94F11ADC01ED91FC9101902A
:10366000F081E02D099460EE72E00C94F11A0F9352
:103670001F93CF93DF93EC010E94061B8C01CE01B8
:103680000E94331B800F911FDF91CF911F910F91EB
:1036900008950F931F93CF93DF93EC010E94F11ACB
:1036A0008C01CE010E94331B800F911FDF91CF91BF
:1036B0001F910F9108950F931F93CF93DF93EC0108
:1036C0000E942C1B8C01CE010E94331B800F911F86
:1036D000DF91CF911F910F9108958F929F92AF929A
:1036E000BF92EF92FF920F931F93CF93DF93CDB7CB
:1036F000DEB7A1970FB6F894DEBF0FBECDBF7C0139
:10370000FA01CB0119A2223008F42AE08E010F5DE4
:103710001F4F822E912CA12CB12CBF01A501940129
:103720000E94022CF901CA01015011096A3010F4FB
:10373000605D01C0695CD8016C93232B242B252B81
:1037400061F7B801C7010E94F11AA1960FB6F8946B
:10375000DEBF0FBECDBFDF91CF911F910F91FF90C4
:10376000EF90BF90AF909F908F90089521153105F5
:1037700041F4DC01ED91FC910190F081E02D642F8A
:1037800009940C946D1B9A01462F50E060E070E0A4
:103790000C94B61B0F931F93CF93DF93EC010E9401
:1037A000C31B8C01CE010E94331B800F911FDF9140
:1037B000CF911F910F9108959A01AB0160E070E0E5
:1037C0000C94B61B0F931F93CF93DF93EC010E94D1
:1037D000DC1B8C01CE010E94331B800F911FDF91F7
:1037E000CF911F910F9108950F931F93CF93DF9364
:1037F000EC010E94B61B8C01CE010E94331B800F8E
:10380000911FDF91CF911F910F910895CF92DF9279
:10381000EF92FF920F931F93CF93DF932115310502
:1038200081F4DC01ED91FC910190F081E02D642F99
:10383000DF91CF911F910F91FF90EF90DF90CF908C
:1038400009942A30310501F577FF1DC06A017B011B
:10385000EC016DE20E942C1B8C0144275527BA0114
:103860004C195D096E097F092AE0CE010E946D1B8B
:10387000800F911FDF91CF911F910F91FF90EF90DB
:10388000DF90CF9008952AE0DF91CF911F910F91A3
:10389000FF90EF90DF90CF900C946D1B9A01AB01DD
:1038A000770F660B770B0C94061C0F931F93CF9327
:1038B000DF93EC010E94061C8C01CE010E94331B99
:1038C000800F911FDF91CF911F910F9108951F924B
:1038D0000F920FB60F9211242F933F938F939F93C4
:1038E000AF93BF938091360890913708A091380824
:1038F000B09139083091350823E0230F2D3720F49B
:103900000196A11DB11D05C026E8230F0296A11D39
:10391000B11D209335088093360890933708A09303
:103920003808B093390880913A0890913B08A091EB
:103930003C08B0913D080196A11DB11D80933A0845
:1039400090933B08A0933C08B0933D08BF91AF9182
:103950009F918F913F912F910F900FBE0F901F90CD
:1039600018953FB7F89480913A0890913B08A09140
:103970003C08B0913D0826B5A89B05C02F3F19F023
:103980000196A11DB11D3FBFBA2FA92F982F8827DF
:10399000820F911DA11DB11DBC01CD0142E0660F3A
:1039A000771F881F991F4A95D1F708958F929F928C
:1039B000AF92BF92CF92DF92EF92FF926B017C01A8
:1039C0000E94B11C4B015C01C114D104E104F1045B
:1039D00001F10E94752B0E94B11CDC01CB018819FA
:1039E0009909AA09BB09883E9340A105B10560F376
:1039F00021E0C21AD108E108F10888EE880E83E0C0
:103A0000981EA11CB11CC114D104E104F10419F7E2
:103A1000DBCFFF90EF90DF90CF90BF90AF909F9063
:103A20008F900895789484B5826084BD84B5816058
:103A300084BD85B5826085BD85B5816085BDEEE6B6
:103A4000F0E0808181608083E1E8F0E01082808195
:103A500082608083808181608083E0E8F0E0808103
:103A600081608083E1EBF0E0808184608083E0EB23
:103A7000F0E0808181608083EAE7F0E0808184600B
:103A80008083808182608083808181608083808167
:103A9000806880831092C10008958E3008F08E50A7
:103AA00020910C0190E4299F900111248770822BB2
:103AB00080937C0080917A00806480937A0080916A
:103AC0007A0086FDFCCF809178002091790090E00B
:103AD000922B0895833081F028F4813099F0823060
:103AE000A1F008958730A9F08830B9F08430D1F47E
:103AF000809180008F7D03C0809180008F778093BC
:103B00008000089584B58F7702C084B58F7D84BD11
:103B100008958091B0008F7703C08091B0008F7DB1
:103B20008093B0000895CF93DF9390E0FC01E25EB4
:103B3000FC4F2491FC01EE5CFC4F8491882361F1E1
:103B400090E0880F991FFC01E65AFC4FC591D49173
:103B5000FC01E05BFC4FA591B491611109C09FB7D6
:103B6000F8948881209582238883EC912E230BC0C2
:103B7000623061F49FB7F8948881322F30958323A7
:103B80008883EC912E2B2C939FBF06C08FB7F8949F
:103B9000E8812E2B28838FBFDF91CF9108951F934B
:103BA000CF93DF93282F30E0F901E65FFC4F84913B
:103BB000F901E25EFC4FD491F901EE5CFC4FC49137
:103BC000CC23C1F0162F81110E946A1DEC2FF0E06A
:103BD000EE0FFF1FE05BFC4FA591B4919FB7F894E7
:103BE000111104C08C91D095D82302C0EC91DE2B2A
:103BF000DC939FBFDF91CF911F910895885E9E4F08
:103C0000DC018D919C91DC01ED91FC910480F581AA
:103C1000E02D0994885E9E4FDC018D919C91DC0122
:103C2000ED91FC910190F081E02D0994885E9E4F0A
:103C3000DC018D919C91DC01ED91FC910680F78176
:103C4000E02D0994885E9E4FDC018D919C91DC01F2
:103C5000ED91FC910084F185E02D0994885E9E4FE2
:103C6000DC018D919C91DC01ED91FC910284F38546
:103C7000E02D0994FC011382128288EE93E0A0E00B
:103C8000B0E084839583A683B78386E593E0918330
:103C900080836487DF01A35FBE4F84EC96E01196BA
:103CA0009C938E93129611961C921E9212961196C8
:103CB0001C921E92179611961C921E9215971C929A
:103CC00011968FEB96E08D939C93EA5EFE4F8CEB02
:103CD00096E0918380830895FC01E35FFE4F71833A
:103CE00060833296518340833296318320830895D6
:103CF0000F931F93CF93DF93EC0180E090E08C0152
:103D00000F5F1F4F8897D8F4E881F9810480F5810F
:103D1000E02DCE010995892B51F0E881F9810680CB
:103D2000F781E02DCE01099500E010E0EDCF61E0D4
:103D300070E080E090E00E94D61CC801E0CFDF91E7
:103D4000CF911F910F910895FF920F931F93CF93DF
:103D5000DF93EC018B01F42E0E94781E62E774E081
:103D600088E997E00E94061B64E674E088E997E022
:103D70000E94061BB80188E997E00E94061B62E2D8
:103D800088E997E00E945B1BC85EDE4F66E574E041
:103D9000888199810E94061BB801888199810E94BF
:103DA000061B88819981FF2019F062E574E002C04A
:103DB0006FE474E0DF91CF911F910F91FF900C940D
:103DC000061B9F92AF92BF92CF92DF92EF92FF922B
:103DD0000F931F93CF93DF937C01942E8B01000FE1
:103DE000111F000F111FC0E0D0E0570188EEA81A84
:103DF0008EEFB80A0115110509F450C0CE3FD10568
:103E000080F064EA73E022C0F50180819181DC01D9
:103E1000ED91FC910680F781E02D09956C018D30C4
:103E200069F4D5018D919C91DC01ED91FC910480A8
:103E3000F581E02D0995892B39F726C08A3059F490
:103E4000209779F3911007C06CE973E088E997E057
:103E50000E94371B23C0F701EC0FFD1FC686B60179
:103E6000772740E150E088E997E00E944E1C69EF17
:103E700072E088E997E00E942A1B6C2D88E997E0A0
:103E80000E945B1B2196CDCF01501109E9F261E040
:103E900070E080E090E00E94D61CACCFF701EC0F00
:103EA000FD1F16868C2FDF91CF911F910F91FF90F0
:103EB000EF90DF90CF90BF90AF909F9008950F93B9
:103EC0001F93CF93DF93EC018B01BA0140E00E9476
:103ED000E11E6AEA73E088E997E00E94061B2E96CD
:103EE000BE0188E997E00E94491BB801CE010E94FB
:103EF000DD2D21E0892B09F020E0822FDF91CF9189
:103F00001F910F910895CF93DF93EC01FC01E85EC0
:103F1000FE4F662331F062E2808191810E945B1B3B
:103F200004C0808191810E94331BFE01EA5EFE4F36
:103F30006081718140E157E2CE01DF91CF910C9415
:103F40005F1F0F931F93CF93DF93EC018A0141E032
:103F50000E94A41EFE01E85EFE4FB801808191819F
:103F60000E942A1B61E0CE01DF91CF911F910F913A
:103F70000C94831F0F931F93CF93DF93EC018A015F
:103F800041E00E94A41EFE01E85EFE4FB801808160
:103F900091810E94061B61E0CE01DF91CF911F91BC
:103FA0000F910C94831FCF92DF92EF92FF92CF93E9
:103FB000DF93EC0169017A0140E00E94A41EFE013A
:103FC000E85EFE4F2AE030E0B701A60180819181D2
:103FD0000E94061C60E0CE01DF91CF91FF90EF9030
:103FE000DF90CF900C94831F4F925F926F927F92DD
:103FF0008F929F92AF92BF92EF92FF920F931F9377
:10400000CF93DF937C012A013B01480159010E94B3
:10401000781E68E474E088E997E00E94061B6BE371
:1040200074E088E997E00E94061B2AE030E0B301C3
:10403000A20188E997E00E94B61B6CE288E997E04C
:104040000E942C1B2AE030E0B501A40188E997E02A
:104050000E94F41BE701C85EDE4F6EE274E08881C7
:1040600099810E94061B2AE030E0B301A2018881F9
:1040700099810E94B61B63E073E0888199810E9458
:104080002A1B2AE030E0B501A401888199810E94B1
:10409000F41B40E157E265E274E0C701DF91CF9184
:1040A0001F910F91FF90EF90BF90AF909F908F90D6
:1040B0007F906F905F904F900C945F1FEF92FF92F4
:1040C0000F931F93CF93DF93EC018B017A010E9432
:1040D000781E65E973E088E997E00E94061BB80145
:1040E00088E997E00E94491BFE01E85EFE4FB80197
:1040F000808191810E94491B40E0B701CE010E945E
:10410000E11E182F6EE873E088E997E00E94061B15
:10411000BE01625F7F4F88E997E00E94491B812FB3
:10412000DF91CF911F910F91FF90EF900895EF9243
:10413000FF920F931F93CF93DF93EC018B017A01D2
:104140000E94781E67E873E088E997E00E94061BEA
:10415000B80188E997E00E94371BFE01E85EFE4F38
:10416000B801808191810E94371B40E0B701CE01E8
:104170000E94E11E182F60E873E088E997E00E9432
:10418000061BBE01625F7F4F88E997E00E94491BD2
:10419000812FDF91CF911F910F91FF90EF900895A4
:1041A0000F931F93CF93DF938C0144EF51E061E8AD
:1041B00075E00E94972066E775E0C8010E960E94A0
:1041C000EF2DEC01892B71F040E064EF71E0C80144
:1041D0000E94E11E8A85803339F08C85813331F06D
:1041E00081E005C08FEF03C080E001C083E0DF9174
:1041F000CF911F910F910895CF92DF92EF92FF928E
:104200000F931F93CF938C017A01C22F44EF51E09B
:104210006BE675E00E94972066E675E0C8010E9691
:104220000E94EF2D009721F4F701108280E024C056
:10423000BC016A5F7F4FFB0101900020E9F73197D5
:10424000E61BF70B8C2F90E00197E817F90710F4A5
:10425000C15001C0CE2FCC2ED12CA601C7010E9487
:10426000322EF701EC0DFD1D108240E064EF71E08D
:10427000C8010E94E11E8C2FCF911F910F91FF90DA
:10428000EF90DF90CF9008952F923F924F925F92E0
:104290006F927F928F929F92AF92BF92CF92DF9256
:1042A000EF92FF920F931F93CF93DF93CDB7DEB7BB
:1042B000CA57D1090FB6F894DEBF0FBECDBF5C015F
:1042C0001B01EB965FAF4EAFEB97390128010E94BF
:1042D000D020823014F480E08AC028E7AE014F5F1E
:1042E0005F4F60E2C5010E94FC208823A1F363E0D8
:1042F00073E0CE0101960E94092E892B61F363E0E1
:1043000073E080E090E00E94092E892B21F363E0A6
:1043100073E080E090E00E94092E4C01892BD9F2D5
:1043200063E073E080E090E00E94092E5C01892B3D
:1043300091F263E073E080E090E00E94092E8C012E
:10434000892B49F24EE050E0B401C6010E94322EA2
:10435000F6011686C5010E94BB2DF10160837183B1
:1043600082839383C8010E94BB2DEB96EEADFFAD17
:10437000EB976083718382839383E114F10481F06E
:1043800063E073E080E090E00E94092E009709F45A
:10439000A2CF0E94BB2DF701608371838283938338
:1043A0006114710481F063E073E080E090E00E94AA
:1043B000092E009709F48FCF0E94BB2DF301608373
:1043C0007183828393834114510481F063E073E02D
:1043D00080E090E00E94092E009709F47CCF0E94B3
:1043E000BB2DF201608371838283938381E0C65881
:1043F000DF4F0FB6F894DEBF0FBECDBFDF91CF9178
:104400001F910F91FF90EF90DF90CF90BF90AF90F2
:104410009F908F907F906F905F904F903F902F90E4
:1044200008958F929F92AF92BF92CF92DF92EF92B8
:10443000FF920F931F93CF93DF93EC016B01490120
:104440005A010E94781E69E773E088E997E00E94AC
:10445000061BB60188E997E00E94061B2AE030E0BF
:10446000B501A40188E997E00E94551C7E0188EE01
:10447000E81A8EEFF80AB601F701808191810E9457
:10448000061B2AE030E0B501A401F701808191818B
:104490000E94551C40E0B801CE010E94E11E182F79
:1044A00062E773E088E997E00E94061BBE01625F45
:1044B0007F4F88E997E00E94491B812FDF91CF91C0
:1044C0001F910F91FF90EF90DF90CF90BF90AF9032
:1044D0009F908F900895AF92BF92CF92DF92EF920C
:1044E000FF920F931F93CF93DF93EC016B017A013F
:1044F00059010E94781E6BE673E088E997E00E94FC
:10450000061BB60188E997E00E94061B62E288E973
:1045100097E00E942C1BB70188E997E00E94061BD8
:1045200062E288E997E00E945B1B8E01085E1E4FE5
:10453000B601F801808191810E94061B62E2F801B8
:10454000808191810E942C1BB701F80180819181AB
:104550000E94061B62E2F801808191810E945B1B30
:1045600040E0B501CE010E94E11E182F64E673E021
:1045700088E997E00E94061BBE01625F7F4F88E9D1
:1045800097E00E94491B812FDF91CF911F910F91DE
:10459000FF90EF90DF90CF90BF90AF9008950F9372
:1045A0001F93CF93DF93EC018A01A9010E9497200A
:1045B000882341F0B801CE010E960E94DD2D21E046
:1045C000892B09F020E0822FDF91CF911F910F916D
:1045D0000895CF92DF92EF92FF920F931F93CF93A4
:1045E000DF93EC017C0188EEE81A8EEFF80AD70120
:1045F0006D937C9361E08C850E94931D61E08C85B6
:104600000E94CF1D6AE070E080E090E00E94D61C1E
:1046100060E08C850E94CF1D64E670E080E090E051
:104620000E94D61C61E08C850E94CF1D6BE976E06C
:1046300088E997E00E94371B8EE0C82ED12C8E01AE
:104640000A5E1E4FF70180819181DC01ED91FC91A2
:104650000480F581E02D0995892B89F066E876E0E4
:1046600088E997E00E94371BF70180819181DC0186
:10467000ED91FC910680F781E02D0995E3CFF801DB
:104680004081518124EF31E063E876E0CE010E9461
:10469000CF22811163C0D7018D919C91DC01ED91F6
:1046A000FC910480F581E02D0995892B59F0F701E3
:1046B00080819181DC01ED91FC910680F781E02DF4
:1046C0000995E9CF24EF31E040E856E06DE776E068
:1046D000CE010E94CF22811141C064EF71E080E0E1
:1046E00090E00E94D61CB1E0CB1AD10809F0AACF05
:1046F0006BE476E088E997E00E94371BD8014D9182
:104700005C9124EF31E068E476E0CE010E94CF2294
:1047100064E670E080E090E00E94D61CF8014081E1
:10472000518124EF31E065E476E0CE010E94CF2292
:1047300064E670E080E090E00E94D61CD8014D91C4
:104740005C9124EF31E062E476E0CE010E94CF225A
:1047500064E670E080E090E00E94D61CF8014081A1
:10476000518124EF31E06DE376E0CE010E94CF224B
:1047700064E670E080E090E00E94D61CD8014D9184
:104780005C9124EF31E068E376E0CE010E94CF2215
:10479000D82E882309F497C0F8014081518124EF75
:1047A00031E06EE276E0CE010E94CF2264E670E056
:1047B00080E090E00E94D61CCE010E94781E67E245
:1047C00076E088E997E00E94061B6DE073E088E9D7
:1047D00097E00E94491B6DE073E0D7018D919C9199
:1047E0000E94491B41E064EF71E0CE010E94E11E8E
:1047F00060E276E088E997E00E94061B8E01025F86
:104800001F4FB80188E997E00E94491B65E176E0F7
:10481000C8010E94EF2D892B11F083E023C06AE0CC
:1048200076E0C8010E94EF2D892B11F082E01AC0BA
:104830006FEF75E0C8010E94EF2D892B11F081E028
:1048400011C06FEE75E0C8010E94EF2D892B11F0A9
:1048500084E008C06FED75E0C8010E94EF2D892B40
:1048600011F085E08D878D85813069F568ED75E003
:1048700088E997E00E94061B61E173E088E997E010
:104880000E94491B61E173E0F701808191810E94E0
:10489000491B41E064EF71E0CE010E94E11E61ED31
:1048A00075E088E997E00E94061BB80188E997E067
:1048B0000E94491B69EC75E0C8010E94EF2D892B0D
:1048C00011F086E08D878D2DDF91CF911F910F9193
:1048D000FF90EF90DF90CF900895FC01EA5EFE4FCD
:1048E0004081518124EF31E065E874E00C94CF22DF
:1048F000FC01EA5EFE4F4081518124EF31E069E71F
:1049000074E00C94CF220C9478240F931F93CF93D0
:10491000DF93EC018A01A9010E945E20882341F007
:10492000B801CE010E960E94DD2D21E0892B09F001
:1049300020E0822FDF91CF911F910F910895AF92C8
:10494000BF92CF92DF92EF92FF920F931F93CF937C
:10495000DF93CDB7DEB76E970FB6F894DEBF0FBE0C
:10496000CDBF8C015B016A01FC01EA5EFE4F408114
:10497000518124EF31E062E975E00E94CF22882363
:1049800009F488C08AE0E0E1F2E09E012F5F3F4F2A
:104990007901D90101900D928A95E1F7FE013B96CC
:1049A00084E1DF011D928A95E9F743E150E0B5010A
:1049B000CE010A960E94322EF70101900020E9F7FD
:1049C000319782E2808324EF31E04FE855E0B70170
:1049D000C8010E948524882309F45CC06CE875E056
:1049E00088E997E00E94061BB60188E997E00E94DB
:1049F000491BB6017801B8EEEB1ABEEFFB0AF701CE
:104A0000808191810E94491BD7018D919C910E94C8
:104A1000331BF70180819181DC01ED91FC910190C4
:104A2000F081E02D6AE109956AE273E088E997E098
:104A30000E94491BF80185858450823060F440E073
:104A400068EC70E0C8010E94E11E40E068EC70E094
:104A5000C8010E94E11E40E060E177E2C8010E94C7
:104A6000E11E7801FEE0EF0EF11C6DE273E0C7017C
:104A70000E94412E892B71F040E068EE73E0C8017E
:104A80000E94E11E60E073E0C7010E94202E21E039
:104A9000892B09F020E0822F6E960FB6F894DEBFC6
:104AA0000FBECDBFDF91CF911F910F91FF90EF907F
:104AB000DF90CF90BF90AF900895CF92DF92EF92AA
:104AC000FF920F931F93CF93DF93EC01680187014F
:104AD0000E941122B601CE010E960E94DD2D21E02A
:104AE000892B09F020E0822FDF91CF911F910F9148
:104AF000FF90EF90DF90CF900895EF92FF920F9389
:104B00001F93FC01EA5EFE4F00811181262F30E0E9
:104B100040E050E064EFE62EFF24F39469ED73E08B
:104B20000E945D251F910F91FF90EF9008950F93C4
:104B30001F93CF93DF93EC018B010E947824CE0169
:104B40000E946D24811102C080E038C021E030E075
:104B500040E050E06EEB73E0CE010E94D31F88234B
:104B600099F3FE01EC5EFE4F408151816BEB73E0E7
:104B7000CE010E94BA1F882339F3A80167EB73E0C6
:104B8000CE010E94A11F8823F9F2FE01ED5EFE4FC7
:104B90009081992399F021E030E040E050E061EB12
:104BA00073E0CE010E94D31F882371F261E0CE0131
:104BB000DF91CF911F910F910C947D25DF91CF91C3
:104BC0001F910F910895EF92FF920F931F93CF9330
:104BD000DF93EC01790198010E946B22B701CE01AD
:104BE0000E960E94DD2D21E0892B09F020E0822F16
:104BF000DF91CF911F910F91FF90EF9008958F92C9
:104C00009F92AF92BF92CF92DF92EF92FF920F935B
:104C10001F93CF93DF93EC0120E23EE4662309F477
:104C20000FC14EE555E063E575E00E94CF227E019D
:104C30008AEEE81A8EEFF80AF7014081518120E1EF
:104C400037E268E475E0CE010E94CF22882309F4A0
:104C500024C1F7014081518120E137E26AE275E029
:104C6000CE010E94CF22882309F417C14E01F3EF31
:104C70008F1AFEEF9F0AF4014081518141155105C1
:104C8000A9F4F7014081518120E335E765EC74E038
:104C9000CE010E94CF22882309F4FFC0F701408192
:104CA000518120E137E26CEB74E0E8C0F70120812C
:104CB000318100E117E266E175E0CE010E94E32553
:104CC000882309F4EAC0CE010E94781E8E01085E96
:104CD0001E4F6CE075E0F801808191810E94061BF7
:104CE000F40160817181F801808191810E94061B2D
:104CF0005E01F1EFAF1AFEEFBF0AF50180819181ED
:104D0000892B79F06EE473E0F801808191810E9433
:104D10002A1BF50160817181F801808191810E94D7
:104D2000061B6E01FFEECF1AFEEFDF0AF60180814F
:104D30009181892B79F06EE473E0F8018081918193
:104D40000E942A1BF60160817181F80180819181A6
:104D50000E94061B60E573E0F801808191810E944A
:104D6000491B65E075E088E997E00E94061B6BEF40
:104D700074E088E997E00E94061BF401608171816C
:104D800088E997E00E94061BF50180819181892BBB
:104D900069F06EE473E088E997E00E942A1BF50150
:104DA0006081718188E997E00E94061BF60180818D
:104DB0009181892B69F06EE473E088E997E00E94A5
:104DC0002A1BF6016081718188E997E00E94061B29
:104DD00060E573E088E997E00E94491BF701608174
:104DE000718140E157E2CE010E945F1F882309F4E0
:104DF00054C0F501408151814115510539F4F60146
:104E0000408151814115510571F43BCFF70120815B
:104E1000318100E117E266EE74E0CE010E94E325E5
:104E20008111EDCF3AC0F7012081318100E117E215
:104E300062ED74E0CE010E94E325811122CF2DC0E6
:104E400044EB54E069EA74E00E94CF22882329F100
:104E50008E010A5E1E4FF8014081518120E137E248
:104E60006CE974E0CE010E94CF228823B1F0F801F2
:104E70004081518120E137E261E974E0CE01DF91A8
:104E8000CF911F910F91FF90EF90DF90CF90BF9047
:104E9000AF909F908F900C94CF2280E0DF91CF91C4
:104EA0001F910F91FF90EF90DF90CF90BF90AF9048
:104EB0009F908F900895AF92BF92CF92DF92EF9222
:104EC000FF920F93CF93DF935B016A01E22E0E9660
:104ED0000E94EF2DEC01892BC1F0C5010E94E62D47
:104EE0008C0F9D1FC0E0F12CC01741F0B7010E944C
:104EF000152E009751F00196CF5FF6CF0E94BF2D7F
:104F0000F6019183808381E001C080E0DF91CF9141
:104F10000F91FF90EF90DF90CF90BF90AF900895EA
:104F2000EF92FF920F93CF93DF93EC017B0144EF5D
:104F300051E060EF73E00E94972000E02CE2A701AF
:104F400065EE73E0CE010E945B27DF91CF910F9158
:104F5000FF90EF9008954F925F926F927F92AF9281
:104F6000BF92CF92DF92EF92FF920F931F93CF9356
:104F7000DF93EC015A01690127013801FC01EA5E67
:104F8000FE4F00811181262F30E040E050E084EF99
:104F9000E82EFF24F39466E174E0CE010E945D25C3
:104FA000811102C080E017C040E0B201CE010E9432
:104FB000E11E01E02CE2A50169E074E0CE010E944F
:104FC0005B27882379F302E02CE2A6016CEF73E003
:104FD000CE010E945B27DF91CF911F910F91FF902F
:104FE000EF90DF90CF90BF90AF907F906F905F90E9
:104FF0004F9008954F925F926F927F928F929F92FF
:10500000AF92BF92CF92DF92EF92FF920F931F93D6
:10501000CF93DF93EC012A013901480157010E9427
:105020009725882309F471C0A20161ED73E0CE01D8
:105030000E94BA1F882309F468C0A80160E070E0EC
:1050400000E117E220E030E0CE010E94F41F882347
:1050500009F45BC0FE01E85EFE4F80819181DC01B6
:10506000ED91FC910280F381E02DA401B30109953B
:10507000FE01EA5EFE4F6081718140E157E2CE01A0
:105080000E945F1F882309F440C010E1E12E17E25F
:10509000F12E00E010E09601A50161E0CE010E9432
:1050A000AB27882391F168EC73E088E997E00E94D0
:1050B000061BF501608171814AE050E088E997E0C4
:1050C0000E94E21B62EC73E088E997E00E94061BF5
:1050D000D6016D917C914AE050E088E997E00E940A
:1050E000E21BB601CE01DF91CF911F910F91FF908E
:1050F000EF90DF90CF90BF90AF909F908F907F9078
:105100006F905F904F900C94902780E0DF91CF914B
:105110001F910F91FF90EF90DF90CF90BF90AF90D5
:105120009F908F907F906F905F904F900895AF9277
:10513000BF92CF92DF92EF920F931F93CF93DF93A3
:10514000EC016A015901102F0E2D44EF51E00E942D
:105150009720212FA501B601CE010E945B27182FB1
:10516000882331F040E064EF71E0CE010E94E11E3F
:10517000812FDF91CF911F910F91EF90DF90CF9012
:10518000BF90AF900895EF920F939B01EE24E394AC
:105190000CE242EC55E06BEB75E00E9497280F9112
:1051A000EF900895EF920F93CF93DF9300D0CDB798
:1051B000DEB7EE24E3940CE29E012F5F3F4F43EBFA
:1051C00055E06AEA75E00E949728882311F08981EA
:1051D00001C080E00F900F90DF91CF910F91EF9081
:1051E0000895EF920F93CF93DF9300D0CDB7DEB742
:1051F000E12C0CE29E012F5F3F4F43EA55E06CE942
:1052000075E00E949728882311F0898101C080E011
:105210000F900F90DF91CF910F91EF900895209113
:1052200080083091810828173907B9F490913E0819
:1052300080913F08981789F0E0913E08F0E0E05C2B
:10524000F74F808120913E0830E02F5F3F4F2F7352
:10525000332720933E0890E008958FEF9FEF089545
:105260001F93CF93DF93DC015C968D919C915D97AA
:10527000009739F421E030E013963C932E93129777
:105280003BC05196ED91FC91529750962C915097BE
:10529000322F30951FB75E964C915E97742F7270C7
:1052A00041FD6095F8944081772311F0422B01C0B5
:1052B00043234083EC012197F1F748E0508160FFE0
:1052C00002C0522B01C053235083EC012197F1F708
:1052D0006695415099F78081772319F08323808365
:1052E00002C0282B20831FBF5C968D919C915D97F7
:1052F0000197F1F781E090E0DF91CF911F91089540
:10530000089520918008309181082817390771F499
:1053100090913E0880913F08981741F0E0913E0837
:10532000F0E0E05CF74F808190E008958FEF9FEF11
:10533000089520918008309181082817390771F469
:1053400080913F0820913E0890E0805C9F4F821B37
:10535000910960E470E00E94EE2B089580E090E0F7
:105360000895E0918008F0918108E817F90769F441
:10537000A389B4899C918589809589238C93109207
:1053800081081092800881E0089580E00895CF930D
:10539000DF93EC018A8D9B8D892BF1F08091800841
:1053A00090918108C817D907B9F0009711F00E94B1
:1053B000B1298E8D8E7F8E8F10923F0810923E08FD
:1053C000D0938108C0938008EB89FC8990818D89F6
:1053D000892B808381E001C080E0DF91CF91089527
:1053E0001F920F920FB60F9211242F933F934F935A
:1053F0005F936F937F938F939F93AF93BF93EF933D
:10540000FF93E0918008F0918108309709F451C032
:10541000968DA685B785858591FF04C09C918923CB
:1054200029F447C09C91892309F043C0A389B4891A
:105430009C918589809589238C938689978901978A
:10544000F1F7608D718DA685B785558538E020E030
:10545000CB010197F1F7822F90E095958795282F42
:105460004C91452309F02068315091F7868D81FDDC
:10547000209580913F0890E001968F739927309195
:105480003E08381749F0A0913F08B0E0A05CB74F44
:105490002C9380933F0803C0868D8160868F828D18
:1054A000938D0197F1F7A389B4899C918589892B04
:1054B0008C93FF91EF91BF91AF919F918F917F91CD
:1054C0006F915F914F913F912F910F900FBE0F9071
:1054D0001F9018951F93CF93DF93EC01162F6E8DBD
:1054E0006695617081E06827812F0E94CF1D61E081
:1054F000812F0E94931D812F90E0FC01E25EFC4F02
:10550000E491E88BFC01EE5CFC4FE491F0E0EE0FDF
:10551000FF1FE05BFC4F859194919A8B898BDF9103
:10552000CF911F9108951F93CF93DF93EC01162F16
:1055300060E0812F0E94931D8E8D81FD04C061E08B
:10554000812F0E94CF1D1C87812F90E0FC01E25E1D
:10555000FC4FE491ED87FC01EE5CFC4FE491F0E040
:10556000EE0FFF1FEA5BFC4F859194919F878E871A
:10557000DF91CF911F9108951F93CF93DF93EC019B
:10558000162F1B821A8288EE93E0A0E0B0E08C8395
:105590009D83AE83BF8386E693E0998388831F8AC9
:1055A0001E8A198E188E1B8E1A8E1D8E1C8E8E8D45
:1055B0008E7F20FB81F98E8F642FCE010E946A2A94
:1055C000612FCE01DF91CF911F910C94932ACF933D
:1055D000DF93EC019A01AB011B8E1A8E198E188E87
:1055E0001F8A1E8A60E079E08DE390E00E94242CFF
:1055F000F9012430310518F0C901039702C081E098
:1056000090E09D8F8C8F6C85663108F069C0C90170
:10561000969587958431910510F0439702C081E0FB
:1056200090E09F8B8E8B369718F0C901059702C0CA
:1056300081E090E0998F888FC901880F991F280F0A
:10564000391F36952795369527952D30310518F059
:105650002C50310902C021E030E03B8F2A8F90911D
:105660006800683050F021E06E3008F420E081E0FE
:1056700001C0880F2A95EAF701C084E0892B809346
:1056800068009C85983038F09E3040F0963148F0A4
:1056900020E030E008C02DE630E005C02BE630E029
:1056A00002C02CE630E03C8B2B8B983030F481E04C
:1056B00001C0880F9A95EAF70EC0292F30E09E307E
:1056C00018F42850310902C02E50310981E001C080
:1056D000880F2A95EAF78D8B8C8D9D8D0197F1F7B8
:1056E000CE01DF91CF910C94C729089508951F92A0
:1056F0000F920FB60F9211242F933F934F935F9306
:105700006F937F938F939F93AF93BF93EF93FF9389
:10571000E0910D01F0910E010995FF91EF91BF917C
:10572000AF919F918F917F916F915F914F913F9139
:105730002F910F900FBE0F901F9018951F920F92F0
:105740000FB60F9211242F933F934F935F936F9354
:105750007F938F939F93AF93BF93EF93FF93E091CA
:105760000F01F09110010995FF91EF91BF91AF9159
:105770009F918F917F916F915F914F913F912F9169
:105780000F900FBE0F901F9018950E94CA2B08F41F
:1057900081E00895990F0008550FAA0BE0E8FEEF8D
:1057A00016161706E807F907C0F012161306E407E5
:1057B000F50798F0621B730B840B950B39F40A26DE
:1057C00061F0232B242B252B21F408950A2609F4BC
:1057D000A140A6958FEF811D811D089597FB072E8F
:1057E00016F4009407D077FD09D00E94722C07FCB4
:1057F00005D03EF4909581959F4F089570956195E1
:105800007F4F0895A1E21A2EAA1BBB1BFD010DC0FC
:10581000AA1FBB1FEE1FFF1FA217B307E407F50760
:1058200020F0A21BB30BE40BF50B661F771F881F3C
:10583000991F1A9469F760957095809590959B01D2
:10584000AC01BD01CF010895052E97FB1EF4009415
:105850000E943B2C57FD07D00E94022C07FC03D06E
:105860004EF40C943B2C50954095309521953F4F2C
:105870004F4F5F4F089590958095709561957F4F3C
:105880008F4F9F4F0895EE0FFF1F0590F491E02D6D
:1058900009940E94862CA59F900DB49F900DA49F03
:1058A000800D911D1124089597FB10F8169400089F
:1058B0000F93083098F00850232F342F452F562F80
:1058C000672F782F892F902DF4CF05949795879582
:1058D0007795679557954795379527950A95AAF730
:1058E0000F910895AA1BBB1B51E107C0AA1FBB1F44
:1058F000A617B70710F0A61BB70B881F991F5A955C
:10590000A9F780959095BC01CD010895A29FB001A3
:10591000B39FC001A39F700D811D1124911DB29FE3
:10592000700D811D1124911D08950F931F93CF9326
:10593000DF938230910510F482E090E0E0918408DA
:10594000F091850820E030E0A0E0B0E0309719F158
:10595000408151810281138148175907C8F084178B
:10596000950769F4109731F012960C9312971396DD
:105970001C9327C0009384081093850822C021152A
:10598000310519F04217530718F49A01BD01EF01D0
:10599000DF01F801DBCF21153105F9F0281B390BA8
:1059A0002430310580F48A819B816115710521F0D5
:1059B000FB019383828304C09093850880938408BD
:1059C000FE01329644C0FE01E20FF31F81939193D2
:1059D00022503109398328833AC0209182083091BE
:1059E0008308232B41F42091080130910901309361
:1059F0008308209382082091060130910701211528
:105A0000310541F42DB73EB740910A0150910B0189
:105A1000241B350BE0918208F0918308E217F3070D
:105A2000A0F42E1B3F0B2817390778F0AC014E5F0E
:105A30005F4F2417350748F04E0F5F1F50938308C0
:105A4000409382088193919302C0E0E0F0E0CF019F
:105A5000DF91CF911F910F910895CF93DF9300971E
:105A600009F481C0FC01329713821282A09184084C
:105A7000B0918508109781F420813181820F931FA6
:105A800020918208309183082817390751F5F09347
:105A90008308E093820867C0ED0120E030E0CE1774
:105AA000DF0740F44A815B819E0141155105F1F009
:105AB000EA01F5CFD383C28340815181840F951FC2
:105AC000C817D90759F488819981840F951F0296C8
:105AD000918380838A819B81938382832115310501
