:100000000C940C010C9434010C9434010C94921156
:100010000C9492110C9492110C9434010C943401B0
:100020000C9434010C9434010C9434010C9434017C
:100030000C9434010C9434010C9434010C9434016C
:100040000C941A0F0C9434010C94650D0C94970DBC
:100050000C9434010C9434010C9434010C9434014C
:100060000C94A0090C94340154656D703D00207C03
:10007000200043757272656E743D00207C20005034
:10008000562D563D00207C2000426174742D563D53
:10009000004265686176696F75720053656E6469C8
:1000A0006E6720646174612E2E2E00537461727429
:1000B000696E672E2E2E002C20436861723D002C45
:1000C0002053686F72743D002C20496E743D0045CA
:1000D0004550524F4D20546573743A204C6F6E67F3
:1000E0003D004641494C4544204348415200464169
:1000F000494C45442053484F5254004641494C45D1
:100100004420494E54004641494C4544204C4F4EF2
:100110004700426173696320454550524F4D20545A
:100120006573740052656164696E672073656E73F0
:100130006F72732E2E2E0053494D383030480053C5
:10014000494D434F4D5F53494D3533323045005390
:10015000494D434F4D5F53494D3533323041005384
:10016000494D383030205231330053494D38303802
:10017000205231330053494D383038205231340049
:1001800041542B435648553D3000415445300041C1
:100190005445300041540041540041540041540042
:1001A0004154004154004F4B00464F4E4100464FD2
:1001B0004E416E657400000000080002010000035B
:1001C00004070000000000000000010204081020E5
:1001D00040800102040810200102040810200404D9
:1001E00004040404040402020202020203030303DF
:1001F0000303000000002300260029000000000087
:10020000250028002B0000000000240027002A0001
:100210008E03360CC70DA70311241FBECFEFD8E005
:10022000DEBFCDBF11E0A0E0B1E0E4E0FAE202C041
:1002300005900D92A63BB107D9F726E0A6EBB1E0F9
:1002400001C01D92A43CB207E1F711E0CBE0D1E080
:1002500004C02197FE010E94AB13C830D107C9F733
:100260000E94F50D0C94F5140C9400001F93CF938D
:10027000DF93EC01162F60E00E946E06C65EDE4F33
:100280001883DF91CF911F9108950895CF93DF9345
:10029000FC01DB0112968D919C91139793838283CD
:1002A00014964D915D916D917C9117974483558380
:1002B0006683778318964D915D916D917C911B9724
:1002C00040875187628773871C968C911C9784871F
:1002D0001D968C911D978587BF01625F7F4FCD0171
:1002E0000E969F01235F3E4FEC014991CE01EB0139
:1002F0004993BE01C217D307B9F7CD01835F9E4F63
:10030000EC0188819981EB0199838883ED01C15FBC
:10031000DE4F88819981EF01C15FDE4F9983888329
:10032000ED01CF5EDE4F88819981EF01CF5EDE4F18
:1003300099838883ED01CD5EDE4F8881EF01CD5E2C
:10034000DE4F8883ED01CC5EDE4F88819981EF011D
:10035000CC5EDE4F99838883ED01CA5EDE4F8881D3
:100360009981EF01CA5EDE4F99838883A85EBE4FF4
:100370008D919C91E85EFE4F91838083DF91CF91B8
:100380000895865E9E4FFC018081882311F081E0F4
:1003900008950895FC01648360E005960C946E0650
:1003A0000895CF93DF93FC01DB0112968D919C9110
:1003B00013979087878314964D915D916D917C91F1
:1003C0001797418752876387748718964D915D917F
:1003D0006D917C911B97458756876787708B1C961C
:1003E0008C911C97818B1D968C911D97828BBF01E0
:1003F0006D5E7F4FCD010E969F012E5E3E4FEC014C
:100400004991CE01EB014993BE01C217D307B9F759
:10041000CD01835F9E4FEC0188819981EB01998327
:100420008883ED01C15FDE4F88819981EF01CC5E49
:10043000DE4F99838883ED01CF5EDE4F88819981FD
:10044000EF01CA5EDE4F99838883ED01CD5EDE4FFA
:100450008881EF01C85EDE4F8883ED01CC5EDE4F00
:1004600088819981EF01C75EDE4F99838883ED0112
:10047000CA5EDE4F88819981EF01C55EDE4F9983A8
:100480008883A85EBE4F8D919C91E35EFE4F918361
:100490008083DF91CF910895EF92FF920F931F9386
:1004A000CF93DF93FC012481211127C0EC018FE160
:1004B00090E00E94040E8C0120E042E063E00E9484
:1004C0005E127E01F1EEEF1AFEEFFF0AF7011183D3
:1004D000008340EC52E160E070E0C8010E948912A4
:1004E000F70160817181CE010596DF91CF911F9157
:1004F0000F91FF90EF900C945E0781E0DF91CF9118
:100500001F910F91FF90EF900895CF93DF93EC012F
:1005100069E870E086ED95E00E94450E69817A8178
:100520004AE050E086ED95E00E94020F65E870E039
:1005300086ED95E00E94450E6FE770E086ED95E050
:100540000E94450E6D817E814AE050E086ED95E087
:100550000E94020F6BE770E086ED95E00E94450E69
:1005600062E770E086ED95E00E94450E6B817C812C
:100570004AE050E086ED95E00E94020F6EE670E0E2
:1005800086ED95E00E94450E68E670E086ED95E008
:100590000E94450E6F8178854AE050E086ED95E037
:1005A000DF91CF910C94080F67EF73E08BED92E031
:1005B0000E94460167EF73E08AEB91E00E94D1014F
:1005C0008AEB91E00E944C02882329F061E08BEDD8
:1005D00092E00C94C101089567E071E086ED95E02A
:1005E0000E94810E60E085E00E94821068EB7BE053
:1005F00080E090E00C94890F61E085E00E94461055
:1006000061E085E00E94821068EB7BE080E090E092
:100610000E94890F61E08DE00E94461026E040E8CC
:1006200055E260E070E086ED95E00E94000D6BEA17
:1006300070E086ED95E00E946F0E0E94D40286EF76
:1006400093E00E9499040C94EC02CF93DF93CDB712
:10065000DEB72A970FB6F894DEBF0FBECDBF81E09C
:100660008983BE016F5F7F4F89EB91E00E94F005A7
:1006700081E02A960FB6F894DEBF0FBECDBFDF91A2
:10068000CF9108956BE970E086ED95E00E946F0EC2
:1006900080E0089568EE73E080E090E00E94890FAA
:1006A0008091B6019091B70101969093B701809324
:1006B000B60161E970E086ED95E00E94450E68E1C3
:1006C00071E086ED95E00E94690E4AE050E060918D
:1006D000B80186ED95E00E94F00E8091B80180FF90
:1006E00009C00E942503882329F08091B8018E7FDC
:1006F0008093B8018091B80181FF09C00E94420334
:10070000882329F08091B8018D7F8093B801809172
:10071000B801811102C00C94EC02089564E087EFE7
:1007200093E00E946E0660E086EF93E00E94B603BD
:1007300061E08BED92E00E94360161E08AEB91E08E
:100740000E94CA0161E089EB91E00C94C3058AEB39
:1007500091E00E94D0018BED92E00C944501DC0108
:10076000ED91FC910190F081E02D0994FC016083F2
:10077000611104C080E895E00C949B0B0895EF9202
:10078000FF920F931F93CF93DF93EB017B01E40E56
:10079000F11C8C01CE15DF0521F160E570E080E8E9
:1007A00095E00E94B70B612F70E080E895E00E9411
:1007B000AF03B801772780E895E00E94AF03699105
:1007C00080E895E00E945C0B80E895E00E94330C85
:1007D0006FE070E080E090E00E94890F0F5F1F4F94
:1007E000D9CFDF91CF911F910F91FF90EF90089596
:1007F000EF92FF920F931F93CF93DF93EB017B0157
:10080000E40EF11C8C01CE15DF0571F160E570E09E
:1008100080E895E00E94B70B612F70E080E895E0DA
:100820000E94AF03B801772780E895E00E94AF03EC
:1008300080E895E00E94330C41E050E060E570E014
:1008400080E895E00E94300C80E895E00E94CD0A97
:10085000892B29F080E895E00E94D50A01C08FEF2E
:1008600089930F5F1F4FCFCFDF91CF911F910F91D2
:10087000FF90EF900895CF93DF931F92CDB7DEB72F
:10088000CB0141E0BE016F5F7F4F0E94F803898179
:100890000F90DF91CF910895CF93DF9300D0CDB724
:1008A000DEB7CB0142E0BE016F5F7F4F0E94F803CD
:1008B00089819A810F900F90DF91CF910895CF9306
:1008C000DF9300D000D0CDB7DEB7CB0144E0BE014E
:1008D0006F5F7F4F0E94F80369817A818B819C81D1
:1008E0000F900F900F900F90DF91CF910895CF93BD
:1008F000DF93CDB7DEB728970FB6F894DEBF0FBEF3
:10090000CDBFCB0148E0BE016F5F7F4F0E94F8036F
:1009100029813A814B815C816D817E818F819885AF
:1009200028960FB6F894DEBF0FBECDBFDF91CF91F2
:1009300008952F923F924F925F926F927F928F9283
:100940009F92AF92BF92CF92DF92EF92FF920F935E
:100950001F93CF93DF93CDB7DEB763970FB6F894AD
:10096000DEBF0FBECDBF5C0162E171E086ED95E0B8
:100970000E94450E8EE1282E28EA298389EF8A837A
:1009800091E49B83A9ECAC83B8EDBD83E7EFEE83E4
:1009900026E42F8389EA888748E0BE016F5F7F4F96
:1009A00085E090E00E94BF0365E070E0C5010E9411
:1009B0007704288BC32ED42E152F362E872E982EF3
:1009C000092F283A394F4144594C684D774F864496
:1009D000994A49F066E071E086ED95E00E946F0E5D
:1009E000BFEFEB1AFB0A88E499EFA1E1B9EC898724
:1009F0009A87AB87BC8744E0BE01675F7F4F85E085
:100A000090E00E94BF0365E070E0C5010E945F04B2
:100A10002B013C0198E4491699EF590691E16906CA
:100A200099EC790649F06BEF70E086ED95E00E9455
:100A30006F0EAFEFEA1AFA0A8AE39CE59E878D876C
:100A400042E0BE01635F7F4F85E090E00E94BF03FC
:100A500065E070E0C5010E944C049A8B898B8A3353
:100A60009C4549F06EEE70E086ED95E00E946F0EB9
:100A7000BFEFEB1AFB0A81EE8F8741E0BE01615F99
:100A80007F4F85E090E00E94BF0365E070E0C50104
:100A90000E943B048B8B813E49F062EE70E086ED54
:100AA00095E00E946F0EEFEFEE1AFE0A6FEC70E019
:100AB00086ED95E00E94450E28893C2D4D2D512F45
:100AC000632D782D892D902F00E20E947B13F22F49
:100AD000E32F20E130E0CF01BA01492F582F86EDF6
:100AE00095E00E94DC0E20E130E048895C2D6D2D00
:100AF000712F86ED95E00E94DC0E68EC70E086EDCB
:100B000095E00E94450E20E130E0B301A20186EDA0
:100B100095E00E94DC0E6FEB70E086ED95E00E94A0
:100B2000450E40E150E069897A8986ED95E00E94A2
:100B3000020F67EB70E086ED95E00E94450E40E104
:100B400050E06B8986ED95E00E94F00E2A9421100A
:100B500013CFC70163960FB6F894DEBF0FBECDBFAB
:100B6000DF91CF911F910F91FF90EF90DF90CF9089
:100B7000BF90AF909F908F907F906F905F904F90BD
:100B80003F902F900895FC0160830895FC018081BF
:100B9000811103C0862F0C94001085E090E0089529
:100BA000FC018091110521E0280F20931105822F6F
:100BB00090E0928381833AE0239FC00111249683C1
:100BC0008583822F67E00E941813892F90E0948319
:100BD000838334E6239FC00111249087878308957F
:100BE000AF92BF92CF92DF92EF92FF920F931F933B
:100BF000CF93DF938C01EB0164E271E086ED95E029
:100C00000E946F0EF8018081882321F0CE010E949E
:100C1000D0051BC06EE0C8010E94C6056C016FE0E4
:100C2000C8010E94C6055C0161E1C8010E94C605B9
:100C30007C0160E1C8010E94C605BA82A982DE82F9
:100C4000CD82FC82EB8298878F83CE01DF91CF919A
:100C50001F910F91FF90EF90DF90CF90BF90AF90DA
:100C60000C948502885E9E4FDC018D919C91DC0185
:100C7000ED91FC910480F581E02D0994885E9E4FF2
:100C8000DC018D919C91DC01ED91FC910190F08152
:100C9000E02D0994885E9E4FDC018D919C91DC01D2
:100CA000ED91FC910680F781E02D0994885E9E4FBE
:100CB000DC018D919C91DC01ED91FC910084F1852A
:100CC000E02D0994885E9E4FDC018D919C91DC01A2
:100CD000ED91FC910284F385E02D0994FC011382CF
:100CE000128288EE93E0A0E0B0E084839583A6832F
:100CF000B7838AE691E0918380836487DF01A35FF5
:100D0000BE4F8EEA91E011969C938E9312961196A7
:100D10001C921E92129611961C921E921796119674
:100D20001C921E9215971C92119689EA91E08D9360
:100D30009C93EA5EFE4F86EA91E09183808308955A
:100D40000F931F93CF93DF93EC0180E090E08C0131
:100D50000F5F1F4F8897D8F4E881F9810480F581EF
:100D6000E02DCE010995892B51F0E881F9810680AB
:100D7000F781E02DCE01099500E010E0EDCF61E0B4
:100D800070E080E090E00E94890FC801E0CFDF9121
:100D9000CF911F910F910895BF92CF92DF92EF9262
:100DA000FF920F931F93CF93DF937C01B42E8B019F
:100DB000000F111F000F111FC0E0D0E0670188EE87
:100DC000C81A8EEFD80A0115110589F1CE3FD10559
:100DD00070F5D6018D919C91DC01ED91FC91048020
:100DE000F581E02D0995892BC1F0F6018081918173
:100DF000DC01ED91FC910680F781E02D09958D30A5
:100E000041F38A3021F4209721F3BB2081F0F701D0
:100E1000EC0FFD1F86872196DCCF0150110939F0B8
:100E200061E070E080E090E00E94890FCCCFF70194
:100E3000EC0FFD1F16868C2FDF91CF911F910F9124
:100E4000FF90EF90DF90CF90BF900895EF92FF92C8
:100E50000F931F93CF93DF93EC017B018A010E94D4
:100E6000A006FE01E85EFE4FB701808191810E94DD
:100E70006F0E40E0B801CE01DF91CF911F910F912D
:100E8000FF90EF900C94CC060F931F93CF93DF93BA
:100E9000EC018A01A9010E942607882341F0B801CC
:100EA000CE010E960E94D21421E0892B09F020E099
:100EB000822FDF91CF911F910F910895CF92DF92F2
:100EC000EF92FF920F931F93CF93DF93EC017C017E
:100ED00088EEE81A8EEFF80AD7016D937C9361E0F3
:100EE0008C850E94461061E08C850E9482106AE029
:100EF00070E080E090E00E94890F60E08C850E94A5
:100F0000821064E670E080E090E00E94890F61E06A
:100F10008C850E9482108EE0C82ED12C8E010A5E34
:100F20001E4FF70180819181DC01ED91FC910480DD
:100F3000F581E02D0995892B59F0F7018081918188
:100F4000DC01ED91FC910680F781E02D0995E9CF58
:100F5000F8014081518124EF31E063EA71E0CE0174
:100F60000E94440781115DC0D7018D919C91DC01E5
:100F7000ED91FC910480F581E02D0995892B59F0C4
:100F8000F70180819181DC01ED91FC910680F78170
:100F9000E02D0995E9CF24EF31E040EA51E06DE919
:100FA00071E0CE010E94440781113BC064EF71E003
:100FB00080E090E00E94890FB1E0CB1AD10809F0DF
:100FC000B0CFD8014D915C9124EF31E06AE971E036
:100FD000CE010E94440764E670E080E090E00E9449
:100FE000890FF8014081518124EF31E067E971E018
:100FF000CE010E94440764E670E080E090E00E9429
:10100000890FD8014D915C9124EF31E064E971E0E2
:10101000CE010E94440764E670E080E090E00E9408
:10102000890FF8014081518124EF31E06FE871E0D0
:10103000CE010E94440764E670E080E090E00E94E8
:10104000890FD8014D915C9124EF31E06AE871E09D
:10105000CE010E944407D82E882309F469C0F80104
:101060004081518124EF31E060E871E0CE010E94BF
:10107000440764E670E080E090E00E94890FCE01B2
:101080000E94A00664E271E0D7018D919C910E94BC
:10109000810E41E064EF71E0CE010E94CC068E012A
:1010A000025F1F4F65E771E0C8010E94DB14892BC6
:1010B00011F083E023C06AE671E0C8010E94DB14EE
:1010C000892B11F082E01AC06FE571E0C8010E941F
:1010D000DB14892B11F081E011C06FE471E0C801CD
:1010E0000E94DB14892B11F084E008C06FE371E0EB
:1010F000C8010E94DB14892B11F085E08D878D8556
:101100008130B1F468E271E0F701808191810E9441
:10111000810E41E064EF71E0CE010E94CC0667E3EE
:1011200071E0C8010E94DB14892B11F086E08D87E5
:101130008D2DDF91CF911F910F91FF90EF90DF9058
:10114000CF90089510927F0581E080937D051092E5
:101150007C0561E082E10E94821061E083E10E94EF
:101160008210E9EBF0E080818E7F808380818D7F2B
:10117000808388E48093B80085E48093BC00089560
:10118000413208F043C090917F059111FCCF91E06E
:1011900090937F0520937D052FEF209312051092E9
:1011A0005705240F2093560590937E0590917E0558
:1011B000880F892B80937E0580917C05813061F4B6
:1011C00010927C0580917E058093BB008091BC00CD
:1011D00083FDF8CF85EC01C085EE8093BC00809143
:1011E0007F058130E1F380915705841710F4409119
:1011F0005705A8E5B5E0962FFB018E2F891B8417B4
:1012000018F48D918193F9CF842F089580E008958B
:101210000F93413208F04AC090917F059111FCCFA5
:1012200032E030937F0500937D053FEF3093120548
:101230001092570540935605562FA8E5B5E0FB01DF
:101240003E2F351B341718F431913D93F9CF10928E
:101250007E0530917E05880F832B80937E058091DB
:101260007C05813061F410927C0580917E0580932D
:10127000BB008091BC0083FDF8CF85EC01C085EEFA
:101280008093BC00222321F080917F058230D1F32E
:10129000809112058F3F79F080911205803241F0E4
:1012A00080911205803331F094E005C091E003C0D5
:1012B00092E001C093E0892F0F9108954091340589
:1012C000262F30E0240F311D21323105DCF420912E
:1012D0007F052430C9F4FC0180E090E0861758F4C3
:1012E000309134052191DC01AA5CBA4FA30FB11DE6
:1012F0002C930196F3CF80913405680F60933405E9
:1013000080E0089581E0089582E008959093790542
:1013100080937805089590937B0580937A050895CE
:1013200085ED8093BC008091BC0084FDFCCF1092C1
:101330007F05089585EC8093BC0010927F05089589
:101340001F920F920FB60F9211242F933F934F933A
:101350005F936F937F938F939F93AF93BF93EF931D
:10136000FF938091B900887F803609F49EC078F59C
:10137000883209F45DC090F4803109F456C038F425
:10138000882309F4F5C0883009F44FC0F5C08831CE
:1013900009F44EC0803209F45FC0EEC0803409F415
:1013A0006AC058F4803309F457C0883309F0E4C0A8
:1013B000809312050E949A09DFC0803509F44FC05E
:1013C000883509F45DC0883409F0D6C0D3C08839A7
:1013D00009F4C4C0A8F4883709F467C038F4883623
:1013E00009F463C0803709F460C0C6C0883809F4C6
:1013F000B5C0803909F45FC0803809F0BDC05BC05A
:10140000803B09F483C038F4803A09F466C0883A16
:1014100009F47CC0B1C0803C09F4A4C0883C09F444
:10142000A1C0883B09F487C0A7C080917E0510C089
:101430009091570580915605981770F5E0915705E2
:1014400081E08E0F80935705F0E0E85AFA4F8081D3
:101450008093BB0085EC83C0809312058BC0E09124
:10146000570581E08E0F809357058091BB00F0E017
:10147000E85AFA4F808390915705809156056BC0CA
:10148000E091570581E08E0F809357058091BB0056
:10149000F0E0E85AFA4F808380917D0581116AC09F
:1014A00081E080937C0584EA5EC083E080937F05C1
:1014B00010921305CFCF80911305803208F04EC0F3
:1014C000E091130581E08E0F809313058091BB009E
:1014D000F0E0EC5EFA4F8083BDCF0E949A098091C4
:1014E0001305803230F4E0911305F0E0EC5EFA4F22
:1014F00010826091130570E0E0917805F091790514
:1015000084E195E009951092130536C084E080933C
:101510007F051092350510923405E0917A05F0911F
:101520007B05099580913405811105C081E0809388
:10153000340510923605E091350581E08E0F8093D9
:101540003505F0E0EA5CFA4F80818093BB00909112
:10155000350580913405981708F47CCF85E8809391
:10156000BC000AC085EC8093BC0010927F0504C0CB
:10157000109212050E949009FF91EF91BF91AF91D7
:101580009F918F917F916F915F914F913F912F919B
:101590000F900FBE0F901F9018958091B40590E0AA
:1015A0002091B505821B910908959091B505809110
:1015B000B405981750F4E92FF0E0EA54FA4F20816F
:1015C00030E09F5F9093B50502C02FEF3FEFC90158
:1015D0000895E091B5058091B405E81730F4F0E086
:1015E000EA54FA4F808190E008958FEF9FEF0895BD
:1015F0000895CF93DF93EC01E0918C05F0918D0578
:101600003097F1F09091B5058091B4059817C0F02E
:1016100090E0292F30E02617370754F4DE01A20F9F
:10162000B31F4C91D901AA54BA4F4C939F5FF1CF8D
:101630001092B5056093B405CB01DF91CF91099469
:10164000DF91CF910895E0918E05F0918F0530974D
:1016500029F0109292051092910509940895CF9265
:10166000DF92EF92FF920F931F93CF93DF937C0152
:10167000CB018A0120919005222389F0EB016B01B7
:10168000C40ED51ECC15DD0569F06991D701ED9129
:10169000FC910190F081E02DC7010995F3CF642FF3
:1016A0000E945E09C801DF91CF911F910F91FF90B9
:1016B000EF90DF90CF900895CF93DF931F92CDB737
:1016C000DEB76983209190052223D1F02091910506
:1016D000203240F021E030E0FC013383228380E0BF
:1016E00090E015C080919205E82FF0E0ED56FA4F9A
:1016F000998190838F5F809392058093910505C0B7
:1017000061E0CE0101960E945E0981E090E00F90B9
:10171000DF91CF910895FC011382128288EE93E04D
:10172000A0E0B0E084839583A683B7838AE791E045
:101730009183808308951092B5051092B40510929C
:101740009205109291050E94A20883E29BE00E94FC
:101750008B0989EF9AE00C94860981E080939005CB
:101760006093B305109292051092910508950C9420
:10177000AD0B0F93062F21E04091910563E975E0D1
:101780008091B3050E94080910929205109291056C
:10179000109290050F9108954F925F926F927F92F1
:1017A000AF92BF92CF92EF92FF920F931F93CF937E
:1017B000DF935C01F62ED42F28013901EE2021F1B0
:1017C0000E94AD0BCE2DC43008F0C3E0C150C0F074
:1017D00028E0C29FC0011124A301920104C05695C4
:1017E0004795379527958A95D2F7CA01B901D50152
:1017F000ED91FC910190F081E02DC5010995E6CFB6
:1018000060E0C5010E94B90B4D2FD13208F040E2D3
:101810002C2D66EB75E08F2D0E94C0081092B50547
:101820008093B405DF91CF911F910F91FF90EF90BE
:10183000CF90BF90AF907F906F905F904F90089542
:10184000CF92EF920F931F93C22EE12C00E010E095
:1018500098010E94CC0B1F910F91EF90CF900895AB
:1018600021E00C94200C61E00C94B90B80E895E029
:101870000C948B0BFC01918D228D892F90E0805C64
:101880009F4F821B91098F7399270895FC01918DB9
:10189000828D981731F0828DE80FF11D858D90E0D3
:1018A00008958FEF9FEF0895FC01918D828D981719
:1018B00061F0828DDF01A80FB11D5D968C91928D34
:1018C0009F5F9F73928F90E008958FEF9FEF089531
:1018D0008DEB9DE0892B49F080E090E0892B29F089
:1018E0000E94BD0D81110C9400000895FC01848DAF
:1018F000DF01A80FB11DA35ABF4F2C91848D90E03A
:1019000001968F739927848FA689B7892C93A08914
:10191000B1898C9180648C93938D848D981306C0CB
:101920000288F389E02D80818F7D80830895EF9276
:10193000FF920F931F93CF93DF93EC0181E0888F89
:101940009B8D8C8D981305C0E889F989808185FD70
:1019500024C0F62E0B8D10E00F5F1F4F0F73112761
:10196000E02E8C8DE8120CC00FB607FCFACFE88988
:10197000F989808185FFF5CFCE010E94760CF1CFE9
:101980008B8DFE01E80FF11DE35AFF4FF0820B8FA4
:10199000EA89FB898081806207C0EE89FF896083C4
:1019A000E889F98980818064808381E090E0DF911B
:1019B000CF911F910F91FF90EF900895CF93DF93F8
:1019C000EC01888D8823C9F0EA89FB89808185FD37
:1019D00005C0A889B9898C9186FD0FC00FB607FC98
:1019E000F5CF808185FFF2CFA889B9898C9185FFD9
:1019F000EDCFCE010E94760CE7CFDF91CF91089515
:101A0000CF92DF92EF92FF921F93CF93DF93EC017F
:101A10006A017B01122FE889F98982E080834115F0
:101A2000514E61057105B1F060E079E08DE390E021
:101A3000A70196010E943813DA01C9010197A10993
:101A4000B109B695A795979587959C01211580E1D9
:101A50003807A8F0E889F989108260E874E88EE117
:101A600090E0A70196010E943813DA01C90101979D
:101A7000A109B109B695A795979587959C01EC8525
:101A8000FD853083EE85FF852083188EEC89FD89E6
:101A90001083EA89FB89808180618083EA89FB89E0
:101AA000808188608083EA89FB8980818068808367
:101AB000EA89FB8980818F7D8083DF91CF911F919F
:101AC000FF90EF90DF90CF9008951F920F920FB686
:101AD0000F9211242F938F939F93EF93FF93E09195
:101AE000E605F091E7058081E091EC05F091ED05C8
:101AF00082FD12C090818091EF058F5F8F732091DE
:101B0000F005821751F0E091EF05F0E0EA52FA4F4C
:101B1000958F8093EF0501C08081FF91EF919F9198
:101B20008F912F910F900FBE0F901F9018951F92BD
:101B30000F920FB60F9211242F933F934F935F9301
:101B40006F937F938F939F93AF93BF93EF93FF9385
:101B500086ED95E00E94760CFF91EF91BF91AF91D9
:101B60009F918F917F916F915F914F913F912F91B5
:101B70000F900FBE0F901F90189586ED95E00E9474
:101B80003A0C21E0892B09F420E0822F0895E6ED3C
:101B9000F5E01382128288EE93E0A0E0B0E0848347
:101BA0009583A683B7838AE891E09183808385EC4F
:101BB00090E09587848784EC90E09787868780EC17
:101BC00090E0918B808B81EC90E0938B828B82EC08
:101BD00090E0958B848B86EC90E0978B868B118EB2
:101BE000128E138E148E089508950E94C50F0E94C0
:101BF000F40D0E94FC02C8E6DCE00E944A03209734
:101C0000E1F30E94680CF9CF0C94B113CF92DF92EC
:101C1000EF92FF920F931F93CF93DF936C017A01A2
:101C20008B01C0E0D0E0CE15DF0581F0D8016D91C9
:101C30008D01D601ED91FC910190F081E02DC6015E
:101C40000995892B11F02196EECF7E01C701DF9116
:101C5000CF911F910F91FF90EF90DF90CF9008955B
:101C60006115710579F0FB0101900020E9F73197CA
:101C7000AF01461B570BDC01ED91FC910280F38113
:101C8000E02D099480E090E00895EF92FF920F9389
:101C90001F93CF93DF938C017B01C0E0D0E0F7016D
:101CA000EC0FFD1F6491662361F0D801ED91FC916A
:101CB0000190F081E02DC8010995892B11F0219642
:101CC000EECFCE01DF91CF911F910F91FF90EF905A
:101CD00008950C94300E66E971E00C94300E0F9369
:101CE0001F93CF93DF93EC010E94450E8C01CE0130
:101CF0000E946B0E800F911FDF91CF911F910F916A
:101D000008950F931F93CF93DF93EC010E94300E41
:101D10008C01CE010E946B0E800F911FDF91CF913D
:101D20001F910F9108958F929F92AF92BF92EF9261
:101D3000FF920F931F93CF93DF93CDB7DEB7A19799
:101D40000FB6F894DEBF0FBECDBF7C01FA01CB0108
:101D500019A2223008F42AE08E010F5D1F4F822E57
:101D6000912CA12CB12CBF01A50194010E94381324
:101D7000F901CA01015011096A3010F4605D01C017
:101D8000695CD8016C93232B242B252B61F7B801B8
:101D9000C7010E94300EA1960FB6F894DEBF0FBEA9
:101DA000CDBFDF91CF911F910F91FF90EF90BF902A
:101DB000AF909F908F9008952115310541F4DC017B
:101DC000ED91FC910190F081E02D642F09940C9429
:101DD000930E9A01462F50E060E070E00C94DC0E08
:101DE0000F931F93CF93DF93EC010E94E90E8C01B8
:101DF000CE010E946B0E800F911FDF91CF911F913A
:101E00000F9108959A01AB0160E070E00C94DC0E34
:101E10000F931F93CF93DF93EC010E94020F8C016D
:101E2000CE010E946B0E800F911FDF91CF911F9109
:101E30000F9108951F920F920FB60F9211242F93B6
:101E40003F938F939F93AF93BF938091740690912C
:101E50007506A0917606B09177063091730623E05F
:101E6000230F2D3720F40196A11DB11D05C026E8D2
:101E7000230F0296A11DB11D209373068093740653
:101E800090937506A0937606B093770680917806B6
:101E900090917906A0917A06B0917B060196A11DDA
:101EA000B11D8093780690937906A0937A06B0933B
:101EB0007B06BF91AF919F918F913F912F910F9092
:101EC0000FBE0F901F9018953FB7F8948091780639
:101ED00090917906A0917A06B0917B0626B5A89BD1
:101EE00005C02F3F19F00196A11DB11D3FBFBA2FAC
:101EF000A92F982F8827820F911DA11DB11DBC010C
:101F0000CD0142E0660F771F881F991F4A95D1F7D0
:101F100008958F929F92AF92BF92CF92DF92EF92ED
:101F2000FF926B017C010E94640F4B015C01C114A4
:101F3000D104E104F10401F10E9417130E94640F1F
:101F4000DC01CB0188199909AA09BB09883E934095
:101F5000A105B10560F321E0C21AD108E108F1083A
:101F600088EE880E83E0981EA11CB11CC114D10418
:101F7000E104F10419F7DBCFFF90EF90DF90CF90F1
:101F8000BF90AF909F908F900895789484B58260B1
:101F900084BD84B5816084BD85B5826085BD85B50D
:101FA000816085BDEEE6F0E0808181608083E1E8BC
:101FB000F0E01082808182608083808181608083F4
:101FC000E0E8F0E0808181608083E1EBF0E08081F7
:101FD00084608083E0EBF0E0808181608083EAE7C9
:101FE000F0E0808184608083808182608083808152
:101FF000816080838081806880831092C100089511
:102000008E3008F08E502091060190E4299F9001B7
:1020100011248770822B80937C0080917A008064E9
:1020200080937A0080917A0086FDFCCF80917800C1
:102030002091790090E0922B0895833081F028F46C
:10204000813099F08230A1F008958730A9F088306E
:10205000B9F08430D1F4809180008F7D03C08091ED
:1020600080008F7780938000089584B58F7702C0B9
:1020700084B58F7D84BD08958091B0008F7703C0B3
:102080008091B0008F7D8093B0000895CF93DF934F
:1020900090E0FC01E653FE4F2491FC01E252FE4F1A
:1020A0008491882361F190E0880F991FFC01EA5F19
:1020B000FD4FC591D491FC01E450FE4FA591B49120
:1020C000611109C09FB7F894888120958223888385
:1020D000EC912E230BC0623061F49FB7F894888195
:1020E000322F309583238883EC912E2B2C939FBF26
:1020F00006C08FB7F894E8812E2B28838FBFDF911D
:10210000CF9108951F93CF93DF93282F30E0F901EB
:10211000EA54FE4F8491F901E653FE4FD491F90140
:10212000E252FE4FC491CC23C1F0162F81110E94C0
:102130001D10EC2FF0E0EE0FFF1FE450FE4FA591B5
:10214000B4919FB7F894111104C08C91D095D82305
:1021500002C0EC91DE2BDC939FBFDF91CF911F91EA
:1021600008952091BE063091BF0628173907B9F4AB
:1021700090917C0680917D06981789F0E0917C060D
:10218000F0E0E258F94F808120917C0630E02F5F2B
:102190003F4F2F73332720937C0690E008958FEFF5
:1021A0009FEF08951F93CF93DF93DC015C968D9191
:1021B0009C915D97009739F421E030E013963C93B1
:1021C0002E9312973BC05196ED91FC9152975096E9
:1021D0002C915097322F30951FB75E964C915E9799
:1021E000742F727041FD6095F8944081772311F04F
:1021F000422B01C043234083EC012197F1F748E0D3
:10220000508160FF02C0522B01C053235083EC0168
:102210002197F1F76695415099F78081772319F05E
:102220008323808302C0282B20831FBF5C968D915F
:102230009C915D970197F1F781E090E0DF91CF915C
:102240001F91089508952091BE063091BF0628176A
:10225000390771F490917C0680917D06981741F0C2
:10226000E0917C06F0E0E258F94F808190E008951B
:102270008FEF9FEF08952091BE063091BF0628177B
:10228000390771F480917D0620917C0690E0805C96
:102290009F4F821B910960E470E00E94241308950F
:1022A00080E090E00895E091BE06F091BF06E81747
:1022B000F90769F4A389B4899C918589809589235C
:1022C0008C931092BF061092BE0681E0089580E0C4
:1022D0000895CF93DF93EC018A8D9B8D892BF1F0CC
:1022E0008091BE069091BF06C817D907B9F0009734
:1022F00011F00E9453118E8D8E7F8E8F10927D066D
:1023000010927C06D093BF06C093BE06EB89FC8971
:1023100090818D89892B808381E001C080E0DF91ED
:10232000CF9108951F920F920FB60F9211242F9301
:102330003F934F935F936F937F938F939F93AF934D
:10234000BF93EF93FF93E091BE06F091BF063097E5
:1023500009F451C0968DA685B785858591FF04C087
:102360009C91892329F447C09C91892309F043C09B
:10237000A389B4899C918589809589238C938689CA
:1023800097890197F1F7608D718DA685B785558581
:1023900038E020E0CB010197F1F7822F90E095958E
:1023A0008795282F4C91452309F02068315091F7EB
:1023B000868D81FD209580917D0690E001968F733A
:1023C000992730917C06381749F0A0917D06B0E03E
:1023D000A258B94F2C9380937D0603C0868D8160EF
:1023E000868F828D938D0197F1F7A389B4899C9193
:1023F0008589892B8C93FF91EF91BF91AF919F912C
:102400008F917F916F915F914F913F912F910F909D
:102410000FBE0F901F9018951F93CF93DF93EC0181
:10242000162F6E8D6695617081E06827812F0E945E
:10243000821061E0812F0E944610812F90E0FC0104
:10244000E653FE4FE491E88BFC01E252FE4FE4912B
:10245000F0E0EE0FFF1FE450FE4F859194919A8BB0
:10246000898BDF91CF911F9108951F93CF93DF93B5
:10247000EC01162F60E0812F0E9446108E8D81FDA9
:1024800004C061E0812F0E9482101C87812F90E0A0
:10249000FC01E653FE4FE491ED87FC01E252FE4F52
:1024A000E491F0E0EE0FFF1FEE50FE4F8591949106
:1024B0009F878E87DF91CF911F9108951F93CF93B0
:1024C000DF93EC01162F1B821A8288EE93E0A0E0C6
:1024D000B0E08C839D83AE83BF8389EA91E09983CA
:1024E00088831F8A1E8A198E188E1B8E1A8E1D8E47
:1024F0001C8E8E8D8E7F20FB81F98E8F642FCE01F6
:102500000E940C12612FCE01DF91CF911F910C948C
:102510003512CF93DF93EC019A01AB011B8E1A8E1B
:10252000198E188E1F8A1E8A60E079E08DE390E094
:102530000E945A13F9012430310518F0C90103979C
:1025400002C081E090E09D8F8C8F6C85663108F031
:1025500069C0C901969587958431910510F043971C
:1025600002C081E090E09F8B8E8B369718F0C901F6
:10257000059702C081E090E0998F888FC901880F8C
:10258000991F280F391F36952795369527952D3099
:10259000310518F02C50310902C021E030E03B8FAA
:1025A0002A8F90916800683050F021E06E3008F476
:1025B00020E081E001C0880F2A95EAF701C084E09D
:1025C000892B809368009C85983038F09E3040F0CD
:1025D000963148F020E030E008C02DE630E005C03C
:1025E0002BE630E002C02CE630E03C8B2B8B9830A1
:1025F00030F481E001C0880F9A95EAF70EC0292FC8
:1026000030E09E3018F42850310902C02E503109B4
:1026100081E001C0880F2A95EAF78D8B8C8D9D8D06
:102620000197F1F7CE01DF91CF910C9469110895D4
:10263000991B79E004C0991F961708F0961B881F14
:102640007A95C9F78095089597FB072E16F40094A4
:1026500007D077FD09D00E94971307FC05D03EF400
:10266000909581959F4F0895709561957F4F08953E
:10267000A1E21A2EAA1BBB1BFD010DC0AA1FBB1F86
:10268000EE1FFF1FA217B307E407F50720F0A21BF8
:10269000B30BE40BF50B661F771F881F991F1A9465
:1026A00069F760957095809590959B01AC01BD018F
:1026B000CF010895052E97FB1EF400940E9471131C
:1026C00057FD07D00E94381307FC03D04EF40C943A
:1026D000711350954095309521953F4F4F4F5F4F67
:1026E000089590958095709561957F4F8F4F9F4F7E
:1026F000089597FB10F8169400080F93083098F08F
:102700000850232F342F452F562F672F782F892FCE
:10271000902DF4CF05949795879577956795579564
:102720004795379527950A95AAF70F910895AA1B03
:10273000BB1B51E107C0AA1FBB1FA617B70710F0AC
:10274000A61BB70B881F991F5A95A9F780959095DE
:10275000BC01CD010895EE0FFF1F0590F491E02D0F
:1027600009940F931F93CF93DF938230910510F458
:1027700082E090E0E091C206F091C30620E030E0F4
:10278000A0E0B0E0309719F14081518102811381BE
:1027900048175907C8F08417950769F4109731F066
:1027A00012960C93129713961C9327C00093C2069F
:1027B0001093C30622C02115310519F042175307A3
:1027C00018F49A01BD01EF01DF01F801DBCF2115FB
:1027D0003105F9F0281B390B2430310580F48A814A
:1027E0009B816115710521F0FB019383828304C0F5
:1027F0009093C3068093C206FE01329644C0FE0148
:10280000E20FF31F8193919322503109398328837A
:102810003AC02091C0063091C106232B41F420918B
:102820000201309103013093C1062093C00620912C
:102830000001309101012115310541F42DB73EB75A
:102840004091040150910501241B350BE091C00615
:10285000F091C106E217F307A0F42E1B3F0B2817D7
:10286000390778F0AC014E5F5F4F2417350748F009
:102870004E0F5F1F5093C1064093C0068193919302
:1028800002C0E0E0F0E0CF01DF91CF911F910F9106
:102890000895CF93DF93009709F481C0FC0132972C
:1028A00013821282A091C206B091C306109781F4E0
:1028B00020813181820F931F2091C0063091C10683
:1028C0002817390751F5F093C106E093C00667C099
:1028D000ED0120E030E0CE17DF0740F44A815B8154
:1028E0009E0141155105F1F0EA01F5CFD383C28372
:1028F00040815181840F951FC817D90759F48881E9
:102900009981840F951F0296918380838A819B8190
:10291000938382832115310529F4F093C306E09354
:10292000C2063DC0E901FB83EA8349915991C40F76
:10293000D51FEC17FD0761F480819181840F951FED
:102940000296E90199838883828193819B838A839C
:10295000E0E0F0E012968D919C911397009719F0AA
:10296000FD01DC01F7CF8D919C9111979D012E5FA8
:102970003F4F820F931F2091C0063091C106281748
:10298000390769F4309729F41092C3061092C206F1
:1029900002C013821282B093C106A093C006DF91D9
:1029A000CF910895FB01DC018D91059080190110F4
:1029B000D9F3990B0895FB0155915523A9F0BF0157
:1029C000DC014D9145174111E1F759F4CD01059016
:1029D000002049F04D9140154111C9F3FB0141110F
:1029E000EFCF81E090E00197089511E0CBE0D1E0D6
:1029F00004C0FE010E94AB132196CC30D107C9F769
:042A0000F894FFCF78
:102A04000000C406200001537769746368696E6727
:102A1400206F66662E2E2E003A0053454E44204FFA
:102A24004B002C004154490041542B474D4D005359
:102A3400544154453A20434F4E4E454354204F4B46
:102A4400002B434D47530041542B434D47443D30E5
:102A540030300041542B434750534F55543D303090
:102A64003000222C2200000000003E06060E320632
:102A74004A0656066206000000005C0B2F0BCD0AC6
:102A8400D50AE90AF80A00000000970C060E3A0C71
:102A9400540C460CDE0C0D0A006E616E00696E6605
:102AA400006F76660000000000D210060E3B11B1E4
:062AB400102311221100A5
:00000001FF
