:100000000C94BF010C94E7010C94E7010C94C81107
:100010000C94C8110C94C8110C94E7010C94E701DE
:100020000C94E7010C94E7010C94E7010C94E701B0
:100030000C94E7010C94E7010C94E7010C94E701A0
:100040000C94500F0C94E7010C94210D0C94530D5B
:100050000C94E7010C94E7010C94E7010C94E70180
:100060000C94D0090C94E701093C2D2D2D2000099A
:100070002D2D2D3E2000093C2D2D2D2000092D2D4C
:100080002D3E2000535041434500093C2D2D2D208D
:100090000041542B43474154543D300041542B53AD
:1000A000415042523D302C310041542B4349505372
:1000B0004855540053485554204F4B0041542B434E
:1000C000494943520041542B53415042523D312C37
:1000D000310041542B53415042523D332C312C229C
:1000E000505744222C0041542B53415042523D332F
:1000F0002C312C2255534552222C0041542B435372
:1001000054543D2200092D2D2D3E200041542B43F7
:100110005354543D220041542B53415042523D33DD
:100120002C312C2241504E222C0041542B53415053
:1001300042523D332C312C22434F4E5459504522CC
:100140002C2247505253220041542B4347415454D0
:100150003D310041542B43495053485554005348B6
:100160005554204F4B0041542B435351002B4353C4
:10017000513A200053494D3830382052313400096B
:100180003C2D2D2D2000092D2D2D3E2000415445C4
:10019000300041544530004154204661696C2E2E98
:1001A0002E206C61737420646974636820617474B8
:1001B000656D70742E00415400415400415400415B
:1001C0005400415400415400417474656D70746969
:1001D0006E6720746F206F70656E20636F6D6D2089
:1001E0007769746820415473004F4B00464F4E416D
:1001F00000464F4E416E65740054656D703D0020A1
:100200007C200043757272656E743D00207C200076
:1002100050562D563D00207C2000426174742D56AE
:100220003D004265686176696F7572005369676E5B
:10023000616C20697320004E6F7720776169746963
:100240006E6720666F722061207768696C65206236
:1002500065666F726520636865636B696E6720739E
:1002600069676E616C00496E697469616C69736974
:100270006E67206D6F64756C6520746F2073656E9A
:100280006420646174610054616B696E67207265FB
:100290006164696E67732E2E2E004572726F722034
:1002A000696E697469616C6973696E6720677072E1
:1002B000732E2E2E00496E697469616C6973696EC4
:1002C0006720677072732E2E2E004572726F722037
:1002D000696E697469616C6973696E6720666F6EB7
:1002E000612E2E2E00496E697469616C6973696EA6
:1002F0006720666F6E612E2E2E00537461727469D2
:100300006E672E2E2E00544553543A204368656381
:100310006B696E6720727373692E2E2E00000000C9
:1003200008000201000003040700000000000000B4
:10033000000102040810204080010204081020017E
:100340000204081020040404040404040402020249
:10035000020202030303030303000000002300263C
:1003600000290000000000250028002B00000000EC
:1003700000240027002A0000EE08DD0B830D112465
:100380001FBECFEFD8E0DEBFCDBF11E0A0E0B1E0EF
:10039000E2E9FAE202C005900D92A23AB107D9F75C
:1003A00024E0A2EAB1E001C01D92A737B207E1F74D
:1003B00011E0CFEBD1E004C02197FE010E94C313EE
:1003C000CC3BD107C9F70E94B10D0C9447150C9492
:1003D0000000875E9E4FDC018D919C91DC01ED91C8
:1003E000FC910480F581E02D0994875E9E4FDC012D
:1003F0008D919C91DC01ED91FC910190F081E02DBB
:100400000994875E9E4FDC018D919C91DC01ED91FA
:10041000FC910680F781E02D0994875E9E4FDC01F8
:100420008D919C91DC01ED91FC910084F185E02D92
:100430000994875E9E4FDC018D919C91DC01ED91CA
:10044000FC910284F385E02D0994FC011382128251
:1004500088EE93E0A0E0B0E084839583A683B78321
:1004600084E491E09183808383E086876487458775
:10047000DF01A25FBE4F81EF91E011969C938E93B6
:10048000129611961C921E92129611961C921E9212
:10049000179611961C921E9215971C9211968CEE2F
:1004A00091E08D939C93E95EFE4F89EE91E09183FC
:1004B000808308950F931F93CF93DF93EC0180E027
:1004C00090E08C010F5F1F4F8897D8F4E881F98185
:1004D0000480F581E02DCE010995892B51F0E8814A
:1004E000F9810680F781E02DCE01099500E010E04A
:1004F000EDCF61E070E080E090E00E94BF0FC801A6
:10050000E0CFDF91CF911F910F910895BF92CF92CD
:10051000DF92EF92FF920F931F93CF93DF937C01B3
:10052000B42E8B01000F111F000F111FC0E0D0E08F
:10053000670187EEC81A8EEFD80A01151105C9F1B7
:10054000CE3FD10598F064E870E089E893E00E941E
:10055000320E2FC0F60180819181DC01ED91FC917A
:100560000680F781E02D09958D3069F4D6018D91D3
:100570009C91DC01ED91FC910480F581E02D0995C1
:10058000892B41F70CC08A3021F4209779F3BB20E6
:1005900081F0F701EC0FFD1F87872196E7CF01500F
:1005A000110939F061E070E080E090E00E94BF0F37
:1005B000C4CFF701EC0FFD1F17868C2FDF91CF9171
:1005C0001F910F91FF90EF90DF90CF90BF90089513
:1005D0000F931F93CF93DF93EC018B01BA0140E09F
:1005E0000E9486026AE870E089E893E00E94010EAA
:1005F0002F96BE0189E893E00E94440EB801CE0117
:100600000E94081521E0892B09F020E0822FDF915C
:10061000CF911F910F910895EF92FF920F931F9327
:10062000CF93DF93EC018B017A010E945A026DE7B0
:1006300070E089E893E00E94010EB80189E893E038
:100640000E94320EFE01E75EFE4FB801808191816B
:100650000E94320E40E0B701CE010E948602182FA0
:1006600066E770E089E893E00E94010EBE01615FD9
:100670007F4F89E893E00E94440E812FDF91CF9154
:100680001F910F91FF90EF900895AF92BF92CF927C
:10069000DF92EF92FF920F931F93CF93DF93EC01C2
:1006A0006B017A0159010E945A026FE670E089E8F5
:1006B00093E00E94010EB60189E893E00E94010ECA
:1006C00062E289E893E00E94270EB70189E893E08F
:1006D0000E94010E62E289E893E00E94560E8E01AC
:1006E000075E1E4FB601F801808191810E94010EC4
:1006F00062E2F801808191810E94270EB701F80122
:10070000808191810E94010E62E2F80180819181D5
:100710000E94560E40E0B501CE010E948602182FBD
:1007200068E670E089E893E00E94010EBE01615F17
:100730007F4F89E893E00E94440E812FDF91CF9193
:100740001F910F91FF90EF90DF90CF90BF90AF90EF
:1007500008950F931F93CF93DF93EC018A01A901B2
:100760000E940C03882341F0B801CE010F960E942D
:10077000081521E0892B09F020E0822FDF91CF912D
:100780001F910F910895CF92DF92EF92FF920F93F6
:100790001F93CF93DF93EC01F62EE42E8FE190E0D0
:1007A0000E94C00D8C0120E04E2D6F2D0E949412EE
:1007B00040EC52E160E070E0C8010E94BF127E018F
:1007C00087EEE81A8EEFF80AD7010D931C9361E0CB
:1007D0008C850E947C1061E08C850E94B8106AE0D4
:1007E00070E080E090E00E94BF0F60E08C850E9486
:1007F000B81064E670E080E090E00E94BF0F61E016
:100800008C850E94B81068EC71E089E893E00E9442
:10081000320E8EE0C82ED12C8E01095E1E4FF701DC
:1008200080819181DC01ED91FC910480F581E02DC6
:100830000995892B59F0F70180819181DC01ED91B7
:10084000FC910680F781E02D0995E9CFF801408100
:10085000518124EF31E065EC71E0CE010E94A903E3
:10086000811134C0D7018D919C91DC01ED91FC91F7
:100870000480F581E02D0995892B59F0F7018081DD
:100880009181DC01ED91FC910680F781E02D0995C5
:10089000E9CF24EF31E042EC51E06FEB71E0CE01A3
:1008A0000E94A903811112C064EF71E080E090E022
:1008B0000E94BF0FB1E0CB1AD10809F0B0CF5EC0E3
:1008C00064E670E080E090E00E94BF0FF801408194
:1008D000518124EF31E062E971E0CE010E94A90369
:1008E00064E670E080E090E00E94BF0FD8014D9177
:1008F0005C9124EF31E06DE871E0CE010E94A90324
:10090000811102C012E001C011E064E670E080E0F5
:1009100090E00E94BF0FCE010E945A0266E871E08B
:1009200089E893E00E94010E61E171E089E893E0BB
:100930000E94440E61E171E0F701808191810E9483
:10094000440E41E064EF71E0CE010E9486026FE741
:1009500071E089E893E00E94010E2F96BE0189E8BC
:1009600093E00E94440E64E771E0CE010E941A15E4
:10097000892B11F0812F35C084E033C0D8014D910F
:100980005C9124EF31E06CEB71E0CE010E94A90391
:1009900064E670E080E090E00E94BF0FF8014081C3
:1009A000518124EF31E069EB71E0CE010E94A9038F
:1009B00064E670E080E090E00E94BF0FD8014D91A6
:1009C0005C9124EF31E066EB71E0CE010E94A90357
:1009D000811176CF67E971E089E893E00E94320ED9
:1009E00083E0DF91CF911F910F91FF90EF90DF9007
:1009F000CF900895EF92FF920F931F93CF93DF93C1
:100A0000EC01790198010E944503B701CE010F96D0
:100A10000E94081521E0892B09F020E0822FDF9148
:100A2000CF911F910F91FF90EF9008957F928F9239
:100A30009F92AF92BF92CF92DF92EF92FF920F936D
:100A40001F93CF93DF93EC0128EE3DEF662309F46B
:100A50001FC14EE551E063E571E00E94A9038111D9
:100A600003C082E0782E02C0772473947E0189EE61
:100A7000E81A8EEFF80AF7014081518120E137E250
:100A800068E471E0CE010E94A903882309F425C11E
:100A9000F7014081518120E137E26AE271E0CE0145
:100AA0000E94A903882309F41AC14E01F2EF8F1A9C
:100AB000FEEF9F0AF401408151814115510571F407
:100AC000F701408151812FEF3FEF65EC70E0CE01DF
:100AD0000E94A9038111CEC089E00EC1F7012081D7
:100AE000318100E117E266E171E0CE010E94FA0473
:100AF000882309F4F6C0CE010E945A028E01075ED7
:100B00001E4F6CE071E0F801808191810E94010E1E
:100B1000F40160817181F801808191810E94010E50
:100B20005E01F0EFAF1AFEEFBF0AF50180819181FF
:100B3000892B79F06CE371E0F801808191810E944A
:100B4000250EF50160817181F801808191810E94FB
:100B5000010E6E01FEEECF1AFEEFDF0AF601808174
:100B60009181892B79F06CE371E0F80180819181AA
:100B70000E94250EF60160817181F80180819181CA
:100B80000E94010E6EE371E0F801808191810E9464
:100B9000440E65E071E089E893E00E94010E6BEF7E
:100BA00070E089E893E00E94010EF4016081718198
:100BB00089E893E00E94010EF50180819181892BE3
:100BC00069F06CE371E089E893E00E94250EF5017D
:100BD0006081718189E893E00E94010EF6018081B5
:100BE0009181892B69F06CE371E089E893E00E94C0
:100BF000250EF6016081718189E893E00E94010E63
:100C00006EE371E089E893E00E94440EF701608191
:100C1000718140E157E2CE010E94E802882309F485
:100C200062C0F501408151814115510539F4F60149
:100C3000408151814115510579F442CFF70120815E
:100C4000318100E117E266EE70E0CE010E94FA0405
:100C50008111EDCF87E050C0F7012081318100E1A3
:100C600017E262ED70E0CE010E94FA04811128CFF4
:100C700088E042C0F701408151812FEF3FEF6CEBDC
:100C800070E0CE010E94A903882379F1872D34C03A
:100C900044EB50E069EA70E00E94A903882339F12F
:100CA0008E01095E1E4FF8014081518120E137E23B
:100CB0006CE970E0CE010E94A9038823D1F0F8010D
:100CC0004081518120E137E261E970E0CE010E946C
:100CD000A903882381F081E00FC083E00DC084E088
:100CE0000BC085E009C086E007C08AE005C08BE044
:100CF00003C08CE001C08DE0DF91CF911F910F9177
:100D0000FF90EF90DF90CF90BF90AF909F908F902B
:100D10007F900895AF92BF92CF92DF92EF92FF92B1
:100D20000F93CF93DF935B016A01E22E0F960E942F
:100D30001A15EC01892BC1F0C5010E9411158C0F09
:100D40009D1FC0E0F12CC01741F0B7010E9434157F
:100D5000009751F00196CF5FF6CF0E94EA14F6019A
:100D60009183808381E001C080E0DF91CF910F917A
:100D7000FF90EF90DF90CF90BF90AF900895AF922B
:100D8000BF92CF92DF92EF920F931F93CF93DF9397
:100D9000EC016A015901102F0E2D44EF51E00E9421
:100DA0000C03212FA501B601CE010E948A06182F3F
:100DB000882331F040E064EF71E0CE010E948602AA
:100DC000812FDF91CF911F910F91EF90DF90CF9006
:100DD000BF90AF900895EF920F93CF93DF9300D021
:100DE000CDB7DEB7E12C0CE29E012F5F3F4F4DE601
:100DF00051E066E671E00E94BF06882311F0898108
:100E000001C080E00F900F90DF91CF910F91EF9094
:100E10000895CF93DF93EC016AE172E089E893E0F3
:100E20000E94010E69817A814AE050E089E893E0EE
:100E30000E94D70E66E172E089E893E00E94010EFD
:100E400060E172E089E893E00E94010E6D817E818D
:100E50004AE050E089E893E00E94D70E6CE072E02F
:100E600089E893E00E94010E63E072E089E893E074
:100E70000E94010E6B817C814AE050E089E893E09A
:100E80000E94D70E6FEF71E089E893E00E94010E97
:100E900069EF71E089E893E00E94010E6F81788527
:100EA0004AE050E089E893E0DF91CF910C94DD0EA9
:100EB000CF93DF93D82F65EE72E089E893E00E942C
:100EC000320E42E063E08AEA91E00E94C303C82F39
:100ED0008DEF8C0F823018F46AEC72E017C0D111DC
:100EE00003C08AEA91E026C065EB72E089E893E0EE
:100EF0000E94320E61E08AEA91E00E941605C82F36
:100F00008FEF8C0F823068F36AE972E089E893E032
:100F10000E94010E60E571E089E893E00E94250ED1
:100F20006C2F70E04AE050E089E893E00E943E0FA9
:100F300080E090E0DF91CF91089562E571E089E86B
:100F400093E00E94440E60E085E00E94B81068EBD8
:100F50007BE080E090E00C94BF0FCF93DF93CDB7A0
:100F6000DEB7CB51D1400FB6F894DEBF0FBECDBF78
:100F700061E085E00E947C1061E085E00E94B8108D
:100F800068EB7BE080E090E00E94BF0F61E08DE0C5
:100F90000E947C1026E040E855E260E070E089E8BD
:100FA00093E00E94BC0C6AEF72E089E893E00E9433
:100FB000320E81E00E945807009709F46AC0FC01D4
:100FC000228133813C832B834481558166817781E3
:100FD0004D835E836F8378874085518562857385F5
:100FE00049875A876B877C8724E431E03A832983D9
:100FF00024852D8725852E8726852F872FEF3F96E1
:10100000DE01509601900D922A95E1F7FC01E25F16
:10101000FE4F20813181C15FDE4F39832883CF505D
:10102000D140329620813181CF5EDE4F39832883D3
:10103000C151D140329620813181CD5EDE4F39835E
:101040002883C351D14032962081CB5EDE4F288366
:10105000C551D140319620813181CA5EDE4F39833E
:101060002883C651D140329620813181C85EDE4F3F
:1010700039832883C851D140329680819181C65EE0
:10108000DE4F99838883CA51D140CE0101960E94D8
:10109000E10B0E949D07C55EDE4F0FB6F894DEBFE0
:1010A0000FBECDBFDF91CF910895CF93DF93CDB722
:1010B000DEB72A970FB6F894DEBF0FBECDBF67E844
:1010C00072E089E893E00E94320E81E08983BE01DC
:1010D0006F5F7F4F88EA91E00E94340981E02A9691
:1010E0000FB6F894DEBF0FBECDBFDF91CF9108954C
:1010F0008091A40191E0980F9093A401811115C0F3
:1011000066E672E089E893E00E94320E81E00E9478
:1011100058079093A6018093A501892BB9F067E346
:1011200072E089E893E00E94320E8091A4018C3332
:1011300079F46CE272E089E893E00E94320E10923A
:10114000A4011092A6011092A50102C081E00895A9
:1011500080E0089568EE73E080E090E00E94BF0FA9
:101160008091A2019091A30101969093A301809395
:10117000A20162E272E089E893E00E94010E60E55C
:1011800071E089E893E00E94250E4AE050E060910A
:10119000A70189E893E00E94C50E8091A70180FF16
:1011A00009C00E945508882329F08091A7018E7FED
:1011B0008093A7018091A70181FF09C00E94780850
:1011C000882329F08091A7018D7F8093A7018091CA
:1011D000A701811102C00C949D07089541E064E0CD
:1011E0008AEA91E00E94250260E089EA91E00E948B
:1011F000FE0861E088EA91E00C940709FC01608335
:10120000611104C084E393E00C94CB0B0895FC01BE
:1012100060830895FC018081811103C0862F0C94A6
:10122000361085E090E00895FC018091C50221E030
:10123000280F2093C502822F90E0928381833AE0A9
:10124000239FC001112496838583822F67E00E942B
:101250004E13892F90E09483838334E6239FC0014B
:101260001124908787830895AF92BF92CF92DF9227
:10127000EF92FF920F931F93CF93DF938C01EB01BB
:10128000FC018081882321F0CB010E9414091BC03E
:101290006EE0C8010E940A096C016FE0C8010E945B
:1012A0000A095C0161E1C8010E940A097C0160E150
:1012B000C8010E940A09BA82A982DE82CD82FC821C
:1012C000EB8298878F83CE01DF91CF911F910F9191
:1012D000FF90EF90DF90CF90BF90AF900C940907F4
:1012E0001092330381E0809331031092300361E068
:1012F00082E10E94B81061E083E10E94B810E9EB3E
:10130000F0E080818E7F808380818D7F808388E480
:101310008093B80085E48093BC0008954091E80272
:10132000262F30E0240F311D21323105DCF42091CD
:1013300033032430C9F4FC0180E090E0861758F4B0
:101340003091E8022191DC01A651BD4FA30FB11DE0
:101350002C930196F3CF8091E802680F6093E80226
:1013600080E0089581E0089582E0089590932D0330
:1013700080932C03089590932F0380932E03089558
:1013800085ED8093BC008091BC0084FDFCCF109261
:101390003303089585EC8093BC00109233030895C5
:1013A0001F920F920FB60F9211242F933F934F93DA
:1013B0005F936F937F938F939F93AF93BF93EF93BD
:1013C000FF938091B900887F803609F49EC078F53C
:1013D000883209F45DC090F4803109F456C038F4C5
:1013E000882309F4F5C0883009F44FC0F5C088316E
:1013F00009F44EC0803209F45FC0EEC0803409F4B5
:101400006AC058F4803309F457C0883309F0E4C047
:101410008093C6020E94CA09DFC0803509F44FC01C
:10142000883509F45DC0883409F0D6C0D3C0883946
:1014300009F4C4C0A8F4883709F467C038F48836C2
:1014400009F463C0803709F460C0C6C0883809F465
:10145000B5C0803909F45FC0803809F0BDC05BC0F9
:10146000803B09F483C038F4803A09F466C0883AB6
:1014700009F47CC0B1C0803C09F4A4C0883C09F4E4
:10148000A1C0883B09F487C0A7C08091320310C077
:1014900090910B0380910A03981770F5E0910B036C
:1014A00081E08E0F80930B03F0E0E45FFC4F8081BE
:1014B0008093BB0085EC83C08093C6028BC0E09113
:1014C0000B0381E08E0F80930B038091BB00F0E053
:1014D000E45FFC4F808390910B0380910A036BC003
:1014E000E0910B0381E08E0F80930B038091BB0092
:1014F000F0E0E45FFC4F80838091310381116AC08A
:1015000081E08093300384EA5EC083E080933303FC
:101510001092C702CFCF8091C702803208F04EC030
:10152000E091C70281E08E0F8093C7028091BB00DB
:10153000F0E0E853FD4F8083BDCF0E94CA0980913F
:10154000C702803230F4E091C702F0E0E853FD4F6B
:1015500010826091C70270E0E0912C03F0912D039E
:1015600088EC92E009951092C70236C084E080931F
:1015700033031092E9021092E802E0912E03F091F9
:101580002F0309958091E802811105C081E08093C5
:10159000E8021092EA02E091E90281E08E0F809366
:1015A000E902F0E0E651FD4F80818093BB0090910D
:1015B000E9028091E802981708F47CCF85E88093CF
:1015C000BC000AC085EC8093BC001092330304C0B9
:1015D0001092C6020E94C009FF91EF91BF91AF9196
:1015E0009F918F917F916F915F914F913F912F913B
:1015F0000F900FBE0F901F9018958091670390E099
:1016000020916803821B910908959091680380914D
:101610006703981750F4E92FF0E0E759FC4F208159
:1016200030E09F5F9093680302C02FEF3FEFC90146
:101630000895E091680380916703E81730F4F0E0C3
:10164000E759FC4F808190E008958FEF9FEF089558
:101650000895CF93DF93EC01E0914003F0914103B3
:101660003097F1F090916803809167039817C0F06C
:1016700090E0292F30E02617370754F4DE01A20F3F
:10168000B31F4C91D901A759BC4F4C939F5FF1CF29
:101690001092680360936703CB01DF91CF910994A7
:1016A000DF91CF910895E0914203F0914303309789
:1016B00029F0109246031092450309940895CF92A1
:1016C000DF92EF92FF920F931F93CF93DF937C01F2
:1016D000CB018A0120914403222389F0EB016B01A5
:1016E000C40ED51ECC15DD0569F06991D701ED91C9
:1016F000FC910190F081E02DC7010995F3CF642F93
:101700000E948E09C801DF91CF911F910F91FF9028
:10171000EF90DF90CF900895CF93DF931F92CDB7D6
:10172000DEB76983209144032223D1F02091450341
:10173000203240F021E030E0FC013383228380E05E
:1017400090E015C080914603E82FF0E0E95BFC4F84
:10175000998190838F5F809346038093450305C0F2
:1017600061E0CE0101960E948E0981E090E00F9029
:10177000DF91CF910895FC011382128288EE93E0ED
:10178000A0E0B0E084839583A683B78387E691E0E9
:1017900091838083089510926803109267031092DA
:1017A0004603109245030E94700983E59BE00E9466
:1017B000BB0989E29BE00C94B60984E393E00C94A6
:1017C000BB0BCF93DF93EC0166E073E089E893E015
:1017D0000E94320ECE010E94EB064AE050E0682FD4
:1017E00089E893E0DF91CF910C94C50EFC01918DB7
:1017F000228D892F90E0805C9F4F821B91098F730F
:1018000099270895FC01918D828D981731F0828D72
:10181000E80FF11D858D90E008958FEF9FEF0895FB
:10182000FC01918D828D981761F0828DDF01A80FE8
:10183000B11D5D968C91928D9F5F9F73928F90E00A
:1018400008958FEF9FEF089589E79DE0892B49F078
:1018500080E090E0892B29F00E94790D81110C9491
:1018600000000895FC01848DDF01A80FB11DA35A6B
:10187000BF4F2C91848D90E001968F739927848FB0
:10188000A689B7892C93A089B1898C9180648C93A7
:10189000938D848D981306C00288F389E02D808192
:1018A0008F7D80830895EF92FF920F931F93CF93C4
:1018B000DF93EC0181E0888F9B8D8C8D981305C0A0
:1018C000E889F989808185FD24C0F62E0B8D10E012
:1018D0000F5F1F4F0F731127E02E8C8DE8120CC085
:1018E0000FB607FCFACFE889F989808185FFF5CF2B
:1018F000CE010E94320CF1CF8B8DFE01E80FF11D5D
:10190000E35AFF4FF0820B8FEA89FB898081806266
:1019100007C0EE89FF896083E889F9898081806446
:10192000808381E090E0DF91CF911F910F91FF9034
:10193000EF900895CF93DF93EC01888D8823C9F051
:10194000EA89FB89808185FD05C0A889B9898C91C8
:1019500086FD0FC00FB607FCF5CF808185FFF2CF63
:10196000A889B9898C9185FFEDCFCE010E94320CF8
:10197000E7CFDF91CF910895CF92DF92EF92FF9260
:101980001F93CF93DF93EC016A017B01122FE8894B
:10199000F98982E080834115514E61057105B1F0EE
:1019A00060E079E08DE390E0A70196010E946E135C
:1019B000DA01C9010197A109B109B695A7959795D3
:1019C00087959C01211580E13807A8F0E889F989FD
:1019D000108260E874E88EE190E0A70196010E9411
:1019E0006E13DA01C9010197A109B109B695A7954E
:1019F000979587959C01EC85FD853083EE85FF8565
:101A00002083188EEC89FD891083EA89FB89808107
:101A100080618083EA89FB89808188608083EA898C
:101A2000FB89808180688083EA89FB8980818F7D42
:101A30008083DF91CF911F91FF90EF90DF90CF9047
:101A400008951F920F920FB60F9211242F938F9328
:101A50009F93EF93FF93E0919903F0919A03808114
:101A6000E0919F03F091A00382FD12C090818091CC
:101A7000A2038F5F8F732091A303821751F0E0912F
:101A8000A203F0E0E757FC4F958F8093A20301C0BB
:101A90008081FF91EF919F918F912F910F900FBEB9
:101AA0000F901F9018951F920F920FB60F9211244E
:101AB0002F933F934F935F936F937F938F939F9356
:101AC000AF93BF93EF93FF9389E893E00E94320CAA
:101AD000FF91EF91BF91AF919F918F917F916F9106
:101AE0005F914F913F912F910F900FBE0F901F90DC
:101AF000189589E893E00E94F60B21E0892B09F400
:101B000020E0822F0895E9E8F3E01382128288EE44
:101B100093E0A0E0B0E084839583A683B78387E752
:101B200091E09183808385EC90E09587848784ECB5
:101B300090E09787868780EC90E0918B808B81EC9A
:101B400090E0938B828B82EC90E0958B848B86EC7B
:101B500090E0978B868B118E128E138E148E0895C3
:101B600008950E94FB0F0E94B00D0E94AD07C4E2D1
:101B7000DCE00E94AA082097E1F30E94240CF9CF30
:101B80000C94C913CF92DF92EF92FF920F931F93A1
:101B9000CF93DF936C017A018B01C0E0D0E0CE15CA
:101BA000DF0581F0D8016D918D01D601ED91FC9199
:101BB0000190F081E02DC6010995892B11F0219645
:101BC000EECF7E01C701DF91CF911F910F91FF9062
:101BD000EF90DF90CF9008956115710579F0FB01CA
:101BE00001900020E9F73197AF01461B570BDC014C
:101BF000ED91FC910280F381E02D099480E090E06A
:101C00000895EF92FF920F931F93CF93DF938C0170
:101C10007B01C0E0D0E0F701EC0FFD1F649166236B
:101C200061F0D801ED91FC910190F081E02DC801A7
:101C30000995892B11F02196EECFCE01DF91CF913E
:101C40001F910F91FF90EF9008950C94EC0DDC0123
:101C5000ED91FC910190F081E02D099463E871E031
:101C60000C94EC0D0F931F93CF93DF93EC010E9424
:101C7000010E8C01CE010E942E0E800F911FDF916C
:101C8000CF911F910F9108950F931F93CF93DF93DF
:101C9000EC010E94EC0D8C01CE010E942E0E800FF3
:101CA000911FDF91CF911F910F9108950F931F9373
:101CB000CF93DF93EC010E94270E8C01CE010E948E
:101CC0002E0E800F911FDF91CF911F910F910895DC
:101CD0008F929F92AF92BF92EF92FF920F931F93BA
:101CE000CF93DF93CDB7DEB7A1970FB6F894DEBFE1
:101CF0000FBECDBF7C01FA01CB0119A2223008F43E
:101D00002AE08E010F5D1F4F822E912CA12CB12C49
:101D1000BF01A50194010E946E13F901CA0101508F
:101D200011096A3010F4605D01C0695CD8016C93E0
:101D3000232B242B252B61F7B801C7010E94EC0D42
:101D4000A1960FB6F894DEBF0FBECDBFDF91CF9145
:101D50001F910F91FF90EF90BF90AF909F908F9049
:101D600008952115310541F4DC01ED91FC910190BC
:101D7000F081E02D642F09940C94680E9A01462F8F
:101D800050E060E070E00C94B10E0F931F93CF937E
:101D9000DF93EC010E94BE0E8C01CE010E942E0E3C
:101DA000800F911FDF91CF911F910F9108959A019C
:101DB000AB0160E070E00C94B10E0F931F93CF93D2
:101DC000DF93EC010E94D70E8C01CE010E942E0EF3
:101DD000800F911FDF91CF911F910F910895CF92A6
:101DE000DF92EF92FF920F931F93CF93DF93211512
:101DF000310581F4DC01ED91FC910190F081E02D41
:101E0000642FDF91CF911F910F91FF90EF90DF90A2
:101E1000CF9009942A30310501F577FF1DC06A0182
:101E20007B01EC016DE20E94270E8C0144275527AF
:101E3000BA014C195D096E097F092AE0CE010E94A2
:101E4000680E800F911FDF91CF911F910F91FF902E
:101E5000EF90DF90CF9008952AE0DF91CF911F910E
:101E60000F91FF90EF90DF90CF900C94680E9A0145
:101E7000AB01770F660B770B0C94EF0E0F931F934C
:101E8000CF93DF93EC010E94370F8C01CE010E94AB
:101E90002E0E800F911FDF91CF911F910F9108950A
:101EA0001F920F920FB60F9211242F933F938F938F
:101EB0009F93AF93BF938091270490912804A091A2
:101EC0002904B0912A043091260423E0230F2D37F2
:101ED00020F40196A11DB11D05C026E8230F02962E
:101EE000A11DB11D209326048093270490932804FC
:101EF000A0932904B0932A0480912B0490912C0480
:101F0000A0912D04B0912E040196A11DB11D8093C6
:101F10002B0490932C04A0932D04B0932E04BF9116
:101F2000AF919F918F913F912F910F900FBE0F9086
:101F30001F9018953FB7F89480912B0490912C0432
:101F4000A0912D04B0912E0426B5A89B05C02F3F6B
:101F500019F00196A11DB11D3FBFBA2FA92F982FCF
:101F60008827820F911DA11DB11DBC01CD0142E04A
:101F7000660F771F881F991F4A95D1F708958F9292
:101F80009F92AF92BF92CF92DF92EF92FF926B013E
:101F90007C010E949A0F4B015C01C114D104E10441
:101FA000F10401F10E944D130E949A0FDC01CB0154
:101FB00088199909AA09BB09883E9340A105B10572
:101FC00060F321E0C21AD108E108F10888EE880E1A
:101FD00083E0981EA11CB11CC114D104E104F104DA
:101FE00019F7DBCFFF90EF90DF90CF90BF90AF90CD
:101FF0009F908F900895789484B5826084BD84B555
:10200000816084BD85B5826085BD85B5816085BDF3
:10201000EEE6F0E0808181608083E1E8F0E010820C
:10202000808182608083808181608083E0E8F0E04D
:10203000808181608083E1EBF0E080818460808337
:10204000E0EBF0E0808181608083EAE7F0E080816E
:1020500084608083808182608083808181608083CE
:102060008081806880831092C10008958E3008F0CE
:102070008E502091060190E4299F900111248770D1
:10208000822B80937C0080917A00806480937A0018
:1020900080917A0086FDFCCF8091780020917900B4
:1020A00090E0922B0895833081F028F4813099F0EC
:1020B0008230A1F008958730A9F08830B9F08430DB
:1020C000D1F4809180008F7D03C0809180008F7754
:1020D00080938000089584B58F7702C084B58F7D8A
:1020E00084BD08958091B0008F7703C08091B000C7
:1020F0008F7D8093B0000895CF93DF9390E0FC0133
:10210000EF5CFC4F2491FC01EB5BFC4F8491882336
:1021100061F190E0880F991FFC01E359FC4FC591D4
:10212000D491FC01ED59FC4FA591B491611109C006
:102130009FB7F8948881209582238883EC912E2381
:102140000BC0623061F49FB7F8948881322F3095CC
:1021500083238883EC912E2B2C939FBF06C08FB7CF
:10216000F894E8812E2B28838FBFDF91CF910895BB
:102170001F93CF93DF93282F30E0F901E35EFC4FEC
:102180008491F901EF5CFC4FD491F901EB5BFC4FBA
:10219000C491CC23C1F0162F81110E945310EC2F53
:1021A000F0E0EE0FFF1FED59FC4FA591B4919FB7E2
:1021B000F894111104C08C91D095D82302C0EC91F1
:1021C000DE2BDC939FBFDF91CF911F91089520916B
:1021D00071043091720428173907B9F490912F04D3
:1021E00080913004981789F0E0912F04F0E0EF5CC3
:1021F000FB4F808120912F0430E02F5F3F4F2F73E2
:10220000332720932F0490E008958FEF9FEF0895D8
:102210001F93CF93DF93DC015C968D919C915D972A
:10222000009739F421E030E013963C932E931297F7
:102230003BC05196ED91FC91529750962C9150973E
:10224000322F30951FB75E964C915E97742F727047
:1022500041FD6095F8944081772311F0422B01C035
:1022600043234083EC012197F1F748E0508160FF60
:1022700002C0522B01C053235083EC012197F1F788
:102280006695415099F78081772319F083238083E5
:1022900002C0282B20831FBF5C968D919C915D9777
:1022A0000197F1F781E090E0DF91CF911F910895C0
:1022B000089520917104309172042817390771F440
:1022C00090912F0480913004981741F0E0912F04F1
:1022D000F0E0EF5CFB4F808190E008958FEF9FEF7F
:1022E000089520917104309172042817390771F410
:1022F0008091300420912F0490E0805C9F4F821BDE
:10230000910960E470E00E945A13089580E090E023
:102310000895E0917104F0917204E817F90769F4E7
:10232000A389B4899C918589809589238C93109287
:1023300072041092710481E0089580E00895CF93B3
:10234000DF93EC018A8D9B8D892BF1F080917104D4
:1023500090917204C817D907B9F0009711F00E9444
:1023600089118E8D8E7F8E8F1092300410922F04E3
:10237000D0937204C0937104EB89FC8990818D899C
:10238000892B808381E001C080E0DF91CF910895A7
:102390001F920F920FB60F9211242F933F934F93DA
:1023A0005F936F937F938F939F93AF93BF93EF93BD
:1023B000FF93E0917104F0917204309709F451C0D9
:1023C000968DA685B785858591FF04C09C9189234C
:1023D00029F447C09C91892309F043C0A389B4899B
:1023E0009C918589809589238C938689978901970B
:1023F000F1F7608D718DA685B785558538E020E0B1
:10240000CB010197F1F7822F90E095958795282FC2
:102410004C91452309F02068315091F7868D81FD5C
:1024200020958091300490E001968F739927309128
:102430002F04381749F0A0913004B0E0AF5CBB4FD7
:102440002C938093300403C0868D8160868F828DAB
:10245000938D0197F1F7A389B4899C918589892B84
:102460008C93FF91EF91BF91AF919F918F917F914D
:102470006F915F914F913F912F910F900FBE0F90F1
:102480001F9018951F93CF93DF93EC01162F6E8D3D
:102490006695617081E06827812F0E94B81061E025
:1024A000812F0E947C10812F90E0FC01EF5CFC4F9B
:1024B000E491E88BFC01EB5BFC4FE491F0E0EE0F64
:1024C000FF1FED59FC4F859194919A8B898BDF9179
:1024D000CF911F9108951F93CF93DF93EC01162F97
:1024E00060E0812F0E947C108E8D81FD04C061E030
:1024F000812F0E94B8101C87812F90E0FC01EF5CB7
:10250000FC4FE491ED87FC01EB5BFC4FE491F0E0C4
:10251000EE0FFF1FE75AFC4F859194919F878E879E
:10252000DF91CF911F9108951F93CF93DF93EC011B
:10253000162F1B821A8288EE93E0A0E0B0E08C8315
:102540009D83AE83BF8386E991E0998388831F8A48
:102550001E8A198E188E1B8E1A8E1D8E1C8E8E8DC5
:102560008E7F20FB81F98E8F642FCE010E94421254
:10257000612FCE01DF91CF911F910C946B12CF93FD
:10258000DF93EC019A01AB011B8E1A8E198E188E07
:102590001F8A1E8A60E079E08DE390E00E9490132C
:1025A000F9012430310518F0C901039702C081E018
:1025B00090E09D8F8C8F6C85663108F069C0C901F1
:1025C000969587958431910510F0439702C081E07C
:1025D00090E09F8B8E8B369718F0C901059702C04B
:1025E00081E090E0998F888FC901880F991F280F8B
:1025F000391F36952795369527952D30310518F0DA
:102600002C50310902C021E030E03B8F2A8F90919D
:102610006800683050F021E06E3008F420E081E07E
:1026200001C0880F2A95EAF701C084E0892B8093C6
:1026300068009C85983038F09E3040F0963148F024
:1026400020E030E008C02DE630E005C02BE630E0A9
:1026500002C02CE630E03C8B2B8B983030F481E0CC
:1026600001C0880F9A95EAF70EC0292F30E09E30FE
:1026700018F42850310902C02E50310981E001C000
:10268000880F2A95EAF78D8B8C8D9D8D0197F1F738
:10269000CE01DF91CF910C949F110895991B79E0A1
:1026A00004C0991F961708F0961B881F7A95C9F7E2
:1026B0008095089597FB072E16F4009407D077FDB8
:1026C00009D00E94AF1307FC05D03EF49095819588
:1026D0009F4F0895709561957F4F0895A1E21A2E3E
:1026E000AA1BBB1BFD010DC0AA1FBB1FEE1FFF1FB6
:1026F000A217B307E407F50720F0A21BB30BE40B06
:10270000F50B661F771F881F991F1A9469F760954C
:102710007095809590959B01AC01BD01CF01089506
:10272000052E97FB1EF400940E94A71357FD07D0B7
:102730000E946E1307FC03D04EF40C94A71350951F
:102740004095309521953F4F4F4F5F4F089590959D
:102750008095709561957F4F8F4F9F4F0895AA1B6D
:10276000BB1B51E107C0AA1FBB1FA617B70710F07C
:10277000A61BB70B881F991F5A95A9F780959095AE
:10278000BC01CD010895EE0FFF1F0590F491E02DDF
:1027900009940F931F93CF93DF938230910510F428
:1027A00082E090E0E0917504F091760420E030E062
:1027B000A0E0B0E0309719F140815181028113818E
:1027C00048175907C8F08417950769F4109731F036
:1027D00012960C93129713961C9327C000937504BE
:1027E0001093760422C02115310519F042175307C2
:1027F00018F49A01BD01EF01DF01F801DBCF2115CB
:102800003105F9F0281B390B2430310580F48A8119
:102810009B816115710521F0FB019383828304C0C4
:102820009093760480937504FE01329644C0FE01B5
:10283000E20FF31F8193919322503109398328834A
:102840003AC02091730430917404232B41F42091F9
:10285000020130910301309374042093730420919A
:102860000001309101012115310541F42DB73EB72A
:102870004091040150910501241B350BE091730434
:10288000F0917404E217F307A0F42E1B3F0B2817F6
:10289000390778F0AC014E5F5F4F2417350748F0D9
:1028A0004E0F5F1F50937404409373048193919370
:1028B00002C0E0E0F0E0CF01DF91CF911F910F91D6
:1028C0000895CF93DF93009709F481C0FC013297FC
:1028D00013821282A0917504B0917604109781F44E
:1028E00020813181820F931F2091730430917404F1
:1028F0002817390751F5F0937404E093730467C007
:10290000ED0120E030E0CE17DF0740F44A815B8123
:102910009E0141155105F1F0EA01F5CFD383C28341
:1029200040815181840F951FC817D90759F48881B8
:102930009981840F951F0296918380838A819B8160
:10294000938382832115310529F4F0937604E09373
:1029500075043DC0E901FB83EA8349915991C40F95
:10296000D51FEC17FD0761F480819181840F951FBD
:102970000296E90199838883828193819B838A836C
:10298000E0E0F0E012968D919C911397009719F07A
:10299000FD01DC01F7CF8D919C9111979D012E5F78
:1029A0003F4F820F931F20917304309174042817B6
:1029B000390769F4309729F410927604109275045F
:1029C00002C013821282B0937404A0937304DF9147
:1029D000CF910895FC0188279927E894219120320E
:1029E000E9F3293010F02E30C8F32B3241F02D32AC
:1029F00039F4689404C00E943F15820F911D219103
:102A000020532A30C0F31EF4909581959F4F08956E
:102A1000FB01DC018D91059080190110D9F3990B10
:102A20000895FC0105900020E9F7809590958E0FA0
:102A30009F1F0895FB0155915523A9F0BF01DC01AB
:102A40004D9145174111E1F759F4CD010590002052
:102A500049F04D9140154111C9F3FB014111EFCFF0
:102A600081E090E001970895FC018191861721F0A3
:102A70008823D9F7992708953197CF0108957AE0EF
:102A8000979F902D879F802D910D11240895F89484
:022A9000FFCF76
:102A92000000770420000153454E44204F4B002C88
:102AA200004154490053544154453A20434F4E4E3D
:102AB200454354204F4B005E5A002B434D47530071
:102AC20041542B434D47443D30303000222C2200EC
:102AD20000000000F501C20DE90101020D02190218
:102AE2003A00537769746368696E67206F66662E71
:102AF2002E2E00000000008C0B5F0BFD0A050B1947
:102B02000B280B00000000530CC20DF60B100C0238
:102B12000C9A0C0D0A006E616E00696E66006F768B
:102B22006600000000000811C20D7111E710591172
:022B3200581138
:00000001FF
