S010000049414141455F524D2E73726563C5
S11300000C9489030C94752C0C949C2C0C94EE2A5F
S11300100C94EE2A0C94EE2A0C94B1030C94B103C4
S11300200C94B1030C94B1030C94B1030C94B1037C
S11300300C94B1030C94B1030C94B1030C94B1036C
S11300400C94651D0C94B1030C94241B0C94561B46
S11300500C94B1030C94B1030C94B1030C94B1034C
S11300600C9413130C94B1035014561456145614D0
S1130070561456145614561444135614561456143F
S1130080561456145614561444135614561456142F
S113009056145614561456144E1356145614561415
S11300A056145614561456147A13561456145614D9
S11300B056145614561456144E13561456145614F5
S11300C056145614561456148013561456145614B3
S11300D0561456145614561486135614561456149D
S11300E056145614561456149C1356145614561477
S11300F05614561456145614CC1356145614561437
S113010056145614561456148C1356145614561466
S11301105614561456145614AA1356145614561438
S11301205614561456145614CF1356145614561403
S11301305614561456145614CF13561456145614F3
S11301405614561456145614CF13561456145614E3
S11301505614561456145614CF13561456145614D3
S11301605614561456145614D813561456145614BA
S1130170561456145614561412145614561456146F
S11301805614561456145614D8135614561456149A
S1130190561456145614561412145614561456144F
S11301A05614561456145614F4135614561456145E
S11301B0561456145614561416145614561456142B
S11301C0561456145614561416145614561456141B
S11301D056145614561456142C14561456145614F5
S11301E056145614561456144A14561456145614C7
S11301F056145614561456144A14561456145614B7
S1130200561456145614561456145614561456149A
S1130210561456145614561456145614561456148A
S1130220561456145614561456145614561456147A
S1130230561456145614561456145614561456146A
S1130240561456145614561456145614561456145A
S1130250561456145614561455144E414E494E49CC
S11302605459494E46CDCCCC3D0AD7233C17B7D17F
S11302703877CC2B329595E6241FB14F0A00002025
S1130280410000C84200401C4620BCBE4CCA1B0EA4
S11302905AAEC59D74746578742F706C61696E0074
S11302A000007765622E6D746E2E63690074657844
S11302B0742F706C61696E005374617274696E6737
S11302C02E2E2E00426F6F7420436F756E7420497A
S11302D073204E6F77004265686176696F7572208E
S11302E069732000454550524F4D20546573743A4C
S11302F0204C6F6E673D002C20496E743D002C200D
S113030053686F72743D002C20436861723D004D48
S11303106F64756C652023002320426F6F74730033
S11303204E657874204164647200426174742D5681
S11303303A0050562D563A0043757272656E743AFF
S11303400054656D703A00000000080002010000CE
S1130350030407000000000000000001020408106C
S11303602040800102040810200102040810200427
S11303700404040404040402020202020203030348
S113038003030300000000230026002900000000EE
S113039000250028002B0000000000240027002A6C
S11303A000093C2D2D2D2000092D2D2D3E20000966
S11303B03C2D2D2D2000092D2D2D3E2000093C2DF6
S11303C02D2D2000092D2D2D3E2000093C2D2D2DF5
S11303D02000092D2D2D3E200054494D454F5554E4
S11303E000535041434500093C2D2D2D200052451A
S11303F04449520055524C00554100434944004C75
S1130400656E3A20005374617475733A2000434F4B
S11304104E54454E540041542B4854545053534C5D
S11304203D002B48545450524541443A0041542B0A
S11304304854545052454144002B4854545041436D
S113044054494F4E3A002B48545450414354494F59
S11304504E3A0041542B48545450414354494F4E52
S11304603D00444F574E4C4F41440041542B485497
S11304705450444154413D0041542B485454504439
S11304804154413D00092D2D2D3E2000222C0022F7
S11304902C220041542B48545450504152413D2287
S11304A00041542B48545450504152413D220009BC
S11304B02D2D2D3E200041542B4854545054455268
S11304C04D0041542B48545450494E495400415412
S11304D02B43474154543D300041542B5341504227
S11304E0523D302C310041542B434950534855540C
S11304F00053485554204F4B0041542B4349494322
S1130500520041542B53415042523D312C31004151
S1130510542B53415042523D332C312C22505744DA
S1130520222C0041542B53415042523D332C312C48
S11305302255534552222C0041542B435354543DCD
S11305402200092D2D2D3E200041542B4353545499
S11305503D220041542B53415042523D332C312C07
S11305602241504E222C0041542B53415042523DC3
S1130570332C312C22434F4E54595045222C2247C0
S1130580505253220041542B43474154543D3100AF
S113059041542B4349505348555400534855542013
S11305A04F4B0053494E460041542B43474E534949
S11305B04E46002B43474E53494E463A2000415481
S11305C02B43474E53494E46003E20003E200041F7
S11305D0542B434D47463D310041542B4353510066
S11305E02B4353513A200041542B435245473F007B
S11305F02B435245473A200041542B434243002B9E
S11306004342433A200053494D3830304800093CB6
S11306102D2D2D2000092D2D2D3E200053494D4315
S11306204F4D5F53494D35333230450053494D43A7
S11306304F4D5F53494D35333230410053494D38A6
S11306403030205231330053494D38303820523144
S1130650330053494D3830382052313400093C2D91
S11306602D2D2000092D2D2D3E200041542B4356C5
S113067048553D3000415445300041544530004117
S1130680540041540041540054696D656F75743AC7
S1130690204E6F20726573706F6E736520746F20C7
S11306A041542E2E2E206C61737420646974636827
S11306B020617474656D70742E00415400415400BF
S11306C041540053657269616C20776173206176CF
S11306D061696C61626C6500417474656D70746904
S11306E06E6720746F206F70656E20636F6D6D2070
S11306F07769746820415473004F4B00464F4E4154
S113070000464F4E416E65740000D5080E18861BD6
S1130710E20811241FBECFEFD8E0DEBFCDBF13E047
S1130720A0E0B1E0E8EFF3E602C005900D92AC3A28
S1130730B107D9F728E0ACEAB3E001C01D92A63CAA
S1130740B207E1F713E0C8E8D3E004C02197FE0143
S11307500E94FF2DC538D107C9F70E94B41B0C9421
S1130760EF310C940000CF93DF9300D01F92CDB7EC
S1130770DEB79A8389836B8389819A8160E00E94C2
S1130780381F89819A81865E9E4F2B81FC012083CC
S113079000000F900F900F90DF91CF910895CF93A9
S11307A0DF9300D0CDB7DEB79A83898300000F9022
S11307B00F90DF91CF910895CF93DF9300D000D0B5
S11307C0CDB7DEB79A8389837C836B8389819A81D1
S11307D02B813C81B9010E946E1800000F900F908C
S11307E00F900F90DF91CF910895CF93DF9300D0B6
S11307F000D01F92CDB7DEB79C838B836D838B8132
S11308009C81865E9E4FFC018081882311F081E0EB
S113081004C08FE996E89A8389830F900F900F9014
S11308200F900F90DF91CF910895CF93DF9300D075
S1130830CDB7DEB79A83898300000F900F90DF91C4
S1130840CF910895CF92DF92EF92FF920F931F936F
S1130850CF93DF9300D000D000D0CDB7DEB79C8318
S11308608B837E836D838B819C81865E9E4FFC018E
S11308708081882309F448C02D813E8180E090E086
S1130880A0E2B1E4F901828B938BA48BB58B8D81AB
S11308909E8146962FE0EEE1F1E0DC0101900D929D
S11308A02A95E1F78D819E812EE1FC0121832D8122
S11308B03E8180E090E0A0E2B2E4F9018687978768
S11308C0A08BB18B2D813E8180E090E0A8E4B2E45E
S11308D0F90182839383A483B5832D813E8180E0D3
S11308E090E0A0E7B2E4F90186839783A087B187FB
S11308F02D813E8180E090E0ACE8B2E4F90182878A
S11309009387A487B58742C08B819C810E94CE21A6
S113091089838D819E812981FC0121838981823093
S113092034F48D819E812AE0FC0120832FC08D81C7
S11309309E818C010A5E1F4F8D819E81DC0152963F
S11309408D819E81FC013E968D819E819C01265F56
S11309503F4F8D819E81AC014A5F5F4F8D819E81A7
S1130960BC016E5F7F4F8B819C8168017D018F018B
S11309700E9442228A839A8181E08927882331F068
S11309808D819E812CE0FC012083000026960FB609
S1130990F894DEBF0FBECDBFDF91CF911F910F91B1
S11309A0FF90EF90DF90CF900895CF93DF9300D026
S11309B01F92CDB7DEB79A8389836B8389819A812D
S11309C02B81FC01248389819A81059660E00E9431
S11309D0381F00000F900F900F90DF91CF91089572
S11309E0CF93DF9300D0CDB7DEB79A83898300001D
S11309F00F900F90DF91CF910895CF93DF9300D0A4
S1130A0000D0CDB7DEB79A8389837C836B838981D9
S1130A109A8105962B813C81B9010E946E180000D1
S1130A200F900F900F900F90DF91CF910895CF9377
S1130A30DF9300D0CDB7DEB79A83898389819A8109
S1130A40FC011182108289819A81FC011382128235
S1130A5000000F900F90DF91CF9108950F931F9393
S1130A60CF93DF9300D0CDB7DEB79A838983898192
S1130A709A81FC01948181E0992309F480E0882320
S1130A8011F081E02DC08FE190E00E94C31B8C0126
S1130A9020E042E063E0C8010E94BA2B89819A8178
S1130AA0815E9E4FFC011183008389819A81815E5E
S1130AB09E4FFC018081918140EC52E160E070E046
S1130AC00E94E52B89819A81815E9E4FFC01808181
S1130AD091819C0189819A810596B9010E94E7233D
S1130AE00F900F90DF91CF911F910F910895CF93A5
S1130AF0DF9300D000D0CDB7DEB79A8389837C839F
S1130B006B8389819A81FC01948181E0992309F4A2
S1130B1080E0882349F08B819C8123E630E0FC014E
S1130B203183208381E008C089819A8105962B81D5
S1130B303C81B9010E94C1290F900F900F900F9032
S1130B40DF91CF910895CF93DF93CDB7DEB7699747
S1130B500FB6F894DEBF0FBECDBF9F8B8E8B798FFF
S1130B60688F8E899F89FC01948181E0992309F41F
S1130B7080E0882311F081E026C02EE0EBE3F1E071
S1130B80CE010196DC0101900D922A95E1F727E050
S1130B90CE010F96FC01322F11923A95E9F78E8916
S1130BA09F890596288D398DA9019E012F5F3F4F9E
S1130BB0B9010E949D25982F81E08927882311F08F
S1130BC081E001C080E069960FB6F894DEBF0FBEE5
S1130BD0CDBFDF91CF910895CF93DF9300D000D0A4
S1130BE0CDB7DEB79A8389837C836B8389819A81AD
S1130BF00E941006282F8B819C81FC01228389810D
S1130C009A810E942D06282F8B819C81FC012183CF
S1130C1000000F900F900F900F90DF91CF910895E7
S1130C20CF93DF9300D0CDB7DEB79A8389838981D0
S1130C309A81FC01948181E0992309F480E088235E
S1130C4011F087E005C089819A8105960E94D02918
S1130C500F900F90DF91CF910895CF93DF9300D041
S1130C60CDB7DEB79A83898389819A81FC01948107
S1130C7081E0992309F480E0882311F085E105C01F
S1130C8089819A8105960E94EF290F900F90DF9138
S1130C90CF910895CF93DF9300D01F92CDB7DEB7E5
S1130CA09A8389836B8389819A8105966B810E94DB
S1130CB0FD260F900F900F90DF91CF910895CF9262
S1130CC0DF92EF92FF920F931F93CF93DF93CDB7F1
S1130CD0DEB72E970FB6F894DEBF0FBECDBF9C874C
S1130CE08B877E876D878B859C85FC01948181E051
S1130CF0992309F480E0882319F080E090E099C0FA
S1130D0081E090E09A83898380E591E09D838C83E0
S1130D108D859E850E94CB2F8C0145E952E08B8501
S1130D209C850596DE011996FE0137962D853E8534
S1130D306C817D816D017F010E94F8288B839B81EA
S1130D4081E08927882311F120EA32E041EA52E068
S1130D5062EA72E08B859C8505960E946A1F8D85E8
S1130D609E850E94CB2F8C014DEA52E08B859C8599
S1130D700596DE011996FE0137962D853E856C8118
S1130D807D816D017F010E94F8288B839B8181E026
S1130D908927882329F087EE93E09A83898347C0C3
S1130DA089859A85181619068CF58B859C85059678
S1130DB00E94FC1E21E0892B09F420E0222381F308
S1130DC08B859C8505960E94141F8E8380EC90E091
S1130DD0FC018081882F90E08072992721E0892B83
S1130DE009F020E0222309F0F1CF86EC90E02E8177
S1130DF0FC01208389859A8501979A87898789854B
S1130E009A85892B09F0D1CF0000CACF8B859C85A8
S1130E1005960E9481258F819885883C910519F05B
S1130E208F81988502C080E090E09A8389838981CC
S1130E309A812E960FB6F894DEBF0FBECDBFDF9118
S1130E40CF911F910F91FF90EF90DF90CF90089575
S1130E50CF93DF9300D0CDB7DEB761E085E00E9489
S1130E60911E61E085E00E94CD1E68EB7BE080E08E
S1130E7090E00E94D41D61E08DE00E94911E40E844
S1130E8055E260E070E086ED97E00E94111988EB6E
S1130E9092E0BC0186ED97E00E94351C0E94A207F7
S1130EA08091AC03882339F0809102010E94C50728
S1130EB01A82198206C089EC94E00E944E0B9A8330
S1130EC0898384EC92E0BC0186ED97E00E94041CC7
S1130ED06FE771E086ED97E00E94281C89819A8172
S1130EE04AE050E0BC0186ED97E00E94E01C80914E
S1130EF0AD03882329F089EC94E00E947D0B1DC08A
S1130F008091AE03882329F089EC94E00E94D60CEA
S1130F1014C08091070781608093070789819A81B3
S1130F20892B59F089819A8183709927892B29F417
S1130F30809107078260809307070F900F90DF91DD
S1130F40CF910895CF93DF93CDB7DEB76FEA73E007
S1130F508AEC94E00E94DC036FEA73E085EE95E08E
S1130F600E94FD0485EE95E00E942E05982F81E0F5
S1130F708927882331F461E08AEC94E00E94F50328
S1130F8001C00000DF91CF910895CF93DF931F92AA
S1130F90CDB7DEB78983698189EC94E00E94160B92
S1130FA061E871E086ED97E00E94281C6FE771E02C
S1130FB086ED97E00E94281C4AE050E0698186EDA6
S1130FC097E00E94C81C00000F90DF91CF91089514
S1130FD0CF93DF93CDB7DEB766E971E086ED97E096
S1130FE00E94471C60E085E00E94CD1E68EB7BE018
S1130FF080E090E00E94D41D0000DF91CF9108951D
S1131000CF93DF931F92CDB7DEB7898300000F9093
S1131010DF91CF910895CF93DF93CDB7DEB72A97B1
S11310200FB6F894DEBF0FBECDBF67EA71E086ED60
S113103097E00E94471C66E077E0CE0101960E948B
S1131040471081E02A960FB6F894DEBF0FBECDBFDD
S1131050DF91CF910895CF93DF93CDB7DEB769EBDE
S113106071E086ED97E00E94471C80E0DF91CF910C
S11310700895CF93DF93CDB7DEB768EE73E080E0D9
S113108090E00E94D41D8091080790910907019671
S1131090909309078093080786ED92E0BC0186EDE2
S11310A097E00E94041C6FE771E086ED97E00E94D0
S11310B0281C809107074AE050E0682F86ED97E0EE
S11310C00E94C81C80910707882F90E0817099279F
S11310D0892B49F00E940B08882329F08091070787
S11310E08E7F8093070780910707882F90E0827096
S11310F09927892B49F00E942B08882329F0809195
S113110007078D7F8093070780910707882311F4D1
S11311100E94E8070000DF91CF910895CF93DF93F9
S113112000D000D0CDB7DEB79A8389837C836B83EC
S113113089819A81019709F58B819C810196E9F453
S113114064E08FEA93E00E94381F60E089EC94E049
S11311500E94EF0880910101682F8AEC94E00E94BC
S1131160B30380910001682F85EE95E00E94D504B9
S113117061E086E097E00E94C00E89819A81892B04
S113118061F48B819C81019641F485EE95E00E9487
S1131190F0048AEC94E00E94CF0300000F900F90BB
S11311A00F900F90DF91CF910895CF93DF93CDB738
S11311B0DEB76FEF7FEF81E090E00E948E08DF9151
S11311C0CF910895CF93DF93CDB7DEB76FEF7FEF65
S11311D080E090E00E948E08DF91CF910895CF9334
S11311E0DF9300D01F92CDB7DEB79A8389836B83D8
S11311F089819A812B81FC01208389819A81FC0158
S1131200908181E08927882321F088EC97E00E946F
S1131210831400000F900F900F90DF91CF910895E9
S1131220CF93DF93CDB7DEB728970FB6F894DEBF20
S11312300FBECDBF9D838C837F836E8348871982C5
S1131240998188859817E0F58981282F30E08C8171
S11312509D81820F931F9B838A8360E570E088ECF5
S113126097E00E9411168A819B81892F9927BC01DE
S113127088EC97E00E9434198A819B819927BC01EC
S113128088EC97E00E9434198981882F90E02E81A0
S11312903F81820F931FFC018081682F88EC97E0C7
S11312A00E945F1688EC97E00E944E166FE070E093
S11312B080E090E00E94D41D89818F5F8983C0CF34
S11312C0000028960FB6F894DEBF0FBECDBFDF91A5
S11312D0CF910895CF93DF93CDB7DEB729970FB69B
S11312E0F894DEBF0FBECDBF9E838D8378876F8356
S11312F04987198299818985981708F04BC089819B
S1131300282F30E08D819E81820F931F9C838B83D5
S113131060E570E088EC97E00E9411168B819C8157
S1131320892F9927BC0188EC97E00E9434198B819E
S11313309C819927BC0188EC97E00E94341988ECC1
S113134097E00E944E1641E050E060E570E088ECC2
S113135097E00E94B6158FEF8A8388EC97E00E948D
S1131360E21621E0892B09F420E0222329F088ECFD
S113137097E00E94FA168A838981882F90E02F8152
S11313803885820F931F2A81FC01208389818F5F16
S11313908983B0CF000029960FB6F894DEBF0FBE44
S11313A0CDBFDF91CF910895CF93DF9300D000D0CC
S11313B01F92CDB7DEB79B838A837D836C8321E044
S11313C08C819D81422F9E012F5F3F4FB9010E9466
S11313D06A0989810F900F900F900F900F90DF9101
S11313E0CF910895CF93DF9300D000D000D0CDB734
S11313F0DEB79C838B837E836D8322E08D819E8107
S1131400422F9E012F5F3F4FB9010E946A098981D3
S11314109A8126960FB6F894DEBF0FBECDBFDF913A
S1131420CF910895CF93DF93CDB7DEB728970FB64A
S1131430F894DEBF0FBECDBF9E838D8378876F8304
S113144024E08F819885422F9E012F5F3F4FB90181
S11314500E946A0989819A81AB81BC81BC01CD015A
S113146028960FB6F894DEBF0FBECDBFDF91CF91A3
S11314700895AF92BF92CF92DF92EF92FF920F93B3
S11314801F93CF93DF93CDB7DEB72C970FB6F894A5
S1131490DEBF0FBECDBF9A8789877C876B8728E024
S11314A08B859C85422F9E012F5F3F4FB9010E947F
S11314B06A0929813A814B815C816D817E818F81AA
S11314C09885A22EB32EC42ED52EE62EF72E082FE5
S11314D0192F2A2D3B2D4C2D5D2D6E2D7F2D802F08
S11314E0912F2C960FB6F894DEBF0FBECDBFDF91BF
S11314F0CF911F910F91FF90EF90DF90CF90BF900D
S1131500AF900895CF93DF9300D000D01F92CDB752
S1131510DEB79A8389837C836B834D8341E08B811F
S11315209C819E012B5F3F4FB9010E94100900006E
S11315300F900F900F900F900F90DF91CF9108951F
S1131540CF93DF9300D000D000D0CDB7DEB79A831D
S113155089837C836B835E834D8342E08B819C8192
S11315609E012B5F3F4FB9010E941009000026968F
S11315700FB6F894DEBF0FBECDBFDF91CF910895B3
S1131580CF93DF93CDB7DEB728970FB6F894DEBFBD
S11315900FBECDBF9A8389837C836B832D833E8367
S11315A04F83588744E08B819C819E012B5F3F4F82
S11315B0B9010E941009000028960FB6F894DEBF06
S11315C00FBECDBFDF91CF910895EF92FF920F939D
S11315D01F93CF93DF93CDB7DEB72C970FB6F89454
S11315E0DEBF0FBECDBF9A8389837C836B83ED827C
S11315F0FE820F83188729873A874B875C8748E0E8
S11316008B819C819E012B5F3F4FB9010E94100981
S113161000002C960FB6F894DEBF0FBECDBFDF914D
S1131620CF911F910F91FF90EF900895CF93DF9387
S1131630CDB7DEB7A0970FB6F894DEBF0FBECDBF0F
S11316409F8F8E8F68A388A189831B821A821E8232
S11316501F82188619861A861B861C861D868DE1B4
S113166090E09D838C83CE010E9640E150E060E0D3
S113167070E00E94B02F8DE1482FCE010196BC018D
S113168080E090E00E9410090000A0960FB6F89444
S1131690DEBF0FBECDBFDF91CF910895CF93DF930F
S11316A000D000D000D0CDB7DEB79E838D8381E01B
S11316B090E09A83898329813A818D819E81B90141
S11316C00E94F2099C838B838B819C8101969C836D
S11316D08B834B815C8129813A818D819E81B90103
S11316E00E94A00A8B819C8126960FB6F894DEBFD7
S11316F00FBECDBFDF91CF910895AF92BF92CF922D
S1131700DF92EF92FF920F931F93CF93DF93CDB7A6
S1131710DEB76E970FB6F894DEBF0FBECDBF9E8FB7
S11317208D8F85E090E09D838C831B828B818E312D
S113173008F029C16C817D818D8D9E8D0F2EF8EA74
S1131740EF2EF02D0F2EF9EFFF2EF02D01E419EC02
S113175028ED37EF46E459EA0E94E50A2C813D81E1
S11317608D8D9E8DB9010E94390AA22EB32EC42EEE
S1131770D52EE62EF72E082F192FAE82BF82C886EB
S1131780D986EA86FB860C871D87AE80BF80C88415
S1131790D984EA84FB840C851D852A2D3B2D4C2D90
S11317A05D2D6E2D7F2D802F912F283A394F414486
S11317B0594C684D774F8644994A59F067ED71E06A
S11317C086ED97E00E94471C89819A8101969A834D
S11317D089836C817D818D8D9E8D28E439EF41E173
S11317E059EC0E94C00A2C813D818D8D9E8DB901DA
S11317F00E94120ADC01CB018E879F87A88BB98BCC
S11318008E859F85A889B9898834994FA141B94C9F
S113181059F063EE71E086ED97E00E94471C8981E0
S11318209A8101969A8389832C813D818D8D9E8D29
S11318304AE35CE5B9010E94A00A2C813D818D8DAB
S11318409E8DB9010E94F2099B8B8A8B8A899B89A0
S11318508A339C4559F06EEE71E086ED97E00E9464
S1131860471C89819A8101969A8389832C813D81C1
S11318708D8D9E8D41EEB9010E94820A2C813D819D
S11318808D8D9E8DB9010E94D4098C8B8C89813EEB
S113189059F06BEF71E086ED97E00E94471C898157
S11318A09A8101969A83898384EE92E0BC0186ED45
S11318B097E00E94041C2E813F81488559856A85E2
S11318C07B858C859D8500E20E94072EA22EB32E77
S11318D0C42ED52EE62EF72E082F192FAD8ABE8AD8
S11318E0CF8AD88EE98EFA8E0B8F1C8F8D899E89B4
S11318F0AF89B88D20E130E0AC01BD0186ED97E001
S11319000E94B41C8E819F81A885B98520E130E0B6
S1131910AC01BD0186ED97E00E94B41C87EF92E014
S1131920BC0186ED97E00E94041C8E859F85A889E2
S1131930B98920E130E0AC01BD0186ED97E00E9459
S1131940B41C8EEF92E0BC0186ED97E00E94041C6B
S11319508A899B8940E150E0BC0186ED97E00E94B2
S1131960DA1C87E093E0BC0186ED97E00E94041C3A
S113197040E150E06C8986ED97E00E94C81C8B81A1
S11319808F5F8B83D3CE89819A816E960FB6F8943C
S1131990DEBF0FBECDBFDF91CF911F910F91FF909E
S11319A0EF90DF90CF90BF90AF900895CF93DF93E7
S11319B0CDB7DEB76F970FB6F894DEBF0FBECDBFBD
S11319C09F8F8E8F8DE1482FCE010196BC0180E060
S11319D090E00E946A098FE093E0BC0186ED97E0F5
S11319E00E94041C67E072E086ED97E00E94281CC8
S11319F089814AE050E0682F86ED97E00E94C81C78
S1131A0088E193E0BC0186ED97E00E94041C67E046
S1131A1072E086ED97E00E94281C8A819B814AE04F
S1131A2050E0BC0186ED97E00E94E01C80E293E068
S1131A30BC0186ED97E00E94041C67E072E086ED2D
S1131A4097E00E94281C8C819D814AE050E0BC01F3
S1131A5086ED97E00E94E01C00006F960FB6F894A4
S1131A60DEBF0FBECDBFDF91CF910895CF93DF933B
S1131A70CDB7DEB728970FB6F894DEBF0FBECDBF43
S1131A809A8389837C836B835E834D8338872F831A
S1131A9081E090E0A0E0B0E0BC01CD0128960FB653
S1131AA0F894DEBF0FBECDBFDF91CF9108950F93A1
S1131AB01F93CF93DF93CDB7DEB72A970FB6F89471
S1131AC0DEBF0FBECDBF9A8389830B831C832D8316
S1131AD03E834F83588769877A8700002A960FB61A
S1131AE0F894DEBF0FBECDBFDF91CF911F910F9150
S1131AF00895CF93DF9300D000D0CDB7DEB79A839B
S1131B0089837C836B8300000F900F900F900F905C
S1131B10DF91CF910895CF93DF9300D000D000D010
S1131B20CDB7DEB79A8389834B835C836D837E83D1
S1131B30000026960FB6F894DEBF0FBECDBFDF912E
S1131B40CF910895CF93DF9300D000D0CDB7DEB707
S1131B509A8389837C836B8300000F900F900F908E
S1131B600F90DF91CF910895CF93DF9300D000D0F1
S1131B70CDB7DEB79A8389837C836B8300000F9093
S1131B800F900F900F90DF91CF910895CF93DF9333
S1131B9000D0CDB7DEB79A83898310920E0789816E
S1131BA09A8140E861E00E94A10E89819A8140E80F
S1131BB060E00E94A10E00000F900F90DF91CF9182
S1131BC00895CF93DF9300D000D000D0CDB7DEB717
S1131BD09A8389837C836B834D832E838D818032AA
S1131BE061F489819A81FC01908181E0292F282761
S1131BF089819A81FC01208319C08D81803431F45C
S1131C0089819A812E81FC01208310C08D818031CD
S1131C1031F489819A8121E0FC01208307C08D8100
S1131C20803821F489819A81FC0110828D8182306F
S1131C3061F48B819C81FC01908181E0292F28270C
S1131C408B819C81FC01208319C08D81843031F407
S1131C508B819C812E81FC01208310C08D81813079
S1131C6031F48B819C8121E0FC01208307C08D81AC
S1131C70803821F48B819C81FC011082000026961F
S1131C800FB6F894DEBF0FBECDBFDF91CF9108959C
S1131C90CF93DF9300D0CDB7DEB79A838983809149
S1131CA00E078F5F80930E0720910E078BEA289F03
S1131CB0812D1124982F9695892F880F890F922FA3
S1131CC0981B90930E0790910E0781E0992309F0D9
S1131CD080E090910301282F492F6BE077E08AE0A0
S1131CE097E00E94E10D80910B07682F89E00E9424
S1131CF0CD1E80910A07682F88E00E94CD1E909126
S1131D000E0781E0992309F080E090910401282FC7
S1131D10492F6CE077E08DE097E00E94E10D80911F
S1131D200D07682F8BE00E94CD1E80910C07682F51
S1131D308AE00E94CD1E00000F900F90DF91CF919A
S1131D400895CF93DF9300D000D0CDB7DEB79A8348
S1131D5089836B834C838B81813021F48C818093C4
S1131D60030106C08B81882319F48C8180930401BC
S1131D7000000F900F900F900F90DF91CF91089576
S1131D80CF93DF9300D01F92CDB7DEB79A838983B8
S1131D906B8389819A812B81FC01208300000F9041
S1131DA00F900F90DF91CF910895CF93DF9300D0E0
S1131DB000D000D0CDB7DEB79E838D838CE790E052
S1131DC02EE4FC01208362E070E080E090E00E9459
S1131DD0D41D8AE790E02AE730E0F90120812064ED
S1131DE0FC0120838AE790E0FC018081882F90E049
S1131DF08074992721E0892B09F420E0222309F03B
S1131E00F1CF88E790E0FC018081882F90E0A0E08A
S1131E10B0E089839A83AB83BC8389E790E0FC01BB
S1131E208081882F90E0982F8827092E000CAA0B18
S1131E30BB0B29813A814B815C81822B932BA42B90
S1131E40B52B89839A83AB83BC8384EB9BE2A1E1AA
S1131E50B0E029813A814B815C81BC01CD010E94B3
S1131E60E02DDA01C90189839A83AB83BC8389811C
S1131E709A81AB81BC8128EE33E040E050E0BC01A4
S1131E80CD010E94E02DDA01C901BC01CD010E94FF
S1131E90BC19DC01CB01BC01CD0126960FB6F89428
S1131EA0DEBF0FBECDBFDF91CF910895CF93DF93F7
S1131EB000D000D01F92CDB7DEB79C838B836D8397
S1131EC08B819C81FC018081882319F085E090E05E
S1131ED007C08D810E944B1E9A83898389819A81D0
S1131EE00F900F900F900F900F90DF91CF91089566
S1131EF0CF93DF9300D0CDB7DEB79A8389838AE28C
S1131F0093E0BC0186ED97E00E94041C67E172E057
S1131F1086ED97E00E94281C89819A81FC018181C9
S1131F2092814AE050E0BC0186ED97E00E94E01CFB
S1131F3082E393E0BC0186ED97E00E94041C67E114
S1131F4072E086ED97E00E94281C89819A81FC0149
S1131F50858196814AE050E0BC0186ED97E00E94BD
S1131F60E01C88E393E0BC0186ED97E00E94041C2A
S1131F7067E172E086ED97E00E94281C89819A81CE
S1131F80FC01838194814AE050E0BC0186ED97E036
S1131F900E94E01C81E493E0BC0186ED97E00E947E
S1131FA0041C67E172E086ED97E00E94281C898199
S1131FB09A81FC01878190854AE050E0BC0186ED5E
S1131FC097E00E94E01C00000F900F90DF91CF91EA
S1131FD00895CF93DF9300D0CDB7DEB79A8389837A
S1131FE080910F078F5F80930F0789819A810E94E8
S1131FF0531980910F07282F30E089819A81FC01C1
S11320003283218380910F07882F90E0880F991FD6
S11320109C01220F331F220F331F820F931F9C0139
S113202089819A81FC013683258320910F0785E2FB
S1132030289F812D1124922F981B9695890F982FF4
S113204096959695892F880F880F880F891B922F54
S1132050981B292F30E089819A81FC0134832383E2
S113206080910F07882F90E044E6489F9001499F94
S1132070300D112489819A81FC0130872783000067
S113208089819A810F900F90DF91CF9108950F93DA
S11320901F93CF93DF93CDB7DEB766970FB6F8944F
S11320A0DEBF0FBECDBF9A8789877C876B87898502
S11320B09A850E9453198B859C85FC018081882315
S11320C079F009851A85CE010D960E94E90F8AE000
S11320D0FE013D96D80101900D928A95E1F738C032
S11320E08B859C856EE00E94560F9A8389838B852D
S11320F09C856FE00E94560F9C838B838B859C8507
S113210061E10E94560F9E838D838B859C8560E1DF
S11321100E94560F98878F8389859A852B813C81ED
S1132120FC013283218389859A8529813A81FC01C6
S11321303683258389859A852D813E81FC013483EC
S1132140238389859A852F813885FC0130872783ED
S113215089859A850E94780F000089859A856696FC
S11321600FB6F894DEBF0FBECDBFDF91CF911F91A4
S11321700F910895CF93DF93CDB7DEB71092100778
S113218081E0809312071092130782E161E00E94BC
S1132190CD1E83E161E00E94CD1E89EB90E029EB26
S11321A030E0F90120812E7FFC01208389EB90E04F
S11321B029EB30E0F90120812D7FFC01208388EB9D
S11321C090E028E4FC0120838CEB90E025E4FC0102
S11321D020830000DF91CF910895CF93DF93CDB793
S11321E0DEB78CEB90E02CEB30E0F90120812A7B08
S11321F0FC01208382E160E00E94CD1E83E160E067
S11322000E94CD1E0000DF91CF910895CF93DF93FC
S11322101F92CDB7DEB789838AEB90E02981220F24
S1132220FC01208300000F90DF91CF9108950F935C
S11322301F93CF93DF9300D000D0CDB7DEB769836F
S11322407A838B839C8308EB10E080E094E2A4EF14
S1132250B0E029813A814B815C81BC01CD010E94AF
S1132260BE2DDA01C9014097A109B109B695A79518
S113227097958795F801808300000F900F900F9039
S11322800F90DF91CF911F910F910895CF93DF931A
S113229000D000D000D0CDB7DEB78A837C836B83B7
S11322A04D832E838D81813218F080E06BC0000055
S11322B0809110078823D9F781E0809310078E81DD
S11322C0809312078FEF80937D07109238078D81DA
S11322D081508093390781E0809311078A81882F88
S11322E090E0880F991F982F80911107892B809374
S11322F01107809113078130C1F4109213078BEBFF
S113230090E020911107FC0120838CEB90E0FC010C
S11323108081882F90E088709927892B81F78CEB36
S113232090E025ECFC01208307C08CEB90E025EEC7
S1132330FC01208301C00000809110078130D9F393
S1132340909138078D81981718F4809138078D8300
S1132350198213C08981882F90E02B813C81820FE0
S1132360931F2981222F30E0285E384FF901208104
S1132370FC01208389818F5F898399818D819817DE
S113238048F38D8126960FB6F894DEBF0FBECDBFFD
S1132390DF91CF9108950F93CF93DF93CDB7DEB73D
S11323A027970FB6F894DEBF0FBECDBF8A837C8318
S11323B06B834D832E830F838D81813218F081E0EE
S11323C076C00000809110078823D9F782E08093BB
S11323D010078F81809312078FEF80937D071092EF
S11323E038078D8180933907198213C08981882F1A
S11323F090E02981222F30E04B815C81240F351F2E
S1132400F9012081885E984FFC01208389818F5FC8
S1132410898399818D81981748F3109211078A81D5
S1132420882F90E0880F991F982F80911107892B8E
S113243080931107809113078130C1F41092130720
S11324408BEB90E020911107FC0120838CEB90E052
S1132450FC018081882F90E088709927892B81F76F
S11324608CEB90E025ECFC01208307C08CEB90E022
S113247025EEFC01208301C000008E81882321F019
S1132480809110078230C1F380917D078F3F11F452
S113249080E00DC080917D07803211F482E007C096
S11324A080917D07803311F483E001C084E0279696
S11324B00FB6F894DEBF0FBECDBFDF91CF910F9161
S11324C00895CF93DF9300D000D0CDB7DEB79B83C0
S11324D08A836C8380915B07282F30E08C81882F5E
S11324E090E0820F931F819714F081E02CC08091BB
S11324F01007843011F082E026C0198219C080913F
S11325005B07282F30E08981882F90E0820F931F8A
S11325102981222F30E04A815B81240F351FF90184
S11325202081865C984FFC01208389818F5F898399
S113253099818C81981718F390915B078C81890F8E
S113254080935B0780E00F900F900F900F90DF91C6
S1132550CF910895CF93DF9300D0CDB7DEB79A83A0
S1132560898389819A8190931707809316070000C5
S11325700F900F90DF91CF910895CF93DF9300D008
S1132580CDB7DEB79A83898389819A8190931507A1
S11325908093140700000F900F90DF91CF9108955E
S11325A0CF93DF931F92CDB7DEB7898389818823C8
S11325B031F08CEB90E025ECFC01208305C08CEB22
S11325C090E025E8FC01208300000F90DF91CF917B
S11325D00895CF93DF93CDB7DEB78CEB90E025ED74
S11325E0FC01208301C000008CEB90E0FC018081A1
S11325F0882F90E080719927892BA9F710921007F2
S11326000000DF91CF910895CF93DF93CDB7DEB76C
S11326108CEB90E025ECFC01208310921007000065
S1132620DF91CF9108951F920F9200905F000F9257
S113263011242F933F934F935F936F937F938F93C3
S11326409F93AF93BF93EF93FF93CF93DF93CDB754
S1132650DEB789EB90E0FC018081882F90E0887FD1
S11326609927092E000CAA0BBB0B40E050E028EF81
S113267030E0841B950B2817390708F417C18C5CCC
S11326809F4FFC010C94FF2D8BEB90E020911107E0
S1132690FC01208381E00E94D01208C19091380788
S11326A0809139079817A0F48BEB90E020913807BC
S11326B031E0320F30933807222F30E0285E384F54
S11326C0F9012081FC01208381E00E94D012EEC038
S11326D080911207882319F00E94E912E7C081E073
S11326E0809313078CEB90E024EAFC012083109282
S11326F01007DCC080E280937D070E94E912D6C0F7
S113270080E380937D070E94E912D0C088E3809320
S11327107D070E940413CAC08091380791E0980F86
S113272090933807882F90E02BEB30E0F90120815B
S1132730885E984FFC012083909138078091390777
S1132740981720F481E00E94D012B0C080E00E946B
S1132750D012ACC08091380791E0980F909338075D
S1132760882F90E02BEB30E0F9012081885E984FB0
S1132770FC01208380911207882319F00E94E9123A
S113278095C081E0809313078CEB90E024EAFC0170
S11327902083109210078AC00E94E91287C083E048
S11327A08093100710927C0781E00E94D0127EC0B3
S11327B080917C078032A0F480917C0791E0980F8F
S11327C090937C07882F90E02BEB30E0F901208177
S11327D0845A984FFC01208381E00E94D01266C085
S11327E080E00E94D01262C00E94041380917C0792
S11327F0803240F480917C07882F90E0845A984F6F
S1132800FC011082209116073091170780917C07F4
S1132810882F90E0BC018CE597E0F90109951092AE
S11328207C0744C080E00E94D01240C084E08093C2
S1132830100710925A0710925B0780911407909129
S11328401507FC01099580915B07882329F481E031
S113285080935B0710923A078BEB90E020915A0724
S113286031E0320F30935A07222F30E0265C384F84
S1132870F9012081FC01208390915A0780915B0724
S1132880981720F481E00E94D01210C080E00E94CA
S1132890D0120CC081E00E94D0121092100706C022
S11328A010927D070E94E91201C000000000DF9130
S11328B0CF91FF91EF91BF91AF919F918F917F91B4
S11328C06F915F914F913F912F910F9000925F0014
S11328D00F901F901895CF93DF9300D0CDB7DEB73C
S11328E09A83898389819A810E9497192EEE32E016
S11328F089819A81FC013183208300000F900F901D
S1132900DF91CF910895CF93DF9300D0CDB7DEB799
S11329109A83898310929E0710929F071092C10791
S11329201092C2070E94BA1087EA97E10E94BD1272
S11329308AE597E10E94AA1200000F900F90DF91A0
S1132940CF910895CF93DF9300D01F92CDB7DEB718
S11329509A8389836B8389819A810E9483148B81F2
S11329600E94061100000F900F900F90DF91CF91FD
S11329700895CF93DF9300D000D0CDB7DEB79A830C
S113298089837C836B832B8189819A81622F0E9446
S1132990A21400000F900F900F900F90DF91CF9131
S11329A00895CF93DF9300D0CDB7DEB79A838983A0
S11329B00E94ED1000000F900F90DF91CF910895C9
S11329C0CF93DF9300D000D000D0CDB7DEB79A8389
S11329D089834B835C836D837E838B819C81AD81F2
S11329E0BE81BC01CD010E941711000026960FB6CE
S11329F0F894DEBF0FBECDBFDF91CF910895CF9283
S1132A00EF920F931F93CF93DF93CDB7DEB72B973E
S1132A100FB6F894DEBF0FBECDBF9B838A836C8351
S1132A204D830E831F8328873987EA86CB868A8560
S1132A308823E9F18A819B816C810E94F7158A853C
S1132A40843010F083E08A878A859FEF980F9A87F5
S1132A5091E0882309F490E0992321F18A819B81F4
S1132A60FC0180819181FC01208131818A85882F3C
S1132A7090E0AC01440F551F440F551F440F551FE0
S1132A808E819F81A885B98504C0B695A795979531
S1132A9087954A95D2F7482F8A819B81642FF90143
S1132AA00995D2CF8A819B8160E00E9429168D818D
S1132AB0813210F080E28D832B854D816EE777E0C3
S1132AC08C810E944611898310929E07898180938C
S1132AD09F0789812B960FB6F894DEBF0FBECDBF3A
S1132AE0DF91CF911F910F91EF90CF900895CF92E6
S1132AF0EF920F931F93CF93DF9300D000D01F92D8
S1132B00CDB7DEB79A8389836B834C832D83898108
S1132B109A81CD80E12C00E010E098014C816B811A
S1132B200E94FF140F900F900F900F900F90DF9161
S1132B30CF911F910F91EF90CF900895CF93DF9392
S1132B4000D000D0CDB7DEB79A8389836B834C83E2
S1132B5089819A8121E04C816B810E9477150F90C5
S1132B600F900F900F90DF91CF910895CF93DF9343
S1132B7000D000D000D0CDB7DEB79A8389837C83A0
S1132B806B835E834D834D813B8189819A8121E0F2
S1132B90632F0E94771526960FB6F894DEBF0FBEFA
S1132BA0CDBFDF91CF910895CF93DF93CDB7DEB73B
S1132BB028970FB6F894DEBF0FBECDBF9A838983E2
S1132BC07C836B835E834D8338872F832F814D8174
S1132BD03B8189819A81632F0E94771528960FB6CD
S1132BE0F894DEBF0FBECDBFDF91CF910895CF9390
S1132BF0DF9300D01F92CDB7DEB79A8389836B83AE
S1132C0081E08093C3078B818093A0071092C10752
S1132C101092C20700000F900F900F90DF91CF9198
S1132C200895CF93DF9300D000D0CDB7DEB79A8359
S1132C3089837C836B832B8189819A81622F0E9493
S1132C40F71500000F900F900F900F90DF91CF9128
S1132C5008950F93CF93DF9300D000D0CDB7DEB7A4
S1132C609B838A836C839091C2078091A0070C8117
S1132C7021E0492F61EA77E00E94CB118983109209
S1132C80C1071092C2071092C30789810F900F9059
S1132C900F900F90DF91CF910F910895CF93DF9311
S1132CA000D0CDB7DEB79A83898389819A8161E0A8
S1132CB00E9429160F900F90DF91CF910895CF9322
S1132CC0DF9300D01F92CDB7DEB79A8389836B83DD
S1132CD08091C307882301F18091C207803248F0B4
S1132CE089819A8161E070E00E94651980E090E03A
S1132CF01AC08091C107882F90E02B818F55984F7F
S1132D00FC0120838091C1078F5F8093C10780916C
S1132D10C1078093C20705C0CE01039661E00E94FB
S1132D20611281E090E00F900F900F90DF91CF91AE
S1132D300895CF93DF93CDB7DEB728970FB6F894F5
S1132D40DEBF0FBECDBF9C838B837E836D8358878C
S1132D504F838091C307882321F11A821982298124
S1132D603A818F8198852817390708F58B819C81D2
S1132D70FC0180819181FC01208131814D815E8142
S1132D8089819A81840F951FFC0140818B819C81EC
S1132D90642FF901099589819A8101969A8389831F
S1132DA0DECF2F818D819E81622F0E9461128F81DF
S1132DB0988528960FB6F894DEBF0FBECDBFDF917D
S1132DC0CF910895CF93DF9300D0CDB7DEB79A8328
S1132DD0898380919F07282F30E080919E07882F58
S1132DE090E0A901481B590BCA010F900F90DF9185
S1132DF0CF910895CF93DF9300D000D0CDB7DEB745
S1132E009C838B838FEF9FEF9A83898390919E0796
S1132E1080919F07981788F480919E07882F90E0EF
S1132E208258984FFC018081882F90E09A8389838F
S1132E3080919E078F5F80939E0789819A810F906E
S1132E400F900F900F90DF91CF910895CF93DF9360
S1132E5000D000D0CDB7DEB79C838B838FEF9FEF7C
S1132E609A83898390919E0780919F07981760F4B5
S1132E7080919E07882F90E08258984FFC018081B2
S1132E80882F90E09A83898389819A810F900F908B
S1132E900F900F90DF91CF910895CF93DF9300D0DF
S1132EA0CDB7DEB79A83898300000F900F90DF912E
S1132EB0CF910895CF93DF9300D000D01F92CDB768
S1132EC0DEB79B838A837D836C838091C607909150
S1132ED0C707892B89F190919E0780919F079817C6
S1132EE068F119828981282F30E08C819D8128170F
S1132EF03907A4F48981882F90E02981222F30E0BA
S1132F004A815B81240F351FF90120818258984F33
S1132F10FC01208389818F5F8983E4CF10929E070F
S1132F208C8180939F072091C6073091C7078C81BD
S1132F309D81F901099503C0000001C000000F90B4
S1132F400F900F900F900F90DF91CF910895CF9332
S1132F50DF93CDB7DEB78091C4079091C507892B65
S1132F6059F01092C1071092C2078091C407909142
S1132F70C507FC01099501C00000DF91CF910895B8
S1132F80CF93DF9300D000D0CDB7DEB79A83898387
S1132F907C836B838B819C819093C7078093C60746
S1132FA000000F900F900F900F90DF91CF91089534
S1132FB0CF93DF9300D000D0CDB7DEB79A83898357
S1132FC07C836B838B819C819093C5078093C4071A
S1132FD000000F900F900F900F90DF91CF91089504
S1132FE0CF93DF9300D000D0CDB7DEB79A83898327
S1132FF07C836B8389819A81019741F48B819C81C5
S1133000019621F488EC97E00E946B1400000F9065
S11330100F900F900F90DF91CF910895CF93DF938E
S1133020CDB7DEB76FEF7FEF81E090E00E94F0173D
S1133030DF91CF910895CF93DF9300D000D0CDB727
S1133040DEB79A8389837C836B838B819C81FC01AB
S11330502281338189819A81FC013383228389818E
S11330609A810F900F900F900F90DF91CF91089558
S1133070CF93DF9300D000D0CDB7DEB79A83898396
S11330807C836B832B813C8189819A81B9010E9465
S11330901B188B819C81FC0184819581A681B78159
S11330A029813A81F90184839583A683B7838B812F
S11330B09C81FC0180859185A285B38529813A8113
S11330C0F90180879187A287B38789819A810F90BC
S11330D00F900F900F90DF91CF910895CF93DF93CE
S11330E000D000D0CDB7DEB79A8389837C836B830D
S11330F02B813C8189819A81B9010E9438188B8186
S11331009C81FC01248589819A81FC0124878B811F
S11331109C81FC01258589819A81FC01258789810F
S11331209A81AC01425F5F4F8EEF90E02B813C812E
S1133130225F3F4F8F3FFFEF9F0751F0F9016081FE
S1133140FA0160834F5F5F4F2F5F3F4F0197F2CFCC
S11331508B819C81835F9E4FFC0120813181898119
S11331609A81835F9E4FFC01318320838B819C81F4
S1133170815F9E4FFC012081318189819A81815F29
S11331809E4FFC01318320838B819C818F5E9E4FF7
S1133190FC012081318189819A818F5E9E4FFC01DF
S11331A0318320838B819C818D5E9E4FFC01208125
S11331B089819A818D5E9E4FFC0120838B819C8145
S11331C08C5E9E4FFC012081318189819A818C5EC5
S11331D09E4FFC01318320838B819C818A5E9E4FAC
S11331E0FC012081318189819A818A5E9E4FFC0194
S11331F0318320838B819C81885E9E4FFC012081DA
S1133200318189819A81885E9E4FFC0131832083BC
S113321089819A810F900F900F900F90DF91CF9139
S11332200895CF93DF9300D000D000D0CDB7DEB7A0
S11332309A8389834B835C836D837E838B819C819A
S1133240AD81BE81E981FA8126E0AC01BD01CF01E7
S11332500E94BF1A000026960FB6F894DEBF0FBE78
S1133260CDBFDF91CF910895CF93DF9300D000D0ED
S1133270CDB7DEB79A8389837C836B8389819A81F6
S1133280FC0180819181FC01208131814B81898104
S11332909A81642FF90109950F900F900F900F9068
S11332A0DF91CF910895CF93DF9300D0CDB7DEB7F0
S11332B09A83898389819A8121E0FC01208300001B
S11332C00F900F90DF91CF910895CF93DF9300D0AB
S11332D000D0CDB7DEB79A8389837C836B838981E1
S11332E09A812B813C81FC013383228300000F905F
S11332F00F900F900F90DF91CF910895CF93DF93AC
S113330000D0CDB7DEB79A8389832FE233E0898179
S11333109A81FC013183208389819A81FC01138283
S1133320128200000F900F90DF91CF910895CF93F8
S1133330DF9300D0CDB7DEB79A83898389819A81E0
S11333400E947E192EEF32E089819A81FC0131833B
S1133350208329813A8188EE93E0A0E0B0E0F9016E
S113336084839583A683B78300000F900F90DF9129
S1133370CF910895E89409C097FB3EF49095809509
S1133380709561957F4F8F4F9F4F9923A9F0F92F27
S113339096E9BB279395F695879577956795B795A5
S11333A0F111F8CFFAF4BB0F11F460FF1BC06F5F8B
S11333B07F4F8F4F9F4F16C0882311F096E911C09D
S11333C0772321F09EE8872F762F05C0662371F0BE
S11333D096E8862F70E060E02AF09A95660F771FD2
S11333E0881FDAF7880F9695879597F908950E94B4
S11333F0582FFC01918D228D892F90E0805C9F4F86
S1133400821B91098F7399270895FC01918D828DF8
S1133410981731F0828DE80FF11D858D90E00895A5
S11334208FEF9FEF0895FC01918D828D981761F0C5
S1133430828DDF01A80FB11D5D968C91928D9F5FE7
S11334409F73928F90E008958FEF9FEF08958CE71C
S11334509BE1892B49F080E090E0892B29F00E94C0
S11334607C1B81110C9400000895FC01848DDF0104
S1133470A80FB11DA35ABF4F2C91848D90E00196E3
S11334808F739927848FA689B7892C93A089B189D2
S11334908C9180648C93938D848D981306C00288DC
S11334A0F389E02D80818F7D80830895EF92FF92D0
S11334B00F931F93CF93DF93EC0181E0888F9B8D53
S11334C08C8D981305C0E889F989808185FD24C015
S11334D0F62E0B8D10E00F5F1F4F0F731127E02E98
S11334E08C8DE8120CC00FB607FCFACFE889F98975
S11334F0808185FFF5CFCE010E94351AF1CF8B8DE7
S1133500FE01E80FF11DE35AFF4FF0820B8FEA89A9
S1133510FB898081806207C0EE89FF896083E88926
S1133520F98980818064808381E090E0DF91CF918C
S11335301F910F91FF90EF900895CF93DF93EC01CB
S1133540888D8823C9F0EA89FB89808185FD05C0BF
S1133550A889B9898C9186FD0FC00FB607FCF5CFF9
S1133560808185FFF2CFA889B9898C9185FFEDCF41
S1133570CE010E94351AE7CFDF91CF910895CF9203
S1133580DF92EF92FF921F93CF93DF93EC016A01D6
S11335907B01122FE889F98982E080834115514E1D
S11335A061057105B1F060E079E08DE390E0A70179
S11335B096010E94BE2DDA01C9010197A109B10942
S11335C0B695A795979587959C01211580E13807B5
S11335D0A8F0E889F989108260E874E88EE190E047
S11335E0A70196010E94BE2DDA01C9010197A10924
S11335F0B109B695A795979587959C01EC85FD85AE
S11336003083EE85FF852083188EEC89FD89108335
S1133610EA89FB89808180618083EA89FB898081D2
S113362088608083EA89FB89808180688083EA8955
S1133630FB8980818F7D8083DF91CF911F91FF90E3
S1133640EF90DF90CF9008951F920F920FB60F92D4
S113365011242F938F939F93EF93FF93E091E607A9
S1133660F091E7078081E091EC07F091ED0782FD8E
S113367012C090818091EF078F5F8F732091F007C4
S1133680821751F0E091EF07F0E0EA52F84F958F7E
S11336908093EF0701C08081FF91EF919F918F91FB
S11336A02F910F900FBE0F901F9018951F920F929D
S11336B00FB60F9211242F933F934F935F936F9301
S11336C07F938F939F93AF93BF93EF93FF9386ED75
S11336D097E00E94351AFF91EF91BF91AF919F91AE
S11336E08F917F916F915F914F913F912F910F90A7
S11336F00FBE0F901F90189586ED97E00E94F91960
S113370021E0892B09F420E0822F0895E6EDF7E00B
S11337101382128288EE93E0A0E0B0E08483958364
S1133720A683B7838EE093E09183808385EC90E059
S11337309587848784EC90E09787868780EC90E077
S1133740918B808B81EC90E0938B828B82EC90E068
S1133750958B848B86EC90E0978B868B118E128EE2
S1133760138E148E089508950E94101E0E94B31B98
S11337700E942807C7E2DAE10E9439082097E1F3A2
S11337800E94271AF9CF0C94372ECF92DF92EF9232
S1133790FF920F931F93CF93DF936C017A018B01F8
S11337A0C0E0D0E0CE15DF0581F0D8016D918D0128
S11337B0D601ED91FC910190F081E02DC6010995AF
S11337C0892B11F02196EECF7E01C701DF91CF91B5
S11337D01F910F91FF90EF90DF90CF9008956115A6
S11337E0710579F0FB0101900020E9F73197AF01F1
S11337F0461B570BDC01ED91FC910280F381E02D17
S1133800099480E090E00895EF92FF920F931F9344
S1133810CF93DF938C017B01C0E0D0E0F701EC0F84
S1133820FD1F6491662361F0D801ED91FC91019034
S1133830F081E02DC8010995892B11F02196EECF76
S1133840CE01DF91CF911F910F91FF90EF900895DA
S11338500C94EF1BDC01ED91FC910190F081E02DC3
S113386009946AE173E00C94EF1B0F931F93CF93B9
S1133870DF93EC010E94041C8C01CE010E94311CD8
S1133880800F911FDF91CF911F910F9108950F9396
S11338901F93CF93DF93EC010E94EF1B8C01CE01A9
S11338A00E94311C800F911FDF91CF911F910F91C6
S11338B008950F931F93CF93DF93EC010E942A1C6A
S11338C08C01CE010E94311C800F911FDF91CF919A
S11338D01F910F9108958F929F92AF92BF92EF9292
S11338E0FF920F931F93CF93DF93CDB7DEB7A197CA
S11338F00FB6F894DEBF0FBECDBF7C01FA01CB0139
S113390019A2223008F42AE08E010F5D1F4F822E87
S1133910912CA12CB12CBF01A50194010E94BE2DB4
S1133920F901CA01015011096A3010F4605D01C047
S1133930695CD8016C93232B242B252B61F7B801E8
S1133940C7010E94EF1BA1960FB6F894DEBF0FBE0D
S1133950CDBFDF91CF911F910F91FF90EF90BF905A
S1133960AF909F908F9008952115310541F4DC01AB
S1133970ED91FC910190F081E02D642F09940C9459
S11339806B1C9A01462F50E060E070E00C94B41C6C
S11339900F931F93CF93DF93EC010E94C11C8C0102
S11339A0CE010E94311C800F911FDF91CF911F9196
S11339B00F9108959A01AB0160E070E00C94B41C7F
S11339C00F931F93CF93DF93EC010E94DA1C8C01B9
S11339D0CE010E94311C800F911FDF91CF911F9166
S11339E00F9108950F931F93CF93DF93EC010E94DF
S11339F0B41C8C01CE010E94311C800F911FDF91F9
S1133A00CF911F910F910895CF92DF92EF92FF9281
S1133A100F931F93CF93DF932115310581F4DC01BC
S1133A20ED91FC910190F081E02D642FDF91CF9115
S1133A301F910F91FF90EF90DF90CF9009942A305F
S1133A40310501F577FF1DC06A017B01EC016DE2D0
S1133A500E942A1C8C0144275527BA014C195D0980
S1133A606E097F092AE0CE010E946B1C800F911F12
S1133A70DF91CF911F910F91FF90EF90DF90CF9046
S1133A8008952AE0DF91CF911F910F91FF90EF905D
S1133A90DF90CF900C946B1C9A01AB01770F660BEF
S1133AA0770B0C94041D0F931F93CF93DF93EC01BA
S1133AB00E94041D8C01CE010E94311C800F911FB5
S1133AC0DF91CF911F910F9108951F920F920FB61E
S1133AD00F9211242F933F938F939F93AF93BF9390
S1133AE08091740890917508A0917608B091770838
S1133AF03091730823E0230F2D3720F40196A11D84
S1133B00B11D05C026E8230F0296A11DB11D209307
S1133B1073088093740890937508A0937608B09303
S1133B2077088091780890917908A0917A08B091EB
S1133B307B080196A11DB11D8093780890937908A4
S1133B40A0937A08B0937B08BF91AF919F918F9116
S1133B503F912F910F900FBE0F901F9018953FB774
S1133B60F8948091780890917908A0917A08B0919E
S1133B707B0826B5A89B05C02F3F19F00196A11D0F
S1133B80B11D3FBFBA2FA92F982F8827820F911DEF
S1133B90A11DB11DBC01CD0142E0660F771F881F36
S1133BA0991F4A95D1F708958F929F92AF92BF9231
S1133BB0CF92DF92EF92FF926B017C010E94AF1DC6
S1133BC04B015C01C114D104E104F10401F10E9430
S1133BD0732C0E94AF1DDC01CB0188199909AA0935
S1133BE0BB09883E9340A105B10560F321E0C21AE8
S1133BF0D108E108F10888EE880E83E0981EA11C24
S1133C00B11CC114D104E104F10419F7DBCFFF9016
S1133C10EF90DF90CF90BF90AF909F908F900895DA
S1133C20789484B5826084BD84B5816084BD85B593
S1133C30826085BD85B5816085BDEEE6F0E080815A
S1133C4081608083E1E8F0E010828081826080837B
S1133C50808181608083E0E8F0E0808181608083FE
S1133C60E1EBF0E0808184608083E0EBF0E0808130
S1133C7081608083EAE7F0E08081846080838081D2
S1133C80826080838081816080838081806880837A
S1133C901092C10008958E3008F08E5020910B01CF
S1133CA090E4299F900111248770822B80937C00DB
S1133CB080917A00806480937A0080917A0086FDF6
S1133CC0FCCF809178002091790090E0922B0895A8
S1133CD0833081F028F4813099F08230A1F0089586
S1133CE08730A9F08830B9F08430D1F48091800015
S1133CF08F7D03C0809180008F778093800008952A
S1133D0084B58F7702C084B58F7D84BD089580917A
S1133D10B0008F7703C08091B0008F7D8093B00096
S1133D200895CF93DF9390E0FC01E55AFC4F249172
S1133D30FC01E159FC4F8491882361F190E0880FE4
S1133D40991FFC01E956FC4FC591D491FC01E3573E
S1133D50FC4FA591B491611109C09FB7F894888173
S1133D60209582238883EC912E230BC0623061F46A
S1133D709FB7F8948881322F309583238883EC9100
S1133D802E2B2C939FBF06C08FB7F894E8812E2B5F
S1133D9028838FBFDF91CF9108951F93CF93DF9333
S1133DA0282F30E0F901E95BFC4F8491F901E55AD1
S1133DB0FC4FD491F901E159FC4FC491CC23C1F0DB
S1133DC0162F81110E94681EEC2FF0E0EE0FFF1FEA
S1133DD0E357FC4FA591B4919FB7F894111104C017
S1133DE08C91D095D82302C0EC91DE2BDC939FBF3D
S1133DF0DF91CF911F910895885E9E4FDC018D91D4
S1133E009C91DC01ED91FC910480F581E02D0994F5
S1133E10885E9E4FDC018D919C91DC01ED91FC91BB
S1133E200190F081E02D0994885E9E4FDC018D9114
S1133E309C91DC01ED91FC910680F781E02D0994C1
S1133E40885E9E4FDC018D919C91DC01ED91FC918B
S1133E500084F185E02D0994885E9E4FDC018D91EC
S1133E609C91DC01ED91FC910284F385E02D099491
S1133E70FC011382128288EE93E0A0E0B0E0848318
S1133E809583A683B78380E993E0918380836487D5
S1133E90DF01A35FBE4F81E097E011969C938E9360
S1133EA0129611961C921E92129611961C921E92B4
S1133EB0179611961C921E9215971C9211968CEFD0
S1133EC096E08D939C93EA5EFE4F89EF96E0918392
S1133ED080830895FC01E35FFE4F71836083329613
S1133EE05183408332963183208308950F931F9327
S1133EF0CF93DF93EC0180E090E08C010F5F1F4FC4
S1133F008897D8F4E881F9810480F581E02DCE0109
S1133F100995892B51F0E881F9810680F781E02D1C
S1133F20CE01099500E010E0EDCF61E070E080E0A3
S1133F3090E00E94D41DC801E0CFDF91CF911F9182
S1133F400F910895FF920F931F93CF93DF93EC018A
S1133F508B01F42E0E94761F6FEA74E086ED97E0E1
S1133F600E94041C61EA74E086ED97E00E94041C40
S1133F70B80186ED97E00E94041C62E286ED97E0AA
S1133F800E94591CC85EDE4F63E974E08881998100
S1133F900E94041CB801888199810E94041C8881B4
S1133FA09981FF2019F06FE874E002C06CE874E0B6
S1133FB0DF91CF911F910F91FF900C94041C9F925D
S1133FC0AF92BF92CF92DF92EF92FF920F931F9323
S1133FD0CF93DF937C01942E8B01000F111F000FF0
S1133FE0111FC0E0D0E0570188EEA81A8EEFB80A7E
S1133FF00115110509F450C0CE3FD10580F061EEE2
S113400073E022C0F50180819181DC01ED91FC9186
S11340100680F781E02D09956C018D3069F4D50196
S11340208D919C91DC01ED91FC910480F581E02D52
S11340300995892B39F726C08A3059F4209779F3EA
S1134040911007C069ED73E086ED97E00E94351C7E
S113405023C0F701EC0FFD1FC686B601772740E1A8
S113406050E086ED97E00E944C1D63E373E086ED1B
S113407097E00E94281C6C2D86ED97E00E94591C45
S11340802196CDCF01501109E9F261E070E080E0A2
S113409090E00E94D41DACCFF701EC0FFD1F1686F3
S11340A08C2FDF91CF911F910F91FF90EF90DF90B4
S11340B0CF90BF90AF909F9008950F931F93CF938D
S11340C0DF93EC018B01BA0140E00E94DF1F67EE31
S11340D073E086ED97E00E94041C2E96BE0186EDE7
S11340E097E00E94471CB801CE010E947F2F21E077
S11340F0892B09F020E0822FDF91CF911F910F913E
S11341000895CF93DF93EC01FC01E85EFE4F662334
S113411031F062E2808191810E94591C04C0808147
S113412091810E94311CFE01EA5EFE4F6081718123
S113413040E157E2CE01DF91CF910C945D200F93C3
S11341401F93CF93DF93EC018A0141E00E94A21FE9
S1134150FE01E85EFE4FB801808191810E94281C17
S113416061E0CE01DF91CF911F910F910C948120DA
S11341700F931F93CF93DF93EC018A0141E00E94D8
S1134180A21FFE01E85EFE4FB801808191810E946A
S1134190041C61E0CE01DF91CF911F910F910C942B
S11341A08120CF92DF92EF92FF92CF93DF93EC01C5
S11341B069017A0140E00E94A21FFE01E85EFE4F01
S11341C02AE030E0B701A601808191810E94041D9C
S11341D060E0CE01DF91CF91FF90EF90DF90CF9020
S11341E00C9481204F925F926F927F928F929F9254
S11341F0AF92BF92EF92FF920F931F93CF93DF93EF
S11342007C012A013B01480159010E94761F65E89F
S113421074E086ED97E00E94041C68E774E086ED84
S113422097E00E94041C2AE030E0B301A20186ED6D
S113423097E00E94B41C6CE286ED97E00E942A1C71
S11342402AE030E0B501A40186ED97E00E94F21C5B
S1134250E701C85EDE4F6BE674E0888199810E94B5
S1134260041C2AE030E0B301A201888199810E94F4
S1134270B41C6DE373E0888199810E94281C2AE0B4
S113428030E0B501A401888199810E94F21C40E1CB
S113429057E262E674E0C701DF91CF911F910F915D
S11342A0FF90EF90BF90AF909F908F907F906F9012
S11342B05F904F900C945D20EF92FF920F931F93A9
S11342C0CF93DF93EC018B017A010E94761F62ED9C
S11342D073E086ED97E00E94041CB80186ED97E038
S11342E00E94471CFE01E85EFE4FB8018081918167
S11342F00E94471C40E0B701CE010E94DF1F182F27
S11343006BEC73E086ED97E00E94041CBE01625FD3
S11343107F4F86ED97E00E94471C812FDF91CF915C
S11343201F910F91FF90EF900895EF92FF920F93DA
S11343301F93CF93DF93EC018B017A010E94761FC8
S113434064EC73E086ED97E00E94041CB80186EDEE
S113435097E00E94351CFE01E85EFE4FB8018081A3
S113436091810E94351C40E0B701CE010E94DF1FFD
S1134370182F6DEB73E086ED97E00E94041CBE01DC
S1134380625F7F4F86ED97E00E94471C812FDF918B
S1134390CF911F910F91FF90EF9008950F931F936A
S11343A0CF93DF938C0144EF51E06EEB75E00E94F4
S11343B0952163EB75E0C8010E960E94912FEC01E4
S11343C0892B71F040E064EF71E0C8010E94DF1FA7
S11343D08A85803339F08C85813331F081E005C0E2
S11343E08FEF03C080E001C083E0DF91CF911F9184
S11343F00F910895CF92DF92EF92FF920F931F9344
S1134400CF938C017A01C22F44EF51E068EA75E042
S11344100E94952163EA75E0C8010E960E94912FCF
S1134420009721F4F701108280E024C0BC016A5F88
S11344307F4FFB0101900020E9F73197E61BF70B52
S11344408C2F90E00197E817F90710F4C15001C0D0
S1134450CE2FCC2ED12CA601C7010E94D42FF70158
S1134460EC0DFD1D108240E064EF71E0C8010E9474
S1134470DF1F8C2FCF911F910F91FF90EF90DF9052
S1134480CF9008952F923F924F925F926F927F92B6
S11344908F929F92AF92BF92CF92DF92EF92FF9250
S11344A00F931F93CF93DF93CDB7DEB7CA57D109CC
S11344B00FB6F894DEBF0FBECDBF5C011B01EB96B7
S11344C05FAF4EAFEB97390128010E94CE218230B5
S11344D014F480E08AC028E7AE014F5F5F4F60E2CA
S11344E0C5010E94FA218823A1F36DE373E0CE0194
S11344F001960E94AB2F892B61F36DE373E080E09A
S113450090E00E94AB2F892B21F36DE373E080E0F0
S113451090E00E94AB2F4C01892BD9F26DE373E03C
S113452080E090E00E94AB2F5C01892B91F26DE357
S113453073E080E090E00E94AB2F8C01892B49F25C
S11345404EE050E0B401C6010E94D42FF601168655
S1134550C5010E945D2FF10160837183828393837F
S1134560C8010E945D2FEB96EEADFFADEB97608323
S1134570718382839383E114F10481F06DE373E02A
S113458080E090E00E94AB2F009709F4A2CF0E9434
S11345905D2FF701608371838283938361147104B7
S11345A081F06DE373E080E090E00E94AB2F009710
S11345B009F48FCF0E945D2FF3016083718382839E
S11345C093834114510481F06DE373E080E090E043
S11345D00E94AB2F009709F47CCF0E945D2FF2015B
S11345E0608371838283938381E0C658DF4F0FB663
S11345F0F894DEBF0FBECDBFDF91CF911F910F9115
S1134600FF90EF90DF90CF90BF90AF909F908F90EE
S11346107F906F905F904F903F902F9008958F926E
S11346209F92AF92BF92CF92DF92EF92FF920F933D
S11346301F93CF93DF93EC016B0149015A010E9450
S1134640761F66EB73E086ED97E00E94041CB601CA
S113465086ED97E00E94041C2AE030E0B501A40135
S113466086ED97E00E94531D7E0188EEE81A8EEFD6
S1134670F80AB601F701808191810E94041C2AE0A6
S113468030E0B501A401F701808191810E94531D9E
S113469040E0B801CE010E94DF1F182F6FEA73E0DB
S11346A086ED97E00E94041CBE01625F7F4F86ED99
S11346B097E00E94471C812FDF91CF911F910F91AA
S11346C0FF90EF90DF90CF90BF90AF909F908F902E
S11346D00895AF92BF92CF92DF92EF92FF920F9321
S11346E01F93CF93DF93EC016B017A0159010E9470
S11346F0761F68EA73E086ED97E00E94041CB60119
S113470086ED97E00E94041C62E286ED97E00E9429
S11347102A1CB70186ED97E00E94041C62E286ED34
S113472097E00E94591C8E01085E1E4FB601F801E5
S1134730808191810E94041C62E2F8018081918150
S11347400E942A1CB701F801808191810E94041CF7
S113475062E2F801808191810E94591C40E0B50118
S1134760CE010E94DF1F182F61EA73E086ED97E007
S11347700E94041CBE01625F7F4F86ED97E00E9499
S1134780471C812FDF91CF911F910F91FF90EF90E4
S1134790DF90CF90BF90AF9008950F931F93CF9366
S11347A0DF93EC018A01A9010E949521882341F03D
S11347B0B801CE010E960E947F2F21E0892B09F0CB
S11347C020E0822FDF91CF911F910F910895CF9216
S11347D0DF92EF92FF920F931F93CF93DF93EC013D
S11347E07C0188EEE81A8EEFF80AD7016D937C936A
S11347F061E08C850E94911E61E08C850E94CD1E33
S11348006AE070E080E090E00E94D41D60E08C8556
S11348100E94CD1E64E670E080E090E00E94D41D0A
S113482061E08C850E94CD1E68ED76E086ED97E010
S11348300E94351C8EE0C82ED12C8E010A5E1E4FBC
S1134840F70180819181DC01ED91FC910480F58177
S1134850E02D0995892B89F063EC76E086ED97E0ED
S11348600E94351CF70180819181DC01ED91FC915E
S11348700680F781E02D0995E3CFF801408151814D
S113488024EF31E060EC76E0CE010E94CD2381116B
S113489063C0D7018D919C91DC01ED91FC91048062
S11348A0F581E02D0995892B59F0F70180819181DB
S11348B0DC01ED91FC910680F781E02D0995E9CFAB
S11348C024EF31E04DEB56E06AEB76E0CE010E9436
S11348D0CD23811141C064EF71E080E090E00E943B
S11348E0D41DB1E0CB1AD10809F0AACF68E876E06C
S11348F086ED97E00E94351CD8014D915C9124EF20
S113490031E065E876E0CE010E94CD2364E670E0F4
S113491080E090E00E94D41DF8014081518124EF91
S113492031E062E876E0CE010E94CD2364E670E0D7
S113493080E090E00E94D41DD8014D915C9124EF59
S113494031E06FE776E0CE010E94CD2364E670E0AB
S113495080E090E00E94D41DF8014081518124EF51
S113496031E06AE776E0CE010E94CD2364E670E090
S113497080E090E00E94D41DD8014D915C9124EF19
S113498031E065E776E0CE010E94CD23D82E88235E
S113499009F497C0F8014081518124EF31E06BE6BE
S11349A076E0CE010E94CD2364E670E080E090E0E2
S11349B00E94D41DCE010E94761F64E676E086ED47
S11349C097E00E94041C67E473E086ED97E00E9480
S11349D0471C67E473E0D7018D919C910E94471CAA
S11349E041E064EF71E0CE010E94DF1F6DE576E0E7
S11349F086ED97E00E94041C8E01025F1F4FB801F0
S1134A0086ED97E00E94471C62E576E0C8010E94AB
S1134A10912F892B11F083E023C067E476E0C8016D
S1134A200E94912F892B11F082E01AC06CE376E08A
S1134A30C8010E94912F892B11F081E011C06CE212
S1134A4076E0C8010E94912F892B11F084E008C000
S1134A506CE176E0C8010E94912F892B11F085E06A
S1134A608D878D85813069F565E176E086ED97E087
S1134A700E94041C6BE473E086ED97E00E94471CDF
S1134A806BE473E0F701808191810E94471C41E04F
S1134A9064EF71E0CE010E94DF1F6EE076E086EDE8
S1134AA097E00E94041CB80186ED97E00E94471C21
S1134AB066E076E0C8010E94912F892B11F086E010
S1134AC08D878D2DDF91CF911F910F91FF90EF90E6
S1134AD0DF90CF900895FC01EA5EFE4F4081518142
S1134AE024EF31E062EC74E00C94CD23FC01EA5E27
S1134AF0FE4F4081518124EF31E066EB74E00C9469
S1134B00CD230C9476250F931F93CF93DF93EC0161
S1134B108A01A9010E945C21882341F0B801CE01D9
S1134B200E960E947F2F21E0892B09F020E0822F2E
S1134B30DF91CF911F910F910895AF92BF92CF92C1
S1134B40DF92EF92FF920F931F93CF93DF93CDB732
S1134B50DEB76E970FB6F894DEBF0FBECDBF8C01E3
S1134B605B016A01FC01EA5EFE4F4081518124EF42
S1134B7031E06FEC75E00E94CD23882309F488C0EE
S1134B808AE0EAE4F2E09E012F5F3F4F7901D90108
S1134B9001900D928A95E1F7FE013B9684E1DF01D5
S1134BA01D928A95E9F743E150E0B501CE010A96DA
S1134BB00E94D42FF70101900020E9F7319782E297
S1134BC0808324EF31E04CEC55E0B701C8010E942A
S1134BD08325882309F45CC069EC75E086ED97E0D1
S1134BE00E94041CB60186ED97E00E94471CB601A2
S1134BF07801B8EEEB1ABEEFFB0AF70180819181D0
S1134C000E94471CD7018D919C910E94311CF70191
S1134C1080819181DC01ED91FC910190F081E02D86
S1134C206AE1099564E673E086ED97E00E94471C0B
S1134C30F80185858450823060F440E068EC70E0CF
S1134C40C8010E94DF1F40E068EC70E0C8010E94C8
S1134C50DF1F40E060E177E2C8010E94DF1F7801B6
S1134C60FEE0EF0EF11C67E673E0C7010E94E32F3C
S1134C70892B71F040E068EE73E0C8010E94DF1FE9
S1134C806AE373E0C7010E94C22F21E0892B09F077
S1134C9020E0822F6E960FB6F894DEBF0FBECDBF14
S1134CA0DF91CF911F910F91FF90EF90DF90CF9004
S1134CB0BF90AF900895CF92DF92EF92FF920F933F
S1134CC01F93CF93DF93EC01680187010E940F23A8
S1134CD0B601CE010E960E947F2F21E0892B09F0A8
S1134CE020E0822FDF91CF911F910F91FF90EF90E1
S1134CF0DF90CF900895EF92FF920F931F93FC01E2
S1134D00EA5EFE4F00811181262F30E040E050E042
S1134D1064EFE62EFF24F39466E174E00E945B26C0
S1134D201F910F91FF90EF9008950F931F93CF93CE
S1134D30DF93EC018B010E947625CE010E946B2546
S1134D40811102C080E038C021E030E040E050E052
S1134D506BEF73E0CE010E94D120882399F3FE010A
S1134D60EC5EFE4F4081518168EF73E0CE010E94FA
S1134D70B820882339F3A80164EF73E0CE010E94C0
S1134D809F208823F9F2FE01ED5EFE4F9081992366
S1134D9099F021E030E040E050E06EEE73E0CE01A7
S1134DA00E94D120882371F261E0CE01DF91CF917E
S1134DB01F910F910C947B26DF91CF911F910F913E
S1134DC00895EF92FF920F931F93CF93DF93EC011B
S1134DD0790198010E946923B701CE010E960E94C1
S1134DE07F2F21E0892B09F020E0822FDF91CF91E2
S1134DF01F910F91FF90EF9008958F929F92AF9221
S1134E00BF92CF92DF92EF92FF920F931F93CF93B3
S1134E10DF93EC0120E23EE4662309F40FC14BE981
S1134E2055E060E975E00E94CD237E018AEEE81A20
S1134E308EEFF80AF7014081518120E137E265E8FD
S1134E4075E0CE010E94CD23882309F424C1F70123
S1134E504081518120E137E267E675E0CE010E948E
S1134E60CD23882309F417C14E01F3EF8F1AFEEF07
S1134E709F0AF4014081518141155105A9F4F701BC
S1134E804081518120E335E762E075E0CE010E9464
S1134E90CD23882309F4FFC0F7014081518120E12B
S1134EA037E269EF74E0E8C0F7012081318100E165
S1134EB017E263E575E0CE010E94E126882309F438
S1134EC0EAC0CE010E94761F8E01085E1E4F69E47F
S1134ED075E0F801808191810E94041CF4016081D5
S1134EE07181F801808191810E94041C5E01F1EFBF
S1134EF0AF1AFEEFBF0AF50180819181892B79F009
S1134F0068E873E0F801808191810E94281CF50112
S1134F1060817181F801808191810E94041C6E017D
S1134F20FFEECF1AFEEFDF0AF60180819181892B13
S1134F3079F068E873E0F801808191810E94281C6F
S1134F40F60160817181F801808191810E94041CC5
S1134F506AE873E0F801808191810E94471C62E451
S1134F6075E086ED97E00E94041C68E375E086ED29
S1134F7097E00E94041CF4016081718186ED97E042
S1134F800E94041CF50180819181892B69F068E8F5
S1134F9073E086ED97E00E94281CF5016081718121
S1134FA086ED97E00E94041CF60180819181892B93
S1134FB069F068E873E086ED97E00E94281CF6012A
S1134FC06081718186ED97E00E94041C6AE873E0B9
S1134FD086ED97E00E94471CF7016081718140E1F2
S1134FE057E2CE010E945D20882309F454C0F501E4
S1134FF0408151814115510539F4F60140815181B7
S11350004115510571F43BCFF7012081318100E155
S113501017E263E275E0CE010E94E1268111EDCF33
S11350203AC0F7012081318100E117E26FE075E0B9
S1135030CE010E94E126811122CF2DC041EF54E020
S113504066EE74E00E94CD23882329F18E010A5E66
S11350501E4FF8014081518120E137E269ED74E08F
S1135060CE010E94CD238823B1F0F8014081518103
S113507020E137E26EEC74E0CE01DF91CF911F9115
S11350800F91FF90EF90DF90CF90BF90AF909F90E3
S11350908F900C94CD2380E0DF91CF911F910F91DD
S11350A0FF90EF90DF90CF90BF90AF909F908F9044
S11350B00895AF92BF92CF92DF92EF92FF920F9337
S11350C0CF93DF935B016A01E22E0E960E94912F2B
S11350D0EC01892BC1F0C5010E94882F8C0F9D1F04
S11350E0C0E0F12CC01741F0B7010E94B72F009720
S11350F051F00196CF5FF6CF0E94612FF6019183A4
S1135100808381E001C080E0DF91CF910F91FF9017
S1135110EF90DF90CF90BF90AF900895EF92FF9201
S11351200F93CF93DF93EC017B0144EF51E06DE2E9
S113513074E00E94952100E02CE2A70162E274E091
S1135140CE010E945928DF91CF910F91FF90EF90EB
S113515008954F925F926F927F92AF92BF92CF92D7
S1135160DF92EF92FF920F931F93CF93DF93EC01A3
S11351705A01690127013801FC01EA5EFE4F0081F2
S11351801181262F30E040E050E084EFE82EFF2428
S1135190F39463E574E0CE010E945B26811102C0A2
S11351A080E017C040E0B201CE010E94DF1F01E0A1
S11351B02CE2A50166E474E0CE010E9459288823FC
S11351C079F302E02CE2A60169E374E0CE010E94C7
S11351D05928DF91CF911F910F91FF90EF90DF90AD
S11351E0CF90BF90AF907F906F905F904F90089555
S11351F04F925F926F927F928F929F92AF92BF92E3
S1135200CF92DF92EF92FF920F931F93CF93DF938E
S1135210EC012A013901480157010E94952688238F
S113522009F471C0A2016EE074E0CE010E94B820BE
S1135230882309F468C0A80160E070E000E117E287
S113524020E030E0CE010E94F220882309F45BC004
S1135250FE01E85EFE4F80819181DC01ED91FC91BD
S11352600280F381E02DA401B3010995FE01EA5EF9
S1135270FE4F6081718140E157E2CE010E945D20C2
S1135280882309F440C010E1E12E17E2F12E00E07A
S113529010E09601A50161E0CE010E94A9288823AF
S11352A091F165E074E086ED97E00E94041CF5013D
S11352B0608171814AE050E086ED97E00E94E01C35
S11352C06FEF73E086ED97E00E94041CD6016D91A8
S11352D07C914AE050E086ED97E00E94E01CB60124
S11352E0CE01DF91CF911F910F91FF90EF90DF904E
S11352F0CF90BF90AF909F908F907F906F905F9072
S11353004F900C948E2880E0DF91CF911F910F91E4
S1135310FF90EF90DF90CF90BF90AF909F908F90D1
S11353207F906F905F904F900895AF92BF92CF920D
S1135330DF92EF920F931F93CF93DF93EC016A01F7
S11353405901102F0E2D44EF51E00E949521212F79
S1135350A501B601CE010E945928182F882331F0E7
S113536040E064EF71E0CE010E94DF1F812FDF91E6
S1135370CF911F910F91EF90DF90CF90BF90AF909E
S11353800895EF920F939B01EE24E3940CE24FEF08
S113539055E068EF75E00E9495290F91EF9008950C
S11353A0EF920F93CF93DF9300D0CDB7DEB7EE2407
S11353B0E3940CE29E012F5F3F4F40EF55E067EE10
S11353C075E00E949529882311F0898101C080E04D
S11353D00F900F90DF91CF910F91EF900895EF927E
S11353E00F93CF93DF9300D0CDB7DEB7E12C0CE25F
S11353F09E012F5F3F4F40EE55E069ED75E00E943E
S11354009529882311F0898101C080E00F900F90C5
S1135410DF91CF910F91EF9008952091BE083091C4
S1135420BF0828173907B9F490917C0880917D084A
S1135430981789F0E0917C08F0E0E258F74F8081FA
S113544020917C0830E02F5F3F4F2F733327209348
S11354507C0890E008958FEF9FEF08951F93CF93FA
S1135460DF93DC015C968D919C915D97009739F4F4
S113547021E030E013963C932E9312973BC0519653
S1135480ED91FC91529750962C915097322F309574
S11354901FB75E964C915E97742F727041FD6095B4
S11354A0F8944081772311F0422B01C043234083B9
S11354B0EC012197F1F748E0508160FF02C0522BC4
S11354C001C053235083EC012197F1F766954150B5
S11354D099F78081772319F08323808302C0282BD6
S11354E020831FBF5C968D919C915D970197F1F786
S11354F081E090E0DF91CF911F910895089520916C
S1135500BE083091BF082817390771F490917C08C0
S113551080917D08981741F0E0917C08F0E0E25812
S1135520F74F808190E008958FEF9FEF08952091C9
S1135530BE083091BF082817390771F480917D089F
S113554020917C0890E0805C9F4F821B910960E46D
S113555070E00E94AA2D089580E090E00895E09103
S1135560BE08F091BF08E817F90769F4A389B48964
S11355709C918589809589238C931092BF08109201
S1135580BE0881E0089580E00895CF93DF93EC0195
S11355908A8D9B8D892BF1F08091BE089091BF0874
S11355A0C817D907B9F0009711F00E94AF2A8E8D61
S11355B08E7F8E8F10927D0810927C08D093BF0846
S11355C0C093BE08EB89FC8990818D89892B8083E7
S11355D081E001C080E0DF91CF9108951F920F9286
S11355E00FB60F9211242F933F934F935F936F93B2
S11355F07F938F939F93AF93BF93EF93FF93E09128
S1135600BE08F091BF08309709F451C0968DA68565
S1135610B785858591FF04C09C91892329F447C0EF
S11356209C91892309F043C0A389B4899C918589FD
S1135630809589238C93868997890197F1F7608DEA
S1135640718DA685B785558538E020E0CB0101979B
S1135650F1F7822F90E095958795282F4C9145235B
S113566009F02068315091F7868D81FD2095809155
S11356707D0890E001968F73992730917C08381744
S113568049F0A0917D08B0E0A258B74F2C938093C5
S11356907D0803C0868D8160868F828D938D0197EE
S11356A0F1F7A389B4899C918589892B8C93FF9107
S11356B0EF91BF91AF919F918F917F916F915F9186
S11356C04F913F912F910F900FBE0F901F901895FF
S11356D01F93CF93DF93EC01162F6E8D6695617047
S11356E081E06827812F0E94CD1E61E0812F0E94F6
S11356F0911E812F90E0FC01E55AFC4FE491E88B68
S1135700FC01E159FC4FE491F0E0EE0FFF1FE35779
S1135710FC4F859194919A8B898BDF91CF911F9146
S113572008951F93CF93DF93EC01162F60E0812F30
S11357300E94911E8E8D81FD04C061E0812F0E9424
S1135740CD1E1C87812F90E0FC01E55AFC4FE491AB
S1135750ED87FC01E159FC4FE491F0E0EE0FFF1FEF
S1135760ED57FC4F859194919F878E87DF91CF9160
S11357701F9108951F93CF93DF93EC01162F1B8283
S11357801A8288EE93E0A0E0B0E08C839D83AE8320
S1135790BF8380EA93E0998388831F8A1E8A198EC7
S11357A0188E1B8E1A8E1D8E1C8E8E8D8E7F20FB66
S11357B081F98E8F642FCE010E94682B612FCE0158
S11357C0DF91CF911F910C94912BCF93DF93EC0138
S11357D09A01AB011B8E1A8E198E188E1F8A1E8A8F
S11357E060E079E08DE390E00E94E02DF90124303F
S11357F0310518F0C901039702C081E090E09D8F44
S11358008C8F6C85663108F069C0C90196958795BF
S11358108431910510F0439702C081E090E09F8BA2
S11358208E8B369718F0C901059702C081E090E08D
S1135830998F888FC901880F991F280F391F3695B2
S11358402795369527952D30310518F02C503109C0
S113585002C021E030E03B8F2A8F909168006830CD
S113586050F021E06E3008F420E081E001C0880FA0
S11358702A95EAF701C084E0892B809368009C850F
S1135880983038F09E3040F0963148F020E030E017
S113589008C02DE630E005C02BE630E002C02CE65F
S11358A030E03C8B2B8B983030F481E001C0880FC2
S11358B09A95EAF70EC0292F30E09E3018F428504C
S11358C0310902C02E50310981E001C0880F2A95A8
S11358D0EAF78D8B8C8D9D8D0197F1F7CE01DF91C9
S11358E0CF910C94C52A089508951F920F920FB674
S11358F00F9211242F933F934F935F936F937F9352
S11359008F939F93AF93BF93EF93FF93E0910C0119
S1135910F0910D010995FF91EF91BF91AF919F9186
S11359208F917F916F915F914F913F912F910F9044
S11359300FBE0F901F9018951F920F920FB60F92E3
S113594011242F933F934F935F936F937F938F9380
S11359509F93AF93BF93EF93FF93E0910E01F09168
S11359600F010995FF91EF91BF91AF919F918F9195
S11359707F916F915F914F913F912F910F900FBE47
S11359800F901F9018950E94C82C08F481E0089588
S1135990990F0008550FAA0BE0E8FEEF161617063C
S11359A0E807F907C0F012161306E407F50798F0A4
S11359B0621B730B840B950B39F40A2661F0232BBD
S11359C0242B252B21F408950A2609F4A140A69539
S11359D08FEF811D811D089597F99F6780E870E01E
S11359E060E008959FEF80EC089500240A94161651
S11359F0170618060906089500240A9412161306B9
S1135A00140605060895092E0394000C11F4882346
S1135A1052F0BB0F40F4BF2B11F460FF04C06F5F62
S1135A207F4F8F4F9F4F089557FD9058440F551F38
S1135A3059F05F3F71F04795880F97FB991F61F00C
S1135A409F3F79F087950895121613061406551F83
S1135A50F2CF4695F1DF08C0161617061806991FEF
S1135A60F1CF86957105610508940895E894BB27E4
S1135A7066277727CB0197F908950E94502D0C943F
S1135A80032D0E94F52C38F00E94FC2C20F0952365
S1135A9011F00C94EC2C0C94F22C11240C94372D52
S1135AA00E94142D70F3959FC1F3950F50E0551F7C
S1135AB0629FF001729FBB27F00DB11D639FAA275F
S1135AC0F00DB11DAA1F649F6627B00DA11D661FAE
S1135AD0829F2227B00DA11D621F739FB00DA11DCF
S1135AE0621F839FA00D611D221F749F3327A00D89
S1135AF0611D231F849F600D211D822F762F6A2F25
S1135B0011249F5750409AF0F1F088234AF0EE0F89
S1135B10FF1FBB1F661F771F881F91505040A9F7B6
S1135B209E3F510580F00C94EC2C0C94372D5F3F74
S1135B30E4F3983ED4F3869577956795B795F795F2
S1135B40E7959F5FC1F7FE2B880F911D969587956A
S1135B5097F9089597FB072E16F4009407D077FD64
S1135B6009D00E94232E07FC05D03EF49095819520
S1135B709F4F0895709561957F4F0895A1E21A2E65
S1135B80AA1BBB1BFD010DC0AA1FBB1FEE1FFF1FDD
S1135B90A217B307E407F50720F0A21BB30BE40B2D
S1135BA0F50B661F771F881F991F1A9469F7609574
S1135BB07095809590959B01AC01BD01CF0108952E
S1135BC0052E97FB1EF400940E94F72D57FD07D075
S1135BD00E94BE2D07FC03D04EF40C94F72D509573
S1135BE04095309521953F4F4F4F5F4F08959095C5
S1135BF08095709561957F4F8F4F9F4F0895EE0F5D
S1135C00FF1F0590F491E02D099497FB10F816946A
S1135C1000080F93083098F00850232F342F452F95
S1135C20562F672F782F892F902DF4CF05949795B1
S1135C3087957795679557954795379527950A954D
S1135C40AAF70F910895AA1BBB1B51E107C0AA1F15
S1135C50BB1FA617B70710F0A61BB70B881F991F09
S1135C605A95A9F780959095BC01CD0108950F939D
S1135C701F93CF93DF938230910510F482E090E07C
S1135C80E091C208F091C30820E030E0A0E0B0E069
S1135C90309719F1408151810281138148175907C6
S1135CA0C8F08417950769F4109731F012960C9395
S1135CB0129713961C9327C00093C2081093C3082D
S1135CC022C02115310519F04217530718F49A011F
S1135CD0BD01EF01DF01F801DBCF21153105F9F03A
S1135CE0281B390B2430310580F48A819B8161158E
