:100000000C9402040C942A040C942A040C94AF203F
:100010000C94AF200C94AF200C942A040C942A0466
:100020000C942A040C942A040C942A040C942A0498
:100030000C942A040C942A040C942A040C942A0488
:100040000C943B1D0C942A040C94DA1A0C940C1B8F
:100050000C942A040C942A040C942A040C942A0468
:100060000C94B6160C942A04093C2D2D2D20000961
:100070002D2D2D3E2000093C2D2D2D2000092D2D4C
:100080002D3E2000093C2D2D2D2000092D2D2D3E2B
:100090002000535041434500093C2D2D2D20005593
:1000A000410055524C0043494400434F4E54454E85
:1000B00054002B48545450524541443A2000415476
:1000C0002B48545450524541443D302C002B485449
:1000D0005450414354494F4E3A002B4854545041D8
:1000E0004354494F4E3A0041542B485454504143D5
:1000F00054494F4E3D00444F574E4C4F41440041F0
:10010000542B48545450444154413D0041542B48D1
:10011000545450444154413D00092D2D2D3E2000A2
:10012000222C00222C220041542B48545450504180
:1001300052413D220041542B4854545050415241A9
:100140003D2200092D2D2D3E200041542B485454B2
:10015000505445524D0041542B48545450494E4937
:1001600054002C2077652776652072656164200035
:100170002C2077697468206F7572206D6178206F0C
:1001800066200052656365697665642072657370E8
:100190006F6E7365206F66206C656E6774682000F3
:1001A0004661696C656420746F2073656E642064B9
:1001B0006174612C2073746174757320636F64655E
:1001C0003A2000746578742F706C61696E006874F1
:1001D00074703A2F2F726D6F6E2E6B687564646148
:1001E0006D2E6F72672E756B2F3F613D61646400E9
:1001F00041542B43474154543D300041542B53410B
:100200005042523D302C310041542B434950534809
:1002100055540053485554204F4B0041542B4349EB
:100220004943520041542B53415042523D312C31ED
:100230000041542B53415042523D332C312C22501B
:100240005744222C0041542B53415042523D332CF1
:10025000312C2255534552222C0041542B435354E8
:10026000543D2200092D2D2D3E200041542B435397
:1002700054543D220041542B53415042523D332CA3
:10028000312C2241504E222C0041542B53415042DC
:10029000523D332C312C22434F4E54595045222C81
:1002A0002247505253220041542B43474154543D5E
:1002B000310041542B43495053485554005348553D
:1002C00054204F4B0041542B435245473F002B4392
:1002D0005245473A200041542B435245473F002B9B
:1002E000435245473A200041542B435351002B437E
:1002F00053513A200041542B435351002B43535147
:100300003A200041542B434243002B4342433A20BE
:100310000053494D3830382052313400093C2D2DDE
:100320002D2000092D2D2D3E200041544530004147
:10033000544530004154204661696C2E2E2E206CAD
:1003400061737420646974636820617474656D708E
:10035000742E004154004154004154004154004166
:100360005400415400417474656D7074696E672067
:10037000746F206F70656E20636F6D6D2077697488
:100380006820415473004F4B00464F4E416E6574D8
:1003900000207C2000526573706F6E736520436F80
:1003A00064653D00207C2000526573706F6E73653C
:1003B000204C656E3D00207C200009526573706FF3
:1003C0006E73652049643D00207C200053656E6497
:1003D00020537461742E3D00207C200047505253FE
:1003E00020537461742E3D00207C200009496E6901
:1003F0007420537461742E3D000900207C2000425B
:10040000617474253D00207C20002352656164697D
:100410006E67733D00207C200009426F6F74233D9E
:10042000004572726F723D00207C200054656D7033
:100430003D00207C200043757272656E743D002083
:100440007C200050562D563D00207C2000426174D7
:10045000742D563D0052535349204572726F723FBE
:100460003D00207C20002C204572726F723D002CD4
:10047000205374617475733D004E6574776F726BB1
:100480002D52656720526573436F64653D00207C83
:1004900020004245523D00207C2000525353493DEC
:1004A000004142434445464748494A4B4C4D4E4F14
:1004B000505152535455565758595A6162636465A6
:1004C000666768696A6B6C6D6E6F70717273747554
:1004D000767778797A303132333435363738392B8C
:1004E0002F004265686176696F75720053656E64AE
:1004F0002D446174612053746174757320536C6F63
:10050000743A00456E636F646564206461746120B1
:100510006372656174656420616E642072656164F4
:100520007920666F722073656E643A000928466F01
:100530006E6120496E6974204552524F522900095C
:1005400028466F6E6120496E69742050656E64693B
:100550006E672E2E2E2900496E697469616C69736D
:10056000696E6720466F6E6120746F2073656E64DC
:100570002064617461002A2A2A2A20546F6F206C3B
:100580006974746C652052414D206265666F7265B6
:10059000207061796C6F6164206372656174696F4A
:1005A0006E202A2A2A0054616B696E672072656189
:1005B00064696E67732E2E2E00092028476F6F64C2
:1005C0002D52535349202D207375636365737366F1
:1005D000756C6C2C20616C6C20646F6E6529000951
:1005E000202857616974696E6720466F7220476FD3
:1005F0006F642D525353492054696D6564204F75C3
:1006000074202D2077696C6C20636F6E74696E7531
:1006100065206E6F7729000920284261642D5253AE
:100620005349202D2077696C6C20636865636B20CB
:10063000616761696E20616674657220696E7465B8
:100640007276616C2900436865636B696E6720523E
:10065000535349202D2063757272656E746C793A1C
:10066000004750525320696E697469616C69736503
:1006700064207375636365737366756C6C79202190
:1006800000416C6C20617474656D70747320746FBC
:1006900020656E61626C6520475052532066616927
:1006A0006C65640057696C6C2074727920746F20DB
:1006B000656E61626C6520475052532061676169C5
:1006C0006E2073686F72746C79004572726F72205D
:1006D000696E697469616C6973696E67204750520D
:1006E0005300417474656D7074696E6720746F2077
:1006F000656E61626C6520475052532E2E2E004568
:1007000072726F7220696E697469616C6973696E67
:100710006720666F6E612E2E2E00496E69746961C6
:100720006C6973696E6720666F6E612E2E2E0053A2
:1007300074617274696E672E2E2E00322053656EBE
:10074000736F722D446174617320676F696E6720E7
:10075000666F72207472616E736D697373696F6E08
:100760003A002A2A2A2A007E7E7E7E7E7E7E7E7E39
:100770007E7E7E7E7E7E20457874656E6465642014
:1007800047534D205465737420436F6D706C6574CE
:10079000657E7E7E7E7E7E7E7E7E7E7E7E7E7E7E92
:1007A0007E000000000800020100000304070000B2
:1007B0000000000000000102040810204080010237
:1007C0000408102001020408102004040404040496
:1007D00004040202020202020303030303030000F3
:1007E000000023002600290000000000250028004A
:1007F0002B0000000000240027002A0085144C195B
:100800003C1BA01411241FBECFEFD8E0DEBFCDBF2C
:1008100011E0A0E0B1E0EAEFFAE402C005900D9229
:10082000AA39B107D9F724E0AAE9B1E001C01D92C5
:10083000AC38B207E1F713E0C1E0D4E004C021977F
:10084000FE010E94AA22CE3FD107C9F70E946A1B6F
:100850000C9470250C940000835E9E4FDC018D91FA
:100860009C91DC01ED91FC910480F581E02D0994CF
:10087000835E9E4FDC018D919C91DC01ED91FC919A
:100880000190F081E02D0994835E9E4FDC018D91F3
:100890009C91DC01ED91FC910680F781E02D09949B
:1008A000835E9E4FDC018D919C91DC01ED91FC916A
:1008B0000084F185E02D0994835E9E4FDC018D91CB
:1008C0009C91DC01ED91FC910284F385E02D09946B
:1008D0000F931F93CF93DF93EC01062F142F1B82EE
:1008E0001A8288EE93E0A0E0B0E08C839D83AE8313
:1008F000BF838DE291E09983888383E08E876CE7E4
:1009000071E0CE018B5E9E4F0E94401F0C871D87B9
:10091000FE01E25FFE4F89E893E091838083329687
:10092000118210823296118210823B9611821082BF
:1009300039971082C55EDE4F86E893E099838883FD
:10094000DF91CF911F910F910895AF92BF92CF92F7
:10095000DF92EF92FF920F931F93CF93DF938C015F
:100960005B017A01C12CD12CE501CC0DDD1DE11418
:10097000F10409F1D801ED91FC910480F581E02D9D
:10098000C8010995892B81F3D801ED91FC9106806E
:10099000F781E02DC801099589939091C00095FFDA
:1009A000FCCF8093C600BFEFCB1ADB0A81E0E81AC8
:1009B000F10801F7D9CF1882DF91CF911F910F91E4
:1009C000FF90EF90DF90CF90BF90AF9008958B5E37
:1009D0009E4F0C94551F0F931F93CF93DF93EC0101
:1009E00080E090E08C010F5F1F4F8897D8F4E8817A
:1009F000F9810480F581E02DCE010995892B51F014
:100A0000E881F9810680F781E02DCE01099500E0AB
:100A100010E0EDCF61E070E080E090E00E94AA1D60
:100A2000C801E0CFDF91CF911F910F910895FF9200
:100A30000F931F93CF93DF93EC018B01F42E0E9451
:100A4000EB0463E471E08EE993E00E94BA1B65E376
:100A500071E08EE993E00E94BA1BB8018EE993E041
:100A60000E94BA1B62E28EE993E00E941D1CC35EE5
:100A7000DE4F67E271E0888199810E94BA1BB8015C
:100A8000888199810E94BA1B88819981FF2019F081
:100A900063E271E002C060E271E0DF91CF911F91EB
:100AA0000F91FF900C94BA1BBF92CF92DF92EF92FE
:100AB000FF920F931F93CF93DF937C01B42E8B0192
:100AC000000F111F000F111FC0E0D0E0670183EE7F
:100AD000C81A8EEFD80A01151105C9F1CE3FD1050C
:100AE00098F062E970E08EE993E00E94F91B2FC054
:100AF000F60180819181DC01ED91FC910680F78106
:100B0000E02D09958D3069F4D6018D919C91DC0121
:100B1000ED91FC910480F581E02D0995892B41F739
:100B20000CC08A3021F4209779F3BB2081F0F701C3
:100B3000EC0FFD1F87872196E7CF0150110939F08F
:100B400061E070E080E090E00E94AA1DC4CFF70150
:100B5000EC0FFD1F17868C2FDF91CF911F910F9106
:100B6000FF90EF90DF90CF90BF9008950F931F9369
:100B7000CF93DF93EC018B01BA0140E00E94540552
:100B800068E970E08EE993E00E94BA1B2F96BE01DF
:100B90008EE993E00E940B1CB801CE010E94B5249F
:100BA00021E0892B09F020E0822FDF91CF911F9166
:100BB0000F910895CF93DF93EC01FC01E35EFE4FAC
:100BC000662331F062E2808191810E941D1C04C085
:100BD000808191810E94F51BFE01E55EFE4F6081E0
:100BE000718140E157E2CE01DF91CF910C94B605BF
:100BF0000F931F93CF93DF93EC018A0141E00E9492
:100C00001705FE01E35EFE4FB801808191810E94CD
:100C1000DE1B61E0CE01DF91CF911F910F910C940B
:100C2000DA050F931F93CF93DF93EC018A0141E024
:100C30000E941705FE01E35EFE4FB801808191819D
:100C40000E94BA1B61E0CE01DF91CF911F910F91FD
:100C50000C94DA05CF92DF92EF92FF92CF93DF935D
:100C6000EC0169017A0140E00E941705FE01E35E94
:100C7000FE4F2AE030E0B701A601808191810E94F9
:100C8000C81C60E0CE01DF91CF91FF90EF90DF9024
:100C9000CF900C94DA054F925F926F927F928F9271
:100CA0009F92AF92BF92EF92FF920F931F93CF93B9
:100CB000DF937C012A013B01480159010E94EB04AA
:100CC00069E171E08EE993E00E94BA1B6CE071E08B
:100CD0008EE993E00E94BA1B2AE030E0B301A20142
:100CE0008EE993E00E94781C6CE28EE993E00E940A
:100CF000EE1B2AE030E0B501A4018EE993E00E94EA
:100D0000B61CE701C35EDE4F6FEF70E0888199810A
:100D10000E94BA1B2AE030E0B301A20188819981C8
:100D20000E94781C67E071E0888199810E94EC1B29
:100D30002AE030E0B501A401888199810E94B61CA7
:100D400040E157E266EF70E0C701DF91CF911F915C
:100D50000F91FF90EF90BF90AF909F908F907F90FA
:100D60006F905F904F900C94B605EF92FF920F93A7
:100D70001F93CF93DF93EC018B017A010E94EB0468
:100D80006BE870E08EE993E00E94BA1BB8018EE92F
:100D900093E00E94F91BFE01E35EFE4FB8018081E3
:100DA00091810E94F91B40E0B701CE010E945405D9
:100DB000182F64E870E08EE993E00E94BA1BBE0130
:100DC000615F7F4F8EE993E00E940B1C812FDF91C2
:100DD000CF911F910F91FF90EF9008958F929F9266
:100DE000AF92BF92CF92DF92EF92FF920F931F9339
:100DF000CF93DF93EC016B0149015A010E94EB0490
:100E00006DE770E08EE993E00E94BA1BB6018EE9AF
:100E100093E00E94BA1B2AE030E0B501A4018EE9FC
:100E200093E00E94291D7E0183EEE81A8EEFF80AF6
:100E3000B601F701808191810E94BA1B2AE030E05F
:100E4000B501A401F701808191810E94291D40E034
:100E5000B801CE010E945405182F66E770E08EE9B4
:100E600093E00E94BA1BBE01615F7F4F8EE993E061
:100E70000E940B1C812FDF91CF911F910F91FF904A
:100E8000EF90DF90CF90BF90AF909F908F9008959C
:100E9000AF92BF92CF92DF92EF92FF920F931F9388
:100EA000CF93DF93EC016B017A0159010E94EB04AF
:100EB0006FE670E08EE993E00E94BA1BB6018EE9FE
:100EC00093E00E94BA1B62E28EE993E00E94EE1B5F
:100ED000B7018EE993E00E94BA1B62E28EE993E0CB
:100EE0000E941D1C8E01035E1E4FB601F801808119
:100EF00091810E94BA1B62E2F801808191810E9477
:100F0000EE1BB701F801808191810E94BA1B62E259
:100F1000F801808191810E941D1C40E0B501CE0145
:100F20000E945405182F68E670E08EE993E00E9455
:100F3000BA1BBE01615F7F4F8EE993E00E940B1CDC
:100F4000812FDF91CF911F910F91FF90EF90DF9054
:100F5000CF90BF90AF9008950F931F93CF93DF93DF
:100F6000EC018A01A9010E94B506882341F0B8016D
:100F7000CE010F960E94B52421E0892B09F020E0D4
:100F8000822FDF91CF911F910F910895CF92DF9221
:100F9000EF92FF920F931F93CF93DF93EC01F62E06
:100FA000E42E8FE190E00E94791B8C0120E04E2D11
:100FB0006F2D0E947B217E0183EEE81A8EEFF80AE6
:100FC000D7010D931C9340EC52E160E070E0C80142
:100FD0000E94A62161E08C850E94671E61E08C85DD
:100FE0000E94A31E6AE070E080E090E00E94AA1DCB
:100FF00060E08C850E94A31E64E670E080E090E0D3
:101000000E94AA1D61E08C850E94A31E65E673E024
:101010008EE993E00E94F91B8EE0C82ED12C8E0140
:10102000055E1E4FF70180819181DC01ED91FC91FD
:101030000480F581E02D0995892B59F0F701808115
:101040009181DC01ED91FC910680F781E02D0995FD
:10105000E9CFF8014081518124EF31E062E673E08D
:10106000CE010E94AC07811134C0D7018D919C91B3
:10107000DC01ED91FC910480F581E02D0995892B2F
:1010800059F0F70180819181DC01ED91FC9106809E
:10109000F781E02D0995E9CF24EF31E04FE553E0EA
:1010A0006CE573E0CE010E94AC07811112C064EFC1
:1010B00071E080E090E00E94AA1DB1E0CB1AD10857
:1010C00009F0B0CF5EC064E670E080E090E00E947E
:1010D000AA1DF8014081518124EF31E06FE273E0F5
:1010E000CE010E94AC0764E670E080E090E00E94D0
:1010F000AA1DD8014D915C9124EF31E06AE273E0C2
:10110000CE010E94AC07811102C012E001C011E0C3
:1011100064E670E080E090E00E94AA1DCE010E948B
:10112000EB0463E273E08EE993E00E94BA1B69E08E
:1011300071E08EE993E00E940B1C69E071E0F70119
:10114000808191810E940B1C41E064EF71E0CE012F
:101150000E9454056CE173E08EE993E00E94BA1B93
:101160002F96BE018EE993E00E940B1C61E173E0B3
:10117000CE010E94C724892B11F484E035C0812F51
:1011800033C0D8014D915C9124EF31E069E573E003
:10119000CE010E94AC0764E670E080E090E00E941F
:1011A000AA1DF8014081518124EF31E066E573E02A
:1011B000CE010E94AC0764E670E080E090E00E94FF
:1011C000AA1DD8014D915C9124EF31E063E573E0F5
:1011D000CE010E94AC07811176CF64E373E08EE903
:1011E00093E00E94F91B83E0DF91CF911F910F9153
:1011F000FF90EF90DF90CF900895FC01E55EFE4FE9
:101200004081518124EF31E066E571E00C94AC0738
:10121000FC01E55EFE4F4081518124EF31E06AE43C
:1012200071E00C94AC07EF92FF920F931F93CF9352
:10123000DF9300D000D000D0CDB7DEB78C017B01AA
:101240000E940809C8010E94FD08882359F121E085
:1012500030E040E050E066EA70E0C8010E942A06F3
:10126000882311F1A70162EA70E0C8010E9411060B
:101270008823E1F0B8016B5E7E4FCE0101960E949B
:101280006C1FAE014F5F5F4F6FE970E0C8010E94B5
:10129000F805182FCE0101960E94D21E112341F0AD
:1012A00080E007C082E005C083E003C084E001C0A5
:1012B00080E426960FB6F894DEBF0FBECDBFDF9157
:1012C000CF911F910F91FF90EF900895CF92DF92F1
:1012D000EF92FF920F931F93CF93DF93EC0168017E
:1012E00087010E94EE06B601CE010F960E94B5243A
:1012F00021E0892B09F020E0822FDF91CF911F910F
:101300000F91FF90EF90DF90CF900895EF92FF92B2
:101310000F931F93CF93DF93EC01790198010E9403
:101320004807B701CE010F960E94B52421E0892B12
:1013300009F020E0822FDF91CF911F910F91FF9054
:10134000EF9008957F928F929F92AF92BF92CF922B
:10135000DF92EF92FF920F931F93CF93DF93EC01F5
:1013600028EE3DEF662309F41FC14DEB52E062EB1E
:1013700072E00E94AC07811103C082E0782E02C0A7
:10138000772473947E0185EEE81A8EEFF80AF70150
:101390004081518120E137E267EA72E0CE010E948C
:1013A000AC07882309F425C1F7014081518120E170
:1013B00037E269E872E0CE010E94AC07882309F4A5
:1013C0001AC14E01F2EF8F1AFEEF9F0AF40140811D
:1013D00051814115510571F4F701408151812FEF81
:1013E0003FEF64E272E0CE010E94AC078111CEC0F3
:1013F00089E00EC1F7012081318100E117E265E744
:1014000072E0CE010E948609882309F4F6C0CE015D
:101410000E94EB048E01035E1E4F6BE672E0F80142
:10142000808191810E94BA1BF40160817181F80171
:10143000808191810E94BA1B5E01F0EFAF1AFEEF2E
:10144000BF0AF50180819181892B79F065E271E015
:10145000F801808191810E94EC1BF501608171810E
:10146000F801808191810E94BA1B6E01FEEECF1AB5
:10147000FEEFDF0AF60180819181892B79F065E228
:1014800071E0F801808191810E94EC1BF60160817E
:101490007181F801808191810E94BA1B67E271E03D
:1014A000F801808191810E940B1C64E672E08EE954
:1014B00093E00E94BA1B6AE572E08EE993E00E9415
:1014C000BA1BF401608171818EE993E00E94BA1B1E
:1014D000F50180819181892B69F065E271E08EE9E7
:1014E00093E00E94EC1BF501608171818EE993E02D
:1014F0000E94BA1BF60180819181892B69F065E217
:1015000071E08EE993E00E94EC1BF601608171812D
:101510008EE993E00E94BA1B67E271E08EE993E0E6
:101520000E940B1CF7016081718140E157E2CE01FE
:101530000E94B605882309F462C0F50140815181FB
:101540004115510539F4F60140815181411551058C
:1015500079F442CFF7012081318100E117E265E49F
:1015600072E0CE010E9486098111EDCF87E050C064
:10157000F7012081318100E117E261E372E0CE01E1
:101580000E948609811128CF88E042C0F70140817E
:1015900051812FEF3FEF6BE172E0CE010E94AC076B
:1015A000882379F1872D34C043E152E068E072E08E
:1015B0000E94AC07882339F18E01055E1E4FF801A9
:1015C0004081518120E137E26BEF71E0CE010E9452
:1015D000AC078823D1F0F8014081518120E137E246
:1015E00060EF71E0CE010E94AC07882381F081E0BA
:1015F0000FC083E00DC084E00BC085E009C086E029
:1016000007C08AE005C08BE003C08CE001C08DE01C
:10161000DF91CF911F910F91FF90EF90DF90CF90CE
:10162000BF90AF909F908F907F900895AF92BF92A0
:10163000CF92DF92EF92FF920F93CF93DF935B01F4
:101640006A01E22E0F960E94C724EC01892BC1F09B
:10165000C5010E94BE248C0F9D1FC0E0F12CC01755
:1016600041F0B7010E94EA24009751F00196CF5F44
:10167000F6CF0E949724F6019183808381E001C018
:1016800080E0DF91CF910F91FF90EF90DF90CF90AE
:10169000BF90AF900895CF92DF92EF92FF920F9399
:1016A0001F93CF93DF9300D0CDB7DEB77C016A01E3
:1016B0009B012150310940E050E004EF11E06EEB56
:1016C00070E00E94EE0600E02CE2AE014F5F5F4F3B
:1016D00062EB70E0C7010E94160B882361F049811C
:1016E0005A81B601C7010E94A50440E064EF71E091
:1016F000C7010E9454050F900F90DF91CF911F9169
:101700000F91FF90EF90DF90CF9008954F925F92EE
:101710006F927F92AF92BF92CF92DF92EF92FF9241
:101720000F931F93CF93DF93EC016A0159012701B7
:101730003801FC01E55EFE4F00811181262F30E06B
:1017400040E050E084EFE82EFF24F39467EE70E071
:10175000CE010E946609882309F140E0B201CE0162
:101760000E94540501E02CE2A6016AED70E0CE0172
:101770000E94160B8823A1F002E02CE2A5016DEC7B
:1017800070E0CE010E94160B882361F0F601808183
:101790009181883C910541F480E007C087E005C055
:1017A00088E003C089E001C080E8DF91CF911F91FC
:1017B0000F91FF90EF90DF90CF90BF90AF907F9010
:1017C0006F905F904F9008952F923F924F925F924B
:1017D0006F927F928F929F92AF92BF92CF92DF9241
:1017E000EF92FF920F931F93CF93DF9300D000D01F
:1017F0001F92CDB7DEB73C015B834A8319012801F4
:10180000FD82EC820E94130989838F70823008F078
:1018100059C04A815B816AEA70E0C3010E941106E7
:10182000811103C0898180618983A20160E070E039
:1018300000EC14ED21E030E0C3010E944B06811161
:1018400003C0898185603FC0F301E35EFE4F808164
:101850009181DC01ED91FC910280F381E02DA201E8
:10186000B1010995F301E55EFE4F6081718140E1B0
:1018700057E2C3010E94B605811103C089818660C9
:1018800022C010E1E12E17E2F12E00E010E09501F8
:101890004C815D8161E0C3010E94860B982F9F708F
:1018A000923018F0B9818B2B0EC0A401B601C30190
:1018B0000E944B0B811103C08981806289838981D9
:1018C000816001C089810F900F900F900F900F9051
:1018D000DF91CF911F910F91FF90EF90DF90CF900C
:1018E000BF90AF909F908F907F906F905F904F9040
:1018F0003F902F9008952F923F924F925F926F9258
:101900007F928F929F92AF92BF92CF92DF92EF928F
:10191000FF920F931F93CF93DF933C01E9012801BE
:10192000170176014901510168018A019B0143ECCD
:1019300051E06EEC71E00E94E40B182F8F70823042
:1019400078F060EA71E08EE993E00E94BA1B612FA3
:1019500070E04AE050E08EE993E00E94171D33C02A
:1019600063E871E08EE993E00E94BA1BF1016081A7
:1019700071814AE050E08EE993E00E949E1C60E78E
:1019800071E08EE993E00E94BA1B4AE050E0B20198
:101990008EE993E00E949E1C62E671E08EE993E07E
:1019A0000E94BA1BFE0101900020E9F73197BF01A8
:1019B0006C1B7D0B4AE050E08EE993E00E94A41C72
:1019C000C3010E940809812FDF91CF911F910F91D0
:1019D000FF90EF90DF90CF90BF90AF909F908F904F
:1019E0007F906F905F904F903F902F900895AF92AF
:1019F000BF92CF92DF92EF920F931F93CF93DF931B
:101A0000EC016A015901102F0E2D44EF51E00E94A4
:101A1000B506212FA501B601CE010E94160B182F85
:101A2000882331F040E064EF71E0CE010E9454055C
:101A3000812FDF91CF911F910F91EF90DF90CF9089
:101A4000BF90AF900895EF920F939B01EE24E39423
:101A50000CE24AE053E063E073E00E94F70C0F9160
:101A6000EF900895CF92DF92EF92FF920F931F9322
:101A7000CF93DF93CDB7DEB728970FB6F894DEBFCC
:101A80000FBECDBF6C0118861F821E821D821C8274
:101A90001B821A821982E12C0CE29E01295F3F4FC2
:101AA0004CEF52E065EF72E00E94F70CF82EEE2446
:101AB000E3949E012B5F3F4F4EEE52E067EE72E0E3
:101AC000C6010E94F70C882319F081E0F82602C0B5
:101AD000FF24F394E12C0CE29E012D5F3F4F4FED6C
:101AE00052E066ED72E0C6010E94F70C882311F007
:101AF0001B8101C010E2EE24E3940CE29E012F5FF3
:101B00003F4F4EEC52E065EC72E0C6010E94F70CCC
:101B1000811103C0912F906202C09981912B7D8128
:101B20006F818F2D28960FB6F894DEBF0FBECDBF04
:101B3000DF91CF911F910F91FF90EF90DF90CF90A9
:101B40000895FC0110821282118213821482158280
:101B500016821782128611861486138608952AE04B
:101B6000829FC001112409960C94F80FCF93DF9344
:101B7000EC01CB0129E0FE01DB0101900D922A95D9
:101B8000E1F74B812AE0429FA00111246B857C85FF
:101B90000996DF91CF910C94E124AF92BF92CF923E
:101BA000DF92EF92FF920F931F93CF93DF93CDB706
:101BB000DEB76B01EDB6FEB6FC010381FAE00F9FC4
:101BC00080011124075F1F4F2DB73EB7201B310B3B
:101BD0000FB6F8943EBF0FBE2DBFEDB7FEB73196DE
:101BE0005F01BF010E94B60DA801B501C6010E94A8
:101BF00033100FB6F894FEBE0FBEEDBEDF91CF914D
:101C00001F910F91FF90EF90DF90CF90BF90AF901A
:101C10000895FC017487638743830895FC01608302
:101C20000895FC01728361830895FC014583568306
:101C3000678370870895CF93DF93EC016BE974E0BD
:101C40008EE993E00E94BA1B4AE050E068818EE979
:101C500093E00E94851C67E974E08EE993E00E949E
:101C6000BA1B62E974E08EE993E00E94BA1B4AE075
:101C700050E069818EE993E00E94851C6EE874E073
:101C80008EE993E00E94BA1B69E774E08EE993E065
:101C90000E94BA1B6B81637070E04AE050E08EE9ED
:101CA00093E00E94101D6FE674E08EE993E00E94BD
:101CB000BA1B6B816C7170E075956795759567952A
:101CC0004AE050E08EE993E00E94101D66E674E061
:101CD0008EE993E00E94BA1B6B8165FB662760F971
:101CE0004AE050E070E08EE993E00E94101D62E649
:101CF00074E08EE993E00E94BA1B65E574E08EE91A
:101D000093E00E94BA1B4AE050E06A818EE993E0BA
:101D1000DF91CF910C948C1CFC012281211106C013
:101D20009081933619F081E0973008F480E00895AF
:101D3000CF93DF93EC016DE474E08EE993E00E94B1
:101D4000BA1B69817A814AE050E08EE993E00E94F3
:101D50009E1C69E474E08EE993E00E94BA1B63E480
:101D600074E08EE993E00E94BA1B6B817C814AE0AB
:101D700050E08EE993E00E949E1C6FE374E08EE9D0
:101D800093E00E94BA1B66E374E08EE993E00E9440
:101D9000BA1B6D817E814AE050E08EE993E00E949B
:101DA0009E1C62E374E08EE993E00E94BA1B6CE231
:101DB00074E08EE993E00E94BA1B6F8178854AE057
:101DC00050E08EE993E00E949E1C68E274E08EE988
:101DD00093E00E94BA1B61E274E08EE993E00E94F6
:101DE000BA1B4AE050E069858EE993E0DF91CF911C
:101DF0000C948C1CCF93DF93EC0169E174E08EE9C5
:101E000093E00E94BA1B6A817B814AE050E08EE930
:101E100093E00E949E1C65E174E08EE993E00E94CD
:101E2000BA1B6AE074E08EE993E00E94BA1B4AE0B4
:101E300050E06C818EE993E00E94851C66E074E0BE
:101E40008EE993E00E94BA1B6FEF73E08EE993E096
:101E50000E94BA1B6981062E000C770B4AE050E005
:101E60008EE993E00E94101D6BEF73E08EE993E022
:101E70000E94F91B69EF73E08EE993E00E94BA1BA0
:101E8000CE0105960E941B0E6CEE73E08EE993E086
:101E90000E94BA1B698570E042E050E08EE993E051
:101EA0000E94101D68EE73E08EE993E00E94BA1B59
:101EB0006CED73E08EE993E00E94BA1B6A8570E0D6
:101EC00042E050E08EE993E00E94101D68ED73E05F
:101ED0008EE993E00E94BA1B6CEC73E08EE993E00C
:101EE0000E94BA1B6B8570E042E050E08EE993E0FF
:101EF0000E94101D68EC73E08EE993E00E94F91BCC
:101F00006AEB73E08EE993E00E94BA1B68897989D5
:101F10004AE050E08EE993E00E949E1C66EB73E07D
:101F20008EE993E00E94BA1B68EA73E08EE993E0C1
:101F30000E94BA1B6E857F854AE050E08EE993E0EF
:101F40000E949E1C64EA73E08EE993E00E94BA1B33
:101F500065E973E08EE993E00E94BA1B6C857D858C
:101F60004AE050E08EE993E00E949E1C61E973E034
:101F70008EE993E0DF91CF910C94F91BE0918A04F4
:101F8000F0918B0480E090E0309749F00296208138
:101F90003181820F931F0280F381E02DF5CF0895E8
:101FA0000F931F93CF93DF9300D0CDB7DEB780910F
:101FB0008804909189048E010F5F1F4F009729F4C8
:101FC0000C5814401A8309830AC0081B190B1A8382
:101FD00009830E94BE0F800F911F9A838983898194
:101FE0009A810F900F90DF91CF911F910F910895DB
:101FF0009C012E5F3F4FE3E0F0E0C901BF010E946A
:102000005522A901481B590BCA01BF010E94552244
:10201000CB01880F991F880F991F01960895DC0145
:10202000FB018081869586958C9380818370918158
:1020300092959F7020E1829F900D112411969C93A0
:10204000119791819F70990F990F22812295269562
:1020500026952370920F12969C93129782818F730C
:1020600013968C9308956F927F928F929F92AF9266
:10207000BF92CF92DF92EF92FF920F931F93CF9375
:10208000DF93CDB7DEB727970FB6F894DEBF0FBE4C
:10209000CDBF6C015B013B01640E751EE12CF12C80
:1020A00000E010E04E0185E0880E911C6A147B046C
:1020B00049F1C8010196F50121915F01F401E00F9A
:1020C000F11F20838330910511F08C01EFCFB40113
:1020D000CE0101960E940F10DE011196C6018E0DF1
:1020E0009F1DED91F0E0EF55FB4F2491FC012193F2
:1020F000CF01A815B905A9F7F4E0EF0EF11C80E0B7
:1021000090E0E3CF0115110509F43CC0BE016B5FFF
:102110007F4FFB01E00FF11FCF01861B970B039749
:1021200014F41192F9CFCE0101965C010E940F10B8
:10213000C6018E0D9F1DD501ED91F0E0EF55FB4FCF
:102140002491FC012193CF019D012A193B0902171B
:10215000130794F7FFEFEF1AFF0AE00EF11EF601E6
:10216000EE0DFF1D0C191D090E191F098DE37F01CE
:10217000EC18FD0898012E0F3F1F2330310514F491
:102180008193F5CFF601EE0DFF1D1082C701019678
:1021900027960FB6F894DEBF0FBECDBFDF91CF916B
:1021A0001F910F91FF90EF90DF90CF90BF90AF9075
:1021B0009F908F907F906F90089561E085E00E94DE
:1021C000671E61E085E00E94A31E68EB7BE080E073
:1021D00090E00E94AA1D61E08DE00E94671E26E04B
:1021E00040E855E260E070E08EE993E00E94751AE5
:1021F0006FE277E08EE993E00E94F91B8091AB01DA
:1022000084608093AB0108950F931F93CF93DF9366
:10221000CDB7DEB72C970FB6F894DEBF0FBECDBF9B
:10222000182F8091A7019091A80101969093A80181
:102230008093A70181E08093A00189EB91E09093C6
:102240009F0180939E018091A101811134C06AE1B8
:1022500077E08EE993E00E94F91B42E063E089EBAE
:1022600091E00E94C6078093A1018EEA91E00E944E
:102270002D15082F69E371E0CE0107960E94401FDB
:10228000602FCE0107960E94A31FBE01695F7F4F9A
:10229000CE0101960E946C1FBE016F5F7F4F89EBDC
:1022A00091E00E94E704CE0101960E94D21ECE0169
:1022B00007960E94D21E8091A10183508230B0F413
:1022C0006FEF76E08EE993E00E94BA1B67E471E05D
:1022D0008EE993E00E94EC1B6091A10170E04AE05E
:1022E00050E08EE993E00E94171D65C0112309F4A8
:1022F000B1C08091A201811149C08091A701909144
:10230000A8016AE070E00E944122892B19F0109226
:10231000A0013CC062EE76E08EE993E00E94F91BDA
:1023200061E089EB91E00E94A209182F8FEF810FE5
:10233000823020F16AEC76E08EE993E00E94BA1BCD
:1023400067E471E08EE993E00E94EC1B612F70E07E
:102350004AE050E08EE993E00E94171D8091A701AA
:102360009091A801CC9728F41092A00164EA76E03D
:1023700009C01093A20161E876E004C01093A201A5
:1023800061E676E08EE993E00E94F91B8091A2015C
:102390008150823080F48091A9019091AA01019628
:1023A0009093AA018093A90183EA91E00E948C0E88
:1023B000882331F04FC010929F0110929E014AC0B5
:1023C0008091A9019091AA016AE070E00E944122E7
:1023D000892B19F01092A0013DC066E476E08EE9E9
:1023E00093E00E94BA1B89EB91E00E94320D698351
:1023F0007A838B839C83CE0101960E941B0ECE01B3
:1024000001960E948C0E811113C08091A9019091B8
:10241000AA018C32914048F41092A00167E176E065
:102420008EE993E00E94F91B15C06FED75E002C0C4
:1024300069EB75E08EE993E00E94F91B89819A812E
:10244000AB81BC818093A3019093A401A093A501CB
:10245000B093A6018EE991E02C960FB6F894DEBFFA
:102460000FBECDBFDF91CF911F910F91089569E409
:1024700071E08EE993E00E940B1C60E085E00E9411
:10248000A31E68EB7BE080E090E00C94AA1DCF9344
:10249000DF93CDB7DEB72A970FB6F894DEBF0FBE35
:1024A000CDBF66EA75E08EE993E00E94F91B81E0FA
:1024B00089831B821A821D821C821F821E821986BA
:1024C00018861A86BE016F5F7F4F8CEA91E00E94EA
:1024D0007C1581E02A960FB6F894DEBF0FBECDBF03
:1024E000DF91CF9108952F923F924F925F926F921A
:1024F0007F928F929F92AF92BF92DF92EF92FF9264
:102500000F931F93CF93DF93CDB7DEB72D970FB601
:10251000F894DEBF0FBECDBF4C015B01D42E280165
:1025200039012DB63EB60E94D00F7C010D2D10E072
:102530002AE0D29EC00111248F589F4FE816F90659
:1025400034F466E775E08EE993E00E94BA1B67E415
:1025500071E08EE993E00E94EC1B4AE050E0B70185
:102560008EE993E00E94171D2AE0209FC001219F61
:10257000900D1124EDB7FEB7E81BF90B0FB6F894D8
:10258000FEBF0FBEEDBF2DB73EB72F5F3F4F7901A6
:10259000F90181E00150110960F0808312821182FB
:1025A00014821382168215821086178211863A963B
:1025B000F1CF4D2DB7018EEA91E00E94C214F501D2
:1025C0008083CE0101960E94A10D8EEA91E00E94C7
:1025D0002D15682FCE0101960E940E0E8EEA91E015
:1025E0000E944415BC01CE0101960E94110EF50116
:1025F0004081B701CE0101960E94090EB301A201EC
:10260000CE0101960E94150EB401CE0101960E94E2
:10261000CD0D0FB6F8943EBE0FBE2DBE2D960FB653
:10262000F894DEBF0FBECDBFDF91CF911F910F9108
:10263000FF90EF90DF90BF90AF909F908F907F9032
:102640006F905F904F903F902F9008953F924F92E0
:102650005F926F927F928F929F92AF92BF92CF9232
:10266000DF92EF92FF920F931F93CF93DF93CDB73B
:10267000DEB7A3970FB6F894DEBF0FBECDBF4DB641
:102680005EB680919C0190919D01019690939D0171
:1026900080939C01019731F467E575E08EE993E042
:1026A0000E94F91B81E00E9404115C01FC01328050
:1026B000311007C06FE375E08EE993E00E94F91BCB
:1026C000A7C082E089831A821C821B821D821E821F
:1026D0001F8218861A861B861C861E861D86188AEF
:1026E0001F861A8A198A8EEA91E00E9444159C83FB
:1026F0008B83F50183818A8784818B87858196818D
:10270000A781B0858E839F83A887B987A080B18079
:10271000A114B10439F46CE275E08EE993E00E94F3
:10272000F91B6FC084E10E94AF0D2DB73EB7281B87
:10273000390B0FB6F8943EBF0FBE2DBF8DB79EB7B5
:1027400001964C010E811F812885398544E1BE0127
:102750006D5D7F4F0E9473128BA18D830E94AF0D20
:102760003C0163E075E08EE993E00E94F91BB4013F
:102770008EE993E00E940B1C1B8A1C8A1D8A1E8A0C
:102780001F8A188E198E1A8E1B8E1C8E1AA219A2E1
:1027900018A21F8EFE01B1966F019E01215E3F4F70
:1027A00079010AE010E02C503109A301B401C50100
:1027B0000E947B0C782ECE0143960E9497244C01F8
:1027C000BE01635E7F4FC5010E94230D811102C0CF
:1027D0008FEF01C08D8D8A837C8689A19AA19E8707
:1027E0008D878F8D98A1988B8F879A8A898A6CEEB6
:1027F00074E08EE993E00E94F91BCE0101960E94DD
:10280000FA0EBE016F5F7F4F8EEA91E00E94D814EE
:10281000832D0FB6F8945EBE0FBE4DBEA3960FB6C5
:10282000F894DEBF0FBECDBFDF91CF911F910F9106
:10283000FF90EF90DF90CF90BF90AF909F908F90E0
:102840007F906F905F904F903F90089568EE73E097
:1028500080E090E00E94AA1D80919A0190919B01D6
:10286000019690939B0180939A0162EE74E08EE949
:1028700093E00E94BA1B67E471E08EE993E00E9446
:10288000EC1B4AE050E06091AB018EE993E00E94BE
:102890008C1C8091AB0180FF09C00E9447128823E5
:1028A00029F08091AB018E7F8093AB018091AB01C9
:1028B00081FF09C00E942613882329F08091AB0173
:1028C0008D7F8093AB018091AB0182FF17C0809117
:1028D0009A0190919B01019731F46EEA71E089EBC6
:1028E00091E00E945C190E942613882339F08091A0
:1028F000AB018B7F8093AB010E9450198091AB019B
:10290000811102C00C943712089541E064E089EB14
:1029100091E00E94680460E08EEA91E00E94B114A8
:1029200061E08CEA91E00E944815EEE9F1E0128244
:1029300015821682178212861186148613860895D0
:102940008DE291E09093BA018093B9018EEC92E010
:102950000C94D21EDC01ED91FC910190F081E02DF0
:102960000994FC01148215821682178280E8808700
:10297000818712866383611104C086E493E00C941E
:10298000B1180895CF93DF93EC01CB016881798171
:102990006115710549F04A812AE0429FA001112486
:1029A0000E94E1248A8101C081E0DF91CF910895E6
:1029B0000895EF92FF920F931F93CF93DF93EB0154
:1029C0007B01E40EF11C8C01CE15DF0571F160E591
:1029D00070E086E493E00E94CD18612F70E086E4F9
:1029E00093E00E94AA14B801772786E493E00E943E
:1029F000AA1486E493E00E94491941E050E060E5A2
:102A000070E086E493E00E94461986E493E00E9419
:102A1000E317892B29F086E493E00E94EB1701C0AD
:102A20008FEF89930F5F1F4FCFCFDF91CF911F9112
:102A30000F91FF90EF900895CF93DF931F92CDB742
:102A4000DEB7CB0141E0BE016F5F7F4F0E94D9141A
:102A500089810F90DF91CF91089560E070E00C9430
:102A60001C15CF93DF9300D0CDB7DEB7CB0142E08A
:102A7000BE016F5F7F4F0E94D91489819A810F90A8
:102A80000F90DF91CF91089561E070E00C943115C3
:102A9000FC0160830895FC018081811103C0862FB1
:102AA0000C94211E85E090E00895FC01DB018181FA
:102AB0008F5F818390E012969C938E931197818112
:102AC0002AE0829FC001112414969C938E93139741
:102AD000818167E00E943522892F90E016969C93B1
:102AE0008E931597818124E6829FC0011124189648
:102AF0009C938E9317970895AF92BF92CF92DF92D7
:102B0000EF92FF920F931F93CF93DF938C01EB0112
:102B1000FC018081882321F0C8010E9455151BC04B
:102B20006EE0C8010E944B156C016FE0C8010E9465
:102B30004B155C0161E1C8010E944B157C0160E10D
:102B4000C8010E944B15BA82A982DC82CB82FE8228
:102B5000ED8298878F83CE01DF91CF911F910F91E6
:102B6000FF90EF90DF90CF90BF90AF900C94980EB5
:102B70001092450381E0809343031092420361E089
:102B800082E10E94A31E61E083E10E94A31EE9EBA3
:102B9000F0E080818E7F808380818D7F808388E4D8
:102BA0008093B80085E48093BC000895413208F01A
:102BB00043C0909145039111FCCF91E09093450360
:102BC000209343032FEF2093D80210921D03240F6C
:102BD00020931C039093440390914403880F892B06
:102BE0008093440380914203813061F41092420348
:102BF000809144038093BB008091BC0083FDF8CF9B
:102C000085EC01C085EE8093BC0080914503813046
:102C1000E1F380911D03841710F440911D03AEE190
:102C2000B3E0962FFB018E2F891B841718F48D912A
:102C30008193F9CF842F089580E008950F93413256
:102C400008F04AC0909145039111FCCF32E03093D7
:102C50004503009343033FEF3093D80210921D03C6
:102C600040931C03562FAEE1B3E0FB013E2F351B12
:102C7000341718F431913D93F9CF109244033091F9
:102C80004403880F832B8093440380914203813057
:102C900061F410924203809144038093BB008091C1
:102CA000BC0083FDF8CF85EC01C085EE8093BC00AD
:102CB000222321F0809145038230D1F38091D80204
:102CC0008F3F79F08091D802803241F08091D80214
:102CD000803331F094E005C091E003C092E001C080
:102CE00093E0892F0F9108954091FA02262F30E04A
:102CF000240F311D21323105DCF4209145032430AD
:102D0000C9F4FC0180E090E0861758F43091FA0293
:102D10002191DC01A450BD4FA30FB11D2C9301964E
:102D2000F3CF8091FA02680F6093FA0280E0089571
:102D300081E0089582E0089590933F0380933E03DD
:102D400008959093410380934003089585ED809307
:102D5000BC008091BC0084FDFCCF10924503089517
:102D600085EC8093BC001092450308951F920F924A
:102D70000FB60F9211242F933F934F935F936F934E
:102D80007F938F939F93AF93BF93EF93FF93809124
:102D9000B900887F803609F49EC078F5883209F43E
:102DA0005DC090F4803109F456C038F4882309F4EA
:102DB000F5C0883009F44FC0F5C0883109F44EC021
:102DC000803209F45FC0EEC0803409F46AC058F460
:102DD000803309F457C0883309F0E4C08093D802E7
:102DE0000E94B016DFC0803509F44FC0883509F461
:102DF0005DC0883409F0D6C0D3C0883909F4C4C096
:102E0000A8F4883709F467C038F4883609F463C039
:102E1000803709F460C0C6C0883809F4B5C080396D
:102E200009F45FC0803809F0BDC05BC0803B09F485
:102E300083C038F4803A09F466C0883A09F47CC04B
:102E4000B1C0803C09F4A4C0883C09F4A1C0883B0F
:102E500009F487C0A7C08091440310C090911D035E
:102E600080911C03981770F5E0911D0381E08E0F8F
:102E700080931D03F0E0E25EFC4F80818093BB00F5
:102E800085EC83C08093D8028BC0E0911D0381E064
:102E90008E0F80931D038091BB00F0E0E25EFC4F3B
:102EA000808390911D0380911C036BC0E0911D03F2
:102EB00081E08E0F80931D038091BB00F0E0E25E05
:102EC000FC4F80838091430381116AC081E080932D
:102ED000420384EA5EC083E0809345031092D902E6
:102EE000CFCF8091D902803208F04EC0E091D90254
:102EF00081E08E0F8093D9028091BB00F0E0E65212
:102F0000FD4F8083BDCF0E94B0168091D9028032E0
:102F100030F4E091D902F0E0E652FD4F108260916A
:102F2000D90270E0E0913E03F0913F038AED92E018
:102F300009951092D90236C084E08093450310921F
:102F4000FB021092FA02E0914003F09141030995CF
:102F50008091FA02811105C081E08093FA021092FB
:102F6000FC02E091FB0281E08E0F8093FB02F0E017
:102F7000E450FD4F80818093BB009091FB028091D3
:102F8000FA02981708F47CCF85E88093BC000AC049
:102F900085EC8093BC001092450304C01092D802C7
:102FA0000E94A616FF91EF91BF91AF919F918F91D3
:102FB0007F916F915F914F913F912F910F900FBE35
:102FC0000F901F90189580917A0390E020917B03D9
:102FD000821B9109089590917B0380917A03981741
:102FE00050F4E92FF0E0E458FC4F208130E09F5F7F
:102FF00090937B0302C02FEF3FEFC9010895E0914A
:103000007B0380917A03E81730F4F0E0E458FC4F3A
:10301000808190E008958FEF9FEF08950895CF93FA
:10302000DF93EC01E0915203F09153033097F1F0FC
:1030300090917B0380917A039817C0F090E0292F3C
:1030400030E02617370754F4DE01A20FB31F4C916E
:10305000D901A458BC4F4C939F5FF1CF10927B03D2
:1030600060937A03CB01DF91CF910994DF91CF91E7
:103070000895E0915403F0915503309729F0109290
:1030800058031092570309940895CF92DF92EF925C
:10309000FF920F931F93CF93DF937C01CB018A01A3
:1030A00020915603222389F0EB016B01C40ED51E3B
:1030B000CC15DD0569F06991D701ED91FC91019086
:1030C000F081E02DC7010995F3CF642F0E9474169B
:1030D000C801DF91CF911F910F91FF90EF90DF908A
:1030E000CF900895CF93DF931F92CDB7DEB769835A
:1030F000209156032223D1F020915703203240F033
:1031000021E030E0FC013383228380E090E015C0B1
:1031100080915803E82FF0E0E75AFC4F99819083A3
:103120008F5F809358038093570305C061E0CE0101
:1031300001960E94741681E090E00F90DF91CF918C
:103140000895FC011382128288EE93E0A0E0B0E0C3
:1031500084839583A683B7838EE591E091838083F2
:10316000089510927B0310927A03109258031092E4
:1031700057030E94B81589E398E10E94A1168FE0D9
:1031800098E10C949C1681E0809356036093790338
:10319000109258031092570308950C94C3180F937C
:1031A000062F21E04091570369E573E08091790390
:1031B0000E941E1610925803109257031092560345
:1031C0000F9108954F925F926F927F92AF92BF924C
:1031D000CF92EF92FF920F931F93CF93DF935C01F7
:1031E000F62ED42F28013901EE2021F10E94C318B8
:1031F000CE2DC43008F0C3E0C150C0F028E0C29F1B
:10320000C0011124A301920104C05695479537953A
:1032100027958A95D2F7CA01B901D501ED91FC91A4
:103220000190F081E02DC5010995E6CF60E0C50170
:103230000E94CF184D2FD13208F040E22C2D6CE7C0
:1032400073E08F2D0E94D61510927B0380937A0332
:10325000DF91CF911F910F91FF90EF90CF90BF9092
:10326000AF907F906F905F904F900895CF92EF92C4
:103270000F931F93C22EE12C00E010E098010E94F2
:10328000E2181F910F91EF90CF90089521E00C94D8
:10329000361961E00C94CF1886E493E00C94A118E1
:1032A00080919C0390919D030E94482367E677E0FC
:1032B0008EE993E00C94F91BCF93DF93EB0162E668
:1032C00077E08EE993E00E94F91B84E190E00E9490
:1032D000B022FC0190939D0380939C0381E090E0D9
:1032E000928381838AE090E09683858384E690E0F0
:1032F0009483838383E390E09087878383E081874F
:1033000082E090E09487838784E190E0908B8787C8
:1033100088EC90E09687858784E390E0928B818BA0
:10332000138A6BE377E08EE993E00E94F91B8091AA
:103330009C0390919D030E94980E80919C03909114
:103340009D030A960E94980E80919C0390919D0384
:103350009983888382E08A83DF91CF910895FC016D
:10336000918D228D892F90E0805C9F4F821B910967
:103370008F7399270895FC01918D828D981731F0F4
:10338000828DE80FF11D858D90E008958FEF9FEFFE
:103390000895FC01918D828D981761F0828DDF0177
:1033A000A80FB11D5D968C91928D9F5F9F73928F38
:1033B00090E008958FEF9FEF089582E39BE1892BC2
:1033C00049F080E090E0892B29F00E94321B8111A6
:1033D0000C9400000895FC01848DDF01A80FB11D3D
:1033E000A35ABF4F2C91848D90E001968F7399273B
:1033F000848FA689B7892C93A089B1898C91806428
:103400008C93938D848D981306C00288F389E02DE8
:1034100080818F7D80830895EF92FF920F931F9399
:10342000CF93DF93EC0181E0888F9B8D8C8D981377
:1034300005C0E889F989808185FD24C0F62E0B8DB1
:1034400010E00F5F1F4F0F731127E02E8C8DE812D5
:103450000CC00FB607FCFACFE889F989808185FF97
:10346000F5CFCE010E94EB19F1CF8B8DFE01E80F55
:10347000F11DE35AFF4FF0820B8FEA89FB898081AF
:10348000806207C0EE89FF896083E889F9898081BD
:103490008064808381E090E0DF91CF911F910F9154
:1034A000FF90EF900895CF93DF93EC01888D8823F0
:1034B000C9F0EA89FB89808185FD05C0A889B989A1
:1034C0008C9186FD0FC00FB607FCF5CF808185FF7C
:1034D000F2CFA889B9898C9185FFEDCFCE010E94EA
:1034E000EB19E7CFDF91CF910895CF92DF92EF9262
:1034F000FF921F93CF93DF93EC016A017B01122FA0
:10350000E889F98982E080834115514E6105710592
:10351000B1F060E079E08DE390E0A70196010E94B0
:103520006922DA01C9010197A109B109B695A795E8
:10353000979587959C01211580E13807A8F0E889C7
:10354000F989108260E874E88EE190E0A7019601A5
:103550000E946922DA01C9010197A109B109B69552
:10356000A795979587959C01EC85FD853083EE8521
:10357000FF852083188EEC89FD891083EA89FB89F9
:10358000808180618083EA89FB8980818860808373
:10359000EA89FB89808180688083EA89FB89808150
:1035A0008F7D8083DF91CF911F91FF90EF90DF900F
:1035B000CF9008951F920F920FB60F9211242F9360
:1035C0008F939F93EF93FF93E091AE03F091AF033E
:1035D0008081E091B403F091B50382FD12C0908127
:1035E0008091B7038F5F8F732091B803821751F0DA
:1035F000E091B703F0E0E256FC4F958F8093B7035C
:1036000001C08081FF91EF919F918F912F910F9039
:103610000FBE0F901F9018951F920F920FB60F922A
:1036200011242F933F934F935F936F937F938F93C7
:103630009F93AF93BF93EF93FF938EE993E00E9424
:10364000EB19FF91EF91BF91AF919F918F917F9176
:103650006F915F914F913F912F910F900FBE0F90FF
:103660001F9018958EE993E00E94AF1921E0892BF5
:1036700009F420E0822F0895EEE9F3E0138212822C
:1036800088EE93E0A0E0B0E084839583A683B783BF
:103690008EE691E09183808385EC90E09587848726
:1036A00084EC90E09787868780EC90E0918B808B0C
:1036B00081EC90E0938B828B82EC90E0958B848BF5
:1036C00086EC90E0978B868B118E128E138E148E63
:1036D000089508950E94E61D0E94691B0E94DD1056
:1036E000CDEDD9E10E9426142097E1F30E94DD1967
:1036F000F9CF0C94B022CF92DF92EF92FF920F930A
:103700001F93CF93DF936C017A018B01C0E0D0E06F
:10371000CE15DF0581F0D8016D918D01D601ED91B7
:10372000FC910190F081E02DC6010995892B11F0E3
:103730002196EECF7E01C701DF91CF911F910F91AE
:10374000FF90EF90DF90CF9008956115710579F0AB
:10375000FB0101900020E9F73197AF01461B570BA1
:10376000DC01ED91FC910280F381E02D099480E071
:1037700090E00895EF92FF920F931F93CF93DF9302
:103780008C017B01C0E0D0E0F701EC0FFD1F6491DC
:10379000662361F0D801ED91FC910190F081E02D5C
:1037A000C8010995892B11F02196EECFCE01DF914A
:1037B000CF911F910F91FF90EF900895DB01149628
:1037C0004D915C9115976D917C91DC01ED91FC918F
:1037D0000280F381E02D09940C94A51BDC01ED918E
:1037E000FC910190F081E02D09946AE771E00C945E
:1037F000A51B0F931F93CF93DF93EC010E94BA1B7D
:103800008C01CE010E94F51B800F911FDF91CF919B
:103810001F910F9108950F931F93CF93DF93EC01A6
:103820000E94A51B8C01CE010E94F51B800F911FE9
:10383000DF91CF911F910F9108950F931F93CF9315
:10384000DF93EC010E94EE1B8C01CE010E94F51B60
:10385000800F911FDF91CF911F910F9108958F924B
:103860009F92AF92BF92EF92FF920F931F93CF93CD
:10387000DF93CDB7DEB7A1970FB6F894DEBF0FBECA
:10388000CDBF7C01FA01CB0119A2223008F42AE055
:103890008E010F5D1F4F822E912CA12CB12CBF01E8
:1038A000A50194010E946922F901CA010150110980
:1038B0006A3010F4605D01C0695CD8016C93232B01
:1038C000242B252B61F7B801C7010E94A51BA196E7
:1038D0000FB6F894DEBF0FBECDBFDF91CF911F9121
:1038E0000F91FF90EF90BF90AF909F908F900895B1
:1038F0002115310541F4DC01ED91FC910190F0813D
:10390000E02D642F09940C942F1C9A01462F50E04F
:1039100060E070E00C94781C0F931F93CF93DF93BB
:10392000EC010E94851C8C01CE010E94F51B800FCA
:10393000911FDF91CF911F910F9108959A01AB01D3
:1039400060E070E00C94781C0F931F93CF93DF938B
:10395000EC010E949E1C8C01CE010E94F51B800F81
:10396000911FDF91CF911F910F9108950F931F9396
:10397000CF93DF93EC010E94781C8C01CE010E9452
:10398000F51B800F911FDF91CF911F910F9108952B
:10399000CF92DF92EF92FF920F931F93CF93DF931B
:1039A0002115310581F4DC01ED91FC910190F0814C
:1039B000E02D642FDF91CF911F910F91FF90EF9039
:1039C000DF90CF9009942A30310501F577FF1DC0B3
:1039D0006A017B01EC016DE20E94EE1B8C01442721
:1039E0005527BA014C195D096E097F092AE0CE01FD
:1039F0000E942F1C800F911FDF91CF911F910F917B
:103A0000FF90EF90DF90CF9008952AE0DF91CF9163
:103A10001F910F91FF90EF90DF90CF900C942F1C8F
:103A20009A01AB01770F660B770B0C94C81C0F93B0
:103A30001F93CF93DF93EC010E94101D8C01CE01E8
:103A40000E94F51B800F911FDF91CF911F910F9165
:103A500008950F931F93CF93DF93EC010E94C81C2E
:103A60008C01CE010E94F51B800F911FDF91CF9139
:103A70001F910F9108951F920F920FB60F9211246C
:103A80002F933F938F939F93AF93BF9380913C0469
:103A900090913D04A0913E04B0913F0430913B04CD
:103AA00023E0230F2D3720F40196A11DB11D05C081
:103AB00026E8230F0296A11DB11D20933B0480939D
:103AC0003C0490933D04A0933E04B0933F04809146
:103AD000400490914104A0914204B09143040196A6
:103AE000A11DB11D8093400490934104A093420412
:103AF000B0934304BF91AF919F918F913F912F91CC
:103B00000F900FBE0F901F9018953FB7F8948091BB
:103B1000400490914104A0914204B091430426B521
:103B2000A89B05C02F3F19F00196A11DB11D3FBFF5
:103B3000BA2FA92F982F8827820F911DA11DB11D83
:103B4000BC01CD0142E0660F771F881F991F4A957F
:103B5000D1F708958F929F92AF92BF92CF92DF924A
:103B6000EF92FF926B017C010E94851D4B015C016D
:103B7000C114D104E104F10401F10E9434220E9435
:103B8000851DDC01CB0188199909AA09BB09883E6A
:103B90009340A105B10560F321E0C21AD108E10804
:103BA000F10888EE880E83E0981EA11CB11CC11498
:103BB000D104E104F10419F7DBCFFF90EF90DF901F
:103BC000CF90BF90AF909F908F900895789484B5D8
:103BD000826084BD84B5816084BD85B5826085BD09
:103BE00085B5816085BDEEE6F0E0808181608083EF
:103BF000E1E8F0E0108280818260808380818160D2
:103C00008083E0E8F0E0808181608083E1EBF0E098
:103C1000808184608083E0EBF0E08081816080833C
:103C2000EAE7F0E080818460808380818260808325
:103C30008081816080838081806880831092C10050
:103C400008958E3008F08E502091060190E4299F4F
:103C5000900111248770822B80937C0080917A00E0
:103C6000806480937A0080917A0086FDFCCF8091F9
:103C700078002091790090E0922B0895833081F0B4
:103C800028F4813099F08230A1F008958730A9F0AE
:103C90008830B9F08430D1F4809180008F7D03C0EA
:103CA000809180008F7780938000089584B58F770E
:103CB00002C084B58F7D84BD08958091B0008F7758
:103CC00003C08091B0008F7D8093B0000895CF93A2
:103CD000DF9390E0FC01EA54F84F2491FC01E65395
:103CE000F84F8491882361F190E0880F991FFC01BF
:103CF000EE50F84FC591D491FC01E851F84FA591D1
:103D0000B491611109C09FB7F894888120958223EE
:103D10008883EC912E230BC0623061F49FB7F89436
:103D20008881322F309583238883EC912E2B2C931E
:103D30009FBF06C08FB7F894E8812E2B28838FBFD2
:103D4000DF91CF9108951F93CF93DF93282F30E019
:103D5000F901EE55F84F8491F901EA54F84FD491E6
:103D6000F901E653F84FC491CC23C1F0162F81110D
:103D70000E943E1EEC2FF0E0EE0FFF1FE851F84FBF
:103D8000A591B4919FB7F894111104C08C91D0956E
:103D9000D82302C0EC91DE2BDC939FBFDF91CF9143
:103DA0001F910895FC01808191810C944823CF9349
:103DB000DF93EC0188819981009711F00E944823DC
:103DC000198218821D821C821B821A82DF91CF9178
:103DD00008950F931F93CF93DF93EC018B016F5FD7
:103DE0007F4F888199810E94D123009731F0998378
:103DF00088831B830A8381E001C080E0DF91CF913B
:103E00001F910F910895CF93DF93EC0188819981E1
:103E1000892B29F08A819B818617970760F4CE0150
:103E20000E94E91E882341F08C819D81892B19F421
:103E3000E881F981108281E0DF91CF910895EF92BE
:103E4000FF920F931F93CF93DF93EC017B018A01C5
:103E5000BA010E94031F811104C0CE010E94D71E27
:103E600007C01D830C83B701888199810E94F524C6
:103E7000CE01DF91CF911F910F91FF90EF900895A8
:103E8000FC01118210821382128215821482611544
:103E9000710551F0FB0101900020E9F73197AF0166
:103EA000461B570B0C941F1F0895CF93DF93EC0113
:103EB000FB018617970761F06081718161157105BB
:103EC00029F0448155810E941F1F02C00E94D71E05
:103ED000CE01DF91CF910895FC01118210821382EF
:103EE0001282158214820C94551FEF92FF920F9349
:103EF0001F93CF93DF936115710511F480E01CC00F
:103F000041155105C1F07B01EC018C819D818A0135
:103F1000080F191FB801CE010E94031F882371F3F7
:103F2000288139818C819D81B701820F931F0E9466
:103F3000F5241D830C8381E0DF91CF911F910F91B8
:103F4000FF90EF900895EF92FF920F931F93CF93FE
:103F5000DF9300D000D0CDB7DEB77C01862F4AE0DA
:103F60008E010F5F1F4FB80190E00E94FC24F80102
:103F700001900020E9F73197AF01401B510BB801C8
:103F8000C7010E94751F0F900F900F900F90DF9147
:103F9000CF911F910F91FF90EF900895209186048B
:103FA0003091870428173907B9F49091440480911F
:103FB0004504981789F0E0914404F0E0EA5BFB4F78
:103FC00080812091440430E02F5F3F4F2F733327CF
:103FD0002093440490E008958FEF9FEF08951F937E
:103FE000CF93DF93DC015C968D919C915D97009758
:103FF00039F421E030E013963C932E9312973BC0A6
:104000005196ED91FC91529750962C915097322FEA
:1040100030951FB75E964C915E97742F727041FD7C
:104020006095F8944081772311F0422B01C043231F
:104030004083EC012197F1F748E0508160FF02C016
:10404000522B01C053235083EC012197F1F7669561
:10405000415099F78081772319F08323808302C030
:10406000282B20831FBF5C968D919C915D970197B3
:10407000F1F781E090E0DF91CF911F9108950895CD
:1040800020918604309187042817390771F49091A4
:10409000440480914504981741F0E0914404F0E015
:1040A000EA5BFB4F808190E008958FEF9FEF0895CA
:1040B00020918604309187042817390771F4809184
:1040C00045042091440490E0805C9F4F821B91093D
:1040D00060E470E00E945522089580E090E0089529
:1040E000E0918604F0918704E817F90769F4A38941
:1040F000B4899C918589809589238C93109287043B
:104100001092860481E0089580E00895CF93DF93B4
:10411000EC018A8D9B8D892BF1F080918604909122
:104120008704C817D907B9F0009711F00E947020D2
:104130008E8D8E7F8E8F1092450410924404D09302
:104140008704C0938604EB89FC8990818D89892B33
:10415000808381E001C080E0DF91CF9108951F92BC
:104160000F920FB60F9211242F933F934F935F93AB
:104170006F937F938F939F93AF93BF93EF93FF932F
:10418000E0918604F0918704309709F451C0968D30
:10419000A685B785858591FF04C09C91892329F464
:1041A00047C09C91892309F043C0A389B4899C919D
:1041B0008589809589238C93868997890197F1F762
:1041C000608D718DA685B785558538E020E0CB01DF
:1041D0000197F1F7822F90E095958795282F4C91C4
:1041E000452309F02068315091F7868D81FD209597
:1041F0008091450490E001968F7399273091440493
:10420000381749F0A0914504B0E0AA5BBB4F2C934E
:104210008093450403C0868D8160868F828D938D47
:104220000197F1F7A389B4899C918589892B8C9397
:10423000FF91EF91BF91AF919F918F917F916F917E
:104240005F914F913F912F910F900FBE0F901F9054
:1042500018951F93CF93DF93EC01162F6E8D669503
:10426000617081E06827812F0E94A31E61E0812F89
:104270000E94671E812F90E0FC01EA54F84FE49100
:10428000E88BFC01E653F84FE491F0E0EE0FFF1FDE
:10429000E851F84F859194919A8B898BDF91CF915A
:1042A0001F9108951F93CF93DF93EC01162F60E0C9
:1042B000812F0E94671E8E8D81FD04C061E0812FD9
:1042C0000E94A31E1C87812F90E0FC01EA54F84F46
:1042D000E491ED87FC01E653F84FE491F0E0EE0F36
:1042E000FF1FE252F84F859194919F878E87DF914F
:1042F000CF911F9108951F93CF93DF93EC01162F59
:104300001B821A8288EE93E0A0E0B0E08C839D834C
:10431000AE83BF838DE891E0998388831F8A1E8ACC
:10432000198E188E1B8E1A8E1D8E1C8E8E8D8E7F72
:1043300020FB81F98E8F642FCE010E942921612FED
:10434000CE01DF91CF911F910C945221CF93DF9337
:10435000EC019A01AB011B8E1A8E198E188E1F8AE2
:104360001E8A60E079E08DE390E00E948B22F901E3
:104370002430310518F0C901039702C081E090E0B4
:104380009D8F8C8F6C85663108F069C0C901969548
:1043900087958431910510F0439702C081E090E049
:1043A0009F8B8E8B369718F0C901059702C081E06C
:1043B00090E0998F888FC901880F991F280F391FA6
:1043C00036952795369527952D30310518F02C50C8
:1043D000310902C021E030E03B8F2A8F90916800C4
:1043E000683050F021E06E3008F420E081E001C038
:1043F000880F2A95EAF701C084E0892B8093680032
:104400009C85983038F09E3040F0963148F020E09E
:1044100030E008C02DE630E005C02BE630E002C0F9
:104420002CE630E03C8B2B8B983030F481E001C0DF
:10443000880F9A95EAF70EC0292F30E09E3018F4C5
:104440002850310902C02E50310981E001C0880F87
:104450002A95EAF78D8B8C8D9D8D0197F1F7CE0112
:10446000DF91CF910C9486200895991B79E004C0C8
:10447000991F961708F0961B881F7A95C9F78095A3
:104480000895AA1BBB1B51E107C0AA1FBB1FA6179B
:10449000B70710F0A61BB70B881F991F5A95A9F7ED
:1044A00080959095BC01CD01089597FB072E16F4D9
:1044B000009407D077FD09D00E94412207FC05D067
:1044C0003EF4909581959F4F0895709561957F4F2B
:1044D0000895A1E21A2EAA1BBB1BFD010DC0AA1F45
:1044E000BB1FEE1FFF1FA217B307E407F50720F05D
:1044F000A21BB30BE40BF50B661F771F881F991FD8
:104500001A9469F760957095809590959B01AC0120
:10451000BD01CF010895052E97FB1EF400940E9463
:10452000A22257FD07D00E94692207FC03D04EF457
:104530000C94A22250954095309521953F4F4F4FB6
:104540005F4F089590958095709561957F4F8F4F3F
:104550009F4F0895EE0FFF1F0590F491E02D0994F1
:104560000F931F93CF93DF938230910510F482E075
:1045700090E0E0918A04F0918B0420E030E0A0E02C
:10458000B0E0309719F140815181028113814817C1
:104590005907C8F08417950769F4109731F01296FF
:1045A0000C93129713961C9327C000938A041093C0
:1045B0008B0422C02115310519F04217530718F456
:1045C0009A01BD01EF01DF01F801DBCF21153105B3
:1045D000F9F0281B390B2430310580F48A819B8146
:1045E0006115710521F0FB019383828304C09093D0
:1045F0008B0480938A04FE01329644C0FE01E20FD0
:10460000F31F8193919322503109398328833AC053
:104610002091880430918904232B41F420910201D8
:104620003091030130938904209388042091000184
:10463000309101012115310541F42DB73EB740916C
:10464000040150910501241B350BE0918804F09181
:104650008904E217F307A0F42E1B3F0B2817390734
:1046600078F0AC014E5F5F4F2417350748F04E0FCE
:104670005F1F50938904409388048193919302C0F3
:10468000E0E0F0E0CF01DF91CF911F910F9108950D
:10469000CF93DF93009709F481C0FC013297138216
:1046A0001282A0918A04B0918B04109781F420812A
:1046B0003181820F931F209188043091890428173B
:1046C000390751F5F0938904E093880467C0ED0140
:1046D00020E030E0CE17DF0740F44A815B819E0185
:1046E00041155105F1F0EA01F5CFD383C283408132
:1046F0005181840F951FC817D90759F48881998172
:10470000840F951F0296918380838A819B81938376
:1047100082832115310529F4F0938B04E0938A04F8
:104720003DC0E901FB83EA8349915991C40FD51F2C
:10473000EC17FD0761F480819181840F951F02962B
:10474000E90199838883828193819B838A83E0E056
:10475000F0E012968D919C911397009719F0FD014E
:10476000DC01F7CF8D919C9111979D012E5F3F4FFA
:10477000820F931F209188043091890428173907EC
:1047800069F4309729F410928B0410928A0402C0C5
:1047900013821282B0938904A0938804DF91CF9191
:1047A0000895A0E0B0E0E7EDF3E20C943D25EC01C4
:1047B000009721F4CB010E94B022B4C0FC01E60FA7
:1047C000F71F9C0122503109E217F30708F4A8C033
:1047D000D9010D911C91119706171707B0F00530FC
:1047E000110508F49BC0C80104978617970708F4C1
:1047F00095C002501109061B170B019311936D937D
:104800007C93CF010E94482389C05B01A01AB10AA2
:104810004C01800E911EA0918A04B0918B04612CF2
:10482000712CE12CF12C109709F446C08D919C91CC
:104830001197A815B905B1F56C0142E0C40ED11C61
:10484000CA14DB0478F14C018A189B08640142E029
:10485000C40ED11C1296BC9012971396AC91B5E081
:10486000CB16D10440F0B282A38391828082D90119
:104870006D937C9309C00E5F1F4F800F911FF9014C
:1048800091838083EB2DFA2FE114F10431F0D701ED
:104890001396FC93EE93129741C0F0938B04E09330
:1048A0008A043CC06816790608F43C017D01129622
:1048B0000D90BC91A02DB7CF809188049091890470
:1048C00088169906E1F466167706C8F4809100010F
:1048D00090910101009741F48DB79EB7409104017A
:1048E00050910501841B950BE817F907C8F4F09364
:1048F0008904E0938804F901718360830FC0CB01C0
:104900000E94B0227C01009759F0A801BE010E94CC
:10491000E124CE010E944823C70104C0CE0102C099
:1049200080E090E0CDB7DEB7EEE00C945925FC01B5
:1049300088279927E89421912032E9F3293010F053
:104940002E30C8F32B3241F02D3239F4689404C074
:104950000E940725820F911D219120532A30C0F318
:104960001EF4909581959F4F0895FB01DC018D9178
:10497000059080190110D9F3990B0895FC01059059
:104980000020E9F7809590958E0F9F1F0895FB01F9
:1049900055915523A9F0BF01DC014D9145174111F7
:1049A000E1F759F4CD010590002049F04D914015F3
:1049B0004111C9F3FB014111EFCF81E090E0019774
:1049C0000895FB01DC0102C001900D92415050405E
:1049D000D8F70895FC018191861721F08823D9F733
:1049E000992708953197CF010895FB01DC010190CB
:1049F0000D920020E1F70895BB274A3031F4992346
:104A000022F4BDE2909581959F4F0C9410257AE099
:104A1000979F902D879F802D910D11240895BB277E
:104A2000FB015527AA27880F991FAA1FA41710F06A
:104A3000A41B83955051B9F7A05DAA3308F0A95D76
:104A4000A193009779F7B111B1931192CB010C9416
:104A50002925DC01FC01672F71917723E1F732975B
:104A600004C07C916D9370836291AE17BF07C8F349
:104A700008952F923F924F925F926F927F928F9202
:104A80009F92AF92BF92CF92DF92EF92FF920F93DD
:104A90001F93CF93DF93CDB7DEB7CA1BDB0B0FB6E7
:104AA000F894DEBF0FBECDBF09942A8839884888A4
:104AB0005F846E847D848C849B84AA84B984C8843A
:104AC000DF80EE80FD800C811B81AA81B981CE0F31
:104AD000D11D0FB6F894DEBF0FBECDBFED01089516
:104AE00014E0C1E0D4E004C0FE010E94AA22219695
:0A4AF000C230D107C9F7F894FFCFD8
:104AFA0000008C042000012C00415449005E5A0039
:104B0A002B434D4753004F4B0041542B434D4744D1
:104B1A003D30303000222C22000000000038047B97
:104B2A001B2C04440450045C0449414141455F5232
:104B3A004D6F6E56335F003A005377697463686944
:104B4A006E67206F66662E2E2E0000000000721817
:104B5A004518E317EB17FF170E18000000000C1A90
:104B6A007B1BAF19C919BB19531A0D0A006E616E66
:104B7A0000696E66006F76660000000000EF1F7B1A
:0A4B8A001B5820CE1F40203F2000E2
:00000001FF
